:100000000C9462000C948A000C948A000C948A0070
:100010000C948A000C948A000C948A000C948A0038
:100020000C948A000C947A050C948A000C948A0033
:100030000C948A000C948A000C948A000C948A0018
:100040000C94A9030C948A000C94B5020C948F02B2
:100050000C948A000C948A000C948A000C948A00F8
:100060000C94D3050C948A000000000023002600A5
:10007000290000000000240027002A0000000000E2
:10008000250028002B0004040404040404040202D4
:100090000202020203030303030301020408102007
:1000A0004080010204081020010204081020000012
:1000B0000008000201000003040700000000000027
:1000C00000003E0C11241FBECFEFD8E0DEBFCDBF35
:1000D00011E0A0E0B1E0E0EDFCE102C005900D927E
:1000E000AA32B107D9F722E0AAE2B1E001C01D921D
:1000F000AD3DB207E1F710E0C2E6D0E004C02197C1
:10010000FE010E945B0EC136D107C9F70E9432087A
:100110000C94660E0C940000FC01918D828D981752
:1001200061F0828DDF01A80FB11D5D968C91928DDB
:100130009F5F9F73928F90E008958FEF9FEF0895D8
:10014000FC01918D828D981731F0828DE80FF11DA1
:10015000858D90E008958FEF9FEF0895FC01918DBC
:10016000228D892F90E0805C9F4F821B91098F73B5
:100170009927089582EF91E00E94AE0021E0892B3B
:1001800009F420E0822F0895FC01848DDF01A80F7F
:10019000B11DA35ABF4F2C91848D90E001968F73AF
:1001A0009927848FA689B7892C93A089B1898C91CE
:1001B00080648C93938D848D981306C00288F38994
:1001C000E02D80818F7D80830895EF92FF920F93C1
:1001D0001F93CF93DF93EC0181E0888F9B8D8C8DF3
:1001E000981305C0E889F989808185FD24C0F62E21
:1001F0000B8D10E00F5F1F4F0F731127E02E8C8DBA
:10020000E8120CC00FB607FCFACFE889F9898081A3
:1002100085FFF5CFCE010E94C400F1CF8B8DFE018A
:10022000E80FF11DE35AFF4FF0820B8FEA89FB893B
:100230008081806207C0EE89FF896083E889F9893F
:1002400080818064808381E090E0DF91CF911F9175
:100250000F91FF90EF900895CF93DF93EC01888D7D
:100260008823C9F0EA89FB89808185FD05C0A889BA
:10027000B9898C9186FD0FC00FB607FCF5CF808140
:1002800085FFF2CFA889B9898C9185FFEDCFCE018A
:100290000E94C400E7CFDF91CF91089580E090E005
:1002A000892B29F00E94BA0081110C940000089556
:1002B0003FB7F8948091810190918201A0918301D0
:1002C000B091840126B5A89B05C02F3F19F0019677
:1002D000A11DB11D3FBFBA2FA92F982F8827820FCC
:1002E000911DA11DB11DBC01CD0142E0660F771F1C
:1002F000881F991F4A95D1F70895FC0190810180CC
:10030000F281E02DF8948181892B81832281892FCC
:10031000809528232283A7E0B0E01197F1F721818F
:1003200082238183A3E2B0E01197F1F78081789472
:10033000EFECF0E03197F1F7982381E009F480E0E9
:100340000895FC0190810180F281E02D892F809534
:1003500060FF12C0F8942281822382838181892BDD
:100360008183A3E2B0E01197F1F78281982B928309
:10037000789487ED90E011C0F894228182238283E3
:100380008181892B8183AFEFB0E01197F1F78281F2
:10039000982B928378948FE090E00197F1F708957D
:1003A00085ED8093BC008091BC0084FDFCCF109251
:1003B000CD01089540914E01262F30E0240F311DCC
:1003C00021323105DCF42091CD012430C9F4FC0147
:1003D00080E090E0861758F430914E012191DC01C5
:1003E000A45DBE4FA30FB11D2C930196F3CF809156
:1003F0004E01680F60934E0180E0089581E00895FA
:1004000082E008950895E091860180918501E817C2
:1004100030F4F0E0E957FE4F808190E008958FEFCF
:100420009FEF08959091860180918501981750F46F
:10043000E92FF0E0E957FE4F208130E09F5F909375
:10044000860102C02FEF3FEFC90108958091850119
:1004500090E020918601821B91090895CF92DF924E
:10046000EF92FF920F931F93CF93DF937C01262F80
:10047000972F8A018091CE01882391F0C62FD72F24
:100480006E01C40ED51ECC15DD0571F06991D70142
:10049000ED91FC910190F081E02DC7010995F3CF1A
:1004A000642F822F0E94DA01C801DF91CF911F9142
:1004B0000F91FF90EF90DF90CF900895CF93DF934F
:1004C0001F92CDB7DEB769832091CE012223D1F0F0
:1004D0002091F101203240F021E030E0FC01338333
:1004E000228380E090E015C08091CF01E82FF0E0FA
:1004F000E053FE4F998190838F5F8093CF0180936B
:10050000F10105C061E0CE0101960E94DA0181E0AF
:1005100090E00F90DF91CF9108950E94610E1F929D
:100520000F920FB60F9211242F933F934F935F9327
:100530006F937F938F939F93AF93BF93EF93FF93AB
:1005400082EF91E00E94C400FF91EF91BF91AF91C3
:100550009F918F917F916F915F914F913F912F91DB
:100560000F900FBE0F901F9018951F920F920FB60D
:100570000F9211242F938F939F93EF93FF93E0910A
:100580000202F09103028081E0910802F0910902D9
:1005900082FD12C0908180910B028F5F8F7320913A
:1005A0000C02821751F0E0910B02F0E0EE50FE4F8A
:1005B000958F80930B0201C08081FF91EF919F91F5
:1005C0008F912F910F900FBE0F901F90189590E074
:1005D000FC01E255FF4F3491FC01E656FF4F249198
:1005E000FC01EA57FF4FE491EE2309F43BC03323AB
:1005F00039F1333091F038F43130A9F0323001F56F
:1006000084B58F7D12C0373091F03830A1F034308E
:10061000B9F4809180008F7D03C0809180008F7736
:10062000809380000DC084B58F7784BD09C0809110
:10063000B0008F7703C08091B0008F7D8093B000B1
:10064000F0E0EE0FFF1FE458FF4FA591B4918FB774
:10065000F894EC91611103C020952E2301C02E2B3C
:100660002C938FBF0895CF93DF9390E0FC01E65663
:10067000FF4F2491FC01EA57FF4F8491882361F1D9
:1006800090E0880F991FFC01EE58FF4FC591D4915F
:10069000FC01E458FF4FA591B491611109C09FB7C7
:1006A000F8948881209582238883EC912E230BC0B7
:1006B000623061F49FB7F8943881822F809583234C
:1006C0008883EC912E2B2C939FBF06C08FB7F89494
:1006D000E8812E2B28838FBFDF91CF9108958F92D1
:1006E0009F92AF92BF92CF92DF92EF92FF926B01F7
:1006F0007C010E9458014B015C01C114D104E1044A
:10070000F104F1F00E945801DC01CB01881999092C
:10071000AA09BB09883E9340A105B10570F321E009
:10072000C21AD108E108F10888EE880E83E0981E0D
:10073000A11CB11CC114D104E104F10419F7DDCFEF
:10074000FF90EF90DF90CF90BF90AF909F908F90F1
:1007500008951F920F920FB60F9211242F933F937B
:100760008F939F93AF93BF9380917D0190917E0172
:10077000A0917F01B091800130917C0123E0230F93
:100780002D3720F40196A11DB11D05C026E8230FC9
:100790000296A11DB11D20937C0180937D01909351
:1007A0007E01A0937F01B09380018091810190919F
:1007B0008201A0918301B09184010196A11DB11D18
:1007C0008093810190938201A0938301B09384016F
:1007D000BF91AF919F918F913F912F910F900FBE3D
:1007E0000F901F901895FC01138615861486DC0166
:1007F0001B9633961E92AE17BF07E1F70895EF924E
:10080000FF920F931F93CF93DF937C0108E010E0DA
:10081000C0E0D1E0C7010E947D018111CD2BDD0F29
:1008200001501109B9F78C2FDF91CF911F910F91D2
:10083000FF90EF900895CF92DF92EF92FF920F9387
:100840001F93CF93DF931F92CDB7DEB76C01E62ED7
:1008500008E010E0FF24F39461E08F2D8E2109F46D
:1008600060E0C60149830E94A101FF0C01501109FB
:1008700049810115110581F7411115C0F894D60180
:100880001196ED91FC91129791818C91809589231D
:1008900081831196ED91FC91129792818C918095B4
:1008A0008923828378940F90DF91CF911F910F91CC
:1008B000FF90EF90DF90CF900895CF92DF92EF926C
:1008C000FF920F931F93CF93DF931F92CDB7DEB7A5
:1008D0008C01F62E40E065E579830E941B04CF2C45
:1008E0007981D72E760188E0E80EF11CF60161913E
:1008F0006F0140E0C8010E941B04CE14DF04B1F771
:100900000F90DF91CF911F910F91FF90EF90DF90AB
:10091000CF900895FC0190810180F281E02DF89440
:100920008181292F20958223818378948DE743E06C
:1009300050E0815021F1DA011197F1F7308139232C
:10094000C1F3F8948281822382838181892B818300
:100950007894ABE7B7E01197F1F7F89481812823F9
:100960002183A3E1B1E01197F1F78081982381E021
:1009700009F080E07894E3E6F6E03197F1F7089526
:10098000AF92BF92CF92DF92EF92FF920F931F939D
:10099000CF93DF931F92CDB7DEB75C01E62ED72E43
:1009A000FC01858581115DC0C5010E948A04811109
:1009B00005C0F5011386158614866BC040E060EF14
:1009C000C5010E941B0401E0F12CC12C11E0C501FE
:1009D0000E947D01682FC50169830E947D016981A4
:1009E000613019F48130B9F433C04F2D50E06813F1
:1009F0001BC0F5018385181730F4E40FF51F8381C0
:100A0000802349F402C0181731F060E0193058F41F
:100A1000F501148708C0F501EF0DF11D8381802BCE
:100A2000838361E009C0C12EF501E40FF51F9381B6
:100A3000802F809589238383C5010E94A1011F5FB8
:100A4000000F11F4F39401E0F7E0FF1508F0BFCFB9
:100A5000113438F0F501C386C11015C081E08587D7
:100A600012C0F50113861586148680E0D501139611
:100A7000EE2DFD2D9501255F3F4F9D919193A2177E
:100A8000B307D9F706C0F5018381882351F381E0CC
:100A9000EDCF0F90DF91CF911F910F91FF90EF90CD
:100AA000DF90CF90BF90AF9008950F931F93CF9397
:100AB0008C01C62F60E08C2F0E9433036C2F70E0F6
:100AC000FB01E656FF4FE491D801EC93FB01EA5796
:100AD000FF4FE491F0E0EE0FFF1FE859FF4F8591C3
:100AE0009491F80192838183C801CF911F910F9156
:100AF0000C94F3031F920F920FB60F9211242F93B1
:100B00003F934F935F936F937F938F939F93AF9395
:100B1000BF93EF93FF9380917A0190917B01809333
:100B2000B2008091760190917701A0917801B09107
:100B300079010196A11DB11D8093760190937701F3
:100B4000A0937801B093790180917601909177011B
:100B5000A0917801B091790180917501811112C045
:100B600081E08093750110927601109277011092C6
:100B7000780110927901E0917301F0917401099567
:100B800010927501FF91EF91BF91AF919F918F915D
:100B90007F916F915F914F913F912F910F900FBE79
:100BA0000F901F9018951F920F920FB60F9211245D
:100BB0002F933F934F935F936F937F938F939F9365
:100BC000AF93BF93EF93FF938091B900887F8036F6
:100BD00009F49CC068F5883209F45BC090F4803158
:100BE00009F454C038F4882309F4F6C0883009F4B5
:100BF0004DC0F6C0883109F44CC0803209F45DC0A4
:100C0000EFC0803409F468C048F4803309F455C05B
:100C1000883309F0E5C08093CB01D8C0803509F452
:100C20004FC0883509F45DC0883409F0D9C0D6C0FA
:100C3000883909F4C7C0A8F4883709F467C038F4C4
:100C4000883609F463C0803709F460C0C9C08838A9
:100C500009F4B8C0803909F45FC0803809F0C0C019
:100C60005BC0803B09F486C038F4803A09F466C062
:100C7000883A09F47FC0B4C0803C09F4A7C0883C1E
:100C800009F4A4C0883B09F48AC0AAC08091A801D5
:100C900010C09091CA018091C901981770F5E09138
:100CA000CA0181E08E0F8093CA01F0E0E755FE4F44
:100CB00080818093BB0085EC86C08093CB018EC081
:100CC000E091CA0181E08E0F8093CA018091BB0040
:100CD000F0E0E755FE4F80839091CA018091C901F1
:100CE0006EC0E091CA0181E08E0F8093CA018091AD
:100CF000BB00F0E0E755FE4F80838091CC0181116D
:100D00006DC081E08093A70184EA61C083E0809395
:100D1000CD0110927201CFCF80917201803208F024
:100D200051C0E091720181E08E0F80937201809139
:100D3000BB00F0E0EE5AFE4F8083BDCF85EC809380
:100D4000BC001092CD0180917201803230F4E091AC
:100D50007201F0E0EE5AFE4F10826091720170E075
:100D6000E0915001F091510182E591E009951092D6
:100D7000720136C084E08093CD0110924F01109231
:100D80004E01E0914C01F0914D01099580914E0189
:100D9000811105C081E080934E0110922C01E091F9
:100DA0004F0181E08E0F80934F01F0E0E45DFE4F34
:100DB00080818093BB0090914F0180914E019817E4
:100DC00008F479CF85E88093BC000AC085EC809355
:100DD000BC001092CD0104C01092CB010E94D00142
:100DE000FF91EF91BF91AF919F918F917F916F9103
:100DF0005F914F913F912F910F900FBE0F901F90D9
:100E00001895CF92DF92EF92FF920F931F93CF939B
:100E1000DF936C017A018B01C0E0D0E0CE15DF05D5
:100E200089F0D8016D918D01D601ED91FC91019071
:100E3000F081E02DC6010995892B11F47E0102C0D5
:100E40002196ECCFC701DF91CF911F910F91FF90B9
:100E5000EF90DF90CF900895382F2091F10190917D
:100E6000F001213208F049C08091CD018111FCCF01
:100E700042E04093CD013093CC013FEF3093CB0162
:100E80001092CA012093C901A0EDB1E049EA51E0F6
:100E9000FA013E2F341B321718F43D913193F9CFEC
:100EA0001092A8012091A801990F922B9093A8016C
:100EB0009091A701913061F41092A7019091A8013F
:100EC0009093BB009091BC0093FDF8CF95EC01C0CE
:100ED00095EE9093BC009091CD019230E1F390910A
:100EE000CB019F3F79F08091CB01803241F080911E
:100EF000CB01803331F084E005C081E003C082E0A3
:100F000001C083E01092CF011092F1011092CE0146
:100F100008959091CD019111FCCF613208F060E20B
:100F200091E09093CD019093CC012FEF2093CB01D2
:100F30001092CA01260F2093C9019093A8019091A5
:100F4000A801880F892B8093A8018091A701813087
:100F500061F41092A7018091A8018093BB00809159
:100F6000BC0083FDF8CF85EC01C085EE8093BC000A
:100F70008091CD018130E1F38091CA01861710F490
:100F80006091CA01A9EAB1E027E831E0F9018E2FAA
:100F9000821B861718F48D918193F9CF10928601E8
:100FA00060938501862F0895009769F0FC010190F8
:100FB0000020E9F73197AF01481B590BBC0182EFC4
:100FC00091E00C94010780E090E008958F929F9249
:100FD000AF92BF920F931F93CF93DF93CDB7DEB73E
:100FE000A1970FB6F894DEBF0FBECDBF19A2423055
:100FF00008F44AE08E010F5D1F4F842E912CA12C26
:10100000B12CA50194010E94960CE62FB901CA01EA
:1010100001501109EA3014F4E05D01C0E95CD80127
:10102000EC93232B242B252B61F7C8010E94D407B6
:10103000A1960FB6F894DEBF0FBECDBFDF91CF9162
:101040001F910F91BF90AF909F908F900895E09166
:10105000F201F091F3010190F081E02D682F82EF11
:1010600091E00994CF93DF93CDB7DEB7AC970FB67D
:10107000F894DEBF0FBECDBF789484B5826084BD86
:1010800084B5816084BD85B5826085BD85B581608C
:1010900085BD80916E00816080936E00109281000A
:1010A00080918100826080938100809181008160C5
:1010B0008093810080918000816080938000809186
:1010C000B10084608093B1008091B0008160809312
:1010D000B00080917A00846080937A0080917A00D9
:1010E000826080937A0080917A00816080937A0098
:1010F00080917A00806880937A001092C100E0911C
:101100000202F091030282E08083E091FE01F091FF
:10111000FF011082E0910002F09101028FEC8083C8
:1011200010920A02E0910602F091070286E08083A5
:10113000E0910402F0910502808180618083E0915A
:101140000402F0910502808188608083E0910402AE
:10115000F0910502808180688083E0910402F09123
:10116000050280818F7D8083109286011092850117
:101170001092CF011092F1011092CD0111E0109365
:10118000CC011092A70161E082E10E94E70261E0D8
:1011900083E10E94E7028091B9008E7F8093B900BD
:1011A0008091B9008D7F8093B90088E48093B80066
:1011B00085E48093BC001093CE0183E28093F0011C
:1011C0001092CF011092F10160E18FE892E00E944D
:1011D0005E0281E00E942C078FE39CE90197F1F702
:1011E00000C0000060E086E00E94330360E087E01A
:1011F0000E94330360E088E00E94330360E089E0EE
:101200000E94330361E086E00E94E70261E087E02C
:101210000E94E70261E088E00E94E70261E089E065
:101220000E94E70261E08AE00E94330361E08BE004
:101230000E94330361E08CE00E94330361E081E1AE
:101240000E94330361E084E10E94330361E085E1A1
:101250000E94330360E08AE00E94E70260E08BE0D6
:101260000E94E70261E08CE00E94E70261E081E118
:101270000E94E70261E088E00E94E70261E085E108
:101280000E94E7029924939413E2812EFE01319685
:101290006F0109E00E0F88E6782E1AEF9092CE01CA
:1012A0008092F0011092CF011092F10162E070E0A3
:1012B00083E290E00E9489078FE892E00E94120288
:1012C000B82EA12C8FE892E00E9412027501E82A44
:1012D000F92A81E00E942C07B70180E090E00E948B
:1012E000600D2AE939E949E95FE30E94B80C0E94E0
:1012F000310D70932B0160932A01BE016B5D7F4F0E
:1013000081EC92E00E94C00481110BC081EC92E05C
:101310000E94F3036AEF70E080E090E00E946F03A8
:101320006DC081EC92E00E948A04BE016B5D7F4F2C
:1013300081EC92E00E945D0441E064E481EC92E083
:101340000E941B0468EE73E080E090E00E946F034F
:1013500081EC92E00E948A04BE016B5D7F4F81ECBC
:1013600092E00E945D0440E06EEB81EC92E00E940E
:101370001B04760181EC92E00E94FF03F701819348
:101380007F010E13F7CF6A8170E0762F662789817F
:10139000682B8D81807611F4687F07C0803211F44C
:1013A0006C7F03C0803409F46E7FE090A002F0905F
:1013B000A102E114F10411F1F701808191818134DE
:1013C0009C49C1F4072E000C880B990B0E94620DFA
:1013D00020E030E040E85DE30E94EE0D20E030E0E8
:1013E00040E251E40E94EE0D0E942A0DF701738342
:1013F000628304C0F701E480F580DBCFBE01635E49
:101400007F4F83EB92E00E94C00481110BC083EBFD
:1014100092E00E94F3036AEF70E080E090E00E94A7
:101420006F036DC083EB92E00E948A04BE01635E8D
:101430007F4F83EB92E00E945D0441E064E483EB24
:1014400092E00E941B0468EE73E080E090E00E944E
:101450006F0383EB92E00E948A04BE01635E7F4FBC
:1014600083EB92E00E945D0440E06EEB83EB92E040
:101470000E941B04760183EB92E00E94FF03F701B8
:1014800081937F010E13F7CF6A8170E0762F662774
:101490008981682B8D81807611F4687F07C0803246
:1014A00011F46C7F03C0803409F46E7FE090A002D9
:1014B000F090A102E114F10411F1F7018081918112
:1014C00082349C49C1F4072E000C880B990B0E94B2
:1014D000620D20E030E040E85DE30E94EE0D20E088
:1014E00030E040E251E40E94EE0D0E942A0DF70127
:1014F0007383628304C0F701E480F580DBCFBE0113
:101500006B5E7F4F85EA92E00E94C00481110BC0A0
:1015100085EA92E00E94F3036AEF70E080E090E0D9
:101520000E946F036DC085EA92E00E948A04BE01AA
:101530006B5E7F4F85EA92E00E945D0441E064E4C7
:1015400085EA92E00E941B0468EE73E080E090E080
:101550000E946F0385EA92E00E948A04BE016B5EDE
:101560007F4F85EA92E00E945D0440E06EEB85EAE1
:1015700092E00E941B04760185EA92E00E94FF033C
:10158000F70181937F010E13F7CF6A8170E0762F08
:1015900066278981682B8D81807611F4687F07C06A
:1015A000803211F46C7F03C0803409F46E7FE090C8
:1015B000A002F090A102E114F10411F1F701808181
:1015C000918183349C49C1F4072E000C880B990B40
:1015D0000E94620D20E030E040E85DE30E94EE0DE5
:1015E00020E030E040E251E40E94EE0D0E942A0D1E
:1015F000F7017383628304C0F701E480F580DBCFD9
:10160000BE01635F7F4F8FEC92E00E94C0048111A6
:101610000BC08FEC92E00E94F3036AEF70E080E071
:1016200090E00E946F036DC08FEC92E00E948A04EC
:10163000BE01635F7F4F8FEC92E00E945D0441E04A
:1016400064E48FEC92E00E941B0468EE73E080E09B
:1016500090E00E946F038FEC92E00E948A04BE012A
:10166000635F7F4F8FEC92E00E945D0440E06EEB81
:101670008FEC92E00E941B0476018FEC92E00E94B6
:10168000FF03F70181937F010E13F7CF6A8170E0AA
:10169000762F66278981682B8D81807611F4687F8B
:1016A00007C0803211F46C7F03C0803409F46E7F70
:1016B000E090A002F090A102E114F10411F1F70111
:1016C0008081918184349C49C1F4072E000C880BE1
:1016D000990B0E94620D20E030E040E85DE30E943B
:1016E000EE0D20E030E040E251E40E94EE0D0E9459
:1016F0002A0DF7017383628304C0F701E480F5804B
:10170000DBCF9092CE017092F0011092CF01109237
:10171000F10160E08FE892E00E945E0281E00E94A9
:101720002C0767E070E088E690E00E9489078FE868
:1017300092E00E9412028F77982F92959F70482E08
:10174000919F400C11248FE892E00E9412029C01AC
:10175000332794E0359527959A95E1F7F82E129F57
:10176000F00C11248FE892E00E9412029C013327B2
:1017700044E0359527954A95E1F7E82E129FE00C55
:1017800011248FE892E00E9412028FE892E00E94FA
:1017900012029C01332754E0359527955A95E1F7BD
:1017A000682E129F600C11248FE892E00E941202B2
:1017B0009C01332764E0359527956A95E1F7582E0B
:1017C000129F500C11248FE892E00E9412029C019B
:1017D000332774E0359527957A95E1F7129F800DB0
:1017E0001124682F70E06053784F072E000C880B8F
:1017F000990B4AE00E94E6078FE20E942708652DB8
:1018000070E080E090E04AE00E94E6078FE20E94EC
:101810002708662D70E080E090E04AE00E94E6072D
:1018200080E291E00E94D40783E291E00E94D40715
:101830006E2D70E080E090E04AE00E94E6078AE3C7
:101840000E9427086F2D70E080E090E04AE00E943F
:10185000E6078AE30E942708642D70E080E090E0AC
:101860004AE00E94E60786E291E00E94D40786E201
:1018700091E00E94D4070E944E0110CDE2EFF1E00A
:101880001382128288EE93E0A0E0B0E08483958317
:10189000A683B78324E031E03183208325EC30E058
:1018A0003587248724EC30E03787268720EC30E02A
:1018B000318B208B21EC30E0338B228B22EC30E01B
:1018C000358B248B26EC30E0378B268B118E128ED5
:1018D000138E148EEFE8F2E01382128284839583D4
:1018E000A683B78384E191E09183808362E08FECEB
:1018F00092E00E94550563E081EC92E00E9455055C
:1019000064E083EB92E00E94550565E085EA92E091
:101910000E945505ECE9F2E01182108213821282D6
:10192000158214821782168210860895A1E21A2E5B
:10193000AA1BBB1BFD010DC0AA1FBB1FEE1FFF1F73
:10194000A217B307E407F50720F0A21BB30BE40BC3
:10195000F50B661F771F881F991F1A9469F760950A
:101960007095809590959B01AC01BD01CF010895C4
:101970000E94CC0C0C94B40D0E94AD0D58F00E9446
:10198000A60D40F029F45F3F29F00C949D0D5111F4
:101990000C94E80D0C94A30D0E94C50D68F39923D7
:1019A000B1F3552391F3951B550BBB27AA2762175B
:1019B0007307840738F09F5F5F4F220F331F441F68
:1019C000AA1FA9F335D00E2E3AF0E0E832D091509C
:1019D0005040E695001CCAF72BD0FE2F29D0660F89
:1019E000771F881FBB1F261737074807AB07B0E8CC
:1019F00009F0BB0B802DBF01FF2793585F4F3AF0D2
:101A00009E3F510578F00C949D0D0C94E80D5F3FBE
:101A1000E4F3983ED4F3869577956795B795F79557
:101A20009F5FC9F7880F911D9695879597F908953F
:101A3000E1E0660F771F881FBB1F621773078407DB
:101A4000BA0720F0621B730B840BBA0BEE1F88F7EA
:101A5000E09508950E94310D6894B1110C94E80D41
:101A600008950E94CD0D88F09F5798F0B92F9927BF
:101A7000B751B0F0E1F0660F771F881F991F1AF079
:101A8000BA95C9F714C0B13091F00E94E70DB1E0EA
:101A900008950C94E70D672F782F8827B85F39F0E9
:101AA000B93FCCF3869577956795B395D9F73EF412
:101AB00090958095709561957F4F8F4F9F4F0895BA
:101AC000E89409C097FB3EF49095809570956195D8
:101AD0007F4F8F4F9F4F9923A9F0F92F96E9BB278E
:101AE0009395F695879577956795B795F111F8CF0A
:101AF000FAF4BB0F11F460FF1BC06F5F7F4F8F4F75
:101B00009F4F16C0882311F096E911C0772321F06A
:101B10009EE8872F762F05C0662371F096E8862F02
:101B200070E060E02AF09A95660F771F881FDAF759
:101B3000880F9695879597F9089597F99F6780E89C
:101B400070E060E008959FEF80EC089500240A940F
:101B50001616170618060906089500240A94121688
:101B60001306140605060895092E0394000C11F4BB
:101B7000882352F0BB0F40F4BF2B11F460FF04C068
:101B80006F5F7F4F8F4F9F4F089557FD9058440FC1
:101B9000551F59F05F3F71F04795880F97FB991FCC
:101BA00061F09F3F79F08795089512161306140689
:101BB000551FF2CF4695F1DF08C016161706180616
:101BC000991FF1CF86957105610508940895E894F1
:101BD000BB2766277727CB0197F908950E94010E4E
:101BE0000C94B40D0E94A60D38F00E94AD0D20F0AB
:101BF000952311F00C949D0D0C94A30D11240C94BD
:101C0000E80D0E94C50D70F3959FC1F3950F50E04C
:101C1000551F629FF001729FBB27F00DB11D639F9E
:101C2000AA27F00DB11DAA1F649F6627B00DA11D44
:101C3000661F829F2227B00DA11D621F739FB00DEA
:101C4000A11D621F839FA00D611D221F749F33275A
:101C5000A00D611D231F849F600D211D822F762FF3
:101C60006A2F11249F5750409AF0F1F088234AF0D0
:101C7000EE0FFF1FBB1F661F771F881F915050403C
:101C8000A9F79E3F510580F00C949D0D0C94E80D32
:101C90005F3FE4F3983ED4F3869577956795B795C3
:101CA000F795E7959F5FC1F7FE2B880F911D9695DD
:101CB000879597F90895EE0FFF1F0590F491E02D99
:101CC000099481E090E0F8940C94660EF894FFCFAC
:101CD00000000000E5000107AE008C00A0002C0110
:101CE000000000005E022E0226021202030202021F
:0A1CF0002028002920000D0A000042
:00000001FF
