:100000000C94590E0C948A0E0C948A0E0C948A0E41
:100010000C948A0E0C948A0E0C948A0E0C948A0E00
:100020000C948A0E0C948A0E0C948A0E0C948A0EF0
:100030000C948A0E0C948A0E0C948A0E0C94292926
:100040000C948A0E0C948A0E0C948A0E0C948A0ED0
:100050000C948A0E0C948A0E0C948A0E0C94DF2851
:100060000C948A0E0C94DE270C94B5270C948A0EFF
:100070000C948A0E0C948A0E0C948A0E0C948A0EA0
:100080000C948A0E0C948A0E0C948A0E0C948A0E90
:100090000C948A0E0C948A0E0C948A0E0C94E4290B
:1000A0000C948A0E0C948A0E0C948A0E0C948A0E70
:1000B0000C948A0E0C948A0E0C948A0E0C948A0E60
:1000C0000C948A0E0C948A0E0C948A0E0C948A0E50
:1000D0000C948A0E0C948A0E0C948A0E0C948A0E40
:1000E0000C948A0EE25144532D54FA540556055689
:1000F0009757CE581B5D9F59185B6B5B4E5EF85E41
:100100006B606B602D54736773672D549C5F416106
:100110001957DB618E6219647263A564A065A766D6
:10012000BC66135A98269B268A268E269426D226AB
:100130009F26A326A926AD26B126B726BB26BF2615
:10014000D226C526C926CD26F03515363C3645368D
:100150004E365C367F3600441844354447444744A5
:1001600047445944C1440044C1447544C1447F4498
:100170007F44934493443544DF44DF4435447F4413
:10018000C14447449F44C144C144C144C144C144E3
:10019000B344C144C14405A84CCDB2D44EB938369D
:1001A000A9020C50B9918688083CA6AAAA2ABE00CA
:1001B0000000803F1010208F0000000000000000B1
:1001C000000000000000000000000000000000002F
:1001D00000000000000000000000000007000F8089
:1001E0000F800F800F800F800700070000000000C5
:1001F000070007000700000000000E380E380E3818
:100200000E38063000000000000000000000000072
:10021000000000000000000000000C300C300C302A
:100220007FFE7FFE0C300C300C300C307FFE7FFEEA
:100230000C300C300C3000000000024002400FF87F
:100240001FF81A401A401FF00FF8025802581FF802
:100250001FF00240024000000000000000000E10ED
:100260000E300E7000E001C0038007000E700C70AD
:100270000870000000000000000000000F0019805E
:10028000198019800F000F080F9819F818F018E05E
:1002900019F00F98000000000000000007000700A0
:1002A00007000E0000000000000000000000000039
:1002B00000000000000000000000000000F001C08D
:1002C000038007000E000E000E000E0007000380E2
:1002D00001C000F000000000000000000F000380DB
:1002E00001C000E0007000700070007000E001C00C
:1002F00003800F0000000000000000000180118852
:10030000099007E007E03FFC3FFC07E007E00990A9
:1003100011880180000000000000000000000000C3
:100320000180018001800FF00FF0018001800180C9
:1003300000000000000000000000000000000000BD
:1003400000000000000000000000000000000700A6
:10035000070007000E000000000000000000000081
:100360000000000000001FF81FF80000000000005F
:10037000000000000000000000000000000000007D
:100380000000000000000000000000000000070066
:100390000700070000000000000000000002000647
:1003A000000E001C0038007000E001C00380070050
:1003B0000E001C0000000000000000000FF01C38C0
:1003C0001C781CF81CF81DB81DB81F381F381E38C3
:1003D0001C380FF0000000000000000001800180C8
:1003E00003801F801F8003800380038003800380BD
:1003F00003801FF000000000000000000FE01C70F0
:100400001C380038007000E001C0038007000E387F
:100410001C381FF800000000000000000FE01C70F6
:100420001C380038007003C003C0007000381C384E
:100430001C700FE0000000000000000000E001E080
:1004400003E006E00CE018E01FF81FF800E000E011
:1004500000E003F800000000000000001FF81C008E
:100460001C001C001C001FE01FF0007800381C3826
:100470001C700FE0000000000000000003E0070017
:100480000E001C001C001FF01FF81C381C381C3804
:100490001C380FF000000000000000001FFC1C1CB6
:1004A0001C1C1C1C001C0038007000E001C00380F4
:1004B0000380038000000000000000000FF01C38E3
:1004C0001C381C381F3807E007E01CF81C381C38A3
:1004D0001C380FF000000000000000000FF01C3876
:1004E0001C381C381C381FF80FF800380038007012
:1004F00000E007C000000000000000000000000055
:1005000003800380038000000000038003800380D9
:1005100000000000000000000000000000000000DB
:1005200003800380038000000000038003800380B9
:1005300007000000000000000000007000E001C0A3
:10054000038007000E001C001C000E000700038043
:1005500001C000E00070000000000000000000008A
:1005600000003FFC3FFC000000003FFC3FFC00009F
:10057000000000000000000000001C000E0007004A
:10058000038001C000E00070007000E001C0038043
:1005900007000E001C000000000003C00FF01E78D2
:1005A00018380038007000E001C001C000000000F1
:1005B00001C001C001C0000000000FF81C1C1C1C81
:1005C0001C1C1C1C1CFC1CFC1CFC1CFC1C001C0023
:1005D0001C001FF007F800000000000003C007E047
:1005E0000E701C381C381C381C381FF81C381C387E
:1005F0001C381C3800000000000000001FF00E38FE
:100600000E380E380E380FF00FF00E380E380E3848
:100610000E381FF0000000000000000007F00E3848
:100620001C381C001C001C001C001C001C001C387A
:100630000E3807F000000000000000001FE00E7000
:100640000E380E380E380E380E380E380E380E387A
:100650000E701FE000000000000000001FF80E18E0
:100660000E080E000E300FF00FF00E300E000E08C8
:100670000E181FF800000000000000001FF80E1800
:100680000E080E000E300FF00FF00E300E000E00B0
:100690000E001F00000000000000000007F00E38F0
:1006A0001C381C381C001C001C001CF81C381C3892
:1006B0000E3807F800000000000000001C701C70DD
:1006C0001C701C701C701FF01FF01C701C701C70C4
:1006D0001C701C7000000000000000000FE0038090
:1006E00003800380038003800380038003800380F2
:1006F00003800FE0000000000000000001FC00701B
:1007000000700070007000700070387038703870C1
:1007100038700FE000000000000000001E380E38A6
:100720000E700EE00FC00F800F800FC00EE00E7035
:100730000E381E3800000000000000001F000E00F0
:100740000E000E000E000E000E000E000E080E1819
:100750000E381FF800000000000000001C1C1E3CAA
:100760001F7C1FFC1FFC1DDC1C9C1C1C1C1C1C1C5F
:100770001C1C1C1C00000000000000001C1C1C1C99
:100780001E1C1F1C1F9C1DDC1CFC1C7C1C3C1C1C00
:100790001C1C1C1C000000000000000003E007F00F
:1007A0000E381C1C1C1C1C1C1C1C1C1C1C1C0E386D
:1007B00007F003E000000000000000001FF00E380A
:1007C0000E380E380E380FF00FF00E000E000E002F
:1007D0000E001F00000000000000000003E00F7882
:1007E0000E381C1C1C1C1C1C1C1C1C7C1CFC0FF82C
:1007F0000FF8003800FC0000000000001FF00E3869
:100800000E380E380E380FF00FF00E700E380E380E
:100810000E381E3800000000000000000FF01C38E9
:100820001C381C381C000FE007F000381C381C383E
:100830001C380FF000000000000000001FFC19CC65
:1008400011C401C001C001C001C001C001C001C08C
:1008500001C007F000000000000000001C701C70C8
:100860001C701C701C701C701C701C701C701C7028
:100870001C700FE000000000000000001C701C70E5
:100880001C701C701C701C701C701C701C700EE0A6
:1008900007C0038000000000000000001C1C1C1C9E
:1008A0001C1C1C1C1C1C1C9C1C9C1C9C0FF80FF86A
:1008B0000770077000000000000000001C701C7032
:1008C0001C700EE007C00380038007C00EE01C70A0
:1008D0001C701C7000000000000000001C701C70E8
:1008E0001C701C701C700EE007C003800380038026
:1008F00003800FE000000000000000001FF81C381B
:100900001838107000E001C0038007000E081C18A2
:100910001C381FF8000000000000000007F007006E
:10092000070007000700070007000700070007008F
:10093000070007F000000000000000001000180091
:100940001C000E000700038001C000E000700038AA
:10095000001C0007000000000000000007F000700D
:100960000070007000700070007000700070007007
:10097000007007F0000000000000018003C007E0E5
:100980000E701C3800000000000000000000000095
:100990000000000000000000000000000000000057
:1009A0000000000000000000000000000000000047
:1009B000000000007FFF7FFF000000001C001C0003
:1009C0000700070000000000000000000000000019
:1009D0000000000000000000000000000000000017
:1009E000000000000FE0007000700FF01C701C7021
:1009F0001C700FD800000000000000001E000E0058
:100A00000E000E000FF00E380E380E380E380E386D
:100A10000E381BF000000000000000000000000085
:100A2000000000000FE01C701C701C001C001C70FB
:100A30001C700FE0000000000000000000F80070D3
:100A4000007000700FF01C701C701C701C701C700B
:100A50001C700FD800000000000000000000000023
:100A6000000000000FE01C701C701FF01C001C70C8
:100A70001C700FE0000000000000000003E00770A1
:100A80000770070007001FE01FE0070007000700CE
:100A900007001FC000000000000000000000000070
:100AA000000000000FD81C701C701C701C700FF030
:100AB00007F000701C700FE0000000001E000E0028
:100AC0000E000E000EF00F380F380E380E380E38AC
:100AD0000E381E38000000000000000001C001C0F8
:100AE00001C000000FC001C001C001C001C001C0B1
:100AF00001C00FF80000000000000000007000704E
:100B00000070000003F00070007000700070007052
:100B100000701C700CF007E0000000001E000E00CA
:100B20000E000E000E380E700EE00FC00EE00E70BC
:100B30000E381E3800000000000000000FC001C089
:100B400001C001C001C001C001C001C001C001C09D
:100B500001C00FF8000000000000000000000000CD
:100B6000000000001FF81C9C1C9C1C9C1C9C1C9CD6
:100B70001C9C1C9C00000000000000000000000005
:100B8000000000001FE01C701C701C701C701C70AA
:100B90001C701C700000000000000000000000003D
:100BA000000000000FE01C701C701C701C701C709A
:100BB0001C700FE0000000000000000000000000BA
:100BC000000000001BF00E380E380E380E380E38BC
:100BD0000FF00E000E001F000000000000000000DB
:100BE000000000001FB038E038E038E038E038E0BE
:100BF0001FE000E000E001F0000000000000000045
:100C0000000000001EF00FF80F380E000E000E005E
:100C10000E001F00000000000000000000000000A7
:100C2000000000000FE01C301C300F8003E0187043
:100C300018700FE00000000000000000000001003C
:100C4000030007001FF007000700070007000770F8
:100C5000077003E00000000000000000000000003A
:100C6000000000001C701C701C701C701C701C703C
:100C70001C700FD800000000000000000000000001
:100C8000000000001C701C701C701C701C700EE0BA
:100C900007C003800000000000000000000000000A
:100CA000000000001C1C1C1C1C1C1C9C1C9C0FF825
:100CB0000770077000000000000000000000000046
:100CC000000000001CE01CE00FC0078007800FC080
:100CD0001CE01CE00000000000000000000000001C
:100CE000000000000E380E380E380E380E3807F0AF
:100CF00003E000E001C01F800000000000000000D1
:100D0000000000001FE018E011C0038007000E2063
:100D10001C601FE0000000000000000001F80380DC
:100D20000380038007001C001C0007000380038071
:100D3000038001F800000000000001C001C001C0F4
:100D400001C001C001C001C001C001C001C001C09B
:100D500001C001C001C00000000000001F8001C0F0
:100D600001C001C000E00038003800E001C001C04F
:100D700001C01F8000000000000000001F1C3B9C01
:100D800039DC38F80000000000000000000000001E
:100D900000000000000000000000000000F001F86A
:100DA0000198019801F800F0000000000000000028
:100DB0000000000000000000000000001FF80E18F6
:100DC0000E080E000E000FF00E380E380E380E38DA
:100DD0000E381FF000000000000000001FF80E1881
:100DE0000E080E000E000E000E000E000E000E008B
:100DF0000E001F00000000000000000007F00C7053
:100E00001C701C701C701C701C701C701C701C7082
:100E10001C703FF830182008066000001FF80E18FC
:100E20000E080E000E300FF00FF00E300E000E0800
:100E30000E181FF8000000000000000033CC1998C5
:100E4000199819980DB00FF00FF01DB8199819984E
:100E5000199833CC000000000000000017E01E705D
:100E60001C381038007003C003C0007000381C38F4
:100E70001C700FE000000000000000001C701C70DF
:100E80001C701C701C701C701CF01DF01F701E70FC
:100E90001C701C7000000000038000001C701C709F
:100EA0001C701C701C701C701CF01DF01F701E70DC
:100EB0001C701C70000000000000000003F00670B1
:100EC0000E700E700E700E700E700E700E700E7032
:100ED0000E701C7000000000000000001FF01C706D
:100EE0001C701C701C701C701C701C701C701C70A2
:100EF0001C701C7000000000000000001C701C70C2
:100F00001C701C701C701C700FF007F000700070DB
:100F10001CE00FC000000000000000001FF033982C
:100F20003398339833983398339833981FF003806D
:100F3000038007C000000000000000001C701C704F
:100F40001C701C701C701C701C701C701C701C7041
:100F50001C701FF800180008000000001C701C70B6
:100F60001C701C701C701C701FF00FF00070007063
:100F7000007000700000000000000000399C399CE7
:100F8000399C399C399C399C399C399C399C399CB9
:100F9000399C3FFC0000000000000000399C399C97
:100FA000399C399C399C399C399C399C399C399C99
:100FB000399C3FFE00060002000000003F002E00AA
:100FC0002E000E000E000FF00E380E380E380E38C0
:100FD0000E381FF00000000000000000381C381C14
:100FE000381C381C381C3F9C39DC39DC39DC39DCD6
:100FF00039DC3F9C00000000000000001F000E00D4
:101000000E000E000E000FF00E380E380E380E389F
:101010000E381FF000000000000000000FE01C7000
:101020001C380038003803F803F8003800381C3842
:101030001C700FE000000000000000003CF81D9C48
:101040001D9C1D9C1D9C1F9C1F9C1D9C1D9C1D9CD4
:101050001D9C3CF800000000000000000FF81C7010
:101060001C701C701C701C701FF00FF01C701C702A
:101070001C7038780000000000000000001807F81D
:101080000F000E000E000FF00E380E380E380E381E
:101090000E3807F000000000000000000000000013
:1010A000000000001FF00E380E380FF00E380E381A
:1010B0000E381FF0000000000000000000000000DB
:1010C000000000001FF81C381C001C001C001C0045
:1010D0001C001C00000000000000000000000000D8
:1010E0000000000007F00E700E700E700E700E7093
:1010F0000E701FF810080000000000000000000043
:1011000006C000000FE01C701C701FF01C001C705B
:101110001C700FE000000000000000000000000054
:101120000000000019CC19CC19CC0DD807F00DD84F
:1011300019CC19CC000000000000000000000000E5
:10114000000000000FE01C70007003E000700070F1
:101150001C700FE000000000000000000000000014
:10116000000000001C701C701C701CF01D701E70B4
:101170001C701C7000000000000000000000000057
:1011800001C000000E380E380E380E780EB80F3839
:101190000E380E38000000000000000000000000C3
:1011A000000000000E380E380E700FE00E700E3882
:1011B0000E380E38000000000000000000000000A3
:1011C0000000000003F807380738073807380738E9
:1011D00007380E380000000000000000000000008A
:1011E000000000003838383838383C783AB8393898
:1011F000383838380000000000000000000000000F
:10120000000000001C701C701C701C701FF01C7013
:101210001C701C70000000000000000000000000B6
:10122000000000001FF01C701C701C701C701C70F3
:101230001C701C7000000000000000000000000096
:10124000000000001FF013900380038003800380E0
:101250000380038000000000000000000000000088
:10126000000003801FF03BB83BB83BB83BB80FF021
:1012700003800380038000000000000000000000E5
:10128000000000001C701C701C701C701C701C7016
:101290001C701FF800180000000000000000000093
:1012A000000000001C701C701C701C700FF000709F
:1012B000007000700000000000000000000000004E
:1012C00000000000399C399C399C399C399C399C20
:1012D000399C3FFC000000000000000000000000FE
:1012E00000000000399C399C399C399C399C399C00
:1012F000399C3FFE000600000000000000000000D6
:10130000000000003E002E000E000FF00E380E38D8
:101310000E380FF000000000000000000000000088
:1013200000000000381C381C381C3F9C39DC39DCBC
:1013300039DC3F9C000000000000000000000000BD
:10134000000000000E000E000E000FF00E380E38E8
:101350000E380FF000000000000000000000000048
:10136000000000000FE01C70007003F000700070BF
:101370001C700FE0000000000000000000000000F2
:101380000000000038F8399C399C399C3F9C399CFE
:10139000399C38F800000000000000000000000048
:1013A0000000000007F80E380E380E3807F80E3827
:1013B0000E381C3800000000080C20A600000000B9
:1013C000000000000000000000002020202020205D
:1013D0000020000000285050000000000000000025
:1013E00000002828FC2850FC50500000002078A85D
:1013F000A0603028A8F02000000048A8B050283491
:1014000054480000000020505078A8A8906C0000BC
:1014100000404080000000000000000000040810B0
:1014200010101010100804000040201010101010B0
:101430001020400000000020A87070A820000000CC
:101440000000202020F820202000000000000000E4
:1014500000000000004040800000000000F8000094
:10146000000000000000000000000000004000003C
:1014700000081010102020404040800000007088BC
:101480008888888888700000000020602020202044
:1014900020700000000070888810204080F8000054
:1014A00000007088083008088870000000001030C4
:1014B00050509078101800000000F88080F0080864
:1014C000887000000000709080F0888888700000AC
:1014D0000000F890102020202020000000007088DC
:1014E0008870888888700000000070888888780874
:1014F00048700000000000002000000000200000F4
:10150000000000000020000000202000000408105F
:10151000204020100804000000000000F80000F83F
:1015200000000000004020100804081020400000C7
:1015300000007088881020200020000000007088C3
:1015400098A8A8B88078000000002020305050787B
:1015500048CC00000000F0484870484848F00000BF
:101560000000788880808080887000000000F0484B
:101570004848484848F000000000F8485070504083
:1015800048F800000000F8485070504040E000006B
:101590000000384880809C88483000000000CC481B
:1015A0004878484848CC00000000F820202020203F
:1015B00020F8000000007C10101010101090E000C7
:1015C0000000EC485060505048EC00000000E04043
:1015D0004040404044FC00000000D8D8D8D8A8A81B
:1015E000A8A800000000DC486868585848E80000D7
:1015F0000000708888888888887000000000F048A3
:101600004870404040E0000000007088888888E80A
:10161000987018000000F0484870504848EC0000EE
:10162000000078888060100888F000000000F8A8AA
:1016300020202020207000000000CC484848484866
:10164000483000000000CC484850503020200000B6
:101650000000A8A8A8705050505000000000D850BA
:101660005020205050D800000000D850502020209A
:10167000207000000000F8901020204048F8000082
:10168000003820202020202020203800004040402A
:101690002020101010080000007010101010101002
:1016A000101070000020500000000000000000003A
:1016B0000000000000000000000000FC002000000E
:1016C000000000000000000000000000003048386A
:1016D000483C00000000C04040704848487000008E
:1016E00000000000003848404038000000001808A2
:1016F00008384848483C00000000000000304878A6
:101700004038000000001C202078202020780000B5
:1017100000000000003C4830407844380000C040E1
:101720004070484848EC0000000020000060202085
:10173000207000000000100000301010101010E0A9
:101740000000C040405C507048EC00000000E02009
:101750002020202020F800000000000000F0A8A8B1
:10176000A8A800000000000000F0484848EC000075
:101770000000000000304848483000000000000031
:1017800000F04848487040E0000000000038484839
:101790004838081C0000000000D8604040E000000D
:1017A00000000000007840300878000000000020B1
:1017B00020702020201800000000000000D84848B9
:1017C000483C00000000000000EC485030200000C1
:1017D0000000000000A8A8705050000000000000A9
:1017E00000D8502050D800000000000000EC485005
:1017F000302020C000000000007810202078000079
:1018000000181010102010101010180010101010D8
:101810001010101010101010006020202010202038
:101820002020600040A4180000000000000000001C
:101830000000304848300000000000000000F84878
:101840004070484848F000000000F84840404040E0
:1018500040E00000000038484848484848FC840000
:101860005000F8485070504048F800000000A8A808
:10187000A870F8A8A8A800000000F08808300808A0
:1018800008F000000000EC485858686848DC000088
:101890003000EC485858686848DC000000003C48BC
:1018A0004848484848CC00000000FC4848484848A0
:1018B00048CC00000000D85050202040408000005C
:1018C000000070A8A8A8A870207000000000CC48F4
:1018D0004848484848FC04000000CC4848483808BC
:1018E000081C00000000D6545454545454FE000008
:1018F0000000D6545454545454FE02000000E0C07A
:101900004070484848F000000000EE4444645454DD
:1019100054EE00000000E0404070484848F00000ED
:101920000000E09008380808906000000000EC52C9
:101930005252725252EC000000003C48484838486D
:10194000489C0000000008304070484848300000C3
:101950000000000000702830287000000000000027
:1019600000782820207000000000000000182828BF
:10197000287C4400000000280030487840300000F7
:1019800000000000005454385454000000000000CF
:1019900000700830087000000000000000CC4858BB
:1019A00068CC00000000003000CC485868CC000033
:1019B0000000000000485060504800000000000097
:1019C000001C2828284C00000000000000446C5433
:1019D000444400000000000000CC487848CC0000DF
:1019E0000000000000FC484848CC00000000000057
:1019F000007C5410103800000000000000385454DF
:101A0000543810380000000000CC484848FC04005E
:101A10000000000000CC4838080C00000000000066
:101A200000545454547C00000000000000545454EE
:101A3000547E02000000000000E0A030287000008A
:101A40000000000000C6446454E6000000000000EE
:101A500000602030287000000000000000304818AE
:101A6000483000000000000000C8547454C8000052
:101A700000000000003C4848384C00003CE781BDB5
:101A800081BD81BD81BD81FF3CE7818181BD81BD7B
:101A900081BD81FF3CE78181818181BD81BD81FF65
:101AA0003CE781818181818181BD81FF3CE781812A
:101AB00081818181818181FFFFFF003F3F000F0F06
:101AC000000303000000003F3F000F0F000303006E
:101AD0000000000000000F0F0003030000000000E2
:101AE000000000000003030000001010101010544C
:101AF00038100000000010385410101010100000B2
:101B00000000000010087C08100000000000000029
:101B100010207C20100000000000003C0C14244425
:101B200080000000000000804424140C3C000000F1
:101B300000003C42A581A599423C000000003C7E8B
:101B4000DBFFFFDB663C000000003C42A58199A55D
:101B5000423C000000003C7EDBFFFFE75A3C0000F7
:101B600000003C4281818181423C000000003C7EBB
:101B7000FFFFFFFF7E3C00000000FF81818181812B
:101B800081FF00000000FFFFFFFFFFFFFFFF0000DD
:101B900000002100240027002A002D00300033001F
:101BA00001010000040107010A01000020002300D8
:101BB000260029002C002F00320000010000030144
:101BC0000601090100000A0B02090C0D0E080703AB
:101BD0000401000000000000000000000000000000
:101BE00000000000000000000000000000000000F5
:101BF00012111000000000000000000000000000B2
:101C00000000000000000000000001021020200879
:101C10000810204010204080020102010804020147
:101C200001020408102040808040201008040201B6
:101C3000800402018040201008040201080402010F
:101C40000102040810204080010204081020408096
:101C500000002200250028002B002E003100340057
:101C600002010000050108010B0105050505070536
:101C700008080808020202020A0A08080404040408
:101C80000101010101010101030303030303030334
:101C9000040707070C0C0C0C0C0C0C0C02020202C3
:101CA00006060606060606060B0B0B0B0B0B0B0BAC
:101CB000386911241FBECFEFD1E2DEBFCDBF00E0F7
:101CC0000CBF26E0AAE2B4E001C01D92AA32B2071E
:101CD000E1F714E0A0E0B2E0E8E3F0EE00E00BBFD3
:101CE00002C007900D92AA32B107D9F71EE0C9E5EC
:101CF000DEE000E006C021970109802FFE010E946E
:101D0000DE6DC835D10780E00807A9F70E94B15001
:101D10000C941A700C9400002F923F924F925F9295
:101D20006F927F928F929F92AF92BF92CF92DF92EB
:101D3000EF92FF920F931F93CF93DF93CDB7DEB750
:101D40002A970FB6F894DEBF0FBECDBF0E94D323F3
:101D50000E942C1D0E94E31C80913604282F30E045
:101D600040913704509138044217530709F4C0C01A
:101D70008111A5C0809135048111A1C080913404E6
:101D800081119DC08FEF8093D9058093DA058091F2
:101D9000E705803151F5E091ED05F091EE05908178
:101DA0008091F90580958923808321E530E048E31F
:101DB00051E068E070E088EF90E00E94D543E09148
:101DC000E905F091EA0590818091F705892B8083E0
:101DD0006091DA0570E08091D9052AEC32E140E0AB
:101DE00050E090E00E94A93E28C0883081F5E09143
:101DF000ED05F091EE0590818091F905809589239C
:101E0000808321E530E048E351E068E070E088EF4E
:101E100090E00E94D543E091E905F091EA059081B8
:101E20008091F705892B80838091D9054AEC52E196
:101E300060E070E090E00E94D83BE091ED05F09109
:101E4000EE0590818091F905892B808336C08091C1
:101E5000DD05811119C008E010E040E450E0B80150
:101E600088EF90E00E94A24069E570E0601B710B72
:101E700040E450E088EF90E00E94A2400F5F1F4FC7
:101E80000D32110551F719C008EF10E049E450E098
:101E900068E070E0C8010E94384049E450E068E022
:101EA00070E080E392E0801B910B0E9438400F5F4E
:101EB0001F4F093121E0120749F70E942C1DF090B5
:101EC0003604F1100CC00091350410E0C8010E94E6
:101ED0003A2080913404B80190E00E949C1D0F2D9F
:101EE00010E0C8010E94BD2210933804009337040B
:101EF0000E947542882309F424C60E948D420E94E4
:101F0000A4349E838D830E94ED3398878F83885CF1
:101F10009109889708F0DCC58D819E81845091409D
:101F2000CC9708F0D5C588EF8093D9051092DA05D3
:101F30002FEE30E04FE351E068EC70E084E091E098
:101F40000E94E3410E94532B0E940D3084EB91E0EC
:101F50000E94452F12E41093D905F0E1FF2EF09274
:101F6000DA052FEE30E04FE351E068EC70E085EAEF
:101F700090E00E94612F0FEF0093D9050093DA05DE
:101F80002FEE30E04FE351E068EC70E085EA90E03E
:101F90000E94E3411093DB05F092DC0510920906E4
:101FA00044ED50E062ED70E081ED92E00E94E92C9A
:101FB0001092DB051092DC05109209061093D905EA
:101FC000F092DA052FEE30E04AE950E068EC70E07C
:101FD00080E090E00E94612F0093D9050093DA051C
:101FE0002FEE30E04AE950E068EC70E080E090E0ED
:101FF0000E94E3411093DB05F092DC051092090684
:1020000044ED50E06DE170E086ED92E00E94E92C35
:102010001092DB051092DC05109209061092D9058A
:102020008FE18093DA0520E630E04FE351E060E095
:1020300070E080E090E00E94E34124EC30E04FE368
:1020400051E064E670E080E090E00E94E34148E205
:1020500050E06AE070E08DED92E00E94E92C48E2E9
:1020600050E06AE970E081EE92E00E94E92C48E2DB
:1020700050E06AEC70E081EE92E00E94E92C4CE8BE
:1020800050E06AE070E083EE92E00E94E92C4CE8B8
:1020900050E06AE970E089EE92E00E94E92C4CE899
:1020A00050E06AEC70E089EE92E00E94E92C6AE070
:1020B00070E08AE790E00E94C54D6AE070E08AEA2D
:1020C00090E00E94C54D6AE070E08AED90E00E94C9
:1020D000C54D6DE370E08AE790E00E94204D6DE30E
:1020E00070E08AEA90E00E94204D6DE370E08AED96
:1020F00090E00E94204D6EE670E08AE790E00E943A
:10210000C54D6EE670E08AEA90E00E94C54D6EE62D
:1021100070E08AEE90E00E94C54D61EA70E08AE7C7
:1021200090E00E94204D61EA70E08AEA90E00E940F
:10213000204D61EA70E08AEE90E00E94204D00930D
:10214000D9050093DA050E94E31C80910402482F10
:1021500050E05A8749870091030230910102209193
:102160000202909100026091340480913504209025
:102170003604452B91F010E0C32ED22EE92FF0E06B
:10218000FB83EA83862E912CA82EB12C312CFAE009
:102190008F1691046CF51C8216C021E02C8345E05B
:1021A00050E05B834A83EAEDCE2EE7E0DE2E01E0CD
:1021B00010E081E090E09A878987212C312CA12CB6
:1021C000B12C812C912C28E230E04AE750E060E00D
:1021D00070E0CB010E941C3228E230E04AE850E077
:1021E000B401092C000C880B990B0E941C320AC008
:1021F00070E080E090E028E230E04AE750E00E94A2
:102200001C321C8225010B2C000C6608770828E282
:1022100030E04AEA50E09AE0A916B1044CF460E0DC
:1022200070E0CB010E941C3228E230E04AEB50E023
:10223000C301B2010E941C322101032C000C66086C
:10224000770828E230E04AED50E0EAE02E1631044B
:102250004CF460E070E0CB010E941C3228E230E0D8
:102260004AEE50E0C301B2010E941C3229853A8532
:102270002901032E000C660877082A30310574F412
:102280002CE830E04AE750E060E070E0CB010E94CB
:102290001C322CE830E04AE850E004C02CE830E082
:1022A0004AE750E0C301B2010E941C322801012E0E
:1022B000000C660877082CE830E04AEA50E00A3063
:1022C00011054CF460E070E0CB010E941C322CE858
:1022D00030E04AEB50E0C301B2010E941C322CE80E
:1022E00030E04AED50E0B6010D2C000C880B990B44
:1022F0000E941C328A810E94E14C3C81398372E445
:10230000E72EFF24FA940E9475428823E1F30E948D
:102310008D420E94A4343C010E94ED332C010A97A7
:102320004A9708F0B4C0C3018A579109819760F5B4
:102330006AE070E08AE790E00E94AE2B4FEF841ACB
:10234000940A58E18516910429F08AE088169104D0
:102350008CF402C0812C912C28E230E04AE750E056
:1023600060E070E0CB010E941C3228E230E04AE8D5
:1023700050E004C028E230E04AE750E0B401092C04
:10238000000C880B990B05C1C3018A5A91098197EA
:1023900060F56AE070E08AEA90E00E94AE2B2FEFD1
:1023A000A21AB20A3CE3A316B10429F04AE0A4162B
:1023B000B1048CF402C0A12CB12C28E230E04AEA2E
:1023C00050E060E070E0CB010E941C3228E230E077
:1023D0004AEB50E004C028E230E04AEA50E0B501A0
:1023E0000B2C000C880B990B23C1C3018A5D91094A
:1023F000819708F03DC16AE070E08AED90E00E94AC
:10240000AE2BEFEF2E1A3E0AFCE32F16310429F013
:102410002AE0221631048CF402C0212C312C28E24F
:1024200030E04AED50E060E070E0CB010E941C32E9
:1024300028E230E04AEE50E004C028E230E04AED05
:1024400050E0B101032C000C880B990B0E941C3248
:10245000398131110DC1E092D90540E14093DA058F
:1024600088EB93E10E94452F4AE050E06AE070E07B
:102470008BEE92E00E94E92CF092D905F092DA05F9
:1024800084EB91E00E94452F51E05983F1C0C201D5
:10249000CD974A9708F0ECC0C3018A5791098197FC
:1024A00008F049C06DE370E08AE790E00E94AE2B2F
:1024B00081E0881A910890F0EAE08E1691048CF47D
:1024C00028E230E04AE750E060E070E0CB010E9493
:1024D0001C3228E230E04AE850E007C067E1862E6F
:1024E000912C28E230E04AE750E0B401092C000CBE
:1024F000880B990B0E941C32F981F111B9C0E0924E
:10250000D90520E12093DA0588EB93E10E94452F5D
:102510004AE050E06AE070E08BEE92E00E94E92C25
:10252000F092D905F092DA0584EB91E00E94452FF4
:1025300031E039839DC0C3018A5A9109819708F01F
:1025400049C06DE370E08AEA90E00E94AE2B41E062
:10255000A41AB10890F08AE0A816B1048CF428E21D
:1025600030E04AEA50E060E070E0CB010E941C32AB
:1025700028E230E04AEB50E007C05BE3A52EB12C27
:1025800028E230E04AEA50E0B5010B2C000C880B41
:10259000990B0E941C32998191116AC0E092D90571
:1025A000E0E1E093DA0588EB93E10E94452F4AE0F1
:1025B00050E06AE070E08BEE92E00E94E92CF0922D
:1025C000D905F092DA0584EB91E00E94452FF1E005
:1025D000F9834EC0C3018A5D9109819708F048C014
:1025E0006DE370E08AED90E00E94AE2B21E0221AAC
:1025F000310890F04AE0241631048CF428E230E0EF
:102600004AED50E060E070E0CB010E941C3228E20D
:1026100030E04AEE50E007C04BE3242E312C28E294
:1026200030E04AED50E0B101032C000C880B990B0F
:102630000E941C32598151111BC0E092D90580E1E2
:102640008093DA0588EB93E10E94452F4AE050E041
:102650006AE070E08BEE92E00E94E92CF092D905DE
:10266000F092DA0584EB91E00E94452F91E0998386
:10267000C2018E5691094A9708F0D0C0C3018A570B
:102680009109819708F046C06EE670E08AE790E015
:102690000E94AE2BA601602F89858F5F0E94312C8E
:1026A000E82FF0E0FA87E987482E512C612C712C35
:1026B0002CE830E04AE750E03A974CF460E070E0F4
:1026C000CB010E941C322CE830E04AE850E0C30104
:1026D000B2010E941C32FC81F11196C0E092D90532
:1026E00020E12093DA0588EB93E10E94452F4EE626
:1026F00050E06AE070E08BEE92E00E94E92CF092EC
:10270000D905F092DA0584EB91E00E94452F31E083
:102710003C837AC0C3018A5A9109819748F56EE6D5
:1027200070E08AEA90E00E94AE2B0F5F1F4F0D30E1
:10273000110521F00A3011058CF402C001E010E00F
:102740002CE830E04AEA50E060E070E0CB010E9403
:102750001C322CE830E04AEB50E004C02CE830E0BA
:102760004AEA50E0B801012E000C880B990B23C0F7
:10277000EAEE6E1A7108F1E26F16710408F044C0B7
:102780006EE670E08AEE90E00E94AE2B2FEFC21A48
:10279000D20A34E3C31638E0D30621F430EDC32E59
:1027A00037E0D32E2CE830E04AED50E0B6010D2C96
:1027B000000C880B990B0E941C32A601602F8985A2
:1027C0000E94E02B482F50E05A8749875C815111C5
:1027D0001BC0E092D90580E18093DA0588EB93E194
:1027E0000E94452F4EE650E06AE070E08BEE92E0EA
:1027F0000E94E92CF092D905F092DA0584EB91E081
:102800000E94452F91E09C83A601602F89850E943C
:102810005B2BE82FF0E0FB83EA83D8C0C201815A2A
:1028200091094A9708F0D5C0C3018A579109819749
:1028300008F04CC061EA70E08AE790E00E94AE2B9D
:10284000A601602F898581500E94312C282F30E00D
:102850003A872987482E512C612C712C2A3031055A
:1028600074F42CE830E04AE750E060E070E0CB011F
:102870000E941C322CE830E04AE850E004C02CE80A
:1028800030E04AE750E0C301B2010E941C323C81B3
:10289000311193C0E092D90540E14093DA0588EB0D
:1028A00093E10E94452F4EE650E06AE070E08BEE27
:1028B00092E00E94E92CF092D905F092DA0584EBBF
:1028C00091E00E94452F51E05C8377C0C3018A5A92
:1028D0009109819730F561EA70E08AEA90E00E9400
:1028E000AE2B0150110989F00A30110584F42CE84F
:1028F00030E04AEA50E060E070E0CB010E941C3218
:102900002CE830E04AEB50E006C00CE010E02CE888
:1029100030E04AEA50E0B801012E000C880B990B18
:1029200023C04AEE641A710851E26516710408F07A
:1029300044C061EA70E08AEE90E00E94AE2B81E034
:10294000C81AD1089FECC91697E0D90621F423E3F1
:10295000C22E28E0D22E2CE830E04AED50E0B6013D
:102960000D2C000C880B990B0E941C32A601602FC5
:1029700089850E94E02BE82FF0E0FA87E987FC8147
:10298000F1111BC0E092D90520E12093DA0588EB14
:1029900093E10E94452F4EE650E06AE070E08BEE36
:1029A00092E00E94E92CF092D905F092DA0584EBCE
:1029B00091E00E94452F31E03C83A601602F89857C
:1029C0000E945B2B482F50E05B834A830E94E14CBE
:1029D00035C0C201885C9109889780F5C301855A8A
:1029E00091098B39910598F458EF5093D9051092BD
:1029F000DA052FEE30E04FE351E068EC70E085EA55
:102A000090E00E94E34166246394712C19C08BE925
:102A10006816710498F498EF9093D9051092DA052E
:102A20002FEE30E04AE950E068EC70E080E090E0A2
:102A30000E94E34182E0682E712C02C0612C712C4F
:102A40006114710409F45FCC0E94532B6A946728C7
:102A5000E1F5F981F11103C02C812223B1F188E65F
:102A60000E94DF2C80E090E00E94FF4867E070E069
:102A700088E690E00E944B31C1010E94742C0E94B4
:102A8000FF48C5010E94742C0E94FF48C4010E94A7
:102A9000742C0E94FF488A819B810E94742C0E94A2
:102AA000FF4889859A850E94742C0E94FF48C801BE
:102AB0000E94742C0E94FF48C601805D97400E94CE
:102AC000742C0E94FF480E94822C0E94D323C4D7FA
:102AD0008F8198858C589109899798F58D819E8171
:102AE00084509140CC9768F588EF8093D905109277
:102AF000DA0524EB30E04FE351E06CE870E084E06D
:102B000091E00E94E3410E940D3084EB91E02A960F
:102B10000FB6F894DEBF0FBECDBFDF91CF911F91EE
:102B20000F91FF90EF90DF90CF90BF90AF909F906C
:102B30008F907F906F905F904F903F902F900C946C
:102B4000452F6AE070E080E090E00E94A72802C96B
:102B5000CF93DF930E940D3084EB91E00E94452FCC
:102B60001092D905DFE1D093DA0527E330E04FE397
:102B700051E065E070E084E091E00E94612F23E77E
:102B800030E04FE351E061E470E084E091E00E94C6
:102B9000612F2FEA30E04FE351E06DE770E084E011
:102BA00091E00E94612F2BEE30E04FE351E069EBA2
:102BB00070E084E091E00E94612FCFEFC093D905CF
:102BC000C093DA0527E330E04FE351E065E070E0C1
:102BD00084E091E00E94E34123E730E04FE351E0DD
:102BE00061E470E084E091E00E94E3412FEA30E08C
:102BF0004FE351E06DE770E084E091E00E94E34133
:102C00002BEE30E04FE351E069EB70E084E091E0BF
:102C10000E94E3412FE530E040E550E063E270E0E0
:102C200085E090E00E94E3412FE530E045EA50E086
:102C300063E270E085E590E00E94E3412FE530E03B
:102C40004AEF50E063E270E08AEA90E00E94E341DC
:102C50002AEA30E040E550E064E670E085E090E08C
:102C60000E94E3412AEA30E045EA50E064E670E081
:102C700085E590E00E94E3412AEA30E04AEF50E027
:102C800064E670E08AEA90E00E94E3412BEE30E0D7
:102C900040E550E06FEA70E085E090E00E94E3419B
:102CA0002BEE30E045EA50E06FEA70E085E590E019
:102CB0000E94E3412BEE30E04AEF50E06FEA70E013
:102CC0008AEA90E00E94E34123E230E045EA50E0E6
:102CD0006FE570E085E590E00E940A412BEE30E060
:102CE00045EA50E06FEA70E085E590E00E940A4115
:102CF0001092DB05D093DC05109209064DE050E000
:102D000069E071E084EF92E00E94E92C40E250E03B
:102D100069E071E088EF92E00E94E92C49E450E01C
:102D200069E071E084EF92E00E94E92C4CE550E00C
:102D300069E071E08CEF92E00E94E92C4EE850E0EF
:102D400069E071E080E093E00E94E92C43EC50E000
:102D500062E171E084E093E00E94E92C42ED50E0F2
:102D600062E171E087E093E00E94E92CC093D9050D
:102D700080EE8093DA051092DB051092DC0510924C
:102D8000090648E250E06AE070E083E293E00E94C6
:102D9000E92C48E250E06FEA70E089E493E00E9499
:102DA000E92C4AE650E06AE070E08AE093E00E9495
:102DB000E92C4AE650E06AE570E08CE093E00E947E
:102DC000E92C4AE650E06FEA70E08EE093E00E9462
:102DD000E92C44EB50E06AE070E080E193E00E946F
:102DE000E92C44EB50E06FEA70E082E193E00E944E
:102DF000E92C88EB93E10E94452F4DE250E06FE50E
:102E000070E084E193E00E94E92C46E450E06CE835
:102E100070E087E193E00E94E92C42ED50E06FE51D
:102E200070E084E193E00E94E92C4BEB50E06CE809
:102E300070E087E193E00E94E92C80915402909128
:102E40005502019709F0C9C284EB91E00E94452F19
:102E500045E050E068E270E08AE193E00E94E92CEE
:102E600088EB93E10E94452F6FE670E080E590E0EB
:102E70000E943B504CE250E06EE170E0811103C0D3
:102E800085E293E002C08AE293E00E94E92C69E7C0
:102E900070E080E590E00E943B504CE250E063EC33
:102EA00070E0811103C085E293E002C08AE293E002
:102EB0000E94E92C63E870E080E590E00E943B50BE
:102EC0004EE650E06EE170E0811103C085E293E0D0
:102ED00002C08AE293E00E94E92C6DE870E080E590
:102EE00090E00E943B504EE650E06EE670E08111AB
:102EF00003C085E293E002C08AE293E00E94E92CDD
:102F000067E970E080E590E00E943B504EE650E0BB
:102F100063EC70E0811103C080E393E002C08AE2B9
:102F200093E00E94E92C61EA70E080E590E00E9465
:102F30003B5048EB50E06EE170E0811103C085E248
:102F400093E002C08AE293E00E94E92C6BEA70E011
:102F500080E590E00E943B5048EB50E063EC70E06D
:102F6000811103C085E293E002C08AE293E00E94EF
:102F7000E92C84EB91E00E94452F49E350E066E0A4
:102F800070E086E393E00E94E92C60E770E080E562
:102F900090E00E943B50682F70E080E090E029E3D1
:102FA00030E04AE050E00E941C3261E770E080E5CA
:102FB00090E00E943B50682F70E080E090E029E3B1
:102FC00030E040E350E00E941C324BE450E066E009
:102FD00070E086E393E00E94E92C62E770E080E510
:102FE00090E00E943B50682F70E080E090E02BE47E
:102FF00030E04AE050E00E941C3263E770E080E578
:1030000090E00E943B50682F70E080E090E02BE45D
:1030100030E040E350E00E941C3249E350E06BEAAC
:1030200070E086E393E00E94E92C6AE770E080E5B7
:1030300090E00E943B50682F70E080E090E029E330
:1030400030E04FEA50E00E941C326BE770E080E510
:1030500090E00E943B50682F70E080E090E029E310
:1030600030E048ED50E00E941C324BE450E06BEA47
:1030700070E086E393E00E94E92C6CE770E080E565
:1030800090E00E943B50682F70E080E090E02BE4DD
:1030900030E04FEA50E00E941C326DE770E080E5BE
:1030A00090E00E943B50682F70E080E090E02BE4BD
:1030B00030E048ED50E00E941C324BE750E066E003
:1030C00070E086E393E00E94E92C64E870E080E51C
:1030D00090E00E943B50682F70E080E090E02BE78A
:1030E00030E04AE050E00E941C3265E870E080E584
:1030F00090E00E943B50682F70E080E090E02BE76A
:1031000030E040E350E00E941C324DE850E066E0C1
:1031100070E086E393E00E94E92C66E870E080E5C9
:1031200090E00E943B50682F70E080E090E02DE836
:1031300030E04AE050E00E941C3267E870E080E531
:1031400090E00E943B50682F70E080E090E02DE816
:1031500030E040E350E00E941C324BE750E066E56F
:1031600070E086E393E00E94E92C6EE870E080E571
:1031700090E00E943B50682F70E080E090E02BE7E9
:1031800030E04AE550E00E941C326FE870E080E5D4
:1031900090E00E943B50682F70E080E090E02BE7C9
:1031A00030E040E850E00E941C324DE850E066E517
:1031B00070E086E393E00E94E92C60E970E080E52E
:1031C00090E00E943B50682F70E080E090E02DE896
:1031D00030E04AE550E00E941C3261E970E080E591
:1031E00090E00E943B50682F70E080E090E02DE876
:1031F00030E040E850E00E941C324BE750E06BEAC0
:1032000070E086E393E00E94E92C68E970E080E5D5
:1032100090E00E943B50682F70E080E090E02BE748
:1032200030E04FEA50E00E941C3269E970E080E52E
:1032300090E00E943B50682F70E080E090E02BE728
:1032400030E048ED50E00E941C324DE850E06BEA5F
:1032500070E086E393E00E94E92C6AE970E080E583
:1032600090E00E943B50682F70E080E090E02DE8F5
:1032700030E04FEA50E00E941C326BE970E080E5DC
:1032800090E00E943B50682F70E080E090E02DE8D5
:1032900030E048ED50E00E941C3245EC50E066E022
:1032A00070E086E393E00E94E92C62EA70E080E53A
:1032B00090E00E943B50682F70E080E090E025ECA9
:1032C00030E04AE050E00E941C3263EA70E080E5A2
:1032D00090E00E943B50682F70E080E090E025EC89
:1032E00030E040E350E00E941C3247ED50E066E0E1
:1032F00070E086E393E00E94E92C64EA70E080E5E8
:1033000090E00E943B50682F70E080E090E027ED55
:1033100030E04AE050E00E941C3265EA70E080E54F
:1033200090E00E943B50682F70E080E090E027ED35
:1033300030E040E350E00E941C3245EC50E06BEA84
:1033400070E086E393E00E94E92C6CEA70E080E58F
:1033500090E00E943B50682F70E080E090E025EC08
:1033600030E04FEA50E00E941C326DEA70E080E5E8
:1033700090E00E943B50682F70E080E090E025ECE8
:1033800030E048ED50E00E941C3247ED50E06BEA1F
:1033900070E086E393E00E94E92C6EEA70E080E53D
:1033A00090E00E943B50682F70E080E090E027EDB5
:1033B00030E04FEA50E00E941C326FEA70E080E596
:1033C00090E00E943B50682F70E080E090E027ED95
:1033D00030E048ED50E00E941C3280915402909100
:1033E0005502029709F0CBC284EB91E00E94452F71
:1033F00045E050E068E270E08BE393E00E94E92C46
:1034000088EB93E10E94452F63ED70E080E590E04A
:103410000E943B504CE250E06EE170E0811103C02D
:1034200085E293E002C08AE293E00E94E92C6DED10
:1034300070E080E590E00E943B504CE250E063EC8D
:1034400070E0811103C085E293E002C08AE293E05C
:103450000E94E92C67EE70E080E590E00E943B500E
:103460004EE650E06EE170E0811103C085E293E02A
:1034700002C08AE293E00E94E92C61EF70E080E5EF
:1034800090E00E943B504EE650E06EE670E0811105
:1034900003C085E293E002C08AE293E00E94E92C37
:1034A0006BEF70E080E590E00E943B504EE650E00C
:1034B00063EC70E0811103C080E393E002C08AE214
:1034C00093E00E94E92C65E071E080E590E00E94C5
:1034D0003B5048EB50E06EE170E0811103C085E2A3
:1034E00093E002C08AE293E00E94E92C6FE071E071
:1034F00080E590E00E943B5048EB50E063EC70E0C8
:10350000811103C085E293E002C08AE293E00E9449
:10351000E92C84EB91E00E94452F49E350E066E0FE
:1035200070E086E393E00E94E92C64ED70E080E5B2
:1035300090E00E943B50682F70E080E090E029E32B
:1035400030E04AE050E00E941C3265ED70E080E51A
:1035500090E00E943B50682F70E080E090E029E30B
:1035600030E040E350E00E941C324BE450E066E063
:1035700070E086E393E00E94E92C66ED70E080E560
:1035800090E00E943B50682F70E080E090E02BE4D8
:1035900030E04AE050E00E941C3267ED70E080E5C8
:1035A00090E00E943B50682F70E080E090E02BE4B8
:1035B00030E040E350E00E941C3249E350E06BEA07
:1035C00070E086E393E00E94E92C6EED70E080E508
:1035D00090E00E943B50682F70E080E090E029E38B
:1035E00030E04FEA50E00E941C326FED70E080E561
:1035F00090E00E943B50682F70E080E090E029E36B
:1036000030E048ED50E00E941C324BE450E06BEAA1
:1036100070E086E393E00E94E92C60EE70E080E5C4
:1036200090E00E943B50682F70E080E090E02BE437
:1036300030E04FEA50E00E941C3261EE70E080E51D
:1036400090E00E943B50682F70E080E090E02BE417
:1036500030E048ED50E00E941C324BE750E066E05D
:1036600070E086E393E00E94E92C68EE70E080E56C
:1036700090E00E943B50682F70E080E090E02BE7E4
:1036800030E04AE050E00E941C3269EE70E080E5D4
:1036900090E00E943B50682F70E080E090E02BE7C4
:1036A00030E040E350E00E941C324DE850E066E01C
:1036B00070E086E393E00E94E92C6AEE70E080E51A
:1036C00090E00E943B50682F70E080E090E02DE891
:1036D00030E04AE050E00E941C326BEE70E080E582
:1036E00090E00E943B50682F70E080E090E02DE871
:1036F00030E040E350E00E941C324BE750E066E5CA
:1037000070E086E393E00E94E92C62EF70E080E5D0
:1037100090E00E943B50682F70E080E090E02BE743
:1037200030E04AE550E00E941C3263EF70E080E533
:1037300090E00E943B50682F70E080E090E02BE723
:1037400030E040E850E00E941C324DE850E066E571
:1037500070E086E393E00E94E92C64EF70E080E57E
:1037600090E00E943B50682F70E080E090E02DE8F0
:1037700030E04AE550E00E941C3265EF70E080E5E1
:1037800090E00E943B50682F70E080E090E02DE8D0
:1037900030E040E850E00E941C324BE750E06BEA1A
:1037A00070E086E393E00E94E92C6CEF70E080E526
:1037B00090E00E943B50682F70E080E090E02BE7A3
:1037C00030E04FEA50E00E941C326DEF70E080E57F
:1037D00090E00E943B50682F70E080E090E02BE783
:1037E00030E048ED50E00E941C324DE850E06BEABA
:1037F00070E086E393E00E94E92C6EEF70E080E5D4
:1038000090E00E943B50682F70E080E090E02DE84F
:1038100030E04FEA50E00E941C326FEF70E080E52C
:1038200090E00E943B50682F70E080E090E02DE82F
:1038300030E048ED50E00E941C3245EC50E066E07C
:1038400070E086E393E00E94E92C66E071E080E599
:1038500090E00E943B50682F70E080E090E025EC03
:1038600030E04AE050E00E941C3267E071E080E501
:1038700090E00E943B50682F70E080E090E025ECE3
:1038800030E040E350E00E941C3247ED50E066E03B
:1038900070E086E393E00E94E92C68E071E080E547
:1038A00090E00E943B50682F70E080E090E027EDB0
:1038B00030E04AE050E00E941C3269E071E080E5AF
:1038C00090E00E943B50682F70E080E090E027ED90
:1038D00030E040E350E00E941C3245EC50E06BEADF
:1038E00070E086E393E00E94E92C60E171E080E5FE
:1038F00090E00E943B50682F70E080E090E025EC63
:1039000030E04FEA50E00E941C3261E171E080E556
:1039100090E00E943B50682F70E080E090E025EC42
:1039200030E048ED50E00E941C3247ED50E06BEA79
:1039300070E086E393E00E94E92C62E171E080E5AB
:1039400090E00E943B50682F70E080E090E027ED0F
:1039500030E04FEA50E00E941C3263E171E080E504
:1039600090E00E943B50682F70E080E090E027EDEF
:1039700030E048ED50E0DF91CF910C941C32DF91A4
:10398000CF910895803191059CF040979C0144E0CF
:10399000369527954A95E1F78F7099272F5F3F4F0E
:1039A0006AE0629FA001639F500D1124840F951F50
:1039B00008958091390490913A04019690933A04C5
:1039C00080933904089588E60E94DF2C80E090E01F
:1039D0000E94FF480E94822C67E070E088E690E039
:1039E0000E944B3181EA95E00E943A27CBDF809319
:1039F000360481EA95E00E943A27C4DF80933504BB
:103A000081EA95E00E943A27BDDF8093340481EA81
:103A100095E00E943A278093000281EA95E00E9497
:103A20003A27B0DF8093040281EA95E00E943A27AA
:103A3000A9DF8093030281EA95E00E943A27A2DF82
:103A40008053984F90930202809301026AE070E0E5
:103A500080E090E00C94A728CF93DF9300D000D0B3
:103A6000CDB7DEB7B0DF84EB91E00E94452F109216
:103A7000D9051092DA058FEF8093DB058093DC0582
:103A800010920906E0910002F0E0EE0FFF1FEE58E1
:103A9000FD4F60817181CE0101960E94EF4F48E099
:103AA00050E060E071E0CE0101960E94CF31898143
:103AB0009A810E947B6E20910402622F70E080E068
:103AC00090E02A3028F42CE130E040E151E004C0DD
:103AD0002CE130E048E051E00E941C32E09103020A
:103AE000F0E0EE0FFF1FE65AFD4F60817181CE01BD
:103AF00001960E94EF4F40E350E060E071E0CE019C
:103B000001960E94CF3189819A810E947B6E6091DB
:103B100001027091020280E090E021E430E048EF81
:103B200050E00E941C3226960FB6F894DEBF0FBEFE
:103B3000CDBFDF91CF9108952F923F924F925F9228
:103B40006F927F928F929F92AF92BF92CF92DF92AD
:103B5000EF92FF920F931F93CF93DF93CDB7DEB712
:103B60006C970FB6F894DEBF0FBECDBF1C018B0162
:103B70001092D9051092DA056115710559F4019773
:103B80002EE1289F5001299FB00C11248DE1A80E31
:103B9000B11C0EC08EE1829D5001839DB00C11249A
:103BA000CB01019797FDCB0195958795A80EB91E7E
:103BB000B501625F7E4F072E000C880B990B0E94A7
:103BC000DE6A29E23CE54FE85CE30E94196B6B0179
:103BD0007C010E944B6C6D837E838F839887C70125
:103BE000B6010E94206D6B017C01B5016D5E7E4FB8
:103BF000072E000C880B990B0E94DE6A29E23CE537
:103C00004FE85CE30E94196B2B013C010E944B6C56
:103C100069837A838B839C83C301B2010E94206DE8
:103C20002B013C01B501675F7E4F072E000C880B0E
:103C3000990B0E94DE6A29E23CE54FE85CE30E94B2
:103C4000196B4B015C010E944B6C6D8B7E8B8F8BD3
:103C5000988FC501B4010E94206D698F7A8F8B8F78
:103C60009C8F20E030E040EA51E4C301B2010E94A1
:103C7000196B20E030E04EEE52E40E94E76B0E94A8
:103C8000B66C69877A878B879C8720E030E040EAB2
:103C900051E469817A818B819C810E94196B20E0BB
:103CA00030E04EEE52E40E94E76B0E94B66C4B018E
:103CB0005C0120E030E040E752E4C701B6010E9419
:103CC000196B20E030E04EEE52E40E94E76B0E9458
:103CD000B66C69837A838B839C8320E030E040E775
:103CE00052E46D817E818F8198850E94196B20E05E
:103CF00030E04EEE52E40E94E76B0E94B66C6D8796
:103D00007E878F87988B29853A85A40169817A817E
:103D10008D859E850E940A4120E030E040EA50E413
:103D2000C701B6010E94196B20E030E04EEE52E46C
:103D30000E94E76B0E94B66C698B7A8B8B8B9C8B95
:103D400020E030E040EA50E46D817E818F819885EB
:103D50000E94196B20E030E04EEE52E40E94E76BC7
:103D60000E94B66C2B013C0129893A89AB01698517
:103D70007A85C4010E940A4120E030E040EA51E423
:103D8000698D7A8D8B8D9C8D0E94196B20E030E0BF
:103D90004EEE52E40E94E76B0E94B66C4B015C0150
:103DA00020E030E040EA51E46D897E898F89988D6A
:103DB0000E94196B20E030E04EEE52E40E94E76B67
:103DC0000E94B66C6B017C019401AB0169897A8910
:103DD000C2010E940A4129813A814D855E85B40164
:103DE000C6010E940A418FEF8093D90580EE80932F
:103DF000DA058EE1829DB001839D700D112417FFBD
:103E000002C00F5F1F4F15950795060F171FB801CA
:103E1000625F7E4F072E000C880B990B0E94DE6AB2
:103E200029E23CE54FE85CE30E94196B6B017C01E1
:103E30000E944B6C6D837E838F839887C701B60188
:103E40000E94206D6B017C01B8016D5E7E4F072ED4
:103E5000000C880B990B0E94DE6A29E23CE54FE8D2
:103E60005CE30E94196B2B013C010E944B6C69833F
:103E70007A838B839C83C301B2010E94206D2B0146
:103E80003C01B801675F7E4F072E000C880B990B31
:103E90000E94DE6A29E23CE54FE85CE30E94196B70
:103EA0004B015C010E944B6C6D8B7E8B8F8B988FCE
:103EB000C501B4010E94206D698F7A8F8B8F9C8F12
:103EC00020E030E040EA51E4C301B2010E94196BE6
:103ED00020E030E04EEE52E40E94E76B0E94B66CA8
:103EE00069877A878B879C8720E030E040EA51E43D
:103EF00069817A818B819C810E94196B20E030E07E
:103F00004EEE52E40E94E76B0E94B66C4B015C01DE
:103F100020E030E040E752E4C701B6010E94196B8F
:103F200020E030E04EEE52E40E94E76B0E94B66C57
:103F300069837A838B839C8320E030E040E752E4FE
:103F40006D817E818F8198850E94196B20E030E021
:103F50004EEE52E40E94E76B0E94B66C6D877E873E
:103F60008F87988B29853A85A40169817A818D850F
:103F70009E850E940A4120E030E040EA50E4C701FB
:103F8000B6010E94196B20E030E04EEE52E40E9430
:103F9000E76B0E94B66C698B7A8B8B8B9C8B20E0D5
:103FA00030E040EA50E46D817E818F8198850E94E7
:103FB000196B20E030E04EEE52E40E94E76B0E9465
:103FC000B66C2B013C0129893A89AB0169857A8558
:103FD000C4010E940A4120E030E040EA51E4698DCA
:103FE0007A8D8B8D9C8D0E94196B20E030E04EEE17
:103FF00052E40E94E76B0E94B66C4B015C0120E02A
:1040000030E040EA51E46D897E898F89988D0E9465
:10401000196B20E030E04EEE52E40E94E76B0E9404
:10402000B66C6B017C019401AB0169897A89C2018C
:104030000E940A4129813A814D855E85B401C601FD
:104040006C960FB6F894DEBF0FBECDBFDF91CF9157
:104050001F910F91FF90EF90DF90CF90BF90AF90A6
:104060009F908F907F906F905F904F903F902F9098
:104070000C940A412F923F924F925F926F927F92DF
:104080008F929F92AF92BF92CF92DF92EF92FF9268
:104090001F93CF93DF93CDB7DEB76C970FB6F8942D
:1040A000DEBF0FBECDBF1C0101971092D905109243
:1040B000DA058F3F2FEF920711F48BE390E016E0C3
:1040C000189F5001199FB00C1124B501625F7E4FFB
:1040D000072E000C880B990B0E94DE6A29E23CE552
:1040E0004FE85CE30E94196B6B017C010E944B6CF2
:1040F0006D837E838F839887C701B6010E94206DF0
:104100006B017C01B5016E5E7E4F072E000C880BA3
:10411000990B0E94DE6A29E23CE54FE85CE30E94CD
:10412000196B2B013C010E944B6C69837A838B8352
:104130009C83C301B2010E94206D2B013C01B5019B
:10414000665F7E4F072E000C880B990B0E94DE6A7B
:1041500029E23CE54FE85CE30E94196B4B015C01EE
:104160000E944B6C6D8B7E8B8F8B988FC501B40139
:104170000E94206D698F7A8F8B8F9C8F20E030E0BA
:1041800040EF51E4C301B2010E94196B20E030E01E
:104190004EEE52E40E94E76B0E94B66C69877A8704
:1041A0008B879C8720E030E040EF51E469817A8181
:1041B0008B819C810E94196B20E030E04EEE52E42E
:1041C0000E94E76B0E94B66C4B015C0120E030E07E
:1041D00040EA52E4C701B6010E94196B20E030E0CA
:1041E0004EEE52E40E94E76B0E94B66C69837A83BC
:1041F0008B839C8320E030E040EA52E46D817E8135
:104200008F8198850E94196B20E030E04EEE52E4D9
:104210000E94E76B0E94B66C6D877E878F87988BB4
:1042200029853A85A40169817A818D859E850E94C0
:104230000A4120E030E040EA50E4C701B6010E94A4
:10424000196B20E030E04EEE52E40E94E76B0E94D2
:10425000B66C698B7A8B8B8B9C8B20E030E040EACC
:1042600050E46D817E818F8198850E94196B20E0DA
:1042700030E04EEE52E40E94E76B0E94B66C2B01D8
:104280003C0129893A89AB0169857A85C4010E947C
:104290000A4120E030E040EF51E4698D7A8D8B8D4A
:1042A0009C8D0E94196B20E030E04EEE52E40E949B
:1042B000E76B0E94B66C4B015C0120E030E040EF00
:1042C00051E46D897E898F89988D0E94196B20E059
:1042D00030E04EEE52E40E94E76B0E94B66C6B0138
:1042E0007C019401AB0169897A89C2010E940A416B
:1042F00029813A814D855E85B401C6010E940A413B
:1043000087E08093D90580EE8093DA05129D5001F5
:10431000139DB00C1124B501625F7E4F072E000C77
:10432000880B990B0E94DE6A29E23CE54FE85CE3CA
:104330000E94196B6B017C010E944B6C6D837E8324
:104340008F839887C701B6010E94206D6B017C01A5
:10435000B5016E5E7E4F072E000C880B990B0E94F4
:10436000DE6A29E23CE54FE85CE30E94196B2B0111
:104370003C010E944B6C69837A838B839C83C301CD
:10438000B2010E94206D2B013C01B501665F7E4F9A
:10439000072E000C880B990B0E94DE6A29E23CE58F
:1043A0004FE85CE30E94196B4B015C010E944B6C6F
:1043B0006D8B7E8B8F8B988FC501B4010E94206D11
:1043C000698F7A8F8B8F9C8F20E030E040EF51E433
:1043D000C301B2010E94196B20E030E04EEE52E4BE
:1043E0000E94E76B0E94B66C69877A878B879C87EF
:1043F00020E030E040EF51E469817A818B819C813B
:104400000E94196B20E030E04EEE52E40E94E76B10
:104410000E94B66C4B015C0120E030E040EA52E4BF
:10442000C701B6010E94196B20E030E04EEE52E465
:104430000E94E76B0E94B66C69837A838B839C83AE
:1044400020E030E040EA52E46D817E818F819885E2
:104450000E94196B20E030E04EEE52E40E94E76BC0
:104460000E94B66C6D877E878F87988B29853A85E9
:10447000A40169817A818D859E850E940A4120E090
:1044800030E040EA50E4C701B6010E94196B20E019
:1044900030E04EEE52E40E94E76B0E94B66C698BEE
:1044A0007A8B8B8B9C8B20E030E040EA50E46D816E
:1044B0007E818F8198850E94196B20E030E04EEE5E
:1044C00052E40E94E76B0E94B66C2B013C012989E3
:1044D0003A89AB0169857A85C4010E940A4120E0CE
:1044E00030E040EF51E4698D7A8D8B8D9C8D0E9478
:1044F000196B20E030E04EEE52E40E94E76B0E9420
:10450000B66C4B015C0120E030E040EF51E46D8976
:104510007E898F89988D0E94196B20E030E04EEEE5
:1045200052E40E94E76B0E94B66C6B017C0194011F
:10453000AB0169897A89C2010E940A4129813A81C5
:104540004D855E85B401C6016C960FB6F894DEBF4A
:104550000FBECDBFDF91CF911F91FF90EF90DF9005
:10456000CF90BF90AF909F908F907F906F905F9013
:104570004F903F902F900C940A412F923F924F9270
:104580005F926F927F928F929F92AF92BF92CF92E3
:10459000DF92EF92FF921F93CF93DF9300D01F9291
:1045A000CDB7DEB71C0101971092D9051092DA053C
:1045B0008F3F2FEF920711F48BE390E016E0189FE6
:1045C000B001199F700D1124625F7E4F072E000C01
:1045D000880B990B0E94DE6A29E23CE54FE85CE318
:1045E0000E94196B4B015C010E944B6C6B017C01BA
:1045F000C501B4010E94206D4B015C0120E030E058
:1046000040EA52E40E94196B20E030E04EEE52E4A2
:104610000E94E76B0E94B66C2B013C0120E030E069
:1046200040EA52E4C701B6010E94196B20E030E075
:104630004EEE52E40E94E76B0E94B66C69837A8367
:104640008B839C8320E030E04EEB52E4C501B40143
:104650000E94196B20E030E04EEE52E40E94E76BBE
:104660000E94B66C4B015C0120E030E04EEB52E45E
:10467000C701B6010E94196B20E030E04EEE52E413
:104680000E94E76B0E94B66CDC01CB01920149816C
:104690005A81B4010E940A4188EF8093D905109293
:1046A000DA05129DB001139D700D1124625F7E4FDB
:1046B000072E000C880B990B0E94DE6A29E23CE56C
:1046C0004FE85CE30E94196B4B015C010E944B6C4C
:1046D0006B017C01C501B4010E94206D4B015C019E
:1046E00020E030E040EA52E40E94196B20E030E024
:1046F0004EEE52E40E94E76B0E94B66C2B013C0127
:1047000020E030E040EA52E4C701B6010E94196B94
:1047100020E030E04EEE52E40E94E76B0E94B66C5F
:1047200069837A838B839C8320E030E04EEB52E4F4
:10473000C501B4010E94196B20E030E04EEE52E456
:104740000E94E76B0E94B66C4B015C0120E030E0F8
:104750004EEB52E4C701B6010E94196B20E030E035
:104760004EEE52E40E94E76B0E94B66CDC01CB0176
:10477000920149815A81B4010F900F900F900F90D0
:10478000DF91CF911F91FF90EF90DF90CF90BF907E
:10479000AF909F908F907F906F905F904F903F90E1
:1047A0002F900C940A412F923F924F925F926F92FA
:1047B0007F928F929F92AF92BF92CF92DF92EF92B1
:1047C000FF920F931F93CF93DF9300D000D0CDB70C
:1047D000DEB70E940D301092D9058FE18093DA0583
:1047E0001092DB051092DC051092090607E710E035
:1047F000A80167E770E087E790E00E94BE320150B1
:10480000110902371105A1F700E010E0A80167E7E0
:1048100070E087E790E00E94BE320F5F1F4F0530C7
:104820001105A1F786EC8093D9058FE18093DA0515
:104830004FE650E063ED70E08AE093E00E94E92CDF
:1048400046ED50E06FE670E080E193E00E94E92CD5
:104850004FE650E06AE070E086E493E00E94E92CC5
:104860004AE050E067E670E088E493E00E94E92CBB
:104870000EE011E01E821D8223E0222E312C8D815C
:104880009E81B1010E948D6D892B09F467C0B8012A
:10489000012E000C880B990B0E94DE6A29E23CE590
:1048A0004FE85CE30E94196B4B015C010E944B6C6A
:1048B0006B017C01C501B4010E94206D4B015C01BC
:1048C00020E030E048EC52E40E94196B20E030E038
:1048D0004EEE52E40E94E76B0E94B66C2B013C0145
:1048E00020E030E048EC52E4C701B6010E94196BA9
:1048F00020E030E04EEE52E40E94E76B0E94B66C7E
:1049000069837A838B839C8320E030E04CED52E412
:10491000C501B4010E94196B20E030E04EEE52E474
:104920000E94E76B0E94B66C4B015C0120E030E016
:104930004CED52E4C701B6010E94196B20E030E053
:104940004EEE52E40E94E76B0E94B66CDC01CB0194
:10495000920149815A81B4010E940A418D819E8150
:1049600001969E838D83025E1F4F0C9709F087CFBF
:104970002AD88091350490E07DDB6091350470E0A9
:104980008091340490E0D8D88091360490E0F5DD31
:104990008091360490E090933804809337048FEF31
:1049A0008093D9058093DA0525E530E04FE351E0A7
:1049B00060E070E080EF90E00E94612F1092D905D6
:1049C0001092DA0599EFE92EF12CA7014150510917
:1049D00023E030E060E070E0C7010E940A418701F7
:1049E0000F5F1F4F23E030E0A70160E070E0C801D7
:1049F0000E940A4123E030E0A80160E070E0C701B6
:104A000002960E940A419AE0E90EF11CEFE3EE16CD
:104A1000E1E0FE06D1F682E4F82EF092D90500E13D
:104A20000093DA052FEE30E04FE351E068EC70E0E0
:104A300084E091E00E94612F1FEF1093D90510933D
:104A4000DA052FEE30E04FE351E068EC70E084E0EF
:104A500091E00E94E341F092DB050093DC051092A7
:104A6000090644ED50E06AE071E08BE493E0B1D7D1
:104A70001092DB051092DC0510920906F092D90520
:104A80000093DA0524EB30E04FE351E06CE870E08E
:104A900084E091E00E94612F1093D9051093DA050C
:104AA00024EB30E04FE351E06CE870E084E091E00B
:104AB0000E94E341F092DB050093DC0510920906A9
:104AC00048E950E06AE071E08FE493E082D7109209
:104AD000DB051092DC051092090626960FB6F894B5
:104AE000DEBF0FBECDBFDF91CF911F910F91FF9021
:104AF000EF90DF90CF90BF90AF909F908F907F907E
:104B00006F905F904F903F902F900895FC01918D92
:104B1000828D981761F0828DDF01A80FB11D5D961F
:104B20008C91928D9F5F9F73928F90E008958FEF8D
:104B30009FEF0895FC01918D828D981731F0828D41
:104B4000E80FF11D858D90E008958FEF9FEF089598
:104B5000FC01918D228D892F90E0805C9F4F821BFC
:104B600091098F739927089584E095E0F1DF21E0A2
:104B7000892B09F420E0822F0895FC01848DDF0148
:104B8000A80FB11DA35ABF4F2C91848D90E00196C0
:104B90008F739927848FA689B7892C93A089B189AF
:104BA0008C9180648C93938D848D981306C00288B9
:104BB000F389E02D80818F7D80830895EF92FF92AD
:104BC0000F931F93CF93DF93EC0181E0888F9B8D30
:104BD0008C8D981305C0E889F989808185FD23C0F3
:104BE000F62E0B8D10E00F5F1F4F0F731127E02E75
:104BF0008C8DE8120BC00FB607FCFACFE889F98953
:104C0000808185FFF5CFCE01B8DFF2CF8B8DFE011D
:104C1000E80FF11DE35AFF4FF0820B8FEA89FB8901
:104C20008081806207C0EE89FF896083E889F98905
:104C300080818064808381E090E0DF91CF911F913B
:104C40000F91FF90EF900895CF93DF93EC01888D43
:104C50008823C1F0EA89FB89808185FD05C0A88988
:104C6000B9898C9186FD0EC00FB607FCF5CF808107
:104C700085FFF2CFA889B9898C9185FFEDCFCE0150
:104C80007CDFE8CFDF91CF91089580E090E0892B21
:104C900019F06ADF811125C080E090E0892B41F096
:104CA00080E090E0892B21F00E94000081111CC05F
:104CB00080E090E0892B41F080E090E0892B21F0AA
:104CC0000E940000811113C080E090E0892BA1F0C8
:104CD00080E090E0892B81F00E94000081110AC0E1
:104CE00008950E940000D8CF0E940000E1CF0E94EA
:104CF0000000EACF0C940000089590E0FC01319789
:104D0000E231F10508F04EC08827EE56FF4F8F4F75
:104D10000C94DE6D809180008F7703C080918000BD
:104D20008F7D80938000089580918000877FF9CFE8
:104D300084B58F7702C084B58F7D84BD089580913E
:104D4000B0008F7703C08091B0008F7D8093B0005A
:104D50000895809190008F7707C0809190008F7D9B
:104D600003C080919000877F809390000895809188
:104D7000A0008F7707C08091A0008F7D03C0809135
:104D8000A000877F8093A0000895809120018F77F5
:104D900007C0809120018F7D03C080912001877F13
:104DA0008093200108953FB7F89480918C049091EE
:104DB0008D04A0918E04B0918F0426B5A89B05C0E8
:104DC0002F3F19F00196A11DB11D3FBFBA2FA92F8A
:104DD000982F8827820F911DA11DB11DBC01CD0107
:104DE00042E0660F771F881F991F4A95D1F70895F3
:104DF00085ED8093BC008091BC0084FDFCCF1092B7
:104E0000D804089540916104262F30E0240F311D0D
:104E100021323105DCF42091D8042430C9F4FC019E
:104E200080E090E0861758F4309161042191DC0114
:104E3000A15CBB4FA30FB11D2C930196F3CF8091C2
:104E40006104680F6093610480E0089581E0089533
:104E500082E008950895E091910480919004E8170C
:104E600030F4F0E0EE56FB4F808190E008958FEF34
:104E70009FEF08959091910480919004981750F4B9
:104E8000E92FF0E0EE56FB4F208130E09F5F9093DA
:104E9000910402C02FEF3FEFC90108958091900463
:104EA00090E020919104821B91090895CF92DF92A6
:104EB000EF92FF920F931F93CF93DF937C01262FE6
:104EC000972F8A018091D904882391F0C62FD72F7C
:104ED0006E01C40ED51ECC15DD0569F06991D701B0
:104EE000ED91FC910190F081E02DC7011995F3CF70
:104EF000642F822F87DFC801DF91CF911F910F911F
:104F0000FF90EF90DF90CF900895CF93DF931F92A3
:104F1000CDB7DEB769832091D9042223D1F0209147
:104F2000FB04203240F021E030E0FC013383228397
:104F300080E090E014C08091DA04E82FF0E0E552C0
:104F4000FB4F998190838F5F8093DA048093FB04F9
:104F500004C061E0CE01019655DF81E090E00F9042
:104F6000DF91CF9108950E94F76F1F920F920FB6B5
:104F70000F9211240BB60F922F933F934F935F9391
:104F80006F937F938F939F93AF93BF93EF93FF9311
:104F900084E095E0F2DDFF91EF91BF91AF919F9199
:104FA0008F917F916F915F914F913F912F910F90D2
:104FB0000BBE0F900FBE0F901F9018951F920F926F
:104FC0000FB60F9211240BB60F922F938F939F93CE
:104FD000EF93FF93E0911405F09115058081E09126
:104FE0001A05F0911B0582FD12C0908180911D056C
:104FF0008F5F8F7320911E05821751F0E0911D0580
:10500000F0E0EC5FFA4F958F80931D0501C0808121
:10501000FF91EF919F918F912F910F900BBE0F9069
:105020000FBE0F901F901895CF93DF93282F30E07D
:10503000F901EC53F44E8491F901E65FF34ED491FB
:10504000F901E659F34EC491CC2389F0811155DE64
:10505000EC2FF0E0EE0FFF1FE655F44EA591B49152
:10506000EC91ED2381E090E021F480E002C080E04B
:1050700090E0DF91CF9108951F93CF93DF93282F76
:1050800030E0F901EC53F44E8491F901E65FF34E00
:10509000D491F901E659F34EC491CC23C1F0162FF7
:1050A00081112BDEEC2FF0E0EE0FFF1FE05BF34EE3
:1050B000A591B4918FB7F894111105C09C91ED2F73
:1050C000E095E92302C0EC91ED2BEC938FBFDF91CB
:1050D000CF911F910895CF93DF9390E0FC01E65F9D
:1050E000F34E2491FC01E659F34E8491882361F13B
:1050F00090E0880F991FFC01E057F44EC591D491C0
:10510000FC01E05BF34EA591B491611109C09FB71A
:10511000F8948881209582238883EC912E230BC0FC
:10512000623061F49FB7F8943881822F8095832391
:105130008883EC912E2B2C939FBF06C08FB7F894D9
:10514000E8812E2B28838FBFDF91CF9108958F9216
:105150009F92AF92BF92CF92DF92EF92FF926B013C
:105160007C0121DE4B015C01C114D104E104F10496
:10517000E9F019DEDC01CB0188199909AA09BB09FC
:10518000883E9340A105B10578F321E0C21AD10809
:10519000E108F10888EE880E83E0981EA11CB11C7E
:1051A000C114D104E104F10421F7DECFFF90EF90A8
:1051B000DF90CF90BF90AF909F908F9008951F92F7
:1051C0000F920FB60F9211242F933F938F939F93BB
:1051D000AF93BF9380913B0490913C04A0913D0418
:1051E000B0913E0430918B0423E0230F2D3720F43F
:1051F0000196A11DB11D05C026E8230F0296A11D31
:10520000B11D20938B0480933B0490933C04A093A6
:105210003D04B0933E0480918C0490918D04A09144
:105220008E04B0918F040196A11DB11D80938C0452
:1052300090938D04A0938E04B0938F04BF91AF918F
:105240009F918F913F912F910F900FBE0F901F90C4
:1052500018951F920F920FB60F9211240BB60F9252
:105260002F933F934F935F936F937F938F939F936E
:10527000AF93BF93EF93FF938091310490913204E9
:105280008093B2008091870490918804A091890452
:10529000B0918A040196A11DB11D8093870490935B
:1052A0008804A0938904B0938A04409187045091A4
:1052B00088046091890470918A0480912D049091F2
:1052C0002E04A0912F04B0913004481759076A07A3
:1052D0007B07B0F080918604811112C081E0809339
:1052E0008604109287041092880410928904109208
:1052F0008A04E0912B04F0912C04199510928604F5
:10530000FF91EF91BF91AF919F918F917F916F919D
:105310005F914F913F912F910F900BBE0F900FBE59
:105320000F901F901895682F81EA95E0EECDEF92CF
:10533000FF920F931F93CF93DF931F921F92CDB7CE
:10534000DEB77C01162F683020F0185095E103E19C
:1053500002C094E102E1F701808180624A8399836F
:105360002ED39981892FDFDFCDD2F7019081892F4C
:10537000806261E070E090E08ED781EA95E07ADDAE
:105380004A8121E030E001C0220F1A95EAF741304E
:1053900019F4122F182B03C02095122F1823F70190
:1053A000808180620CD3802FBEDF812FBCDF0F9005
:1053B0000F90DF91CF911F910F91FF90EF90A2C2BC
:1053C000603108F4B4CF08951F920F920FB60F9278
:1053D00011240BB60F922F933F934F935F936F93CC
:1053E0007F938F939F93AF93BF93EF93FF9380919E
:1053F000B900887F803609F49CC068F5883209F4CA
:105400005BC090F4803109F454C038F4882309F467
:10541000F6C0883009F44DC0F5C0883109F44CC09D
:10542000803209F45DC0EEC0803409F468C048F4ED
:10543000803309F455C0883309F0E4C08093D60462
:10544000D8C0803509F44FC0883509F45DC0883470
:1054500009F0D8C0D6C0883909F4C7C0A8F4883785
:1054600009F467C038F4883609F463C0803709F45A
:1054700060C0C8C0883809F4B8C0803909F45FC07A
:10548000803809F0BFC05BC0803B09F486C038F4A7
:10549000803A09F466C0883A09F47FC0B3C0803C02
:1054A00009F4A7C0883C09F4A4C0883B09F48AC069
:1054B000A9C08091B30410C09091D5048091D40408
:1054C000981770F5E091D50481E08E0F8093D50494
:1054D000F0E0EC54FB4F80818093BB0085EC86C0EC
:1054E0008093D6048EC0E091D50481E08E0F809326
:1054F000D5048091BB00F0E0EC54FB4F8083909189
:10550000D5048091D4046EC0E091D50481E08E0F63
:105510008093D5048091BB00F0E0EC54FB4F808376
:105520008091D70481116DC081E08093B20484EA38
:1055300061C083E08093D80410928504CFCF80911E
:105540008504803208F051C0E091850481E08E0F1F
:10555000809385048091BB00F0E0EB59FB4F808382
:10556000BDCF85EC8093BC001092D8048091850457
:10557000803230F4E0918504F0E0EB59FB4F10826B
:105580006091850470E0E0916304F091640485E625
:1055900094E019951092850435C084E08093D80476
:1055A0001092620410926104E0915F04F091600433
:1055B000199580916104811105C081E08093610497
:1055C00010923F04E091620481E08E0F80936204A8
:1055D000F0E0E15CFB4F80818093BB00909162041E
:1055E00080916104981708F479CF85E88093BC0016
:1055F00009C085EC8093BC001092D80403C01092BF
:10560000D604F6DBFF91EF91BF91AF919F918F91FF
:105610007F916F915F914F913F912F910F900BBEB2
:105620000F900FBE0F901F9018951092D80481E034
:105630008093D7041092B20461E084E11DDD61E043
:1056400085E11ADDE9EBF0E080818E7F8083808147
:105650008D7F808388E48093B80085E48093BC00CC
:105660000895CF93DF93EC01683008F067E068831A
:1056700010929104109290041092DA041092FB049C
:10568000D4DF888180629BD180E04DDE8FEF4BDEDE
:1056900039D18881806293D181E045DE8FEF43DE8E
:1056A000DF91CF912FC10E947542882319F00E948B
:1056B0008D42F9CF0895EF92FF920F931F93CF93EE
:1056C000DF93CDB7DEB72C970FB6F894DEBF0FBED1
:1056D000CDBFF82EE62E8A018CE0E2E8F2E0DE0192
:1056E000119601900D928A95E1F7CA0164E670E087
:1056F0000E948D6DBC01990F880B990B0E94DE6A88
:1057000020E030E040EA5FE30E94196B0E94B66C33
:105710002F2D30E0620F731FFE01EE0DF11D808111
:105720009B01280F311DC90103701127012B21F4A2
:1057300032E03E1508F001978830910514F0079784
:10574000FBCF2C960FB6F894DEBF0FBECDBFDF9116
:10575000CF911F910F91FF90EF900895AF92BF925C
:10576000CF92DF92EF92FF920F931F93CF93DF932D
:105770008C017B01C9EDD5E088EF888319825B013C
:1057800089E1A80EB11C680180E2C80ED11C950108
:10579000A601C8010E94E34186DF8FEF88838983D9
:1057A0009501A601B701C801DF91CF911F910F911B
:1057B000FF90EF90DF90CF90BF90AF900C94E341BB
:1057C0001F93CF93DF93CDB7DEB72C970FB6F89426
:1057D000DEBF0FBECDBF9CE0EEE8F2E0DE01119629
:1057E00001900D929A95E1F7623061F4437055276C
:1057F000452B21F48E3158F11DE10BC08D3138F16C
:105800001CE107C0FE01E60FF11D1081181760F0C2
:105810001EC0612F70E080E090E02CE830E04AE7A5
:1058200050E00AD6812F13C01A3098F72CE830E0E8
:105830004AE750E060E070E0CB01FED5612F70E0F8
:1058400080E090E02CE830E04AE850E0EACF2C9687
:105850000FB6F894DEBF0FBECDBFDF91CF911F9181
:105860000895CF93DF93CDB7DEB72C970FB6F8949A
:10587000DEBF0FBECDBF9CE0EEE8F2E0DE01119688
:1058800001900D929A95E1F7623081F443705527AB
:10589000452B31F48E31F1F081111DC08DE11BC01B
:1058A0008D31C1F0811117C08CE115C070E08111FC
:1058B00005C0FE01E60FF71F80810DC0482F50E0A4
:1058C000FE01E60FF71F208130E02F5F3F4F4217A8
:1058D000530709F481E02C960FB6F894DEBF0FBE93
:1058E000CDBFDF91CF9108958A30910554F020E02B
:1058F00030E00A97205F3F4F8A309105D4F7820F3E
:10590000931F08952091FB049091FC04213208F02C
:105910004AC08091D8048111FCCF32E03093D80482
:1059200031E03093D7043FEF3093D6041092D50482
:105930002093D404ABEDB4E044EB54E0FA013E2FE5
:10594000341B321718F43D913193F9CF1092B30400
:105950002091B304990F922B9093B3049091B204C9
:10596000913061F41092B2049091B3049093BB0013
:105970009091BC0093FDF8CF95EC01C095EE90930B
:10598000BC009091D8049230E1F39091D6049F3FEF
:1059900079F08091D604803241F08091D604803332
:1059A00031F084E005C081E003C082E001C083E003
:1059B0001092DA041092FB041092D904089591E039
:1059C0009093D9048093FC041092DA041092FB04A3
:1059D00008952F923F924F925F926F927F928F9293
:1059E0009F92AF92BF92CF92DF92EF92FF920F936E
:1059F0001F93CF93DF93CDB7DEB72C970FB6F894F4
:105A0000DEBF0FBECDBF8C017C876B871A01FC0106
:105A100001900020E9F731979F01281B390B3C8347
:105A20002B838091DD05811132C06F307742A1F464
:105A30006091DE057091DF056F5F7F4F2091050655
:105A40004B815C81249FC001259F900D1124DB01B7
:105A5000A81BB90BBC87AB87EB85FC85EE30F74202
:105A600009F059C08091DE059091DF05A091E00515
:105A7000B091E1050196A11DB11D209105064B8154
:105A80005C81249F6001259FD00C112432C08B853E
:105A90009C858F309742A1F46091E2057091E305F7
:105AA0006F5F7F4F20910506EB81FC812E9FC00127
:105AB0002F9F900D11249B01281B390B3C872B87AE
:105AC0004B855C854E30574231F58091E2059091CF
:105AD000E305A091E405B091E5050196A11DB11D76
