:100000000C9417230C9448230C9448230C944823F5
:100010000C9448230C9448230C9448230C944823B4
:100020000C9448230C9448230C9448230C944823A4
:100030000C9448230C9448230C9448230C945E5D44
:100040000C9448230C9448230C9448230C94482384
:100050000C9448230C9448230C9448230C94C95ABC
:100060000C9448230C94C9590C94A0590C9448231F
:100070000C9448230C9448230C9448230C94482354
:100080000C9448230C9448230C9448230C94482344
:100090000C9477590C944E590C9448230C947A6024
:1000A0000C9448230C9448230C9448230C94482324
:1000B0000C9448230C9448230C9448230C94482314
:1000C0000C9448230C9448230C9448230C942559F1
:1000D0000C94FC580C9448230C94D3580C94AA58B4
:1000E0000C9448239E230025E625B326BE27BE2771
:1000F000D228092AE82DDA2AE62B392C1B2FC52F06
:1001000038313831E62511321132E625693039337C
:10011000CA39C639D439D039DA39DE39D63AD63A7D
:10012000D63AD63AD63AD63AD63AD63AE4393B3ADD
:10013000F557F857E757EB57F1572F58FC5700582A
:1001400006580A580E58145818581C582F58225838
:1001500026582A58D863F0630D646B646B646B6433
:100160001F647F64D8637F643B647F644564456437
:10017000596459640D646B646B640D6445647F64F9
:1001800005A84CCDB2D44EB93836A9020C50B9915D
:100190008688083CA6AAAA2ABE000000803F00402C
:1001A0007A10F35A00A0724E18090010A5D4E80086
:1001B00000E87648170000E40B54020000CA9A3B9E
:1001C000000000E1F5050000809698000000404224
:1001D0000F000000A08601000000102700000000B2
:1001E000E803000000006400000000000A000000B6
:1001F00000000100000000002C76D888DC674F0862
:1002000023DFC1DFAE59E1B1B796E5E3E453C63A67
:10021000E651997696E8E6C28426EB898C9B62EDDE
:10022000407C6FFCEFBC9C9F40F2BAA56FA5F49098
:10023000055A2AF75C936B6CF9676DC11BFCE0E40F
:100240000D47FEF520E6B500D0ED902E0300943565
:1002500077050080841E080000204E0A000000C8B8
:100260000C333333330F986E12831141EF8D211409
:10027000893BE65516CFFEE6DB18D1844B381BF7D9
:100280007C1D901DA4BBE424203284725E22810078
:10029000C9F124ECA1E53D2753797374656D20699C
:1002A0006E697469616C697A6174696F6E204F4B15
:1002B000212E004672656552616D3A2000202A2A7F
:1002C0002A2A2A2053746172742073797374656DBD
:1002D00020202A2A2A2A2A002018205F0000000055
:1002E000000000000000000000000000000000000E
:1002F00000000000000000000000000000000000FE
:1003000000000000000000000000000000000000ED
:1003100000000000000000000000000000000000DD
:1003200000000000000000000000000000000000CD
:1003300000000000000000000000000000000000BD
:100340000000000000120000001F8000000DC0002F
:10035000001EE000003330000061980000CCCC00AB
:1003600000CC6C00018036000302360007061B003B
:10037000018E1B0000F61B0000061B0000061B0080
:1003800000061B000007FB000007FB000000000048
:10039000000000000000000000000000000000005D
:1003A00007FFFE0007FFFF00060003000600030032
:1003B000060633000606330006003300060033004D
:1003C000070033000380330001C0330000FC33001A
:1003D000007C3300000C3F00000C1E00000C0000ED
:1003E000001BFC0000192400001FFC00000000009E
:1003F00000000000000000000000000000000000FD
:10040000000000000080040000EFDC0000FFFC00A2
:1004100000D02C0000C00C00018006000180060006
:1004200003000300030CC300030CC300030003001C
:1004300003030300018A4600018FC60000E01C0090
:1004400000703800003FF000000FC0000000000006
:10045000000000000000000000000000000000009C
:100460000000000000E01E0003F7BF0003FFFF00D4
:1004700003F03F0003E01F0001800600019C6600BE
:100480000335B30003353300033CF300037C7B00EA
:1004900003387300018006000180060000E01C00A4
:1004A00000703800003FF000000FC00000000000A6
:1004B000000000000000000000000000000000003C
:1004C00000000000000FE00000303F00004000800E
:1004D0000080008001000080013000800230008038
:1004E000020001800200010002000100020101007F
:1004F00002010100027F01000241010002410200ED
:10050000024102000138FC00018800000078000070
:1005100000000000000000000000000000000000DB
:1005200000078000001FE000003FF000007FF8009F
:10053000007FFC0000FFFC0000FFFC0001C00E007B
:10054000019FE600018CC60001CCCE0001C00E0068
:1005500001CCCE000197A6000180060001800600B4
:1005600000C00C0000FFFC00003FF0000000000095
:10057000000000000000000000000000000000007B
:10058000000000000000000000000000000000006B
:1005900001C0000006C00300044002800640024083
:1005A0000E200140012E0320009102200085FE2034
:1005B000044569200CC300201FE0006010000040CB
:1005C000180E99800FF8E100000FBF000000000036
:1005D000000000000000000000000000000000001B
:1005E000000000000070380000FFFC00008FC60013
:1005F00001BFF60001F87E0001E01F0003C00F00FC
:1006000003800700038CC600038CC700038007002B
:100610000383070003C94F0003CFCF0003C00F00BF
:1006200000F03C0000FCFC00003FF0000003000074
:1006300000000000000000000000000000000000BA
:100640000000000000078000000FC0000019E0005B
:100650000039E000005FE000003FE0000017E0002C
:100660000013F0000013F0000033F8000023F8003E
:100670000023FC000023F0000033F000001BF0001A
:10068000001FF0000021F800003FF800000000000B
:10069000000000000000000000000000000000005A
:1006A000000000000000000000000000000000202A
:1006B000000000E0000000C01FFFFFC01FFFFFC0E0
:1006C000107FFFC0157FFDC015BFF8E00AFFF8607E
:1006D0000F3FF00007FFC00001FF8000000780000F
:1006E000000080000000000000000000000000008A
:1006F00000000000000000000000000000000000FA
:1007000000000000000000000000000000000000E9
:10071000000C0000000F0000001FC00000FFE00000
:1007200001EFF1C003EFFB80066FFF000E63FF00D7
:1007300007F3FB8003EBF18000FFF040001C10008A
:1007400000000000000000000000000000000000A9
:100750000000000000000000000000000000000099
:10076000000000000001000000030000000700007E
:10077000000F0000001700000023010000C08300EC
:1007800001804F0002603F0006603F0001804F0083
:1007900000C083000023010000170000000F0000CC
:1007A000000700000003000000010000000000003E
:1007B0000000000000000000000000000000000039
:1007C0000000000000000000001FE000006798002B
:1007D00000F03C0001E79E0003EFFF00020C310037
:1007E00003F8DF8007E8DF8007F81F8007F83F8005
:1007F00007E8FF800728D380061CE180021721004C
:10080000021FE1000210210003F03F000000000081
:1008100000000000000000000000000000000000D8
:1008200000000000001C70000014500000929400B2
:1008300000FABE0000FABE0000FBBE0000739C0080
:10084000000FE0000007C000001FF0000007C0001C
:10085000001FF000001FF0000007C0000003800030
:100860000006C000000FE000000FE00000000000E4
:100870000000000000000000000000000000000078
:10088000000000000001C000000FE000003FA000D9
:10089000007FE000007DE00000F0000000F00000BC
:1008A00000FBE00000FFF00000FFF80000FFF80090
:1008B000007FFC00007FFC00007FFC000077FE0052
:1008C0000077FE0000771F0000771C80000000000A
:1008D0000000000000000000000000000000000018
:1008E000000FC0000030300000C00C000180C600C6
:1008F0000101F2000203F1000207A1000407608079
:10090000040E0080040C0080041C0080041C008085
:10091000041C0080023E0100023A010001140200A2
:100920000024060000200C0000303000000FC00042
:1009300000000000000000000000000000000000B7
:1009400000000000000000000000000000000000A7
:1009500007FFFF800500008005C0008007FFFF80C3
:1009600007FFFF8004000080040000800400008076
:100970000400008004000080040000800400008067
:1009800007FFFF80000000000000000000000000E2
:100990000000000000000000000000000000000057
:1009A0000000000000000000000000000000000047
:1009B0000000000003FFFF800200008006FE3E8072
:1009C00006FE00800600008006FFFE8006FEFE8018
:1009D0000600008007FFFF800400010007FFFF0002
:1009E0000000000000000000000000000000000007
:1009F00000000000000000000000000000000000F7
:100A000000000000000000000000000000003800AE
:100A10000000C600000082000000820003FF838007
:100A200002004480060738800618C0800610408007
:100A3000061040800618C0800607008007FFFF8070
:100A40000400010007FFFF0000000000000000009C
:100A50000000000000000000000000000000000096
:100A600000000000004400000044000000440000BA
:100A700000FE00000082000000FE000000FE0000FA
:100A800000FE0000007C0000001000000010780054
:100A90000010CC00001084000010840000108400BE
:100AA00000198400000F0400000004000000000092
:100AB0000000000000000000000000000000000036
:100AC0000000000000000000000000000000000026
:100AD000007C0000009200000092000000820000F4
:100AE00000EE000000820000007C00000010780092
:100AF0000010CC000010840000108400001084005E
:100B000000198400000F0400000004000000000031
:100B100000000000000000000000000000000000D5
:100B2000000000000002000000020000004710006A
:100B300000CF980000EFB80001DFDC0003CF9E007B
:100B400001FFFC0001FFFC0003DFDE0003AFAE008D
:100B500007FFFF0003DFDE0003BFEE0007870F0083
:100B600007F77F0008E7388000E738000000000042
:100B70000000000000000000000000000000000075
:100B8000000000000037B0000037B000003FF00068
:100B9000003FF000003FF000001FE000000FC00029
:100BA000000300000003000003C30F0001E31E0068
:100BB00000F33C00007B7800003FF000001FE000E5
:100BC000000FC000000780000003000000000000CC
:100BD0000000000000000000000000000000000015
:100BE00000020000000200000007000000050000F5
:100BF0000002000000078000001FC0000027200046
:100C0000001FC000003FE000007FF000009FC80010
:100C1000003FE00000FFF80001FFFC0003FFFE00C2
:100C200004070100000700000007000000000000AA
:100C300000000000000000000000000000000000B4
:100C40000000000000190000001B8000001FC00011
:100C5000001FE000001FF000003FF800007FFC00D4
:100C600000FFFE0000E10E0000E10E0000E10E00BA
:100C700000FFFE0000FFFE0000E10E0000E10E009C
:100C800000E10E0000FFFE0000FFFE00000000007B
:100C90000000000000000000000000000000000054
:100CA00000000000007FFC00004004000059B40078
:100CB0000059B40000400400004004000059B40092
:100CC0000059B40000400400004004000059B40082
:100CD0000059B400004004000040040000418400BA
:100CE0000041840000418400007FFC0000000000FF
:100CF00000000000000000000000000000000000F4
:100D000003FFE0000200200002FFA000020020001C
:100D100002FFA0000200200002FFA000020020004D
:100D200002FFA0000200200002FFA00002FFA000BE
:100D30000200200002FFA00002002000023E20006E
:100D4000023E2000023E200003FFE0000000000001
:100D50000000000000000000000000000000000093
:100D60000003000000030000000FC000000FC000DF
:100D70000003000000030000000FC000001FE0009F
:100D8000007FF80000FFFC0001FFFE0001FCFE00F8
:100D900001F87E0001F87E0001F87E0001F87E0077
:100DA00001F87E0001F87E0001F87E0000000000DE
:100DB0000000000000000000000000000000000033
:100DC0000000000001FDFC000322260002000200DA
:100DD0000200020000222600007DFC00030000004B
:100DE0000300000003000000030842000318C600CF
:100DF0000339CE00037BFE0003FFFE0003FFFE006D
:100E000003FFFE0003FFFE0003FFFE0000000000E2
:100E100000000000000000000000000000000000D2
:100E200000010000180FC06017DFEFA0107138201C
:100E30001031302010D12C201F1FE3E0001FE000F4
:100E4000001FC000001FC000001FC000001FC00026
:100E5000001FC000001FE000001FE000001FE000B6
:100E6000001FE000001FE000001FE0000000000085
:100E70000000000000000000000000000000000072
:100E800000000000000FE000000C600000092000DE
:100E90000009A00000082000000C6000000FE00026
:100EA000007FFC00007FFC00007FFC0001FFFF00D2
:100EB00001FC7F0001F83F0001F83F0001F83F000E
:100EC00001F83F0001F83F0001F83F00000000007A
:100ED0000000000000000000000000000000000012
:100EE00000080000000F0000000BE0000008780080
:100EF00000080800000F0800000BE8000008780058
:100F000000080800000808000008080000080800A1
:100F1000000808000078080000F8080001F8080040
:100F200001F0780001E0F8000001F8000001F00095
:100F30000000E000000000000000000000000000D1
:100F400000000000001C3800003E7C00003E7C00D9
:100F5000003E7C00001C38000100000001CFF000C2
:100F600001FFF00001FFF00001FFF00001CFF000F1
:100F70000107E0000005A000000DB000000990008E
:100F8000001998000011880000318C00000000005A
:100F90000000000000000000000000000000000051
:100FA00000000000007FFE0000A0140001401400BB
:100FB00001C01800014018000140280001FFF8009E
:100FC000014018000140140000C01C0000A01400E3
:100FD00000A00C00007FFC0000A00E0000E00C0050
:100FE00000E00C0000C0140001FFF8000000000049
:100FF00000000000000000000000000000000000F1
:10100000000000000000000000000E000001F600DB
:10101000003ECE0003F9F000023E000003FFFE0098
:10102000031CE20003FFFE00007FFE00007FFE00C5
:10103000007FFE00007FFE00007FFE00007FFE00BC
:10104000007FFE0000000000000000000000000023
:101050000000000000000000000000000000000090
:101060000000000000FFE00000822000008220005D
:1010700000FF20000081200000FFE000008E200023
:1010800000FFE0000080200000FFE000008720005B
:101090000085E00000FD300000152E00006F2A00E2
:1010A0000041EE00003C3C000007F00000000000A2
:1010B0000000000000000000000000000000000030
:1010C0000000000000200000002000000050000090
:1010D000005800000057000000290000002C80008C
:1010E00000248000001250000049B8000044F000C5
:1010F00000435C0000A0BF80071D7F8000A08F80A0
:101100000040070000400000004000000000000018
:1011100000000000000000000000000000000000CF
:1011200000000000000F00000030C0000020400060
:1011300000402300004026000040260000402E0012
:1011400000205A000030F100000F190000051E00B9
:1011500000773C00007C7C0000FFF800007FF0007E
:10116000001FE0000007C0000000C00000000000F9
:10117000000000000000000000000000000000006F
:1011800000000000000120000006D8000004C80094
:10119000000DA8000015FC000065A60000E3720029
:1011A00001F69C0003FB670000FC9700007E3F00F7
:1011B000003DFF80001750000039D800000EC80025
:1011C0000004C8000009B800001B00000004000073
:1011D000000000000000000000000000000000000F
:1011E000001018000010100004082000020BA0C01E
:1011F0000103E1000083F200000FFC000033FE0059
:101200000861FF0007763F0000780F00007C0F00A8
:10121000003E0600009FF800010FFA000607F900E3
:101220000803F880001BF8C00010000000208400B4
:10123000002084000000800000000000000000008A
:101240000000000000000000000300000003000098
:10125000000FC000001FE000003FF000007FF8001A
:101260000064980000649800007FF800000000000F
:1012700001FFFE0003FFFF0007FFFF8001F7BE0034
:1012800001F7BE0000E31C000000000000000000A9
:10129000000000000000000000000000000000004E
:1012A000000000000000000000000000000000003E
:1012B00000000000000000000003F8000FC7FC0061
:1012C00001FFFC000007FC000007FC00000000001C
:1012D00000FFFF0001FFFF8001FFFF8001FFFF8093
:1012E00001FFFF80010000800180018000FFFF00FE
:1012F00000000000000000000000000000000000EE
:1013000000000000000078000010440000202400CD
:101310000047160000C89E0003504F0004504F00C5
:1013200002904F000788878007871F8007E53FC02E
:101330000FF77F000FF8FE0003FDFC00007DF800B2
:10134000007FF000007FF000007FF0000000000050
:10135000000000000000000000000000000000008D
:1013600000018000000380000003400000024000F4
:10137000000440000004C0000003800000070000DB
:10138000000E00000019C0000037E00000357000BA
:10139000003530000033300000192000001CE00050
:1013A0000007800000008000000E8000000E80001A
:1013B0000007000000000000000000000000000026
:1013C0000000000000010000000180000001C000DA
:1013D0000001E00000017000000118000001080099
:1013E00000010800000108000001080000011000D1
:1013F000000120000001000000010000000F0000BB
:10140000003F0000003E0000003C00000000000023
:1014100000000000000000000000000000000000CC
:101420000000000007FFFF800400008004FFFC8034
:1014300005FFFE8005FF068005FF068005FF06808C
:1014400005FFF68005FFF68005FFF68005FFFE80AC
:1014500005FFFE8005FFFE8005FFFE800400008082
:10146000059BC0800400008007FFFF800000000093
:10147000000000000000000000000000000000006C
:101480000000C00000018000000200000004000015
:1014900000080000001000000020000003FFFE0014
:1014A000024F0E00024CE600027DF600024BFA00ED
:1014B000024BFA00027BFA00027BFA00027DF60082
:1014C000027CE600027F1E0001FFFC00000000001D
:1014D000000000000000000000000000000000000C
:1014E00000000000000FE0000016D00000193000DE
:1014F0000016D0000016D000001930000016D000F1
:10150000003FF80000301800003FF800003FF800EE
:10151000003FF800002FE80000200800001FF00046
:101520000003800000038000000FE00000000000C6
:1015300000000000000000000000000000000000AB
:10154000000000000000000000000000000000009B
:1015500000FFFC0007FFFF800FFFFFC00FC00FC0A0
:10156000000FC0000F9CE7C000303000003030009A
:101570000060180000E01C0000F03C0001F03E009C
:1015800001F87E0001FFFE0001FFFE0000000000E8
:10159000000000000000000000000000000000004B
:1015A00000000000000003E000003C100001F00813
:1015B000001E3C0400FC3E0401833C04010138048D
:1015C0000206B0047E18B0048117B00480E8B004AD
:1015D000C028B0045F98800420488004100480383C
:1015E000080383C004019C0003FFE000000000002A
:1015F00000000000000000000000000000000000EB
:1016000000000000000003E000001C100001E008E2
:10161000000E0004007C00040183000401010004AA
:10162000020080147E0080E481008FE480C0BFE46B
:10163000C020B1C45F9080C420488004100480386A
:10164000080283C004019C0003FFE00000000000CA
:10165000000000000000000000000000000000008A
:10166000000000000FF0000008100000081000004B
:10167000780FFE00400002004000020041FFFFF82A
:101680004100000842000010420000104400002009
:1016900048000020480000405000008050000080BA
:1016A00060000100600001007FFFFE0000000000FC
:1016B000000000000000000000000000000000002A
:1016C00000000000001FE000003FF000003030008C
:1016D0000030300007FFFF8007FFFF8007FFFF801B
:1016E00007FFFF8007FFFF8007FFFF8007FFFF80E6
:1016F00007FFFF8007FFFF8007FFFF8007FFFF80D6
:1017000007FFFF8007FFFF8007FFFF80000000004A
:1017100000000000000000000000000000000000C9
:101720000000000000000000000FE000001FF000BB
:10173000073FF8000740040007FFFFC007FFFFC096
:1017400007F83FC007F01FC007E00FC007E00FC059
:1017500007E00FC007E00FC007E00FC007F01FC091
:1017600007F83FC007FFFFC007FFFFC000000000F1
:101770000000000000000000000000000000000069
:1017800000000000000FC0000030300000400800E2
:1017900000830400010302000103020002030100B0
:1017A000020301000203F9000203F9000200010034
:1017B000020001000100020001000200008004009C
:1017C0000040080000303000000FC00000000000A2
:1017D0000000000000000000000000000000000009
:1017E00000000000000000000000000000000000F9
:1017F000000000000F00000010800000108003C0F7
:1018000010801FE00FF07F00003FF800001FE00095
:10181000001FE000003FF8000FF07F0010801FC0A5
:10182000108003E0108000000F00000000000000A6
:1018300000000000000000000000000000000000A8
:10184000000000000007C000001830000033D8007E
:10185000002C6800005014000050140000501400C8
:101860000050140000FFFE0000FFFE0000FEFE001E
:1018700000FC7E0000FEFE0000FEFE00007EFC007C
:10188000003FF800001FF0000007C000000000004B
:101890000000000000000000000000000000000048
:1018A000000000000000F8000001FC000003FE0042
:1018B0000007C7000007C7000007C7000007FF00B8
:1018C000000FFF00000FFE00000FFC00003FF800BB
:1018D000003F000000FE000000FC000003F80000D4
:1018E00003F0000003E0000003C00000000000005F
:1018F00000000000000000000000000000000000E8
:1019000000000000000000000000000000000000D7
:10191000003FF000002010000040080000400800D8
:10192000004008000080040001FFFF00039FE70063
:10193000030FC300030FC300039FE70003FFFF0073
:1019400000E01C0000E01C0000E01C0000000000A3
:101950000000000000000000000000000000000087
:10196000000000000000000000078000000480006C
:10197000001FE000002010000040100000400800A0
:10198000004008000080040001FFFF00039FE70003
:10199000030FC300030FC300039FE70003FFFF0013
:1019A00000E01C0000E01C0000E01C000000000043
:1019B0000000000000000000000000000000000027
:1019C0000000000000FFFC0000E01C0001E01E0021
:1019D00001FFFE0001000200010002000100020000
:1019E000010002000100020001FFFE0001CFCE0055
:1019F000018786000187860001CFCE0001FFFE002F
:101A000000703800007038000070380000000000DE
:101A100000000000000000000000000000000000C6
:101A200000000000007FFC00007FFC00004004007C
:101A30000040040000400400004004000040040096
:101A40000040040000400400007FFC0000478C00C0
:101A500000478C0000478C00007FFC00003018001D
:101A60000020080000400400018003000000000086
:101A70000000000000000000000000000000000066
:101A80000000000000070000000700000007000041
:101A90000007800000078000010780000187C00068
:101AA0000187C00001FFFF8001FFFF8001FFFF8071
:101AB0000187C000018780000107800000078000C7
:101AC0000007000000070000000700000000000001
:101AD0000000000000000000000000000000000006
:101AE00000000000000000000000000000000000F6
:101AF0000FFFC0000FFFC0000FFFC0000FFFFF006F
:101B00000FFFF8800FFFF8800FFFF8800FFFF840FD
:101B100000003FC00FFFFFC00F01F9C00EC6F6C0A6
:101B20000DEF6F4001EF0F0000C60600000000003F
:101B300000000000000000000000000000000000A5
:101B40000000000000000000000001C0000006606E
:101B50000000082000001E2000006E400000B5803C
:101B600000034B0000049400001B68000024B00038
:101B7000005B400001A58000015A0000026C0000DB
:101B8000045000000CE000000F00000010000000F6
:101B90000000000000000000000000000000000045
:101BA0000000000000004000000060000000F000A5
:101BB000000FC0000033800000478000008E63F0FB
:101BC000011C1E700138027002380270027B027024
:101BD000047C027004800270078006700B7FFBF0AB
:101BE0000A0000700C00000000000000000000006F
:101BF00000000000000000000000000000000000E5
:101C000000001000000038000000F8000000F8009C
:101C10000001F8000001F8000003F8000003F000E4
:101C20000007F0000005F000000F6000000DC0008C
:101C3000000F6000000BC0000016800000120000C2
:101C40000022000000230000003C000000200000F3
:101C50000000000000000000000000000000000084
:101C6000000000000007FC0000181C00003FE4001A
:101C7000002024000027240000202400002024004D
:101C8000002024000020240000202400003FE40065
:101C9000002024000027240000202400002024002D
:101CA0000020280000203000003FE000000000007D
:101CB0000000000000000000000000000000000024
:101CC00000000000001FE0000020100000201000B5
:101CD00000305000002FD0000017E0000013A000DB
:101CE000000B400000058000000580000009400056
:101CF000001120000011200000211000002790009A
:101D0000002FD000002FD000001FE00000000000D6
:101D100000000000000000000000000000000000C3
:101D20000000000007FDFF000C0701803C0201E0FD
:101D30003402016034020160340201603402016047
:101D40003402016034020160340201603402016037
:101D5000340201603402016037FAFF603807016025
:101D6000380200E03FFAFFE0000F800000000000B2
:101D70000000000000000000000000000000000063
:101D80000000000000FFFE00008002000080020052
:101D9000008002000080020000800200008002003B
:101DA000008002000080020000800200008002002B
:101DB000008002000080020000803E0000802400BD
:101DC000008028000080300000FFE00000000000DC
:101DD0000000000000000000000000000000000003
:101DE0000000000000FFFE000080020000800200F2
:101DF00000BF8200008002000080020000BFFA00E5
:101E000000BFFA000080020000BFFA00008002005C
:101E100000BFFA000080020000BFBE000080240066
:101E2000008028000080300000FFE000000000007B
:101E300000000000000000000000000000000000A2
:101E400000000000000FFF800008008000080080F4
:101E5000007FFC800040048001FFF48001001480BA
:101E600001001480017F948001001480017F948020
:101E700001001480017F948001001480010014800F
:101E8000017F948001001480017F9780010014007D
:101E9000017E140001001C0001FFF00000000000A2
:101EA000000000000FFFFFE008000020080003A072
:101EB00009FC03A0080003A009FC03A0080003A07C
:101EC00008000020080000200800002009FFF8207A
:101ED0000800002009FFF8200800002009FFF82072
:101EE00008000020080000200FFFFFE000000000B5
:101EF00000000000000000000000000000000000E2
:101F0000000000000FFFFFE00C0000600A0000A0CE
:101F10000900012008800220084004200820082031
:101F20000810102008082020080C6020081AB02093
:101F3000082388200840042008800220090001208E
:101F40000A0000A00C0000600FFFFFE0000000008E
:101F50000000000000000000000000000000000081
:101F60000000000001FFFC0001E01E0001E0DE00B7
:101F700001E0DE0001E0DE0001E0DE0001E01E0025
:101F800001FFFE00018006000180060001800600BE
:101F90000180060001800600018006000180060025
:101FA000018006000180060001FFFE000000000025
:101FB0000000000000000000000000000000000021
:101FC0000000000003FFFF00020003000200030006
:101FD000020003000200020003FFFF0003FFFF00F6
:101FE00003F8FF0003F07F0003F07F0003F07F00A1
:101FF00003F8FF0003FFFF0003FCFF0003FCFF00EA
:1020000003FCFF0003FCFF0003FFFF0000000000D3
:1020100000000000000000000000000000000000C0
:1020200000000000000000000000000000000000B0
:1020300007FFFF8007FFFF8007FFFF8004F87C8019
:10204000048CC480058CC680058CC68004FCFC8092
:1020500004F87C8007FFFF8007FFFF8006FFFD80FC
:102060000000000000000000000000000000000070
:102070000000000000000000000000000000000060
:1020800000000000000FC000003E3000007E08008D
:1020900000FE04000178020001F7820002F86100EE
:1020A00003F0310003E3110003E31F0002231F00CC
:1020B00002103F0001187E000107FE000081FC00B5
:1020C0000041F8000031F000000FC00000000000E7
:1020D0000000000000000000000000000000000000
:1020E00000000000000FC0000031F000005FF800A9
:1020F00000A7FC0001D9FE0001A7FE0001D83E00A8
:1021000003A01F0003A31F0003E31F0003E31D0040
:1021100001E02E0001F03A0001FFEA0000FE740029
:10212000007FC800003E3000000FC000000000002B
:10213000000000000000000000000000000000009F
:102140000000000001FFFE0001000200017FFE0010
:102150000140060001400600014006000140060063
:10216000014006000140060001400600017FFE001C
:1021700001FFFE0001FFFF0001000100036F7980F5
:1021800002DFBC800200008003FFFF80000000002F
:10219000000000000000000000000000000000003F
:1021A000000000000001000000010000000300002A
:1021B00000FE00000100000001000000010000001E
:1021C0001FFFFFC0100000401000004017BDEDC011
:1021D0001000004017BDEDC010000040177EEDC09C
:1021E00010000040100000401FFFFFC00000000072
:1021F00000000000000000000000000000000000DF
:102200000000000000000000003FF0000040080057
:10221000004008000040080000407F000040898026
:10222000004088800380FF80000080800000808064
:10223000000080800000808000008080000080809E
:102240000000C1800000630000003E0000000000AC
:10225000000000000000000000000000000000007E
:10226000000000000000000000000000000000006E
:10227000000000000000000000000000000000005E
:1022800000000000000000000000000001FFFF004F
:1022900001000100013FF9000100010001000900F7
:1022A000010001000100010001FFFF00000000002B
:1022B000000000000000000000000000000000001E
:1022C00000010000000780000007C000000BA00014
:1022D000000BA00000092000000920000007C0003A
:1022E00000052000001A20000013100000129000CA
:1022F000001C7800001C3800001C3800001C38004E
:10230000001C3800000C3000000E70000006600059
:1023100000000000000000000000000000000000BD
:102320000000000000187000002578000027F80069
:10233000001FF000007FE00000FF800001FF800030
:1023400001FC800000F2400000E2200000012000BB
:102350000001100000009000000088000000440010
:10236000000024000000220000001C00000000000B
:10237000000000000000000000000000000000005D
:10238000000000000000000000000000000000004D
:1023900000001E0000002100000021000000478016
:1023A000000088000003078001EC21000210DE001D
:1023B000078300000084000000C8000007900000B0
:1023C0000210000001E0000000000000000000001A
:1023D00000000000000000000000000000000000FD
:1023E0000000000000000F0000001F8000003F8080
:1023F00000007F8000007F0000007E000001FC00E4
:102400000000F800000160000002A00000050000CC
:10241000000A0000001400000028000000D00000A6
:1024200001200000022000000240000001800000A6
:10243000000000000000000000000000000FFC0091
:1024400000080600000BF70000080080000BFE806B
:102450000008008007FBFEC0064800C0064B80C095
:10246000064800C0065FFFC00650004006506F409F
:1024700006506F4006506F4006576F4006576F403A
:1024800006576F4007D0004007FFFFC00000000064
:10249000000000000000000000000000000000003C
:1024A0000000000000FFF0000080380000803C00C9
:1024B00000803C00008004000080040000800400D4
:1024C0000080040003FFFF00020001000FFFFFC0B7
:1024D000092480400924804009FF80400800004012
:1024E000080000400FFFFFC003FFFF0000000000D6
:1024F00000000000000000000000000000000000DC
:1025000000000000000000000000000000000000CB
:102510000078000000780000007BE000007A2000D6
:10252000007A200000FE3C000080040003BF77001A
:10253000020001000200010003FFFF0001FFFE0096
:1025400001FFFC0001FFFC0000FFF800000000009C
:10255000000000000000000000000000000000007B
:102560000000000000070000000D8000001AC000FD
:1025700000154000001740000012400000673000C6
:1025800000D2580001974C0002174200021242008C
:102590000218C20003E73E0003E73E00003DE000F2
:1025A000003DE000000000000018C000003DE00019
:1025B000000A80000002000000000000000000008F
:1025C000000000000000000000000000000000000B
:1025D0000000000000070000003800000078000044
:1025E0000077FFC00037FDC0002FF80003EFE700C1
:1025F0000467E8800893D0400991FE400BD0FE406C
:10260000091010400420088003C0070000000000EB
:1026100000000000000000000000000000000000BA
:1026200000000000000000000000000000000000AA
:102630000000000000000000000F00000008000083
:10264000001FF0000034300003E44F8006725CC0CD
:102650000C5A946008C9A6200889FE20080820208A
:102660000C101060063018C003E007800000000066
:10267000000000000000000000000000080C20A680
:10268000000000000000000000000000000020200A
:1026900020202020002000000028505000000000D2
:1026A0000000000000002828FC2850FC50500000CA
:1026B000002078A8A0603028A8F02000000048A8DA
:1026C000B050283454480000000020505078A8A88A
:1026D000906C0000004040800000000000000000FE
:1026E0000004081010101010100804000040201002
:1026F000101010101020400000000020A87070A8DA
:10270000200000000000202020F8202020000000F1
:1027100000000000000000000040408000000000B9
:1027200000F80000000000000000000000000000B1
:1027300000400000000810101020204040408000A1
:1027400000007088888888888870000000002060F9
:102750002020202020700000000070888810204079
:1027600080F80000000070880830080888700000B9
:102770000000103050509078101800000000F880D1
:1027800080F00808887000000000709080F0888851
:10279000887000000000F890102020202020000009
:1027A0000000708888708888887000000000708839
:1027B00088887808487000000000000020000000B1
:1027C0000020000000000000002000000020200089
:1027D0000004081020402010080400000000000041
:1027E000F80000F800000000004020100804081065
:1027F0002040000000007088881020200020000089
:102800000000708898A8A8B88078000000002020F8
:102810003050507848CC00000000F04848704848DC
:1028200048F0000000007888808080808870000078
:102830000000F0484848484848F000000000F848C8
:102840005070504048F800000000F8485070504068
:1028500040E000000000384880809C88483000003C
:102860000000CC484878484848CC00000000F820D8
:102870002020202020F8000000007C1010101010F4
:102880001090E0000000EC485060505048EC000010
:102890000000E0404040404044FC00000000D8D828
:1028A000D8D8A8A8A8A800000000DC486868585834
:1028B00048E80000000070888888888888700000D8
:1028C0000000F0484870404040E000000000708880
:1028D000888888E8987018000000F04848705048D0
:1028E00048EC0000000078888060100888F0000044
:1028F0000000F8A820202020207000000000CC4814
:1029000048484848483000000000CC484850503003
:10291000202000000000A8A8A870505050500000CF
:102920000000D8505020205050D800000000D8504F
:1029300050202020207000000000F890102020403F
:1029400048F80000003820202020202020203800D7
:1029500000404040202010101008000000701010AF
:102960001010101010107000002050000000000027
:10297000000000000000000000000000000000FC5B
:102980000020000000000000000000000000000027
:1029900000304838483C00000000C04040704848C3
:1029A0004870000000000000003848404038000037
:1029B0000000180808384848483C000000000000A3
:1029C000003048784038000000001C20207820208B
:1029D0002078000000000000003C48304078443877
:1029E0000000C0404070484848EC00000000200053
:1029F0000060202020700000000010000030101047
:102A0000101010E00000C040405C507048EC000026
:102A10000000E0202020202020F80000000000001E
:102A200000F0A8A8A8A800000000000000F0484896
:102A300048EC00000000000000304848483000002A
:102A40000000000000F04848487040E0000000002E
:102A5000003848484838081C0000000000D8604092
:102A600040E00000000000000078403008780000DE
:102A7000000000202070202020180000000000002E
:102A800000D84848483C00000000000000EC4850D6
:102A9000302000000000000000A8A8705050000086
:102AA0000000000000D8502050D8000000000000B6
:102AB00000EC4850302020C00000000000781020BA
:102AC00020780000001810101020101010101800AE
:102AD0001010101010101010101010100060202096
:102AE000201020202020600040A4180000000000DA
:102AF00000000000000030484830000000000000E6
:102B00000000F8484070484848F000000000F848CD
:102B10004040404040E000000000384848484848F5
:102B200048FC84005000F8485070504048F80000BD
:102B30000000A8A8A870F8A8A8A800000000F088C5
:102B40000830080808F000000000EC485858686891
:102B500048DC00003000EC485858686848DC000049
:102B600000003C484848484848CC00000000FC4869
:102B70004848484848CC00000000D8505020204029
:102B800040800000000070A8A8A8A8702070000075
:102B90000000CC484848484848FC04000000CC48A5
:102BA00048483808081C00000000D65454545454B7
:102BB00054FE00000000D6545454545454FE0200F5
:102BC0000000E0C04070484848F000000000EE44BB
:102BD0004464545454EE00000000E0404070484803
:102BE00048F000000000E0900838080890600000FD
:102BF0000000EC525252725252EC000000003C486D
:102C000048483848489C0000000008304070484858
:102C100048300000000000000070283028700000DC
:102C20000000000000782820207000000000000054
:102C300000182828287C440000000028003048782C
:102C4000403000000000000000545438545400008C
:102C50000000000000700830087000000000000054
:102C600000CC485868CC00000000003000CC485828
:102C700068CC000000000000004850605048000090
:102C800000000000001C2828284C00000000000064
:102C900000446C54444400000000000000CC48781C
:102CA00048CC00000000000000FC484848CC000070
:102CB00000000000007C54101038000000000000EC
:102CC00000385454543810380000000000CC4848F4
:102CD00048FC04000000000000CC4838080C00004C
:102CE0000000000000545454547C00000000000018
:102CF00000545454547E02000000000000E0A03054
:102D0000287000000000000000C6446454E6000083
:102D1000000000000060203028700000000000006B
:102D200000304818483000000000000000C854740B
:102D300054C8000000000000003C4848384C000027
:102D40003CE781BD81BD81BD81BD81FF3CE78181C3
:102D500081BD81BD81BD81FF3CE78181818181BDD4
:102D600081BD81FF3CE781818181818181BD81FFBE
:102D70003CE7818181818181818181FFFFFF003F6B
:102D80003F000F0F000303000000003F3F000F0F44
:102D9000000303000000000000000F0F0003030009
:102DA00000000000000000000003030000001010FD
:102DB000101010543810000000001038541010107B
:102DC000101000000000000010087C081000000037
:102DD0000000000010207C20100000000000003CDB
:102DE0000C14244480000000000000804424140CD3
:102DF0003C00000000003C42A581A599423C000037
:102E000000003C7EDBFFFFDB663C000000003C4234
:102E1000A58199A5423C000000003C7EDBFFFFE756
:102E20005A3C000000003C4281818181423C00000C
:102E300000003C7EFFFFFFFF7E3C00000000FF81A2
:102E40008181818181FF00000000FFFFFFFFFFFF04
:102E5000FFFF00001010208F0000000000000000A5
:102E60000000000000000000000000000000000062
:102E700000000000000000000000000007000F80BC
:102E80000F800F800F800F800700070000000000F8
:102E9000070007000700000000000E380E380E384B
:102EA0000E380630000000000000000000000000A6
:102EB000000000000000000000000C300C300C305E
:102EC0007FFE7FFE0C300C300C300C307FFE7FFE1E
:102ED0000C300C300C3000000000024002400FF8B3
:102EE0001FF81A401A401FF00FF8025802581FF836
:102EF0001FF00240024000000000000000000E1021
:102F00000E300E7000E001C0038007000E700C70E0
:102F10000870000000000000000000000F00198091
:102F2000198019800F000F080F9819F818F018E091
:102F300019F00F98000000000000000007000700D3
:102F400007000E000000000000000000000000006C
:102F500000000000000000000000000000F001C0C0
:102F6000038007000E000E000E000E000700038015
:102F700001C000F000000000000000000F0003800E
:102F800001C000E0007000700070007000E001C03F
:102F900003800F0000000000000000000180118885
:102FA000099007E007E03FFC3FFC07E007E00990DD
:102FB00011880180000000000000000000000000F7
:102FC0000180018001800FF00FF0018001800180FD
:102FD00000000000000000000000000000000000F1
:102FE00000000000000000000000000000000700DA
:102FF000070007000E0000000000000000000000B5
:103000000000000000001FF81FF800000000000092
:1030100000000000000000000000000000000000B0
:103020000000000000000000000000000000070099
:10303000070007000000000000000000000200067A
:10304000000E001C0038007000E001C00380070083
:103050000E001C0000000000000000000FF01C38F3
:103060001C781CF81CF81DB81DB81F381F381E38F6
:103070001C380FF0000000000000000001800180FB
:1030800003801F801F8003800380038003800380F0
:1030900003801FF000000000000000000FE01C7023
:1030A0001C380038007000E001C0038007000E38B3
:1030B0001C381FF800000000000000000FE01C702A
:1030C0001C380038007003C003C0007000381C3882
:1030D0001C700FE0000000000000000000E001E0B4
:1030E00003E006E00CE018E01FF81FF800E000E045
:1030F00000E003F800000000000000001FF81C00C2
:103100001C001C001C001FE01FF0007800381C3859
:103110001C700FE0000000000000000003E007004A
:103120000E001C001C001FF01FF81C381C381C3837
:103130001C380FF000000000000000001FFC1C1CE9
:103140001C1C1C1C001C0038007000E001C0038027
:103150000380038000000000000000000FF01C3816
:103160001C381C381F3807E007E01CF81C381C38D6
:103170001C380FF000000000000000000FF01C38A9
:103180001C381C381C381FF80FF800380038007045
:1031900000E007C000000000000000000000000088
:1031A000038003800380000000000380038003800D
:1031B000000000000000000000000000000000000F
:1031C00003800380038000000000038003800380ED
:1031D00007000000000000000000007000E001C0D7
:1031E000038007000E001C001C000E000700038077
:1031F00001C000E0007000000000000000000000BE
:1032000000003FFC3FFC000000003FFC3FFC0000D2
:10321000000000000000000000001C000E0007007D
:10322000038001C000E00070007000E001C0038076
:1032300007000E001C000000000003C00FF01E7805
:1032400018380038007000E001C001C00000000024
:1032500001C001C001C0000000000FF81C1C1C1CB4
:103260001C1C1C1C1CFC1CFC1CFC1CFC1C001C0056
:103270001C001FF007F800000000000003C007E07A
:103280000E701C381C381C381C381FF81C381C38B1
:103290001C381C3800000000000000001FF00E3831
:1032A0000E380E380E380FF00FF00E380E380E387C
:1032B0000E381FF0000000000000000007F00E387C
:1032C0001C381C001C001C001C001C001C001C38AE
:1032D0000E3807F000000000000000001FE00E7034
:1032E0000E380E380E380E380E380E380E380E38AE
:1032F0000E701FE000000000000000001FF80E1814
:103300000E080E000E300FF00FF00E300E000E08FB
:103310000E181FF800000000000000001FF80E1833
:103320000E080E000E300FF00FF00E300E000E00E3
:103330000E001F00000000000000000007F00E3823
:103340001C381C381C001C001C001CF81C381C38C5
:103350000E3807F800000000000000001C701C7010
:103360001C701C701C701FF01FF01C701C701C70F7
:103370001C701C7000000000000000000FE00380C3
:103380000380038003800380038003800380038025
:1033900003800FE0000000000000000001FC00704E
:1033A00000700070007000700070387038703870F5
:1033B00038700FE000000000000000001E380E38DA
:1033C0000E700EE00FC00F800F800FC00EE00E7069
:1033D0000E381E3800000000000000001F000E0024
:1033E0000E000E000E000E000E000E000E080E184D
:1033F0000E381FF800000000000000001C1C1E3CDE
:103400001F7C1FFC1FFC1DDC1C9C1C1C1C1C1C1C92
:103410001C1C1C1C00000000000000001C1C1C1CCC
:103420001E1C1F1C1F9C1DDC1CFC1C7C1C3C1C1C33
:103430001C1C1C1C000000000000000003E007F042
:103440000E381C1C1C1C1C1C1C1C1C1C1C1C0E38A0
:1034500007F003E000000000000000001FF00E383D
:103460000E380E380E380FF00FF00E000E000E0062
:103470000E001F00000000000000000003E00F78B5
:103480000E381C1C1C1C1C1C1C1C1C7C1CFC0FF85F
:103490000FF8003800FC0000000000001FF00E389C
:1034A0000E380E380E380FF00FF00E700E380E3842
:1034B0000E381E3800000000000000000FF01C381D
:1034C0001C381C381C000FE007F000381C381C3872
:1034D0001C380FF000000000000000001FFC19CC99
:1034E00011C401C001C001C001C001C001C001C0C0
:1034F00001C007F000000000000000001C701C70FC
:103500001C701C701C701C701C701C701C701C705B
:103510001C700FE000000000000000001C701C7018
:103520001C701C701C701C701C701C701C700EE0D9
:1035300007C0038000000000000000001C1C1C1CD1
:103540001C1C1C1C1C1C1C9C1C9C1C9C0FF80FF89D
:103550000770077000000000000000001C701C7065
:103560001C700EE007C00380038007C00EE01C70D3
:103570001C701C7000000000000000001C701C701B
:103580001C701C701C700EE007C003800380038059
:1035900003800FE000000000000000001FF81C384E
:1035A0001838107000E001C0038007000E081C18D6
:1035B0001C381FF8000000000000000007F00700A2
:1035C00007000700070007000700070007000700C3
:1035D000070007F0000000000000000010001800C5
:1035E0001C000E000700038001C000E000700038DE
:1035F000001C0007000000000000000007F0007041
:10360000007000700070007000700070007000703A
:10361000007007F0000000000000018003C007E018
:103620000E701C38000000000000000000000000C8
:10363000000000000000000000000000000000008A
:10364000000000000000000000000000000000007A
:10365000000000007FFF7FFF000000001C001C0036
:10366000070007000000000000000000000000004C
:10367000000000000000000000000000000000004A
:10368000000000000FE0007000700FF01C701C7054
:103690001C700FD800000000000000001E000E008B
:1036A0000E000E000FF00E380E380E380E380E38A1
:1036B0000E381BF0000000000000000000000000B9
:1036C000000000000FE01C701C701C001C001C702F
:1036D0001C700FE0000000000000000000F8007007
:1036E000007000700FF01C701C701C701C701C703F
:1036F0001C700FD800000000000000000000000057
:10370000000000000FE01C701C701FF01C001C70FB
:103710001C700FE0000000000000000003E00770D4
:103720000770070007001FE01FE007000700070001
:1037300007001FC0000000000000000000000000A3
:10374000000000000FD81C701C701C701C700FF063
:1037500007F000701C700FE0000000001E000E005B
:103760000E000E000EF00F380F380E380E380E38DF
:103770000E381E38000000000000000001C001C02B
:1037800001C000000FC001C001C001C001C001C0E4
:1037900001C00FF800000000000000000070007081
:1037A0000070000003F00070007000700070007086
:1037B00000701C700CF007E0000000001E000E00FE
:1037C0000E000E000E380E700EE00FC00EE00E70F0
:1037D0000E381E3800000000000000000FC001C0BD
:1037E00001C001C001C001C001C001C001C001C0D1
:1037F00001C00FF800000000000000000000000001
:10380000000000001FF81C9C1C9C1C9C1C9C1C9C09
:103810001C9C1C9C00000000000000000000000038
:10382000000000001FE01C701C701C701C701C70DD
:103830001C701C7000000000000000000000000070
:10384000000000000FE01C701C701C701C701C70CD
:103850001C700FE0000000000000000000000000ED
:10386000000000001BF00E380E380E380E380E38EF
:103870000FF00E000E001F0000000000000000000E
:10388000000000001FB038E038E038E038E038E0F1
:103890001FE000E000E001F0000000000000000078
:1038A000000000001EF00FF80F380E000E000E0092
:1038B0000E001F00000000000000000000000000DB
:1038C000000000000FE01C301C300F8003E0187077
:1038D00018700FE000000000000000000000010070
:1038E000030007001FF0070007000700070007702C
:1038F000077003E00000000000000000000000006E
:10390000000000001C701C701C701C701C701C706F
:103910001C700FD800000000000000000000000034
:10392000000000001C701C701C701C701C700EE0ED
:1039300007C003800000000000000000000000003D
:10394000000000001C1C1C1C1C1C1C9C1C9C0FF858
:103950000770077000000000000000000000000079
:10396000000000001CE01CE00FC0078007800FC0B3
:103970001CE01CE00000000000000000000000004F
:10398000000000000E380E380E380E380E3807F0E2
:1039900003E000E001C01F80000000000000000004
:1039A000000000001FE018E011C0038007000E2097
:1039B0001C601FE0000000000000000001F8038010
:1039C0000380038007001C001C00070003800380A5
:1039D000038001F800000000000001C001C001C028
:1039E00001C001C001C001C001C001C001C001C0CF
:1039F00001C001C001C00000000000001F8001C024
:103A000001C001C000E00038003800E001C001C082
:103A100001C01F8000000000000000001F1C3B9C34
:103A200039DC38F800000000000000000000000051
:103A300000000000000000000000000000F001F89D
:103A40000198019801F800F000000000000000005B
:103A50000000000000000000000000001FF80E1829
:103A60000E080E000E000FF00E380E380E380E380D
:103A70000E381FF000000000000000001FF80E18B4
:103A80000E080E000E000E000E000E000E000E00BE
:103A90000E001F00000000000000000007F00C7086
:103AA0001C701C701C701C701C701C701C701C70B6
:103AB0001C703FF830182008066000001FF80E1830
:103AC0000E080E000E300FF00FF00E300E000E0834
:103AD0000E181FF8000000000000000033CC1998F9
:103AE000199819980DB00FF00FF01DB81998199882
:103AF000199833CC000000000000000017E01E7091
:103B00001C381038007003C003C0007000381C3827
:103B10001C700FE000000000000000001C701C7012
:103B20001C701C701C701C701CF01DF01F701E702F
:103B30001C701C7000000000038000001C701C70D2
:103B40001C701C701C701C701CF01DF01F701E700F
:103B50001C701C70000000000000000003F00670E4
:103B60000E700E700E700E700E700E700E700E7065
:103B70000E701C7000000000000000001FF01C70A0
:103B80001C701C701C701C701C701C701C701C70D5
:103B90001C701C7000000000000000001C701C70F5
:103BA0001C701C701C701C700FF007F0007000700F
:103BB0001CE00FC000000000000000001FF0339860
:103BC0003398339833983398339833981FF00380A1
:103BD000038007C000000000000000001C701C7083
:103BE0001C701C701C701C701C701C701C701C7075
:103BF0001C701FF800180008000000001C701C70EA
:103C00001C701C701C701C701FF00FF00070007096
:103C1000007000700000000000000000399C399C1A
:103C2000399C399C399C399C399C399C399C399CEC
:103C3000399C3FFC0000000000000000399C399CCA
:103C4000399C399C399C399C399C399C399C399CCC
:103C5000399C3FFE00060002000000003F002E00DD
:103C60002E000E000E000FF00E380E380E380E38F3
:103C70000E381FF00000000000000000381C381C47
:103C8000381C381C381C3F9C39DC39DC39DC39DC09
:103C900039DC3F9C00000000000000001F000E0007
:103CA0000E000E000E000FF00E380E380E380E38D3
:103CB0000E381FF000000000000000000FE01C7034
:103CC0001C380038003803F803F8003800381C3876
:103CD0001C700FE000000000000000003CF81D9C7C
:103CE0001D9C1D9C1D9C1F9C1F9C1D9C1D9C1D9C08
:103CF0001D9C3CF800000000000000000FF81C7044
:103D00001C701C701C701C701FF00FF01C701C705D
:103D10001C7038780000000000000000001807F850
:103D20000F000E000E000FF00E380E380E380E3851
:103D30000E3807F000000000000000000000000046
:103D4000000000001FF00E380E380FF00E380E384D
:103D50000E381FF00000000000000000000000000E
:103D6000000000001FF81C381C001C001C001C0078
:103D70001C001C000000000000000000000000000B
:103D80000000000007F00E700E700E700E700E70C6
:103D90000E701FF810080000000000000000000076
:103DA00006C000000FE01C701C701FF01C001C708F
:103DB0001C700FE000000000000000000000000088
:103DC0000000000019CC19CC19CC0DD807F00DD883
:103DD00019CC19CC00000000000000000000000019
:103DE000000000000FE01C70007003E00070007025
:103DF0001C700FE000000000000000000000000048
:103E0000000000001C701C701C701CF01D701E70E7
:103E10001C701C700000000000000000000000008A
:103E200001C000000E380E380E380E780EB80F386C
:103E30000E380E38000000000000000000000000F6
:103E4000000000000E380E380E700FE00E700E38B5
:103E50000E380E38000000000000000000000000D6
:103E60000000000003F8073807380738073807381C
:103E700007380E38000000000000000000000000BD
:103E8000000000003838383838383C783AB83938CB
:103E90003838383800000000000000000000000042
:103EA000000000001C701C701C701C701FF01C7047
:103EB0001C701C70000000000000000000000000EA
:103EC000000000001FF01C701C701C701C701C7027
:103ED0001C701C70000000000000000000000000CA
:103EE000000000001FF01390038003800380038014
:103EF00003800380000000000000000000000000BC
:103F0000000003801FF03BB83BB83BB83BB80FF054
:103F10000380038003800000000000000000000018
:103F2000000000001C701C701C701C701C701C7049
:103F30001C701FF8001800000000000000000000C6
:103F4000000000001C701C701C701C700FF00070D2
:103F50000070007000000000000000000000000081
:103F600000000000399C399C399C399C399C399C53
:103F7000399C3FFC00000000000000000000000031
:103F800000000000399C399C399C399C399C399C33
:103F9000399C3FFE00060000000000000000000009
:103FA000000000003E002E000E000FF00E380E380C
:103FB0000E380FF0000000000000000000000000BC
:103FC00000000000381C381C381C3F9C39DC39DCF0
:103FD00039DC3F9C000000000000000000000000F1
:103FE000000000000E000E000E000FF00E380E381C
:103FF0000E380FF00000000000000000000000007C
:10400000000000000FE01C70007003F000700070F2
:104010001C700FE000000000000000000000000025
:104020000000000038F8399C399C399C3F9C399C31
:10403000399C38F80000000000000000000000007B
:104040000000000007F80E380E380E3807F80E385A
:104050000E381C3800000000546563A4209F6FA335
:104060009DAF209F619665A0AF4E004B6FA2A42E1E
:10407000204E39202D204865A421004B6FA2A42E8C
:10408000204E38202D204865A421004B6FA2A42E7D
:10409000204E37202D204865A421004B6FA2A42E6E
:1040A000204E36202D204865A421004B6FA2A42E5F
:1040B000204E35202D204865A421004B6FA2A42E50
:1040C000204E34202D204865A421004B6FA2A42E41
:1040D000204E33202D204865A421004B6FA2A42E32
:1040E000204E32202D204865A421004B6FA2A42E23
:1040F000204E31202D204865A4210020004B6FA2C6
:10410000A42E204E39202D204F9F004B6FA2A42EAD
:10411000204E38202D204F9F004B6FA2A42E204E02
:1041200037202D204F9F004B6FA2A42E204E36200B
:104130002D204F9F004B6FA2A42E204E35202D2006
:104140004F9F004B6FA2A42E204E34202D204F9F56
:10415000004B6FA2A42E204E33202D204F9F004BEA
:104160006FA2A42E204E32202D204F9F004B6FA215
:10417000A42E204E31202D204F9F003D3D3D3D3D42
:104180003D3D3D3D003D3D3D3D3D3D3D3D3D003DD9
:104190003D3D3D3D3D3D3D3D003D3D3D3D3D3D3D8C
:1041A0003D3D003D3D3D3D3D3D3D3D3D003D3D3DB9
:1041B0003D3D3D3D3D3D003D3D3D3D3D3D3D3D3D6C
:1041C000003D3D3D3D3D3D3D3D3D0020202020202A
:1041D00020202020202020202020202020202020DF
:1041E000003D3D3D3D3D3D3D3D3D0054454354205A
:1041F00085414B4F488D4548004F96A26170799B91
:1042000065A2209F619665A0AC204E34004F96A217
:104210006170799B65A2209F619665A0AC204E33AA
:10422000004F96A26170799B65A2209F619665A060
:10423000AC204E32004F96A26170799B65A2209F00
:10424000619665A0AC204E31004FA89D966F9F20CF
:104250002D202020202020202020004FA89D966F78
:104260009F20A265A400A36F999FA0AEA765A29D01
:10427000AF209F619665A0AF004F8E86804B4100B6
:10428000896F97A46F709DA4AC008561976570A835
:104290009DA4AC00A3709D9F6F63A29D63AC209F03
:1042A00020AD9F7061A2790082A0AF2097AB786F9C
:1042B000996100546563A420976365782070619CC0
:1042C000AA65A16F9700200053746F702D3E505562
:1042D0005348204469737000A19DA22E977065A178
:1042E000AF20A3706F63A46FAF003D3D3D3D3D3DEA
:1042F0003D3D3D003D3D3D3D3D3D3D3D3D002000C2
:1043000042AB780042976F9920004FA4A165A2614B
:10431000003D3D3D3D3D3D3D3D3D00486163A47058
:104320006F9E9F6120639D63A465A1AB004861639C
:10433000A4706F9E9F6120639D63A465A1AB005430
:104340006563A4206F9679A72E20A46196A09DA6F0
:10435000617820003D3D3D3D3D3D3D3D3D00896F47
:104360009F619C61A29DAF209961A4A79D9F6F97BB
:10437000003D3D3D3D3D3D3D3D3D003D3D3D3D3DE7
:104380003D3D3D3D007B4371435E4354433F432DE0
:10439000431B4311430A4304430043FE42F442EAF1
:1043A00042D842C842C642B342A84294428A42809E
:1043B00042794266425B424942354221420D42F90E
:1043C00041EB41E141CB41C141B741AD41A34199ED
:1043D000418F4185417B416D415F415141434135B1
:1043E00041274119410B41FD40FB40EB40DB40CBF5
:1043F00040BB40AB409B408B407B406B40584001F2
:1044000002102020080810204010204080020102E5
:1044100001080402010102040810204080804020AD
:1044200010080402018004020180402010080402E8
:104430000108040201010204081020408001020466
:10444000081020408000002200250028002B002EAC
:10445000003100340002010000050108010B0105D4
:10446000050505070508080808020202020A0A08ED
:104470000804040404010101010101010103030313
:104480000303030303040707070C0C0C0C0C0C0CB0
:104490000C0202020206060606060606060B0B0BB7
:1044A0000B0B0B0B0B005EBCE2613FDD83C29C7EFD
:1044B00020A3FD1F419DC3217FFCA2401E5F01E39D
:1044C000BD3E6082DC237D9FC1421CFEA0E1BF5D3A
:1044D0000380DE3C62BEE0025CDF81633D7C22C083
:1044E0009E1D43A1FF4618FAA427799BC584DA389C
:1044F00066E5BB5907DB856739BAE406581947A555
:10450000FB7826C49A653BD987045AB8E6A7F91BFD
:1045100045C6987A24F8A6441A99C7257B3A64863A
:10452000D85B05E7B98CD2306EEDB3510F4E10F267
:10453000AC2F7193CD114FADF3702ECC92D38D6F04
:1045400031B2EC0E50AFF1134DCE90722C6D33D1D1
:104550008F0C52B0EE326C8ED0530DEFB1F0AE4CEA
:104560001291CF2D73CA947628ABF517490856B42B
:10457000EA6937D58B5709EBB536688AD495CB29CC
:1045800077F4AA4816E9B7550B88D6346A2B759785
:10459000C94A14F6A8742AC896154BA9F7B6E80AB2
:1045A00054D7896B351F1C1F1E1F1E1F1F1E1F1E69
:1045B0001F00002100240027002A002D00300033B6
:1045C0000001010000040107010A0100002000238E
:1045D00000260029002C002F0032000001000003FB
:1045E000010601090100000A0B02090C0D0E080763
:1045F00003040100000000000000000000000000B3
:1046000000000000000000000000000000000000AA
:104610000012111000000000000000000000000067
:10462000000000000000000000000000D171112413
:104630001FBECFEFD1E2DEBFCDBF00E00CBF15E063
:10464000A0E0B2E0E2E8FBEF00E00BBF02C00790A1
:104650000D92A63DB107D9F72BE0A6EDB5E001C05C
:104660001D92A83EB207E1F713E2C7E1D3E200E0F2
:1046700006C021970109802FFE010E94B07CC6313F
:10468000D10780E00807A9F70E94586A0C94BF7D03
:104690000C940000EF92FF920F931F93CF93DF9340
:1046A00000D000D0CDB7DEB781E08093750AE091ED
:1046B000870AF091880A90818091920A892B8083E1
:1046C00065E070E080E090E00E94855AE091870A02
:1046D000F091880A90818091920A80958923808345
:1046E0006FE070E080E090E00E94855AE091870AD8
:1046F000F091880A90818091920A892B80836FE0E3
:1047000070E080E090E00E94855AE091850AF09187
:10471000860A90818091910A809589238083809177
:104720007E0A90E08631910510F00C94D533FC019F
:104730008827EE58FF4F8F4F0C94B07C64EA70E0EE
:1047400086E40E949C6363E570E087E40E949C63BA
:1047500060E070E088E40E949C6364E470E089E4B7
:104760000E949C6364E070E08AE40E949C6367E6B8
:1047700070E08BE40E949C6363E370E08CE40E9431
:104780009C6367E770E08DE40E949C6362E170E0E7
:104790008EE40E949C636CE470E08FE40E949C6352
:1047A00066E470E080E50E949C6364E470E081E56B
:1047B0000E949C6360E070E082E00E949C6360E085
:1047C00070E083E00E949C6360E070E084E00E94FF
:1047D0009C636FEE70E085E00E949C6360E070E097
:1047E00086E00E949C6360E070E087E00E949C632A
:1047F00061E070E088E00E949C636FE370E089E014
:104800000E949C6366E070E081E00E949C6368EC1B
:1048100070E086E10E949C6365E970E083E20E949B
:104820009C6365E970E084E20E949C636FEF70E036
:1048300085E20E949C6362E070E087E20E949C63D4
:1048400062E070E088E20E949C6362E070E089E2CE
:104850000E949C6362E070E08AE20E949C6362E0D6
:1048600070E08CE20E949C6362E070E08DE20E9446
:104870009C6361E070E08AE30E949C6360E070E00A
:104880008BE30E949C6360EF70E08CE30E949C636A
:1048900060E070E08DE30E949C6361E070E080E086
:1048A00090E00E94855A68E370E085E30E949C6373
:1048B00068E770E086E30E949C6368E370E08EE343
:1048C0000E949C636FE070E080E40E949C6360EF54
:1048D00070E081E40E949C6369E470E089E10E94D9
:1048E0009C636FE070E083E90E949C6361E070E08C
:1048F00080E090E00E94855A60E470E080E20E94CF
:104900009C6367E070E08DE10E949C6360E070E072
:104910008EE10E949C6364E070E08FE10E949C63E2
:104920006DE470E084E40E949C636EE070E085E4D6
:104930000E949C6361E070E080E090E00E94855AF4
:1049400064E070E08CE10E949C6362E070E080E0D3
:1049500090E00E94855A68E170E08BE10E949C63C0
:1049600061E070E080E090E00E94855A60E170E0D4
:104970008BE10E949C6361E070E080E090E00E9427
:10498000855A60E870E083E40E949C6362E070E016
:1049900080E090E00E94855A6FE770E080E90E9415
:1049A0009C6364E070E086E20E949C6361E070E0DA
:1049B00080E090E00E94855A64E270E086E20E9406
:1049C0009C636CE270E086E20E949C6361E070E0B0
:1049D00080E090E00E94855A6CE370E086E20E94DD
:1049E0009C6362E070E087E50E949C6361E070E098
:1049F00085E90E949C6360E070E087E50C940D32CD
:104A000089EE0E94526360E280E00E947E6381E151
:104A10000E94526364E670E080E090E00E94855A54
:104A200081ED0E94526360E080E00E947E6361E756
:104A300080E00E947E6369E180E00E947E6380EDF9
:104A40000E94526367E080E00E947E6361E080E044
:104A50000E947E6368E080E00E947E6386E30E949D
:104A6000526368E480E00E947E638AE30E9452639E
:104A700065E080E00E947E6381EC0E94526360E109
:104A800080E00E947E6360E180E00E947E6362E0DD
:104A900080E00E947E6362E080E00E947E6380ECA2
:104AA0000E94526360E080E00E947E6365E380E0E4
:104AB0000E947E6360E080E00E947E6360E080E0B0
:104AC0000E947E6361E080E00E947E6362E080E09D
:104AD0000E947E6385EC0E94526364E080E00E9445
:104AE0007E6382ED0E94526361E080E00E947E63FB
:104AF00064E480E00E947E6388EC0E94526364E07C
:104B000080E00E947E6367E680E00E947E6365E34A
:104B100080E00E947E6364E080E00E947E6368E043
:104B200080E00E947E6366E080E00E947E6364E233
:104B300080E00E947E6361E080E00E947E6367E324
:104B400080E00E947E6360E480E00E947E6363E018
:104B500080E00E947E6360E180E00E947E6368E006
:104B600080E00E947E6360E880E00E947E6360E0F7
:104B700080E00E947E638AE20E94526360E080E0EF
:104B80000E947E6360E080E00E947E6360E080E0DF
:104B90000E947E636FEE80E00E947E638BE20E9443
:104BA000526360E080E00E947E6360E080E00E94EB
:104BB0007E6361E080E00E947E636FE880E00E9497
:104BC0007E6389E20E9452630C94363161E070E0AA
:104BD00080E00E949C6364EA78EA83E00E949C6320
:104BE00060E070E08CE00E949C636CE078E08DE017
:104BF0000E949C6360E07BE28EE00E949C6367EB16
:104C000070E08EE10E949C636FE37BE281E00E9492
:104C10009C6360E076E082E00E949C6360E070E06C
:104C200080E10E949C6360E770E681E10E949C63E2
:104C300060E070E085E00E949C6360E070E086E0E8
:104C40000E949C636CE17FEE86E10E949C6363E0BE
:104C500070E087E10E949C6363E372E087E00E945A
:104C60009C6360E070E08BE00E949C6360E070E019
:104C70008FE00E949C6360E070E081E40E949C638E
:104C800060E070E082E40E949C6360E070E088E491
:104C90000E949C636FE371E089E40E949C6360E082
:104CA00070E08AE40E949C6360E070E08BE40E9404
:104CB0009C6360E07FEE84E40E949C6360E070E0AF
:104CC00085E40E949C636FE371E086E40E949C632C
:104CD00067E077E080E30E949C6364E072E081E338
:104CE0000E949C6364E072E082E30E949C6362E045
:104CF00075E083E30E949C6367E075E084E30E94B3
:104D00009C6364E072E085E30E949C6364E072E06F
:104D100086E30E949C6362E075E087E30E949C63E7
:104D200062E073E08AE30E949C6362E073E08BE3DD
:104D30000E949C6360E070E083E20E949C6360E0FC
:104D400070E084E20E949C6360E070E885E20E946B
:104D50009C6360E070E08FE40E949C6360E070E020
:104D60008EE40C940D3260EF78E785EE0E949C6330
:104D700060E071E081E00E949C6360E077E082E0A7
:104D80000E949C6360E370E183E00E949C6360E0AA
:104D900070E084E00E949C6367E072E088E00E941B
:104DA0009C6360E070E089E00E949C6360E070E0DA
:104DB0008AE00E949C6360E070E08CE00E949C634B
:104DC00060E070E08DE00E949C6360E070E08FE046
:104DD0000E949C6360E070E080E10E949C6367E059
:104DE00070E081E10E949C6360E070E082E10E94DB
:104DF0009C6360E070E083E10E949C6361E070E08E
:104E000087E00E949C6368EC70E080E090E00E9484
:104E1000855A60E970E180E10E949C6367E272E07C
:104E200081E10E949C6362E370E080E090E00E9478
:104E3000855A6FE170E082E10E949C6362E370E05A
:104E400080E090E00E94855A60E075E183E10E9475
:104E50009C6367E270E089E20E949C636DE070E011
:104E60008BE20E949C6362E370E080E090E00E942D
:104E7000855A60E070E080E20E949C6360E070E030
:104E800081E20E949C6360E070E080E30E949C638A
:104E900067E077E081E30E949C6367E073E082E370
:104EA0000E949C6360E072E085E30E949C6368E07E
:104EB00070E086E30E949C6364E070E087E30E94F8
:104EC0009C6360E070E088E30E949C6367E077E0A9
:104ED00089E30E949C6362E070E08CE30E949C6323
:104EE00064E07DE18DE30E949C6360E070E080E51A
:104EF0000E949C636FEE70E081E50E949C6360E01D
:104F000070E082E50E949C636FE371E083E50E949C
:104F10009C6360E077EA80E60E949C6361E070E059
:104F200081E60E949C6360E070E08AE60E949C63D8
:104F300060E070E080E80E949C6360E070E081E8DF
:104F40000E949C6360E070E082E80E949C6360E0E5
:104F500070E083E80E949C6360E070E084E80E9457
:104F60009C6360E070E085E80E949C6360E170E013
:104F700080E90E949C6360E076E00AC160EF78E718
:104F800085EE0E949C6360E071E081E00E949C637A
:104F900060E072E082E00E949C6360E370E183E085
:104FA0000E949C6360E070E084E00E949C6367E084
:104FB00072E088E00E949C6360E070E089E00E94FB
:104FC0009C6360E070E08AE00E949C6360E070E0B7
:104FD0008CE00E949C6360E070E08DE00E949C6326
:104FE00060E070E08FE00E949C6360E070E080E130
:104FF0000E949C6367E070E081E10E949C6360E036
:1050000070E082E10E949C6360E070E083E10E94B6
:105010009C6361E070E087E00E949C6368EC70E054
:1050200080E090E00E94855A60E976E180E10E948C
:105030009C6367E272E081E10E949C6362E370E03E
:1050400080E090E00E94855A6DE070E082E10E946D
:105050009C6362E370E080E090E00E94855A60E02B
:1050600072E183E10E949C636AE070E089E20E9441
:105070009C636DE070E08BE20E949C6362E370E0F1
:1050800080E090E00E94855A60E070E080E20E943B
:105090009C6360E070E081E20E949C6360E070E0ED
:1050A00080E30E949C6364E074E081E30E949C635F
:1050B00063E070E082E30E949C6365E074E085E356
:1050C0000E949C6368E078E086E30E949C6367E04E
:1050D00074E087E30E949C6363E073E088E30E94CE
:1050E0009C6367E077E089E30E949C6364E075E07D
:1050F0008CE30E949C6368E078E08DE30E949C63EF
:1051000060E070E080E50E949C636FEE70E081E5F6
:105110000E949C6360E070E082E50E949C636FE304
:1051200071E083E50E949C6360E077EA80E60E947C
:105130009C6361E070E081E60E949C6360E070E047
:105140008AE60E949C6360E070E080E80E949C63B5
:1051500060E070E081E80E949C6360E070E082E8BB
:105160000E949C6360E070E083E80E949C6360E0C2
:1051700070E084E80E949C6360E070E085E80E9433
:105180009C6360E170E080E90E949C6360E070E0F5
:1051900082E90E949C6363E371E087E00E949C6364
:1051A0000C94D53364E870E086E20E949C6368E268
:1051B00070E080E090E00E94855A68EB70E086E243
:1051C0000E949C6368E270E080E090E00E94855A53
:1051D0006CEB70E086E20E949C6364E170E080E02A
:1051E00090E00E94855A60E070E080E60E949C6337
:1051F00066E070E081E60E949C6360E070E082E619
:105200000E949C6368EC70E083E60E949C6364E10A
:1052100070E080E090E00E94855A60E770E083E7EC
:105220000E949C6360E070E080E40E949C6360E404
:1052300070E081E40E949C6365E470E082E40E9477
:105240009C6361E070E083E40E949C6360E670E030
:1052500084E40E949C6365E070E085E40E949C63A6
:105260006CE070E086E40E949C6361ED70E087E48E
:105270000E949C6365E070E088E40E949C6365E79F
:1052800070E080E50E949C6361E070E081E50E942F
:105290009C6367E670E082E50E949C6364E170E0D5
:1052A00083E50E949C6362EF70E084E50E949C634A
:1052B00067E070E085E50E949C6363E070E086E54E
:1052C0000E949C6369E470E087E50E949C6364E14E
:1052D00070E080E090E00E94855A63E070E08FE12A
:1052E0000E949C6360E070E080E20E949C6364E244
:1052F00070E084E20E949C6364E370E085E20E94B7
:105300009C636FE270E083E20E949C6364E170E062
:1053100080E090E00E94855A64E470E088E10E9499
:105320009C6361E070E081E20E949C6360E070E059
:1053300081E00E949C6363E070E08CE10E949C63CA
:1053400066E070E089E10E949C6364E170E080E0C7
:1053500090E00E94855A64E870E086E20E949C63B7
:1053600068E270E080E090E00E94855A68EB70E0AF
:1053700086E20E949C6368E270E080E090E00E9418
:10538000855A6CEB70E086E20E949C6364E170E0F9
:1053900080E090E00E94855A60E070E082E00E9428
:1053A0009C6360E070E083E00E949C6360E070E0DA
:1053B00084E00E949C636FEA70E085E00E949C6339
:1053C00060E070E086E00E949C6360E070E087E04F
:1053D0000E949C6360E070E088E00E949C636BED3B
:1053E00070E089E00E949C6364E170E080E090E0FE
:1053F0000E94855A68E070E086E10E949C6365E047
:1054000070E087E10E949C6381E20E9452630C94E9
:105410000F3281EC0E9452638FEF0E94686383E831
:105420000E94686380E40E94686381E10E94526385
:1054300064E670E080E090E00E94855A8AEC0E9469
:10544000526380E70E94686380E00E94686389ED90
:105450000E94686381E00E94686381E10E94686342
:1054600089EC0E94526380E90E94686389E40E948B
:10547000686380E10E94686388E20E94686388E252
:105480000E94686380E10E94686380E00E94686314
:1054900086E00E94686364E170E080E090E00E9432
:1054A000855A82EC0E94526380E60E94686381E71D
:1054B0000E94686381E00E9468638EE00E946863D6
:1054C00085E00E94686382E00E94686389E00E9430
:1054D000686381E30E9468638AE00E94686383ECEA
:1054E0000E94526387E60E94686380E30E946863BB
:1054F00081E60E94686387E10E94686388E40E94F5
:10550000686387E00E94686385E00E94686383E3C4
:105510000E9468636AE070E080E090E00E94855A33
:1055200085EB0E94526385E30E94686380E20E94DB
:10553000686385E40E94686384EB0E94526383E39E
:105540000E94686385E20E9468638CE40E9468633D
:105550006AE070E080E090E00E94855A8AE30E9451
:10556000526385E00E94686389E20E9452636AE0A8
:1055700070E080E090E00E94855A8AE20E945263C7
:1055800080E00E94686380E00E94686380E00E947F
:1055900068638FEA0E9468638BE20E94526380E036
:1055A0000E94686380E00E94686380E00E946863F4
:1055B0008BED5AC681E10E9452636CE070E080E09E
:1055C00090E00E94855A81EB0E94526381E00E9424
:1055D00068638CE20E9468638DE20E94686382EBDC
:1055E0000E94526381E00E9468638CE20E946863BB
:1055F0008DE20E94686383EB0E94526381E00E9407
:1056000068638CE20E9468638DE20E94686381E0B7
:105610000E9468638CE20E9468638DE20E94686366
:1056200084EB0E94526387E00E94686380EC0E94D2
:10563000526382EA0E94686382E00E94686384E8A1
:105640000E94686381EC0E94526385EC0E9468634B
:1056500082EC0E9452638AE00E94686380E00E94AC
:10566000686383EC0E9452638AE80E9468638AE25E
:105670000E94686384EC0E9452638AE80E94686317
:105680008EEE0E94686385EC0E9452638EE00E9459
:10569000686386E30E94526388EC0E94686380EE30
:1056A0000E9452638FE00E9468638AE10E946863EF
:1056B0008FE00E94686388E10E9468638FE20E9425
:1056C000686388E20E94686380E20E94686382E205
:1056D0000E9468638FE10E9468638BE10E946863A7
:1056E00083E20E94686387E30E94686380E00E940F
:1056F000686387E00E94686382E00E94686380E1DB
:105700000E94686381EE0E9452638FE00E9468638A
:105710008BE10E9468638FE00E94686387E10E94CA
:10572000686383E30E9468638CE20E94686389E295
:105730000E9468638EE20E94686380E30E9468634F
:1057400080E30E94686389E30E9468638FE30E949C
:10575000686380E00E94686387E00E94686383E07A
:105760000E94686380E10E9468638AE20E9452633B
:1057700080E00E94686380E00E94686380E00E948D
:1057800068638FE70E9468638BE20E94526380E047
:105790000E94686380E00E94686380E00E94686302
:1057A0008FE90E94686380EF0E94526381E00E944B
:1057B000686386EF0E94526380E00E9468638AE318
:1057C0000E94526385E00E946863ECC781E00E94FA
:1057D000526385E20E94526380E40E94686381E123
:1057E0000E9452636AE070E080E090E00E94855A77
:1057F00080E20E94526388E30E94526389E20E9421
:10580000526383E10E94526386E30E94526380E602
:105810000E9468638AE30E94526385E00E94686385
:105820008AE20E94526380E00E9468638FE70E94D0
:10583000686384EB0E94526383E00E94686388E09F
:105840000E9468638BE00E9468638EE00E94686338
:105850008AEB0E94526387E00E9468638DE00E9499
:1058600068638BE20E94526380E00E9468638FE766
:10587000FBC481E10E94526383E10E94526389E28A
:105880000E94526380EB0E94526385E00E9468632D
:1058900080E00E94686380EF0E9468638AE00E9453
:1058A000686381E40E94686382E00E9468638AE022
:1058B0000E94686380E30E94686381E30E946863DA
:1058C00086E30E94686387E30E94686380E40E9425
:1058D000686382E00E9468638FE30E94686380E4EB
:1058E0000E94686382E00E94686381E80E946863A6
:1058F00084E00E94686385E00E94686384E60E94F9
:1059000068638CEF0E94526388E80E94686380E0BD
:105910000E94686380E10E94686381E00E9468637E
:1059200081E00E94686380E10E94686382E40E94D3
:10593000686382E40E94686382E20E94686381E196
:105940000E94686381E10E94686382E20E9468634A
:1059500089E90E9468638AEA0E9468638AEA0E9471
:1059600068638AEA0E9468638BEB0E9468638BEB32
:105970000E9468638AEA0E94686383E30E94686306
:1059800083E30E94686381E10E94686381E00E9472
:10599000686381E00E94686381E00E94686380E040
:1059A0000E94686380E00E94686380EC0E946863E4
:1059B00080E00E94686380E00E94686380E00E944B
:1059C000686380E00E9468638DEF0E94526388E8FC
:1059D0000E94686380E00E94686380E10E946863BF
:1059E00081E00E94686381E00E94686380E10E9418
:1059F000686382E40E94686382E40E94686382E2D2
:105A00000E94686381E10E94686381E10E9468638B
:105A100082E20E94686389E90E9468638AEA0E94C0
:105A200068638AEA0E9468638AEA0E9468638BEB73
:105A30000E9468638BEB0E9468638AEA0E94686335
:105A400083E30E94686383E30E94686381E10E94AC
:105A5000686381E00E94686381E00E94686381E07E
:105A60000E94686380E00E94686380E00E9468632F
:105A700080E00E94686380E00E94686380E00E948A
:105A8000686380E00E94686383E00E9468638EEB35
:105A90000E94526380E00E94686385E10E9468630F
:105AA00086E10E94686388E00E94686389E00E9442
:105AB000686385E10E94686380E10E94686380E01A
:105AC0000E94686380E00E94686380E00E946863CF
:105AD00080EC0E9452638EE00E94686381E00E9425
