:100000000C94FC0F0C9485E90C94B0E90C94DBE99A
:100010000C9406EA0C9431EA0C945CEA0C9487EA9E
:100020000C94B2EA0C942D100C942D100C942D10FD
:100030000C942D100C942D100C942D100C942D104C
:100040000C942D100C942D100C942D100C942D103C
:100050000C942D100C942D100C942D100C94DDEAA2
:100060000C942D100C9468EF0C949EEF0C942D10B2
:100070000C942D100C942D100C942D100C942D100C
:100080000C942D100C942D100C942D100C942D10FC
:100090000C9413F00C9449F00C942D100C94114412
:1000A0000C942D100C942D100C942D100C942D10DC
:1000B0000C942D100C942D100C942D100C942D10CC
:1000C0000C942D100C942D100C942D100C94BEF04B
:1000D0000C94F4F00C942D100C9469F10C949FF195
:1000E0000C942D10183B713B3C3B363B453B493B48
:1000F000663B034F064F094F0C4F0F4F124F154FE2
:10010000184F004FAE4F4E4F514F544F574F5E4F09
:10011000784F8E4F2151275095502351D9514A5134
:100120007151C253B053B353B653B953BC53BF53B9
:10013000ADAEB0AEB3AEB6AEB9AEBCAEBFAEC2AE93
:10014000C5AEC8AED1AEEAAED6B54EB56BB56BB5E1
:100150006BB575B575B575B587B56BB5AFB5BAB5D2
:100160006BB538E902E90AE916E923E944E951E9FE
:1001700075E96BE96DE96FE971E977E979E932ECE5
:1001800037EC3CEC46EC50ECC9EC5AEC62EC6AEC17
:1001900074EC7EEC88EC97ECA1ECC9ECABECB5EC24
:1001A000BFECEBECEEECDDECE1ECE7EC25EDF2EC9A
:1001B000F6ECFCEC00ED04ED0AED0EED12ED25ED94
:1001C00018ED1CED20ED5344005245414459000008
:1001D000202D200020002C20005245414459003E93
:1001E0000000E701E6010043545345543D4C4F4F96
:1001F000507C53447C5345547C3130307C377C50A8
:10020000494E7C367C54007C3C3E5E2B3D3F2F5B50
:100210005D3B2C2A225C00005EBCE2613FDD83C2B4
:100220009C7E20A3FD1F419DC3217FFCA2401E5F39
:1002300001E3BD3E6082DC237D9FC1421CFEA0E144
:10024000BF5D0380DE3C62BEE0025CDF81633D7C1B
:1002500022C09E1D43A1FF4618FAA427799BC5849E
:10026000DA3866E5BB5907DB856739BAE406581901
:1002700047A5FB7826C49A653BD987045AB8E6A7F8
:10028000F91B45C6987A24F8A6441A99C7257B3AE3
:100290006486D85B05E7B98CD2306EEDB3510F4E52
:1002A00010F2AC2F7193CD114FADF3702ECC92D3D1
:1002B0008D6F31B2EC0E50AFF1134DCE90722C6DAC
:1002C00033D18F0C52B0EE326C8ED0530DEFB1F0B3
:1002D000AE4C1291CF2D73CA947628ABF51749080E
:1002E00056B4EA6937D58B5709EBB536688AD49589
:1002F000CB2977F4AA4816E9B7550B88D6346A2B70
:100300007597C94A14F6A8742AC896154BA9F7B66A
:10031000E80A54D7896B35FFD0FFE0FFCFFF64FFB9
:10032000D1FF32380C060201FF64FFD0FFFE2564C6
:100330002C253032750042464C4F570041464C4FF9
:100340005700504800534F494C004C49474854000F
:1003500048554D49444954590054454D50005F009B
:1003600042464C4F570041464C4F570050480053AF
:100370004F494C004C494748540048554D49444961
:1003800054590054454D50005F0020D0BB0020D090
:10039000BBD18ED0BAD18100207048002500204307
:1003A00000303132333435363738394142434445F1
:1003B00046007C007C004F4646004F4E0052554C94
:1003C000455F535441544500504152414D535F4D98
:1003D00049535345440052554C455F53544154458D
:1003E000007C0043545345543D007C007C007C005D
:1003F00052554C455F5649455700504152414D5367
:100400005F4D49535345440052554C455F5649454D
:1004100057007C0052554C45535F434E5400525593
:100420004C45535F434E5400504152414D535F4D34
:100430004953534544007C007C0044454C45544599
:10044000440052554C455F44454C455445007C00A2
:100450007C0044454C455445440052554C455F444E
:10046000454C45544500414C4C00504152414D5380
:100470005F4D49535345440052554C455F44454CEC
:10048000455445007C007C0052554C455F53544117
:100490005445007C007C0052554C455F53544154F8
:1004A0004500414C4C0031004F4E00504152414DEF
:1004B000535F4D49535345440052554C455F535487
:1004C000415445005341564500534156450041446F
:1004D0004445440052554C455F414444005041520C
:1004E000414D535F4D4953534544004E4F545F5364
:1004F0005550504F5254454400554E4B4E4F574E59
:100500005F434F4D4D414E44004F4E0050494E0009
:1005100043430057494E444F577C414C4C7C434C1D
:100520004F53450057494E444F577C414C4C7C4FEC
:1005300050454E005354415445004F4E004C4947DE
:100540004854007C002C005F0025544325002554AE
:100550004F25003E3D003C3D003C003E0050480021
:10056000534F494C0050494E0048554D4944495459
:1005700059004C494748540054454D50002C005FE9
:10058000007C007C007C007C002554432500255421
:100590004F25007C003E3D003C3D003E003C007C81
:1005A000007C005F00504800534F494C0050494EBA
:1005B0000048554D4944495459004C494748540056
:1005C00054454D50007C007C004F4646007C004F57
:1005D0004E007C007C0045584543004F4646004F86
:1005E0004E0057494E444F577C414C4C7C434C4F36
:1005F00053450057494E444F577C414C4C7C4F501B
:10060000454E00504800534F494C0044454C54411E
:100610000048554D4944495459004343004C49470B
:1006200048540050494E0053544154450030003066
:1006300000504800534F494C0044454C5441004839
:10064000554D4944495459004343004C4947485487
:100650000050494E005354415445005345540047FF
:1006600045540043540000504152414D535F4D49A1
:1006700053534544004144444544004144440050E0
:100680004152414D535F4D49535345440041444409
:1006900045440045584543004144444544005341C6
:1006A00056450044454C455445440044454C005093
:1006B0004152414D535F4D4953534544004E4F54B1
:1006C0005F535550504F5254454400554E4B4E4F7A
:1006D000574E5F434F4D4D414E44004F4E007C00FE
:1006E00050494E7C004F4646007C0050494E7C00ED
:1006F0004C494748547C4F4E004C494748547C4F26
:1007000046460053544154457C57494E444F577C0C
:10071000414C4C7C4F50454E0053544154457C57FE
:10072000494E444F577C414C4C7C434C4F53450001
:100730007C004144444544007C0041444400554E03
:100740004B4E4F574E5F434F4D4D414E440050412D
:1007500052414D535F4D495353454400504152411E
:100760004D535F4D495353454400414444007C0080
:1007700041444445440044454C0044454C007C0001
:1007800041444445440053415645005341564500B9
:10079000504152414D535F4D4953534544007C00F5
:1007A0007C007C007C007C007C0056494557005052
:1007B0004152414D535F4D495353454400504152BE
:1007C000414D535F4D4953534544005649455700E9
:1007D0007C00434E5400434E5400504152414D530F
:1007E0005F4D495353454400554E4B4E4F574E5F56
:1007F000434F4D4D414E44007C007C004E4F545FB2
:10080000535550504F52544544007C007C00414C9D
:100810004C007C00434E5400434E54005041524122
:100820004D535F4D4953534544004E4F545F53550C
:1008300050504F52544544007C54007C307C504909
:100840004E7C007C5345547C004C4F4F507C003014
:10085000007C0050494E7C0000D0A2D0B7D0B0D070
:10086000BAD18000D0A2D0BED182D0BAD180004C03
:10087000494748547C4D4F44457C4D414E55414C71
:10088000004C494748547C4D4F44457C4155544F9A
:10089000004C494748547C4F4646004C4947485411
:1008A0007C4F4E00D0B0D0B2D182D0BE00D0B2D1F9
:1008B0008BD0BAD0BB00D0B2D0BAD0BB0057415415
:1008C00045527C4D4F44457C4D414E55414C00575F
:1008D000415445527C4D4F44457C4155544F00573F
:1008E000415445527C4F46460057415445527C4F37
:1008F0004E00D0B0D0B2D182D0BE00D0B2D18BD019
:10090000BAD0BB00D0B2D0BAD0BB00D0B0D0B2D138
:1009100082D0BE00D0B7D0B0D0BAD18000D0BED186
:1009200082D0BAD1800053544154457C4D4F444548
:100930007C4D414E55414C0053544154457C4D4FE4
:1009400044457C4155544F0053544154457C5749CC
:100950004E444F577C414C4C7C434C4F53450053C5
:10096000544154457C57494E444F577C414C4C7C34
:100970004F50454E00253032642E253032642E25EE
:100980006420253032643A25303264003CD0BDD03A
:10099000B5D18220D0B4D0B0D0BDD0BDD18BD1855F
:1009A0003E0000000000FC3F1428142814281428DE
:1009B0001428F42FE427242724272427F83F0000B5
:1009C000000000000000E0031004080808084809BF
:1009D00088089004A002A002E003E003C001000028
:1009E000000000000000800180018001C003E006DB
:1009F000E005F00DF00BF00DF00DE007C003000076
:100A0000000000000000FC3F042204220422043EF7
:100A1000042204220422042204220422FC3F0000B7
:100A2000000000000000C001C003E003C00100009E
:100A3000E003C003C003C003C003C0030000000004
:100A4000000000000000FC3FFC3F0C300C300C307C
:100A50000C300C300C300C300C30FC3FFC3F0000F4
:100A6000000000000040FC3FFC3F0C380C340C320E
:100A70002C33FC31CC30CC300C30FC3FFC3F000040
:100A8000000000000000C003F00F381C18180C30E4
:100A90000C300C300C301818381CF00FC00300005C
:100AA000000000000000C003F00F381C18188C3143
:100AB000CC33CC338C311818381CF00FC003000035
:100AC000000000060A00FE070199032B20FFFE0824
:100AD000FE07FE0000000605FF0107070602008072
:100AE000808080800080030303060104A0A0A0058D
:100AF00007070600005050F850F850500507070649
:100B000000002070A070287020050707060000482C
:100B1000A8502050A89005070706000040A0A0405C
:100B2000A89068010303060204808080030707067B
:100B300001002040808080402003070706010080DC
:100B40004020202040800505050600018850F8500F
:100B5000880505050600012020F820200303030670
:100B600001FF604080040101060103F00303030656
:100B700001FF40E04005070706000008081020407C
:100B800080800507070600002050888888502005CF
:100B900007070600002060A0202020F805070706B0
:100BA0000000708808304080F8050707060000F84C
:100BB00008103008887005070706000010305090B4
:100BC000F81010050707060000F880B0C808887004
:100BD000050707060000304080B0C8887005070789
:100BE000060000F808101020404005070706000026
:100BF00070888870888870050707060000708898DC
:100C0000680810600307070601FF40E0400040E06D
:100C1000400307070601FF40E040006040800407F2
:100C20000706010010204080402010050303060045
:100C300002F800F804070706010080402010204059
:100C40008005070706000070881020200020050797
:100C500007060000708898A8B08070050707060096
:100C60000020508888F88888050707060000F048AB
:100C700048704848F00507070600007088808080AB
:100C80008870050707060000F04848484848F00506
:100C90000707060000F88080F08080F80507070647
:100CA0000000F88080F08080800507070600007053
:100CB000888080988870050707060000888888F873
:100CC000888888030707060100E04040404040E074
:100CD0000507070600003810101010906005070780
:100CE0000600008890A0C0A09088050707060000B5
:100CF000808080808080F80507070600008888D8FB
:100D0000A88888880507070600008888C8A89888EA
:100D1000880507070600007088888888887005079E
:100D200007060000F08888F080808005080806002B
:100D3000FF7088888888A87008050707060000F0FB
:100D40008888F0A0908805070706000070888070EA
:100D5000088870050707060000F8202020202020C2
:100D600005070706000088888888888870050707B7
:100D700006000088888850505020050707060000AC
:100D8000888888A8A8D888050707060000888850A2
:100D900020508888050707060000888850202020FA
:100DA00020050707060000F80810204080F8030718
:100DB00007060100E08080808080E00507070600CC
:100DC0000080804020100808030707060100E0208B
:100DD00020202020E00503030600042050880501A0
:100DE000010600FFF8020202060206804005050522
:100DF00006000070087888780507070600008080E4
:100E0000B0C888C8B00505050600007088808870E5
:100E10000507070600000808689888986805050512
:100E20000600007088F8807005070706000030484B
:100E300040F04040400507070600FE7888887808A3
:100E400088700507070600008080B0C8888888037E
:100E500007070601004000C0404040E004090906C1
:100E600001FE10003010101090906005070706007A
:100E70000080808890E09088030707060100C0404A
:100E800040404040E0050505060000D0A8A8A8881D
:100E9000050505060000B0C8888888050505060018
:100EA0000070888888700507070600FEB0C888C8EB
:100EB000B080800507070600FE68988898680808D3
:100EC000050505060000B0C8808080050505060000
:100ED0000070807008F00507070600004040F040F1
:100EE0004048300505050600008888889868050593
:100EF000050600008888505020050505060000887A
:100F000088A8A850050505060000885020508805CF
:100F100007070600FE88889868088870050505069A
:100F20000000F8102040F8040707060100304020B8
:100F3000C02040300107070602008080808080804A
:100F400080040707060100C02040304020C0050390
:100F50000306000448A890FF0507070600FEB0C876
:100F600088C8B080800505050600007088808870FC
:100F7000050505060000F8202020200507070600CB
:100F8000FE888888780888700509090600FE2020F8
:100F900070A8A8A87020200505050600008850202C
:100FA00050880507070600FE90909090F808080505
:100FB0000505060000888878080805050506000074
:100FC000A8A8A8A8F80507070600FEA8A8A8A8F8DA
:100FD0000808050505060000C040704870050505B5
:100FE0000600008888E898E804050506010080806E
:100FF000E090E0050505060000708838887005055A
:101000000506000090A8E8A89005050506000078F0
:101010008878888805070706000020508888F888A7
:1010200088050707060000F08080F08888F0050733
:1010300007060000F08888F08888F005070706009A
:1010400000F88080808080800508080600FF18284E
:1010500028484848F888050707060000F88080F00F
:101060008080F8050707060000A8A8A870A8A8A80F
:101070000507070600007088083008887005070714
:10108000060000888898A8C8888805080806000017
:1010900050208898A8C8888805070706000088900F
:1010A000A0C0A090880507070600003848484848B7
:1010B00048880507070600008888D8A8888888051A
:1010C0000707060000888888F888888805070706CB
:1010D000000070888888888870050707060000F877
:1010E000888888888888050707060000F08888F0C7
:1010F00080808005070706000070888080808870E7
:10110000050707060000F8202020202020050707FB
:1011100006000088888850204080050707060000E8
:101120002070A8A8A870200507070600008888502E
:10113000205088880509090600FE909090909090B4
:10114000F808080507070600008888887808080856
:10115000050707060000A8A8A8A8A8A8F805090977
:101160000600FEA8A8A8A8A8A8F80808050707066A
:101170000000C0404070484870050707060000881E
:101180008888E89898E8040707060100808080E0D6
:101190009090E005070706000070880838088870FE
:1011A00005070706000090A8A8E8A8A8900507076B
:1011B000060000788888782848880505050600001C
:1011C000700878887805070706000078807088889E
:1011D0008870050505060000F088F088F004050514
:1011E000060100F0808080800506060600FF305072
:1011F0005050F8880505050600007088F8807005D5
:101200000505060000A8A870A8A8050505060000A9
:1012100070883088700505050600008898A8C88881
:1012200005070706000050208898A8C8880505050E
:101230000600008890E09088050505060000384803
:1012400048488805050506000088D8A8888805054F
:10125000050600008888F8888805050506000070E6
:1012600088888870050505060000F888888888FF4A
:10127000FFFFFFFFFFFFFFFFFFFFFFFFFFFFFFFF7E
:10128000FFFFFFFFFFFFFFFFFFFFFFFFFFFFFFFF6E
:10129000FFFFFFFFFFFFFFFFFFFFFFFFFFFFFFFF5E
:1012A000FFFFFFFFFFFFFFFFFFFFFFFFFFFFFF55F8
:1012B0004E4B4E4F574E5F434F4D4D414E440050A5
:1012C0004152414D535F4D495353454400454E44AF
:1012D0005F4F465F46494C4500464F4C4C4F5700C8
:1012E0003D004F4B002F00616374696F6E730041C6
:1012F0004354494F4E00504152414D535F4D495365
:1013000053454400454E445F4F465F46494C4500B7
:10131000464F4C4C4F57003D004F4B002F006C6F19
:1013200067730046494C45004E4F545F535550502B
:101330004F5254454400554E4B4E4F574E5F434F0E
:101340004D4D414E44002C003B00220022005048ED
:1013500000534D00574600524C0052480052540072
:1013600030003A0030002F006C6F6773002E4C4F36
:1013700047003000300030003A0030002F00616339
:1013800074696F6E73002E4C4F4700300030000DB3
:101390000A002C004144444544007C00005345545D
:1013A00000554E4B4E4F574E5F4D4F44554C4500E8
:1013B000504152414D535F4D4953534544007C00C9
:1013C0004F4646004F4E007C004D414E55414C006B
:1013D0004155544F005354415445005354415445D2
:1013E000007C004D414E55414C004155544F004D3D
:1013F0004F4445004D4F4445007C007C007C004D2F
:10140000414E55414C004155544F004D4F4445000D
:101410004155544F004D414E55414C004D4F4445B0
:10142000004F4646004F4646004F4E004F4E00507C
:101430004152414D535F4D495353454400554E4B26
:101440004E4F574E5F434F4D4D414E44004C580058
:1014500000554E4B4E4F574E5F4D4F44554C450037
:101460007C003D004552004F4B002B0046000046DB
:10147000004430004600002B000A003800300031E4
:1014800000303000303030313030003931002B0046
:101490000046003031323334353637383941424333
:1014A000444546002C007C004F4646004F4E0054F9
:1014B000004F4E003100444554414348007C004FEA
:1014C0004646004F4E00504152414D535F4D4953E7
:1014D00053454400414444454400534F494C004C5B
:1014E000494748540048554D4944495459005354BC
:1014F00041544500534F494C004C4947485400481B
:10150000554D49444954590054454D50005041529D
:10151000414D535F4D4953534544004144440041BC
:101520004444454400534156450044454C455445C8
:10153000440044454C007C00534F494C004C494703
:1015400048540048554D4944495459005354415456
:1015500045007C00534F494C004C494748540048D3
:10156000554D49444954590054454D50007C007C28
:10157000005649455700504152414D535F4D495324
:1015800053454400504152414D535F4D49535345DB
:10159000440056494557007C00434E5400434E5486
:1015A00000554E4B4E4F574E5F434F4D4D414E44AD
:1015B000003132333435363738005445504C4943C6
:1015C0004100000000000000554E4B4E4F574E5F4B
:1015D000434F4D4D414E44007C004144444544003E
:1015E00053544154005354415400504152414D53BF
:1015F0005F4D495353454400554E4B4E4F574E5F38
:10160000434F4D4D414E44004E4F545F5355505043
:101610004F52544544004144444544002E736D7379
:10162000002F00736D7300504152414D535F4D497F
:10163000535345440041444400504152414D535F8F
:101640004D49535345440041542B434D47533D00AE
:10165000D0B2D0BAD0BB00D0B2D18BD0BAD0BB0000
:101660004F464600D09FD0BED0BBD0B8D0B23A20B3
:10167000005741544552000D0A00D0B7D0B0D0BA3F
:10168000D18000D0BED182D0BAD180004F50454E1B
:1016900000D09ED0BAD0BDD0B03A200053544154AF
:1016A000457C57494E444F577C30000D0A003CD0D2
:1016B000BDD0B5D18220D0B4D0B0D0BDD0BDD18BFB
:1016C000D1853E00D0A2D0BDD0B0D1803A20000D4F
:1016D0000A003CD0BDD0B5D18220D0B4D0B0D0BDAE
:1016E000D0BDD18BD1853E00D0A2D0B2D0BD3A20A2
:1016F00000535441544500434C4F534544004F5010
:10170000454E494E47004F50454E007C00535441D2
:1017100054457C57494E444F577C414C4C004154F2
:101720002B434D47443D312C340041544800415433
:101730002B435245473F0041542B434E4D493D32C8
:101740002C320041542B435343533D2255435332D3
:10175000220041542B434D47463D300041542B431A
:101760004C49503D310041542B435343423D3000DE
:10177000415445300041542B43504153000D0A0061
:101780002B004F4B002E736D73002F00736D730091
:1017900023390057415445527C4F464600233600BA
:1017A00057415445527C4F4E002334004C49474822
:1017B000547C4D4F44457C4155544F00574154454E
:1017C000527C4D4F44457C4155544F005354415435
:1017D000457C4D4F44457C4155544F0023380053C0
:1017E000544154457C57494E444F577C414C4C7CA6
:1017F000434C4F53450023300053544154457C57CC
:10180000494E444F577C414C4C7C4F50454E002331
:1018100031002B434D543A002B434C49503A002B96
:10182000435245473A20302C31002B435041533A24
:10183000203000534D53207265616479005042524C
:1018400045414459004552524F52004F4B007C00D5
:101850004E4F545F535550504F52544544007C00F6
:10186000434E5400434E54007C00414C4C005041C8
:1018700052414D535F4D4953534544004E4F545FC1
:10188000535550504F5254454400200020004441CD
:10189000544554494D45007C00555054494D450030
:1018A000555054494D45007C004652454552414DE6
:1018B000004652454552414D00504152414D535F03
:1018C0004D4953534544004E4F545F535550504F6C
:1018D0005254454400554E4B4E4F574E5F434F4D6B
:1018E0004D414E44007C007C00545F5345545400ED
:1018F000545F53455454007C00494E544552564160
:101900004C00494E54455256414C007C004D414ECE
:1019100055414C004155544F004D4F4445004D4FEB
:101920004445007C007C0057494E444F5700434CCF
:101930004F534544004F50454E00434C4F53494E82
:1019400047004F50454E494E47004E4F545F535548
:1019500050504F52544544007C007C007C0053544E
:101960004154454D41534B0057494E444F57005346
:10197000544154454D41534B007C0057494E444F10
:10198000575F434E540057494E444F575F434E54A0
:101990000057494E444F57007C007C0054454D5041
:1019A000004E4F545F535550504F52544544007CA5
:1019B0000054454D5000414C4C007C0054454D5066
:1019C0005F434E540054454D505F434E54005445C0
:1019D0004D50007C00414444454400494E5445521A
:1019E00056414C00494E54455256414C007C004DE6
:1019F0004F4445004D414E55414C007C004D4F44F5
:101A000045004155544F004D4F4445007C00414432
:101A100044454400545F5345545400545F53455467
:101A20005400434C4F534544004F50454E00434CE7
:101A30004F53494E47004F50454E494E4700434C87
:101A40004F53494E47004F50454E494E47007C008A
:101A50007C00434C4F534544004F50454E00434C8F
:101A60004F53494E47004F50454E494E4700434C57
:101A70004F53494E47004F50454E494E4700414C49
:101A80004C004F50454E0057494E444F570050416F
:101A900052414D535F4D495353454400534D00410E
:101AA0004444454400504152414D535F4D495353C6
:101AB0004544007C007C007C007C00504800534F73
:101AC000494C004C494748540048554D49444954F5
:101AD00059005354415445004C494748547C4D4F9C
:101AE00044457C4D414E55414C004C494748547C3F
:101AF0004D4F44457C4155544F004C494748547C18
:101B00004F4646004C494748547C4F4E005741547D
:101B100045527C4D4F44457C4D414E55414C0057FC
:101B2000415445527C4D4F44457C4155544F0057DC
:101B3000415445527C4F46460057415445527C4FD4
:101B40004E0053544154457C4D4F44457C4D414ECD
:101B500055414C0053544154457C4D4F44457C41C4
:101B600055544F0053544154457C57494E444F57A8
:101B70007C414C4C7C4F50454E0053544154457C65
:101B800057494E444F577C414C4C7C434C4F534536
:101B9000007C007C00545F5345545400545F53450F
:101BA000545400504152414D535F4D4953534544A5
:101BB0000041444445440052535400414444454488
:101BC00000504152414D535F4D49535345440054D9
:101BD0005F5345545400504152414D535F4D49535A
:101BE00053454400554E4B4E4F574E5F434F4D4D5E
:101BF000414E4400554E4B4E4F574E5F434F4D4D57
:101C0000414E44007C007C007C007C0043485F53D4
:101C10004554540043485F53455454007C004D41A3
:101C20004E55414C004155544F004D4F4445004DD9
:101C30004F4445007C004348414E4E454C530043C1
:101C400048414E4E454C53007C007C007C007C009B
:101C50007C00545F5345545400545F534554540022
:101C60007C004D414E55414C004155544F004F466C
:101C700046004F4E004F4646004F4646004F4E002E
:101C80004F4E007C004D4F4445004155544F004D90
:101C90004F444500504152414D535F4D49535345C8
:101CA0004400554E4B4E4F574E5F434F4D4D414EA6
:101CB00044007C007C0041444445440043485F5359
:101CC0004554540043485F534554540050415241D9
:101CD0004D535F4D4953534544007C0041444445B6
:101CE0004400545F5345545400545F5345545400CA
:101CF000504152414D535F4D495353454400554E59
:101D00004B4E4F574E5F434F4D4D414E44004F4653
:101D100046004F4E004F4E00574D00004144444591
:101D200044003A003A002E002E0020004441544561
:101D300054494D45007C0041444445440049440019
:101D4000494400555F4E4F4E450053435241544362
:101D5000485F545950455F4552524F5200414444E8
:101D6000454400555F524547007C0041444445448A
:101D7000005246005246007C004144444544005015
:101D8000484F4E450050484F4E450041444445445D
:101D9000004C494748547C4D4F44457C4155544F75
:101DA0000057415445527C4D4F44457C4155544F5A
:101DB0000053544154457C4D4F44457C4155544F4C
:101DC000004155544F0052535400504152414D531D
:101DD0005F4D495353454400504152414D535F4D6F
:101DE0004953534544007C00004C495354000D0AAC
:101DF000003D004F4B0053544154007C0050484F6D
:101E00004E450050484F4E45007C007C007C007CD5
:101E1000007C00554E4900554E49007C007C007CFA
:101E2000007C007C005749524544005749524544C4
:101E3000007C00494400494400555F4E4F4E450028
:101E4000555F534541524348007C007C007C005064
:101E5000494E530050494E53007C005246005246B2
:101E600000504F4E470050494E4700504152414D9F
:101E7000535F4D4953534544004E4F545F535550A3
:101E8000504F5254454400554E4B4E4F574E5F43B2
:101E90004F4D4D414E440000000A0B02090C0D0E3F
:101EA000080703040100000000000000000000001B
:101EB0000000000000000000000000000000000022
:101EC00000000012111000000000000000000000DF
:101ED00000000000000000000000000000010210EF
:101EE0002020080810204010204080020102010834
:101EF00004020101020408102040808040201008E4
:101F0000040201800402018040201008040201083C
:101F1000040201010204081020408001020408109C
:101F2000204080050505050705080808080202028B
:101F3000020A0A0808040404040101010101010164
:101F4000010303030303030303040707070C0C0C3B
:101F50000C0C0C0C0C020202020606060606060613
:101F6000060B0B0B0B0B0B0B0B00002000230026AA
:101F70000029002C002F00320000010000030106A0
:101F800001090100002200250028002B002E00314D
:101F900000340002010000050108010B01000021CE
:101FA00000240027002A002D00300033000101002A
:101FB00000040107010A01005C12641A761DFC2965
:101FC000472AED2CBA2ED62F20322843684E67724E
:101FD0004D7626828E82A286F894929EAFD1E2E858
:101FE000D0EF7BF026F1D1F16CF2DA1450763A8220
:101FF0009E82AE86FE94ECD111241FBECFEFD1E2BB
:10200000DEBFCDBF00E00CBF16E0A0E0B2E0E2E72B
:10201000F8E002E00BBF02C007900D92AA34B107AE
:10202000D9F723E1AAE4B6E001C01D92A330B207BC
:10203000E1F71FE1CAEEDFE100E006C022970109E7
:10204000FE010BBF0E9418FDC83BD10780E00807C6
:10205000A9F70E947CF20D9428040C94000022EB56
:1020600032E0FC0131832083818592850C94B4FD9C
:10207000CF93DF93EC0109960E9442F4CE010396C0
:10208000DF91CF910C9442F4CF92DF92EF92FF92C6
:102090000F931F93CF93DF938C017B016AE376E06C
:1020A0000E94ADF4C7010E94E7FF6C01C0E0D0E0E0
:1020B000CC15DD054CF4F701EC0FFD1F6491C80150
:1020C0000E94BAF62196F4CFC801DF91CF911F91FB
:1020D0000F91FF90EF90DF90CF9008950F931F9393
:1020E000CF93DF93CDB7DEB766970FB6F894DEBF18
:1020F0000FBECDBF02EE11E0F80165917491CE01E3
:102100004196C2DF8D899E89892B21F1CE010196EE
:102110000E94B362AE014F5F5F4FBE016F5E7F4FA3
:1021200088EC99E00E946363882349F040E050E026
:10213000BE016F5F7F4F8EE799E00E945294CE01FF
:1021400001960E94C562CE0141960E9442F40E5F44
:102150001F4FD2CFCE0141960E9442F466960FB631
:10216000F894DEBF0FBECDBFDF91CF911F910F91CD
:102170000895CF93DF93CDB7DEB72F970FB6F894BE
:10218000DEBF0FBECDBF26E040E051EE60E070E064
:1021900084E890E10E9406EF20E040E060E087E301
:1021A0009EE00E94DE4520E041E061E087E39EE0A2
:1021B0000E94DE458EE799E00E94159388EC99E035
:1021C00090938509809384096DE679E08EE799E024
:1021D0000E948C936CE579E08EE799E00E948C93E5
:1021E0006DE479E08EE799E00E948C936BEC78E0E7
:1021F0008EE799E00E948C9364E670E084E898E0B2
:102200000E9473F46AE878E08EE799E00E948C936C
:102210006DE278E08EE799E00E948C9363E078E0CD
:102220008EE799E00E948C9367EE77E08EE799E065
:102230000E948C936CE777E08EE799E00E948C9384
:102240006CE677E08EE799E00E948C9365E477E096
:102250008EE799E00E948C9364E377E08EE799E043
:102260000E948C9367E277E08EE799E00E948C935E
:102270006BE077E08EE799E00E948C9360EC76E06B
:102280008EE799E00E948C9364E977E08EE799E00D
:102290000E948C9384E997E09093C6098093C509C6
:1022A00065EA76E08EE799E00E948C936DE476E033
:1022B0008EE799E00E948C938EE799E00E9400934C
:1022C0000DDF69ED71E084E890E10E94B8F28EE7DD
:1022D00099E00E94FD92CE010F960E940B71298316
:1022E0003A834B835C836D837E838F83988766ED0F
:1022F00071E084E890E10E94B8F2BE016F5F7F4F09
:10230000CE010F960E945F6FBC0184E890E10E94AD
:10231000E9F264ED71E084E890E10E94B8F2BE0158
:102320006F5F7F4FCE010F960E94AF6FBC0184E8B4
:1023300090E10E94E9F260ED71E084E890E10E9492
:10234000B8F2BE016F5F7F4FCE010F960E946A6F99
:10235000BC0184E890E10E94E9F26FEC71E084E84E
:1023600090E10E94F6F269EC71E0CE0109960E94BC
:1023700072F6AE01475F5F4F64E977E08EE799E060
:102380000E944A93CE0109960E9442F42F960FB6FE
:10239000F894DEBF0FBECDBFDF91CF9108950F93AC
:1023A0001F93CF93DF93CDB7DEB760970FB6F89446
:1023B000DEBF0FBECDBF0E9427EB2091D109309127
:1023C000D2098B01021B130B6093D1097093D209C0
:1023D0008093D3099093D40980914B0690914C0639
:1023E000800F911F90934C0680934B06813D974040
:1023F000F8F080914A0681111BC081E080934A0663
:1024000066EC71E0CE0101960E9472F6AE014F5F5C
:102410005F4F66E080EB96E00E94ED75CE0101967D
:102420000E9442F468E873E180EB96E00E944276F5
:1024300080EB96E00E94727589EC99E00E940F6231
:10244000882341F1CE0101960E94B362AE014F5F35
:102450005F4F6BEC79E088EC99E00E94636388231E
:1024600079F08091C9099091CA099A83898340E0E3
:1024700050E0BE016F5F7F4F8EE799E00E9452945B
:102480006AE376E08BEC99E00E944AF5CE01019672
:102490000E94C56244E456E1B8018EE799E00E94CB
:1024A000B79460960FB6F894DEBF0FBECDBFDF9134
:1024B000CF911F910F910895CF93DF9364E870E15E
:1024C00089EC99E00E94076288EC99E00E94D3624F
:1024D0008EE799E00E94D992C2EBD2E0D0936E09C8
:1024E000C0936D098BE592E09093700980936F091A
:1024F00081E799E00E94CD4C83E795E090936E09C7
:1025000080936D09109279091092780910927B09D5
:1025100010927A0910927D0910927C09D0935D097E
:10252000C0935C098FE592E090935F0980935E0908
:1025300080E699E00E94CD4C82EF94E090935D0993
:1025400080935C09109268091092670910926A09D9
:102550001092690910926C0910926B09D0934E0980
:10256000C0934D0984E692E09093500980934F09FF
:1025700081E599E00E94CD4C81EC95E090934E0965
:1025800080934D09D093CC08C093CB0889E692E0A4
:102590009093CE088093CD088FEC98E00E94CD4CAC
:1025A0008DEC95E09093CC088093CB08E8EDF8E0B3
:1025B000ABEEB8E01082118212821382148215826F
:1025C00016821782ED012B971882118612861386C8
:1025D0001486158616861786108A2A9618821C92EB
:1025E000219718827696569689E0E033F80711F71E
:1025F00087E399E00E945C7510924709C2EBD2E034
:10260000D0938B08C0938A088FE692E090938D0850
:1026100080938C088EE898E00E94CD4C1092980828
:102620001092970888EE93E0A0E0B0E080939908BC
:1026300090939A08A0939B08B0939C0881E995E039
:1026400090938B0880938A0885EA95E0909396088A
:10265000809395081092A5081092A4081092A708DC
:102660001092A6081092A9081092A8086AE376E0D2
:102670008AEA98E00E94ADF46AE376E080EB98E0A5
:102680000E94ADF46AE376E087EB98E00E94ADF437
:102690006AE376E084EC98E00E94ADF46AE376E0C9
:1026A00084E898E00E94ADF4D0932E08C0932D08E2
:1026B00083E792E09093300880932F0881E398E0BD
:1026C0000E94CD4C8BE096E090932E0880932D08CD
:1026D00083E798E00E945C75D0930408C0930308D8
:1026E00089E792E0909306088093050887E098E0D8
:1026F0000E94CD4C8CEF94E09093040880930308E3
:1027000080E198E00E945C7580E298E00E94499127
:1027100084E298E00E94499186EA92E090932C0826
:1027200080932B08D093E807C093E7078FE792E0E8
:102730009093EA078093E9078BEE97E00E94CD4CD7
:102740008EEC93E09093E8078093E70782EF97E0A1
:102750000E942E6D87EF97E00E9446AC80E091E0EA
:102760009093020880930108D0939507C093940733
:1027700088E892E0909397078093960788E997E01E
:102780000E94CD4C88EE94E0909395078093940737
:1027900083EA97E00E945E6F86EA97E037D381EC88
:1027A00097E034D36AE376E08CED97E00E94ADF4D5
:1027B000D0937D07C0937C078CE892E090937F07CD
:1027C00080937E0780E897E00E94CD4C8AE793E0F3
:1027D00090937D0780937C078CE693E090938B0722
:1027E00080938A0710928D0710928C0710928F07A2
:1027F00010928E071092910710929007D0936D0758
:10280000C0936C0782E992E090936F0780936E0704
:1028100080E797E00E94CD4C8EED94E090936D0799
:1028200080936C07D0934607C093450786E992E0F2
:10283000909348078093470789E497E00E94CD4C26
:1028400081E096E09093460780934507D093350743
:10285000C09334078BE992E0909337078093360753
:1028600088E397E00E94CD4C80E793E09093350792
:10287000809334071092400710923F07109242074E
:10288000109241071092440710924307D0932807F3
:10289000C09327078EE992E090932A078093290737
:1028A0008BE297E00E94CD4C85EB95E09093280752
:1028B000809327078DE895E2909333078093320742
:1028C000D0930C07C0930B0783EA92E090930E0716
:1028D00080930D078FE097E00E94CD4C8DE795E047
:1028E00090930C0780930B0789E895E09093170766
:1028F0008093160710922107109220071092230749
:102900001092220710922507109224071092260792
:10291000109219071092180710921B0710921A07AD
:1029200010921D0710921C0710921F0710921E078D
:10293000D093C106C093C00688EA92E09093C30684
:102940008093C20684EC96E00E94CD4C87ED95E022
:102950009093C1068093C0068BEC96E00E9421C440
:102960008BED96E00E9421C48BEE96E00E9421C47C
:102970008BEF96E00E9421C480EB96E00E945C758C
:10298000D093A606C093A5068CEA92E09093A80681
:102990008093A70689EA96E00E94CD4C8CE196E0F0
:1029A0009093A6068093A5068DE496E0DF91CF91E3
:1029B0000C94095586E693E090934E0680934D065D
:1029C00080916206909163060E94B4FD80915C063E
:1029D00090915D060E94B4FD8DE496E040DB8CE1B1
:1029E00096E09093A6068093A50685EA96E037DBED
:1029F00080EB96E03DDB87ED95E09093C1068093F8
:102A0000C00680EC96E02BDB8DE795E090930C07F9
:102A100080930B0789E895E090931707809316073A
:102A200080912407909125070E94B4FD8BE097E0E8
:102A300016DB85EB95E0909328078093270787E2C4
:102A400097E00DDB80E793E09093350780933407A0
:102A500080914307909144070E94B4FD84E397E07E
:102A6000FEDA81E096E0909346078093450785E47F
:102A700097E0F5DA8EED94E090936D0780936C0704
:102A80008CE697E0ECDA8AE793E090937D078093F9
:102A90007C0780919007909191070E94B4FD8CE78C
:102AA00097E0DDDA88EE94E09093950780939407A1
:102AB0008CED97E00E9442F484E997E0D0DA8EEC46
:102AC00093E09093E8078093E70787EE97E0C7DAF3
:102AD0008CEF94E0909304088093030880E198E0E1
:102AE000C7DA83E098E0BBDA8BE096E090932E089B
:102AF00080932D0883E798E0BBDA8DE298E0AFDAA7
:102B000084E898E00E9442F481E995E090938B0874
:102B100080938A0885EA95E09093960880939508BB
:102B200084EC98E00E9442F487EB98E00E9442F423
:102B300080EB98E00E9442F48AEA98E00E9442F416
:102B40008091A8089091A9080E94B4FD8AE898E0B5
:102B500086DA8DEC95E09093CC088093CB0887E3E0
:102B600099E086DA8BEC98E07ADA81EC95E0909344
:102B70004E0980934D098DE499E071DA82EF94E07B
:102B800090935D0980935C0980916B0990916C0929
:102B90000E94B4FD8CE599E062DA83E795E09093BA
:102BA0006E0980936D0980917C0990917D090E9446
:102BB000B4FD8DE699E053DA8CEB99E00E9442F483
:102BC00086EB99E00E9442F480EB99E00E9442F487
:102BD0008AEA99E00E9442F48DE899E00E9442F46A
:102BE00080918209909183090E94B4FD8BEC99E059
:102BF0000C9442F4CF93DF9300D000D0CDB7DEB772
:102C000081E291E10E94FAED892BA9F181E291E143
:102C10000E9413EE8D30A1F38A3069F464E878E005
:102C20008AE898E00E94FBB461EE71E084E898E0E5
:102C30000E9452F6E5CF9091CA089923B1F08E33E5
:102C4000A1F41092CA086FED71E0CE0101960E94C6
:102C500072F6BE016F5F7F4F8AE898E00E94FBB476
:102C6000CE0101960E9442F4CBCF682F84E898E011
:102C70000E94BAF6C5CF26960FB6F894DEBF0FBEF7
:102C8000CDBFDF91CF910895B5CFB4DF89E49FE048
:102C90000C941872CF93DF931F92CDB7DEB7698380
:102CA000DC01ED91FC910280F381E02D41E050E0E8
:102CB000BE016F5F7F4F19950F90DF91CF910895FF
:102CC000CF93DF93EC01898D9A8D009759F0FC0129
:102CD000138212820E94B623E98DFA8D22813381FC
:102CE000232B31F081E090E09B838A8380E090E0A9
:102CF000DF91CF910895FC01818D928D009711F0A5
:102D00000C948E200895CF93DF931F92CDB7DEB73A
:102D100041E050E0BE016F5F7F4F0E94A41E01970B
:102D200019F4898190E002C08FEF9FEF0F90DF913F
:102D3000CF910895FC01818D928D009709F0E3CF2A
:102D40008FEF9FEF08950F931F93CF93DF938C0125
:102D5000FC01818D928D0097B1F0D5DFEC018F3FA2
:102D6000FFEF9F0799F0F801818D928DFC0142855C
:102D700053856485758541505109610971090E9427
:102D8000F31FCE0105C080E090E002C08FEF9FEFFF
:102D9000DF91CF911F910F910895CF92DF92EF9223
:102DA000FF920F931F93CF93DF93EC017B016A0196
:102DB0001B821A8208EE13E020E030E00C831D83B2
:102DC0002E833F838CEB92E0998388838DE190E0A2
:102DD0000E941CFD9A8F898F009779F02DE1F701F1
:102DE000DC0101900D922A95E1F74CE050E0B6012C
:102DF000CE010C960F947A00188EDF91CF911F911F
:102E00000F91FF90EF90DF90CF900895FC01138217
:102E1000128248EE53E060E070E04483558366839D
:102E200077838CEB92E091838083128E118E1486CF
:102E300008950C960895FC01818D928D009709F0FC
:102E400083C780E090E00895DC015996ED91FC91F4
:102E50005A97309729F06285738584859585089502
:102E60006FEF7FEFCB010895DC015996ED91FC9156
:102E70005A97309729F063897489858996890895CE
:102E800060E070E0CB010895CF92DF92EF92FF9265
:102E9000CF93DF93EC01898D9A8D892BC9F0CE01F8
:102EA000E3DF6B017C01CE01CFDFA7019601261B7A
:102EB000370B480B590BDA01C901811530E893072C
:102EC000A105B10538F08FEF9FE7A0E0B0E002C0A8
:102ED00080E090E0DF91CF91FF90EF90DF90CF9076
:102EE0000895CF93DF93EC01898D9A8D009741F07F
:102EF0000E94D320898D9A8D0E94B4FD1A8E198E5E
:102F0000DF91CF910895DC015996ED91FC915A978C
:102F1000309721F081E09581911101C080E0089502
:102F20001F93CF93DF93CDB7DEB76D970FB6F894AD
:102F3000DEBF0FBECDBFAB011C821B822EEC32E088
:102F40003A8329831E8221E0BC01CE0101960E94B2
:102F5000FD2111E0811102C010E004C0CE010196F4
:102F60000E94D320812F6D960FB6F894DEBF0FBE5E
:102F7000CDBFDF91CF911F910895EF92FF920F93F4
:102F80001F93CF93DF93CDB7DEB76D970FB6F8944D
:102F9000DEBF0FBECDBF8C017B011C821B828EEC7D
:102FA00092E09A8389831E82C801BADF982F81112B
:102FB0000AC0A701B801CE0101960E94DC2291E06F
:102FC000811101C090E0892F6D960FB6F894DEBF95
:102FD0000FBECDBFDF91CF911F910F91FF90EF906A
:102FE0000895CF93DF93FB0120813181FC01E20F33
:102FF000F31FE081EF3211F42F5F3F4FDA01E0E081
:10300000F0E0EC01C20FD31FC881CF3249F0CC23CE
:1030100039F031962F5F3F4FCD93EC30F10589F7B2
:10302000E40FF51F1082FC01E20FF31F40814F32C5
:1030300011F42F5F3F4FFB0131832083FC01E20F2E
:10304000F31F81E09081911101C080E0DF91CF9169
:1030500008954F925F926F927F928F929F92AF925C
:10306000BF92CF92DF92EF92FF920F931F93CF9375
:10307000DF93CDB7DEB7C954D1090FB6F894DEBFE0
:103080000FBECDBF5C016B013A01490119A218A224
:103090008EEC92E09F8F8E8F1BA21C821B829A83E4
:1030A00089831E822A961FAE1EAE2A978B017E014F
:1030B0008EE1E80EF11C44244394AE01455C5F4F61
:1030C000BE01685B7F4FC5018CDF582E482F442519
:1030D0009401BE01655C7F4FC801F3011995811110
:1030E00008C00C151D0519F0C8010E94D32080E00E
:1030F00027C05520B9F021E0AE01455C5F4FB80113
:10310000C7010E94FD21582E0C151D0599F0C8011C
:103110000E94D320552059F3902F812F8701E92E4B
:10312000F82ECBCF0C151D0519F0C8010E94D32035
:1031300081E006C08823D9F28E010F5F1F4FECCFCC
:10314000C75BDF4F0FB6F894DEBF0FBECDBFDF9178
:10315000CF911F910F91FF90EF90DF90CF90BF9094
:10316000AF909F908F907F906F905F904F90089559
:103170000F931F93CF93DF93EC01462F61E0D4D2DE
:10318000811102C080E01CC08E01045F1F4F41E02E
:10319000BE01C8010E94EA28882351F0B801CE017F
:1031A0008A9683D591E0811101C090E0892F08C0F3
:1031B00040E0BE01C8010E94EA28882319F3EECF3F
:1031C000DF91CF911F910F910895FC01DB011296C1
:1031D0008D919C911397938382838EEC92E09183DF
:1031E000808314968C911497848315968C911597EF
:1031F000858316964D915D916D917C9119974683CB
:103200005783608771871A964D915D916D917C917E
:103210001D9742875387648775871E964D915D91F0
:103220006D917C91519746875787608B718B529631
:103230008C915297828B53964D915D916D917C91BB
:103240005697438B548B658B768B57964D915D913A
:103250006D917C915A97478B508F618F728F5B96DF
:103260008D919C915C97948F838F08954F925F927C
:103270006F927F928F929F92AF92BF92CF92DF9286
:10328000EF92FF920F931F93CF93DF93CDB7DEB7EB
:10329000C754D1090FB6F894DEBF0FBECDBF6C0185
:1032A0004A013901665D7F4F5E018EE1A80EB11CB7
:1032B000C5018BDF1C821B828EEC92E09A8389838E
:1032C0001E828401FE0131967F015A2C4B2C6FE245
:1032D00070E0C8010F9451000097D9F1F8012081E6
:1032E0002F3219F40F5F1F4FF2CF801B8D3008F083
:1032F0008CE0A82EB12CA501B801CE01CB960F947D
:103300007A00EBE3F0E0EC0FFD1FEA0DFB1D1082ED
:10331000C70149D721E0AE01455C5F4F652D742D93
:10332000C7010E94FD21811109C0F601138212829A
:103330008EEC92E091838083158214C00A0D1B1DD0
:10334000852D942D30D7C2015E2C4F2CE92EF82EFE
:10335000BECF08191909F30111830083652D742D5F
:10336000C60133DFC601C95BDF4F0FB6F894DEBF7D
:103370000FBECDBFDF91CF911F910F91FF90EF90C6
:10338000DF90CF90BF90AF909F908F907F906F9085
:103390005F904F9008959F92AF92BF92CF92DF922D
:1033A000EF92FF920F931F93CF93DF93CDB7DEB7CA
:1033B000C955D1090FB6F894DEBF0FBECDBF7C0151
:1033C0006B015A01922E9E01285A3F4FCE01CB9697
:1033D0004DDF6A960EAD1FAD6A970A0D1B1DF801F1
:1033E0008081811109C0BE01655C7F4FCE010196CD
:1033F000ECDE48EC52E03BC019A218A28EEC92E041
:103400009F8F8E8F1BA221968FAD2197811103C0B4
:10341000C701FCDC31C08250823058F4B601665DD1
:103420007F4F292DA801CE014E96E7D781110EC0FE
:10343000EFCF292DA801BE01655C7F4FCE014E96CE
:10344000DCD7882329F3CE01CB96ADD6892D8670A3
:1034500039F049A95AA96BA97CA9CE014E96C3D5CA
:10346000BE01625E7F4FCE010196AFDEA801BE01B4
:103470006F5F7F4FC70191DCC701C75ADF4F0FB69F
:10348000F894DEBF0FBECDBFDF91CF911F910F919A
:10349000FF90EF90DF90CF90BF90AF909F900895F6
:1034A000FB01BC01665D7F4F20E030E040E957E161
:1034B000CF01CFCDFB01BC01665D7F4F20E030E046
:1034C0004DEB57E1CF01C5CD1092DA091092DB091F
:1034D0001092DE091092E00982E090E0A0E0B0E0F6
:1034E0008093E1099093E209A093E309B093E40982
:1034F0001092F8091092020A1092010A8EEC92E0E2
:103500009093000A8093FF091092040A08959FB7D0
:10351000F8942091720C8091700C213019F48DBBBD
:103520009FBF08958FBF08952091720C222399F0B8
:103530003FB7F8942091720C213059F42DB32093A9
:10354000700C4DB32091710C209524232DBB3FBFEF
:1035500002C03093700C8CBD9DBD08958EBD0000DF
:103560000DB407FEFDCF8EB508958FEFF7CF61E064
:10357000FC0184810E945FED80911E0A882331F056
:1035800010921E0A8091720C8111C1CF0895CF93C1
:10359000DF93EC0180911E0A811108C081E08093C5
:1035A0001E0A80911F0A9091200ABEDF60E08C8184
:1035B000DF91CF910C945FEDCF93DF93EC018E817F
:1035C000882379F08F8198859C012F5F3F4F388742
:1035D0002F838230924010F4C8DFF4CFCE01C7DFD2
:1035E0001E82DF91CF910895673028F026E1FC011B
:1035F000258380E00895623081F030F4662359F02D
:103600006130B1F480E515C0643059F040F06530A8
:1036100079F482E50EC080E505C081E503C081E54F
:1036200008C082E580931F0A81E08093200A0895F4
:1036300083E580931F0A1092200A81E008950F937A
:103640001F93CF93DF93EB010E9427EB8B018DDF5C
:103650008F3F49F00E9427EB601B710B6C177D07B1
:10366000B0F380E001C081E0DF91CF911F910F9115
:103670000895CF92DF92FF920F931F93CF93DF9322
:1036800000D01F92CDB7DEB76C01F62E29833A83A6
:103690004B835C8391DFC6017ADF6CE271E0C60187
:1036A000CEDF8F2D80645ADF08E110E05C814B8112
:1036B0003A812981DA01C901002E04C0B695A79587
:1036C000979587950A94D2F729833A834B835C8335
:1036D00045DF0850110929813A814B815C81083FFF
:1036E0008FEF180739F7FF2029F0E8E0FE1621F0E8
:1036F0008FEF03C085E901C087E830DF10E035DFD8
:10370000F601828787FF04C01F3F11F01F5FF7CFCC
:103710000F900F900F900F90DF91CF911F910F910D
:10372000FF90DF90CF900895BF92CF92DF92EF92FB
:10373000FF920F931F93CF93DF93EC01B62E1B865E
:1037400019861E821D824C830E9427EB8B0161E04B
:103750008C810E9426ED61E08C810E945FED0E94C9
:10376000363982E580931F0A1092200A80911F0A41
:103770009091200AD9DE2AE0F22E8FEFEFDEFA9444
:10378000E1F78091720C8111C2DECE0100DF20E0F2
:1037900030E0A90160E0CE016CDFF82E8A8781E07D
:1037A000F81649F00E9427EB601B710B613D7740D2
:1037B00070F381E046C02AEA31E040E050E068E082
:1037C000CE0157DF82FF02C0FB860CC094E0F92EC9
:1037D000CCDE8A87FA94E1F78A3A11F082E031C0B0
:1037E00082E08B878B85823031F4C12CD12CE12C87
:1037F00080E4F82E03C0C12CD12C760120E030E00B
:10380000A90167E3CE0135DFA701960169E2CE0188
:1038100030DF8A87882349F00E9427EB601B710BF9
:10382000613D774058F388E00CC08B85823001F50C
:1038300020E030E0A9016AE3CE011BDF882379F0A4
:1038400086E08D83CE0193DE80E0DF91CF911F91E2
:103850000F91FF90EF90DF90CF90BF90089585DE9D
:10386000807C803C11F483E08B877FDE7EDE7DDE12
:10387000CE017DDE6B2DCE01DF91CF911F910F9197
:10388000FF90EF90DF90CF90BF90AECE0F931F933D
:10389000CF93DF93EC010E9427EB8B0166DE8A87D2
:1038A0008F3F49F40E9427EB601B710B6D32714012
:1038B000A8F38FE003C08E3F31F08DE08D83CE0101
:1038C00056DE80E001C081E0DF91CF911F910F9122
:1038D0000895CF92DF92EF92FF920F931F93CF93B1
:1038E000DF93EC0169010115110509F45DC0C80100
:1038F000820F931F8130924008F058C08E81882338
:1039000071F088819981AA81BB81481759076A079C
:103910007B0729F48F819885C816D90600F548835E
:1039200059836A837B838B85833039F039E0440F78
:10393000551F661F771F3A95D1F79A01AB0161E1D8
:10394000CE0197DE882319F083E08D832FC0CE014E
:103950009DDF882359F118861F8281E08E838F8135
:1039600098858C159D0538F400DE8F819885019629
:1039700098878F83F4CF6701E00EF11ECE14DF0429
:1039800029F0F3DDF60181936F01F8CF8F819885DF
:10399000800F911F98878F832985222319F0811525
:1039A000924010F0CE0108DE81E003C0CE01DFDDE1
:1039B00080E0DF91CF911F910F91FF90EF90DF900A
:1039C000CF900895EF92FF920F931F93790100E03B
:1039D00012E020E030E07DDF1F910F91FF90EF902B
:1039E0000895CF92DF92EF92FF920F931F93CF93A0
:1039F000DF931F921F92CDB7DEB78C01862F4983CC
:103A00005A83ACDD4981C42E5A81D52EE12CF12C8C
:103A1000F60181916F01A2DDFFEFEF1AFF0AE114B9
:103A200082E0F806A9F78FEF99DD8FEF97DD9DDD36
:103A3000F80182878F71853031F081E18583C8017B
:103A400096DD80E001C081E00F900F90DF91CF9173
:103A50001F910F91FF90EF90DF90CF9008950F93FB
:103A60001F93CF93DF93EC01890141155105610547
:103A7000710511F482E12DC08B85833039F089E026
:103A8000440F551F661F771F8A95D1F79A01AB0126
:103A900068E1CE01EEDD882311F084E01AC0A801B0
:103AA0006EEFCE019EDF8823A9F068E572E0CE01BB
:103AB000C6DD811102C085E10CC020E030E0A90123
:103AC0006DE0CE01D6DD811103C04FDD882331F0DA
:103AD00084E18D83CE014BDD80E003C0CE0147DD64
:103AE00081E0DF91CF911F910F91089580E5809340
:103AF0001F0A1092200A0895CF93DF93EC019C01D6
:103B00002A5F3F4F41E050E060E070E08B8D9C8D7C
:103B10000E9485278823A1F04F89588D698D7A8D61
:103B2000452B462B472B71F44E815F816885798543
:103B30004F8B588F698F7A8F8C8180688C8302C0FD
:103B400080E001C081E0DF91CF910895CF92DF92B4
:103B5000EF92FF921F93CF93DF93EC01CDDF8111A2
:103B600002C080E04AC0EB8DFC8DCE80DF80E8840F
:103B7000F98482E0C81AD108E108F108058404C07C
:103B8000CC0CDD1CEE1CFF1C0A94D2F74685578531
:103B900060897189C40ED51EE61EF71E148181E06E
:103BA000C81AD108E108F108112359F0C701B6017C
:103BB000610F711D811D911DF6D7882391F211505F
:103BC000F3CFEB8DFC8DC12C82E0D82EE12CF12CB3
:103BD000058404C0CC0CDD1CEE1CFF1C0A94D2F73B
:103BE0004B895C896D897E894C0D5D1D6E1D7F1D25
:103BF0004B8B5C8B6D8B7E8B81E0DF91CF911F9126
:103C0000FF90EF90DF90CF900895CF93DF93EC017A
:103C1000462F6E857F85888999898BD7882341F0C7
:103C20008A8920E2829FC0011124865D954F02C0DF
:103C300080E090E0DF91CF910895282FFB018BE089
:103C400030E231938150E9F7A22FB92F20E037E01D
:103C50009D91992319F19E3219F0E7E0F2E008C036
:103C60003A3011F128E03AE0F3CF31964917E1F00C
:103C700044914111FACF3217B8F04FED490F4E354C
:103C800098F441E0420FFB01E20FF11D2FE9290FEB
:103C90002A3108F490529083242FDACF81E0FB017F
:103CA0009081903209F480E008950F931F93CF9391
:103CB000DF93EC018B018D81882311F080E03FC000
:103CC000FB0187898031B1F482E08D831F8A188ED1
:103CD000198E1A8E408D518D60E070E095E0440F92
:103CE000551F661F771F9A95D1F74B8B5C8B6D8B99
:103CF0007E8B14C0803211F783E08D83FB01428DEF
:103D0000538D648D758D4F8B588F698F7A8F9E017F
:103D10002D5E3F4FC801EFD7882381F21C8F0B8F98
:103D200081E08C831E821F82188619861A861B8664
:103D30001C861D861E861F86188A198A1A8ADF919C
:103D4000CF911F910F9108952F923F924F925F92C2
:103D50006F927F928F929F92AF92BF92CF92DF929B
:103D6000EF92FF920F931F93CF93DF93EC016B01C0
:103D70005A018D81811103C08FEF9FEFD7C08C81D5
:103D800080FFFACF4B895C896D897E898A859B8506
:103D9000AC85BD852501612C712C8A019B01081B16
:103DA000190B2A0B3B0B041515052605370518F4CE
:103DB0005A01A81AB90A25011E0126E0220E311C5B
:103DC0004114510409F47AC04A855B856C857D8570
:103DD0004A0181E09822ED818A019B01F9E0369544
:103DE000279517950795FA95D1F78B8D9C8DE23025
:103DF00051F4FC01628D738D848D958D600F711F60
:103E0000821F931F3DC0FC0174807A94702281143C
:103E10009104C1F4711016C0452B462B472B49F471
:103E20008F89988DA98DBA8D8E839F83A887B98736
:103E300009C04E815F81688579859101D9D6882333
:103E400009F49ACFEB8DFC8D6E817F8188859985F1
:103E50006250710981099109058404C0660F771FBA
:103E6000881F991F0A94D2F7068517852089318902
:103E7000600F711F821F931F670D711D811D911DA2
:103E800020E032E02819390932012415350508F4FB
:103E900039012C8126FD04C06114F2E07F0699F5FA
:103EA00000910A0210910B0220910C0230910D0238
:103EB000601771078207930719F425C0C50136C042
:103EC000760183019401AB01BC018091280A909195
:103ED000290AFFDC882309F44FCFC60CD71C04C085
:103EE000E81BF90BCE0EDF1E8A859B85AC85BD8550
:103EF000860D971DA11DB11D8A879B87AC87BD8745
:103F0000461857085DCF40E014D6882309F434CF13
:103F1000C401865D954FD6019C01260D371DFC011D
:103F2000E217F307E9F241914D93FACFDF91CF9178
:103F30001F910F91FF90EF90DF90CF90BF90AF90C7
:103F40009F908F907F906F905F904F903F902F90B9
:103F50000895FF920F931F93CF93DF931F92CDB7D6
:103F6000DEB78C01FC018581823018F480E090E09E
:103F700033C0F8014285538564857585A5E0769543
:103F8000679557954795AA95D1F7F42FFF70FF2EA7
:103F900041E050E0BE016F5F7F4FC801D5DE019761
:103FA00019F4298130E002C02FEF3FEF2F3F3F4F40
:103FB000E9F2F8014285538564857585415E5F4F5E
:103FC0006F4F7F4F4287538764877587F0E2FF9E6C
:103FD000C0011124865D954F0F90DF91CF911F9105
:103FE0000F91FF9008954F925F926F927F92AF92E0
:103FF000BF92CF92DF92EF92FF920F931F93CF93D6
:10400000DF93EC016A017B012D81222309F456C064
:104010008B899C89AD89BE8984179507A607B70748
:1040200008F44CC04DC08A859B85AC85BD85EB8D61
:10403000FC8DE585F0E03996AC01BD014150510998
:10404000610971090E2E04C07695679557954795BD
:104050000A94D2F79701860101501109210931090B
:1040600004C03695279517950795EA95D2F704175A
:10407000150726073707A8F58F89988DA98DBA8D62
:104080008E839F83A887B987280139015E0186E066
:10409000A80EB11C411451046104710459F14E8100
:1040A0005F816885798595018B8D9C8DA1D591E087
:1040B000491A5108610871088111ECCF80E01FC0D6
:1040C0002230C1F0C114D104E104F10409F0ABCFF6
:1040D0001E821F82188619861A861B861C861D86DC
:1040E0000DC0892B8A2B8B2B39F2041B150B260B49
:1040F000370BCACFCA86DB86EC86FD8681E0DF916E
:10410000CF911F910F91FF90EF90DF90CF90BF90D4
:10411000AF907F906F905F904F9008950F931F9393
:10412000CF93DF93EC018D818823B9F18C8187FFD8
:104130002FC061E0CE0169DD8C01009771F18D81A6
:10414000823048F44B895C896D897E89F801448FFF
:10415000558F668F778F4F89588D698D7A8DF801CD
:10416000538F428F758B648BE091210AF091220A64
:10417000309759F0B8016A5E7F4FC801489619958B
:10418000F801808D918D938B828B8C818F778C83BE
:10419000DF91CF911F910F9191C480E0DF91CF917A
:1041A0001F910F910895CF93DF93EC01B7DF882320
:1041B00019F01D8281E001C080E0DF91CF91089568
:1041C0004F925F926F927F92AF92BF92CF92DF92A7
:1041D000EF92FF920F931F93CF93DF9300D01F9224
:1041E000CDB7DEB75C016A017B01FC0185818130BE
:1041F000E9F4848181FF1AC0F50183899489A58936
:10420000B68984179507A607B70780F0892B8A2BF4
:104210008B2B09F472C0F501428453846484758445
:10422000B701A601C501DFDE811102C080E066C0D2
:10423000F501838D948DC114D104E104F10469F476
:104240004789508D618D728D71D7882379F3F5017F
:10425000178A108E118E128E37C0F5014681578154
:10426000608571859E012F5F3F4FC2D48823F1F294
:1042700049815A816B817C81F501838D948DFC018C
:104280002789203129F408EF1FEF20E030E004C037
:1042900008EF1FEF2FEF3FE040175107620773074A
:1042A00098F444D7882309F4C1CFF501468157819A
:1042B000608571850FEF1FEF2FEF3FE0838D948DA9
:1042C00084D5882309F4B2CFF501C38AD48AE58A5C
:1042D000F68A848180688483C50120DF882309F4FD
:1042E000A5CFB701A6014C145D046E047F0410F441
:1042F000B301A201C50177DE01C081E00F900F90EC
:104300000F900F90DF91CF911F910F91FF90EF9041
:10431000DF90CF90BF90AF907F906F905F904F9065
:104320000895FF920F931F93CF93DF93EC01F42E28
:1043300080E2689FF0011124E65DF54F838581716D
:1043400029F0842F827411F080E051C06A8B809133
:104350000A0290910B02A0910C02B0910D028E877F
:104360009F87A88BB98B4489558960E070E0BA01BA
:1043700055274427028D138D20E030E0402B512B30
:10438000622B732B4F8B588F698F7A8F838588713F
:1043900051F4048D158D268D378D0B8B1C8B2D8B39
:1043A0003E8B81E00BC0803179F69E012D5E3F4F40
:1043B0008B8D9C8DA0D4882339F284E08D838F2D42
:1043C0008F708C831E821F82188619861A861B8620
:1043D0001C861D86F6FE0AC040E050E0BA01CE0100
:1043E000DF91CF911F910F91FF90EACE81E0DF9195
:1043F000CF911F910F91FF900895AF92BF92CF92EE
:10440000DF92EF92FF920F931F93CF93DF93CDB77D
:10441000DEB72B970FB6F894DEBF0FBECDBF7C0181
:104420006B01CA01B22EF70125812111B3C0BE0173
:104430006F5F7F4F02DC882309F4ACC0F601838DE7
:10444000948DF701948F838FF60116821782108660
:1044500011861286138614861586A12CF601028514
:1044600013852485358583899489A589B68908179C
:1044700019072A073B07E0F545E03695279517957C
:1044800007954A95D1F70F70C60163DD009709F4CF
:1044900081C0FC012081222311F0253EB9F4A11036
:1044A0000EC0F701028B40910A0250910B026091FD
:1044B0000C0270910D0246875787608B718BFC014F
:1044C0008081AA24A3948111C9CF12C04BE050E08F
:1044D000BC01CE0101960F941800892B09F0BECFC4
:1044E0008B2D8073803309F455C04B2D602F4FC046
:1044F0008B2D8271823109F04DC0AA2039F061E024
:10450000C70183DB8C01009771F444C0F6018581FB
:10451000823009F43FC0C60119DB8823D9F1F701C5
:10452000128A0AE21AE080E2F80111928A95E9F70C
:104530008BE0FE013196D80101900D928A95E1F74A
:10454000E091210AF091220A309739F0B801625FB8
:104550007F4FC8014096199509C081E298E2F801A1
:10456000918B808B80E098E097878687F80180891F
:104570009189938B828B918F808F86859785978B7E
:10458000868B9CD2882331F04B2DF7016289C701BD
:10459000C8DE01C080E02B960FB6F894DEBF0FBED8
:1045A000CDBFDF91CF911F910F91FF90EF90DF90E2
:1045B000CF90BF90AF9008954F925F926F927F928D
:1045C0009F92AF92BF92CF92DF92EF92FF920F93A2
:1045D0001F93CF93DF93CDB7DEB7A0970FB6F894B4
:1045E000DEBF0FBECDBF8C017B0123E306DF882336
:1045F00009F4A5C081E0D80114968C93149784E047
:1046000015968C93C801A2DA882309F498C0C801D2
:1046100085DD882309F493C061E0C801F6DA0097CC
:1046200009F48DC020E1FC01238720E2DE01119610
:1046300001900D922A95E1F7DC015496AD90BC9063
:1046400055975A96CD90DC905B97FE013296CE013D
:104650000C9620E22193E817F907E1F75EE2952E28
:104660009982D8015B96ED91FC915C9757966D917C
:104670007D918D919C915A976250710981099109A0
:10468000058404C0660F771F881F991F0A94D2F70C
:104690004684578460887188640D751D861D971D3A
:1046A00041E047D2882309F44AC0BE8AAD8ADC8E35
:1046B000CB8E80E2FE013196AAE2BAE001900D9223
:1046C0008A95E1F79A82F70185818250823038F02D
:1046D0008789908DA18DB28D9C01CD0104C020E011
:1046E00030E080E090E09E8B8D8B3C8F2B8F80E2C2
:1046F000FE013196AAE4BAE001900D928A95E1F7A5
:1047000080E490E0A0E0B0E0F80182879387A4877E
:10471000B587A0960FB6F894DEBF0FBECDBFDF9170
:10472000CF911F910F91FF90EF90DF90CF90BF90AE
:10473000AF909F907F906F905F904F90BFC180E04F
:10474000A0960FB6F894DEBF0FBECDBFDF91CF911C
:104750001F910F91FF90EF90DF90CF90BF90AF909F
:104760009F907F906F905F904F9008952F923F920F
:104770004F925F926F927F928F929F92AF92BF9271
:10478000CF92DF92EF92FF920F931F93CF93DF931D
:1047900000D01F921F92CDB7DEB78C017B013A018A
:1047A000DC0115968C9115978130C1F414968C918B
:1047B00081FF14C082FF1AC0F801438954896589BA
:1047C000768982859385A485B58584179507A60784
:1047D000B70761F0C80107DC811108C081E090E0F3
:1047E000F8019383828380E090E040C163017FC041
:1047F000D8015B968D919C915C97FC01F481F150FE
:10480000B501A40129E076956795579547952A95B6
:10481000D1F7F423FD8321E09222FF2309F473C032
:1048200080E092E08819990956018C159D0508F4DD
:104830005C01D8015B96ED91FC915C9716962D90EA
:104840003D904D905C901997B2E02B1A31084108C9
:104850005108058404C0220C331C441C551C0A94C6
:10486000D2F786859785A089B189280E391E4A1E00
:104870005B1EED812E0E311C411C511CA114F2E077
:10488000BF0609F085C080910A0290910B02A091A9
:104890000C02B0910D0282159305A405B50559F4DB
:1048A0008FEF9FEFDC0180930A0290930B02A0939D
:1048B0000C02B0930D029701B201A1018091280A68
:1048C0009091290ACCD8882309F488CF9EEFF91A51
:1048D000CA18DB08F80182859385A485B5858A0D01
:1048E0009B1DA11DB11D82879387A487B587D80121
:1048F0001A968D909D90AD90BC901D97C114D104D7
:1049000009F076CF86C08114910409F089CF1696FC
:104910004D915D916D917C911997411551056105FE
:10492000710559F457968D919D910D90BC91A02DD4
:104930000097A105B10531F520C09E012F5F3F4FC3
:1049400057D1882309F450CF89819A81AB81BC81EA
:10495000F801238D348DF9012789203129F448EF9E
:104960005FEF60E070E004C048EF5FEF6FEF7FE063
:1049700084179507A607B70728F0C801BDD881118D
:104980004FCF2CCFF80186839783A087B18748CF7C
:104990008114910421F5D8011A964D915D916D9184
:1049A0007C911D9753968D919D910D90BC91A02D5A
:1049B000481759076A077B0790F080D0882309F4CD
:1049C0000DCF20920A0230920B0240920C025092BC
:1049D0000D028091270A81608093270A07C041E079
:1049E000C201B101A6D0882309F4F8CEC401865DC6
:1049F000954FD7019C012A0D3B1DFC01E217F307DF
:104A000019F04D914193FACFE81BF90BEE0EFF1E02
:104A10005FCF53968D919D910D90BC91A02DF80183
:104A2000248188159905AA05BB0538F4838A948AE0
:104A3000A58AB68A206824830CC08091210A9091AF
:104A4000220A892B31F06114710419F02068F801F1
:104A50002483D80114968C9183FD02C0C30106C043
:104A6000C8015CDB882309F4B9CEF8CF0F900F9012
:104A70000F900F900F90DF91CF911F910F91FF90AA
:104A8000EF90DF90CF90BF90AF909F908F907F90EE
:104A90006F905F904F903F902F900895CF93DF934A
:104AA0001F92CDB7DEB7698341E050E0BE016F5F72
:104AB0007F4F5CDE0F90DF91CF9108958091270AA0
:104AC000882399F140910A0250910B0260910C02E7
:104AD00070910D022AE23AE08091280A9091290A09
:104AE0000E942F1D882319F14091230A5091240A16
:104AF0006091250A7091260A4115510561057105DD
:104B000091F02AE23AE08091280A9091290A0E94C5
:104B10002F1D882361F01092230A1092240A10920C
:104B2000250A1092260A1092270A81E0089580E053
:104B30000895CF92DF92EF92FF92CF936B017C01A9
:104B4000C42F80910A0290910B02A0910C02B091A7
:104B50000D028C159D05AE05BF05C9F0AFDF8111B3
:104B600002C080E01AC02AE23AE0B701A6018091B3
:104B7000280A9091290A0E94E21C882391F3C0928E
:104B80000A02D0920B02E0920C02F0920D02809188
:104B9000270A8C2B8093270A81E0CF91FF90EF901A
:104BA000DF90CF900895CF92DF92EF92FF926B014A
:104BB0007C0184DF8823B1F0EAE2FAE011928CE014
:104BC000EA32F807D9F7C0920A02D0920B02E092BB
:104BD0000C02F0920D028091270A81608093270ACF
:104BE00081E001C080E0FF90EF90DF90CF900895CA
:104BF0008F929F92AF92BF92CF92DF92EF92FF92ED
:104C00000F931F93CF93DF938C016A017B01E9011E
:104C1000FC0181859285A385B4850196A11DB11DF6
:104C200084179507A607B70710F480E057C0F8016E
:104C300043895489658976898789803129F4BB271E
:104C4000AF2D9E2D8D2D09C0D701C60127E0B69549
:104C5000A795979587952A95D1F74C015D01840E0C
:104C6000951EA61EB71EC501B40180900A02909041
:104C70000B02A0900C02B0900D02681579058A0510
:104C80009B0589F4F8018789803191F4DD24EE24B5
:104C9000FF24F601EE0FFF1FE65DF54F8081918145
:104CA000A0E0B0E016C040E044DF8111EBCFBDCF03
:104CB000E894C7F8DD24EE24FF24F601EE0FFF1F71
:104CC000EE0FFF1FE65DF54F80819181A281B381D8
:104CD000BF7088839983AA83BB8381E0DF91CF91E2
:104CE0001F910F91FF90EF90DF90CF90BF90AF900A
:104CF0009F908F9008954F925F926F927F92AF92A4
:104D0000BF92CF92DF92EF92FF920F931F93CF93B8
:104D1000DF9300D01F92CDB7DEB78C0149835A8351
:104D20006B837C835901C12CD12C7601412C42E04C
:104D3000542E612C712C49815A816B817C819E019A
:104D40002F5F3F4FC80154DF882359F1D301C201BF
:104D5000F801058404C0880F991FAA1FBB1F0A947D
:104D6000D2F7C80ED91EEA1EFB1E49815A816B81FB
:104D70007C818789803129F488EF9FEFA0E0B0E043
:104D800004C088EF9FEFAFEFBFE0481759076A07ED
:104D90007B0788F2F501C082D182E282F38281E052
:104DA00001C080E00F900F900F900F90DF91CF9196
:104DB0001F910F91FF90EF90DF90CF90BF90AF9039
:104DC0007F906F905F904F9008954F925F926F9297
:104DD0007F928F929F92AF92BF92CF92DF92EF928B
:104DE000FF920F931F93CF93DF93EC016A017B0136
:104DF00028013901423051056105710508F473C07D
:104E000049855A856B857C854F5F5F4F6F4F7F4F1C
:104E10004C155D056E057F0508F465C08B889C8880
:104E2000AD88BE888F89803129F477276F2D5E2D5C
:104E30004D2D09C0B701A601E7E076956795579516
:104E40004795EA95D1F7840E951EA61EB71E409190
:104E50000A0250910B0260910C0270910D028416AF
:104E60009506A606B70671F48F89803191F4DD248A
:104E7000EE24FF24F601EE0FFF1FE65DF54F518291
:104E8000408217C040E0C501B40153DE8111ECCF70
:104E90002AC0E894C7F8DD24EE24FF24F601EE0FC3
:104EA000FF1FEE0FFF1FE65DF54F408251826282C9
:104EB00073828091270A81608093270A8A898230D1
:104EC00080F08D819E81AF81B885880D991DAA1DC6
:104ED000BB1D8093230A9093240AA093250AB093C4
:104EE000260A81E001C080E0DF91CF911F910F91F0
:104EF000FF90EF90DF90CF90BF90AF909F908F90FA
:104F00007F906F905F904F9008952F923F924F92B5
:104F10005F926F927F929F92AF92BF92CF92DF92F9
:104F2000EF92FF920F931F93CF93DF93CDB7DEB72E
:104F300060970FB6F894DEBF0FBECDBF5C014D8702
:104F40005E876F87788B1901D9014D905D906D90C8
:104F50007C90411451046104710431F0BFEF4B1A8D
:104F60005B0A6B0A7B0A10C0FC01408051806280A2
:104F70007380992493940D851E852F85388901307F
:104F800011052105310509F0912CD50119962D91B6
:104F90003D914D915C911C972F5F3F4F4F4F5F4F5D
:104FA00029873A874B875C87730162011D821E82C5
:104FB0001F821886F50181859285A385B4850D81B0
:104FC0001E812F813885081719072A073B0708F02B
:104FD00054C029853A854B855C852C153D054E05C9
:104FE0005F0550F4A2E0CA2ED12CE12CF12CB2E0E6
:104FF0004B2E512C612C712C9E012F5F3F4FB7011E
:10500000A601C501F5DD8823C1F149815A816B8173
:105010007C81D701C6010196A11DB11D452B462BF0
:10502000472B19F02C013D010FC0AC01BD01441903
:105030005509660977090D851E852F853889401722
:1050400051076207730779F02D813E814F815885A2
:105050002F5F3F4F4F4F5F4F2D833E834F835887C6
:105060006C017D01A7CF0FEF1FEF2FEF3FE0B701DE
:10507000A601C501AADE811117C080E03FC0D7019B
:10508000C6010197A109B1098D839E83AF83B887BB
:1050900097018601AC01BD01C50197DE882369F344
:1050A000CD80DE80EF80F8844C145D046E047F04B4
:1050B00030F3D1014D915D916D917C914115510578
:1050C0006105710599F4F101408251826282738217
:1050D000992099F0FFEF4F1A5F0A6F0A7F0AD501F6
:1050E0004D925D926D927C92139707C0930182015D
:1050F000C5016BDE8111E7CFC0CF81E060960FB6AE
:10510000F894DEBF0FBECDBFDF91CF911F910F91FD
:10511000FF90EF90DF90CF90BF90AF909F907F90E7
:105120006F905F904F903F902F900895AF92BF92F5
:10513000CF92DF92EF92FF920F931F93CF93DF9363
:1051400000D01F92CDB7DEB75C016A017B0182E01F
:1051500090E0A0E0B0E0F50180839183A283B38367
:105160009E012F5F3F4FB701A601C50141DD882396
:1051700009F100E010E09801B701A601C50125DEA4
:105180008823C1F0C980DA80EB80FC80F501878933
:10519000803129F488EF9FEFA0E0B0E004C088EFF1
:1051A0009FEFAFEFBFE0C816D906EA06FB06C0F2D4
:1051B00081E001C080E00F900F900F900F90DF9181
:1051C000CF911F910F91FF90EF90DF90CF90BF9004
:1051D000AF9008958F929F92AF92BF92CF92DF923D
:1051E000EF92FF920F931F93CF93DF93EC01142F55
:1051F0007093290A6093280A442339F1453010F04E
:1052000080E0EDC040E060E070E0CB0192DC8823FC
:10521000B9F320E1129FF0011124E852F44F80818C
:105220008F7771F784859585A685B7858436910536
:10523000A105B10528F3C084D184E284F384C114AC
:10524000D104E104F10421F4DBCFC12CD12C76018F
:1052500040E0C701B6016DDC882391F28091350AE8
:105260009091360A8115924059F630913A0A3323CB
:1052700039F28091380A9091390A892B09F4C0CF0C
:105280002091370A222309F4BBCF3A8B2C831D8649
:1052900030E041E050E06D85062FCA01062E02C0C5
:1052A000880F991F0A94E2F72817390731F081E037
:1052B000860F8D87683078F3A3CF2091400A309114
:1052C000410A2115310519F040E050E008C0209155
:1052D0004E0A30914F0A4091500A5091510A2D8345
:1052E0003E834F8358878091380A9091390A46014E
:1052F0005701880E991EA11CB11C8B8A9C8AAD8A0D
:10530000BE8AE0913B0AF0913C0AF98FE88FA091A8
:105310003A0AB0E00E940EFD680D791D8A1D9B1DA2
:105320006A8F7B8F8C8F9D8F15E0EE0FFF1F1A9574
:10533000E1F7E150FE4FEF2FFF27E695DC01CB01AF
:105340008E0F9F1FA11DB11D8E879F87A88BB98BC4
:1053500080903D0A90903E0A8114910419F0A12C8E
:10536000B12C08C080904A0A90904B0AA0904C0A39
:10537000B0904D0AA7019601281B390B4A0B5B0B15
:10538000DA01C901880D991DAA1DBB1D04C0B6957F
:10539000A795979587950A95D2F789879A87AB87BE
:1053A000BC87853F3FE09307A105B10510F48CE071
:1053B00014C0853F9F4FA105B10510F480E10DC0D9
:1053C0008091560A9091570AA091580AB091590AB3
:1053D0008A8F9B8FAC8FBD8F80E28F8B81E0DF91B6
:1053E000CF911F910F91FF90EF90DF90CF90BF90E2
:1053F000AF909F908F9008950F9300E020E040E0E1
:1054000060E08AE29CE00E9455F20F910895FB0152
:105410004281538164817581FC014283538364839B
:105420007583178216820895FB0120E080E090E0EA
:105430006AE03191332309F170ED730F7A3080F413
:10544000DC016A9FC0016B9F900D1124C097830FF0
:10545000911D37FD9A958F3F910559F350F314C074
:105460003E3291F4233081F0DA01A20FB11D129681
:105470008C932F5F80E090E0DCCF233029F4FA0199
:10548000858381E090E0089580E090E008950F9397
:1054900000E020E040E060E080E39CE00E9455F204
:1054A0000F910895AF92BF92CF92DF92EF92FF9249
:1054B0000F931F93CF93DF9300D01F921F92CDB70E
:1054C000DEB78C017B010E9427EBF80177836683AE
:1054D0007627672776277A836983085F1F4F42E024
:1054E00050E0BE016F5F7F4FC801BFD581E090E003
:1054F0009C838B8342E050E0BE016D5F7F4FC8010B
:10550000B4D580E091E09C838B8342E050E0BE0103
:105510006D5F7F4FC801A9D51C821B8242E050E01D
:10552000BE016D5F7F4FC801A0D542E050E0BE01D3
:105530006D5F7F4FC80199D542E050E0BE016D5FBD
:105540007F4FC80192D56701F6018081882301F160
:10555000F7016F018191811113C05601AE18BF0888
:105560001A141B0484F4AD8241E050E0BE016B5F6D
:105570007F4FC8017AD5A501B701C80176D503C010
:105580008E3239F7EACF7601FFEFEF1AFF0ADCCF50
:105590001D8241E050E0BE016B5F7F4FC80165D5C1
:1055A000E12CFF24F394FC82EB8242E050E0BE0148
:1055B0006D5F7F4FC80159D5FC82EB8242E050E01D
:1055C000BE016D5F7F4FC80150D581E090E00F9024
:1055D0000F900F900F900F90DF91CF911F910F912F
:1055E000FF90EF90DF90CF90BF90AF9008954F92D3
:1055F0005F926F927F928F929F92AF92BF92CF9263
:10560000DF92EF92FF920F931F93CF93DF93CDB76B
:10561000DEB763970FB6F894DEBF0FBECDBF7C0137
:105620005B016A010E9427EB2B013C018701085FA7
:105630001F4F4501A12CB12CC801B1D51816190670
:1056400094F00E9427EB641975098609970986165C
:105650009706A806B906D0F062E370E080E090E01B
:105660000E9456EBE9CFF701428153816481758135
:10567000808D918DA28DB38D481759076A077B07DE
:1056800041F4848D958DC59721F406C08FEF9FEF6F
:10569000E1C08EEF9FEFDEC0C801AED40C97E4F0FE
:1056A0004CE050E0BE016F5F7F4FC80119D56C819F
:1056B0008B810E9418F49A8B898BF701E680F78022
:1056C0006A8189810E9418F4E816F90641F48989F3
:1056D0009A8997FF04C008C08DEF9FEFBBC0C80137
:1056E000A5D48CEF9FEFB6C08F709270892B29F0F4
:1056F000C8019CD48BEF9FEFADC068858F810E945D
:1057000018F45C01009719F0E12CF12C1DC0C801C0
:105710008DD48AEF9FEF9EC041E050E0BE01635FF1
:105720007F4FC801DDD48D85811116C08D85811113
:10573000F3CFC801ADD4C801ABD4C801A9D4C80106
:10574000A7D4FFEFEF1AFF0A6E818D810E9418F433
:10575000E816F90608F309C08D859FEF980F9D871D
:10576000882321F3C80194D4F7CFE12CF12C41E038
:1057700050E0BE016D5E7F4FC801B2D48B89982F77
:10578000907C59F4882361F08B899FEF980F9B8B55
:10579000882331F0C8017CD4F7CFC80179D41B8AA3
:1057A0008B898111E4CF42E050E0BE01615F7F4F01
:1057B000C80196D442E050E0BE01635F7F4FC8014C
:1057C0008FD4C80165D4C80163D4C80161D4C801AD
:1057D0005FD442E050E0BE016F5E7F4FC80180D4CD
:1057E0008F8598898115914029F48D859E85811535
:1057F000914019F0812C912C14C089899A898115C6
:10580000944029F0C80112D487EF9FEF23C0B6015E
:105810006E5F7F4F44E050E0C80162D481E090E0C9
:1058200019C089899A8998278927982788169906FF
:1058300030F4C8012DD42FEF821A920AF2CF8FEFE5
:10584000E81AF80AEA14FB0409F091CFC801EED374
:1058500086EF9FEF63960FB6F894DEBF0FBECDBF05
:10586000DF91CF911F910F91FF90EF90DF90CF903C
:10587000BF90AF909F908F907F906F905F904F9070
:1058800008958F929F92AF92BF92CF92DF92EF9244
:10589000FF920F931F93CF93DF9300D000D0CDB72B
:1058A000DEB78C015B016A01BFDD4C01009709F096
:1058B00057C0F80142815381648175818091320C17
:1058C0009091330CA091340CB091350C48175907C6
:1058D0006A077B0709F448C00E9427EB7801F8E0CB
:1058E000EF0EF11C6F7077277C5FC7012DD48130DC
:1058F00009F03EC086E396E09A838983F8018281AD
:105900009381A481B5818B839C83AD83BE8345E362
:1059100050E0BE016F5F7F4FC7019DD3892B19F403
:10592000812C912C1AC0B501C801BCDD892BC1F3B3
:10593000C70198D3892BA1F333E0A32EB12CA60184
:1059400068E873E1C80153DE4C01F1E0AF1AB10819
:1059500021F08F3F2FEF920791F3C70168D308C062
:1059600088248394912C04C09EEF892E99249A94C4
:10597000C40126960FB6F894DEBF0FBECDBFDF91EF
:10598000CF911F910F91FF90EF90DF90CF90BF903C
:10599000AF909F908F9008958091720C882361F052
:1059A0009FB7F8942091720C8091700C213019F4FB
:1059B0008DBB9FBF08958FBF089526E336E0FC019D
:1059C00031832083FB014281538164817581FC0115
:1059D000428353836483758308950F9300E020E02E
:1059E00040E060E086E49CE00E9455F286E39CE0A3
:1059F0000F910C944BF281E086270895862F08952D
:105A0000DC01ED91FC91048CF58DE02D199591E070
:105A100089270895CF93DF931F92CDB7DEB76983AF
:105A2000DC01ED91FC910280F381E02D41E050E03A
:105A3000BE016F5F7F4F19950F90DF91CF91089551
:105A400021E0FC018485843009F420E0822F089550
:105A5000FC019485FB018485981303C081E0943098
:105A600009F480E008950F931F93CF93DF93EC0127
:105A70008A018C85843019F0A1D6892B39F481E014
:105A800090E09B838A8380E090E001C0C801DF91B1
:105A9000CF911F910F910895FC018485843009F006
:105AA0006FC780E090E00895CF93DF931F92CDB74A
:105AB000DEB741E050E0BE016F5F7F4FFC0184859F
:105AC00004D7181619061CF4898190E002C08FEFE4
:105AD0009FEF0F90DF91CF910895FC018485F5C66B
