:100000000C94F1120D948C160D94B7160D94E21603
:100010000D940D170D9438170D9463170D948E17CA
:100020000D94B9170C9422130C9422130C942213E0
:100030000C9422130C9422130C9422130C9422136C
:100040000C9422130C9422130C9422130C9422135C
:100050000C9422130C9422130C9422130D94E41785
:100060000C9422130D949B1C0D94D11C0C94221300
:100070000C9422130C9422130C9422130C9422132C
:100080000C9422130C9422130C9422130C9422131C
:100090000D94461D0D947C1D0C9422130C94F85461
:1000A0000C9422130C9422130C9422130C942213FC
:1000B0000C9422130C9422130C9422130C942213EC
:1000C0000C9422130C9422130C9422130D94F11D02
:1000D0000D94271E0C9422130D949C1E0D94D21E79
:1000E0000C942213BE4B3E4C094C034C124C164C44
:1000F000334CAB61AE61B161B461B761BA61BD61EE
:10010000C061A8615662F661F961FC61FF61066237
:1001100020623662C263CF623A63C4637164E8638B
:100120000C644D663B663E664166446647664A66B9
:1001300027872A872D873D874D8750875387568786
:10014000648767876E877E87B4D723D826D829D857
:100150002CD82FD832D835D838D83BD85CD88AD8C4
:10016000B7D7BAD7B1D7CFD7D2D7D5D7D8D7DBD78C
:10017000DED7E1D7E4D7FDDDCADCFCDCFCDCFCDC4F
:1001800089DD89DD89DD9BDDFCDCC2DDDFDDFCDCBA
:10019000FCDC07DD98DC49019501810199017701BB
:1001A0007D0125016F0167015F011D0117010D012F
:1001B000590191018D01550179014F0161017101D1
:1001C0006B01850197013B019B0129010F01610131
:1001D00019013D01270157015301010103014701A5
:1001E00043012101450107018B016D015D012301DF
:1001F000310143013501830175010D94DB0C0D9430
:10020000381B0D94E4190D94E8190D9473080D949E
:10021000031A0D94DF150D94041F0D947E160D9492
:10022000A8190D94E1030D94E90C0D94FB1E0D9497
:1002300078160D94B2190D94AC0D0D9476160D949C
:1002400004010D94F9190D94151A0D9458160D9476
:10025000C6190D949E190D94AE1D0D94AF1F0D94EB
:10026000461B0D94191A0D94501E0D941F1A0D94CF
:10027000ED080D94FA000D9485190D94BC190D9498
:10028000F3150D942B1B0D942C1A0D94FD190D9440
:10029000EE190D943F160D94591E0D94A51D0D9445
:1002A00057190D94D31F0D94F5190D9443190D94FE
:1002B000F2190D9480160D9480070D94111A0D9467
:1002C00074160D94D0190D94FA1C0D94031D0D9401
:1002D00072160D942D1B0D9469190D940B1A0D9423
:1002E0007C160D9461190D94471F0D94271A0D94D7
:1002F0002A160D944D190D94B41B0D944B160D94A4
:100300005A1B0D9411160D94231A0D9471190D9406
:10031000D51B0D94ED150D94071A0D943E190D94EF
:10032000F0000D9439190D94F1010D9409160D94F6
:100330007B190D941D160D948F1952454144590097
:1003400000202D200020002C20005245414459005F
:100350003E007C3C3E5E2B3D3F2F5B5D3B2C2A22CA
:100360005C00005EBCE2613FDD83C29C7E20A3FD99
:100370001F419DC3217FFCA2401E5F01E3BD3E6083
:1003800082DC237D9FC1421CFEA0E1BF5D0380DEB5
:100390003C62BEE0025CDF81633D7C22C09E1D4367
:1003A000A1FF4618FAA427799BC584DA3866E5BB15
:1003B0005907DB856739BAE406581947A5FB782643
:1003C000C49A653BD987045AB8E6A7F91B45C69875
:1003D0007A24F8A6441A99C7257B3A6486D85B0527
:1003E000E7B98CD2306EEDB3510F4E10F2AC2F71D5
:1003F00093CD114FADF3702ECC92D38D6F31B2EC03
:100400000E50AFF1134DCE90722C6D33D18F0C5234
:10041000B0EE326C8ED0530DEFB1F0AE4C1291CFE6
:100420002D73CA947628ABF517490856B4EA693794
:10043000D58B5709EBB536688AD495CB2977F4AAC2
:100440004816E9B7550B88D6346A2B7597C94A14F4
:10045000F6A8742AC896154BA9F7B6E80A54D789A6
:100460006B351112131415160A0B0C0D0E0F00012B
:1004700002030405FFD0FFE0FFCFFF64FFD1FF328E
:10048000380C060201FF64FFD0FFFE25642C2530E6
:1004900032750042464C4F570041464C4F57005072
:1004A0004800534F494C004C494748540048554D6B
:1004B00049444954590054454D50005F0042464C50
:1004C0004F570041464C4F5700504800534F494C3E
:1004D000004C494748540048554D49444954590037
:1004E00054454D50005F0020D0BB0020D0BBD18EC2
:1004F000D0BAD1810020704800250020430030315F
:10050000323334353637383941424344454600D0DA
:10051000A2D180D0B5D0B2D0BED0B3D0B02120D03F
:10052000A1D180D0B0D0B1D0BED182D0B0D0BBD01C
:10053000BE20D0BFD180D0B0D0B2D0B8D0BBD0BE5A
:100540003A20007C007C004F4646004F4E0052553A
:100550004C455F535441544500504152414D535F07
:100560004D49535345440052554C455F53544154F3
:1005700045007C0043545345543D007C007C007C86
:100580000052554C455F5649455700504152414D28
:10059000535F4D49535345440052554C455F5649AE
:1005A0004557007C0052554C45535F434E54005212
:1005B000554C45535F434E5400504152414D535F9B
:1005C0004D4953534544007C007C0044454C455400
:1005D00045440052554C455F44454C455445007CCC
:1005E000007C0044454C455445440052554C455F01
:1005F00044454C45544500414C4C00504152414DFE
:10060000535F4D49535345440052554C455F444553
:100610004C455445007C007C0052554C455F53547A
:10062000415445007C007C0052554C455F53544179
:10063000544500414C4C0031004F4E005041524156
:100640004D535F4D49535345440052554C455F53FC
:1006500054415445005341564500534156450041CD
:10066000444445440052554C455F41444400504188
:1006700052414D535F4D4953534544004E4F545FD3
:10068000535550504F5254454400554E4B4E4F57C2
:100690004E5F434F4D4D414E44004F4E0050494E2A
:1006A0000043430057494E444F577C414C4C7C43D8
:1006B0004C4F53450057494E444F577C414C4C7C5E
:1006C0004F50454E005354415445004F4E004C4945
:1006D000474854007C002C005F002554432500252A
:1006E000544F25003E3D003C3D003C003E0050483C
:1006F00000534F494C0050494E0048554D4944491C
:100700005459004C494748540054454D500030005E
:1007100031007C002C005F007C007C007C007C00B1
:10072000255443250025544F25007C003E3D003CC8
:100730003D003E003C007C007C005F0050480053C0
:100740004F494C0050494E0048554D494449545971
:10075000004C494748540054454D50007C007C00F3
:100760004F4646007C004F4E007C007C00455845BB
:1007700043004F4646004F4E0057494E444F577C6A
:10078000414C4C7C434C4F53450057494E444F57C6
:100790007C414C4C7C4F50454E00504800534F49D3
:1007A0004C0044454C54410048554D494449545926
:1007B000004343004C494748540050494E005354AD
:1007C0004154450030003000504800534F494C0020
:1007D00044454C54410048554D49444954590043FF
:1007E00043004C494748540050494E00535441542B
:1007F00045005345540047455400435400005041C0
:1008000052414D535F4D4953534544004144444583
:10081000440041444400504152414D535F4D4953BF
:100820005345440041444445440045584543004134
:100830004444454400534156450044454C455445C5
:10084000440044454C00504152414D535F4D495383
:10085000534544004E4F545F535550504F525445EA
:100860004400554E4B4E4F574E5F434F4D4D414EFA
:1008700044004F4E007C0050494E7C004F464600DD
:100880007C0050494E7C004C494748547C4F4E00F8
:100890004C494748547C4F46460053544154457C8C
:1008A00057494E444F577C414C4C7C4F50454E006D
:1008B00053544154457C57494E444F577C414C4C0E
:1008C0007C434C4F5345007C004144444544007CEC
:1008D0000041444400554E4B4E4F574E5F434F4DE1
:1008E0004D414E4400504152414D535F4D49535389
:1008F000454400504152414D535F4D495353454487
:1009000000414444007C0041444445440044454C7B
:100910000044454C007C004144444544005341564A
:1009200045005341564500504152414D535F4D499A
:1009300053534544007C007C007C007C007C007CA0
:10094000005649455700504152414D535F4D495360
:1009500053454400504152414D535F4D4953534517
:10096000440056494557007C00434E5400434E54C2
:1009700000504152414D535F4D495353454400553A
:100980004E4B4E4F574E5F434F4D4D414E4400002E
:1009900057494649202D20636865636B20666F7256
:1009A00020636F6D6D616E64732E2E2E0057494665
:1009B00049202D207265706F727420746F207365EA
:1009C000727665722E2E2E0057494649202D2062E0
:1009D0007573792C2074727920616761696E20616A
:1009E000667465722035207365636F6E64732E2E96
:1009F0002E0050726F7669646572207265706F7236
:100A0000747320444F4E453A200052415720636F83
:100A10006D6D616E643A200043545345543D007C33
:100A20004F46460050494E7C007C4F4E0050494E88
:100A30007C004C494748547C4F4646004C49474847
:100A4000547C4F4E0057415445527C4F46467C00E3
:100A500057415445527C4F4E7C0057415445527C7F
:100A60004F46460057415445527C4F4E007C434C04
:100A70004F53450053544154457C57494E444F57BA
:100A80007C007C4F50454E0053544154457C57499F
:100A90004E444F577C0053544154457C57494E4473
:100AA0004F577C414C4C7C434C4F53450053544171
:100AB00054457C57494E444F577C414C4C7C4F50D9
:100AC000454E00436F6D6D616E6420706172616DA3
:100AD0003A20004B6E6F776E20636F6D6D616E64B0
:100AE0003A2000436F6D6D616E642049443A2000E6
:100AF0005B7E5D005B7E5D005B434D44454E445D27
:100B00000026723D3126633D006B3D000D0A000D4D
:100B10000A00436F6E74656E742D4C656E67746861
:100B20003A20000D0A00504F5354202F636865632C
:100B30006B5F636F6D6D616E64732E7068702048BB
:100B40005454502F312E310D0A436F6E6E6563740D
:100B5000696F6E3A20636C6F73650D0A436F6E7434
:100B6000656E742D547970653A206170706C69639C
:100B70006174696F6E2F782D7777772D666F726D40
:100B80002D75726C656E636F6465640D0A486F73D2
:100B9000743A20005265706F727420746F20736510
:100BA000727665722E2E2E005155455259204953AA
:100BB0003A20006B3D000D0A000D0A00436F6E7471
:100BC000656E742D4C656E6774683A20000D0A00DE
:100BD000504F5354202F636865636B5F636F6D6D77
:100BE000616E64732E70687020485454502F312EFB
:100BF000310D0A436F6E6E656374696F6E3A2063E0
:100C00006C6F73650D0A436F6E74656E742D547945
:100C100070653A206170706C69636174696F6E2FE2
:100C2000782D7777772D666F726D2D75726C656E86
:100C3000636F6465640D0A486F73743A20004173F2
:100C40006B696E6720666F7220636F6D6D616E6495
:100C5000732E2E2E0050726F766964657220617358
:100C60006B696E6720666F7220646174612E2E2E30
:100C7000007777772E6E746D702E72750050726FDC
:100C800076696465722061736B696E6720666F7246
:100C900020686F73742E2E2E007C007C004E4F5403
:100CA0005F535550504F52544544007C007C0041E6
:100CB0004C4C007C00434E5400434E540050415273
:100CC000414D535F4D4953534544004E4F545F537C
:100CD0005550504F52544544007C007C007C007CB1
:100CE000007C00545F5345545400504152414D53D1
:100CF0005F4D4953534544004144444544005041ED
:100D000052414D535F4D495353454400545F534541
:100D1000545400504152414D535F4D495353454443
:100D2000004E4F545F535550504F52544544003D70
:100D3000006669656C64002600D0A2D0B7D0B0D040
:100D4000BAD18000D0A2D0BED182D0BAD180004C1E
:100D5000494748547C4D4F44457C4D414E55414C8C
:100D6000004C494748547C4D4F44457C4155544FB5
:100D7000004C494748547C4F4646004C494748542C
:100D80007C4F4E00D0B0D0B2D182D0BE00D0B2D114
:100D90008BD0BAD0BB00D0B2D0BAD0BB0057415430
:100DA00045527C4D4F44457C4D414E55414C00577A
:100DB000415445527C4D4F44457C4155544F00575A
:100DC000415445527C4F46460057415445527C4F52
:100DD0004E00D0B0D0B2D182D0BE00D0B2D18BD034
:100DE000BAD0BB00D0B2D0BAD0BB00D0B0D0B2D154
:100DF00082D0BE00D0B7D0B0D0BAD18000D0BED1A2
:100E000082D0BAD1800053544154457C4D4F444563
:100E10007C4D414E55414C0053544154457C4D4FFF
:100E200044457C4155544F0053544154457C5749E7
:100E30004E444F577C414C4C7C434C4F53450053E0
:100E4000544154457C57494E444F577C414C4C7C4F
:100E50004F50454E00253032642E253032642E2509
:100E60006420253032643A25303264003CD0BDD055
:100E7000B5D18220D0B4D0B0D0BDD0BDD18BD1857A
:100E80003E0000000000FC3F1428142814281428F9
:100E90001428F42FE427242724272427F83F0000D0
:100EA000000000000000E0031004080808084809DA
:100EB00088089004A002A002E003E003C001000043
:100EC000000000000000800180018001C003E006F6
:100ED000E005F00DF00BF00DF00DE007C003000091
:100EE000000000000000FC3F042204220422043E13
:100EF000042204220422042204220422FC3F0000D3
:100F0000000000000000C001C003E003C0010000B9
:100F1000E003C003C003C003C003C003000000001F
:100F2000000000000000FC3FFC3F0C300C300C3097
:100F30000C300C300C300C300C30FC3FFC3F00000F
:100F4000000000000040FC3FFC3F0C380C340C3229
:100F50002C33FC31CC30CC300C30FC3FFC3F00005B
:100F6000000000000000C003F00F381C18180C30FF
:100F70000C300C300C301818381CF00FC003000077
:100F8000000000000000C003F00F381C18188C315E
:100F9000CC33CC338C311818381CF00FC003000050
:100FA000000000060A00FE070199032B20FFFE083F
:100FB000FE07FE0000000605FF010707060200808D
:100FC000808080800080030303060104A0A0A005A8
:100FD00007070600005050F850F850500507070664
:100FE00000002070A0702870200507070600004848
:100FF000A8502050A89005070706000040A0A04078
:10100000A890680103030602048080800307070696
:1010100001002040808080402003070706010080F7
:101020004020202040800505050600018850F8502A
:10103000880505050600012020F82020030303068B
:1010400001FF604080040101060103F00303030671
:1010500001FF40E040050707060000080810204097
:1010600080800507070600002050888888502005EA
:1010700007070600002060A0202020F805070706CB
:101080000000708808304080F8050707060000F867
:1010900008103008887005070706000010305090CF
:1010A000F81010050707060000F880B0C80888701F
:1010B000050707060000304080B0C88870050707A4
:1010C000060000F808101020404005070706000041
:1010D00070888870888870050707060000708898F7
:1010E000680810600307070601FF40E0400040E089
:1010F000400307070601FF40E0400060408004070E
:101100000706010010204080402010050303060060
:1011100002F800F804070706010080402010204074
:1011200080050707060000708810202000200507B2
:1011300007060000708898A8B080700507070600B1
:101140000020508888F88888050707060000F048C6
:1011500048704848F00507070600007088808080C6
:101160008870050707060000F04848484848F00521
:101170000707060000F88080F08080F80507070662
:101180000000F88080F0808080050707060000706E
:10119000888080988870050707060000888888F88E
:1011A000888888030707060100E04040404040E08F
:1011B000050707060000381010101090600507079B
:1011C0000600008890A0C0A09088050707060000D0
:1011D000808080808080F80507070600008888D816
:1011E000A88888880507070600008888C8A8988806
:1011F00088050707060000708888888888700507BA
:1012000007060000F08888F0808080050808060046
:10121000FF7088888888A87008050707060000F016
:101220008888F0A090880507070600007088807005
:10123000088870050707060000F8202020202020DD
:1012400005070706000088888888888870050707D2
:1012500006000088888850505020050707060000C7
:10126000888888A8A8D888050707060000888850BD
:101270002050888805070706000088885020202015
:1012800020050707060000F80810204080F8030733
:1012900007060100E08080808080E00507070600E7
:1012A0000080804020100808030707060100E020A6
:1012B00020202020E00503030600042050880501BB
:1012C000010600FFF802020206020680400505053D
:1012D00006000070087888780507070600008080FF
:1012E000B0C888C8B0050505060000708880887001
:1012F000050707060000080868988898680505052E
:101300000600007088F88070050707060000304866
:1013100040F04040400507070600FE7888887808BE
:1013200088700507070600008080B0C88888880399
:1013300007070601004000C0404040E004090906DC
:1013400001FE100030101010909060050707060095
:101350000080808890E09088030707060100C04065
:1013600040404040E0050505060000D0A8A8A88838
:10137000050505060000B0C8888888050505060033
:101380000070888888700507070600FEB0C888C806
:10139000B080800507070600FE68988898680808EE
:1013A000050505060000B0C880808005050506001B
:1013B0000070807008F00507070600004040F0400C
:1013C00040483005050506000088888898680505AE
:1013D0000506000088885050200505050600008895
:1013E00088A8A850050505060000885020508805EB
:1013F00007070600FE8888986808887005050506B6
:101400000000F8102040F8040707060100304020D3
:10141000C020403001070706020080808080808065
:1014200080040707060100C02040304020C00503AB
:101430000306000448A890FF0507070600FEB0C891
:1014400088C8B08080050505060000708880887017
:10145000050505060000F8202020200507070600E6
:10146000FE888888780888700509090600FE202013
:1014700070A8A8A870202005050506000088502047
:1014800050880507070600FE90909090F808080520
:10149000050506000088887808080505050600008F
:1014A000A8A8A8A8F80507070600FEA8A8A8A8F8F5
:1014B0000808050505060000C040704870050505D0
:1014C0000600008888E898E8040505060100808089
:1014D000E090E00505050600007088388870050575
:1014E0000506000090A8E8A890050505060000780C
:1014F0008878888805070706000020508888F888C3
:1015000088050707060000F08080F08888F005074E
:1015100007060000F08888F08888F00507070600B5
:1015200000F88080808080800508080600FF182869
:1015300028484848F888050707060000F88080F02A
:101540008080F8050707060000A8A8A870A8A8A82A
:10155000050707060000708808300888700507072F
:10156000060000888898A8C8888805080806000032
:1015700050208898A8C8888805070706000088902A
:10158000A0C0A090880507070600003848484848D2
:1015900048880507070600008888D8A88888880535
:1015A0000707060000888888F888888805070706E6
:1015B000000070888888888870050707060000F892
:1015C000888888888888050707060000F08888F0E2
:1015D0008080800507070600007088808080887002
:1015E000050707060000F820202020202005070717
:1015F0000600008888885020408005070706000004
:101600002070A8A8A8702005070706000088885049
:10161000205088880509090600FE909090909090CF
:10162000F808080507070600008888887808080871
:10163000050707060000A8A8A8A8A8A8F805090992
:101640000600FEA8A8A8A8A8A8F808080507070685
:101650000000C04040704848700507070600008839
:101660008888E89898E8040707060100808080E0F1
:101670009090E00507070600007088083808887019
:1016800005070706000090A8A8E8A8A89005070786
:101690000600007888887828488805050506000037
:1016A00070087888780507070600007880708888B9
:1016B0008870050505060000F088F088F00405052F
:1016C000060100F0808080800506060600FF30508D
:1016D0005050F8880505050600007088F8807005F0
:1016E0000505060000A8A870A8A8050505060000C5
:1016F00070883088700505050600008898A8C8889D
:1017000005070706000050208898A8C88805050529
:101710000600008890E0908805050506000038481E
:1017200048488805050506000088D8A8888805056A
:10173000050600008888F888880505050600007001
:1017400088888870050505060000F888888888FF65
:10175000FFFFFFFFFFFFFFFFFFFFFFFFFFFFFFFF99
:10176000FFFFFFFFFFFFFFFFFFFFFFFFFFFFFFFF89
:10177000FFFFFFFFFFFFFFFFFFFFFFFFFFFFFFFF79
:10178000FFFFFFFFFFFFFFFFFFFFFFFFFFFFFF5513
:101790004E4B4E4F574E5F434F4D4D414E440050C0
:1017A0004152414D535F4D495353454400454E44CA
:1017B0005F4F465F46494C4500464F4C4C4F5700E3
:1017C0003D004F4B002F00616374696F6E730041E1
:1017D0004354494F4E00504152414D535F4D495380
:1017E00053454400454E445F4F465F46494C4500D3
:1017F000464F4C4C4F57003D004F4B002F006C6F35
:1018000067730046494C45004E4F545F5355505046
:101810004F5254454400554E4B4E4F574E5F434F29
:101820004D4D414E44002C003B0022002200504808
:1018300000534D00574600524C005248005254008D
:1018400030003A0030002F006C6F6773002E4C4F51
:101850004700300030000D0A002C007C004F464647
:10186000004F4E007C004D414E55414C00415554B7
:101870004F005354415445005354415445007C009B
:101880004D414E55414C004155544F004D4F44453C
:10189000004D4F4445007C007C007C004D414E557E
:1018A000414C004155544F004D4F44450041555463
:1018B0004F004D414E55414C004D4F4445004F4661
:1018C00046004F4646004F4E004F4E005041524199
:1018D0004D535F4D495353454400554E4B4E4F5762
:1018E0004E5F434F4D4D414E440000554E4B4E4FC1
:1018F000574E5F4D4F44554C45007C003D004552CE
:10190000004F4B002B0046000046004430004600CC
:10191000002B000A003931004600303132333435B3
:1019200036373839414243444546007C007C004EFE
:101930004F545F535550504F52544544007C004320
:101940004E5400434E54007C007C007C007C007CA4
:10195000007C007C007C007C007C00545F5345547C
:101960005400545F53455454007C007C00414C4C5F
:1019700000504152414D535F4D495353454400413E
:101980004444454400504152414D535F4D495353E7
:10199000454400545F5345545400504152414D5307
:1019A0005F4D4953534544004E4F545F535550507B
:1019B0004F52544544002C007C004F4646004F4E89
:1019C0000054004F4E003100444554414348007CD0
:1019D000004F4646004F4E00504152414D535F4D1F
:1019E000495353454400414444454400534F494CF6
:1019F000004C494748540048554D49444954590002
:101A0000535441544500534F494C004C49474854A6
:101A10000048554D49444954590054454D500050D3
:101A20004152414D535F4D49535345440041444455
:101A300000414444454400534156450044454C450B
:101A40005445440044454C007C00534F494C004CE5
:101A5000494748540048554D494449545900535446
:101A6000415445007C00534F494C004C4947485471
:101A70000048554D49444954590054454D50007C47
:101A8000007C005649455700504152414D535F4D2F
:101A9000495353454400504152414D535F4D4953C2
:101AA0005345440056494557007C00434E5400437B
:101AB0004E5400554E4B4E4F574E5F434F4D4D4188
:101AC0004E44003132333435363738005445504CAB
:101AD00049434100000000000000554E4B4E4F5757
:101AE0004E5F434F4D4D414E44007C0041444445C0
:101AF000440042414C0042414C007C0050524F5641
:101B00000050524F56007C00414444454400535419
:101B10004154005354415400504152414D535F4D84
:101B2000495353454400554E4B4E4F574E5F434F1C
:101B30004D4D414E44007C00504152414D535F4D4C
:101B400049535345440050524F56007C0041444491
:101B500045440050524F5600504152414D535F4D45
:101B60004953534544007C0050524F560050524F49
:101B700056004E4F545F535550504F5254454400F9
:101B80004144444544002E736D73002F00736D7300
:101B900000504152414D535F4D495353454400411C
:101BA000444400504152414D535F4D4953534544C5
:101BB0000041542B434D47533D00D0B2D0BAD0BB67
:101BC00000D0B2D18BD0BAD0BB004F464600D09FD8
:101BD000D0BED0BBD0B8D0B23A2000574154455205
:101BE000000D0A00D0B7D0B0D0BAD18000D0BED19D
:101BF00082D0BAD180004F50454E00D09ED0BAD08E
:101C0000BDD0B03A200053544154457C57494E440E
:101C10004F577C30000D0A003CD0BDD0B5D182209A
:101C2000D0B4D0B0D0BDD0BDD18BD1853E00D0A234
:101C3000D0BDD0B0D1803A20000D0A003CD0BDD03C
:101C4000B5D18220D0B4D0B0D0BDD0BDD18BD1859C
:101C50003E00D0A2D0B2D0BD3A20005354415445EA
:101C600000434C4F534544004F50454E494E4700AA
:101C70004F50454E007C0053544154457C57494ECB
:101C8000444F577C414C4C0041542B434D47443DFD
:101C9000312C34004154480041542B435245473FB6
:101CA0000041542B434E4D493D322C320041542BC0
:101CB000435343533D2255435332220041542B4357
:101CC0004D47463D300041542B434C49503D310077
:101CD00041542B435343423D31004154453000228F
:101CE0000041542B435553443D312C22002A3130BE
:101CF0003023002A31323023002A31303023002AA9
:101D000031303023002A31303023002A313035235E
:101D1000002A31303023002A31303223002A31307A
:101D200030230041540041542B435041530041544F
:101D30002B43474D4D000D0A002B004F4B002E73D7
:101D40006D73002F00736D73002335002339005726
:101D5000415445527C4F4646002336005741544576
:101D6000527C4F4E002334004C494748547C4D4F21
:101D700044457C4155544F0057415445527C4D4F8A
:101D800044457C4155544F0053544154457C4D4F7C
:101D900044457C4155544F00233800535441544529
:101DA0007C57494E444F577C414C4C7C434C4F53DD
:101DB000450023300053544154457C57494E444F0D
:101DC000577C414C4C7C4F50454E002331002B43F7
:101DD0004D543A002B434C49503A003E002B43529D
:101DE00045473A20302C31002B435553443A002BC1
:101DF000435041533A2030002B435041533A005353
:101E0000494D383030004D35393000534D53205254
:101E1000656164790050425245414459004552522F
:101E20004F52004F4B007C004E4F545F5355505063
:101E30004F52544544007C00434E5400434E5400DE
:101E40007C00414C4C00504152414D535F4D495331
:101E5000534544004E4F545F535550504F525445D4
:101E60004400200020004441544554494D45007C25
:101E700000555054494D4500555054494D45007C3E
:101E8000004652454552414D004652454552414D4E
:101E900000504152414D535F4D4953534544004E0C
:101EA0004F545F535550504F5254454400554E4B7C
:101EB0004E4F574E5F434F4D4D414E44007C007C8A
:101EC00000545F5345545400545F53455454007CB0
:101ED00000494E54455256414C00494E54455256C5
:101EE000414C007C004D414E55414C004155544FF2
:101EF000004D4F4445004D4F4445007C007C005749
:101F0000494E444F5700434C4F534544004F5045B2
:101F10004E00434C4F53494E47004F50454E494E9B
:101F200047004E4F545F535550504F525445440054
:101F30007C007C007C0053544154454D41534B0080
:101F400057494E444F570053544154454D41534B0C
:101F5000007C0057494E444F575F434E5400574949
:101F60004E444F575F434E540057494E444F57001D
:101F70007C007C0054454D50004E4F545F535550EB
:101F8000504F52544544007C0054454D5000414C44
:101F90004C007C0054454D505F434E540054454D19
:101FA000505F434E540054454D50007C0041444422
:101FB000454400494E54455256414C00494E544503
:101FC0005256414C007C004D4F4445004D414E550A
:101FD000414C007C004D4F4445004155544F004D4D
:101FE0004F4445007C00414444454400545F534500
:101FF000545400545F5345545400434C4F5345448C
:10200000004F50454E00434C4F53494E47004F50F0
:10201000454E494E4700434C4F53494E47004F50A1
:10202000454E494E47007C007C00434C4F5345448D
:10203000004F50454E00434C4F53494E47004F50C0
:10204000454E494E4700434C4F53494E47004F5071
:10205000454E494E4700414C4C004F50454E0057AD
:10206000494E444F5700504152414D535F4D4953E3
:1020700053454400414444454400504152414D536E
:102080005F4D4953534544007C007C007C007C003C
:10209000504800534F494C004C494748540048555C
:1020A0004D4944495459005354415445004C494703
:1020B00048547C4D4F44457C4D414E55414C004C5D
:1020C000494748547C4D4F44457C4155544F004C42
:1020D000494748547C4F4646004C494748547C4F3A
:1020E0004E0057415445527C4D4F44457C4D414E26
:1020F00055414C0057415445527C4D4F44457C411D
:1021000055544F0057415445527C4F464600574165
:102110005445527C4F4E0053544154457C4D4F44DE
:10212000457C4D414E55414C0053544154457C4DE6
:102130004F44457C4155544F0053544154457C57BE
:10214000494E444F577C414C4C7C4F50454E0053B8
:10215000544154457C57494E444F577C414C4C7C2C
:10216000434C4F5345007C007C00545F534554540E
:1021700000545F5345545400504152414D535F4DFC
:10218000495353454400414444454400525354008C
:10219000414444454400504152414D535F4D4953E1
:1021A00053454400545F5345545400504152414DEF
:1021B000535F4D495353454400554E4B4E4F574E78
:1021C0005F434F4D4D414E4400554E4B4E4F574E81
:1021D0005F434F4D4D414E44007C007C007C007CB1
:1021E0000043485F534554540043485F534554549B
:1021F00000300031007C007C0053544154454D4177
:10220000534B0053544154454D41534B007C004DBA
:10221000414E55414C004155544F004D4F444500EF
:102220004D4F4445007C004348414E4E454C5300C1
:102230004348414E4E454C53007C007C007C007C62
:10224000007C00545F5345545400545F534554542C
:10225000007C004D414E55414C004155544F004FBC
:102260004646004F4E007C004F4646004F46460013
:102270007C004F4E004F4E007C004D4F44450041C6
:1022800055544F004D4F444500504152414D535F0E
:102290004D495353454400554E4B4E4F574E5F43A7
:1022A0004F4D4D414E44007C007C00414444454428
:1022B0000043485F534554540043485F53455454CA
:1022C00000504152414D535F4D4953534544007CAA
:1022D00000414444454400545F5345545400545F06
:1022E0005345545400504152414D535F4D4953534F
:1022F000454400554E4B4E4F574E5F434F4D4D4159
:102300004E4400004144444544003A003A002E0047
:102310002E0020004441544554494D45007C004165
:102320004444454400494400494400555F4E4F4EE3
:102330004500534352415443485F545950455F450B
:1023400052524F5200414444454400555F52454764
:10235000007C004144444544005246005246007C03
:102360000041444445440050484F4E450050484FBA
:102370004E45004144444544004C494748547C4D37
:102380004F44457C4155544F0057415445527C4D74
:102390004F44457C4155544F0053544154457C4D66
:1023A0004F44457C4155544F004155544F005253C2
:1023B0005400504152414D535F4D495353454400E1
:1023C000504152414D535F4D4953534544007C00A9
:1023D000004C495354000D0A003D004F4B0053542C
:1023E0004154007C0050484F4E450050484F4E45E8
:1023F000007C007C007C007C007C00554E49005530
:102400004E49007C007C007C007C007C00574952D7
:102410004544005749524544007C00494400494422
:1024200000555F4E4F4E4500555F5345415243485E
:10243000007C007C007C0050494E530050494E53B4
:10244000007C00524600524600504F4E4700504913
:102450004E4700504152414D535F4D4953534544FF
:10246000004E4F545F535550504F52544544005501
:102470004E4B4E4F574E5F434F4D4D414E44000023
:10248000000A0B02090C0D0E0807030401000000EE
:10249000000000000000000000000000000000003C
:1024A00000000000000000000000001211100000F9
:1024B000000000000000000000000000000000001C
:1024C0000000000000010210202008081020401029
:1024D00020408002010201080402010102040810E8
:1024E0002040808040201008040201800402018006
:1024F000402010080402010804020101020408102F
:1025000020408001020408102040800505050507D1
:102510000508080808020202020A0A08080404045E
:10252000040101010101010101030303030303038A
:1025300003040707070C0C0C0C0C0C0C0C02020219
:102540000206060606060606060B0B0B0B0B0B0B0C
:102550000B000020002300260029002C002F003251
:10256000000001000003010601090100002200250E
:102570000028002B002E003100340002010000056D
:102580000108010B0100002100240027002A002D72
:10259000003000330001010000040107010A0100BE
:1025A0009B15341E4621152EA633BA388A3A0E3CA6
:1025B0005A3E0F5413603885D88FC49F2CA0DFA2D9
:1025C000AAAE05BE24FE090165012B014B010B01DA
:1025D0002D016918E58FD89F39A0EBA2B0AE67FE38
:1025E000890111241FBECFEFD1E2DEBFCDBF00E0D5
:1025F0000CBF16E0A0E0B2E0ECECF3E602E00BBFAB
:1026000002C007900D92AC3FB107D9F726E1ACEFBD
:10261000B6E001C01D92A337B207E1F715E2C2EDA3
:10262000D5E200E006C022970109FE010BBF0F941E
:10263000BA2AC03AD10780E00807A9F70F94BF1F54
:102640000D94D5310C940000CF92DF92EF92FF925F
:102650000F931F93E82FF92F05C00150110921098D
:10266000310961F1908196239417B9F305C00150A7
:1026700011092109310911F1908196239413F7CFA3
:10268000C12CD12CE12CF12C0AC08FEFC81AD80A2A
:10269000E80AF80A0C151D052E053F0579F0808122
:1026A0008623841791F36C2D7D2D8E2D9F2D1F91E8
:1026B0000F91FF90EF90DF90CF90089560E070E071
:1026C00080E090E01F910F91FF90EF90DF90CF900E
:1026D000089527ED32E0FC013183208381859285C6
:1026E0000D94562B0F931F93CF93DF93CDB7DEB787
:1026F0002F970FB6F894DEBF0FBECDBF0E947AAC05
:1027000026E040E051EE60E070E08BEE93E10F9444
:10271000391C20E040E060E080E491E10E9429570C
:1027200020E041E061E080E491E10E94295721E04E
:1027300041E06BE380E491E10E94295760E08BE384
:102740000F94661A10920A071092090710920C074C
:1027500010920B078CEA9BE00E94C5AC8FE69CE0D0
:102760009093B30B8093B20B6BE97BE08CEA9BE018
:102770000E9440AD6CE87BE08CEA9BE00E9440AD9B
:102780006CE37AE08CEA9BE00E9440AD63E379E081
:102790008CEA9BE00E9440AD67E179E08CEA9BE027
:1027A0000E9440AD69EF78E08CEA9BE00E9440AD6A
:1027B0006FE878E08CEA9BE00E9440AD6FE778E03C
:1027C0008CEA9BE00E9440AD68E578E08CEA9BE0F3
:1027D0000E9440AD67E478E08CEA9BE00E9440AD47
:1027E0006AE378E08CEA9BE00E9440AD6DEF77E011
:1027F0008CEA9BE00E9440AD69ED77E08CEA9BE0BB
:102800000E9440AD6DEB77E08CEA9BE00E9440AD0A
:1028100066E777E08CEA9BE00E9440AD67EA78E0EB
:102820008CEA9BE00E9440AD87EA98E09093610CAF
:102830008093600C86E090E00F94CB1F8C016CEECF
:1028400076E00F94BD211093C6090093C50967EC8B
:1028500079E08CEA9BE00E9440AD60E27AE08CEA8D
:102860009BE00E9440AD64E07AE08CEA9BE00E942D
:1028700040AD65E677E08CEA9BE00E9440AD6DE0FC
:1028800077E08CEA9BE00E9440AD8CEA9BE00E94DE
:10289000B0AC6AE473E08BEE93E10F94FB1F8CEA1B
:1028A0009BE00E94ADACCE010F960E94C9832983A4
:1028B0003A834B835C836D837E838F83988767E441
:1028C00073E08BEE93E10F94FB1FBE016F5F7F4FB0
:1028D000CE010F960E941D82BC018BEE93E10F94F6
:1028E0002C2065E473E08BEE93E10F94FB1FBE0197
:1028F0006F5F7F4FCE010F960E946D82BC018BEE01
:1029000093E10F942C2061E473E08BEE93E10F943C
:10291000FB1FBE016F5F7F4FCE010F960E94288282
:10292000BC018BEE93E10F942C2060E473E08BEEFE
:1029300093E10F9439206AE373E0CE0109960F9476
:102940008223AE01475F5F4F67EA78E08CEA9BE045
:102950000E94FEACCE0109960F9452212F960FB61D
:10296000F894DEBF0FBECDBFDF91CF911F910F91C5
:1029700008958091010781110DC00F942E18609366
:10298000FD067093FE068093FF069093000781E09A
:10299000809301070F942E184091FD065091FE067A
:1029A0006093FD067093FE068093FF0690930007E8
:1029B0002091090730910A07241B350B260F371F7A
:1029C00030930A072093090780910B0790910C0719
:1029D000009719F0019781F0089528383341D8F015
:1029E00010920A071092090781E090E090930C077B
:1029F00080930B0761E00CC02431310560F0109228
:102A00000A071092090710920C0710920B0760E05A
:102A10008BE30D94661A0895EF92FF920F931F9324
:102A2000CF93DF93CDB7DEB760970FB6F894DEBFD4
:102A30000FBECDBF0F942E182091740C3091750CE1
:102A40007B01E21AF30A6093740C7093750C809307
:102A5000760C9093770C8DDF8091FC0681110EC06F
:102A600081E08093FC0666E080E797E00E94AF8FEC
:102A700068E873E180E797E00E94B78FB70180E7CD
:102A800097E00E94918F80E79CE00E94A3748823C6
:102A9000F1F1CE0101960E945A756091720C70910D
:102AA000730CAE014F5F5F4F8FE69CE00E940A7689
:102AB000882379F08091700C9091710C9A838983AE
:102AC00040E050E0BE016F5F7F4F8CEA9BE00E94C8
:102AD00006AE0091720C1091730C0115110531F0C6
:102AE000C8010F945221C8010F94CF1F86E090E0D7
:102AF0000F94CB1F8C016CEE76E00F94BD211093E8
:102B0000730C0093720CCE0101960E946C7545E126
:102B10005AE1B7018CEA9BE00E9469AE60960FB65D
:102B2000F894DEBF0FBECDBFDF91CF911F910F9103
:102B3000FF90EF900895CF93DF936BEE73E180E702
:102B40009CE00E948C748FE69CE00E947A758CEA6F
:102B50009BE00E947FACC7EDD2E0D0939C0BC0936A
:102B60009B0B85E792E090939E0B80939D0B8FE9E2
:102B70009BE00E94785E85EF95E090939C0B80939C
:102B80009B0B1092A70B1092A60B1092A90B109200
:102B9000A80B1092AB0B1092AA0BD0938D0BC09385
:102BA0008C0B89E792E090938F0B80938E0B80E9DA
:102BB0009BE00E94785E81E496E090938D0B809379
:102BC0008C0BD0933D0AC0933C0A8EE792E0909321
:102BD0003F0A80933E0A80E49AE00E94785E8DE48A
:102BE00096E090933D0A80933C0AE9E4FAE0AAE576
:102BF000BAE0108211821282138214821582168228
:102C0000178282898E7F828B1086118612861386A8
:102C10001486158616861786ED01219718821C9258
:102C20008289817F828B739653968BE0E937F80710
:102C300001F780E89BE00E948A8F1092860BC7ED17
:102C4000D2E0D093210AC093200A84E892E09093C6
:102C5000230A8093220A84E29AE00E94785E87E445
:102C600094E09093210A8093200A1092330A1092E4
:102C7000320A1092350A1092340A1092370A1092D2
:102C8000360AD093050AC093040A88E892E090932C
:102C9000070A8093060A88E09AE00E94785E87E13E
:102CA00094E09093050A8093040A89E294E090935B
:102CB000100A80930F0A10921B0A10921A0A10929F
:102CC0001D0A10921C0A10921F0A10921E0AD0931D
:102CD000C809C093C7098DE892E09093CA09809310
:102CE000C9098BEC99E00E94785E1092D509109288
:102CF000D40988EE93E0A0E0B0E08093D6099093E9
:102D0000D709A093D809B093D90983E196E09093AD
:102D1000C8098093C70987E296E09093D30980930E
:102D2000D2091092E0091092DF091092E209109284
:102D3000E1091092E4091092E309D0933409C09399
:102D4000330981E992E0909336098093350987E34E
:102D500099E00E94785E83EB96E09093340980932B
:102D60003309C1E4D9E0CE010F949D04299689E08E
:102D7000CF3BD807C1F78FEB99E00E948A8FC7ED50
:102D8000D2E0D0931809C093170987E992E0909395
:102D90001A09809319098BE199E00E94785E84E713
:102DA00095E0909318098093170982E299E00E94B8
:102DB0008A8F88E299E00E9426AA8CE299E00E941C
:102DC00026AA86EA92E09093310980933009D09345
:102DD000FA08C093F9088DE992E09093FC0880937B
:102DE000FB088DEF98E00E94785E85E394E0909375
:102DF000FA088093F90884E099E00E94D57F89E081
:102E000099E00E9420D280E091E09093160980938F
:102E10001509D093A808C093A70886EA92E090937A
:102E2000AA088093A9088BEA98E00E94785E8AE657
:102E300095E09093A8088093A70886EB98E00E94FD
:102E40001C8289EB98E0B4D384ED98E0B1D36CEEAA
:102E500076E08FEE98E00F94BD21D0939008C09358
:102E60008F088AEA92E0909392088093910883E910
:102E700098E00E94785E86EA93E0909390088093B1
:102E80008F088CE693E090939E0880939D081092A3
:102E9000A00810929F081092A2081092A108109208
:102EA000A4081092A308D0938008C0937F0880EBF9
:102EB00092E0909382088093810883E898E00E94D2
:102EC000785E80E695E09093800880937F08D093A9
:102ED0005908C093580884EB92E090935B08809364
:102EE0005A088CE598E00E94785E89EA96E0909313
:102EF000590880935808D0934808C093470889EB35
:102F000092E090934A08809349088BE498E00E94ED
:102F1000785E8CE993E0909348088093470810927C
:102F200053081092520810925508109254081092AB
:102F3000570810925608D0933B08C0933A088CEB80
:102F400092E090933D0880933C088EE398E00E94C5
:102F5000785E87E396E090933B0880933A088DE88B
:102F600095E29093460880934508D093FE07C0935E
:102F7000FD0781EC92E0909300088093FF0781E0C9
:102F800098E00E94785E8BEE95E09093FE07809328
:102F9000FD0789E198E00E943A5CD093DA07C0937C
:102FA000D90784EC92E09093DC078093DB078DEDEA
:102FB00097E00E94785E8AEF93E09093DA0780931F
:102FC000D907C5EED7E06CEE76E0CE010F94BD21B7
:102FD000269687E0CD3FD807B1F7C7EDD2E0D09372
:102FE000BE07C093BD0788EC92E09093C007809322
:102FF000BF0781EC97E00E94785E8FEF95E0909399
:10300000BE078093BD078BE096E09093C90780933D
:10301000C8071092D3071092D2071092D5071092CA
:10302000D4071092D7071092D6071092D8071092A3
:10303000CB071092CA071092CD071092CC071092BE
:10304000CF071092CE071092D1071092D007D093DD
:103050007707C09376078DEC92E090937907809381
:1030600078078AE797E00E94785E87E596E090937C
:1030700077078093760781E897E00E941EED80E94C
:1030800097E00E941EED8FE997E00E941EED8EEA08
:1030900097E00E941EED80E797E00E948A8FD09310
:1030A0006607C093650781ED92E09093680780936F
:1030B000670789E697E00E94785E8EEC96E0909331
:1030C0006607809365078DE097E0DF91CF910C94C0
:1030D000A76782E993E090930E0780930D07809194
:1030E0002207909123070F94562B80911C079091F3
:1030F0001D070F94562B8DE097E0EBDA8EEC96E0EF
:10310000909366078093650785E697E0E2DA87E5A6
:1031100096E0909377078093760786E797E0D9DA71
:103120008FEF95E09093BE078093BD078BE096E00C
:103130009093C9078093C8078091D6079091D707CD
:103140000F94562B8DEB97E0C4DA8AEF93E09093BF
:10315000DA078093D90785EE97E0892B09F0EDC057
:1031600089ED97E0B6DA8BEE95E09093FE078093B9
:10317000FD078DEF97E0ADDA87E396E090933B088B
:1031800080933A088AE398E0A4DA8CE993E090937C
:1031900048088093470880915608909157080F94EB
:1031A000562B87E498E095DA89EA96E090935908DF
:1031B0008093580888E598E08CDA80E695E0909353
:1031C000800880937F088FE798E083DA86EA93E0AF
:1031D0009093900880938F088091A3089091A40801
:1031E0000F94562B8FE898E074DA8AE695E0909376
:1031F000A8088093A7088FEE98E00F94522187EAE1
:1032000098E067DA85E394E09093FA088093F908F0
:1032100089EF98E05EDA84E795E09093180980934F
:10322000170987E199E055DA83EB96E0909334092A
:103230008093330983E399E04CDA83E196E090933D
:10324000C8098093C70987E296E09093D3098093D9
:10325000D2098091E3099091E4090F94562B87ECF1
:1032600099E037DA87E194E09093050A8093040AA5
:1032700089E294E09093100A80930F0A80911E0ACD
:1032800090911F0A0F94562B84E09AE022DA87E48B
:1032900094E09093210A8093200A8091360A9091BD
:1032A000370A0F94562B80E29AE013DA8DE496E009
:1032B00090933D0A80933C0A8CE39AE00ADA81E419
:1032C00096E090938D0B80938C0B8CE89BE001DA59
:1032D00085EF95E090939C0B80939B0B8091AA0BBC
:1032E0009091AB0B0F94562B8BE99BE0F2D9809118
:1032F0006D0C90916E0C0F94562B8091670C9091F1
:10330000680C0F94562B82E29CE00F9452218CE1C2
:103310009CE00F94522186E19CE00F94522180E1C1
:103320009CE00F9452218BEB9BE00F9452218091F3
:10333000B00B9091B10B0D94562B87EF97E00F9443
:10334000522181EF97E00F9452218BEE97E00F947A
:10335000522185EE97E00F94522102CF0F931F93D5
:10336000CF93DF9300D000D0CDB7DEB788E894E1EB
:103370000F942D1B892B09F44DC088E894E10F941C
:10338000461B8D3099F38A3049F46091C5097091DC
:10339000C60987EC99E00E9433DC21C09091030AB2
:1033A000992311F08E3341F0682F8091C5099091D7
:1033B000C6090F94CA23DACF1092030A60E573E0BE
:1033C000CE0101960F948223BE016F5F7F4F87EC81
:1033D00099E00E9433DCCE0101960F9452210091B6
:1033E000C5091091C6090115110531F0C8010F94E6
:1033F0005221C8010F94CF1F86E090E00F94CB1F9D
:103400008C016CEE76E00F94BD211093C6090093F9
:10341000C509ACCF26960FB6F894DEBF0FBECDBF60
:10342000DF91CF911F910F91089598CFA2DA96DF87
:1034300087E492E10C94D384CF93DF931F92CDB7AE
:10344000DEB76983DC01ED91FC910280F381E02D10
:1034500041E050E0BE016F5F7F4F19950F90DF9103
:10346000CF910895CF93DF93EC01898D9A8D0097CA
:1034700059F0FC01138212820E948627E98DFA8D91
:1034800022813381232B31F081E090E09B838A837A
:1034900080E090E0DF91CF910895FC01818D928DC5
:1034A000009711F00C945E240895CF93DF931F9240
:1034B000CDB7DEB741E050E0BE016F5F7F4F0E94A5
:1034C0007422019719F4898190E002C08FEF9FEF79
:1034D0000F90DF91CF910895FC01818D928D00971F
:1034E00009F0E3CF8FEF9FEF08950F931F93CF93D2
:1034F000DF938C01FC01818D928D0097B1F0D5DFB7
:10350000EC018F3FFFEF9F0799F0F801818D928DBD
:10351000FC014285538564857585415051096109D7
:1035200071090E94C323CE0105C080E090E002C073
:103530008FEF9FEFDF91CF911F910F910895CF9261
:10354000DF92EF92FF920F931F93CF93DF93EC01E3
:103550007B016A011B821A8208EE13E020E030E052
:103560000C831D832E833F8381EE92E099838883B1
:103570008DE190E00F94BE2A9A8F898F009779F0A1
:103580002DE1F701DC0101900D922A95E1F74CE065
:1035900050E0B601CE010C960F941C2E188EDF91D0
:1035A000CF911F910F91FF90EF90DF90CF900895F2
:1035B000FC011382128248EE53E060E070E0448325
:1035C00055836683778381EE92E091838083128EA8
:1035D000118E14860895FC01818D928D009709F05B
:1035E00083C780E090E00895DC015996ED91FC914D
:1035F0005A97309729F0628573858485958508955B
:103600006FEF7FEFCB010895DC015996ED91FC91AE
:103610005A97309729F06389748985899689089526
:1036200060E070E0CB010895CF92DF92EF92FF92BD
:10363000CF93DF93EC01898D9A8D892BC9F0CE0150
:10364000E3DF6B017C01CE01CFDFA7019601261BD2
:10365000370B480B590BDA01C901811530E8930784
:10366000A105B10538F08FEF9FE7A0E0B0E002C000
:1036700080E090E0DF91CF91FF90EF90DF90CF90CE
:103680000895CF93DF93EC01898D9A8D009741F0D7
:103690000E94A324898D9A8D0F94562B1A8E198E11
:1036A000DF91CF910895DC015996ED91FC915A97E5
:1036B000309721F081E09581911101C080E008955B
:1036C0001F93CF93DF93CDB7DEB76D970FB6F89406
:1036D000DEBF0FBECDBFAB011C821B8223EF32E0E9
:1036E0003A8329831E8221E0BC01CE0101960E940B
:1036F000CD2511E0811102C010E004C0CE01019679
:103700000E94A324812F6D960FB6F894DEBF0FBEE2
:10371000CDBFDF91CF911F910895EF92FF920F934C
:103720001F93CF93DF93CDB7DEB76D970FB6F894A5
:10373000DEBF0FBECDBF8C017B011C821B8283EFDD
:1037400092E09A8389831E82C801BADF982F811183
:103750000AC0A701B801CE0101960E94AC2691E0F3
:10376000811101C090E0892F6D960FB6F894DEBFED
:103770000FBECDBFDF91CF911F910F91FF90EF90C2
:103780000895CF93DF93FB0120813181FC01E20F8B
:10379000F31FE081EF3211F42F5F3F4FDA01E0E0D9
:1037A000F0E0EC01C20FD31FC881CF3249F0CC2327
:1037B00039F031962F5F3F4FCD93EC30F10589F70B
:1037C000E40FF51F1082FC01E20FF31F40814F321E
:1037D00011F42F5F3F4FFB0131832083FC01E20F87
:1037E000F31F81E09081911101C080E0DF91CF91C2
:1037F00008954F925F926F927F928F929F92AF92B5
:10380000BF92CF92DF92EF92FF920F931F93CF93CD
:10381000DF93CDB7DEB7C954D1090FB6F894DEBF38
:103820000FBECDBF5C016B013A01490119A218A27C
:1038300083EF92E09F8F8E8F1BA21C821B829A8344
:1038400089831E822A961FAE1EAE2A978B017E01A7
:103850008EE1E80EF11C44244394AE01455C5F4FB9
:10386000BE01685B7F4FC5018CDF582E482F442571
:103870009401BE01655C7F4FC801F3011995811168
:1038800008C00C151D0519F0C8010E94A32480E092
:1038900027C05520B9F021E0AE01455C5F4FB8016B
:1038A000C7010E94CD25582E0C151D0599F0C801A1
:1038B0000E94A324552059F3902F812F8701E92ED0
:1038C000F82ECBCF0C151D0519F0C8010E94A324BA
:1038D00081E006C08823D9F28E010F5F1F4FECCF25
:1038E000C75BDF4F0FB6F894DEBF0FBECDBFDF91D1
:1038F000CF911F910F91FF90EF90DF90CF90BF90ED
:10390000AF909F908F907F906F905F904F900895B1
:103910000F931F93CF93DF93EC01462F61E0D4D236
:10392000811102C080E01CC08E01045F1F4F41E086
:10393000BE01C8010E94BA2C882351F0B801CE0103
:103940008A9683D591E0811101C090E0892F08C04B
:1039500040E0BE01C8010E94BA2C882319F3EECFC3
:10396000DF91CF911F910F910895FC01DB01129619
:103970008D919C9113979383828383EF92E091833F
:10398000808314968C911497848315968C91159747
:10399000858316964D915D916D917C911997468323
:1039A0005783608771871A964D915D916D917C91D7
:1039B0001D9742875387648775871E964D915D9149
:1039C0006D917C91519746875787608B718B52968A
:1039D0008C915297828B53964D915D916D917C9114
:1039E0005697438B548B658B768B57964D915D9193
:1039F0006D917C915A97478B508F618F728F5B9638
:103A00008D919C915C97948F838F08954F925F92D4
:103A10006F927F928F929F92AF92BF92CF92DF92DE
:103A2000EF92FF920F931F93CF93DF93CDB7DEB743
:103A3000C754D1090FB6F894DEBF0FBECDBF6C01DD
:103A40004A013901665D7F4F5E018EE1A80EB11C0F
:103A5000C5018BDF1C821B8283EF92E09A838983EE
:103A60001E828401FE0131967F015A2C4B2C6FE29D
:103A700070E0C8010F94F32D0097D9F1F80120816F
:103A80002F3219F40F5F1F4FF2CF801B8D3008F0DB
:103A90008CE0A82EB12CA501B801CE01CB960F94D5
:103AA0001C2EEBE3F0E0EC0FFD1FEA0DFB1D108276
:103AB000C70149D721E0AE01455C5F4F652D742DEC
:103AC000C7010E94CD25811109C0F601138212821F
:103AD00083EF92E091838083158214C00A0D1B1D31
:103AE000852D942D30D7C2015E2C4F2CE92EF82E57
:103AF000BECF08191909F30111830083652D742DB8
:103B0000C60133DFC601C95BDF4F0FB6F894DEBFD5
:103B10000FBECDBFDF91CF911F910F91FF90EF901E
:103B2000DF90CF90BF90AF909F908F907F906F90DD
:103B30005F904F9008959F92AF92BF92CF92DF9285
:103B4000EF92FF920F931F93CF93DF93CDB7DEB722
:103B5000C955D1090FB6F894DEBF0FBECDBF7C01A9
:103B60006B015A01922E9E01285A3F4FCE01CB96EF
:103B70004DDF6A960EAD1FAD6A970A0D1B1DF80149
:103B80008081811109C0BE01655C7F4FCE01019625
:103B9000ECDE4DEE52E03BC019A218A283EF92E09A
:103BA0009F8F8E8F1BA221968FAD2197811103C00D
:103BB000C701FEDC31C08250823058F4B601665D28
:103BC0007F4F292DA801CE014E96E7D781110EC057
:103BD000EFCF292DA801BE01655C7F4FCE014E9627
:103BE000DCD7882329F3CE01CB96ADD6892D8670FC
:103BF00039F049A95AA96BA97CA9CE014E96C3D523
:103C0000BE01625E7F4FCE010196AFDEA801BE010C
:103C10006F5F7F4FC70193DCC701C75ADF4F0FB6F5
:103C2000F894DEBF0FBECDBFDF91CF911F910F91F2
:103C3000FF90EF90DF90CF90BF90AF909F9008954E
:103C4000FB01BC01665D7F4F20E030E040E65BE1B8
:103C5000CF01CFCDFB01BC01665D7F4F20E030E09E
:103C60004DE85BE1CF01C5CD10927D0C10927E0C2A
:103C70001092810C1092830C82E090E0A0E0B0E002
:103C80008093840C9093850CA093860CB093870C42
:103C900010929B0C1092A50C1092A40C83EF92E052
:103CA0009093A30C8093A20C1092A70C08959FB739
:103CB000F89420917B0F8091790F213019F48DBBFE
:103CC0009FBF08958FBF089520917B0F222399F005
:103CD0003FB7F89420917B0F213059F42DB32093F6
:103CE000790F4DB320917A0F209524232DBB3FBF30
:103CF00002C03093790F8CBD9DBD08958EBD00002C
:103D00000DB407FEFDCF8EB508958FEFF7CF61E0BC
:103D1000FC0184810F94661A8091C10C882331F0D4
:103D20001092C10C80917B0F8111C1CF0895CF9368
:103D3000DF93EC018091C10C811108C081E0809378
:103D4000C10C8091C20C9091C30CBEDF60E08C81ED
:103D5000DF91CF910D94661ACF93DF93EC018E81A2
:103D6000882379F08F8198859C012F5F3F4F38879A
:103D70002F838230924010F4C8DFF4CFCE01C7DF2A
:103D80001E82DF91CF910895673028F026E1FC0173
:103D9000258380E00895623081F030F4662359F085
:103DA0006130B1F480E515C0643059F040F0653001
:103DB00079F482E50EC080E505C081E503C081E5A8
:103DC00008C082E58093C20C81E08093C30C089503
:103DD00083E58093C20C1092C30C81E008950F9389
:103DE0001F93CF93DF93EB010F942E188B018DDF80
:103DF0008F3F49F00F942E18601B710B6C177D07D5
:103E0000B0F380E001C081E0DF91CF911F910F916D
:103E10000895CF92DF92FF920F931F93CF93DF937A
:103E200000D01F92CDB7DEB76C01F62E29833A83FE
:103E30004B835C8391DFC6017ADF6CE271E0C601DF
:103E4000CEDF8F2D80645ADF08E110E05C814B816A
:103E50003A812981DA01C901002E04C0B695A795DF
:103E6000979587950A94D2F729833A834B835C838D
:103E700045DF0850110929813A814B815C81083F57
:103E80008FEF180739F7FF2029F0E8E0FE1621F040
:103E90008FEF03C085E901C087E830DF10E035DF30
:103EA000F601828787FF04C01F3F11F01F5FF7CF25
:103EB0000F900F900F900F90DF91CF911F910F9166
:103EC000FF90DF90CF900895BF92CF92DF92EF9254
:103ED000FF920F931F93CF93DF93EC01B62E1B86B7
:103EE00019861E821D824C830F942E188B0161E06F
:103EF0008C810F942D1A61E08C810F94661A0E94B8
:103F0000B34982E58093C20C1092C30C8091C20C1D
:103F10009091C30CD9DE2AE0F22E8FEFEFDEFA94F7
:103F2000E1F780917B0F8111C2DECE0100DF20E03E
:103F300030E0A90160E0CE016CDFF82E8A8781E0D5
:103F4000F81649F00F942E18601B710B613D7740F5
:103F500070F381E046C02AEA31E040E050E068E0DA
:103F6000CE0157DF82FF02C0FB860CC094E0F92E21
:103F7000CCDE8A87FA94E1F78A3A11F082E031C008
:103F800082E08B878B85823031F4C12CD12CE12CDF
:103F900080E4F82E03C0C12CD12C760120E030E063
:103FA000A90167E3CE0135DFA701960169E2CE01E1
:103FB00030DF8A87882349F00F942E18601B710B1D
:103FC000613D774058F388E00CC08B85823001F565
:103FD00020E030E0A9016AE3CE011BDF882379F0FD
:103FE00086E08D83CE0193DE80E0DF91CF911F913B
:103FF0000F91FF90EF90DF90CF90BF90089585DEF6
:10400000807C803C11F483E08B877FDE7EDE7DDE6A
:10401000CE017DDE6B2DCE01DF91CF911F910F91EF
:10402000FF90EF90DF90CF90BF90AECE0F931F9395
:10403000CF93DF93EC010F942E188B0166DE8A87F5
:104040008F3F49F40F942E18601B710B6D32714035
:10405000A8F38FE003C08E3F31F08DE08D83CE0159
:1040600056DE80E001C081E0DF91CF911F910F917A
:104070000895CF92DF92EF92FF920F931F93CF9309
:10408000DF93EC0169010115110509F45DC0C80158
:10409000820F931F8130924008F058C08E81882390
:1040A00071F088819981AA81BB81481759076A07F5
:1040B0007B0729F48F819885C816D90600F54883B7
:1040C00059836A837B838B85833039F039E0440FD1
:1040D000551F661F771F3A95D1F79A01AB0161E131
:1040E000CE0197DE882319F083E08D832FC0CE01A7
:1040F0009DDF882359F118861F8281E08E838F818E
:1041000098858C159D0538F400DE8F819885019681
:1041100098878F83F4CF6701E00EF11ECE14DF0481
:1041200029F0F3DDF60181936F01F8CF8F81988537
:10413000800F911F98878F832985222319F081157D
:10414000924010F0CE0108DE81E003C0CE01DFDD39
:1041500080E0DF91CF911F910F91FF90EF90DF9062
:10416000CF900895EF92FF920F931F93790100E093
:1041700012E020E030E07DDF1F910F91FF90EF9083
:104180000895CF92DF92EF92FF920F931F93CF93F8
:10419000DF931F921F92CDB7DEB78C01862F498324
:1041A0005A83ACDD4981C42E5A81D52EE12CF12CE5
:1041B000F60181916F01A2DDFFEFEF1AFF0AE11412
:1041C00082E0F806A9F78FEF99DD8FEF97DD9DDD8F
:1041D000F80182878F71853031F081E18583C801D4
:1041E00096DD80E001C081E00F900F90DF91CF91CC
:1041F0001F910F91FF90EF90DF90CF9008950F9354
:104200001F93CF93DF93EC0189014115510561059F
:10421000710511F482E12DC08B85833039F089E07E
:10422000440F551F661F771F8A95D1F79A01AB017E
:1042300068E1CE01EEDD882311F084E01AC0A80108
:104240006EEFCE019EDF8823A9F068E572E0CE0113
:10425000C6DD811102C085E10CC020E030E0A9017B
:104260006DE0CE01D6DD811103C04FDD882331F032
:1042700084E18D83CE014BDD80E003C0CE0147DDBC
:1042800081E0DF91CF911F910F91089580E5809398
:10429000C20C1092C30C0895CF93DF93EC019C01E4
:1042A0002A5F3F4F41E050E060E070E08B8D9C8DD5
:1042B0000E94552B8823A1F04F89588D698D7A8DE6
:1042C000452B462B472B71F44E815F81688579859C
:1042D0004F8B588F698F7A8F8C8180688C8302C056
:1042E00080E001C081E0DF91CF910895CF92DF920D
:1042F000EF92FF921F93CF93DF93EC01CDDF8111FB
:1043000002C080E04AC0EB8DFC8DCE80DF80E88467
:10431000F98482E0C81AD108E108F108058404C0D4
:10432000CC0CDD1CEE1CFF1C0A94D2F74685578589
:1043300060897189C40ED51EE61EF71E148181E0C6
:10434000C81AD108E108F108112359F0C701B601D4
:10435000610F711D811D911DF6D7882391F21150B7
:10436000F3CFEB8DFC8DC12C82E0D82EE12CF12C0B
:10437000058404C0CC0CDD1CEE1CFF1C0A94D2F793
:104380004B895C896D897E894C0D5D1D6E1D7F1D7D
:104390004B8B5C8B6D8B7E8B81E0DF91CF911F917E
:1043A000FF90EF90DF90CF900895CF93DF93EC01D3
:1043B000462F6E857F85888999898BD7882341F020
:1043C0008A8920E2829FC00111248353934F02C047
:1043D00080E090E0DF91CF910895282FFB018BE0E2
:1043E00030E231938150E9F7A22FB92F20E037E076
:1043F0009D91992319F19E3219F0E2E5F3E008C08E
:104400003A3011F128E03AE0F3CF31964917E1F064
:1044100044914111FACF3217B8F04FED490F4E35A4
:1044200098F441E0420FFB01E20FF11D2FE9290F43
:104430002A3108F490529083242FDACF81E0FB01D7
:104440009081903209F480E008950F931F93CF93E9
:10445000DF93EC018B018D81882311F080E03FC058
:10446000FB0187898031B1F482E08D831F8A188E29
:10447000198E1A8E408D518D60E070E095E0440FEA
:10448000551F661F771F9A95D1F74B8B5C8B6D8BF1
:104490007E8B14C0803211F783E08D83FB01428D47
:1044A000538D648D758D4F8B588F698F7A8F9E01D8
:1044B0002D5E3F4FC801EFD7882381F21C8F0B8FF1
:1044C00081E08C831E821F82188619861A861B86BD
:1044D0001C861D861E861F86188A198A1A8ADF91F5
:1044E000CF911F910F9108952F923F924F925F921B
:1044F0006F927F928F929F92AF92BF92CF92DF92F4
:10450000EF92FF920F931F93CF93DF93EC016B0118
:104510005A018D81811103C08FEF9FEFD7C08C812D
:1045200080FFFACF4B895C896D897E898A859B855E
:10453000AC85BD852501612C712C8A019B01081B6E
:10454000190B2A0B3B0B041515052605370518F426
:104550005A01A81AB90A25011E0126E0220E311CB3
:104560004114510409F47AC04A855B856C857D85C8
:104570004A0181E09822ED818A019B01F9E036959C
:10458000279517950795FA95D1F78B8D9C8DE2307D
:1045900051F4FC01628D738D848D958D600F711FB8
:1045A000821F931F3DC0FC0174807A947022811495
:1045B0009104C1F4711016C0452B462B472B49F4CA
:1045C0008F89988DA98DBA8D8E839F83A887B9878F
:1045D00009C04E815F81688579859101D9D688238C
:1045E00009F49ACFEB8DFC8D6E817F81888599854A
:1045F0006250710981099109058404C0660F771F13
:10460000881F991F0A94D2F706851785208931895A
:10461000600F711F821F931F670D711D811D911DFA
:1046200020E032E02819390932012415350508F453
:1046300039012C8126FD04C06114F2E07F0699F552
:1046400000910A0210910B0220910C0230910D0290
:10465000601771078207930719F425C0C50136C09A
:10466000760183019401AB01BC018091CB0C909148
:10467000CC0CFFDC882309F44FCFC60CD71C04C038
:10468000E81BF90BCE0EDF1E8A859B85AC85BD85A8
:10469000860D971DA11DB11D8A879B87AC87BD879D
:1046A000461857085DCF40E014D6882309F434CF6C
:1046B000C4018353934FD6019C01260D371DFC0185
:1046C000E217F307E9F241914D93FACFDF91CF91D1
:1046D0001F910F91FF90EF90DF90CF90BF90AF9020
:1046E0009F908F907F906F905F904F903F902F9012
:1046F0000895FF920F931F93CF93DF931F92CDB72F
:10470000DEB78C01FC018581823018F480E090E0F6
:1047100033C0F8014285538564857585A5E076959B
:10472000679557954795AA95D1F7F42FFF70FF2EFF
:1047300041E050E0BE016F5F7F4FC801D5DE0197B9
:1047400019F4298130E002C02FEF3FEF2F3F3F4F98
:10475000E9F2F8014285538564857585415E5F4FB6
:104760006F4F7F4F4287538764877587F0E2FF9EC4
:10477000C00111248353934F0F90DF91CF911F916C
:104780000F91FF9008954F925F926F927F92AF9238
:10479000BF92CF92DF92EF92FF920F931F93CF932E
:1047A000DF93EC016A017B012D81222309F456C0BD
:1047B0008B899C89AD89BE8984179507A607B707A1
:1047C00008F44CC04DC08A859B85AC85BD85EB8DBA
:1047D000FC8DE585F0E03996AC01BD0141505109F1
:1047E000610971090E2E04C0769567955795479516
:1047F0000A94D2F797018601015011092109310964
:1048000004C03695279517950795EA95D2F70417B2
:10481000150726073707A8F58F89988DA98DBA8DBA
:104820008E839F83A887B987280139015E0186E0BE
:10483000A80EB11C411451046104710459F14E8158
:104840005F816885798595018B8D9C8DA1D591E0DF
:10485000491A5108610871088111ECCF80E01FC02E
:104860002230C1F0C114D104E104F10409F0ABCF4E
:104870001E821F82188619861A861B861C861D8634
:104880000DC0892B8A2B8B2B39F2041B150B260BA1
:10489000370BCACFCA86DB86EC86FD8681E0DF91C6
:1048A000CF911F910F91FF90EF90DF90CF90BF902D
:1048B000AF907F906F905F904F9008950F931F93EC
:1048C000CF93DF93EC018D818823B9F18C8187FF31
:1048D0002FC061E0CE0169DD8C01009771F18D81FF
:1048E000823048F44B895C896D897E89F801448F58
:1048F000558F668F778F4F89588D698D7A8DF80126
:10490000538F428F758B648BE091C40CF091C50C72
:10491000309759F0B8016A5E7F4FC80148961995E3
:10492000F801808D918D938B828B8C818F778C8316
:10493000DF91CF911F910F9191C480E0DF91CF91D2
:104940001F910F910895CF93DF93EC01B7DF882378
:1049500019F01D8281E001C080E0DF91CF910895C0
:104960004F925F926F927F92AF92BF92CF92DF92FF
:10497000EF92FF920F931F93CF93DF9300D01F927C
:10498000CDB7DEB75C016A017B01FC018581813016
:10499000E9F4848181FF1AC0F50183899489A5898E
:1049A000B68984179507A607B70780F0892B8A2B4D
:1049B0008B2B09F472C0F50142845384648475849E
:1049C000B701A601C501DFDE811102C080E066C02B
:1049D000F501838D948DC114D104E104F10469F4CF
:1049E0004789508D618D728D71D7882379F3F501D8
:1049F000178A108E118E128E37C0F50146815781AD
:104A0000608571859E012F5F3F4FC2D48823F1F2EC
:104A100049815A816B817C81F501838D948DFC01E4
:104A20002789203129F408EF1FEF20E030E004C08F
:104A300008EF1FEF2FEF3FE04017510762077307A2
:104A400098F444D7882309F4C1CFF50146815781F2
:104A5000608571850FEF1FEF2FEF3FE0838D948D01
:104A600084D5882309F4B2CFF501C38AD48AE58AB4
:104A7000F68A848180688483C50120DF882309F455
:104A8000A5CFB701A6014C145D046E047F0410F499
:104A9000B301A201C50177DE01C081E00F900F9044
:104AA0000F900F90DF91CF911F910F91FF90EF909A
:104AB000DF90CF90BF90AF907F906F905F904F90BE
:104AC0000895FF920F931F93CF93DF93EC01F42E81
:104AD00080E2689FF0011124E353F34F83858171D5
:104AE00029F0842F827411F080E051C06A8B80918C
:104AF0000A0290910B02A0910C02B0910D028E87D8
:104B00009F87A88BB98B4489558960E070E0BA0112
:104B100055274427028D138D20E030E0402B512B88
:104B2000622B732B4F8B588F698F7A8F8385887197
:104B300051F4048D158D268D378D0B8B1C8B2D8B91
:104B40003E8B81E00BC0803179F69E012D5E3F4F98
:104B50008B8D9C8DA0D4882339F284E08D838F2D9A
:104B60008F708C831E821F82188619861A861B8678
:104B70001C861D86F6FE0AC040E050E0BA01CE0158
:104B8000DF91CF911F910F91FF90EACE81E0DF91ED
:104B9000CF911F910F91FF900895AF92BF92CF9246
:104BA000DF92EF92FF920F931F93CF93DF93CDB7D6
:104BB000DEB72B970FB6F894DEBF0FBECDBF7C01DA
:104BC0006B01CA01B22EF70125812111B3C0BE01CC
:104BD0006F5F7F4F02DC882309F4ACC0F601838D40
:104BE000948DF701948F838FF601168217821086B9
:104BF00011861286138614861586A12CF60102856D
:104C000013852485358583899489A589B6890817F4
:104C100019072A073B07E0F545E0369527951795D4
:104C200007954A95D1F70F70C60163DD009709F427
:104C300081C0FC012081222311F0253EB9F4A1108E
:104C40000EC0F701028B40910A0250910B02609155
:104C50000C0270910D0246875787608B718BFC01A7
:104C60008081AA24A3948111C9CF12C04BE050E0E7
:104C7000BC01CE0101960F94BA2D892B09F0BECF4D
:104C80008B2D8073803309F455C04B2D602F4FC09E
:104C90008B2D8271823109F04DC0AA2039F061E07C
:104CA000C70183DB8C01009771F444C0F601858154
:104CB000823009F43FC0C60119DB8823D9F1F7011E
:104CC000128A0DEC1CE080E2F80111928A95E9F756
:104CD0008BE0FE013196D80101900D928A95E1F7A3
:104CE000E091C40CF091C50C309739F0B801625FC7
:104CF0007F4FC8014096199509C081E298E2F801FA
:104D0000918B808B80E098E097878687F801808977
:104D10009189938B828B918F808F86859785978BD6
:104D2000868B9CD2882331F04B2DF7016289C70115
:104D3000C8DE01C080E02B960FB6F894DEBF0FBE30
:104D4000CDBFDF91CF911F910F91FF90EF90DF903A
:104D5000CF90BF90AF9008954F925F926F927F92E5
:104D60009F92AF92BF92CF92DF92EF92FF920F93FA
:104D70001F93CF93DF93CDB7DEB7A0970FB6F8940C
:104D8000DEBF0FBECDBF8C017B0123E306DF88238E
:104D900009F4A5C081E0D80114968C93149784E09F
:104DA00015968C93C801A2DA882309F498C0C8012B
:104DB00085DD882309F493C061E0C801F6DA009725
:104DC00009F48DC020E1FC01238720E2DE01119669
:104DD00001900D922A95E1F7DC015496AD90BC90BC
:104DE00055975A96CD90DC905B97FE013296CE0196
:104DF0000C9620E22193E817F907E1F75EE2952E81
:104E00009982D8015B96ED91FC915C9757966D91D4
:104E10007D918D919C915A976250710981099109F8
:104E2000058404C0660F771F881F991F0A94D2F764
:104E30004684578460887188640D751D861D971D92
:104E400041E047D2882309F44AC0BE8AAD8ADC8E8D
:104E5000CB8E80E2FE013196ADECBCE001900D926C
:104E60008A95E1F79A82F70185818250823038F085
:104E70008789908DA18DB28D9C01CD0104C020E069
:104E800030E080E090E09E8B8D8B3C8F2B8F80E21A
:104E9000FE013196ADEEBCE001900D928A95E1F7EE
:104EA00080E490E0A0E0B0E0F80182879387A487D7
:104EB000B587A0960FB6F894DEBF0FBECDBFDF91C9
:104EC000CF911F910F91FF90EF90DF90CF90BF9007
:104ED000AF909F907F906F905F904F90BFC180E0A8
:104EE000A0960FB6F894DEBF0FBECDBFDF91CF9175
:104EF0001F910F91FF90EF90DF90CF90BF90AF90F8
:104F00009F907F906F905F904F9008952F923F9267
:104F10004F925F926F927F928F929F92AF92BF92C9
:104F2000CF92DF92EF92FF920F931F93CF93DF9375
:104F300000D01F921F92CDB7DEB78C017B013A01E2
:104F4000DC0115968C9115978130C1F414968C91E3
:104F500081FF14C082FF1AC0F80143895489658912
:104F6000768982859385A485B58584179507A607DC
:104F7000B70761F0C80107DC811108C081E090E04B
:104F8000F8019383828380E090E040C163017FC099
:104F9000D8015B968D919C915C97FC01F481F15056
:104FA000B501A40129E076956795579547952A950F
:104FB000D1F7F423FD8321E09222FF2309F473C08B
:104FC00080E092E08819990956018C159D0508F436
:104FD0005C01D8015B96ED91FC915C9716962D9043
:104FE0003D904D905C901997B2E02B1A3108410822
:104FF0005108058404C0220C331C441C551C0A941F
:10500000D2F786859785A089B189280E391E4A1E58
:105010005B1EED812E0E311C411C511CA114F2E0CF
:10502000BF0609F085C080910A0290910B02A09101
:105030000C02B0910D0282159305A405B50559F433
:105040008FEF9FEFDC0180930A0290930B02A093F5
:105050000C02B0930D029701B201A1018091CB0C1B
:105060009091CC0CCCD8882309F488CF9EEFF91A04
:10507000CA18DB08F80182859385A485B5858A0D59
:105080009B1DA11DB11D82879387A487B587D80179
:105090001A968D909D90AD90BC901D97C114D1042F
:1050A00009F076CF86C08114910409F089CF169655
:1050B0004D915D916D917C91199741155105610557
:1050C000710559F457968D919D910D90BC91A02D2D
:1050D0000097A105B10531F520C09E012F5F3F4F1C
:1050E00057D1882309F450CF89819A81AB81BC8143
:1050F000F801238D348DF9012789203129F448EFF7
:105100005FEF60E070E004C048EF5FEF6FEF7FE0BB
:1051100084179507A607B70728F0C801BDD88111E5
:105120004FCF2CCFF80186839783A087B18748CFD4
:105130008114910421F5D8011A964D915D916D91DC
:105140007C911D9753968D919D910D90BC91A02DB2
:10515000481759076A077B0790F080D0882309F425
:105160000DCF20920A0230920B0240920C02509214
:105170000D028091CA0C81608093CA0C07C041E087
:10518000C201B101A6D0882309F4F8CEC40183532B
:10519000934FD7019C012A0D3B1DFC01E217F30739
:1051A00019F04D914193FACFE81BF90BEE0EFF1E5B
:1051B0005FCF53968D919D910D90BC91A02DF801DC
:1051C000248188159905AA05BB0538F4838A948A39
:1051D000A58AB68A206824830CC08091C40C909163
:1051E000C50C892B31F06114710419F02068F801A5
:1051F0002483D80114968C9183FD02C0C30106C09C
:10520000C8015CDB882309F4B9CEF8CF0F900F906A
:105210000F900F900F90DF91CF911F910F91FF9002
:10522000EF90DF90CF90BF90AF909F908F907F9046
:105230006F905F904F903F902F900895CF93DF93A2
:105240001F92CDB7DEB7698341E050E0BE016F5FCA
:105250007F4F5CDE0F90DF91CF9108958091CA0C53
:10526000882399F140910A0250910B0260910C023F
:1052700070910D022DEC3CE08091CB0C9091CC0C08
:105280000E94FF20882319F14091C60C5091C70C51
:105290006091C80C7091C90C4115510561057105EB
:1052A00091F02DEC3CE08091CB0C9091CC0C0E94C5
:1052B000FF20882361F01092C60C1092C70C109248
:1052C000C80C1092C90C1092CA0C81E0089580E0BD
:1052D0000895CF92DF92EF92FF92CF936B017C0102
:1052E000C42F80910A0290910B02A0910C02B09100
:1052F0000D028C159D05AE05BF05C9F0AFDF81110C
:1053000002C080E01AC02DEC3CE0B701A6018091FC
:10531000CB0C9091CC0C0E94B220882391F3C092C8
:105320000A02D0920B02E0920C02F0920D028091E0
:10533000CA0C8C2B8093CA0C81E0CF91FF90EF9028
:10534000DF90CF900895CF92DF92EF92FF926B01A2
:105350007C0184DF8823B1F0EDECFCE011928EE05B
:10536000ED3CF807D9F7C0920A02D0920B02E09206
:105370000C02F0920D028091CA0C81608093CA0CDD
:1053800081E001C080E0FF90EF90DF90CF90089522
:105390008F929F92AF92BF92CF92DF92EF92FF9245
:1053A0000F931F93CF93DF938C016A017B01E90177
:1053B000FC0181859285A385B4850196A11DB11D4F
:1053C00084179507A607B70710F480E057C0F801C7
:1053D00043895489658976898789803129F4BB2777
:1053E000AF2D9E2D8D2D09C0D701C60127E0B695A2
:1053F000A795979587952A95D1F74C015D01840E65
:10540000951EA61EB71EC501B40180900A02909099
:105410000B02A0900C02B0900D02681579058A0568
:105420009B0589F4F8018789803191F4DD24EE240D
:10543000FF24F601EE0FFF1FE353F34F80819181AC
:10544000A0E0B0E016C040E044DF8111EBCFBDCF5B
:10545000E894C7F8DD24EE24FF24F601EE0FFF1FC9
:10546000EE0FFF1FE353F34F80819181A281B3813F
:10547000BF7088839983AA83BB8381E0DF91CF913A
:105480001F910F91FF90EF90DF90CF90BF90AF9062
:105490009F908F9008954F925F926F927F92AF92FC
:1054A000BF92CF92DF92EF92FF920F931F93CF9311
:1054B000DF9300D01F92CDB7DEB78C0149835A83AA
:1054C0006B837C835901C12CD12C7601412C42E0A5
:1054D000542E612C712C49815A816B817C819E01F3
:1054E0002F5F3F4FC80154DF882359F1D301C20118
:1054F000F801058404C0880F991FAA1FBB1F0A94D6
:10550000D2F7C80ED91EEA1EFB1E49815A816B8153
:105510007C818789803129F488EF9FEFA0E0B0E09B
:1055200004C088EF9FEFAFEFBFE0481759076A0745
:105530007B0788F2F501C082D182E282F38281E0AA
:1055400001C080E00F900F900F900F90DF91CF91EE
:105550001F910F91FF90EF90DF90CF90BF90AF9091
:105560007F906F905F904F9008954F925F926F92EF
:105570007F928F929F92AF92BF92CF92DF92EF92E3
:10558000FF920F931F93CF93DF93EC016A017B018E
:1055900028013901423051056105710508F473C0D5
:1055A00049855A856B857C854F5F5F4F6F4F7F4F75
:1055B0004C155D056E057F0508F465C08B889C88D9
:1055C000AD88BE888F89803129F477276F2D5E2DB5
:1055D0004D2D09C0B701A601E7E07695679557956F
:1055E0004795EA95D1F7840E951EA61EB71E4091E9
:1055F0000A0250910B0260910C0270910D02841608
:105600009506A606B70671F48F89803191F4DD24E2
:10561000EE24FF24F601EE0FFF1FE353F34F5182F8
:10562000408217C040E0C501B40153DE8111ECCFC8
:105630002AC0E894C7F8DD24EE24FF24F601EE0F1B
:10564000FF1FEE0FFF1FE353F34F40825182628230
:1056500073828091CA0C81608093CA0C8A898230DF
:1056600080F08D819E81AF81B885880D991DAA1D1E
:10567000BB1D8093C60C9093C70CA093C80CB0932D
:10568000C90C81E001C080E0DF91CF911F910F91A3
:10569000FF90EF90DF90CF90BF90AF909F908F9052
:1056A0007F906F905F904F9008952F923F924F920E
:1056B0005F926F927F929F92AF92BF92CF92DF9252
:1056C000EF92FF920F931F93CF93DF93CDB7DEB787
:1056D00060970FB6F894DEBF0FBECDBF5C014D875B
:1056E0005E876F87788B1901D9014D905D906D9021
:1056F0007C90411451046104710431F0BFEF4B1AE6
:105700005B0A6B0A7B0A10C0FC01408051806280FA
:105710007380992493940D851E852F8538890130D7
:1057200011052105310509F0912CD50119962D910E
:105730003D914D915C911C972F5F3F4F4F4F5F4FB5
:1057400029873A874B875C87730162011D821E821D
:105750001F821886F50181859285A385B4850D8108
:105760001E812F813885081719072A073B0708F083
:1057700054C029853A854B855C852C153D054E0521
:105780005F0550F4A2E0CA2ED12CE12CF12CB2E03E
:105790004B2E512C612C712C9E012F5F3F4FB70176
:1057A000A601C501F5DD8823C1F149815A816B81CC
:1057B0007C81D701C6010196A11DB11D452B462B49
:1057C000472B19F02C013D010FC0AC01BD0144195C
:1057D0005509660977090D851E852F85388940177B
:1057E00051076207730779F02D813E814F815885FB
:1057F0002F5F3F4F4F4F5F4F2D833E834F8358871F
:105800006C017D01A7CF0FEF1FEF2FEF3FE0B70136
:10581000A601C501AADE811117C080E03FC0D701F3
:10582000C6010197A109B1098D839E83AF83B88713
:1058300097018601AC01BD01C50197DE882369F39C
:10584000CD80DE80EF80F8844C145D046E047F040C
:1058500030F3D1014D915D916D917C9141155105D0
:105860006105710599F4F10140825182628273826F
:10587000992099F0FFEF4F1A5F0A6F0A7F0AD5014E
:105880004D925D926D927C92139707C093018201B5
:10589000C5016BDE8111E7CFC0CF81E060960FB606
:1058A000F894DEBF0FBECDBFDF91CF911F910F9156
:1058B000FF90EF90DF90CF90BF90AF909F907F9040
:1058C0006F905F904F903F902F900895AF92BF924E
:1058D000CF92DF92EF92FF920F931F93CF93DF93BC
:1058E00000D01F92CDB7DEB75C016A017B0182E078
:1058F00090E0A0E0B0E0F50180839183A283B383C0
:105900009E012F5F3F4FB701A601C50141DD8823EE
:1059100009F100E010E09801B701A601C50125DEFC
:105920008823C1F0C980DA80EB80FC80F50187898B
:10593000803129F488EF9FEFA0E0B0E004C088EF49
:105940009FEFAFEFBFE0C816D906EA06FB06C0F22C
:1059500081E001C080E00F900F900F900F90DF91D9
:10596000CF911F910F91FF90EF90DF90CF90BF905C
:10597000AF9008958F929F92AF92BF92CF92DF9295
:10598000EF92FF920F931F93CF93DF93EC01142FAD
:105990007093CC0C6093CB0C442339F1453010F05C
:1059A00080E0EDC040E060E070E0CB0192DC882355
:1059B000B9F320E1129FF0011124E558F14F8081E5
:1059C0008F7771F784859585A685B785843691058F
:1059D000A105B10528F3C084D184E284F384C11405
:1059E000D104E104F10421F4DBCFC12CD12C7601E8
:1059F00040E0C701B6016DDC882391F28091D80C9C
:105A00009091D90C8115924059F63091DD0C3323D9
:105A100039F28091DB0C9091DC0C892B09F4C0CF1A
:105A20002091DA0C222309F4BBCF3A8B2C831D86FC
:105A300030E041E050E06D85062FCA01062E02C01D
:105A4000880F991F0A94E2F72817390731F081E08F
:105A5000860F8D87683078F3A3CF2091E30C3091C7
:105A6000E40C2115310519F040E050E008C0209108
:105A7000F10C3091F20C4091F30C5091F40C2D8309
:105A80003E834F8358878091DB0C9091DC0C46015C
:105A90005701880E991EA11CB11C8B8A9C8AAD8A65
:105AA000BE8AE091DE0CF091DF0CF98FE88FA091B7
:105AB000DD0CB0E00F94B02A680D791D8A1D9B1D86
:105AC0006A8F7B8F8C8F9D8F15E0EE0FFF1F1A95CD
:105AD000E1F7E150FE4FEF2FFF27E695DC01CB0108
