:100000000C9413110D9457090D9482090D94AD09A8
:100010000D94D8090D94030A0D942E0A0D94590AD3
:100020000D94840A0C9444110C9444110C944411C2
:100030000C9444110C9444110C9444110C944411EC
:100040000C9444110C9444110C9444110C944411DC
:100050000C9444110C9444110C9444110D94AF0A67
:100060000C9444110D94410F0D94770F0C9444118E
:100070000C9444110C9444110C9444110C944411AC
:100080000C9444110C9444110C9444110C9444119C
:100090000D94EC0F0D9422100C9444110C945B52AF
:1000A0000C9444110C9444110C9444110C9444117C
:1000B0000C9444110C9444110C9444110C9444116C
:1000C0000C9444110C9444110C9444110D94971009
:1000D0000D94CD100C9444110D9442110D9478118F
:1000E0000C9444114F49A84973496D497C49804992
:1000F0009D49025F055F085F0B5F0E5F115F145F34
:10010000175FFF5EAD5F4D5F505F535F565F5D5F92
:10011000775F8D5F1961266091601B61C8613F61E7
:100120006361AF639D63A063A363A663A963AC63CC
:1001300097CA06CB09CB0CCB0FCB12CB15CB18CB68
:100140001BCB1ECB3FCB6DCB9ACA9DCA94CAB2CAF9
:10015000B5CAB8CABBCABECAC1CAC4CAC7CAE0D037
:10016000ADCFDFCFDFCFDFCF6CD06CD06CD07ED007
:10017000DFCFA5D0C2D0DFCFDFCFEACF7BCF2B013F
:100180005B014D017B0169016F01790147016B0141
:100190000F0127013F01010175013B01530151018D
:1001A00029011301FB00F500F100F9002D013D01CB
:1001B0001B0177016301FB00F70065017101570125
:1001C0001F011501030109015F013701FD005D01F8
:1001D000170123014101390133015F012F0107019B
:1001E0000B010D940F0C0D94A00F0D94070C0D94A2
:1001F000580C0D94170C0D94760C0D94A30C0D94C3
:10020000F6100D9449090D948E0C0D9454100D9414
:10021000C90C0D94940C0D94CD0C0D94A1110D945A
:100220003F090D94AA080D94FD0B0D948A0C0D94B2
:10023000AD0C0D947B0E0D94350C0D945A0E0D944F
:100240009B0C0D9479120D94B10C0D94D10D0D945D
:1002500041090D94F30B0D940A090D94210C0D9492
:10026000C50C0D94000E0D94BF0C0D94AA110D94A5
:100270009F0C0D94BB0C0D94DF0B0D942B0C0D9467
:1002800043090D94B70C0D94A90F0D94FF100D9414
:1002900047090D94EC0D0D94ED110D94DC080D94AF
:1002A000BE080D94E90B0D94E40B0D9477000D94AA
:1002B000980C0D944B100D94D4080D94A90C0D942A
:1002C000D20C0D94DE0D0D944E0C0D94620C0D9419
:1002D000B8080D94F5080D943D090D94D30D0D94B7
:1002E00016090D946C0C0D9455120D944B090D9438
:1002F000440C0D9423090D94E808524541445900DB
:1003000000202D200020002C20005245414459009F
:100310003E007C3C3E5E2B3D3F2F5B5D3B2C2A220A
:100320005C00005EBCE2613FDD83C29C7E20A3FDD9
:100330001F419DC3217FFCA2401E5F01E3BD3E60C3
:1003400082DC237D9FC1421CFEA0E1BF5D0380DEF5
:100350003C62BEE0025CDF81633D7C22C09E1D43A7
:10036000A1FF4618FAA427799BC584DA3866E5BB55
:100370005907DB856739BAE406581947A5FB782683
:10038000C49A653BD987045AB8E6A7F91B45C698B5
:100390007A24F8A6441A99C7257B3A6486D85B0567
:1003A000E7B98CD2306EEDB3510F4E10F2AC2F7115
:1003B00093CD114FADF3702ECC92D38D6F31B2EC43
:1003C0000E50AFF1134DCE90722C6D33D18F0C5275
:1003D000B0EE326C8ED0530DEFB1F0AE4C1291CF27
:1003E0002D73CA947628ABF517490856B4EA6937D5
:1003F000D58B5709EBB536688AD495CB2977F4AA03
:100400004816E9B7550B88D6346A2B7597C94A1434
:10041000F6A8742AC896154BA9F7B6E80A54D789E6
:100420006B351112131415160A0B0C0D0E0F00016B
:1004300002030405FFD0FFE0FFCFFF64FFD1FF32CE
:10044000380C060201FF64FFD0FFFE25642C253026
:1004500032750042464C4F570041464C4F570050B2
:100460004800534F494C004C494748540048554DAB
:1004700049444954590054454D50005F0042464C90
:100480004F570041464C4F5700504800534F494C7E
:10049000004C494748540048554D49444954590077
:1004A00054454D50005F0020D0BB0020D0BBD18E02
:1004B000D0BAD1810020704800250020430030319F
:1004C000323334353637383941424344454600D01B
:1004D000A2D180D0B5D0B2D0BED0B3D0B02120D080
:1004E000A1D180D0B0D0B1D0BED182D0B0D0BBD05D
:1004F000BE20D0BFD180D0B0D0B2D0B8D0BBD0BE9B
:100500003A20007C007C004F4646004F4E0052557A
:100510004C455F535441544500504152414D535F47
:100520004D49535345440052554C455F5354415433
:1005300045007C0043545345543D007C007C007CC6
:100540000052554C455F5649455700504152414D68
:10055000535F4D49535345440052554C455F5649EE
:100560004557007C0052554C45535F434E54005252
:10057000554C45535F434E5400504152414D535FDB
:100580004D4953534544007C007C0044454C455440
:1005900045440052554C455F44454C455445007C0C
:1005A000007C0044454C455445440052554C455F41
:1005B00044454C45544500414C4C00504152414D3E
:1005C000535F4D49535345440052554C455F444594
:1005D0004C455445007C007C0052554C455F5354BB
:1005E000415445007C007C0052554C455F535441BA
:1005F000544500414C4C0031004F4E005041524197
:100600004D535F4D49535345440052554C455F533C
:10061000544154450053415645005341564500410D
:10062000444445440052554C455F414444005041C8
:1006300052414D535F4D4953534544004E4F545F13
:10064000535550504F5254454400554E4B4E4F5702
:100650004E5F434F4D4D414E44004F4E0050494E6A
:100660000043430057494E444F577C414C4C7C4318
:100670004C4F53450057494E444F577C414C4C7C9E
:100680004F50454E005354415445004F4E004C4985
:10069000474854007C002C005F002554432500256A
:1006A000544F25003E3D003C3D003C003E0050487C
:1006B00000534F494C0050494E0048554D4944495C
:1006C0005459004C494748540054454D500030009F
:1006D00031007C002C005F007C007C007C007C00F2
:1006E000255443250025544F25007C003E3D003C09
:1006F0003D003E003C007C007C005F005048005301
:100700004F494C0050494E0048554D4944495459B1
:10071000004C494748540054454D50007C007C0033
:100720004F4646007C004F4E007C007C00455845FB
:1007300043004F4646004F4E0057494E444F577CAA
:10074000414C4C7C434C4F53450057494E444F5706
:100750007C414C4C7C4F50454E00504800534F4913
:100760004C0044454C54410048554D494449545966
:10077000004343004C494748540050494E005354ED
:100780004154450030003000504800534F494C0060
:1007900044454C54410048554D494449545900433F
:1007A00043004C494748540050494E00535441546B
:1007B0004500534554004745540043540000504100
:1007C00052414D535F4D49535345440041444445C4
:1007D000440041444400504152414D535F4D495300
:1007E0005345440041444445440045584543004175
:1007F0004444454400534156450044454C45544506
:10080000440044454C00504152414D535F4D4953C3
:10081000534544004E4F545F535550504F5254452A
:100820004400554E4B4E4F574E5F434F4D4D414E3A
:1008300044004F4E007C0050494E7C004F4646001D
:100840007C0050494E7C004C494748547C4F4E0038
:100850004C494748547C4F46460053544154457CCC
:1008600057494E444F577C414C4C7C4F50454E00AD
:1008700053544154457C57494E444F577C414C4C4E
:100880007C434C4F5345007C004144444544007C2C
:100890000041444400554E4B4E4F574E5F434F4D21
:1008A0004D414E4400504152414D535F4D495353C9
:1008B000454400504152414D535F4D4953534544C7
:1008C00000414444007C0041444445440044454CBC
:1008D0000044454C007C004144444544005341568B
:1008E00045005341564500504152414D535F4D49DB
:1008F00053534544007C007C007C007C007C007CE1
:10090000005649455700504152414D535F4D4953A0
:1009100053454400504152414D535F4D4953534557
:10092000440056494557007C00434E5400434E5402
:1009300000504152414D535F4D495353454400557A
:100940004E4B4E4F574E5F434F4D4D414E4400006E
:100950007C007C004E4F545F535550504F525445CD
:1009600044007C007C00414C4C007C00434E540011
:10097000434E5400504152414D535F4D49535345EE
:1009800044004E4F545F535550504F52544544000D
:100990007C007C007C007C007C00545F53455454F8
:1009A00000504152414D535F4D495353454400411E
:1009B0004444454400504152414D535F4D495353C7
:1009C000454400545F5345545400504152414D53E7
:1009D0005F4D4953534544004E4F545F535550505B
:1009E0004F52544544003D006669656C6400260022
:1009F000D0A2D0B7D0B0D0BAD18000D0A2D0BED1D2
:100A000082D0BAD180004C494748547C4D4F444570
:100A10007C4D414E55414C004C494748547C4D4F0C
:100A200044457C4155544F004C494748547C4F46FF
:100A300046004C494748547C4F4E00D0B0D0B2D10C
:100A400082D0BE00D0B2D18BD0BAD0BB00D0B2D051
:100A5000BAD0BB0057415445527C4D4F44457C4D64
:100A6000414E55414C0057415445527C4D4F4445F1
:100A70007C4155544F0057415445527C4F464600E7
:100A800057415445527C4F4E00D0B0D0B2D182D0A5
:100A9000BE00D0B2D18BD0BAD0BB00D0B2D0BAD0C9
:100AA000BB00D0B0D0B2D182D0BE00D0B7D0B0D0D1
:100AB000BAD18000D0BED182D0BAD1800053544187
:100AC00054457C4D4F44457C4D414E55414C00535F
:100AD000544154457C4D4F44457C4155544F00533F
:100AE000544154457C57494E444F577C414C4C7CB3
:100AF000434C4F53450053544154457C57494E4451
:100B00004F577C414C4C7C4F50454E002530326451
:100B10002E253032642E256420253032643A25306B
:100B20003264003CD0BDD0B5D18220D0B4D0B0D09A
:100B3000BDD0BDD18BD1853E0000000000FC3F142C
:100B4000281428142814281428F42FE427242724F0
:100B5000272427F83F0000000000000000E00310F9
:100B60000408080808480988089004A002A002E0C8
:100B700003E003C0010000000000000000800180CD
:100B8000018001C003E006E005F00DF00BF00DF070
:100B90000DE007C0030000000000000000FC3F045F
:100BA0002204220422043E042204220422042204F9
:100BB000220422FC3F0000000000000000C001C031
:100BC00003E003C0010000E003C003C003C003C092
:100BD00003C00300000000000000000000FC3FFC18
:100BE0003F0C300C300C300C300C300C300C300C16
:100BF00030FC3FFC3F0000000000000040FC3FFCD8
:100C00003F0C380C340C322C33FC31CC30CC300C53
:100C100030FC3FFC3F0000000000000000C003F07B
:100C20000F381C18180C300C300C300C30181838D9
:100C30001CF00FC0030000000000000000C003F023
:100C40000F381C18188C31CC33CC338C3118183831
:100C50001CF00FC0030000000000060A00FE0701A0
:100C600099032B20FFFE08FE07FE0000000605FF8B
:100C70000107070602008080808080008003030354
:100C8000060104A0A0A00507070600005050F85078
:100C9000F850500507070600002070A0702870204B
:100CA00005070706000048A8502050A89005070730
:100CB00006000040A0A040A89068010303060204BB
:100CC000808080030707060100204080808040204C
:100CD000030707060100804020202040800505050D
:100CE0000600018850F850880505050600012020FF
:100CF000F820200303030601FF6040800401010681
:100D00000103F00303030601FF40E0400507070667
:100D1000000008081020408080050707060000201A
:100D20005088888850200507070600002060A02012
:100D30002020F8050707060000708808304080F87A
:100D4000050707060000F808103008887005070737
:100D500006000010305090F810100507070600003C
:100D6000F880B0C80888700507070600003040808A
:100D7000B0C88870050707060000F808101020406A
:100D8000400507070600007088887088887005078E
:100D900007060000708898680810600307070601BE
:100DA000FF40E0400040E0400307070601FF40E04D
:100DB000400060408004070706010010204080408A
:100DC0002010050303060002F800F80407070601D7
:100DD0000080402010204080050707060000708832
:100DE0001020200020050707060000708898A8B092
:100DF000807005070706000020508888F88888055D
:100E00000707060000F04848704848F00507070645
:100E1000000070888080808870050707060000F059
:100E20004848484848F0050707060000F88080F069
:100E30008080F8050707060000F88080F080808039
:100E400005070706000070888080988870050707EE
:100E5000060000888888F88888880307070601004C
:100E6000E04040404040E005070706000038101011
:100E7000101090600507070600008890A0C0A090A1
:100E800088050707060000808080808080F80507BD
:100E9000070600008888D8A8888888050707060004
:100EA000008888C8A8988888050707060000708809
:100EB0008888888870050707060000F08888F08019
:100EC00080800508080600FF7088888888A8700858
:100ED000050707060000F08888F0A090880507073E
:100EE00006000070888070088870050707060000FB
:100EF000F820202020202005070706000088888889
:100F00008888887005070706000088888850505038
:100F100020050707060000888888A8A8D888050744
:100F200007060000888850205088880507070600BB
:100F30000088885020202020050707060000F808B8
:100F400010204080F8030707060100E080808080C1
:100F500080E0050707060000808040201008080395
:100F60000707060100E02020202020E005030306FB
:100F700000042050880501010600FFF80202020665
:100F8000020680400505050600007008788878058F
:100F900007070600008080B0C888C8B005050506B0
:100FA0000000708880887005070706000008086840
:100FB000988898680505050600007088F880700517
:100FC0000707060000304840F0404040050707068C
:100FD00000FE78888878088870050707060000807A
:100FE00080B0C88888880307070601004000C04019
:100FF0004040E00409090601FE1000301010109076
:10100000906005070706000080808890E0908803C4
:101010000707060100C04040404040E005050506C6
:101020000000D0A8A8A888050505060000B0C8885B
:101030008888050505060000708888887005070700
:101040000600FEB0C888C8B080800507070600FE0D
:1010500068988898680808050505060000B0C880EB
:10106000808005050506000070807008F005070700
:101070000600004040F040404830050505060000ED
:1010800088888898680505050600008888505020E3
:101090000505050600008888A8A850050505060076
:1010A0000088502050880507070600FE8888986849
:1010B000088870050505060000F8102040F80407B0
:1010C00007060100304020C020403001070706021B
:1010D0000080808080808080040707060100C02097
:1010E00040304020C005030306000448A890FF05D7
:1010F00007070600FEB0C888C8B080800505050651
:1011000000007088808870050505060000F8202022
:1011100020200507070600FE888888780888700563
:1011200009090600FE202070A8A8A8702020050547
:101130000506000088502050880507070600FE902D
:10114000909090F808080505050600008888780842
:1011500008050505060000A8A8A8A8F805070706C1
:1011600000FEA8A8A8A8F80808050505060000C004
:10117000407048700505050600008888E898E80476
:1011800005050601008080E090E0050505060000E9
:10119000708838887005050506000090A8E8A890BA
:1011A0000505050600007888788888050707060089
:1011B0000020508888F88888050707060000F0801E
:1011C00080F08888F0050707060000F08888F0881E
:1011D00088F0050707060000F88080808080800581
:1011E00008080600FF182828484848F88805070717
:1011F000060000F88080F08080F8050707060000F0
:10120000A8A8A870A8A8A805070706000070880865
:1012100030088870050707060000888898A8C888E5
:101220008805080806000050208898A8C888880506
:1012300007070600008890A0C0A090880507070651
:1012400000003848484848488805070706000088D5
:1012500088D8A8888888050707060000888888F845
:101260008888880507070600007088888888887045
:10127000050707060000F88888888888880507071A
:10128000060000F08888F0808080050707060000CF
:1012900070888080808870050707060000F820208D
:1012A000202020200507070600008888885020405D
:1012B000800507070600002070A8A8A87020050771
:1012C0000706000088885020508888050909060014
:1012D000FE909090909090F808080507070600008F
:1012E00088888878080808050707060000A8A8A8C5
:1012F000A8A8A8F80509090600FEA8A8A8A8A8A8F3
:10130000F80808050707060000C04040704848700C
:10131000050707060000888888E89898E80407070A
:10132000060100808080E09090E00507070600003D
:101330007088083808887005070706000090A8A87C
:10134000E8A8A8900507070600007888887828484C
:1013500088050505060000700878887805070706E7
:10136000000078807088888870050505060000F008
:1013700088F088F0040505060100F0808080800573
:1013800006060600FF30505050F888050505060097
:10139000007088F88070050505060000A8A870A8F0
:1013A000A80505050600007088308870050505064B
:1013B00000008898A8C88805070706000050208804
:1013C00098A8C8880505050600008890E090880563
:1013D0000505060000384848488805050506000050
:1013E00088D8A888880505050600008888F88888B8
:1013F000050505060000708888887005050506004B
:1014000000F888888888FFFFFFFFFFFFFFFFFFFFCE
:10141000FFFFFFFFFFFFFFFFFFFFFFFFFFFFFFFFDC
:10142000FFFFFFFFFFFFFFFFFFFFFFFFFFFFFFFFCC
:10143000FFFFFFFFFFFFFFFFFFFFFFFFFFFFFFFFBC
:10144000FFFFFFFFFFFF554E4B4E4F574E5F434F81
:101450004D4D414E4400504152414D535F4D495313
:1014600053454400454E445F4F465F46494C450056
:10147000464F4C4C4F57003D004F4B002F006163CF
:1014800074696F6E7300414354494F4E005041528E
:10149000414D535F4D495353454400454E445F4FC2
:1014A000465F46494C4500464F4C4C4F57003D0067
:1014B0004F4B002F006C6F67730046494C45004E40
:1014C0004F545F535550504F5254454400554E4B66
:1014D0004E4F574E5F434F4D4D414E44002C003B05
:1014E0000022002200504800534D00574600524C45
:1014F0000052480052540030003A0030002F006C77
:101500006F6773002E4C4F47003000300030003AB8
:101510000030002F00616374696F6E73002E4C4FB2
:101520004700300030000D0A002C007C004F46467A
:10153000004F4E007C004D414E55414C00415554EA
:101540004F005354415445005354415445007C00CE
:101550004D414E55414C004155544F004D4F44456F
:10156000004D4F4445007C007C007C004D414E55B1
:10157000414C004155544F004D4F44450041555496
:101580004F004D414E55414C004D4F4445004F4694
:1015900046004F4646004F4E004F4E0050415241CC
:1015A0004D535F4D495353454400554E4B4E4F5795
:1015B0004E5F434F4D4D414E440000554E4B4E4FF4
:1015C000574E5F4D4F44554C45007C003D00455201
:1015D000004F4B002B004600004600443000460000
:1015E000002B000A003931004600303132333435E7
:1015F00036373839414243444546002C007C004F81
:101600004646004F4E0054004F4E003100444554B2
:10161000414348007C004F4646004F4E0050415227
:10162000414D535F4D495353454400414444454463
:1016300000534F494C004C494748540048554D49C8
:101640004449545900535441544500534F494C00A8
:101650004C494748540048554D4944495459005451
:10166000454D5000504152414D535F4D49535345F4
:1016700044004144440041444445440053415645DC
:101680000044454C455445440044454C007C0053BF
:101690004F494C004C494748540048554D4944492E
:1016A0005459005354415445007C00534F494C0059
:1016B0004C494748540048554D49444954590054F1
:1016C000454D50007C007C00564945570050415222
:1016D000414D535F4D495353454400504152414D94
:1016E000535F4D49535345440056494557007C00CC
:1016F000434E5400434E5400554E4B4E4F574E5F91
:10170000434F4D4D414E4400313233343536373836
:10171000005445504C494341000000000000005572
:101720004E4B4E4F574E5F434F4D4D414E44007C04
:101730000041444445440042414C0042414C007C3D
:101740000050524F560050524F56007C00414444C6
:1017500045440053544154005354415400504152A5
:10176000414D535F4D495353454400554E4B4E4FE9
:10177000574E5F434F4D4D414E44007C0050415207
:10178000414D535F4D49535345440050524F56000D
:101790007C0041444445440050524F560050415251
:1017A000414D535F4D4953534544007C0050524FC7
:1017B000560050524F56004E4F545F535550504FA5
:1017C00052544544004144444544002E736D730017
:1017D0002F00736D7300504152414D535F4D49537B
:1017E0005345440041444400504152414D535F4DE4
:1017F00049535345440041542B434D47533D00D07A
:10180000B2D0BAD0BB00D0B2D18BD0BAD0BB004FCF
:10181000464600D09FD0BED0BBD0B8D0B23A200050
:101820005741544552000D0A00D0B7D0B0D0BAD1BC
:101830008000D0BED182D0BAD180004F50454E003A
:10184000D09ED0BAD0BDD0B03A20005354415445B8
:101850007C57494E444F577C30000D0A003CD0BDA8
:10186000D0B5D18220D0B4D0B0D0BDD0BDD18BD135
:10187000853E00D0A2D0BDD0B0D1803A20000D0A64
:10188000003CD0BDD0B5D18220D0B4D0B0D0BDD036
:10189000BDD18BD1853E00D0A2D0B2D0BD3A2000C0
:1018A000535441544500434C4F534544004F504519
:1018B0004E494E47004F50454E007C005354415412
:1018C000457C57494E444F577C414C4C0041542B6A
:1018D000434D47443D312C34004154480041542B82
:1018E000435245473F0041542B434E4D493D322C16
:1018F000320041542B435343533D2255435332222C
:101900000041542B434D47463D300041542B434C3E
:1019100049503D310041542B435343423D31004136
:1019200054453000220041542B435553443D312C43
:1019300022002A31303023002A31323023002A316C
:10194000303023002A31303023002A313030230058
:101950002A31303523002A31303023002A31303209
:1019600023002A313030230041540041542B43508E
:1019700041530041542B43474D4D000D0A002B00AD
:101980004F4B002E736D73002F00736D7300233562
:101990000023390057415445527C4F4646002336B8
:1019A0000057415445527C4F4E002334004C494768
:1019B00048547C4D4F44457C4155544F0057415449
:1019C00045527C4D4F44457C4155544F0053544142
:1019D00054457C4D4F44457C4155544F00233800BD
:1019E00053544154457C57494E444F577C414C4CCD
:1019F0007C434C4F53450023300053544154457CA5
:101A000057494E444F577C414C4C7C4F50454E00FB
:101A10002331002B434D543A002B434C49503A009C
:101A20003E002B435245473A20302C31002B435582
:101A300053443A002B435041533A2030002B43503B
:101A400041533A0053494D383030004D353930005C
:101A5000534D5320526561647900504252454144D0
:101A600059004552524F52004F4B007C004E4F548C
:101A70005F535550504F52544544007C00434E54E0
:101A800000434E54007C00414C4C00504152414DAB
:101A9000535F4D4953534544004E4F545F53555087
:101AA000504F5254454400200020004441544554B6
:101AB000494D45007C00555054494D450055505402
:101AC000494D45007C004652454552414D00465225
:101AD000454552414D00504152414D535F4D495390
:101AE000534544004E4F545F535550504F52544548
:101AF0004400554E4B4E4F574E5F434F4D4D414E58
:101B000044007C007C00545F5345545400545F53A0
:101B1000455454007C00494E54455256414C0049AE
:101B20004E54455256414C007C004D414E55414C5F
:101B3000004155544F004D4F4445004D4F44450022
:101B40007C007C0057494E444F5700434C4F53454F
:101B500044004F50454E00434C4F53494E47004FB1
:101B600050454E494E47004E4F545F535550504FCD
:101B700052544544007C007C007C00535441544541
:101B80004D41534B0057494E444F57005354415415
:101B9000454D41534B007C0057494E444F575F43DE
:101BA0004E540057494E444F575F434E54005749D7
:101BB0004E444F57007C007C0054454D50004E4F22
:101BC000545F535550504F52544544007C00544587
:101BD0004D5000414C4C007C0054454D505F434EED
:101BE000540054454D505F434E540054454D5000F1
:101BF0007C00414444454400494E54455256414CB2
:101C000000494E54455256414C007C004D4F4445CE
:101C1000004D414E55414C007C004D4F4445004124
:101C200055544F004D4F4445007C004144444544C9
:101C300000545F5345545400545F5345545400437B
:101C40004C4F534544004F50454E00434C4F534971
:101C50004E47004F50454E494E4700434C4F534965
:101C60004E47004F50454E494E47007C007C004394
:101C70004C4F534544004F50454E00434C4F534941
:101C80004E47004F50454E494E4700434C4F534935
:101C90004E47004F50454E494E4700414C4C004F77
:101CA00050454E0057494E444F5700504152414D08
:101CB000535F4D495353454400414444454400500B
:101CC0004152414D535F4D4953534544007C007C84
:101CD000007C007C00504800534F494C004C494761
:101CE00048540048554D49444954590053544154AF
:101CF00045004C494748547C4D4F44457C4D414E2E
:101D000055414C004C494748547C4D4F44457C411B
:101D100055544F004C494748547C4F4646004C4967
:101D20004748547C4F4E0057415445527C4D4F44D8
:101D3000457C4D414E55414C0057415445527C4DD8
:101D40004F44457C4155544F0057415445527C4FB8
:101D500046460057415445527C4F4E00535441541F
:101D6000457C4D4F44457C4D414E55414C005354AC
:101D70004154457C4D4F44457C4155544F0053548C
:101D80004154457C57494E444F577C414C4C7C4F05
:101D900050454E0053544154457C57494E444F578B
:101DA0007C414C4C7C434C4F5345007C007C0054A0
:101DB0005F5345545400545F5345545400504152AE
:101DC000414D535F4D4953534544004144444544BC
:101DD0000052535400414444454400504152414D47
:101DE000535F4D495353454400545F534554540089
:101DF000504152414D535F4D495353454400554E58
:101E00004B4E4F574E5F434F4D4D414E4400554E44
:101E10004B4E4F574E5F434F4D4D414E44007C005B
:101E20007C007C007C0043485F5345545400434889
:101E30005F5345545400300031007C007C00535403
:101E40004154454D41534B0053544154454D41532A
:101E50004B007C004D414E55414C004155544F00C4
:101E60004D4F4445004D4F4445007C004348414E92
:101E70004E454C53004348414E4E454C53007C0068
:101E80007C007C007C007C00545F5345545400541B
:101E90005F53455454007C004D414E55414C004128
:101EA00055544F004F4646004F4E007C004F46466B
:101EB000004F4646007C004F4E004F4E007C004DC8
:101EC0004F4445004155544F004D4F44450050414B
:101ED00052414D535F4D495353454400554E4B4E6F
:101EE0004F574E5F434F4D4D414E44007C007C00A8
:101EF00041444445440043485F53455454004348DB
:101F00005F5345545400504152414D535F4D495326
:101F1000534544007C00414444454400545F5345CC
:101F2000545400545F5345545400504152414D5352
:101F30005F4D495353454400554E4B4E4F574E5FEE
:101F4000434F4D4D414E4400004144444544003A06
:101F5000003A002E002E0020004441544554494DC3
:101F600045007C0041444445440049440049440044
:101F7000555F4E4F4E4500534352415443485F54C2
:101F80005950455F4552524F520041444445440028
:101F9000555F524547007C00414444454400524649
:101FA000005246007C0041444445440050484F4E96
:101FB000450050484F4E45004144444544004C497B
:101FC0004748547C4D4F44457C4155544F00574140
:101FD0005445527C4D4F44457C4155544F00535419
:101FE0004154457C4D4F44457C4155544F0041552B
:101FF000544F0052535400504152414D535F4D498C
:102000005353454400504152414D535F4D49535342
:102010004544007C00004C495354000D0A003D002B
:102020004F4B0053544154007C0050484F4E4500E4
:1020300050484F4E45007C007C007C007C007C00BA
:10204000554E4900554E49007C007C007C007C00C8
:102050007C005749524544005749524544007C0092
:10206000494400494400555F4E4F4E4500555F536B
:102070004541524348007C007C007C0050494E534F
:102080000050494E53007C00524600524600504FCB
:102090004E470050494E4700504152414D535F4D0D
:1020A0004953534544004E4F545F535550504F527F
:1020B00054454400554E4B4E4F574E5F434F4D4D88
:1020C000414E440000000A0B02090C0D0E080703E4
:1020D00004010000000000000000000000000000FB
:1020E00000000000000000000000000000000000F0
:1020F00012111000000000000000000000000000AD
:102100000000000000000000000001021020200874
:102110000810204010204080020102010804020142
:1021200001020408102040808040201008040201B1
:10213000800402018040201008040201080402010A
:102140000102040810204080010204081020408091
:1021500005050505070508080808020202020A0A23
:102160000808040404040101010101010101030341
:10217000030303030303040707070C0C0C0C0C0CEC
:102180000C0C0202020206060606060606060B0BE9
:102190000B0B0B0B0B0B000020002300260029006B
:1021A0002C002F003200000100000301060109018C
:1021B00000002200250028002B002E0031003400F2
:1021C00002010000050108010B01000021002400AC
:1021D00027002A002D003000330001010000040117
:1021E00007010A01AF13EE1B001FCF2B60317436BD
:1021F0004438C839143C7251665D92821E89ED984C
:102200005599669D20AA33B4FCF0110143010501E4
:102210004501350173013F162B8901996299729D21
:1022200026AA3FF1670111241FBECFEFD1E2DEBF26
:10223000CDBF00E00CBF16E0A0E0B2E0E2E3F9E4BD
:1022400002E00BBF02C007900D92AA3BB107D9F77D
:1022500025E1AAEBB6E001C01D92AB3CB207E1F765
:1022600011E2C6E1D2E200E006C022970109FE01B8
:102270000BBF0F946D1DC43ED10780E00807A9F77E
:102280000F9465120D9488240C940000CF92DF9275
:10229000EF92FF920F931F93E82FF92F05C0015083
:1022A00011092109310961F1908196239417B9F33D
:1022B00005C0015011092109310911F190819623BE
:1022C0009413F7CFC12CD12CE12CF12C0AC08FEF45
:1022D000C81AD80AE80AF80A0C151D052E053F058C
:1022E00079F080818623841791F36C2D7D2D8E2DBE
:1022F0009F2D1F910F91FF90EF90DF90CF90089549
:1023000060E070E080E090E01F910F91FF90EF900F
:10231000DF90CF9008952EEC32E0FC0131832083D2
:10232000818592850D94091E0F931F93CF93DF93A0
:10233000CDB7DEB72F970FB6F894DEBF0FBECDBF77
:1023400026E040E051EE60E070E08CE493E10F9411
:10235000DF0E20E040E060E084EA90E10E948C54CF
:1023600020E041E061E084EA90E10E948C5421E0A9
:1023700041E06BE384EA90E10E948C5460E08BE3DF
:102380000F940C0D1092C8061092C7061092CA0640
:102390001092C90682E19BE00E943BA883ED9BE07E
:1023A0009093190B8093180B61E07BE082E19BE036
:1023B0000E94B6A862EF7AE082E19BE00E94B6A894
:1023C00062EA79E082E19BE00E94B6A865EB78E0E2
:1023D00082E19BE00E94B6A869E978E082E19BE097
:1023E0000E94B6A86BE778E082E19BE00E94B6A865
:1023F00060E178E082E19BE00E94B6A860E078E0CE
:1024000082E19BE00E94B6A869ED77E082E19BE063
:102410000E94B6A868EC77E082E19BE00E94B6A833
:102420006BEB77E082E19BE00E94B6A867E977E07A
:1024300082E19BE00E94B6A86BE777E082E19BE037
:102440000E94B6A864E377E082E19BE00E94B6A810
:1024500068E278E082E19BE00E94B6A888E298E01A
:102460009093C50B8093C40B86E090E00F9471129B
:102470008C016BEA76E00F944F1410934809009397
:10248000470969E479E082E19BE00E94B6A866E82A
:1024900079E082E19BE00E94B6A863E277E082E106
:1024A0009BE00E94B6A86BEC76E082E19BE00E9484
:1024B000B6A882E19BE00E9426A86AE073E08CE463
:1024C00093E10F94A11282E19BE00E9423A8CE0128
:1024D0000F960E94238129833A834B835C836D830B
:1024E0007E838F83988767E073E08CE493E10F9499
:1024F000A112BE016F5F7F4FCE010F960E94777FC2
:10250000BC018CE493E10F94D21265E073E08CE49B
:1025100093E10F94A112BE016F5F7F4FCE010F9622
:102520000E94C77FBC018CE493E10F94D21261E05A
:1025300073E08CE493E10F94A112BE016F5F7F4FB3
:10254000CE010F960E94827FBC018CE493E10F9430
:10255000D21260E073E08CE493E10F94DF126AEF33
:1025600072E0CE0109960F941416AE01475F5F4FDB
:1025700068E278E082E19BE00E9474A8CE010996AF
:102580000F94E4132F960FB6F894DEBF0FBECDBFA5
:10259000DF91CF911F910F9108958091BF06811116
:1025A0000DC00F94F90A6093BB067093BC0680932C
:1025B000BD069093BE0681E08093BF060F94F90A92
:1025C0004091BB065091BC066093BB067093BC065D
:1025D0008093BD069093BE062091C7063091C80631
:1025E000241B350B260F371F3093C8062093C706D0
:1025F0008091C9069091CA06009719F0019781F061
:10260000089528383341D8F01092C8061092C706B2
:1026100081E090E09093CA068093C90661E00CC007
:102620002431310560F01092C8061092C70610924E
:10263000CA061092C90660E08BE30D940C0D089554
:10264000EF92FF920F931F93CF93DF93CDB7DEB737
:1026500060970FB6F894DEBF0FBECDBF0F94F90A96
:102660002091D80B3091D90B7B01E21AF30A6093C9
:10267000D80B7093D90B8093DA0B9093DB0B8DDF23
:102680008091BA0681110EC081E08093BA0666E09F
:102690008EE297E00E94F58868E873E18EE297E0A9
:1026A0000E94FD88B7018EE297E00E94D78884EDF2
:1026B0009BE00E94FF718823F1F1CE0101960E94F8
:1026C000B6726091D60B7091D70BAE014F5F5F4F22
:1026D00083ED9BE00E946673882379F08091D40B90
:1026E0009091D50B9A83898340E050E0BE016F5FE3
:1026F0007F4F82E19BE00E947CA90091D60B109154
:10270000D70B0115110531F0C8010F94E413C8016E
:102710000F94751286E090E00F9471128C016BEAB1
:1027200076E00F944F141093D70B0093D60BCE0185
:1027300001960E94C8724DEC57E1B70182E19BE01F
:102740000E94DFA960960FB6F894DEBF0FBECDBF22
:10275000DF91CF911F910F91FF90EF900895CF934C
:10276000DF936CE473E184ED9BE00E94E87183EDFC
:102770009BE00E94D67282E19BE00E94FAA7CEEC19
:10278000D2E0D093020BC093010B84E792E09093C8
:10279000040B8093030B85E09BE00E94CB5B84EBF2
:1027A00095E09093020B8093010B10920D0B109209
:1027B0000C0B10920F0B10920E0B1092110B10922B
:1027C000100BD093F30AC093F20A88E792E090933B
:1027D000F50A8093F40A86EF9AE00E94CB5B80E0D2
:1027E00096E09093F30A8093F20AD093A309C093E2
:1027F000A2098DE792E09093A5098093A40986EA47
:1028000099E00E94CB5B8CE096E09093A3098093C3
:10281000A209EFEAF9E0A0ECB9E01082118212827D
:102820001382148215821682178282898E7F828B90
:1028300010861186128613861486158616861786CC
:10284000ED01219718821C928289817F828B739679
:1028500053968AE0EF3DF80701F786EE9AE00E9472
:10286000D0881092EC0ACEECD2E0D0938709C093C6
:10287000860983E892E090938909809388098AE821
:1028800099E00E94CB5B80E194E09093870980936C
:102890008609109299091092980910929B0910923A
:1028A0009A0910929D0910929C09D0934A09C093ED
:1028B000490987E892E090934C0980934B098DE495
:1028C00099E00E94CB5B109257091092560988EE4E
:1028D00093E0A0E0B0E08093580990935909A09349
:1028E0005A09B0935B0982ED95E090934A09809371
:1028F000490986EE95E0909355098093540910920A
:102900006209109261091092640910926309109291
:10291000660910926509D093B608C093B5088BE894
:1029200092E09093B8088093B70889EB98E00E94F2
:10293000CB5B82E796E09093B6088093B508C3EC32
:10294000D8E0CE010E946DF7299689E0C134D807FE
:10295000C1F781E499E00E94D088CEECD2E0D09318
:102960009A08C093990881E992E090939C0880931B
:102970009B088DE998E00E94CB5B8DE395E09093F6
:102980009A088093990884EA98E00E94D0888AEA9D
:1029900098E00E94A6A58EEA98E00E94A6A586EA85
:1029A00092E09093B3088093B208D0937C08C093D0
:1029B0007B0887E992E090937E0880937D088FE7FB
:1029C00098E00E94CB5B8BEF93E090937C08809320
:1029D0007B0886E898E00E942F7D8BE898E00E94B3
:1029E00003C580E091E09093980880939708D09376
:1029F0002908C093280880EA92E090932B088093DE
:102A00002A088CE298E00E94CB5B83E395E09093E8
:102A100029088093280887E398E00E94767F8AE35C
:102A200098E07ED385E598E07BD36BEA76E080E79B
:102A300098E00F944F14D0931108C093100884EAC3
:102A400092E0909313088093120884E198E00E942A
:102A5000CB5B8DE993E090931108809310088CE68E
:102A600093E090931F0880931E0810922108109203
:102A70002008109223081092220810922508109224
:102A80002408D0930108C09300088AEA92E090934A
:102A900003088093020884E098E00E94CB5B89E2FF
:102AA00095E09093010880930008D093DA07C093D3
:102AB000D9078EEA92E09093DC078093DB078DEDD7
:102AC00097E00E94CB5B88E696E09093DA078093CC
:102AD000D907D093C907C093C80783EB92E09093BE
:102AE000CB078093CA078CEC97E00E94CB5B83E90D
:102AF00093E09093C9078093C8071092D40710926F
:102B0000D3071092D6071092D5071092D8071092CB
:102B1000D707D093BC07C093BB0786EB92E0909396
:102B2000BE078093BD078FEB97E00E94CB5B86EFDB
:102B300095E09093BC078093BB078DE895E2909356
:102B4000C7078093C607D0939807C09397078BEB6E
:102B500092E090939A07809399078BE997E00E94FF
:102B6000CB5B81EF93E09093980780939707C3EA3C
:102B7000D7E06BEA76E0CE010F944F14269687E0FB
:102B8000CB3BD807B1F7CEECD2E0D0937C07C09313
:102B90007B078FEB92E090937E0780937D078FE712
:102BA00097E00E94CB5B8EEB95E090937C0780933F
:102BB0007B078AEC95E090938707809386071092B5
:102BC000910710929007109293071092920710921B
:102BD0009507109294071092960710928907109209
:102BE000880710928B0710928A0710928D07109217
:102BF0008C0710928F0710928E07D0933507C093E1
:102C0000340784EC92E0909337078093360788E38B
:102C100097E00E94CB5B86E196E090933507809326
:102C200034078FE397E00E9401E08EE497E00E9472
:102C300001E08DE597E00E9401E08CE697E00E94BC
:102C400001E08EE297E00E94D088D0932407C093E1
:102C5000230788EC92E0909326078093250787E26C
:102C600097E00E94CB5B8DE896E0909324078093D9
:102C700023078BEC96E0DF91CF910C94096589E8EE
:102C800093E09093CC068093CB068091E0069091E0
:102C9000E1060F94091E8091DA069091DB060F94ED
:102CA000091E8BEC96E037DB8DE896E090932407C5
:102CB0008093230783E297E02EDB86E196E09093F2
:102CC00035078093340784E397E025DB8EEB95E0AE
:102CD00090937C0780937B078AEC95E0909387071D
:102CE0008093860780919407909195070F94091E11
:102CF0008BE797E010DB81EF93E090939807809348
:102D0000970783EA97E0892B09F0CFC087E997E01E
:102D100002DB86EF95E09093BC078093BB078BEBBB
:102D200097E0F9DA83E993E09093C9078093C807A5
:102D30008091D7079091D8070F94091E88EC97E0EF
:102D4000EADA88E696E09093DA078093D90789ED6E
:102D500097E0E1DA89E295E090930108809300081A
:102D600080E098E0D8DA8DE993E0909311088093A1
:102D7000100880912408909125080F94091E80E185
:102D800098E0C9DA83E395E09093290880932808B6
:102D900080E798E00F94E41388E298E0BCDA8BEFC8
:102DA00093E090937C0880937B088BE798E0B3DAFC
:102DB0008DE395E090939A088093990889E998E0CB
:102DC000AADA82E796E09093B6088093B50885EB7F
:102DD00098E0A1DA82ED95E090934A098093490941
:102DE00086EE95E09093550980935409809165098A
:102DF000909166090F94091E89E499E08CDA80E1CC
:102E000094E0909387098093860980919C09909122
:102E10009D090F94091E86E899E07DDA8CE096E022
:102E20009093A3098093A20982EA99E074DA80E082
:102E300096E09093F30A8093F20A82EF9AE06BDABD
:102E400084EB95E09093020B8093010B8091100B23
:102E50009091110B0F94091E81E09BE05CDA809148
:102E6000D10B9091D20B0F94091E8091CB0B9091B6
:102E7000CC0B0F94091E88E89BE00F94E41382E8C2
:102E80009BE00F94E4138CE79BE00F94E41386E738
:102E90009BE00F94E41381E29BE00F94E413809194
:102EA000160B9091170B0D94091E85EB97E00F946C
:102EB000E4138FEA97E00F94E41389EA97E00F9404
:102EC000E41383EA97E00F94E41320CF0F931F934A
:102ED000CF93DF9300D000D0CDB7DEB789EE93E17A
:102EE0000F94D30D892B09F44DC089EE93E10F9413
:102EF000EC0D8D3099F38A3049F460914709709157
:102F0000480989E499E00E9416CF21C09091850973
:102F1000992311F08E3341F0682F809147099091E9
:102F200048090F945C16DACF1092850960E173E0CE
:102F3000CE0101960F941416BE016F5F7F4F89E496
:102F400099E00E9416CFCE0101960F94E4130091F0
:102F50004709109148090115110531F0C8010F9476
:102F6000E413C8010F94751286E090E00F9471127B
:102F70008C016BEA76E00F944F141093480900938C
:102F80004709ACCF26960FB6F894DEBF0FBECDBF73
:102F9000DF91CF911F910F91089598CFFEDA96DFC0
:102FA0008BEA91E10C942D82CF93DF931F92CDB7E2
:102FB000DEB76983DC01ED91FC910280F381E02DA5
:102FC00041E050E0BE016F5F7F4F19950F90DF9198
:102FD000CF910895CF93DF93EC01898D9A8D00975F
:102FE00059F0FC01138212820E944025E98DFA8D6E
:102FF00022813381232B31F081E090E09B838A830F
:1030000080E090E0DF91CF910895FC01818D928D59
:10301000009711F00C9418220895CF93DF931F921C
:10302000CDB7DEB741E050E0BE016F5F7F4F0E9439
:103030002E20019719F4898190E002C08FEF9FEF55
:103040000F90DF91CF910895FC01818D928D0097B3
:1030500009F0E3CF8FEF9FEF08950F931F93CF9366
:10306000DF938C01FC01818D928D0097B1F0D5DF4B
:10307000EC018F3FFFEF9F0799F0F801818D928D52
:10308000FC0142855385648575854150510961096C
:1030900071090E947D21CE0105C080E090E002C050
:1030A0008FEF9FEFDF91CF911F910F910895CF92F6
:1030B000DF92EF92FF920F931F93CF93DF93EC0178
:1030C0007B016A011B821A8208EE13E020E030E0E7
:1030D0000C831D832E833F8388ED92E09983888340
:1030E0008DE190E00F94711D9A8F898F009779F090
:1030F0002DE1F701DC0101900D922A95E1F74CE0FA
:1031000050E0B601CE010C960F94CF20188EDF91BF
:10311000CF911F910F91FF90EF90DF90CF90089586
:10312000FC011382128248EE53E060E070E04483B9
:1031300055836683778388ED92E091838083128E36
:10314000118E148608950C960895FC01818D928D40
:10315000009709F083C780E090E00895DC0159965C
:10316000ED91FC915A97309729F06285738584859B
:10317000958508956FEF7FEFCB010895DC01599697
:10318000ED91FC915A97309729F06389748985896C
:103190009689089560E070E0CB010895CF92DF92A8
:1031A000EF92FF92CF93DF93EC01898D9A8D892B5B
:1031B000C9F0CE01E3DF6B017C01CE01CFDFA701B7
:1031C0009601261B370B480B590BDA01C9018115F3
:1031D00030E89307A105B10538F08FEF9FE7A0E035
:1031E000B0E002C080E090E0DF91CF91FF90EF90DF
:1031F000DF90CF900895CF93DF93EC01898D9A8D66
:10320000009741F00E945D22898D9A8D0F94091ECE
:103210001A8E198EDF91CF910895DC015996ED91A8
:10322000FC915A97309721F081E09581911101C06E
:1032300080E008951F93CF93DF93CDB7DEB76D97EE
:103240000FB6F894DEBF0FBECDBFAB011C821B8250
:103250002AEE32E03A8329831E8221E0BC01CE01AE
:1032600001960E94872311E0811102C010E004C082
:10327000CE0101960E945D22812F6D960FB6F894C3
:10328000DEBF0FBECDBFDF91CF911F910895EF92AA
:10329000FF920F931F93CF93DF93CDB7DEB76D9758
:1032A0000FB6F894DEBF0FBECDBF8C017B011C8230
:1032B0001B828AEE92E09A8389831E82C801BADF5C
:1032C000982F81110AC0A701B801CE0101960E9472
:1032D000662491E0811101C090E0892F6D960FB6B0
:1032E000F894DEBF0FBECDBFDF91CF911F910F913C
:1032F000FF90EF900895CF93DF93FB012081318100
:10330000FC01E20FF31FE081EF3211F42F5F3F4F1A
:10331000DA01E0E0F0E0EC01C20FD31FC881CF3248
:1033200049F0CC2339F031962F5F3F4FCD93EC30ED
:10333000F10589F7E40FF51F1082FC01E20FF31F7E
:1033400040814F3211F42F5F3F4FFB0131832083C7
:10335000FC01E20FF31F81E09081911101C080E038
:10336000DF91CF9108954F925F926F927F928F92EB
:103370009F92AF92BF92CF92DF92EF92FF920F9304
:103380001F93CF93DF93CDB7DEB7C954D1090FB6E2
:10339000F894DEBF0FBECDBF5C016B013A0149015D
:1033A00019A218A28AEE92E09F8F8E8F1BA21C8218
:1033B0001B829A8389831E822A961FAE1EAE2A978D
:1033C0008B017E018EE1E80EF11C44244394AE0192
:1033D000455C5F4FBE01685B7F4FC5018CDF582E97
:1033E000482F44259401BE01655C7F4FC801F3015D
:1033F0001995811108C00C151D0519F0C8010E940E
:103400005D2280E027C05520B9F021E0AE01455C87
:103410005F4FB801C7010E948723582E0C151D0568
:1034200099F0C8010E945D22552059F3902F812FF9
:103430008701E92EF82ECBCF0C151D0519F0C80118
:103440000E945D2281E006C08823D9F28E010F5FC1
:103450001F4FECCFC75BDF4F0FB6F894DEBF0FBE38
:10346000CDBFDF91CF911F910F91FF90EF90DF9033
:10347000CF90BF90AF909F908F907F906F905F9014
:103480004F9008950F931F93CF93DF93EC01462F36
:1034900061E0D4D2811102C080E01CC08E01045FC3
:1034A0001F4F41E0BE01C8010E94742A882351F0D9
:1034B000B801CE018A9683D591E0811101C090E0D8
:1034C000892F08C040E0BE01C8010E94742A8823E9
:1034D00019F3EECFDF91CF911F910F910895FC0169
:1034E000DB0112968D919C911397938382838AEED0
:1034F00092E09183808314968C911497848315961F
:103500008C911597858316964D915D916D917C9167
:10351000199746835783608771871A964D915D91FD
:103520006D917C911D9742875387648775871E969E
:103530004D915D916D917C91519746875787608B36
:10354000718B52968C915297828B53964D915D91CF
:103550006D917C915697438B548B658B768B5796E8
:103560004D915D916D917C915A97478B508F618FF2
:10357000728F5B968D919C915C97948F838F089549
:103580004F925F926F927F928F929F92AF92BF9273
:10359000CF92DF92EF92FF920F931F93CF93DF931F
:1035A000CDB7DEB7C754D1090FB6F894DEBF0FBE52
:1035B000CDBF6C014A013901665D7F4F5E018EE12E
:1035C000A80EB11CC5018BDF1C821B828AEE92E023
:1035D0009A8389831E828401FE0131967F015A2CD1
:1035E0004B2C6FE270E0C8010F94A6200097D9F130
:1035F000F80120812F3219F40F5F1F4FF2CF801B8B
:103600008D3008F08CE0A82EB12CA501B801CE01B8
:10361000CB960F94CF20EBE3F0E0EC0FFD1FEA0D0B
:10362000FB1D1082C70149D721E0AE01455C5F4F09
:10363000652D742DC7010E948723811109C0F601F1
:10364000138212828AEE92E091838083158214C0E5
:103650000A0D1B1D852D942D30D7C2015E2C4F2CD9
:10366000E92EF82EBECF08191909F3011183008342
:10367000652D742DC60133DFC601C95BDF4F0FB660
:10368000F894DEBF0FBECDBFDF91CF911F910F9198
:10369000FF90EF90DF90CF90BF90AF909F908F9072
:1036A0007F906F905F904F9008959F92AF92BF92DE
:1036B000CF92DF92EF92FF920F931F93CF93DF93FE
:1036C000CDB7DEB7C955D1090FB6F894DEBF0FBE2E
:1036D000CDBF7C016B015A01922E9E01285A3F4FAB
:1036E000CE01CB964DDF6A960EAD1FAD6A970A0DDF
:1036F0001B1DF8018081811109C0BE01655C7F4FEF
:10370000CE010196ECDE44EE52E03BC019A218A2B5
:103710008AEE92E09F8F8E8F1BA221968FAD21970C
:10372000811103C0C701FCDC31C08250823058F4E3
:10373000B601665D7F4F292DA801CE014E96E7D7D1
:1037400081110EC0EFCF292DA801BE01655C7F4F0E
:10375000CE014E96DCD7882329F3CE01CB96ADD689
:10376000892D867039F049A95AA96BA97CA9CE0187
:103770004E96C3D5BE01625E7F4FCE010196AFDE8D
:10378000A801BE016F5F7F4FC70191DCC701C75A17
:10379000DF4F0FB6F894DEBF0FBECDBFDF91CF91E4
:1037A0001F910F91FF90EF90DF90CF90BF90AF905F
:1037B0009F900895FB01BC01665D7F4F20E030E0E3
:1037C0004AE159E1CF01CFCDFB01BC01665D7F4FDE
:1037D00020E030E047E459E1CF01C5CD1092E10B84
:1037E0001092E20B1092E50B1092E70B82E090E052
:1037F000A0E0B0E08093E80B9093E90BA093EA0B74
:10380000B093EB0B1092FF0B1092090C1092080C66
:103810008AEE92E09093070C8093060C10920B0CAA
:1038200008959FB7F8942091DF0E8091DD0E21302E
:1038300019F48DBB9FBF08958FBF08952091DF0EAF
:10384000222399F03FB7F8942091DF0E213059F4EC
:103850002DB32093DD0E4DB32091DE0E2095242351
:103860002DBB3FBF02C03093DD0E8CBD9DBD0895C2
:103870008EBD00000DB407FEFDCF8EB508958FEF0D
:10388000F7CF61E0FC0184810F940C0D8091250C31
:10389000882331F01092250C8091DF0E8111C1CF69
:1038A0000895CF93DF93EC018091250C811108C01E
:1038B00081E08093250C8091260C9091270CBEDF2F
:1038C00060E08C81DF91CF910D940C0DCF93DF934D
:1038D000EC018E81882379F08F8198859C012F5F80
:1038E0003F4F38872F838230924010F4C8DFF4CFE7
:1038F000CE01C7DF1E82DF91CF910895673028F097
:1039000026E1FC01258380E00895623081F030F4E7
:10391000662359F06130B1F480E515C0643059F088
:1039200040F0653079F482E50EC080E505C081E5A0
:1039300003C081E508C082E58093260C81E0809376
:10394000270C089583E58093260C1092270C81E0C4
:1039500008950F931F93CF93DF93EB010F94F90A10
:103960008B018DDF8F3F49F00F94F90A601B710BBB
:103970006C177D07B0F380E001C081E0DF91CF914B
:103980001F910F910895CF92DF92FF920F931F9393
:10399000CF93DF9300D01F92CDB7DEB76C01F62E28
:1039A00029833A834B835C8391DFC6017ADF6CE223
:1039B00071E0C601CEDF8F2D80645ADF08E110E090
:1039C0005C814B813A812981DA01C901002E04C052
:1039D000B695A795979587950A94D2F729833A8348
:1039E0004B835C8345DF0850110929813A814B8163
:1039F0005C81083F8FEF180739F7FF2029F0E8E0D6
:103A0000FE1621F08FEF03C085E901C087E830DFA3
:103A100010E035DFF601828787FF04C01F3F11F0F9
:103A20001F5FF7CF0F900F900F900F90DF91CF9106
:103A30001F910F91FF90DF90CF900895BF92CF928A
:103A4000DF92EF92FF920F931F93CF93DF93EC01DE
:103A5000B62E1B8619861E821D824C830F94F90A8E
:103A60008B0161E08C810F94D30C61E08C810F9409
:103A70000C0D0E946D4782E58093260C1092270C56
:103A80008091260C9091270CD9DE2AE0F22E8FEF40
:103A9000EFDEFA94E1F78091DF0E8111C2DECE01F4
:103AA00000DF20E030E0A90160E0CE016CDFF82EFD
:103AB0008A8781E0F81649F00F94F90A601B710BB0
:103AC000613D774070F381E046C02AEA31E040E092
:103AD00050E068E0CE0157DF82FF02C0FB860CC0D9
:103AE00094E0F92ECCDE8A87FA94E1F78A3A11F055
:103AF00082E031C082E08B878B85823031F4C12C2B
:103B0000D12CE12C80E4F82E03C0C12CD12C7601FD
:103B100020E030E0A90167E3CE0135DFA70196017F
:103B200069E2CE0130DF8A87882349F00F94F90AD1
:103B3000601B710B613D774058F388E00CC08B85AA
:103B4000823001F520E030E0A9016AE3CE011BDFFD
:103B5000882379F086E08D83CE0193DE80E0DF91CB
:103B6000CF911F910F91FF90EF90DF90CF90BF907A
:103B7000089585DE807C803C11F483E08B877FDEB6
:103B80007EDE7DDECE017DDE6B2DCE01DF91CF911D
:103B90001F910F91FF90EF90DF90CF90BF90AECE2E
:103BA0000F931F93CF93DF93EC010F94F90A8B01CE
:103BB00066DE8A878F3F49F40F94F90A601B710B08
:103BC0006D327140A8F38FE003C08E3F31F08DE07D
:103BD0008D83CE0156DE80E001C081E0DF91CF9180
:103BE0001F910F910895CF92DF92EF92FF920F9362
:103BF0001F93CF93DF93EC0169010115110509F4BF
:103C00005DC0C801820F931F8130924008F058C0F8
:103C10008E81882371F088819981AA81BB814817A0
:103C200059076A077B0729F48F819885C816D9063A
:103C300000F5488359836A837B838B85833039F011
:103C400039E0440F551F661F771F3A95D1F79A0147
:103C5000AB0161E1CE0197DE882319F083E08D830B
:103C60002FC0CE019DDF882359F118861F8281E085
:103C70008E838F8198858C159D0538F400DE8F81A9
:103C80009885019698878F83F4CF6701E00EF11E27
:103C9000CE14DF0429F0F3DDF60181936F01F8CF34
:103CA0008F819885800F911F98878F832985222384
:103CB00019F08115924010F0CE0108DE81E003C0BA
:103CC000CE01DFDD80E0DF91CF911F910F91FF905A
:103CD000EF90DF90CF900895EF92FF920F931F9394
:103CE000790100E012E020E030E07DDF1F910F91CC
:103CF000FF90EF900895CF92DF92EF92FF920F9393
:103D00001F93CF93DF931F921F92CDB7DEB78C0125
:103D1000862F49835A83ACDD4981C42E5A81D52E22
:103D2000E12CF12CF60181916F01A2DDFFEFEF1A7A
:103D3000FF0AE11482E0F806A9F78FEF99DD8FEF13
:103D400097DD9DDDF80182878F71853031F081E14B
:103D50008583C80196DD80E001C081E00F900F905F
:103D6000DF91CF911F910F91FF90EF90DF90CF9057
:103D700008950F931F93CF93DF93EC0189014115B1
:103D800051056105710511F482E12DC08B858330E9
:103D900039F089E0440F551F661F771F8A95D1F7C8
:103DA0009A01AB0168E1CE01EEDD882311F084E0D9
:103DB0001AC0A8016EEFCE019EDF8823A9F068E546
:103DC00072E0CE01C6DD811102C085E10CC020E0A9
:103DD00030E0A9016DE0CE01D6DD811103C04FDDD9
:103DE000882331F084E18D83CE014BDD80E003C078
:103DF000CE0147DD81E0DF91CF911F910F910895B2
:103E000080E58093260C1092270C0895CF93DF93C2
:103E1000EC019C012A5F3F4F41E050E060E070E020
:103E20008B8D9C8D0E940F298823A1F04F89588D7E
:103E3000698D7A8D452B462B472B71F44E815F811E
:103E4000688579854F8B588F698F7A8F8C818068D0
:103E50008C8302C080E001C081E0DF91CF910895A2
:103E6000CF92DF92EF92FF921F93CF93DF93EC01FB
:103E7000CDDF811102C080E04AC0EB8DFC8DCE8089
:103E8000DF80E884F98482E0C81AD108E108F108EB
:103E9000058404C0CC0CDD1CEE1CFF1C0A94D2F778
:103EA0004685578560897189C40ED51EE61EF71EAA
:103EB000148181E0C81AD108E108F108112359F0F2
:103EC000C701B601610F711D811D911DF6D78823B1
:103ED00091F21150F3CFEB8DFC8DC12C82E0D82EE6
:103EE000E12CF12C058404C0CC0CDD1CEE1CFF1C65
:103EF0000A94D2F74B895C896D897E894C0D5D1DD2
:103F00006E1D7F1D4B8B5C8B6D8B7E8B81E0DF91FB
:103F1000CF911F91FF90EF90DF90CF900895CF93B6
:103F2000DF93EC01462F6E857F85888999898BD731
:103F3000882341F08A8920E2829FC00111248F5C8E
:103F4000934F02C080E090E0DF91CF910895282F39
:103F5000FB018BE030E231938150E9F7A22FB92FBA
:103F600020E037E09D91992319F19E3219F0E2E1AA
:103F7000F3E008C03A3011F128E03AE0F3CF31968F
:103F80004917E1F044914111FACF3217B8F04FEDE3
:103F9000490F4E3598F441E0420FFB01E20FF11D4D
:103FA0002FE9290F2A3108F490529083242FDACF79
:103FB00081E0FB019081903209F480E008950F9335
:103FC0001F93CF93DF93EC018B018D81882311F038
:103FD00080E03FC0FB0187898031B1F482E08D83AE
:103FE0001F8A188E198E1A8E408D518D60E070E0F8
:103FF00095E0440F551F661F771F9A95D1F74B8B9D
:104000005C8B6D8B7E8B14C0803211F783E08D83C7
:10401000FB01428D538D648D758D4F8B588F698F49
:104020007A8F9E012D5E3F4FC801EFD7882381F222
:104030001C8F0B8F81E08C831E821F82188619864D
:104040001A861B861C861D861E861F86188A198A5C
:104050001A8ADF91CF911F910F9108952F923F926D
:104060004F925F926F927F928F929F92AF92BF9288
:10407000CF92DF92EF92FF920F931F93CF93DF9334
:10408000EC016B015A018D81811103C08FEF9FEF0D
:10409000D7C08C8180FFFACF4B895C896D897E897E
:1040A0008A859B85AC85BD852501612C712C8A0193
:1040B0009B01081B190B2A0B3B0B04151505260544
:1040C000370518F45A01A81AB90A25011E0126E07D
:1040D000220E311C4114510409F47AC04A855B85D3
:1040E0006C857D854A0181E09822ED818A019B01E2
:1040F000F9E03695279517950795FA95D1F78B8DA9
:104100009C8DE23051F4FC01628D738D848D958D10
:10411000600F711F821F931F3DC0FC0174807A9451
:10412000702281149104C1F4711016C0452B462BE6
:10413000472B49F48F89988DA98DBA8D8E839F83E3
:10414000A887B98709C04E815F816885798591010B
:10415000D9D6882309F49ACFEB8DFC8D6E817F81AF
:10416000888599856250710981099109058404C087
:10417000660F771F881F991F0A94D2F70685178547
:1041800020893189600F711F821F931F670D711D78
:10419000811D911D20E032E02819390932012415D2
:1041A000350508F439012C8126FD04C06114F2E0C4
:1041B0007F0699F500910A0210910B0220910C02E2
:1041C00030910D02601771078207930719F425C01B
:1041D000C50136C0760183019401AB01BC01809119
:1041E0002F0C9091300CFFDC882309F44FCFC60CC4
:1041F000D71C04C0E81BF90BCE0EDF1E8A859B85F9
:10420000AC85BD85860D971DA11DB11D8A879B8735
:10421000AC87BD87461857085DCF40E014D6882389
:1042200009F434CFC4018F5C934FD6019C01260D55
:10423000371DFC01E217F307E9F241914D93FACFE4
:10424000DF91CF911F910F91FF90EF90DF90CF9072
:10425000BF90AF909F908F907F906F905F904F90A6
:104260003F902F900895FF920F931F93CF93DF936A
:104270001F92CDB7DEB78C01FC018581823018F426
:1042800080E090E033C0F8014285538564857585F0
:10429000A5E07695679557954795AA95D1F7F42FA0
:1042A000FF70FF2E41E050E0BE016F5F7F4FC801FD
:1042B000D5DE019719F4298130E002C02FEF3FEFDE
:1042C0002F3F3F4FE9F2F80142855385648575859C
:1042D000415E5F4F6F4F7F4F42875387648775877B
:1042E000F0E2FF9EC00111248F5C934F0F90DF918D
:1042F000CF911F910F91FF9008954F925F926F920F
:104300007F92AF92BF92CF92DF92EF92FF920F9384
:104310001F93CF93DF93EC016A017B012D81222350
:1043200009F456C08B899C89AD89BE89841795078D
:10433000A607B70708F44CC04DC08A859B85AC859D
:10434000BD85EB8DFC8DE585F0E03996AC01BD01B6
:1043500041505109610971090E2E04C07695679587
:10436000579547950A94D2F7970186010150110994
:104370002109310904C03695279517950795EA95C7
:10438000D2F70417150726073707A8F58F89988DE8
:10439000A98DBA8D8E839F83A887B987280139019B
:1043A0005E0186E0A80EB11C411451046104710441
:1043B00059F14E815F816885798595018B8D9C8D42
:1043C000A1D591E0491A5108610871088111ECCF1B
:1043D00080E01FC02230C1F0C114D104E104F10417
:1043E00009F0ABCF1E821F82188619861A861B869B
:1043F0001C861D860DC0892B8A2B8B2B39F2041B42
:10440000150B260B370BCACFCA86DB86EC86FD86DA
:1044100081E0DF91CF911F910F91FF90EF90DF909E
:10442000CF90BF90AF907F906F905F904F90089526
:104430000F931F93CF93DF93EC018D818823B9F104
:104440008C8187FF2FC061E0CE0169DD8C01009770
:1044500071F18D81823048F44B895C896D897E8948
:10446000F801448F558F668F778F4F89588D698DEE
:104470007A8DF801538F428F758B648BE091280CF5
:10448000F091290C309759F0B8016A5E7F4FC8014E
:1044900048961995F801808D918D938B828B8C8134
:1044A0008F778C83DF91CF911F910F9191C480E022
:1044B000DF91CF911F910F910895CF93DF93EC017E
:1044C000B7DF882319F01D8281E001C080E0DF9111
:1044D000CF9108954F925F926F927F92AF92BF9269
:1044E000CF92DF92EF92FF920F931F93CF93DF93C0
:1044F00000D01F92CDB7DEB75C016A017B01FC01E1
:1045000085818130E9F4848181FF1AC0F5018389B6
:104510009489A589B68984179507A607B70780F0FF
:10452000892B8A2B8B2B09F472C0F50142845384AA
:1045300064847584B701A601C501DFDE811102C064
:1045400080E066C0F501838D948DC114D104E1042F
:10455000F10469F44789508D618D728D71D788237C
:1045600079F3F501178A108E118E128E37C0F5017E
:1045700046815781608571859E012F5F3F4FC2D470
:104580008823F1F249815A816B817C81F501838D09
:10459000948DFC012789203129F408EF1FEF20E0DA
:1045A00030E004C008EF1FEF2FEF3FE04017510746
:1045B0006207730798F444D7882309F4C1CFF50143
:1045C00046815781608571850FEF1FEF2FEF3FE028
:1045D000838D948D84D5882309F4B2CFF501C38AE5
:1045E000D48AE58AF68A848180688483C50120DFC5
:1045F000882309F4A5CFB701A6014C145D046E040D
:104600007F0410F4B301A201C50177DE01C081E08F
:104610000F900F900F900F90DF91CF911F910F91FE
:10462000FF90EF90DF90CF90BF90AF907F906F9012
:104630005F904F900895FF920F931F93CF93DF9356
:10464000EC01F42E80E2689FF0011124EF5CF34F3F
:104650008385817129F0842F827411F080E051C02C
:104660006A8B80910A0290910B02A0910C02B0918A
:104670000D028E879F87A88BB98B4489558960E08E
:1046800070E0BA0155274427028D138D20E030E0F9
:10469000402B512B622B732B4F8B588F698F7A8F46
:1046A0008385887151F4048D158D268D378D0B8B84
:1046B0001C8B2D8B3E8B81E00BC0803179F69E01E7
:1046C0002D5E3F4F8B8D9C8DA0D4882339F284E0E2
:1046D0008D838F2D8F708C831E821F821886198682
:1046E0001A861B861C861D86F6FE0AC040E050E036
:1046F000BA01CE01DF91CF911F910F91FF90EACEC9
:1047000081E0DF91CF911F910F91FF900895AF92BB
:10471000BF92CF92DF92EF92FF920F931F93CF93AE
:10472000DF93CDB7DEB72B970FB6F894DEBF0FBE81
:10473000CDBF7C016B01CA01B22EF7012581211189
:10474000B3C0BE016F5F7F4F02DC882309F4ACC0A9
:10475000F601838D948DF701948F838FF601168275
:104760001782108611861286138614861586A12C50
:10477000F601028513852485358583899489A58969
:10478000B689081719072A073B07E0F545E0369573
:104790002795179507954A95D1F70F70C60163DDE8
:1047A000009709F481C0FC012081222311F0253EED
:1047B000B9F4A1100EC0F701028B40910A0250918A
:1047C0000B0260910C0270910D0246875787608B37
:1047D000718BFC018081AA24A3948111C9CF12C0DE
:1047E0004BE050E0BC01CE0101960F946D20892B67
:1047F00009F0BECF8B2D8073803309F455C04B2D4B
:10480000602F4FC08B2D8271823109F04DC0AA20DC
:1048100039F061E0C70183DB8C01009771F444C07B
:10482000F6018581823009F43FC0C60119DB882377
:10483000D9F1F701128A01E31CE080E2F80111923C
:104840008A95E9F78BE0FE013196D80101900D922F
:104850008A95E1F7E091280CF091290C309739F016
:10486000B801625F7F4FC8014096199509C081E287
:1048700098E2F801918B808B80E098E0978786879B
:10488000F80180899189938B828B918F808F8685A7
:104890009785978B868B9CD2882331F04B2DF7011F
:1048A0006289C701C8DE01C080E02B960FB6F8947C
:1048B000DEBF0FBECDBFDF91CF911F910F91FF9053
:1048C000EF90DF90CF90BF90AF9008954F925F929E
:1048D0006F927F929F92AF92BF92CF92DF92EF92B0
:1048E000FF920F931F93CF93DF93CDB7DEB7A097BF
:1048F0000FB6F894DEBF0FBECDBF8C017B0123E362
:1049000006DF882309F4A5C081E0D80114968C93B2
:10491000149784E015968C93C801A2DA882309F4D1
:1049200098C0C80185DD882309F493C061E0C801FF
:10493000F6DA009709F48DC020E1FC01238720E21C
:10494000DE01119601900D922A95E1F7DC01549653
:10495000AD90BC9055975A96CD90DC905B97FE0138
:104960003296CE010C9620E22193E817F907E1F781
:104970005EE2952E9982D8015B96ED91FC915C9751
:1049800057966D917D918D919C915A9762507109C6
:1049900081099109058404C0660F771F881F991F3C
:1049A0000A94D2F74684578460887188640D751D17
:1049B000861D971D41E047D2882309F44AC0BE8A6C
:1049C000AD8ADC8ECB8E80E2FE013196A1E3BCE0A5
:1049D00001900D928A95E1F79A82F70185818250C4
:1049E000823038F08789908DA18DB28D9C01CD01E8
:1049F00004C020E030E080E090E09E8B8D8B3C8F07
:104A00002B8F80E2FE013196A1E5BCE001900D9272
:104A10008A95E1F780E490E0A0E0B0E0F8018287B9
:104A20009387A487B587A0960FB6F894DEBF0FBE14
:104A3000CDBFDF91CF911F910F91FF90EF90DF904D
:104A4000CF90BF90AF909F907F906F905F904F906E
:104A5000BFC180E0A0960FB6F894DEBF0FBECDBFF9
:104A6000DF91CF911F910F91FF90EF90DF90CF904A
:104A7000BF90AF909F907F906F905F904F90089500
:104A80002F923F924F925F926F927F928F929F925E
:104A9000AF92BF92CF92DF92EF92FF920F931F934C
:104AA000CF93DF9300D01F921F92CDB7DEB78C015A
:104AB0007B013A01DC0115968C9115978130C1F488
:104AC00014968C9181FF14C082FF1AC0F8014389AB
:104AD00054896589768982859385A485B5858417EF
:104AE0009507A607B70761F0C80107DC811108C068
:104AF00081E090E0F8019383828380E090E040C100
:104B000063017FC0D8015B968D919C915C97FC01FD
:104B1000F481F150B501A40129E076956795579588
:104B200047952A95D1F7F423FD8321E09222FF23B4
:104B300009F473C080E092E08819990956018C1538
:104B40009D0508F45C01D8015B96ED91FC915C97A2
:104B500016962D903D904D905C901997B2E02B1ACF
:104B6000310841085108058404C0220C331C441C40
:104B7000551C0A94D2F786859785A089B189280E9D
:104B8000391E4A1E5B1EED812E0E311C411C511C2C
:104B9000A114F2E0BF0609F085C080910A0290914D
:104BA0000B02A0910C02B0910D0282159305A40591
:104BB000B50559F48FEF9FEFDC0180930A029093C3
:104BC0000B02A0930C02B0930D029701B201A10158
:104BD00080912F0C9091300CCCD8882309F488CF89
:104BE0009EEFF91ACA18DB08F80182859385A4851F
:104BF000B5858A0D9B1DA11DB11D82879387A48752
:104C0000B587D8011A968D909D90AD90BC901D9758
:104C1000C114D10409F076CF86C08114910409F043
:104C200089CF16964D915D916D917C9119974115A3
:104C300051056105710559F457968D919D910D901F
:104C4000BC91A02D0097A105B10531F520C09E01B2
:104C50002F5F3F4F57D1882309F450CF89819A8124
:104C6000AB81BC81F801238D348DF9012789203176
:104C700029F448EF5FEF60E070E004C048EF5FEFB9
:104C80006FEF7FE084179507A607B70728F0C801E4
:104C9000BDD881114FCF2CCFF80186839783A08791
:104CA000B18748CF8114910421F5D8011A964D910E
:104CB0005D916D917C911D9753968D919D910D9075
:104CC000BC91A02D481759076A077B0790F080D048
:104CD000882309F40DCF20920A0230920B024092F1
:104CE0000C0250920D0280912E0C816080932E0C4C
:104CF00007C041E0C201B101A6D0882309F4F8CE73
:104D0000C4018F5C934FD7019C012A0D3B1DFC0110
:104D1000E217F30719F04D914193FACFE81BF90B15
:104D2000EE0EFF1E5FCF53968D919D910D90BC911D
:104D3000A02DF801248188159905AA05BB0538F432
:104D4000838A948AA58AB68A206824830CC08091BD
:104D5000280C9091290C892B31F06114710419F001
:104D60002068F8012483D80114968C9183FD02C039
:104D7000C30106C0C8015CDB882309F4B9CEF8CFB3
:104D80000F900F900F900F900F90DF91CF911F9188
:104D90000F91FF90EF90DF90CF90BF90AF909F90DA
:104DA0008F907F906F905F904F903F902F900895DD
:104DB000CF93DF931F92CDB7DEB7698341E050E018
:104DC000BE016F5F7F4F5CDE0F90DF91CF91089542
:104DD00080912E0C882399F140910A0250910B0288
:104DE00060910C0270910D0221E33CE080912F0C48
:104DF0009091300C0E94B91E882319F140912A0C21
:104E000050912B0C60912C0C70912D0C411551057B
:104E10006105710591F021E33CE080912F0C9091A8
:104E2000300C0E94B91E882361F010922A0C109257
:104E30002B0C10922C0C10922D0C10922E0C81E049
:104E4000089580E00895CF92DF92EF92FF92CF9382
:104E50006B017C01C42F80910A0290910B02A091FA
:104E60000C02B0910D028C159D05AE05BF05C9F071
:104E7000AFDF811102C080E01AC021E33CE0B7013E
:104E8000A60180912F0C9091300C0E946C1E8823FB
:104E900091F3C0920A02D0920B02E0920C02F092BF
:104EA0000D0280912E0C8C2B80932E0C81E0CF91E3
:104EB000FF90EF90DF90CF900895CF92DF92EF9226
:104EC000FF926B017C0184DF8823B1F0E1E3FCE019
:104ED00011928EE0E133F807D9F7C0920A02D0921E
:104EE0000B02E0920C02F0920D0280912E0C816078
:104EF00080932E0C81E001C080E0FF90EF90DF9066
:104F0000CF9008958F929F92AF92BF92CF92DF92EF
:104F1000EF92FF920F931F93CF93DF938C016A015F
:104F20007B01E901FC0181859285A385B485019609
:104F3000A11DB11D84179507A607B70710F480E0DF
:104F400057C0F801438954896589768987898031FA
:104F500029F4BB27AF2D9E2D8D2D09C0D701C60189
:104F600027E0B695A795979587952A95D1F74C0197
:104F70005D01840E951EA61EB71EC501B40180906A
:104F80000A0290900B02A0900C02B0900D026815DE
:104F900079058A059B0589F4F8018789803191F4A8
:104FA000DD24EE24FF24F601EE0FFF1FEF5CF34F2C
:104FB00080819181A0E0B0E016C040E044DF811123
:104FC000EBCFBDCFE894C7F8DD24EE24FF24F60133
:104FD000EE0FFF1FEE0FFF1FEF5CF34F80819181FB
:104FE000A281B381BF7088839983AA83BB8381E048
:104FF000DF91CF911F910F91FF90EF90DF90CF90B5
:10500000BF90AF909F908F9008954F925F926F9254
:105010007F92AF92BF92CF92DF92EF92FF920F9367
:105020001F93CF93DF9300D01F92CDB7DEB78C01D3
:1050300049835A836B837C835901C12CD12C76011F
:10504000412C42E0542E612C712C49815A816B8194
:105050007C819E012F5F3F4FC80154DF882359F1A7
:10506000D301C201F801058404C0880F991FAA1F4B
:10507000BB1F0A94D2F7C80ED91EEA1EFB1E498137
:105080005A816B817C818789803129F488EF9FEF79
:10509000A0E0B0E004C088EF9FEFAFEFBFE048179B
:1050A00059076A077B0788F2F501C082D182E28244
:1050B000F38281E001C080E00F900F900F900F907D
:1050C000DF91CF911F910F91FF90EF90DF90CF90E4
:1050D000BF90AF907F906F905F904F9008954F92E8
:1050E0005F926F927F928F929F92AF92BF92CF9278
:1050F000DF92EF92FF920F931F93CF93DF93EC0118
:105100006A017B01280139014230510561057105B1
:1051100008F473C049855A856B857C854F5F5F4F66
:105120006F4F7F4F4C155D056E057F0508F465C018
:105130008B889C88AD88BE888F89803129F4772739
:105140006F2D5E2D4D2D09C0B701A601E7E07695C4
:10515000679557954795EA95D1F7840E951EA61E3B
:10516000B71E40910A0250910B0260910C0270919F
:105170000D0284169506A606B70671F48F89803154
:1051800091F4DD24EE24FF24F601EE0FFF1FEF5C07
:10519000F34F5182408217C040E0C501B40153DE95
:1051A0008111ECCF2AC0E894C7F8DD24EE24FF2457
:1051B000F601EE0FFF1FEE0FFF1FEF5CF34F408273
:1051C00051826282738280912E0C816080932E0CBA
:1051D0008A89823080F08D819E81AF81B885880D6B
:1051E000991DAA1DBB1D80932A0C90932B0CA09394
:1051F0002C0CB0932D0C81E001C080E0DF91CF91A9
:105200001F910F91FF90EF90DF90CF90BF90AF90E4
:105210009F908F907F906F905F904F9008952F9206
:105220003F924F925F926F927F929F92AF92BF9206
:10523000CF92DF92EF92FF920F931F93CF93DF9362
:10524000CDB7DEB760970FB6F894DEBF0FBECDBF07
:105250005C014D875E876F87788B1901D9014D906E
:105260005D906D907C90411451046104710431F0A3
:10527000BFEF4B1A5B0A6B0A7B0A10C0FC0140802F
:10528000518062807380992493940D851E852F85AB
:105290003889013011052105310509F0912CD5011E
:1052A00019962D913D914D915C911C972F5F3F4F29
:1052B0004F4F5F4F29873A874B875C8773016201A5
:1052C0001D821E821F821886F50181859285A38525
:1052D000B4850D811E812F813885081719072A078B
:1052E0003B0708F054C029853A854B855C852C1511
:1052F0003D054E055F0550F4A2E0CA2ED12CE12CED
:10530000F12CB2E04B2E512C612C712C9E012F5FA1
:105310003F4FB701A601C501F5DD8823C1F14981E1
:105320005A816B817C81D701C6010196A11DB11DF7
:10533000452B462B472B19F02C013D010FC0AC012A
:10534000BD0144195509660977090D851E852F850C
:105350003889401751076207730779F02D813E8124
:105360004F8158852F5F3F4F4F4F5F4F2D833E83B7
:105370004F8358876C017D01A7CF0FEF1FEF2FEFF1
:105380003FE0B701A601C501AADE811117C080E088
:105390003FC0D701C6010197A109B1098D839E8342
:1053A000AF83B88797018601AC01BD01C50197DEC7
:1053B000882369F3CD80DE80EF80F8844C145D048F
:1053C0006E047F0430F3D1014D915D916D917C911C
:1053D000411551056105710599F4F1014082518231
:1053E00062827382992099F0FFEF4F1A5F0A6F0A69
:1053F0007F0AD5014D925D926D927C92139707C002
:1054000093018201C5016BDE8111E7CFC0CF81E03E
:1054100060960FB6F894DEBF0FBECDBFDF91CF917F
:105420001F910F91FF90EF90DF90CF90BF90AF90C2
:105430009F907F906F905F904F903F902F90089536
:10544000AF92BF92CF92DF92EF92FF920F931F9392
:10545000CF93DF9300D01F92CDB7DEB75C016A0116
:105460007B0182E090E0A0E0B0E0F50180839183D1
:10547000A283B3839E012F5F3F4FB701A601C501F1
:1054800041DD882309F100E010E09801B701A60191
:10549000C50125DE8823C1F0C980DA80EB80FC805D
:1054A000F5018789803129F488EF9FEFA0E0B0E013
:1054B00004C088EF9FEFAFEFBFE0C816D906EA0639
:1054C000FB06C0F281E001C080E00F900F900F90CA
:1054D0000F90DF91CF911F910F91FF90EF90DF9090
:1054E000CF90BF90AF9008958F929F92AF92BF924E
:1054F000CF92DF92EF92FF920F931F93CF93DF93A0
:10550000EC01142F7093300C60932F0C442339F16D
:10551000453010F080E0EDC040E060E070E0CB018D
:1055200092DC8823B9F320E1129FF0011124E152AB
:10553000F24F80818F7771F784859585A685B78531
:1055400084369105A105B10528F3C084D184E28495
:10555000F384C114D104E104F10421F4DBCFC12CA4
:10556000D12C760140E0C701B6016DDC882391F2B1
:1055700080913C0C90913D0C8115924059F63091F0
:10558000410C332339F280913F0C9091400C892BD0
:1055900009F4C0CF20913E0C222309F4BBCF3A8BF3
:1055A0002C831D8630E041E050E06D85062FCA0156
:1055B000062E02C0880F991F0A94E2F728173907B0
:1055C00031F081E0860F8D87683078F3A3CF20918A
:1055D000470C3091480C2115310519F040E050E09E
:1055E00008C02091550C3091560C4091570C5091A9
:1055F000580C2D833E834F83588780913F0C9091A8
:10560000400C46015701880E991EA11CB11C8B8AC3
:105610009C8AAD8ABE8AE091420CF091430CF98FCE
:10562000E88FA091410CB0E00F94631D680D791DC7
:105630008A1D9B1D6A8F7B8F8C8F9D8F15E0EE0FCF
:10564000FF1F1A95E1F7E150FE4FEF2FFF27E69578
:10565000DC01CB018E0F9F1FA11DB11D8E879F877F
:10566000A88BB98B8090440C9090450C81149104C8
:1056700019F0A12CB12C08C08090510C9090520CC4
:10568000A090530CB090540CA7019601281B390B25
:105690004A0B5B0BDA01C901880D991DAA1DBB1DC0
:1056A00004C0B695A795979587950A95D2F78987EF
:1056B0009A87AB87BC87853F3FE09307A105B1057B
:1056C00010F48CE014C0853F9F4FA105B10510F484
:1056D00080E10DC080915D0C90915E0CA0915F0CFB
:1056E000B091600C8A8F9B8FAC8FBD8F80E28F8BC7
:1056F00081E0DF91CF911F910F91FF90EF90DF90AC
:10570000CF90BF90AF909F908F9008950E9624E118
:10571000FC0111922A95E9F70895CF93DF93EC01EC
:10572000625F7F4F0F943A12CE01DF91CF910895BF
:10573000CF93DF93EC016E5E7F4F0F943A12CE0150
:10574000DF91CF910895CF93DF93EC016A5E7F4F95
:105750000F943A12CE01DF91CF910895CF93DF934A
:10576000EC01625E7F4F0F943A12CE01DF91CF9130
:10577000089580E3FB0180833296842F82958F7099
:1057800090E1899F401911244A3014F4405D01C012
:10579000495C4293882311F0482FEFCF08950F936F
:1057A00000E020E040E060E081E39EE00F942E12F4
:1057B0000F9108956F927F928F929F92AF92BF92B6
:1057C000CF92DF92EF92FF920F931F93CF93DF93CD
:1057D000CDB7DEB7AC970FB6F894DEBF0FBECDBF26
:1057E0007C01862EB42EA52E20E2922ECE010196AB
:1057F0006C01FC01292D11922A95E9F70FEF2FEF8B
:105800004FEF6FEF86960F942E1287EA96E09AA3D9
:1058100089A389A59AA5ABA5BCA58BA39CA3ADA381
:10582000BEA387010D5B1F4F43E450E0BE016F5DD7
:105830007F4FC8010E941D3A019609F4BCC081E067
:1058400089838A8386E0782E7B821C82F7016481BB
:105850007581868197810F94471D6D837E838F8329
:105860009887A986BA8680E890E09C878B874CE170
:1058700050E0B601C8010E94273AF601292D119285
:105880002A95E9F7570188E0A80EB11CF501D60169
:1058900001900D927A94E1F740E150E0B601C80121
:1058A0000E94273AF60111929A94E9F796E0692E40
:1058B000712C40E250E0B601C8010E94273AF1E0A5
:1058C0006F1A7108B1F783E6898392E89A8393E5AA
:1058D0009B838C8385E38D8381E08E838F829DE320
:1058E000988797E099878A8786E0F501DE011B9605
:1058F00001900D928A95E1F78CE0898B8A8B6EEE90
:1059000072E0CE0143960F94BA20F7014385BE01A1
:10591000675E7F4FC7012DDFF7014485BE01655EDD
:105920007F4FC70126DFF7014585BE01635E7F4FCC
:10593000C7011FDF4EE150E0B601C8010E94273ABF
:10594000F3E08F121EC082E3898384E08A83F7012B
:1059500096859B8397859C8390899D8391899E835F
:1059600096E39F838887828D8987838D8A87848D3C
:105970008B87858D8C874CE050E0B601C8010E9472
:10598000273A87E3898386E08A8391E09B8393E0CB
:105990009C838D838FE08E838AE38F838BE388875C
:1059A0008FEF898749E050E0B601C8010E94273A8D
:1059B000C8010E94243AAC960FB6F894DEBF0FBE21
:1059C000CDBFDF91CF911F910F91FF90EF90DF90AE
:1059D000CF90BF90AF909F908F907F906F900895E1
:1059E0002F923F924F925F926F927F928F929F92EF
:1059F000AF92BF92CF92DF92EF92FF920F931F93DD
:105A0000CF93DF93CDB7DEB7E3970FB6F894DEBF41
:105A10000FBECDBF7C012A013B0169010F94F90A39
:105A20004B015C0187010D5B1F4FC8010E94C13A09
:105A30001816190694F00F94F90A681979098A0959
:105A40009B094616570668067906F0F062E370E097
:105A500080E090E00F94280BE8CF42E250E0BE01D6
:105A60006F5F7F4FC8010E94623A8981823031F4B2
:105A7000F801848995898334910541F019A6C801FC
:105A80000E94083A89A566C18FEF64C16D817E814D
:105A90008F8198850F94471D4B015C01F60160834F
:105AA00071838283938346E050E0B701685F7F4F44
:105AB000CE014D960F946D20892B99F4F7018081CA
:105AC0009181A281B38188169906AA06BB0648F087
:105AD00084819581A681B78188159905AA05BB05A2
