:100000000C94FC0F0C948BF30C94B6F30C94E1F36A
:100010000C940CF40C9437F40C9462F40C948DF45E
:100020000C94B8F40C942D100C942D100C942D10ED
:100030000C942D100C942D100C942D100C942D104C
:100040000C942D100C942D100C942D100C942D103C
:100050000C942D100C942D100C942D100C94E3F492
:100060000C942D100C946EF90C94A4F90C942D1092
:100070000C942D100C942D100C942D100C942D100C
:100080000C942D100C942D100C942D100C942D10FC
:100090000C9419FA0C944FFA0C942D100C94324DC8
:1000A0000C942D100C942D100C942D100C942D10DC
:1000B0000C942D100C942D100C942D100C942D10CC
:1000C0000C942D100C942D100C942D100C94C4FA3B
:1000D0000C94FAFA0C942D100C946FFB0C94A5FB65
:1000E0000C942D10394492445D44574466446A444C
:1000F0008744245827582A582D5830583358365892
:1001000039582158CF586F587258755878587F58B9
:100110009958AF58425A4859B659445AFA5A6B5AE4
:10012000925AE35CD15CD45CD75CDA5CDD5CE05C69
:10013000B3B8B6B8B9B8BCB8BFB8C2B8C5B8C8B813
:10014000CBB8CEB8D7B8F0B8DCBF54BF71BF71BF61
:1001500071BF7BBF7BBF7BBF8DBF71BFB5BFC0BF52
:1001600071BF3EF308F310F31CF329F34AF357F37E
:100170007BF371F373F375F377F37DF37FF338F665
:100180003DF642F64CF656F6CFF660F668F670F697
:100190007AF684F68EF69DF6A7F6CFF6B1F6BBF6A4
:1001A000C5F6F1F6F4F6E3F6E7F6EDF62BF7F8F61A
:1001B000FCF602F706F70AF710F714F718F72BF713
:1001C0001EF722F726F753440052454144590000D8
:1001D000202D200020002C20005245414459003E93
:1001E0000000E701E6010043545345543D4C4F4F96
:1001F000507C53447C5345547C3130307C377C50A8
:10020000494E7C367C54007C3C3E5E2B3D3F2F5B50
:100210005D3B2C2A225C00005EBCE2613FDD83C2B4
:100220009C7E20A3FD1F419DC3217FFCA2401E5F39
:1002300001E3BD3E6082DC237D9FC1421CFEA0E144
:10024000BF5D0380DE3C62BEE0025CDF81633D7C1B
:1002500022C09E1D43A1FF4618FAA427799BC5849E
:10026000DA3866E5BB5907DB856739BAE406581901
:1002700047A5FB7826C49A653BD987045AB8E6A7F8
:10028000F91B45C6987A24F8A6441A99C7257B3AE3
:100290006486D85B05E7B98CD2306EEDB3510F4E52
:1002A00010F2AC2F7193CD114FADF3702ECC92D3D1
:1002B0008D6F31B2EC0E50AFF1134DCE90722C6DAC
:1002C00033D18F0C52B0EE326C8ED0530DEFB1F0B3
:1002D000AE4C1291CF2D73CA947628ABF51749080E
:1002E00056B4EA6937D58B5709EBB536688AD49589
:1002F000CB2977F4AA4816E9B7550B88D6346A2B70
:100300007597C94A14F6A8742AC896154BA9F7B66A
:10031000E80A54D7896B35FFD0FFE0FFCFFF64FFB9
:10032000D1FF32380C060201FF64FFD0FFFE2564C6
:100330002C253032750042464C4F570041464C4FF9
:100340005700504800534F494C004C49474854000F
:1003500048554D49444954590054454D50005F009B
:1003600042464C4F570041464C4F570050480053AF
:100370004F494C004C494748540048554D49444961
:1003800054590054454D50005F0020D0BB0020D090
:10039000BBD18ED0BAD18100207048002500204307
:1003A00000303132333435363738394142434445F1
:1003B00046007C007C004F4646004F4E0052554C94
:1003C000455F535441544500504152414D535F4D98
:1003D00049535345440052554C455F53544154458D
:1003E000007C0043545345543D007C007C007C005D
:1003F00052554C455F5649455700504152414D5367
:100400005F4D49535345440052554C455F5649454D
:1004100057007C0052554C45535F434E5400525593
:100420004C45535F434E5400504152414D535F4D34
:100430004953534544007C007C0044454C45544599
:10044000440052554C455F44454C455445007C00A2
:100450007C0044454C455445440052554C455F444E
:10046000454C45544500414C4C00504152414D5380
:100470005F4D49535345440052554C455F44454CEC
:10048000455445007C007C0052554C455F53544117
:100490005445007C007C0052554C455F53544154F8
:1004A0004500414C4C0031004F4E00504152414DEF
:1004B000535F4D49535345440052554C455F535487
:1004C000415445005341564500534156450041446F
:1004D0004445440052554C455F414444005041520C
:1004E000414D535F4D4953534544004E4F545F5364
:1004F0005550504F5254454400554E4B4E4F574E59
:100500005F434F4D4D414E44004F4E0050494E0009
:1005100043430057494E444F577C414C4C7C434C1D
:100520004F53450057494E444F577C414C4C7C4FEC
:1005300050454E005354415445004F4E004C4947DE
:100540004854007C002C005F0025544325002554AE
:100550004F25003E3D003C3D003C003E0050480021
:10056000534F494C0050494E0048554D4944495459
:1005700059004C494748540054454D50002C005FE9
:10058000007C007C007C007C002554432500255421
:100590004F25007C003E3D003C3D003E003C007C81
:1005A000007C005F00504800534F494C0050494EBA
:1005B0000048554D4944495459004C494748540056
:1005C00054454D50007C007C004F4646007C004F57
:1005D0004E007C007C0045584543004F4646004F86
:1005E0004E0057494E444F577C414C4C7C434C4F36
:1005F00053450057494E444F577C414C4C7C4F501B
:10060000454E00504800534F494C0044454C54411E
:100610000048554D4944495459004343004C49470B
:1006200048540050494E0053544154450030003066
:1006300000504800534F494C0044454C5441004839
:10064000554D4944495459004343004C4947485487
:100650000050494E005354415445005345540047FF
:1006600045540043540000504152414D535F4D49A1
:1006700053534544004144444544004144440050E0
:100680004152414D535F4D49535345440041444409
:1006900045440045584543004144444544005341C6
:1006A00056450044454C455445440044454C005093
:1006B0004152414D535F4D4953534544004E4F54B1
:1006C0005F535550504F5254454400554E4B4E4F7A
:1006D000574E5F434F4D4D414E44004F4E007C00FE
:1006E00050494E7C004F4646007C0050494E7C00ED
:1006F0004C494748547C4F4E004C494748547C4F26
:1007000046460053544154457C57494E444F577C0C
:10071000414C4C7C4F50454E0053544154457C57FE
:10072000494E444F577C414C4C7C434C4F53450001
:100730007C004144444544007C0041444400554E03
:100740004B4E4F574E5F434F4D4D414E440050412D
:1007500052414D535F4D495353454400504152411E
:100760004D535F4D495353454400414444007C0080
:1007700041444445440044454C0044454C007C0001
:1007800041444445440053415645005341564500B9
:10079000504152414D535F4D4953534544007C00F5
:1007A0007C007C007C007C007C0056494557005052
:1007B0004152414D535F4D495353454400504152BE
:1007C000414D535F4D4953534544005649455700E9
:1007D0007C00434E5400434E5400504152414D530F
:1007E0005F4D495353454400554E4B4E4F574E5F56
:1007F000434F4D4D414E4400007C007C004E4F5411
:100800005F535550504F52544544007C007C00418A
:100810004C4C007C00434E5400434E540050415217
:10082000414D535F4D4953534544004E4F545F5320
:100830005550504F52544544007C54007C307C50FD
:10084000494E7C007C5345547C004C4F4F507C00FB
:1008500030007C0050494E7C0000D0A2D0B7D0B010
:10086000D0BAD18000D0A2D0BED182D0BAD180007F
:100870004C494748547C4D4F44457C4D414E554171
:100880004C004C494748547C4D4F44457C4155549D
:100890004F004C494748547C4F4646004C49474816
:1008A000547C4F4E00D0B0D0B2D182D0BE00D0B276
:1008B000D18BD0BAD0BB00D0B2D0BAD0BB00574198
:1008C0005445527C4D4F44457C4D414E55414C0062
:1008D00057415445527C4D4F44457C4155544F003F
:1008E00057415445527C4F46460057415445527C2F
:1008F0004F4E00D0B0D0B2D182D0BE00D0B2D18B9A
:10090000D0BAD0BB00D0B2D0BAD0BB00D0B0D0B239
:10091000D182D0BE00D0B7D0B0D0BAD18000D0BE86
:10092000D182D0BAD1800053544154457C4D4F44BC
:10093000457C4D414E55414C0053544154457C4DEE
:100940004F44457C4155544F0053544154457C57C6
:10095000494E444F577C414C4C7C434C4F534500CF
:1009600053544154457C57494E444F577C414C4C5D
:100970007C4F50454E00253032642E253032642E97
:10098000256420253032643A25303264003CD0BDE5
:10099000D0B5D18220D0B4D0B0D0BDD0BDD18BD114
:1009A000853E0000000000FC3F1428142814281481
:1009B000281428F42FE427242724272427F83F008D
:1009C00000000000000000E00310040808080848C8
:1009D0000988089004A002A002E003E003C001001F
:1009E00000000000000000800180018001C003E0E1
:1009F00006E005F00DF00BF00DF00DE007C0030070
:100A000000000000000000FC3F0422042204220435
:100A10003E042204220422042204220422FC3F0079
:100A200000000000000000C001C003E003C001009E
:100A300000E003C003C003C003C003C00300000004
:100A400000000000000000FC3FFC3F0C300C300CAC
:100A5000300C300C300C300C300C30FC3FFC3F00C4
:100A600000000000000040FC3FFC3F0C380C340C40
:100A7000322C33FC31CC30CC300C30FC3FFC3F000E
:100A800000000000000000C003F00F381C18180C14
:100A9000300C300C300C301818381CF00FC003002C
:100AA00000000000000000C003F00F381C18188C74
:100AB00031CC33CC338C311818381CF00FC0030004
:100AC00000000000060A00FE070199032B20FFFE2C
:100AD00008FE07FE0000000605FF010707060200EA
:100AE00080808080800080030303060104A0A0A012
:100AF0000507070600005050F850F850500507074A
:100B00000600002070A0702870200507070600006E
:100B100048A8502050A89005070706000040A0A054
:100B200040A8906801030306020480808003070741
:100B30000601002040808080402003070706010056
:100B4000804020202040800505050600018850F8DF
:100B500050880505050600012020F8202003030326
:100B60000601FF604080040101060103F003030356
:100B70000601FF40E04005070706000008081020B6
:100B80004080800507070600002050888888502094
:100B90000507070600002060A0202020F8050707B1
:100BA000060000708808304080F80507070600003E
:100BB000F80810300888700507070600001030504C
:100BC00090F81010050707060000F880B0C80888E4
:100BD00070050707060000304080B0C88870050720
:100BE00007060000F808101020404005070706001F
:100BF0000070888870888870050707060000708874
:100C000098680810600307070601FF40E0400040B5
:100C1000E0400307070601FF40E040006040800419
:100C2000070706010010204080402010050303063E
:100C30000002F800F8040707060100804020102099
:100C4000408005070706000070881020200020055E
:100C50000707060000708898A8B08070050707068F
:100C6000000020508888F88888050707060000F0F3
:100C70004848704848F005070706000070888080E3
:100C8000808870050707060000F04848484848F08B
:100C9000050707060000F88080F08080F805070748
:100CA000060000F88080F0808080050707060000BD
:100CB00070888080988870050707060000888888FB
:100CC000F8888888030707060100E040404040405C
:100CD000E0050707060000381010101090600507A7
:100CE000070600008890A0C0A090880507070600AE
:100CF00000808080808080F80507070600008888D3
:100D0000D8A88888880507070600008888C8A8989A
:100D1000888805070706000070888888888870051D
:100D20000707060000F08888F08080800508080624
:100D300000FF7088888888A87008050707060000EB
:100D4000F08888F0A090880507070600007088806A
:100D500070088870050707060000F8202020202072
:100D6000200507070600008888888888887005079E
:100D700007060000888888505050200507070600A5
:100D800000888888A8A8D8880507070600008888F2
:100D900050205088880507070600008888502020CA
:100DA0002020050707060000F80810204080F803FF
:100DB0000707060100E08080808080E005070706C5
:100DC000000080804020100808030707060100E0AB
:100DD0002020202020E00503030600042050880581
:100DE00001010600FFF80202020602068040050526
:100DF000050600007008788878050707060000805F
:100E000080B0C888C8B005050506000070888088D5
:100E100070050707060000080868988898680505A7
:100E2000050600007088F88070050707060000308E
:100E30004840F04040400507070600FE7888887863
:100E40000888700507070600008080B0C888888879
:100E50000307070601004000C0404040E0040909C4
:100E60000601FE1000301010109090600507070674
:100E7000000080808890E09088030707060100C08A
:100E80004040404040E0050505060000D0A8A8A865
:100E900088050505060000B0C88888880505050690
:100EA000000070888888700507070600FEB0C888B3
:100EB000C8B080800507070600FE68988898680813
:100EC00008050505060000B0C880808005050506F8
:100ED000000070807008F00507070600004040F031
:100EE0004040483005050506000088888898680558
:100EF00005050600008888505020050505060000FD
:100F00008888A8A85005050506000088502050884C
:100F10000507070600FE888898680888700505059B
:100F2000060000F8102040F80407070601003040D2
:100F300020C02040300107070602008080808080AA
:100F40008080040707060100C02040304020C00513
:100F5000030306000448A890FF0507070600FEB03B
:100F6000C888C8B0808005050506000070888088A4
:100F700070050505060000F820202020050707065B
:100F800000FE888888780888700509090600FE2018
:100F90002070A8A8A870202005050506000088502C
:100FA0002050880507070600FE90909090F80808EA
:100FB000050505060000888878080805050506006F
:100FC00000A8A8A8A8F80507070600FEA8A8A8A8D2
:100FD000F80808050505060000C0407048700505C2
:100FE000050600008888E898E804050506010080E9
:100FF00080E090E0050505060000708838887005DF
:10100000050506000090A8E8A89005050506000063
:10101000788878888805070706000020508888F8B7
:101020008888050707060000F08080F08888F005B2
:101030000707060000F08888F08888F00507070693
:101040000000F88080808080800508080600FF1876
:101050002828484848F888050707060000F88080D7
:10106000F08080F8050707060000A8A8A870A8A8C7
:10107000A805070706000070880830088870050773
:1010800007060000888898A8C88888050808060010
:101090000050208898A8C88888050707060000889F
:1010A00090A0C0A09088050707060000384848486F
:1010B0004848880507070600008888D8A8888888D7
:1010C000050707060000888888F8888888050707CC
:1010D0000600007088888888887005070706000069
:1010E000F8888888888888050707060000F08888BF
:1010F000F080808005070706000070888080808867
:1011000070050707060000F8202020202020050792
:1011100007060000888888502040800507070600E1
:10112000002070A8A8A8702005070706000088887E
:1011300050205088880509090600FE9090909090F4
:1011400090F80808050707060000888888780808CE
:1011500008050707060000A8A8A8A8A8A8F8050978
:10116000090600FEA8A8A8A8A8A8F8080805070767
:10117000060000C0404070484870050707060000A0
:10118000888888E89898E80407070601008080802E
:10119000E09090E00507070600007088083808888E
:1011A0007005070706000090A8A8E8A8A890050702
:1011B0000706000078888878284888050505060015
:1011C0000070087888780507070600007880708826
:1011D000888870050505060000F088F088F0040591
:1011E00005060100F0808080800506060600FF30BD
:1011F000505050F8880505050600007088F880708A
:10120000050505060000A8A870A8A80505050600A4
:101210000070883088700505050600008898A8C809
:101220008805070706000050208898A8C88805058B
:10123000050600008890E090880505050600003846
:101240004848488805050506000088D8A88888050C
:1012500005050600008888F8888805050506000051
:101260007088888870050505060000F888888888D9
:10127000FFFFFFFFFFFFFFFFFFFFFFFFFFFFFFFF7E
:10128000FFFFFFFFFFFFFFFFFFFFFFFFFFFFFFFF6E
:10129000FFFFFFFFFFFFFFFFFFFFFFFFFFFFFFFF5E
:1012A000FFFFFFFFFFFFFFFFFFFFFFFFFFFFFFFF4E
:1012B000554E4B4E4F574E5F434F4D4D414E4400A0
:1012C000504152414D535F4D495353454400454EA3
:1012D000445F4F465F46494C4500464F4C4C4F5784
:1012E000003D004F4B002F00616374696F6E730007
:1012F000414354494F4E00504152414D535F4D4977
:101300005353454400454E445F4F465F46494C4564
:1013100000464F4C4C4F57003D004F4B002F006C88
:101320006F67730046494C45004E4F545F5355500C
:10133000504F5254454400554E4B4E4F574E5F430D
:101340004F4D4D414E44002C003B002200220050E6
:101350004800534D00574600524C0052480052542A
:101360000030003A0030002F006C6F6773002E4C85
:101370004F47003000300030003A0030002F00614D
:101380006374696F6E73002E4C4F4700300030005D
:101390000D0A002C004144444544007C00005345A4
:1013A0005400554E4B4E4F574E5F4D4F44554C4594
:1013B00000504152414D535F4D4953534544007CC9
:1013C000004F4646004F4E007C004D414E55414C6B
:1013D000004155544F005354415445005354415417
:1013E00045007C004D414E55414C004155544F0045
:1013F0004D4F4445004D4F4445007C007C007C002F
:101400004D414E55414C004155544F004D4F4445C0
:10141000004155544F004D414E55414C004D4F44F5
:1014200045004F4646004F4646004F4E004F4E0087
:10143000504152414D535F4D495353454400554E21
:101440004B4E4F574E5F434F4D4D414E44004C580D
:101450000000554E4B4E4F574E5F4D4F44554C4537
:10146000007C003D004552004F4B002B0046000021
:1014700046004430004600002B000A0038003000CF
:101480003100303000303030313030003931002B15
:101490000000460030313233343536373839414276
:1014A00043444546002C007C004F4646004F4E000A
:1014B00054004F4E003100444554414348007C00E5
:1014C0004F4646004F4E00504152414D535F4D49EB
:1014D0005353454400414444454400534F494C0054
:1014E0004C494748540048554D49444954590053C4
:1014F0005441544500534F494C004C49474854000F
:1015000048554D49444954590054454D50005041A7
:1015100052414D535F4D49535345440041444400AB
:10152000414444454400534156450044454C4554CC
:1015300045440044454C007C00534F494C004C4905
:101540004748540048554D49444954590053544163
:101550005445007C00534F494C004C4947485400C7
:1015600048554D49444954590054454D50007C005C
:101570007C005649455700504152414D535F4D49FB
:101580005353454400504152414D535F4D495353CD
:1015900045440056494557007C00434E5400434E95
:1015A0005400554E4B4E4F574E5F434F4D4D414E9D
:1015B00044003132333435363738005445504C49C5
:1015C000434100000000000000554E4B4E4F574E67
:1015D0005F434F4D4D414E44007C004144444544DF
:1015E0000053544154005354415400504152414D12
:1015F000535F4D495353454400554E4B4E4F574E44
:101600005F434F4D4D414E44004E4F545F53555034
:10161000504F52544544004144444544002E736D9C
:1016200073002F00736D7300504152414D535F4D55
:1016300049535345440041444400504152414D53A5
:101640005F4D49535345440041542B434D47533D4F
:1016500000D0B2D0BAD0BB00D0B2D18BD0BAD0BB00
:10166000004F464600D09FD0BED0BBD0B8D0B23AD3
:1016700020005741544552000D0A00D0B7D0B0D0D9
:10168000BAD18000D0BED182D0BAD180004F5045AF
:101690004E00D09ED0BAD0BDD0B03A2000535441B5
:1016A00054457C57494E444F577C30000D0A003C4E
:1016B000D0BDD0B5D18220D0B4D0B0D0BDD0BDD1B6
:1016C0008BD1853E00D0A2D0BDD0B0D1803A2000D1
:1016D0000D0A003CD0BDD0B5D18220D0B4D0B0D05E
:1016E000BDD0BDD18BD1853E00D0A2D0B2D0BD3A05
:1016F0002000535441544500434C4F534544004F40
:1017000050454E494E47004F50454E007C005354C3
:101710004154457C57494E444F577C414C4C004105
:10172000542B434D47443D312C3400415448004133
:10173000542B435245473F0041542B434E4D493DA6
:10174000322C320041542B435343533D22554353D3
:1017500032220041542B434D47463D300041542B2B
:10176000434C49503D310041542B435343423D309B
:1017700000415445300041542B43504153000D0A61
:10178000002B004F4B002E736D73002F00736D7391
:101790000023390057415445527C4F4646002336BA
:1017A0000057415445527C4F4E002334004C49476A
:1017B00048547C4D4F44457C4155544F005741544B
:1017C00045527C4D4F44457C4155544F0053544144
:1017D00054457C4D4F44457C4155544F00233800BF
:1017E00053544154457C57494E444F577C414C4CCF
:1017F0007C434C4F53450023300053544154457CA7
:1018000057494E444F577C414C4C7C4F50454E00FD
:101810002331002B434D543A002B434C49503A009E
:101820002B435245473A20302C31002B4350415333
:101830003A203000534D5320726561647900504264
:101840005245414459004552524F52004F4B007C83
:10185000004E4F545F535550504F52544544007CF6
:1018600000434E5400434E54007C00414C4C005009
:101870004152414D535F4D4953534544004E4F54DF
:101880005F535550504F52544544002000200044AF
:1018900041544554494D45007C00555054494D45EF
:1018A00000555054494D45007C0046524545524133
:1018B0004D004652454552414D00504152414D5315
:1018C0005F4D4953534544004E4F545F535550505C
:1018D0004F5254454400554E4B4E4F574E5F434F69
:1018E0004D4D414E44007C007C00545F53455454A0
:1018F00000545F53455454007C00494E54455256A1
:10190000414C00494E54455256414C007C004D41DB
:101910004E55414C004155544F004D4F4445004DEC
:101920004F4445007C007C0057494E444F570043CC
:101930004C4F534544004F50454E00434C4F534984
:101940004E47004F50454E494E47004E4F545F534F
:101950005550504F52544544007C007C007C00534D
:10196000544154454D41534B0057494E444F570045
:1019700053544154454D41534B007C0057494E440C
:101980004F575F434E540057494E444F575F434EA5
:10199000540057494E444F57007C007C0054454D3D
:1019A00050004E4F545F535550504F5254454400D1
:1019B0007C0054454D5000414C4C007C0054454D3A
:1019C000505F434E540054454D505F434E540054B5
:1019D000454D50007C00414444454400494E544527
:1019E0005256414C00494E54455256414C007C00E1
:1019F0004D4F4445004D414E55414C007C004D4FEC
:101A00004445004155544F004D4F4445007C004132
:101A10004444454400545F5345545400545F534577
:101A2000545400434C4F534544004F50454E0043DF
:101A30004C4F53494E47004F50454E494E47004387
:101A40004C4F53494E47004F50454E494E47007C3E
:101A5000007C00434C4F534544004F50454E0043DB
:101A60004C4F53494E47004F50454E494E47004357
:101A70004C4F53494E47004F50454E494E47004149
:101A80004C4C004F50454E0057494E444F57005064
:101A90004152414D535F4D495353454400534D000E
:101AA000414444454400504152414D535F4D4953D8
:101AB000534544007C007C007C007C00504800536F
:101AC0004F494C004C494748540048554D494449FA
:101AD0005459005354415445004C494748547C4D97
:101AE0004F44457C4D414E55414C004C494748546C
:101AF0007C4D4F44457C4155544F004C4947485418
:101B00007C4F4646004C494748547C4F4E00574155
:101B10005445527C4D4F44457C4D414E55414C00FF
:101B200057415445527C4D4F44457C4155544F00DC
:101B300057415445527C4F46460057415445527CCC
:101B40004F4E0053544154457C4D4F44457C4D41CC
:101B50004E55414C0053544154457C4D4F44457CB7
:101B60004155544F0053544154457C57494E444FBE
:101B7000577C414C4C7C4F50454E0053544154458A
:101B80007C57494E444F577C414C4C7C434C4F53FF
:101B900045007C007C00545F5345545400545F530F
:101BA00045545400504152414D535F4D49535345A4
:101BB0004400414444454400525354004144444588
:101BC0004400504152414D535F4D495353454400E9
:101BD000545F5345545400504152414D535F4D4959
:101BE0005353454400554E4B4E4F574E5F434F4D58
:101BF0004D414E4400554E4B4E4F574E5F434F4D57
:101C00004D414E44007C007C007C007C0043485FDA
:101C1000534554540043485F53455454007C004D91
:101C2000414E55414C004155544F004D4F444500E5
:101C30004D4F4445007C004348414E4E454C5300B7
:101C40004348414E4E454C53007C007C007C007C58
:101C5000007C00545F5345545400545F5345545422
:101C6000007C004D414E55414C004155544F004FB2
:101C70004646004F4E004F4646004F4646004F4EE8
:101C8000004F4E007C004D4F4445004155544F00DD
:101C90004D4F444500504152414D535F4D495353C0
:101CA000454400554E4B4E4F574E5F434F4D4D41AF
:101CB0004E44007C007C0041444445440043485F5E
:101CC000534554540043485F5345545400504152C7
:101CD000414D535F4D4953534544007C00414444BA
:101CE000454400545F5345545400545F5345545485
:101CF00000504152414D535F4D49535345440055A7
:101D00004E4B4E4F574E5F434F4D4D414E44004F4B
:101D10004646004F4E004F4E00574D000041444490
:101D20004544003A003A002E002E00200044415461
:101D30004554494D45007C004144444544004944D4
:101D400000494400555F4E4F4E45005343524154A5
:101D500043485F545950455F4552524F52004144E9
:101D600044454400555F524547007C00414444458A
:101D700044005246005246007C0041444445440021
:101D800050484F4E450050484F4E45004144444551
:101D900044004C494748547C4D4F44457C41555480
:101DA0004F0057415445527C4D4F44457C4155545A
:101DB0004F0053544154457C4D4F44457C4155544C
:101DC0004F004155544F0052535400504152414D21
:101DD000535F4D495353454400504152414D535F69
:101DE0004D4953534544007C00004C495354000D69
:101DF0000A003D004F4B0053544154007C005048B2
:101E00004F4E450050484F4E45007C007C007C0002
:101E10007C007C00554E4900554E49007C007C00FA
:101E20007C007C007C00574952454400574952458C
:101E300044007C00494400494400555F4E4F4E45E4
:101E400000555F534541524348007C007C007C00B4
:101E500050494E530050494E53007C0052460052A8
:101E60004600504F4E470050494E470050415241A6
:101E70004D535F4D4953534544004E4F545F5355A6
:101E800050504F5254454400554E4B4E4F574E5FA5
:101E9000434F4D4D414E440000000A0B02090C0D0A
:101EA0000E0807030401000000000000000000000D
:101EB0000000000000000000000000000000000022
:101EC00000000000121110000000000000000000DF
:101ED00000000000000000000000000000000102FF
:101EE000102020080810204010204080020102012C
:101EF00008040201010204081020408080402010E4
:101F0000080402018004020180402010080402013C
:101F100008040201010204081020408001020408A4
:101F2000102040800505050507050808080802027D
:101F300002020A0A08080404040401010101010163
:101F400001010303030303030303040707070C0C46
:101F50000C0C0C0C0C0C020202020606060606060D
:101F600006060B0B0B0B0B0B0B0B000020002300CA
:101F7000260029002C002F00320000010000030180
:101F80000601090100002200250028002B002E0078
:101F90003100340002010000050108010B010000BE
:101FA0002100240027002A002D0030003300010109
:101FB0000000040107010A016212AB1ABD1D8C2A40
:101FC0001D30313501378538D13A494C89578D7BE1
:101FD00053802C8C948CA890FE9E98A8B5DBE8F2D8
:101FE000D6F981FA2CFBD7FB82FC02155680408C77
:101FF000A48CB490049FF2DB11241FBECFEFD1E27A
:10200000DEBFCDBF00E00CBF16E0A0E0B2E0ECEA1E
:10201000FCE102E00BBF02C007900D92A436B107AD
:10202000D9F723E1A4E6B6E001C01D92A73AB207B2
:10203000E1F71FE1CAEEDFE100E006C022970109E7
:10204000FE010BBF0F943507C83BD10780E008079E
:10205000A9F70E9492FC0D94450E0C9400002CEB05
:1020600032E0FC0131832083818592850D94D10774
:10207000CF93DF93EC0109960E9458FECE010396A0
:10208000DF91CF910C9458FECF92DF92EF92FF92A6
:102090000F931F93CF93DF938C017B0165E576E06F
:1020A0000E94C3FEC7010F94040A6C01C0E0D0E097
:1020B000CC15DD054CF4F701EC0FFD1F6491C80150
:1020C0000F94D0002196F4CFC801DF91CF911F91DA
:1020D0000F91FF90EF90DF90CF9008950F931F9393
:1020E000CF93DF93CDB7DEB766970FB6F894DEBF18
:1020F0000FBECDBF02EE11E0F80165917491CE01E3
:102100004196C2DF8D899E89892B21F1CE010196EE
:102110000E94D46BAE014F5F5F4FBE016F5E7F4F79
:1021200086E09AE00E94846C882349F040E050E009
:10213000BE016F5F7F4F8CEB99E00E94589ECE01ED
:1021400001960E94E66BCE0141960E9458FE0E5FFA
:102150001F4FD2CFCE0141960E9458FE66960FB611
:10216000F894DEBF0FBECDBFDF91CF911F910F91CD
:102170000895CF93DF93CDB7DEB72F970FB6F894BE
:10218000DEBF0FBECDBF26E040E051EE60E070E064
:1021900088E291E10E940CF920E040E060E08BEDE4
:1021A0009EE00E94FF4E20E041E061E08BED9EE06A
:1021B0000E94FF4E8CEB99E00E941B9D86E09AE006
:1021C0009093C3098093C2096BEA79E08CEB99E0A4
:1021D0000E94929D6AE979E08CEB99E00E94929DC1
:1021E0006BE879E08CEB99E00E94929D69E079E0E0
:1021F0008CEB99E00E94929D64E670E082EC98E09E
:102200000E9489FE68EC78E08CEB99E00E94929D38
:102210006BE678E08CEB99E00E94929D61E478E0B7
:102220008CEB99E00E94929D65E278E08CEB99E05E
:102230000E94929D6AEB77E08CEB99E00E94929D60
:102240006AEA77E08CEB99E00E94929D63E877E080
:102250008CEB99E00E94929D62E777E08CEB99E02D
:102260000E94929D65E677E08CEB99E00E94929D3A
:1022700061E477E08CEB99E00E94929D65E277E063
:102280008CEB99E00E94929D6AED76E08CEB99E0F0
:102290000E94929D62ED77E08CEB99E00E94929D06
:1022A00082ED97E09093040A8093030A6FEB76E047
:1022B0008CEB99E00E94929D67E676E08CEB99E0CA
:1022C0000E94929D8CEB99E00E94069D07DF69EDCC
:1022D00071E088E291E10E94CEFC8CEB99E00E94D3
:1022E000039DCE010F960E942C7A29833A834B835B
:1022F0005C836D837E838F83988766ED71E088E2CF
:1023000091E10E94CEFCBE016F5F7F4FCE010F9620
:102310000E948078BC0188E291E10E94FFFC64ED9C
:1023200071E088E291E10E94CEFCBE016F5F7F4FB9
:10233000CE010F960E94D078BC0188E291E10E9404
:10234000FFFC60ED71E088E291E10E94CEFCBE01ED
:102350006F5F7F4FCE010F960E948B78BC0188E2A1
:1023600091E10E94FFFC6FEC71E088E291E10E9434
:102370000CFD69EC71E0CE0109960F948800AE0166
:10238000475F5F4F62ED77E08CEB99E00E94509DD4
:10239000CE0109960E9458FE2F960FB6F894DEBF24
:1023A0000FBECDBFDF91CF9108950F931F93CF93B1
:1023B000DF93CDB7DEB760970FB6F894DEBF0FBEE0
:1023C000CDBF0E942DF520910F0A3091100A8B018C
:1023D000021B130B60930F0A7093100A8093110A6B
:1023E0009093120A8091650690916606800F911F66
:1023F0009093660680936506813D9740F8F0809142
:10240000640681111BC081E08093640666EC71E074
:10241000CE0101960F948800AE014F5F5F4F66E0DA
:102420008AEC96E00E94F37FCE0101960E9458FE4E
:1024300068E873E18AEC96E00E9448808AEC96E0B6
:102440000E94787F87E09AE00E94306B882341F1F8
:10245000CE0101960E94D46BAE014F5F5F4F69E0E1
:102460007AE086E09AE00E94846C882379F080917B
:10247000070A9091080A9A83898340E050E0BE01E0
:102480006F5F7F4F8CEB99E00E94589E65E576E088
:1024900089E09AE00E9460FFCE0101960E94E66BFF
:1024A0004BE856E1B8018CEB99E00E94BD9E609626
:1024B0000FB6F894DEBF0FBECDBFDF91CF911F9155
:1024C0000F910895CF93DF9368E271E187E09AE07E
:1024D0000E94286B86E09AE00E94F46B8CEB99E0F6
:1024E0000E94DF9CCCEBD2E0D093AC09C093AB0947
:1024F00081E692E09093AE098093AD098FEA99E06E
:102500000E94EE558EE895E09093AC098093AB095C
:102510001092B7091092B6091092B9091092B80931
:102520001092BB091092BA09D0939B09C0939A09E3
:1025300085E692E090939D0980939C098EE999E04D
:102540000E94EE558DE095E090939B0980939A0947
:102550001092A6091092A5091092A8091092A70935
:102560001092AA091092A909D0938C09C0938B09E3
:102570008AE692E090938E0980938D098FE899E026
:102580000E94EE558CED95E090938C0980938B0919
:10259000D0930A09C09309098FE692E090930C0941
:1025A00080930B098DE099E00E94EE5588EE95E04E
:1025B00090930A0980930909E6E1F9E0A9E2B9E0FC
:1025C000108211821282138214821582168217825F
:1025D000ED012B97188211861286138614861586B4
:1025E00016861786108A2A9618821C9221971882BE
:1025F0007696569689E0EE36F80711F785E799E06A
:102600000E94627F10928509CCEBD2E0D093C9087A
:10261000C093C80885E792E09093CB088093CA08DE
:102620008CEC98E00E94EE551092D6081092D508D6
:1026300088EE93E0A0E0B0E08093D7089093D808AC
:10264000A093D908B093DA088CEA95E09093C90872
:102650008093C80880EC95E09093D4088093D308C9
:102660001092E3081092E2081092E5081092E40834
:102670001092E7081092E60865E576E088EE98E0AB
:102680000E94C3FE65E576E08EEE98E00E94C3FEF0
:1026900065E576E085EF98E00E94C3FE65E576E0AB
:1026A00082E099E00E94C3FE65E576E082EC98E066
:1026B0000E94C3FED0936C08C0936B0889E792E038
:1026C00090936E0880936D088FE698E00E94EE5517
:1026D00086E296E090936C0880936B0881EB98E01B
:1026E0000E94627FD0934208C09341088FE792E036
:1026F000909344088093430885E498E00E94EE5547
:1027000087E195E090934208809341088EE498E039
:102710000E94627F8EE598E00E944F9B82E698E0DF
:102720000E944F9B86EA92E090936A088093690822
:10273000D0932608C093250885E892E09093280856
:102740008093270889E298E00E94EE5589EE93E095
:10275000909326088093250880E398E00E944F76A6
:1027600085E398E00E944CB680E091E090934008A9
:1027700080933F08D093D307C093D2078EE892E0AE
:102780009093D5078093D40786ED97E00E94EE558D
:1027900083E095E09093D3078093D20781EE97E092
:1027A0000E947F7884EE97E078D38FEF97E075D31F
:1027B00065E576E08AE198E00E94C3FED093BB070E
:1027C000C093BA0782E992E09093BD078093BC075B
:1027D0008EEB97E00E94EE558BE893E09093BB0759
:1027E0008093BA078CE693E09093C9078093C8075B
:1027F0001092CB071092CA071092CD071092CC0707
:102800001092CF071092CE07D093AB07C093AA07C0
:1028100088E992E09093AD078093AC078EEA97E049
:102820000E94EE5589EF94E09093AB078093AA073E
:10283000D0938407C09383078CE992E09093860736
:102840008093850787E897E00E94EE558CE196E03B
:102850009093840780938307D0937307C093720784
:1028600081EA92E0909375078093740786E797E07A
:102870000E94EE5581E893E090937307809372076E
:1028800010927E0710927D071092800710927F07AA
:102890001092820710928107D0936607C093650754
:1028A00084EA92E0909368078093670789E697E04F
:1028B0000E94EE5580ED95E0909366078093650742
:1028C0008DE895E29093710780937007D09342074B
:1028D000C093410789EA92E09093440780934307AD
:1028E00085E497E00E94EE558FED93E090934207C8
:1028F00080934107CDE4D7E065E576E0CE010E9404
:10290000C3FE269687E0C536D807B1F7CCEBD2E0F8
:10291000D0932607C09325078DEA92E0909328076D
:102920008093270789E297E00E94EE5588E995E0B9
:10293000909326078093250784EA95E090933107CA
:102940008093300710923B0710923A0710923D0790
:1029500010923C0710923F0710923E0710924007DA
:1029600010923307109232071092350710923407F5
:1029700010923707109236071092390710923807D5
:10298000D093DB06C093DA0682EB92E09093DD06EB
:102990008093DC068EED96E00E94EE5582EF95E086
:1029A0009093DB068093DA0685EE96E00E9427CEB0
:1029B00085EF96E00E9427CE85E097E00E9427CE23
:1029C00085E197E00E9427CE8AEC96E00E94627F24
:1029D000D093C006C093BF0686EB92E09093C206E8
:1029E0008093C10683EC96E00E94EE5587E396E063
:1029F0009093C0068093BF0687E696E0DF91CF9163
:102A00000C942A5E87E793E09093680680936706AC
:102A100080917C0690917D060F94D1078091760677
:102A2000909177060F94D10787E696E018DB87E34D
:102A300096E09093C0068093BF068FEB96E00FDB85
:102A40008AEC96E015DB82EF95E09093DB068093AD
:102A5000DA068AED96E003DB88E995E09093260795
:102A60008093250784EA95E090933107809330079F
:102A700080913E0790913F070F94D10785E297E040
:102A8000EEDA8FED93E090934207809341078DE457
:102A900097E0892B09F0E4C081E497E0E0DA80ED6B
:102AA00095E0909366078093650785E697E0D7DA0F
:102AB00081E893E090937307809372078091810778
:102AC000909182070F94D10782E797E0C8DA8CE1F2
:102AD00096E0909384078093830783E897E0BFDABA
:102AE00089EF94E09093AB078093AA078AEA97E076
:102AF000B6DA8BE893E09093BB078093BA07809196
:102B0000CE079091CF070F94D1078AEB97E0A7DA11
:102B100083E095E09093D3078093D2078AE198E011
:102B20000E9458FE82ED97E09ADA89EE93E0909346
:102B300026088093250885E298E091DA87E195E000
:102B400090934208809341088EE498E091DA81E402
:102B500098E085DA86E296E090936C0880936B08A3
:102B600081EB98E085DA8BE698E079DA82EC98E000
:102B70000E9458FE8CEA95E09093C9088093C8089B
:102B800080EC95E09093D4088093D30882E099E09C
:102B90000E9458FE85EF98E00E9458FE8EEE98E065
:102BA0000E9458FE88EE98E00E9458FE8091E60848
:102BB0009091E7080F94D10788EC98E050DA88EEFE
:102BC00095E090930A098093090985E799E050DA26
:102BD00089E099E044DA8CED95E090938C0980933C
:102BE0008B098BE899E03BDA8DE095E090939B09A7
:102BF00080939A098091A9099091AA090F94D1070D
:102C00008AE999E02CDA8EE895E09093AC098093FC
:102C1000AB098091BA099091BB090F94D1078BEA57
:102C200099E01DDA8AEF99E00E9458FE84EF99E05E
:102C30000E9458FE8EEE99E00E9458FE88EE99E0C0
:102C40000E9458FE8BEC99E00E9458FE8091C009CA
:102C50009091C1090F94D10789E09AE00C9458FE35
:102C60008FE597E00E9458FE89E597E00E9458FEA4
:102C700083E597E00E9458FE8DE497E00E9458FE9D
:102C80000BCFCF93DF9300D000D0CDB7DEB785EC6C
:102C900091E10E9400F8892BA9F185EC91E10E9455
:102CA00019F88D30A1F38A3069F462EC78E088EC91
:102CB00098E00E9401BF61EE71E082EC98E00F9411
:102CC0006800E5CF909108099923B1F08E33A1F403
:102CD000109208096FED71E0CE0101960F94880003
:102CE000BE016F5F7F4F88EC98E00E9401BFCE016C
:102CF00001960E9458FECBCF682F82EC98E00F948B
:102D0000D000C5CF26960FB6F894DEBF0FBECDBF5C
:102D1000DF91CF910895B5CFB4DF8DEE9FE00C9495
:102D2000397BCF93DF931F92CDB7DEB76983DC0188
:102D3000ED91FC910280F381E02D41E050E0BE0175
:102D40006F5F7F4F19950F90DF91CF910895CF93CB
:102D5000DF93EC01898D9A8D009759F0FC01138265
:102D600012820E94FD23E98DFA8D22813381232B6B
:102D700031F081E090E09B838A8380E090E0DF91F6
:102D8000CF910895FC01818D928D009711F00C94E4
:102D9000D5200895CF93DF931F92CDB7DEB741E0E2
:102DA00050E0BE016F5F7F4F0E94EB1E019719F448
:102DB000898190E002C08FEF9FEF0F90DF91CF915C
:102DC0000895FC01818D928D009709F0E3CF8FEF7C
:102DD0009FEF08950F931F93CF93DF938C01FC0116
:102DE000818D928D0097B1F0D5DFEC018F3FFFEF21
:102DF0009F0799F0F801818D928DFC0142855385E2
:102E00006485758541505109610971090E943A2014
:102E1000CE0105C080E090E002C08FEF9FEFDF9110
:102E2000CF911F910F910895CF92DF92EF92FF9271
:102E30000F931F93CF93DF93EC017B016A011B82F9
:102E40001A8208EE13E020E030E00C831D832E830D
:102E50003F8386EC92E0998388838DE190E00F9424
:102E600039079A8F898F009779F02DE1F701DC01FE
:102E700001900D922A95E1F74CE050E0B601CE01A9
:102E80000C960F94970A188EDF91CF911F910F9196
:102E9000FF90EF90DF90CF900895FC011382128293
:102EA00048EE53E060E070E04483558366837783A7
:102EB00086EC92E091838083128E118E14860895A1
:102EC0000C960895FC01818D928D009709F083C7BF
:102ED00080E090E00895DC015996ED91FC915A97BD
:102EE000309729F0628573858485958508956FEF05
:102EF0007FEFCB010895DC015996ED91FC915A9733
:102F0000309729F06389748985899689089560E0EE
:102F100070E0CB010895CF92DF92EF92FF92CF93B2
:102F2000DF93EC01898D9A8D892BC9F0CE01E3DF07
:102F30006B017C01CE01CFDFA7019601261B370B69
:102F4000480B590BDA01C901811530E89307A10537
:102F5000B10538F08FEF9FE7A0E0B0E002C080E05D
:102F600090E0DF91CF91FF90EF90DF90CF900895A8
:102F7000CF93DF93EC01898D9A8D009741F00E94E9
:102F80001A21898D9A8D0F94D1071A8E198EDF918F
:102F9000CF910895DC015996ED91FC915A973097A5
:102FA00021F081E09581911101C080E008951F9387
:102FB000CF93DF93CDB7DEB76D970FB6F894DEBF32
:102FC0000FBECDBFAB011C821B8228ED32E03A83DD
:102FD00029831E8221E0BC01CE0101960E94442279
:102FE00011E0811102C010E004C0CE0101960E94E0
:102FF0001A21812F6D960FB6F894DEBF0FBECDBF9C
:10300000DF91CF911F910895EF92FF920F931F933D
:10301000CF93DF93CDB7DEB76D970FB6F894DEBFD1
:103020000FBECDBF8C017B011C821B8288ED92E01C
:103030009A8389831E82C801BADF982F81110AC042
:10304000A701B801CE0101960E94232391E08111CE
:1030500001C090E0892F6D960FB6F894DEBF0FBEC9
:10306000CDBFDF91CF911F910F91FF90EF90089509
:10307000CF93DF93FB0120813181FC01E20FF31F2D
:10308000E081EF3211F42F5F3F4FDA01E0E0F0E032
:10309000EC01C20FD31FC881CF3249F0CC2339F0E5
:1030A00031962F5F3F4FCD93EC30F10589F7E40F58
:1030B000F51F1082FC01E20FF31F40814F3211F423
:1030C0002F5F3F4FFB0131832083FC01E20FF31F91
:1030D00081E09081911101C080E0DF91CF9108954E
:1030E0004F925F926F927F928F929F92AF92BF9218
:1030F000CF92DF92EF92FF920F931F93CF93DF93C4
:10310000CDB7DEB7C954D1090FB6F894DEBF0FBEF4
:10311000CDBF5C016B013A01490119A218A288EDEB
:1031200092E09F8F8E8F1BA21C821B829A838983C1
:103130001E822A961FAE1EAE2A978B017E018EE15B
:10314000E80EF11C44244394AE01455C5F4FBE0180
:10315000685B7F4FC5018CDF582E482F44259401B2
:10316000BE01655C7F4FC801F3011995811108C04C
:103170000C151D0519F0C8010E941A2180E027C016
:103180005520B9F021E0AE01455C5F4FB801C701A1
:103190000E944422582E0C151D0599F0C8010E946A
:1031A0001A21552059F3902F812F8701E92EF82EEF
:1031B000CBCF0C151D0519F0C8010E941A2181E022
:1031C00006C08823D9F28E010F5F1F4FECCFC75B7B
:1031D000DF4F0FB6F894DEBF0FBECDBFDF91CF91AA
:1031E0001F910F91FF90EF90DF90CF90BF90AF9025
:1031F0009F908F907F906F905F904F9008950F9366
:103200001F93CF93DF93EC01462F61E0D4D281115D
:1032100002C080E01CC08E01045F1F4F41E0BE0170
:10322000C8010E943129882351F0B801CE018A9645
:1032300083D591E0811101C090E0892F08C040E062
:10324000BE01C8010E943129882319F3EECFDF9116
:10325000CF911F910F910895FC01DB0112968D9182
:103260009C9113979383828388ED92E0918380836E
:1032700014968C911497848315968C911597858359
:1032800016964D915D916D917C9119974683578368
:10329000608771871A964D915D916D917C911D9714
:1032A00042875387648775871E964D915D916D9116
:1032B0007C91519746875787608B718B52968C9182
:1032C0005297828B53964D915D916D917C9156975B
:1032D000438B548B658B768B57964D915D916D9199
:1032E0007C915A97478B508F618F728F5B968D912F
:1032F0009C915C97948F838F08954F925F926F9209
:103300007F928F929F92AF92BF92CF92DF92EF9275
:10331000FF920F931F93CF93DF93CDB7DEB7C754C0
:10332000D1090FB6F894DEBF0FBECDBF6C014A01C4
:103330003901665D7F4F5E018EE1A80EB11CC501AB
:103340008BDF1C821B8288ED92E09A8389831E8228
:103350008401FE0131967F015A2C4B2C6FE270E004
:10336000C8010F946E0A0097D9F1F80120812F321D
:1033700019F40F5F1F4FF2CF801B8D3008F08CE0E7
:10338000A82EB12CA501B801CE01CB960F94970AB7
:10339000EBE3F0E0EC0FFD1FEA0DFB1D1082C7010F
:1033A00049D721E0AE01455C5F4F652D742DC70103
:1033B0000E944422811109C0F6011382128288ED15
:1033C00092E091838083158214C00A0D1B1D852D08
:1033D000942D30D7C2015E2C4F2CE92EF82EBECF93
:1033E00008191909F30111830083652D742DC60195
:1033F00033DFC601C95BDF4F0FB6F894DEBF0FBEE7
:10340000CDBFDF91CF911F910F91FF90EF90DF9093
:10341000CF90BF90AF909F908F907F906F905F9074
:103420004F9008959F92AF92BF92CF92DF92EF920A
:10343000FF920F931F93CF93DF93CDB7DEB7C9559C
:10344000D1090FB6F894DEBF0FBECDBF7C016B0172
:103450005A01922E9E01285A3F4FCE01CB964DDF46
:103460006A960EAD1FAD6A970A0D1B1DF80180818B
:10347000811109C0BE01655C7F4FCE010196ECDE73
:1034800042ED52E03BC019A218A288ED92E09F8F56
:103490008E8F1BA221968FAD2197811103C0C7018A
:1034A000FCDC31C08250823058F4B601665D7F4F3B
:1034B000292DA801CE014E96E7D781110EC0EFCF7E
:1034C000292DA801BE01655C7F4FCE014E96DCD749
:1034D000882329F3CE01CB96ADD6892D867039F09D
:1034E00049A95AA96BA97CA9CE014E96C3D5BE01A4
:1034F000625E7F4FCE010196AFDEA801BE016F5F15
:103500007F4FC70191DCC701C75ADF4F0FB6F89450
:10351000DEBF0FBECDBFDF91CF911F910F91FF9006
:10352000EF90DF90CF90BF90AF909F900895FB01F8
:10353000BC01665D7F4F20E030E047ED57E1CF01F1
:10354000CFCDFB01BC01665D7F4F20E030E044E061
:1035500058E1CF01C5CD1092180A1092190A1092A5
:103560001C0A10921E0A82E090E0A0E0B0E0809376
:103570001F0A9093200AA093210AB093220A109266
:10358000360A1092400A10923F0A88ED92E090931A
:103590003E0A80933D0A1092420A08959FB7F8941C
:1035A0002091160D8091140D213019F48DBB9FBF11
:1035B00008958FBF08952091160D222399F03FB7EB
:1035C000F8942091160D213059F42DB32093140D49
:1035D0004DB32091150D209524232DBB3FBF02C074
:1035E0003093140D8CBD9DBD08958EBD00000DB4AB
:1035F00007FEFDCF8EB508958FEFF7CF61E0FC0198
:1036000084810E9465F780915C0A882331F01092D2
:103610005C0A8091160D8111C1CF0895CF93DF937D
:10362000EC0180915C0A811108C081E080935C0A02
:1036300080915D0A90915E0ABEDF60E08C81DF912F
:10364000CF910C9465F7CF93DF93EC018E818823A3
:1036500079F08F8198859C012F5F3F4F38872F83AA
:103660008230924010F4C8DFF4CFCE01C7DF1E8253
:10367000DF91CF910895673028F026E1FC01258382
:1036800080E00895623081F030F4662359F06130B3
:10369000B1F480E515C0643059F040F0653079F43C
:1036A00082E50EC080E505C081E503C081E508C064
:1036B00082E580935D0A81E080935E0A089583E548
:1036C00080935D0A10925E0A81E008950F931F9324
:1036D000CF93DF93EB010E942DF58B018DDF8F3FA0
:1036E00049F00E942DF5601B710B6C177D07B0F33C
:1036F00080E001C081E0DF91CF911F910F9108958B
:10370000CF92DF92FF920F931F93CF93DF9300D05E
:103710001F92CDB7DEB76C01F62E29833A834B8317
:103720005C8391DFC6017ADF6CE271E0C601CEDF17
:103730008F2D80645ADF08E110E05C814B813A8173
:103740002981DA01C901002E04C0B695A795979585
:1037500087950A94D2F729833A834B835C8345DFAC
:103760000850110929813A814B815C81083F8FEF14
:10377000180739F7FF2029F0E8E0FE1621F08FEF57
:1037800003C085E901C087E830DF10E035DFF601CE
:10379000828787FF04C01F3F11F01F5FF7CF0F9094
:1037A0000F900F900F90DF91CF911F910F91FF908D
:1037B000DF90CF900895BF92CF92DF92EF92FF9269
:1037C0000F931F93CF93DF93EC01B62E1B861986C0
:1037D0001E821D824C830E942DF58B0161E08C813D
:1037E0000E942CF761E08C810E9465F70E9457428D
:1037F00082E580935D0A10925E0A80915D0A909145
:103800005E0AD9DE2AE0F22E8FEFEFDEFA94E1F7BE
:103810008091160D8111C2DECE0100DF20E030E084
:10382000A90160E0CE016CDFF82E8A8781E0F816EE
:1038300049F00E942DF5601B710B613D774070F3DC
:1038400081E046C02AEA31E040E050E068E0CE0185
:1038500057DF82FF02C0FB860CC094E0F92ECCDE5D
:103860008A87FA94E1F78A3A11F082E031C082E067
:103870008B878B85823031F4C12CD12CE12C80E4F4
:10388000F82E03C0C12CD12C760120E030E0A90134
:1038900067E3CE0135DFA701960169E2CE0130DF93
:1038A0008A87882349F00E942DF5601B710B613DCA
:1038B000774058F388E00CC08B85823001F520E01A
:1038C00030E0A9016AE3CE011BDF882379F086E0AE
:1038D0008D83CE0193DE80E0DF91CF911F910F9118
:1038E000FF90EF90DF90CF90BF90089585DE807CB1
:1038F000803C11F483E08B877FDE7EDE7DDECE01AF
:103900007DDE6B2DCE01DF91CF911F910F91FF9046
:10391000EF90DF90CF90BF90AECE0F931F93CF93D9
:10392000DF93EC010E942DF58B0166DE8A878F3FC5
:1039300049F40E942DF5601B710B6D327140A8F3A4
:103940008FE003C08E3F31F08DE08D83CE0156DED7
:1039500080E001C081E0DF91CF911F910F91089528
:10396000CF92DF92EF92FF920F931F93CF93DF934B
:10397000EC0169010115110509F45DC0C801820F50
:10398000931F8130924008F058C08E81882371F0D7
:1039900088819981AA81BB81481759076A077B07EB
:1039A00029F48F819885C816D90600F54883598374
:1039B0006A837B838B85833039F039E0440F551F50
:1039C000661F771F3A95D1F79A01AB0161E1CE01ED
:1039D00097DE882319F083E08D832FC0CE019DDF11
:1039E000882359F118861F8281E08E838F81988504
:1039F0008C159D0538F400DE8F8198850196988797
:103A00008F83F4CF6701E00EF11ECE14DF0429F09E
:103A1000F3DDF60181936F01F8CF8F819885800FD8
:103A2000911F98878F832985222319F08115924051
:103A300010F0CE0108DE81E003C0CE01DFDD80E0C2
:103A4000DF91CF911F910F91FF90EF90DF90CF907A
:103A50000895EF92FF920F931F93790100E012E017
:103A600020E030E07DDF1F910F91FF90EF900895EF
:103A7000CF92DF92EF92FF920F931F93CF93DF933A
:103A80001F921F92CDB7DEB78C01862F49835A83D0
:103A9000ACDD4981C42E5A81D52EE12CF12CF601E2
:103AA00081916F01A2DDFFEFEF1AFF0AE11482E0BE
:103AB000F806A9F78FEF99DD8FEF97DD9DDDF8010F
:103AC00082878F71853031F081E18583C80196DD71
:103AD00080E001C081E00F900F90DF91CF911F91A6
:103AE0000F91FF90EF90DF90CF9008950F931F9369
:103AF000CF93DF93EC0189014115510561057105F3
:103B000011F482E12DC08B85833039F089E0440FB8
:103B1000551F661F771F8A95D1F79A01AB0168E19F
:103B2000CE01EEDD882311F084E01AC0A8016EEF0B
:103B3000CE019EDF8823A9F068E572E0CE01C6DDE4
:103B4000811102C085E10CC020E030E0A9016DE0E8
:103B5000CE01D6DD811103C04FDD882331F084E131
:103B60008D83CE014BDD80E003C0CE0147DD81E0D7
:103B7000DF91CF911F910F91089580E580935D0AA9
:103B800010925E0A0895CF93DF93EC019C012A5FA7
:103B90003F4F41E050E060E070E08B8D9C8D0E94D3
:103BA000CC278823A1F04F89588D698D7A8D452BBC
:103BB000462B472B71F44E815F81688579854F8B49
:103BC000588F698F7A8F8C8180688C8302C080E0E7
:103BD00001C081E0DF91CF910895CF92DF92EF9203
:103BE000FF921F93CF93DF93EC01CDDF811102C0D1
:103BF00080E04AC0EB8DFC8DCE80DF80E884F984C4
:103C000082E0C81AD108E108F108058404C0CC0C90
:103C1000DD1CEE1CFF1C0A94D2F74685578560898F
:103C20007189C40ED51EE61EF71E148181E0C81AE4
:103C3000D108E108F108112359F0C701B601610F5D
:103C4000711D811D911DF6D7882391F21150F3CF7C
:103C5000EB8DFC8DC12C82E0D82EE12CF12C05845B
:103C600004C0CC0CDD1CEE1CFF1C0A94D2F74B895F
:103C70005C896D897E894C0D5D1D6E1D7F1D4B8B92
:103C80005C8B6D8B7E8B81E0DF91CF911F91FF90DC
:103C9000EF90DF90CF900895CF93DF93EC01462F04
:103CA0006E857F85888999898BD7882341F08A8999
:103CB00020E2829FC00111248859954F02C080E004
:103CC00090E0DF91CF910895282FFB018BE030E247
:103CD00031938150E9F7A22FB92F20E037E09D9171
:103CE000992319F19E3219F0E7E0F2E008C03A306A
:103CF00011F128E03AE0F3CF31964917E1F0449111
:103D00004111FACF3217B8F04FED490F4E3598F404
:103D100041E0420FFB01E20FF11D2FE9290F2A318B
:103D200008F490529083242FDACF81E0FB01908138
:103D3000903209F480E008950F931F93CF93DF939F
:103D4000EC018B018D81882311F080E03FC0FB01E5
:103D500087898031B1F482E08D831F8A188E198E95
:103D60001A8E408D518D60E070E095E0440F551F34
:103D7000661F771F9A95D1F74B8B5C8B6D8B7E8B73
:103D800014C0803211F783E08D83FB01428D538D87
:103D9000648D758D4F8B588F698F7A8F9E012D5E44
:103DA0003F4FC801EFD7882381F21C8F0B8F81E032
:103DB0008C831E821F82188619861A861B861C8693
:103DC0001D861E861F86188A198A1A8ADF91CF914E
:103DD0001F910F9108952F923F924F925F926F9291
:103DE0007F928F929F92AF92BF92CF92DF92EF928B
:103DF000FF920F931F93CF93DF93EC016B015A0156
:103E00008D81811103C08FEF9FEFD7C08C8180FF20
:103E1000FACF4B895C896D897E898A859B85AC85C3
:103E2000BD852501612C712C8A019B01081B190B92
:103E30002A0B3B0B041515052605370518F45A0106
:103E4000A81AB90A25011E0126E0220E311C4114D0
:103E5000510409F47AC04A855B856C857D854A01E9
:103E600081E09822ED818A019B01F9E03695279542
:103E700017950795FA95D1F78B8D9C8DE23051F40B
:103E8000FC01628D738D848D958D600F711F821F73
:103E9000931F3DC0FC0174807A94702281149104B8
:103EA000C1F4711016C0452B462B472B49F48F895E
:103EB000988DA98DBA8D8E839F83A887B98709C0F5
:103EC0004E815F81688579859101D9D6882309F46F
:103ED0009ACFEB8DFC8D6E817F81888599856250AC
:103EE000710981099109058404C0660F771F881F35
:103EF000991F0A94D2F70685178520893189600FAA
:103F0000711F821F931F670D711D811D911D20E080
:103F100032E02819390932012415350508F4390130
:103F20002C8126FD04C06114F2E07F0699F5009112
:103F30000A0210910B0220910C0230910D026017C1
:103F400071078207930719F425C0C50136C07601B1
:103F500083019401AB01BC018091660A9091670ACC
:103F6000FFDC882309F44FCFC60CD71C04C0E81B24
:103F7000F90BCE0EDF1E8A859B85AC85BD85860D2F
:103F8000971DA11DB11D8A879B87AC87BD874618E9
:103F900057085DCF40E014D6882309F434CFC4011C
:103FA0008859954FD6019C01260D371DFC01E2175B
:103FB000F307E9F241914D93FACFDF91CF911F9131
:103FC0000F91FF90EF90DF90CF90BF90AF909F90B8
:103FD0008F907F906F905F904F903F902F900895BB
:103FE000FF920F931F93CF93DF931F92CDB7DEB74E
:103FF0008C01FC018581823018F480E090E033C0B0
:10400000F8014285538564857585A5E076956795A9
:1040100057954795AA95D1F7F42FFF70FF2E41E0F1
:1040200050E0BE016F5F7F4FC801D5DE019719F4E4
:10403000298130E002C02FEF3FEF2F3F3F4FE9F2E1
:10404000F8014285538564857585415E5F4F6F4FEA
:104050007F4F4287538764877587F0E2FF9EC001D8
:1040600011248859954F0F90DF91CF911F910F9197
:10407000FF9008954F925F926F927F92AF92BF929E
:10408000CF92DF92EF92FF920F931F93CF93DF9324
:10409000EC016A017B012D81222309F456C08B8932
:1040A0009C89AD89BE8984179507A607B70708F4D0
:1040B0004CC04DC08A859B85AC85BD85EB8DFC8D44
:1040C000E585F0E03996AC01BD0141505109610927
:1040D00071090E2E04C076956795579547950A94F9
:1040E000D2F797018601015011092109310904C055
:1040F0003695279517950795EA95D2F70417150772
:1041000026073707A8F58F89988DA98DBA8D8E83DC
:104110009F83A887B987280139015E0186E0A80E30
:10412000B11C411451046104710459F14E815F8145
:104130006885798595018B8D9C8DA1D591E0491A73
:104140005108610871088111ECCF80E01FC0223056
:10415000C1F0C114D104E104F10409F0ABCF1E8217
:104160001F82188619861A861B861C861D860DC01E
:10417000892B8A2B8B2B39F2041B150B260B370B43
:10418000CACFCA86DB86EC86FD8681E0DF91CF91BF
:104190001F910F91FF90EF90DF90CF90BF90AF9065
:1041A0007F906F905F904F9008950F931F93CF93E0
:1041B000DF93EC018D818823B9F18C8187FF2FC0BB
:1041C00061E0CE0169DD8C01009771F18D81823053
:1041D00048F44B895C896D897E89F801448F558F3D
:1041E000668F778F4F89588D698D7A8DF801538F3F
:1041F000428F758B648BE0915F0AF091600A309773
:1042000059F0B8016A5E7F4FC80148961995F801C8
:10421000808D918D938B828B8C818F778C83DF91B6
:10422000CF911F910F9191C480E0DF91CF911F91A9
:104230000F910895CF93DF93EC01B7DF882319F036
:104240001D8281E001C080E0DF91CF9108954F92FF
:104250005F926F927F92AF92BF92CF92DF92EF9276
:10426000FF920F931F93CF93DF9300D01F92CDB790
:10427000DEB75C016A017B01FC0185818130E9F4D4
:10428000848181FF1AC0F50183899489A589B68943
:1042900084179507A607B70780F0892B8A2B8B2BED
:1042A00009F472C0F5014284538464847584B701B3
:1042B000A601C501DFDE811102C080E066C0F50104
:1042C000838D948DC114D104E104F10469F447890C
:1042D000508D618D728D71D7882379F3F501178A1E
:1042E000108E118E128E37C0F50146815781608580
:1042F00071859E012F5F3F4FC2D48823F1F249811F
:104300005A816B817C81F501838D948DFC01278915
:10431000203129F408EF1FEF20E030E004C008EF5F
:104320001FEF2FEF3FE0401751076207730798F424
:1043300044D7882309F4C1CFF501468157816085B0
:1043400071850FEF1FEF2FEF3FE0838D948D84D5A4
:10435000882309F4B2CFF501C38AD48AE58AF68AA4
:10436000848180688483C50120DF882309F4A5CF78
:10437000B701A6014C145D046E047F0410F4B30170
:10438000A201C50177DE01C081E00F900F900F9070
:104390000F90DF91CF911F910F91FF90EF90DF90E1
:1043A000CF90BF90AF907F906F905F904F900895A7
:1043B000FF920F931F93CF93DF93EC01F42E80E2D3
:1043C000689FF0011124E859F54F8385817129F028
:1043D000842F827411F080E051C06A8B80910A02B0
:1043E00090910B02A0910C02B0910D028E879F87D5
:1043F000A88BB98B4489558960E070E0BA015527D4
:104400004427028D138D20E030E0402B512B622B8E
:10441000732B4F8B588F698F7A8F8385887151F4F6
:10442000048D158D268D378D0B8B1C8B2D8B3E8B24
:1044300081E00BC0803179F69E012D5E3F4F8B8D60
:104440009C8DA0D4882339F284E08D838F2D8F70CA
:104450008C831E821F82188619861A861B861C86EC
:104460001D86F6FE0AC040E050E0BA01CE01DF91A1
:10447000CF911F910F91FF90EACE81E0DF91CF9114
:104480001F910F91FF900895AF92BF92CF92DF924C
:10449000EF92FF920F931F93CF93DF93CDB7DEB7C9
:1044A0002B970FB6F894DEBF0FBECDBF7C016B011A
:1044B000CA01B22EF70125812111B3C0BE016F5F81
:1044C0007F4F02DC882309F4ACC0F601838D948D04
:1044D000F701948F838FF60116821782108611865A
:1044E0001286138614861586A12CF6010285138583
:1044F0002485358583899489A589B6890817190784
:104500002A073B07E0F545E036952795179507956F
:104510004A95D1F70F70C60163DD009709F481C099
:10452000FC012081222311F0253EB9F4A1100EC018
:10453000F701028B40910A0250910B0260910C022C
:1045400070910D0246875787608B718BFC018081CB
:10455000AA24A3948111C9CF12C04BE050E0BC0142
:10456000CE0101960F94350A892B09F0BECF8B2D11
:104570008073803309F455C04B2D602F4FC08B2DB5
:104580008271823109F04DC0AA2039F061E0C70183
:1045900083DB8C01009771F444C0F6018581823081
:1045A00009F43FC0C60119DB8823D9F1F701128A4B
:1045B00008E61AE080E2F80111928A95E9F78BE0AB
:1045C000FE013196D80101900D928A95E1F7E091B4
:1045D0005F0AF091600A309739F0B801625F7F4F4F
:1045E000C8014096199509C081E298E2F801918BC3
:1045F000808B80E098E097878687F8018089918991
:10460000938B828B918F808F86859785978B868BF6
:104610009CD2882331F04B2DF7016289C701C8DE97
:1046200001C080E02B960FB6F894DEBF0FBECDBF61
:10463000DF91CF911F910F91FF90EF90DF90CF907E
:10464000BF90AF9008954F925F926F927F929F922A
:10465000AF92BF92CF92DF92EF92FF920F931F9390
:10466000CF93DF93CDB7DEB7A0970FB6F894DEBF38
:104670000FBECDBF8C017B0123E306DF882309F445
:10468000A5C081E0D80114968C93149784E0159608
:104690008C93C801A2DA882309F498C0C80185DD8B
:1046A000882309F493C061E0C801F6DA009709F4A1
:1046B0008DC020E1FC01238720E2DE0111960190EC
:1046C0000D922A95E1F7DC015496AD90BC90559778
:1046D0005A96CD90DC905B97FE013296CE010C96F7
:1046E00020E22193E817F907E1F75EE2952E99821F
:1046F000D8015B96ED91FC915C9757966D917D91F9
:104700008D919C915A976250710981099109058494
:1047100004C0660F771F881F991F0A94D2F746843A
:10472000578460887188640D751D861D971D41E052
:1047300047D2882309F44AC0BE8AAD8ADC8ECB8E6C
:1047400080E2FE013196A8E6BAE001900D928A95CA
:10475000E1F79A82F70185818250823038F08789AB
:10476000908DA18DB28D9C01CD0104C020E030E080
:1047700080E090E09E8B8D8B3C8F2B8F80E2FE0142
:104780003196A8E8BAE001900D928A95E1F780E4AD
:1047900090E0A0E0B0E0F80182879387A487B58716
:1047A000A0960FB6F894DEBF0FBECDBFDF91CF91BC
:1047B0001F910F91FF90EF90DF90CF90BF90AF903F
:1047C0009F907F906F905F904F90BFC180E0A096C8
:1047D0000FB6F894DEBF0FBECDBFDF91CF911F9112
:1047E0000F91FF90EF90DF90CF90BF90AF909F9090
:1047F0007F906F905F904F9008952F923F924F92CD
:104800005F926F927F928F929F92AF92BF92CF9260
:10481000DF92EF92FF920F931F93CF93DF9300D01D
:104820001F921F92CDB7DEB78C017B013A01DC01EC
:1048300015968C9115978130C1F414968C9181FF57
:1048400014C082FF1AC0F8014389548965897689AA
:1048500082859385A485B58584179507A607B70734
:1048600061F0C80107DC811108C081E090E0F80127
:104870009383828380E090E040C163017FC0D801D0
:104880005B968D919C915C97FC01F481F150B50190
:10489000A40129E076956795579547952A95D1F714
:1048A000F423FD8321E09222FF2309F473C080E00A
:1048B00092E08819990956018C159D0508F45C0150
:1048C000D8015B96ED91FC915C9716962D903D90EA
:1048D0004D905C901997B2E02B1A310841085108AD
:1048E000058404C0220C331C441C551C0A94D2F7C6
:1048F00086859785A089B189280E391E4A1E5B1EC0
:10490000ED812E0E311C411C511CA114F2E0BF069A
:1049100009F085C080910A0290910B02A0910C02CF
:10492000B0910D0282159305A405B50559F48FEFDA
:104930009FEFDC0180930A0290930B02A0930C027C
:10494000B0930D029701B201A1018091660A909186
:10495000670ACCD8882309F488CF9EEFF91ACA18C1
:10496000DB08F80182859385A485B5858A0D9B1D9A
:10497000A11DB11D82879387A487B587D8011A9698
:104980008D909D90AD90BC901D97C114D10409F0FD
:1049900076CF86C08114910409F089CF16964D9187
:1049A0005D916D917C9119974115510561057105D6
:1049B00059F457968D919D910D90BC91A02D009723
:1049C000A105B10531F520C09E012F5F3F4F57D1A2
:1049D000882309F450CF89819A81AB81BC81F80189
:1049E000238D348DF9012789203129F448EF5FEFB9
:1049F00060E070E004C048EF5FEF6FEF7FE0841786
:104A00009507A607B70728F0C801BDD881114FCF79
:104A10002CCFF80186839783A087B18748CF811474
:104A2000910421F5D8011A964D915D916D917C917B
:104A30001D9753968D919D910D90BC91A02D481777
:104A400059076A077B0790F080D0882309F40DCFBF
:104A500020920A0230920B0240920C0250920D02F8
:104A60008091650A81608093650A07C041E0C201B8
:104A7000B101A6D0882309F4F8CEC4018859954F16
:104A8000D7019C012A0D3B1DFC01E217F30719F029
:104A90004D914193FACFE81BF90BEE0EFF1E5FCF4D
:104AA00053968D919D910D90BC91A02DF80124817C
:104AB00088159905AA05BB0538F4838A948AA58AC6
:104AC000B68A206824830CC080915F0A9091600AA6
:104AD000892B31F06114710419F02068F8012483E6
:104AE000D80114968C9183FD02C0C30106C0C80191
:104AF0005CDB882309F4B9CEF8CF0F900F900F90AC
:104B00000F900F90DF91CF911F910F91FF90EF9039
:104B1000DF90CF90BF90AF909F908F907F906F90DD
:104B20005F904F903F902F900895CF93DF931F9207
:104B3000CDB7DEB7698341E050E0BE016F5F7F4FC4
:104B40005CDE0F90DF91CF9108958091650A8823F4
:104B500099F140910A0250910B0260910C02709100
:104B60000D0228E63AE08091660A9091670A0E9459
:104B7000761D882319F14091610A5091620A609173
:104B8000630A7091640A411551056105710591F040
:104B900028E63AE08091660A9091670A0E94761DA5
:104BA000882361F01092610A1092620A1092630ADF
:104BB0001092640A1092650A81E0089580E00895D9
:104BC000CF92DF92EF92FF92CF936B017C01C42FC3
:104BD00080910A0290910B02A0910C02B0910D02FB
:104BE0008C159D05AE05BF05C9F0AFDF811102C070
:104BF00080E01AC028E63AE0B701A6018091660A73
:104C00009091670A0E94291D882391F3C0920A029D
:104C1000D0920B02E0920C02F0920D028091650A94
:104C20008C2B8093650A81E0CF91FF90EF90DF900D
:104C3000CF900895CF92DF92EF92FF926B017C01AB
:104C400084DF8823B1F0E8E6FAE011928CE0E836E0
:104C5000F807D9F7C0920A02D0920B02E0920C0238
:104C6000F0920D028091650A81608093650A81E06F
:104C700001C080E0FF90EF90DF90CF9008958F9279
:104C80009F92AF92BF92CF92DF92EF92FF920F93DB
:104C90001F93CF93DF938C016A017B01E901FC0133
:104CA00081859285A385B4850196A11DB11D8417C8
:104CB0009507A607B70710F480E057C0F8014389AD
:104CC0005489658976898789803129F4BB27AF2D7E
:104CD0009E2D8D2D09C0D701C60127E0B695A79559
:104CE000979587952A95D1F74C015D01840E951E05
:104CF000A61EB71EC501B40180900A0290900B0257
:104D0000A0900C02B0900D02681579058A059B05EC
:104D100089F4F8018789803191F4DD24EE24FF24A1
:104D2000F601EE0FFF1FE859F54F80819181A0E059
:104D3000B0E016C040E044DF8111EBCFBDCFE89476
:104D4000C7F8DD24EE24FF24F601EE0FFF1FEE0F5F
:104D5000FF1FE859F54F80819181A281B381BF7017
:104D600088839983AA83BB8381E0DF91CF911F91D0
:104D70000F91FF90EF90DF90CF90BF90AF909F90FA
:104D80008F9008954F925F926F927F92AF92BF92F1
:104D9000CF92DF92EF92FF920F931F93CF93DF9307
:104DA00000D01F92CDB7DEB78C0149835A836B8345
:104DB0007C835901C12CD12C7601412C42E0542E28
:104DC000612C712C49815A816B817C819E012F5FFE
:104DD0003F4FC80154DF882359F1D301C201F801C4
:104DE000058404C0880F991FAA1FBB1F0A94D2F71D
:104DF000C80ED91EEA1EFB1E49815A816B817C8137
:104E00008789803129F488EF9FEFA0E0B0E004C0EB
:104E100088EF9FEFAFEFBFE0481759076A077B079E
:104E200088F2F501C082D182E282F38281E001C082
:104E300080E00F900F900F900F90DF91CF911F9116
:104E40000F91FF90EF90DF90CF90BF90AF907F9049
:104E50006F905F904F9008954F925F926F927F9204
:104E60008F929F92AF92BF92CF92DF92EF92FF927A
:104E70000F931F93CF93DF93EC016A017B0128010D
:104E80003901423051056105710508F473C0498547
:104E90005A856B857C854F5F5F4F6F4F7F4F4C15F9
:104EA0005D056E057F0508F465C08B889C88AD881C
:104EB000BE888F89803129F477276F2D5E2D4D2D87
:104EC00009C0B701A601E7E0769567955795479524
:104ED000EA95D1F7840E951EA61EB71E40910A02D0
:104EE00050910B0260910C0270910D028416950690
:104EF000A606B70671F48F89803191F4DD24EE2483
:104F0000FF24F601EE0FFF1FE859F54F5182408252
:104F100017C040E0C501B40153DE8111ECCF2AC0B7
:104F2000E894C7F8DD24EE24FF24F601EE0FFF1FFE
:104F3000EE0FFF1FE859F54F408251826282738263
:104F40008091650A81608093650A8A89823080F049
:104F50008D819E81AF81B885880D991DAA1DBB1DCD
:104F60008093610A9093620AA093630AB093640AE3
:104F700081E001C080E0DF91CF911F910F91FF9000
:104F8000EF90DF90CF90BF90AF909F908F907F90E9
:104F90006F905F904F9008952F923F924F925F9243
:104FA0006F927F929F92AF92BF92CF92DF92EF92D9
:104FB000FF920F931F93CF93DF93CDB7DEB7609728
:104FC0000FB6F894DEBF0FBECDBF5C014D875E8784
:104FD0006F87788B1901D9014D905D906D907C9011
:104FE000411451046104710431F0BFEF4B1A5B0AA4
:104FF0006B0A7B0A10C0FC01408051806280738084
:10500000992493940D851E852F85388901301105CB
:105010002105310509F0912CD50119962D913D916D
:105020004D915C911C972F5F3F4F4F4F5F4F2987EA
:105030003A874B875C87730162011D821E821F8243
:105040001886F50181859285A385B4850D811E8121
:105050002F813885081719072A073B0708F054C025
:1050600029853A854B855C852C153D054E055F05E8
:1050700050F4A2E0CA2ED12CE12CF12CB2E04B2E40
:10508000512C612C712C9E012F5F3F4FB701A6015F
:10509000C501F5DD8823C1F149815A816B817C818D
:1050A000D701C6010196A11DB11D452B462B472BEB
:1050B00019F02C013D010FC0AC01BD014419550987
:1050C000660977090D851E852F8538894017510798
:1050D0006207730779F02D813E814F8158852F5FDC
:1050E0003F4F4F4F5F4F2D833E834F8358876C0157
:1050F0007D01A7CF0FEF1FEF2FEF3FE0B701A60114
:10510000C501AADE811117C080E03FC0D701C601EA
:105110000197A109B1098D839E83AF83B887970159
:105120008601AC01BD01C50197DE882369F3CD80FE
:10513000DE80EF80F8844C145D046E047F0430F34D
:10514000D1014D915D916D917C91411551056105A4
:10515000710599F4F1014082518262827382992033
:1051600099F0FFEF4F1A5F0A6F0A7F0AD5014D923F
:105170005D926D927C92139707C093018201C501E5
:105180006BDE8111E7CFC0CF81E060960FB6F89457
:10519000DEBF0FBECDBFDF91CF911F910F91FF906A
:1051A000EF90DF90CF90BF90AF909F907F906F90E7
:1051B0005F904F903F902F900895AF92BF92CF9203
:1051C000DF92EF92FF920F931F93CF93DF9300D064
:1051D0001F92CDB7DEB75C016A017B0182E090E0EF
:1051E000A0E0B0E0F50180839183A283B3839E01A8
:1051F0002F5F3F4FB701A601C50141DD882309F1AB
:1052000000E010E09801B701A601C50125DE882362
:10521000C1F0C980DA80EB80FC80F501878980319C
:1052200029F488EF9FEFA0E0B0E004C088EF9FEF83
:10523000AFEFBFE0C816D906EA06FB06C0F281E070
:1052400001C080E00F900F900F900F90DF91CF91F1
:105250001F910F91FF90EF90DF90CF90BF90AF9094
:1052600008958F929F92AF92BF92CF92DF92EF926A
:10527000FF920F931F93CF93DF93EC01142F709342
:10528000670A6093660A442339F1453010F080E0E4
:10529000EDC040E060E070E0CB0192DC8823B9F320
:1052A00020E1129FF0011124EA5EF34F80818F7795
:1052B00071F784859585A685B78584369105A10506
:1052C000B10528F3C084D184E284F384C114D104ED
:1052D000E104F10421F4DBCFC12CD12C760140E0B4
:1052E000C701B6016DDC882391F28091730A909119
:1052F000740A8115924059F63091780A332339F2B5
:105300008091760A9091770A892B09F4C0CF209179
:10531000750A222309F4BBCF3A8B2C831D8630E01B
:1053200041E050E06D85062FCA01062E02C0880FAD
:10533000991F0A94E2F72817390731F081E0860FA8
:105340008D87683078F3A3CF20917E0A30917F0A51
:105350002115310519F040E050E008C020918C0A79
:1053600030918D0A40918E0A50918F0A2D833E8391
:105370004F8358878091760A9091770A46015701AA
:10538000880E991EA11CB11C8B8A9C8AAD8ABE8A8C
:10539000E091790AF0917A0AF98FE88FA091780A62
:1053A000B0E00F942B07680D791D8A1D9B1D6A8F35
:1053B0007B8F8C8F9D8F15E0EE0FFF1F1A95E1F705
:1053C000E150FE4FEF2FFF27E695DC01CB018E0F5A
:1053D0009F1FA11DB11D8E879F87A88BB98B8090C1
:1053E0007B0A90907C0A8114910419F0A12CB12CB5
:1053F00008C08090880A9090890AA0908A0AB0908C
:105400008B0AA7019601281B390B4A0B5B0BDA01AB
:10541000C901880D991DAA1DBB1D04C0B695A7958D
:10542000979587950A95D2F789879A87AB87BC8726
:10543000853F3FE09307A105B10510F48CE014C04F
:10544000853F9F4FA105B10510F480E10DC080910B
:10545000940A9091950AA091960AB091970A8A8F22
:105460009B8FAC8FBD8F80E28F8B81E0DF91CF91DE
:105470001F910F91FF90EF90DF90CF90BF90AF9072
:105480009F908F9008950E9624E1FC0111922A9529
:10549000E9F70895CF93DF93EC01625F7F4F0E949D
:1054A00067FCCE01DF91CF910895CF93DF93EC019C
:1054B0006E5E7F4F0E9467FCCE01DF91CF91089511
:1054C000CF93DF93EC016A5E7F4F0E9467FCCE01B1
:1054D000DF91CF910895CF93DF93EC01625E7F4F10
:1054E0000E9467FCCE01DF91CF91089580E3FB011C
:1054F00080833296842F82958F7090E1899F401926
:1055000011244A3014F4405D01C0495C4293882361
:1055100011F0482FEFCF08950F9300E020E040E016
:1055200060E088E69CE00E945BFC0F9108956F921A
:105530007F928F929F92AF92BF92CF92DF92EF9223
:10554000FF920F931F93CF93DF93CDB7DEB7AC9746
:105550000FB6F894DEBF0FBECDBF7C01862EB42EF1
:10556000A52E20E2922ECE0101966C01FC01292D80
:1055700011922A95E9F70FEF2FEF4FEF6FEF869615
:105580000E945BFC81E596E09AA389A389A59AA570
:10559000ABA5BCA58BA39CA3ADA3BEA387010D5B4C
:1055A0001F4F43E450E0BE016F5D7F4FC8010E9472
:1055B000DA38019609F4BCC081E089838A8386E0E9
:1055C000782E7B821C82F7016481758186819781A8
:1055D0000F9415076D837E838F839887A986BA867B
:1055E00080E890E09C878B874CE150E0B601C801D1
:1055F0000E94E438F601292D11922A95E9F7570106
:1056000088E0A80EB11CF501D60101900D927A94A4
:10561000E1F740E150E0B601C8010E94E438F6012C
:1056200011929A94E9F796E0692E712C40E250E0CD
:10563000B601C8010E94E438F1E06F1A7108B1F7B1
:1056400083E6898392E89A8393E59B838C8385E341
:105650008D8381E08E838F829DE3988797E0998781
:105660008A8786E0F501DE011B9601900D928A95EE
:10567000E1F78CE0898B8A8B6CED72E0CE0143966A
:105680000F94820AF7014385BE01675E7F4FC70111
:105690002DDFF7014485BE01655E7F4FC70126DF20
:1056A000F7014585BE01635E7F4FC7011FDF4EE1F5
:1056B00050E0B601C8010E94E438F3E08F121EC02A
:1056C00082E3898384E08A83F70196859B839785AB
:1056D0009C8390899D8391899E8396E39F8388878D
:1056E000828D8987838D8A87848D8B87858D8C8732
:1056F0004CE050E0B601C8010E94E43887E389839A
:1057000086E08A8391E09B8393E09C838D838FE086
:105710008E838AE38F838BE388878FEF898749E0C5
:1057200050E0B601C8010E94E438C8010E94E13887
:10573000AC960FB6F894DEBF0FBECDBFDF91CF9110
:105740001F910F91FF90EF90DF90CF90BF90AF909F
:105750009F908F907F906F9008952F923F924F92DD
:105760005F926F927F928F929F92AF92BF92CF92F1
:10577000DF92EF92FF920F931F93CF93DF93CDB7FA
:10578000DEB7E3970FB6F894DEBF0FBECDBF7C0146
:105790002A013B0169010E942DF54B015C01870143
:1057A0000D5B1F4FC8010E947E391816190694F030
:1057B0000E942DF5681979098A099B094616570632
:1057C00068067906F0F062E370E080E090E00E9405
:1057D0005CF5E8CF42E250E0BE016F5F7F4FC80149
:1057E0000E941F398981823031F4F80184899589BA
:1057F0008334910541F019A6C8010E94C53889A5D6
:1058000066C18FEF64C16D817E818F8198850F9411
:1058100015074B015C01F6016083718382839383DA
:1058200046E050E0B701685F7F4FCE014D960F9480
:10583000350A892B99F4F70180819181A281B38186
:1058400088169906AA06BB0648F084819581A68130
:10585000B78188159905AA05BB0528F4C8010E94DF
:10586000C53880E034C189899A89AB89BC89F70140
:1058700086879787A08BB18B3EECC32ED12CC801B5
:105880000E94F738F1E0CF1AD108C9F719A6C7016D
:1058900082969BA78AA7F701B696FDA7ECA7089664
:1058A0009FA78EA73C976F01899699AB88AB3897D5
:1058B000FBABEAAB5701F6E1AF0EB11C47018EE13D
:1058C000880E911CC8010E94AB38181619060CF0FE
:1058D00093CFC8010E94F7388333910509F4CDC0F6
:1058E000F4F481309105B9F11CF4892B59F3DFC030
:1058F00083309105C1F1069709F0D9C0C8010E9413
:10590000F7383C0144E050E0B401C8010E941F395F
:10591000212C312C7724F4E06F1A71083FC08A33B0
:10592000910509F47EC03CF48533910561F0C6977A
:1059300009F43FC0BCC08B33910509F488C08F3F88
:10594000910501F2B4C0C8010E94F738C8010E9455
:10595000F73889A7B7CFC8010E94F73844E050E074
:105960006AA97BA93AC0C8010E94F7383C0144E00B
:1059700050E0B501C8010E941F39212C312C772439
:1059800094E0691A7108261437040CF09BCFC80103
:105990000E94F738EFEF2E1A3E0AF5CF261437048F
:1059A0000CF090CFC8010E94F7388FEF281A380A00
:1059B000F5CFC8010E94F738782EF701828D81114A
:1059C00010C0838D81110DC0848D81110AC0858D19
:1059D000811107C044E050E0B601C8010E941F39A0
:1059E00071CFE8A9F9A92080318042805380B601A7
:1059F000CE0183960E9467FC8DA19EA1AFA1B8A5A0
:105A000082159305A405B50529F3212C312C7214B8
:105A100009F458CFC8010E94F738FFEF2F1A3F0A48
:105A2000F6CFC8010E94F73844E050E06CA57DA590
:105A3000C8010E941F39F70166A177A180A591A531
:105A40000F94150766A377A380A791A73BCFC80142
:105A50000E94F73844E050E06EA57FA5C8010E947F
:105A60001F39F70162A573A584A595A50F941507A5
:105A700062A773A784A795A725CFC8010E94F7380E
:105A800044E050E06AA57BA5C8010E941F39F701D8
:105A900062A173A184A195A10F94150762A373A3BA
:105AA00084A395A366A777A780AB91AB0BCFC80162
:105AB0000E94F738382E612C712C361409F402CF6D
:105AC000C8010E94F738FFEF6F1A7F0AF6CFE396FE
:105AD0000FB6F894DEBF0FBECDBFDF91CF911F91FF
