:100000000C94540E0C94850E0C94850E0C94850E55
:100010000C94850E0C94850E0C94850E0C94850E14
:100020000C94850E0C94850E0C94850E0C94850E04
:100030000C94850E0C94850E0C94850E0C94850EF4
:100040000C94850E0C94850E0C94850E0C94850EE4
:100050000C94850E0C94850E0C94850E0C949F5B6D
:100060000C94850E0C94EB5E0C94215F0C94850E21
:100070000C94850E0C94850E0C94850E0C94850EB4
:100080000C94850E0C94850E0C94850E0C94850EA4
:100090000C94850E0C94850E0C94850E0C94715A5C
:1000A0000C94850E0C94850E0C94850E0C94850E84
:1000B0000C94850E0C94850E0C94850E0C94850E74
:1000C0000C94850E0C94850E0C94850E0C94850E64
:1000D0000C94850E0C94850E0C94850E0C94850E54
:1000E0000C94850EF22D102E372E4D2E4D2E4D2EAA
:1000F000642EEC2EF22DEC2E872EEC2E952E952EC6
:10010000B22EB22E372E182F182F372E952EEC2EFA
:100110004D2EC02EEC2EEC2EEC2EEC2EEC2EDA2EEC
:10012000EC2EEC2E852FE630CF319E32A933A93349
:100130003B358F36343C9C378D39F939C23D9B3E77
:1001400077407740CF316A496A49CF316E3F784175
:10015000BD3441420C4312453944CB4512476C48EB
:1001600080483438AB5CAE5C9D5CA15CA75CE55C10
:10017000B25CB65CBC5CC05CC45CCA5CCE5CD25C8D
:10018000E55CD85CDC5CE05C05A84CCDB2D44EB933
:100190003836A9020C50B9918688083CA6AAAA2A2A
:1001A000BE000000803F1010208F00000000000003
:1001B000000000000000000000000000000000003F
:1001C0000000000000000000000000000000070028
:1001D0000F800F800F800F800F8007000700000046
:1001E0000000070007000700000000000E380E386E
:1001F0000E380E380630000000000000000000003D
:100200000000000000000000000000000C300C3076
:100210000C307FFE7FFE0C300C300C300C307FFE3B
:100220007FFE0C300C300C30000000000240024019
:100230000FF81FF81A401A401FF00FF80258025822
:100240001FF81FF002400240000000000000000004
:100250000E100E300E7000E001C0038007000E701B
:100260000C700870000000000000000000000F008B
:100270001980198019800F000F080F9819F818F0CD
:1002800018E019F00F9800000000000000000700BF
:10029000070007000E000000000000000000000042
:1002A000000000000000000000000000000000F05E
:1002B00001C0038007000E000E000E000E000700B4
:1002C000038001C000F000000000000000000F00EB
:1002D000038001C000E0007000700070007000E05A
:1002E00001C003800F00000000000000000001803A
:1002F0001188099007E007E03FFC3FFC07E007E0BA
:10030000099011880180000000000000000000003A
:1003100000000180018001800FF00FF0018001805A
:10032000018000000000000000000000000000004C
:1003300000000000000000000000000000000000BD
:100340000700070007000E0000000000000000008A
:1003500000000000000000001FF81FF8000000006F
:10036000000000000000000000000000000000008D
:10037000000000000000000000000000000000007D
:100380000700070007000000000000000000000256
:100390000006000E001C0038007000E001C0038061
:1003A00007000E001C0000000000000000000FF01D
:1003B0001C381C781CF81CF81DB81DB81F381F38D5
:1003C0001E381C380FF00000000000000000018003
:1003D000018003801F801F800380038003800380CF
:1003E000038003801FF000000000000000000FE009
:1003F0001C701C380038007000E001C0038007004A
:100400000E381C381FF800000000000000000FE04C
:100410001C701C380038007003C003C00070003826
:100420001C381C700FE0000000000000000000E01D
:1004300001E003E006E00CE018E01FF81FF800E020
:1004400000E000E003F800000000000000001FF8DA
:100450001C001C001C001C001FE01FF0007800386E
:100460001C381C700FE0000000000000000003E0DA
:1004700007000E001C001C001FF01FF81C381C3861
:100480001C381C380FF000000000000000001FFCAA
:100490001C1C1C1C1C1C001C0038007000E001C04F
:1004A00003800380038000000000000000000FF0C4
:1004B0001C381C381C381F3807E007E01CF81C38B3
:1004C0001C381C380FF000000000000000000FF086
:1004D0001C381C381C381C381FF80FF8003800383E
:1004E000007000E007C000000000000000000000F5
:1004F000000003800380038000000000038003806D
:100500000380000000000000000000000000000068
:10051000000003800380038000000000038003804C
:10052000038007000000000000000000007000E0F1
:1005300001C0038007000E001C001C000E00070015
:10054000038001C000E00070000000000000000017
:10055000000000003FFC3FFC000000003FFC3FFCAF
:100560000000000000000000000000001C000E0061
:100570000700038001C000E00070007000E001C0CF
:10058000038007000E001C000000000003C00FF0F5
:100590001E7818380038007000E001C001C000006B
:1005A000000001C001C001C0000000000FF81C1CC9
:1005B0001C1C1C1C1C1C1CFC1CFC1CFC1CFC1C0017
:1005C0001C001C001FF007F800000000000003C022
:1005D00007E00E701C381C381C381C381FF81C38FB
:1005E0001C381C381C3800000000000000001FF000
:1005F0000E380E380E380E380FF00FF00E380E3859
:100600000E380E381FF0000000000000000007F058
:100610000E381C381C001C001C001C001C001C0098
:100620001C380E3807F000000000000000001FE03A
:100630000E700E380E380E380E380E380E380E3852
:100640000E380E701FE000000000000000001FF8D0
:100650000E180E080E000E300FF00FF00E300E00C8
:100660000E080E181FF800000000000000001FF820
:100670000E180E080E000E300FF00FF00E300E00A8
:100680000E000E001F00000000000000000007F038
:100690000E381C381C381C001C001C001CF81C38B0
:1006A0001C380E3807F800000000000000001C7025
:1006B0001C701C701C701C701FF01FF01C701C70D4
:1006C0001C701C701C7000000000000000000FE097
:1006D0000380038003800380038003800380038002
:1006E000038003800FE0000000000000000001FC18
:1006F000007000700070007000700070387038700A
:10070000387038700FE000000000000000001E3854
:100710000E380E700EE00FC00F800F800FC00EE07D
:100720000E700E381E3800000000000000001F0090
:100730000E000E000E000E000E000E000E000E0841
:100740000E180E381FF800000000000000001C1CEE
:100750001E3C1F7C1FFC1FFC1DDC1C9C1C1C1C1C4D
:100760001C1C1C1C1C1C00000000000000001C1CA9
:100770001C1C1E1C1F1C1F9C1DDC1CFC1C7C1C3C10
:100780001C1C1C1C1C1C000000000000000003E0DE
:1007900007F00E381C1C1C1C1C1C1C1C1C1C1C1CCC
:1007A0000E3807F003E000000000000000001FF01A
:1007B0000E380E380E380E380FF00FF00E000E0007
:1007C0000E000E001F00000000000000000003E00B
:1007D0000F780E381C1C1C1C1C1C1C1C1C7C1CFCBC
:1007E0000FF80FF8003800FC0000000000001FF0B8
:1007F0000E380E380E380E380FF00FF00E700E381F
:100800000E380E381E3800000000000000000FF007
:100810001C381C381C381C000FE007F000381C384E
:100820001C381C380FF000000000000000001FFC06
:1008300019CC11C401C001C001C001C001C001C078
:1008400001C001C007F000000000000000001C70A3
:100850001C701C701C701C701C701C701C701C7038
:100860001C701C700FE000000000000000001C70F5
:100870001C701C701C701C701C701C701C701C7018
:100880000EE007C0038000000000000000001C1CF8
:100890001C1C1C1C1C1C1C1C1C9C1C9C1C9C0FF849
:1008A0000FF80770077000000000000000001C70C7
:1008B0001C701C700EE007C00380038007C00EE0B0
:1008C0001C701C701C7000000000000000001C70F8
:1008D0001C701C701C701C700EE007C0038003802D
:1008E000038003800FE000000000000000001FF8FC
:1008F0001C381838107000E001C0038007000E0893
:100900001C181C381FF8000000000000000007F051
:10091000070007000700070007000700070007009F
:100920000700070007F000000000000000001000B2
:1009300018001C000E000700038001C000E00070DA
:100940000038001C0007000000000000000007F055
:100950000070007000700070007000700070007017
:100960000070007007F0000000000000018003C06C
:1009700007E00E701C3800000000000000000000BE
:100980000000000000000000000000000000000067
:100990000000000000000000000000000000000057
:1009A0000000000000007FFF7FFF000000001C002F
:1009B0001C0007000700000000000000000000000D
:1009C0000000000000000000000000000000000027
:1009D0000000000000000FE0007000700FF01C70BD
:1009E0001C701C700FD800000000000000001E00EA
:1009F0000E000E000E000FF00E380E380E380E38B6
:100A00000E380E381BF0000000000000000000004F
:100A10000000000000000FE01C701C701C001C0097
:100A20001C701C700FE0000000000000000000F8C7
:100A30000070007000700FF01C701C701C701C7037
:100A40001C701C700FD800000000000000000000A7
:100A50000000000000000FE01C701C701FF01C0064
:100A60001C701C700FE0000000000000000003E09C
:100A700007700770070007001FE01FE0070007006E
:100A8000070007001FC00000000000000000000079
:100A90000000000000000FD81C701C701C701C703F
:100AA0000FF007F000701C700FE0000000001E0047
:100AB0000E000E000E000EF00F380F380E380E38F4
:100AC0000E380E381E38000000000000000001C083
:100AD00001C001C000000FC001C001C001C001C0C1
:100AE00001C001C00FF8000000000000000000700D
:100AF00000700070000003F0007000700070007063
:100B0000007000701C700CF007E0000000001E0078
:100B10000E000E000E000E380E700EE00FC00EE03C
:100B20000E700E381E3800000000000000000FC0DC
:100B300001C001C001C001C001C001C001C001C0AD
:100B400001C001C00FF8000000000000000000001C
:100B50000000000000001FF81C9C1C9C1C9C1C9C9E
:100B60001C9C1C9C1C9C000000000000000000005D
:100B70000000000000001FE01C701C701C701C7046
:100B80001C701C701C7000000000000000000000C1
:100B90000000000000000FE01C701C701C701C7036
:100BA0001C701C700FE0000000000000000000003E
:100BB0000000000000001BF00E380E380E380E3812
:100BC0000E380FF00E000E001F00000000000000A5
:100BD0000000000000001FB038E038E038E038E0E6
:100BE00038E01FE000E000E001F00000000000003D
:100BF0000000000000001EF00FF80F380E000E007D
:100C00000E000E001F0000000000000000000000A9
:100C10000000000000000FE01C301C300F8003E0DB
:100C2000187018700FE000000000000000000000C5
:100C30000100030007001FF007000700070007007E
:100C40000770077003E000000000000000000000D3
:100C50000000000000001C701C701C701C701C70D8
:100C60001C701C700FD80000000000000000000085
:100C70000000000000001C701C701C701C701C70B8
:100C80000EE007C00380000000000000000000002C
:100C90000000000000001C1C1C1C1C1C1C9C1C9C3C
:100CA0000FF807700770000000000000000000004F
:100CB0000000000000001CE01CE00FC0078007805F
:100CC0000FC01CE01CE0000000000000000000005D
:100CD0000000000000000E380E380E380E380E38B6
:100CE00007F003E000E001C01F80000000000000EA
:100CF0000000000000001FE018E011C003800700A2
:100D00000E201C601FE0000000000000000001F841
:100D100003800380038007001C001C000700038081
:100D20000380038001F800000000000001C001C042
:100D300001C001C001C001C001C001C001C001C0AB
:100D400001C001C001C001C00000000000001F8000
:100D500001C001C001C000E00038003800E001C05F
:100D600001C001C01F8000000000000000001F1C27
:100D70003B9C39DC38F80000000000000000000057
:100D8000000000000000000000000000000000F073
:100D900001F80198019801F800F00000000000003F
:100DA00000000000000000000000000000001FF82C
:100DB0000E180E080E000E000FF00E380E380E380A
:100DC0000E380E381FF000000000000000001FF871
:100DD0000E180E080E000E000E000E000E000E0083
:100DE0000E000E001F00000000000000000007F0D1
:100DF0000C701C701C701C701C701C701C701C70A3
:100E00001C701C703FF830182008066000001FF8A6
:100E10000E180E080E000E300FF00FF00E300E0000
:100E20000E080E181FF8000000000000000033CC70
:100E30001998199819980DB00FF00FF01DB819985E
:100E40001998199833CC000000000000000017E04A
:100E50001E701C381038007003C003C000700038CA
:100E60001C381C700FE000000000000000001C7027
:100E70001C701C701C701C701C701CF01DF01F700E
:100E80001E701C701C7000000000038000001C70AD
:100E90001C701C701C701C701C701CF01DF01F70EE
:100EA0001E701C701C70000000000000000003F0A9
:100EB00006700E700E700E700E700E700E700E704A
:100EC0000E700E701C7000000000000000001FF08B
:100ED0001C701C701C701C701C701C701C701C70B2
:100EE0001C701C701C7000000000000000001C70D2
:100EF0001C701C701C701C701C700FF007F00070D0
:100F000000701CE00FC000000000000000001FF097
:100F100033983398339833983398339833981FF035
:100F20000380038007C000000000000000001C7068
:100F30001C701C701C701C701C701C701C701C7051
:100F40001C701C701FF800180008000000001C70C6
:100F50001C701C701C701C701C701FF00FF0007057
:100F60000070007000700000000000000000399C5C
:100F7000399C399C399C399C399C399C399C399CC9
:100F8000399C399C3FFC0000000000000000399CA7
:100F9000399C399C399C399C399C399C399C399CA9
:100FA000399C399C3FFE00060002000000003F0013
:100FB0002E002E000E000E000FF00E380E380E38E8
:100FC0000E380E381FF00000000000000000381C32
:100FD000381C381C381C381C3F9C39DC39DC39DCA7
:100FE00039DC39DC3F9C00000000000000001F00DD
:100FF0000E000E000E000E000FF00E380E380E38E8
:101000000E380E381FF000000000000000000FE056
:101010001C701C380038003803F803F8003800381A
:101020001C381C700FE000000000000000003CF8BD
:101030001D9C1D9C1D9C1D9C1F9C1F9C1D9C1D9CE4
:101040001D9C1D9C3CF800000000000000000FF8F3
:101050001C701C701C701C701C701FF00FF01C703A
:101060001C701C70387800000000000000000018A0
:1010700007F80F000E000E000FF00E380E380E3875
:101080000E380E3807F000000000000000000000DD
:101090000000000000001FF00E380E380FF00E3870
:1010A0000E380E381FF000000000000000000000A5
:1010B0000000000000001FF81C381C001C001C0071
:1010C0001C001C001C0000000000000000000000CC
:1010D00000000000000007F00E700E700E700E7021
:1010E0000E700E701FF810080000000000000000D5
:1010F000000006C000000FE01C701C701FF01C00F8
:101100001C701C700FE000000000000000000000D8
:1011100000000000000019CC19CC19CC0DD807F044
:101120000DD819CC19CC0000000000000000000010
:101130000000000000000FE01C70007003E0007071
:1011400000701C700FE000000000000000000000B4
:101150000000000000001C701C701C701CF01D7052
:101160001E701C701C7000000000000000000000D9
:10117000000001C000000E380E380E380E780EB890
:101180000F380E380E38000000000000000000008C
:101190000000000000000E380E380E700FE00E70D8
:1011A0000E380E380E38000000000000000000006D
:1011B00000000000000003F8073807380738073838
:1011C000073807380E38000000000000000000005B
:1011D0000000000000003838383838383C783AB819
:1011E00039383838383800000000000000000000AE
:1011F0000000000000001C701C701C701C701FF0B0
:101200001C701C701C70000000000000000000003A
:101210000000000000001FF01C701C701C701C708F
:101220001C701C701C70000000000000000000001A
:101230000000000000001FF0139003800380038073
:101240000380038003800000000000000000000015
:101250000000000003801FF03BB83BB83BB83BB830
:101260000FF00380038003800000000000000000F6
:101270000000000000001C701C701C701C701C70B2
:101280001C701C701FF80018000000000000000017
:101290000000000000001C701C701C701C700FF01F
:1012A00000700070007000000000000000000000EE
:1012B000000000000000399C399C399C399C399C05
:1012C000399C399C3FFC0000000000000000000039
:1012D000000000000000399C399C399C399C399CE5
:1012E000399C399C3FFE0006000000000000000011
:1012F0000000000000003E002E000E000FF00E382F
:101300000E380E380FF00000000000000000000052
:10131000000000000000381C381C381C3F9C39DCE1
:1013200039DC39DC3F9C00000000000000000000B8
:101330000000000000000E000E000E000FF00E383E
:101340000E380E380FF00000000000000000000012
:101350000000000000000FE01C70007003F000703F
:1013600000701C700FE00000000000000000000092
:1013700000000000000038F8399C399C399C3F9CE3
:10138000399C399C38F80000000000000000000083
:1013900000000000000007F80E380E380E3807F87D
:1013A0000E380E381C3800000000080C20A6000083
:1013B00000000000000000000000000020202020AD
:1013C00020200020000000285050000000000000F5
:1013D000000000002828FC2850FC5050000000208D
:1013E00078A8A0603028A8F02000000048A8B050DD
:1013F000283454480000000020505078A8A8906C71
:1014000000000040408000000000000000000004D8
:1014100008101010101010080400004020101010C8
:1014200010101020400000000020A87070A82000BC
:1014300000000000202020F82020200000000000F4
:10144000000000000000004040800000000000F8A4
:10145000000000000000000000000000000000404C
:1014600000000008101010202040404080000000C4
:10147000708888888888887000000000206020209C
:10148000202020700000000070888810204080F824
:101490000000000070880830080888700000000014
:1014A000103050509078101800000000F88080F044
:1014B0000808887000000000709080F088888870AC
:1014C00000000000F89010202020202000000000E4
:1014D000708888708888887000000000708888880C
:1014E0007808487000000000000020000000002084
:1014F0000000000000000020000000202000000488
:101500000810204020100804000000000000F8002F
:1015100000F80000000000402010080408102040DF
:1015200000000000708888102020002000000000CB
:10153000708898A8A8B8807800000000202030505B
:10154000507848CC00000000F0484870484848F007
:101550000000000078888080808088700000000093
:10156000F0484848484848F000000000F8485070EB
:10157000504048F800000000F8485070504040E0EB
:1015800000000000384880809C884830000000003F
:10159000CC484878484848CC00000000F82020207B
:1015A000202020F8000000007C1010101010109077
:1015B000E0000000EC485060505048EC0000000093
:1015C000E0404040404044FC00000000D8D8D8D85B
:1015D000A8A8A8A800000000DC486868585848E897
:1015E00000000000708888888888887000000000EB
:1015F000F0484870404040E0000000007088888853
:1016000088E8987018000000F0484870504848EC8E
:101610000000000078888060100888F0000000005A
:10162000F8A820202020207000000000CC48484866
:101630004848483000000000CC4848505030202036
:1016400000000000A8A8A8705050505000000000F2
:10165000D8505020205050D800000000D8505020C2
:101660002020207000000000F8901020204048F852
:1016700000000038202020202020202038000040BA
:1016800040402020101010080000007010101010B2
:10169000101010107000002050000000000000002A
:1016A00000000000000000000000000000FC00201E
:1016B00000000000000000000000000000000030FA
:1016C0004838483C00000000C0404070484848701E
:1016D00000000000000000384840403800000000D2
:1016E000180808384848483C000000000000003056
:1016F00048784038000000001C2020782020207806
:10170000000000000000003C4830407844380000F1
:10171000C0404070484848EC0000000020000060D5
:101720002020207000000000100000301010101069
:1017300010E00000C040405C507048EC0000000029
:10174000E0202020202020F800000000000000F011
:10175000A8A8A8A800000000000000F0484848EC35
:101760000000000000000030484848300000000041
:10177000000000F04848487040E0000000000038D9
:1017800048484838081C0000000000D8604040E08D
:1017900000000000000000784030087800000000E1
:1017A000002020702020201800000000000000D839
:1017B0004848483C00000000000000EC4850302041
:1017C00000000000000000A8A870505000000000B9
:1017D000000000D8502050D800000000000000ECAD
:1017E0004850302020C000000000007810202078F1
:1017F0000000001810101020101010101800101009
:101800001010101010101010101000602020201068
:1018100020202020600040A41800000000000000EC
:1018200000000000304848300000000000000000C8
:10183000F8484070484848F000000000F848404030
:10184000404040E00000000038484848484848FC14
:1018500084005000F8485070504048F800000000E4
:10186000A8A8A870F8A8A8A800000000F088083070
:10187000080808F000000000EC485858686848DC88
:1018800000003000EC485858686848DC0000000050
:101890003C484848484848CC00000000FC484848BC
:1018A000484848CC00000000D850502020404080DC
:1018B0000000000070A8A8A8A87020700000000018
:1018C000CC484848484848FC04000000CC484848F8
:1018D0003808081C00000000D6545454545454FED8
:1018E00000000000D6545454545454FE020000002A
:1018F000E0C04070484848F000000000EE444464F6
:10190000545454EE00000000E0404070484848F055
:1019100000000000E0900838080890600000000017
:10192000EC525252725252EC000000003C484848BF
:101930003848489C00000000083040704848483053
:101940000000000000000070283028700000000037
:10195000000000782820207000000000000000181F
:101960002828287C440000000028003048784030B7
:1019700000000000000000545438545400000000DF
:10198000000000700830087000000000000000CC6B
:10199000485868CC00000000003000CC485868CCA3
:1019A00000000000000000485060504800000000A7
:1019B0000000001C2828284C000000000000004403
:1019C0006C54444400000000000000CC487848CC2F
:1019D00000000000000000FC484848CC0000000067
:1019E0000000007C54101038000000000000003897
:1019F0005454543810380000000000CC484848FCCB
:101A000004000000000000CC4838080C0000000072
:101A1000000000545454547C0000000000000054A6
:101A20005454547E02000000000000E0A0302870F2
:101A300000000000000000C6446454E600000000FE
:101A4000000000602030287000000000000000301E
:101A50004818483000000000000000C8547454C802
:101A6000000000000000003C4848384C00003CE703
:101A700081BD81BD81BD81BD81FF3CE7818181BD8B
:101A800081BD81BD81FF3CE78181818181BD81BDB7
:101A900081FF3CE781818181818181BD81FF3CE7BC
:101AA000818181818181818181FFFFFF003F3F0032
:101AB0000F0F000303000000003F3F000F0F000363
:101AC00003000000000000000F0F000303000000EF
:101AD00000000000000000030300000010101010C0
:101AE000105438100000000010385410101010105E
:101AF00000000000000010087C081000000000003A
:101B0000000010207C20100000000000003C0C149D
:101B1000244480000000000000804424140C3C0099
:101B2000000000003C42A581A599423C0000000055
:101B30003C7EDBFFFFDB663C000000003C42A581F1
:101B400099A5423C000000003C7EDBFFFFE75A3CC9
:101B5000000000003C4281818181423C0000000085
:101B60003C7EFFFFFFFF7E3C00000000FF81818183
:101B7000818181FF00000000FFFFFFFFFFFFFFFFEB
:101B8000000000000A0B02090C0D0E0807030401F7
:101B90000000000000000000000000000000000045
:101BA0000000000000000000000000000000121112
:101BB0001000000000000000000000000000000015
:101BC00000000000000000000102102020080810A2
:101BD000204010204080020102010804020101029D
:101BE0000408102040808040201008040201800476
:101BF00002018040201008040201080402010102D1
:101C000004081020408001020408102040800505CF
:101C10000505070508080808020202020A0A080862
:101C20000404040401010101010101010303030390
:101C300003030303040707070C0C0C0C0C0C0C0C1F
:101C40000202020206060606060606060B0B0B0B30
:101C50000B0B0B0B000020002300260029002C009A
:101C60002F003200000100000301060109010000FD
:101C70002200250028002B002E0031003400020134
:101C80000000050108010B010000210024002700CD
:101C90002A002D003000330001010000040107017B
:101CA0000A01671C8A59535F11241FBECFEFD1E28E
:101CB000DEBFCDBF00E00CBF13E0A0E0B2E0E4EA7D
:101CC000FBEC00E00BBF02C007900D92AA3EB107EB
:101CD000D9F725E0AAEEB3E001C01D92A63BB207FA
:101CE000E1F71CE1C8EADCE100E006C02297010947
:101CF000FE010BBF0E94A263C23AD10780E0080731
:101D0000A9F70E94975F0C94D0650C940000DC0149
:101D1000ED91FC910190F081E02D19944F925F922A
:101D20006F927F928F929F92AF92BF92CF92DF92EB
:101D3000EF92FF920F931F93CF93DF93CDB7DEB750
:101D40002C970FB6F894DEBF0FBECDBF2EE1AC01CD
:101D5000249FC001259F900D1124BC01625F7E4F1E
:101D6000882777FD8095982F0E949D6129E23CE5A8
:101D70004FE85CE30E9462624B015C010E94FF60DD
:101D80006B017C01C501B4010E94C5622B013C01BD
:101D900060912C0270912D02882777FD8095982FF5
:101DA0000E949D614B015C0160912E0270912F0297
:101DB000882777FD8095982F0E949D6169837A839B
:101DC0008B839C8320E030E048EC52E4C301B201F5
:101DD0000E946262A50194010E949B600E946A6158
:101DE0006D837E838F83988720E030E048EC52E457
:101DF000C701B6010E94626229813A814B815C81F0
:101E00000E949B600E946A6169877A878B879C87A2
:101E100020E030E04CED52E4C301B2010E94626266
:101E2000A50194010E949B600E946A614B015C01C4
:101E300020E030E04CED52E4C701B6010E9462623E
:101E400029813A814B815C810E949B600E946A617A
:101E50000D811E8129853A85A4018BE194E00E94C1
:101E6000024F2C960FB6F894DEBF0FBECDBFDF91A8
:101E7000CF911F910F91FF90EF90DF90CF90BF9087
:101E8000AF909F908F907F906F905F904F9008954C
:101E90002F923F924F925F926F927F928F929F927A
:101EA000AF92BF92CF92DF92EF92FF920F931F9368
:101EB000CF93DF93CDB7DEB72C970FB6F894DEBF84
:101EC0000FBECDBF1C018C010150110920E040E084
:101ED00060E08BE194E00E94924B0F3F8FEF180778
:101EE00011F40BE310E0E6E0E09FB001E19F700D1C
:101EF0001124625F7E4F882777FD8095982F0E947E
:101F00009D6129E23CE54FE85CE30E9462624B017F
:101F10005C010E94FF606B017C01C501B4010E945D
:101F2000C5624B015C0160912C0270912D028827E3
:101F300077FD8095982F0E949D6169837A838B83BA
:101F40009C8360912E0270912F02882777FD8095E7
:101F5000982F0E949D612B013C0120E030E040EA77
:101F600052E4C501B4010E94626229813A814B8129
:101F70005C810E949B600E946A616D837E838F8377
:101F8000988720E030E040EA52E4C701B6010E94A1
:101F90006262A30192010E949B600E946A6169874C
:101FA0007A878B879C8720E030E04EEB52E4C501B6
:101FB000B4010E94626229813A814B815C810E9456
:101FC0009B600E946A614B015C0120E030E04EEBB7
:101FD00052E4C701B6010E946262A30192010E940D
:101FE0009B600E946A610D811E8129853A85A4014A
:101FF0008BE194E00E94024F20E040E06FEF8BE124
:1020000094E00E94924BF6E0F29DB001F39D700DBA
:102010001124625F7E4F882777FD8095982F0E945C
:102020009D6129E23CE54FE85CE30E9462624B015E
:102030005C010E94FF606B017C01C501B4010E943C
:10204000C5622B013C0160912C0270912D02882702
:1020500077FD8095982F0E949D614B015C016091F6
:102060002E0270912F02882777FD8095982F0E946D
:102070009D6169837A838B839C8320E030E040EA12
:1020800052E4C301B2010E946262A50194010E9460
:102090009B600E946A616D837E838F83988720E0B6
:1020A00030E040EA52E4C701B6010E946262298131
:1020B0003A814B815C810E949B600E946A616987C2
:1020C0007A878B879C8720E030E04EEB52E4C30197
:1020D000B2010E946262A50194010E949B600E946D
:1020E0006A614B015C0120E030E04EEB52E4C70135
:1020F000B6010E94626229813A814B815C810E9413
:102100009B600E946A610D811E8129853A85A40128
:102110008BE194E00E94024F2C960FB6F894DEBF3C
:102120000FBECDBFDF91CF911F910F91FF90EF9028
:10213000DF90CF90BF90AF909F908F907F906F90E7
:102140005F904F903F902F9008952F923F924F9223
:102150005F926F927F928F929F92AF92BF92CF9237
:10216000DF92EF92FF920F931F93CF93DF93CDB740
:10217000DEB7A4970FB6F894DEBF0FBECDBF1C012B
:102180008C010150110920E040E060E08BE194E017
:102190000E94924B0F3F8FEF180711F40BE310E0F2
:1021A000E6E0E09F3001E19F700C1124B301625F13
:1021B0007E4F882777FD8095982F0E949D6129E2A8
:1021C0003CE54FE85CE30E9462626B017C010E9487
:1021D000FF604B015C0120E030E040EA52E40E94E5
:1021E000626269837A838B839C83C701B6010E94F4
:1021F000C5626B017C0120E030E040EA52E40E94BD
:1022000062626D877E878F87988B20E030E040EA9E
:1022100050E4C501B4010E946262698B7A8B8B8B9A
:102220009C8B20E030E040EA50E4C701B6010E94F8
:1022300062626D8B7E8B8F8B988FB3016E5E7E4F4B
:10224000882777FD8095982F0E949D6129E23CE5C3
:102250004FE85CE30E9462626B017C010E94FF60B8
:1022600020E030E040EF51E40E9462626D837E83A3
:102270008F839887C701B6010E94C56220E030E0D5
:1022800040EF51E40E946262698F7A8F8B8F9C8F3E
:10229000B301665F7E4F882777FD8095982F0E9457
:1022A0009D6129E23CE54FE85CE30E9462626B01BC
:1022B0007C010E94FF6020E030E040EF51E40E948A
:1022C00062626D8F7E8F8F8F98A3C701B6010E94C7
:1022D000C56220E030E040EF51E40E94626269A3F1
:1022E0007AA38BA39CA360912C0270912D02882766
:1022F00077FD8095982F0E949D614B015C01609154
:102300002E0270912F02882777FD8095982F0E94CA
:102310009D616B017C01A5019401698D7A8D8B8D86
:102320009C8D0E949B600E946A6169877A878B8777
:102330009C87A70196016D817E818F8198850E947F
:102340009B600E946A612B013C01A50194016D858F
:102350007E858F8598890E949B600E946A614B01EF
:102360005C01A701960169817A818B819C810E9421
:102370009B600E946A6109851A859201A4018BE124
:1023800094E00E94024F60912C0270912D028827E8
:1023900077FD8095982F0E949D614B015C016091B3
:1023A0002E0270912F02882777FD8095982F0E942A
:1023B0009D616B017C01A50194016D897E898F89E6
:1023C000988D0E949B600E946A6169877A878B87DB
:1023D0009C87A701960169897A898B899C890E94CB
:1023E0009B600E946A612B013C01A5019401698DEB
:1023F0007A8D8B8D9C8D0E949B600E946A614B013F
:102400005C01A70196016D817E818F8198850E9474
:102410009B600E946A6109851A859201A4018BE183
:1024200094E00E94024F60912C0270912D02882747
:1024300077FD8095982F0E949D614B015C01609112
:102440002E0270912F02882777FD8095982F0E9489
:102450009D616B017C01A501940169A17AA18BA109
:102460009CA10E949B600E946A616D837E838F8322
:102470009887A70196016D8D7E8D8F8D98A10E9402
:102480009B600E946A612B013C01A50194016D894A
:102490007E898F89988D0E949B600E946A614B01A2
:1024A0005C01A701960169897A898B899C890E94C0
:1024B0009B600E946A610D811E819201A4018BE1E3
:1024C00094E00E94024F60912C0270912D028827A7
:1024D00077FD8095982F0E949D616B017C01609132
:1024E0002E0270912F02882777FD8095982F0E94E9
:1024F0009D614B015C01A70196016D857E858F85ED
:1025000098890E949B600E946A612B013C01A50191
:10251000940169817A818B819C810E949B600E94D9
:102520006A6169837A838B839C83A701960169A181
:102530007AA18BA19CA10E949B600E946A616B01A1
:102540007C01A50194016D8D7E8D8F8D98A10E94D7
:102550009B600E946A61820129813A81A6018BE118
:1025600094E00E94024F20E04FEF60E08BE194E0A6
:102570000E94924BF6E0F29D3001F39D700C112405
:10258000B301625F7E4F882777FD8095982F0E9468
:102590009D6129E23CE54FE85CE30E9462626B01C9
:1025A0007C010E94FF604B015C0120E030E040EACA
:1025B00052E40E94626269837A838B839C83C701A1
:1025C000B6010E94C5626B017C0120E030E040EA68
:1025D00052E40E9462626D877E878F87988B20E02D
:1025E00030E040EA50E4C501B4010E946262698BA8
:1025F0007A8B8B8B9C8B20E030E040EA50E4C70163
:10260000B6010E9462626D8B7E8B8F8B988FB301B7
:102610006E5E7E4F882777FD8095982F0E949D6182
:1026200029E23CE54FE85CE30E9462626B017C01B9
:102630000E94FF6020E030E040EF51E40E946262BF
:102640006D837E838F839887C701B6010E94C56220
:1026500020E030E040EF51E40E946262698F7A8F9F
:102660008B8F9C8FB301665F7E4F882777FD8095A7
:10267000982F0E949D6129E23CE54FE85CE30E94AF
:1026800062626B017C010E94FF6020E030E040EF5D
:1026900051E40E9462626D8F7E8F8F8F98A3C70175
:1026A000B6010E94C56220E030E040EF51E40E9494
:1026B000626269A37AA38BA39CA360912C027091A0
:1026C0002D02882777FD8095982F0E949D614B01F0
:1026D0005C0160912E0270912F02882777FD809512
:1026E000982F0E949D616B017C01A5019401698D69
:1026F0007A8D8B8D9C8D0E949B600E946A61698798
:102700007A878B879C87A70196016D817E818F8157
:1027100098850E949B600E946A612B013C01A50183
:1027200094016D857E858F8598890E949B600E94AB
:102730006A614B015C01A701960169817A818B81F5
:102740009C810E949B600E946A6109851A859201A2
:10275000A4018BE194E00E94024F60912C027091E1
:102760002D02882777FD8095982F0E949D614B014F
:102770005C0160912E0270912F02882777FD809571
:10278000982F0E949D616B017C01A50194016D89C8
:102790007E898F89988D0E949B600E946A616987FB
:1027A0007A878B879C87A701960169897A898B89AB
:1027B0009C890E949B600E946A612B013C01A501DB
:1027C0009401698D7A8D8B8D9C8D0E949B600E94F7
:1027D0006A614B015C01A70196016D817E818F8149
:1027E00098850E949B600E946A6109851A85920102
:1027F000A4018BE194E00E94024F60912C02709141
:102800002D02882777FD8095982F0E949D614B01AE
:102810005C0160912E0270912F02882777FD8095D0
:10282000982F0E949D616B017C01A501940169A113
:102830007AA18BA19CA10E949B600E946A616D831A
:102840007E838F839887A70196016D8D7E8D8F8DF6
:1028500098A10E949B600E946A612B013C01A50126
:1028600094016D897E898F89988D0E949B600E945A
:102870006A614B015C01A701960169897A898B899C
:102880009C890E949B600E946A610D811E81920159
:10289000A4018BE194E00E94024F60912C027091A0
:1028A0002D02882777FD8095982F0E949D614B010E
:1028B0005C0160912E0270912F02882777FD809530
:1028C000982F0E949D616B017C01A50194016D858B
:1028D0007E858F8598890E949B600E946A612B018A
:1028E0003C01A701960169817A818B819C810E94BC
:1028F0009B600E946A6169837A838B839C83A501B4
:10290000940169A17AA18BA19CA10E949B600E9465
:102910006A614B015C01A70196016D8D7E8D8F8DE3
:1029200098A10E949B600E946A61820129813A817C
:10293000A4018BE194E00E94024FA4960FB6F89494
:10294000DEBF0FBECDBFDF91CF911F910F91FF90E2
:10295000EF90DF90CF90BF90AF909F908F907F903F
:102960006F905F904F903F902F9008952F923F92DD
:102970004F925F926F927F928F929F92AF92BF928F
:10298000CF92DF92EF92FF920F931F93CF93DF933B
:10299000CDB7DEB7A6970FB6F894DEBF0FBECDBF9A
:1029A0001C017EA36DA320E040E060E08BE194E099
:1029B0000E94924B8DA19EA1892B61F4C1010197C8
:1029C0002EE1289F3001299F700C11249DE1690E92
:1029D000711C13C02EE1229DC001239D900D112476
:1029E0006DA07EA0E1E06E1A710877FE02C06DA0B6
:1029F0007EA075946794680E791EB301625F7E4F66
:102A0000882777FD8095982F0E949D6129E23CE5FB
:102A10004FE85CE30E9462626B017C010E94FF60F0
:102A20004B015C0120E030E040E752E40E9462622A
:102A300069837A838B839C83C701B6010E94C56238
:102A40006B017C0120E030E040E752E40E946262CA
:102A50006D877E878F87988B20E030E040EA50E4D6
:102A6000C501B4010E946262698B7A8B8B8B9C8B4F
:102A700020E030E040EA50E4C701B6010E94626203
:102A80006D8B7E8B8F8B988FB3016D5E7E4F882709
:102A900077FD8095982F0E949D6129E23CE54FE8E3
:102AA0005CE30E9462626B017C010E94FF6020E097
:102AB00030E040EA51E40E9462626D837E838F833E
:102AC0009887C701B6010E94C56220E030E040EA65
:102AD00051E40E946262698F7A8F8B8F9C8FB30161
:102AE000675F7E4F882777FD8095982F0E949D61B4
:102AF00029E23CE54FE85CE30E9462626B017C01E5
:102B00000E94FF6020E030E040EA51E40E946262EF
:102B10006D8F7E8F8F8F98A3C701B6010E94C5620B
:102B200020E030E040EA51E40E94626269A37AA3A7
:102B30008BA39CA360912C0270912D02882777FDB6
:102B40008095982F0E949D614B015C0160912E023F
:102B500070912F02882777FD8095982F0E949D61A4
:102B60006B017C01A5019401698D7A8D8B8D9C8D03
:102B70000E949B600E946A6169877A878B879C8725
:102B8000A70196016D817E818F8198850E949B604F
:102B90000E946A612B013C01A50194016D857E852F
:102BA0008F8598890E949B600E946A614B015C013D
:102BB000A701960169817A818B819C810E949B602B
:102BC0000E946A6109851A859201A4018BE194E053
:102BD0000E94024F60912C0270912D02882777FD90
:102BE0008095982F0E949D614B015C0160912E029F
:102BF00070912F02882777FD8095982F0E949D6104
:102C00006B017C01A50194016D897E898F89988D66
:102C10000E949B600E946A6169877A878B879C8784
:102C2000A701960169897A898B899C890E949B609A
:102C30000E946A612B013C01A5019401698D7A8D86
:102C40008B8D9C8D0E949B600E946A614B015C0190
:102C5000A70196016D817E818F8198850E949B607E
:102C60000E946A6109851A859201A4018BE194E0B2
:102C70000E94024F60912C0270912D02882777FDEF
:102C80008095982F0E949D614B015C0160912E02FE
:102C900070912F02882777FD8095982F0E949D6163
:102CA0006B017C01A501940169A17AA18BA19CA172
:102CB0000E949B600E946A616D837E838F839887E8
:102CC000A70196016D8D7E8D8F8D98A10E949B60CE
:102CD0000E946A612B013C01A50194016D897E89E6
:102CE0008F89988D0E949B600E946A614B015C01F4
:102CF000A701960169897A898B899C890E949B60CA
:102D00000E946A610D811E819201A4018BE194E011
:102D10000E94024F60912C0270912D02882777FD4E
:102D20008095982F0E949D616B017C0160912E021D
:102D300070912F02882777FD8095982F0E949D61C2
:102D40004B015C01A70196016D857E858F85988971
:102D50000E949B600E946A612B013C01A5019401C5
:102D600069817A818B819C810E949B600E946A614B
:102D700069837A838B839C83A701960169A17AA1D9
:102D80008BA19CA10E949B600E946A616B017C01E7
:102D9000A50194016D8D7E8D8F8D98A10E949B6001
:102DA0000E946A61820129813A81A6018BE194E047
:102DB0000E94024F20E04FEF6FEF8BE194E00E9402
:102DC000924B2EE1229DC001239D900D11246DA0F8
:102DD0007EA077FE03C0FFEF6F1A7F0A7594679499
:102DE000680E791EB301625F7E4F882777FD80955C
:102DF000982F0E949D6129E23CE54FE85CE30E9428
:102E000062626B017C010E94FF604B015C0120E06B
:102E100030E040E752E40E94626269837A838B83E8
:102E20009C83C701B6010E94C5626B017C0120E052
:102E300030E040E752E40E9462626D877E878F87B0
:102E4000988B20E030E040EA50E4C501B4010E94D4
:102E50006262698B7A8B8B8B9C8B20E030E040EA3E
:102E600050E4C701B6010E9462626D8B7E8B8F8B2E
:102E7000988FB3016D5E7E4F882777FD8095982FE0
:102E80000E949D6129E23CE54FE85CE30E9462629A
:102E90006B017C010E94FF6020E030E040EA51E4D9
:102EA0000E9462626D837E838F839887C701B6011B
:102EB0000E94C56220E030E040EA51E40E94626274
:102EC000698F7A8F8B8F9C8FB301675F7E4F8827C6
:102ED00077FD8095982F0E949D6129E23CE54FE89F
:102EE0005CE30E9462626B017C010E94FF6020E053
:102EF00030E040EA51E40E9462626D8F7E8F8F8FD6
:102F000098A3C701B6010E94C56220E030E040EA04
:102F100051E40E94626269A37AA38BA39CA360918F
:102F20002C0270912D02882777FD8095982F0E94A2
:102F30009D614B015C0160912E0270912F028827E8
:102F400077FD8095982F0E949D616B017C01A50102
:102F50009401698D7A8D8B8D9C8D0E949B600E945F
:102F60006A6169877A878B879C87A70196016D8143
:102F70007E818F8198850E949B600E946A612B01EF
:102F80003C01A50194016D857E858F8598890E94FD
:102F90009B600E946A614B015C01A70196016981F7
:102FA0007A818B819C810E949B600E946A61098565
:102FB0001A859201A4018BE194E00E94024F609176
:102FC0002C0270912D02882777FD8095982F0E9402
:102FD0009D614B015C0160912E0270912F02882748
:102FE00077FD8095982F0E949D616B017C01A50162
:102FF00094016D897E898F89988D0E949B600E94C3
:103000006A6169877A878B879C87A701960169899E
:103010007A898B899C890E949B600E946A612B013E
:103020003C01A5019401698D7A8D8B8D9C8D0E9448
:103030009B600E946A614B015C01A70196016D8152
:103040007E818F8198850E949B600E946A610985BC
:103050001A859201A4018BE194E00E94024F6091D5
:103060002C0270912D02882777FD8095982F0E9461
:103070009D614B015C0160912E0270912F028827A7
:1030800077FD8095982F0E949D616B017C01A501C1
:10309000940169A17AA18BA19CA10E949B600E94CE
:1030A0006A616D837E838F839887A70196016D8DFA
:1030B0007E8D8F8D98A10E949B600E946A612B017A
:1030C0003C01A50194016D897E898F89988D0E94AC
:1030D0009B600E946A614B015C01A70196016989AE
:1030E0007A898B899C890E949B600E946A610D810C
:1030F0001E819201A4018BE194E00E94024F609135
:103100002C0270912D02882777FD8095982F0E94C0
:103110009D614B015C0160912E0270912F02882706
:1031200077FD8095982F0E949D616B017C01A50120
:1031300094016D857E858F8598890E949B600E9491
:103140006A612B013C01A701960169817A818B811B
:103150009C810E949B600E946A6169837A838B8351
:103160009C83A501940169A17AA18BA19CA10E94D5
:103170009B600E946A614B015C01A70196016D8D05
:103180007E8D8F8D98A10E949B600E946A61820152
:1031900029813A81A4018BE194E00E94024FA69616
:1031A0000FB6F894DEBF0FBECDBFDF91CF911F9158
:1031B0000F91FF90EF90DF90CF90BF90AF909F90D6
:1031C0008F907F906F905F904F903F902F900895D9
:1031D0000F931F932FEF4FEF6FEF8BE194E00E945F
:1031E000924B01E510E028E331E048E050E068EF61
:1031F00070E08BE194E00E94104E1F910F910895B2
:10320000803191059CF040979C0144E036952795CC
:103210004A95E1F78F7099272F5F3F4F6AE0629FD1
:10322000A001639F500D1124840F951F089526E07F
:1032300040E052EC61E070E085E195E00E948B5E39
:103240008CE494E00E9403590E948F26811107C0EC
:1032500060E373E085E195E00E94E45FFFCF61E009
:103260008BE194E00E94242F8BE194E00E94F24ACB
:1032700066EA71E08BE194E00E94665561E08FEEB2
:1032800093E00E948C5563E08FEE93E00E945B58C0
:103290002FEF4FEF6FEF8BE194E00E94924B20E015
:1032A00040E060E08BE194E00C94A64B2F923F92BB
:1032B0004F925F926F927F928F929F92AF92BF9246
:1032C000CF92DF92EF92FF920F931F93CF93DF93F2
:1032D000CDB7DEB728970FB6F894DEBF0FBECDBFCF
:1032E0007C016B0120E840E460E48BE194E00E9403
:1032F000924B560129E1A20EB11C470130E2830E28
:10330000911C85019401A601B7018BE194E00E9414
:10331000484C2FEF4FEF6FEF8BE194E00E94924B00
:103320009401A601B7018BE194E00E945E4D2FEF5E
:1033300040E860E88BE194E00E94924B18861F827F
:10334000C60144969E838D8327019BE1490E511C43
:10335000662457FC6094762CE6E0EE0EF11C4701E3
:10336000AA2497FCA094BA2C2F813885B90188270C
:1033700077FD8095982F0E949D6120E030E040EC21
:103380005FE30E9402616B017C012D803E808F8192
:103390009885281A390AC301B2010E949D61A701CC
:1033A00096010E949A600E946A6169837A838B8386
:1033B0009C83C501B4010E949D61A70196010E94F2
:1033C0009B600E946A61810129813A81A1018BE1A0
:1033D00094E00E94024FEF81F8853196F887EF83E1
:1033E0003F9711F628960FB6F894DEBF0FBECDBFFB
:1033F000DF91CF911F910F91FF90EF90DF90CF90D1
:10340000BF90AF909F908F907F906F905F904F9004
:103410003F902F9008952F923F924F925F926F921C
:103420007F928F929F92AF92BF92CF92DF92EF9254
:10343000FF920F931F93CF93DF93CDB7DEB72897FB
:103440000FB6F894DEBF0FBECDBF7C016B0120E844
:1034500040E460E48BE194E00E94924B560129E144
:10346000A20EB11C470130E2830E911C850194012C
:10347000A601B7018BE194E00E94484C2FEF4FEF7B
:103480006FEF8BE194E00E94924B9401A601B7018B
:103490008BE194E00E945E4D2FEF40E860E88BE105
:1034A00094E00E94924B18861F82C60105969E8367
:1034B0008D8327019BE1490E511C662457FC6094C3
:1034C000762CE6E0EE0EF11C4701AA2497FCA094AE
:1034D000BA2C2F813885B901882777FD8095982FE0
:1034E0000E949D6120E030E040EC5FE30E940261B9
:1034F0006B017C012D803E808F819885280E391EBE
:10350000C301B2010E949D61A70196010E949A60C9
:103510000E946A6169837A838B839C83C501B401AD
:103520000E949D61A70196010E949B600E946A61B2
:10353000810129813A81A1018BE194E00E94024F2F
:10354000EF81F8853196F887EF833F9711F628963B
:103550000FB6F894DEBF0FBECDBFDF91CF911F91A4
:103560000F91FF90EF90DF90CF90BF90AF909F9022
:103570008F907F906F905F904F903F902F90089525
:103580000F931F93CF93DF93CDB7DEB764970FB63A
:10359000F894DEBF0FBECDBF182F8EE0E5E3F2E05A
:1035A000DE01119601900D928A95E1F72FEF40E828
:1035B00060E88BE194E00E94924B20E040E060E004
:1035C0008BE194E00E94A64BFE013196E10FF11DC4
:1035D000E10FF11D329760817181CE010F960E943B
:1035E0005B6000E010E027EA30E04AE150E0BE0115
:1035F000615F7F4F8BE194E00E942754CE010F96CC
:103600000E94F45F64960FB6F894DEBF0FBECDBF84
:10361000DF91CF911F910F9108958A30910554F059
:1036200020E030E00A97205F3F4F8A309105D4F7C1
:10363000820F931F0895CF93DF93CDB7DEB72C97FA
:103640000FB6F894DEBF0FBECDBF9CE0E3E4F2E01E
:10365000DE01119601900D929A95E1F7623091F496
:1036600043705527452B31F48E3131F081111EC046
:103670008DE11CC08D3111F481E018C0811116C09C
:103680008CE114C070E0811105C0FE01E60FF71F48
:1036900080810CC0482F50E0FE01E60FF71F20810B
:1036A00030E02F5F3F4F4217530731F32C960FB690
:1036B000F894DEBF0FBECDBFDF91CF910895CF92BA
:1036C000DF92EF92FF920F931F93CF93DF93CDB7CB
:1036D000DEB72C970FB6F894DEBF0FBECDBF9CE0CF
:1036E000E3E4F2E0DE01119601900D929A95E1F784
:1036F000623071F443705527452B29F48E31D0F197
:10370000BDE1DB2E0CC08D31A8F1ACE1DA2E07C093
:10371000FE01E60FF11DD080D81698F02BC04D2D7C
:1037200050E060E070E010E2C12EE12CF12C0CE8DA
:1037300010E02AE730E08BE194E00E946D548D2D7B
:1037400019C089E08D1558F300E2C02EE12CF12C50
:103750000CE810E02AE730E040E050E0BA018BE1ED
:1037600094E00E946D544D2D50E060E070E02AE836
:1037700030E0E1CF2C960FB6F894DEBF0FBECDBF80
:10378000DF91CF911F910F91FF90EF90DF90CF903D
:103790000895EF92FF920F931F93CF93DF93CDB7CE
:1037A000DEB72C970FB6F894DEBF0FBECDBFE82E64
:1037B000F62E8A018CE0EFE4F2E0DE011196019032
:1037C0000D928A95E1F7CA0164E670E00E943263C7
:1037D000BC01882777FD8095982F0E949D6120E08D
:1037E00030E040EA5FE30E9462620E946A612E2D2F
:1037F00030E0260F371FFE01EF0DF11D8081280FED
:10380000311D03701127012B29F482E08F1510F070
:1038100021503109283031051CF027503109FACFE9
:10382000822F2C960FB6F894DEBF0FBECDBFDF916E
:10383000CF911F910F91FF90EF9008958FEE93E03D
:103840000E942557882329F08FEE93E00E94295685
:10385000F5CF0895AF92BF92CF92DF92EF92FF9291
:103860000F931F93CF93DF93EC017B0120E040E0A7
:103870006FEF8BE194E00E94924B570189E1A80E13
:10388000B11C6E0180E2C80ED11C85019601A70112
:10389000BE018BE194E00E945E4DD0DF2FEF4FEF31
:1038A0006FEF8BE194E00E94924B9601A701BE015D
:1038B0008BE194E00E945E4DDF91CF911F910F91BB
:1038C000FF90EF90DF90CF90BF90AF900895CF9290
:1038D000DF92EF92FF920F931F93C12CD12C89E2BC
:1038E000E82EF12C08E210E027E230E046E250E05A
:1038F00064E18BE194E00E948C2B92E0E92E03E0DE
:1039000024E045E066E08FEE93E00E9481551F9130
:103910000F91FF90EF90DF90CF90089568E670E0F0
:103920008CE494E00E94165960E070E08CE494E02E
:103930000E94870E8CE494E00E94885947E050E092
:1039400068E670E08CE494E00E9486598CE494E090
:103950000E94765855DC8093EE038CE494E00E943C
:1039600076584EDC8093ED038CE494E00E94765808
:1039700047DC8093EC038CE494E00E9476588093BB
:1039800034028CE494E00E9476583ADC809333024F
:103990008CE494E00E94765833DC809332028CE40D
:1039A00094E00E9476582CDC8053984F909331021B
:1039B000809330026AE070E080E090E00C940C5C50
:1039C000EF92FF920F931F93CF93DF938BE194E0DD
:1039D0000E94F24A2FEF40E060E08BE194E00E9409
:1039E000924B20E040E060E08BE194E00E94A64B27
:1039F000C7E7D0E040912C0250912D0260912E0239
:103A000070912F029E018BE194E00E9494492197CE
:103A1000C237D10579F7C0E0D0E040912C02509137
:103A20002D0260912E0270912F029E018BE194E095
:103A30000E9494492196C530D10579F72FEF40ECCB
:103A400060EC8BE194E00E94924B20912C0230912B
:103A50002D022850310940912E0250912F02445AD4
:103A60005F4F00E010E067E573E08BE194E00E94B7
:103A70007E5320912C0230912D02215A3F4F4091CC
:103A80002E0250912F024850510969E573E08BE1F5
:103A900094E00E947E5320912C0230912D022850F8
:103AA000310940912E0250912F024D5651096BE57C
:103AB00073E08BE194E00E947E5320912C023091C0
:103AC0002D022D56310940912E0250912F02405166
:103AD00051096DE573E08BE194E00E947E53C0E0F4
:103AE000D0E003E010E0CE01B8010E943263892BE0
:103AF00019F0CE010E948E0E2196CC30D10599F797
:103B00000DDF8091ED0390E00E94A5106091ED0320
:103B100070E08091EC0390E00E94B6148091EE0377
:103B200090E00E94480F8091EE0390E09093EB03A9
:103B30008093EA032FEF4FEF6FEF8BE194E00E9449
:103B4000924B05E510E02FE331E040E050E060EFFC
:103B500070E08BE194E00E94484C20E040E060E09F
:103B60008BE194E00E94924BC9EFD0E09E0121507E
:103B7000310903E010E040E050E0BE018BE194E049
:103B80000E94024F7E018FEFE81AF80A9E0140E082
:103B900050E0B7018BE194E00E94024FBE016E5FDE
:103BA0007F4F970140E050E08BE194E00E94024F8C
:103BB0002A96CF3381E0D807C9F620E840E460E4D4
:103BC0008BE194E00E94924B0FEE10E02FE331E086
:103BD00048EC50E064E071E08BE194E00E94484CD6
:103BE0002FEF4FEF6FEF8BE194E00E94924B2FE3AA
:103BF00031E048EC50E064E071E08BE194E00E9439
:103C00005E4D20E840E460E48BE194E00E94A64B26
:103C100000E010E024ED30E04AE051E060E673E0BF
:103C20008BE194E00E947E5320E040E060E08BE175
:103C300094E00E94A64B20E840E460E48BE194E02D
:103C40000E94924B04EB10E02FE331E04CE850E08F
:103C500064E071E08BE194E00E94484C2FEF4FEF5D
:103C60006FEF8BE194E00E94924B2FE331E04CE840
:103C700050E064E071E08BE194E00E945E4D20E84A
:103C800040E460E48BE194E00E94A64B00E010E089
:103C900026E930E04AE051E064E673E08BE194E02D
:103CA0000E947E5320E040E060E08BE194E0DF91F1
:103CB000CF911F910F91FF90EF900C94A64BCF9254
:103CC000EF92FF920F931F93CF93DF9300D000D01A
:103CD000CDB7DEB723DE66EA71E08BE194E00E94A7
:103CE000665520E040E060E08BE194E00E94924B5A
:103CF0002FEF4FEF6FEF8BE194E00E94A64BE09126
:103D00003402F0E0EE0FFF1FE45EFD4F6081718131
:103D1000CE0101960E945B6000E010E028E030E0F8
:103D200040E051E0BE016F5F7F4F8BE194E00E9465
:103D30002754CE0101960E94F45F80913302482FF0
:103D400050E060E070E0E0E2CE2EE12CF12C0CE1DE
:103D500010E08A3018F420E131E002C028E031E0C0
:103D60008BE194E00E946D54E0913202F0E0EE0F9E
:103D7000FF1FEC5FFD4F60817181CE0101960E94B3
:103D80005B6000E010E020E330E040E051E0BE0185
:103D90006F5F7F4F8BE194E00E942754CE01019624
:103DA0000E94F45F409130025091310260E070E077
:103DB00030E2C32EE12CF12C01E410E028EF30E0DA
:103DC0008BE194E00E946D5426960FB6F894DEBF06
:103DD0000FBECDBFDF91CF911F910F91FF90EF905C
:103DE000CF9008952F923F924F925F926F927F9261
:103DF0008F929F92AF92BF92CF92DF92EF92FF92FB
:103E00000F931F93CF93DF93CDB7DEB729970FB6EC
:103E1000F894DEBF0FBECDBF11DD8BE194E00E94B0
:103E2000F24A66EA71E08BE194E00E94665520E870
:103E300040E460E48BE194E00E94924B0FEE10E0CE
:103E40002FE331E048EC50E065EA70E08BE194E06C
:103E50000E94484C2FEF4FEF6FEF8BE194E00E94F0
:103E6000924B2FE331E048EC50E065EA70E08BE1E3
:103E700094E00E945E4D20E840E460E48BE194E031
:103E80000E94A64B00E010E024ED30E042ED50E04F
:103E900068E673E08BE194E00E947E5320E040E00E
:103EA00060E08BE194E00E94A64B20E840E460E4EF
:103EB0008BE194E00E94924B0FEE10E02AE930E093
:103EC00048EC50E060E070E08BE194E00E94484CE8
:103ED0002FEF4FEF6FEF8BE194E00E94924B2AE9B6
:103EE00030E048EC50E060E070E08BE194E00E944C
:103EF0005E4D20E840E460E48BE194E00E94A64B34
:103F000000E010E024ED30E04DE150E06DE673E0BC
:103F10008BE194E00E947E5320E040E060E08BE182
:103F200094E00E94A64B2FEF40E060E08BE194E02C
:103F30000E94924B00E610E02FE331E040E050E0B9
:103F400060E070E08BE194E00E945E4D04EC10E0D4
:103F50002FE331E044E650E060E070E08BE194E074
:103F60000E945E4D00E010E028E230E04AE050E0C0
:103F700064E773E08BE194E00E947E5328E230E036
:103F80004AE950E068E773E08BE194E00E947E53D9
:103F900028E230E04AEC50E068E773E08BE194E01F
:103FA0000E947E532CE830E04AE050E06AE773E07C
:103FB0008BE194E00E947E532CE830E04AE950E027
:103FC00060E873E08BE194E00E947E532CE830E0DF
:103FD0004AEC50E060E873E08BE194E00E947E538D
:103FE0006AE070E08AE790E061D96AE070E08AEA0E
:103FF00090E05CD96AE070E08AED90E057D96DE31B
:1040000070E08AE790E007DA6DE370E08AEA90E01A
:1040100002DA6DE370E08AED90E0FDD96EE670E0C3
:104020008AE790E043D96EE670E08AEA90E03ED9F4
:104030006EE670E08AEE90E039D961EA70E08AE7D6
:1040400090E0E9D961EA70E08AEA90E0E4D961EAB7
:1040500070E08AEE90E0DFD92FEF4FEF6FEF8BE14A
:1040600094E00E94924B5ADC20903302222D30E0E3
:104070003A832983A091320250913002309131026B
:10408000209134024091EC039091ED038091EE0376
:1040900069817A81672BC1F0EA2FF0E0F987E88720
:1040A000A52EB32E622F70E07F836E83842E912C19
:1040B000292E312CE82FF0E0FC83EB83FAE08F16F9
:1040C0009104ACF5D12C18C0DD24D394AAEDAA2E0E
:1040D000A7E0BA2E21E030E03987288761E070E060
:1040E0007A83698385E090E09F838E83812C912C75
:1040F000212C312C1C821B82F0E2CF2EE12CF12CE2
:1041000008E210E02AE730E040E050E0BA018BE13D
:1041100094E00E946D542AE830E0A401662757FD20
:104120006095762F8BE194E00E946D5410C050E0B2
:1041300060E070E0E0E2CE2EE12CF12C08E210E02D
:104140002AE730E08BE194E00E946D54D12C2101EC
:10415000662457FC6094762C60E2C62EE12CF12C8C
:1041600008E210E02AEA30E09AE0291631044CF423
:1041700040E050E0BA018BE194E00E946D542AEBDC
:1041800030E0B301A2018BE194E00E946D54EB8119
:10419000FC812F01662457FC6094762C50E2C52EDA
:1041A000E12CF12C08E210E02AED30E03A974CF4D3
:1041B00040E050E0BA018BE194E00E946D542AEE99
:1041C00030E0B301A2018BE194E00E946D5429819B
:1041D0003A812901662457FC6094762C40E2C42E73
:1041E000E12CF12C0CE810E02A30310564F42AE7C8
:1041F00030E040E050E0BA018BE194E00E946D5461
:104200002AE830E002C02AE730E0B301A2018BE1E6
:1042100094E00E946D54688579852B01662457FCD3
:104220006094762C30E2C32EE12CF12C0CE810E0E7
:104230002AEA30E06A3071054CF440E050E0BA01FF
:104240008BE194E00E946D542AEB30E0B301A201AF
:104250008BE194E00E946D5420E2C22EE12CF12CFF
:104260000CE810E02AED30E0A501662757FD6095C7
:10427000762F8BE194E00E946D548E8181D9DD828E
:104280008FEE93E00E9425578823D1F38FEE93E0C1
:104290000E9429568FEE93E00E943C573C018FEE1E
:1042A00093E00E94D2572C010A974A9708F040C128
:1042B000C3018A579109819708F062C06AE070E0F3
:1042C0008AE790E0C7DA7FEF871A970A88E18816B5
:1042D000910429F09AE089169104ACF402C0812C73
:1042E000912C90E2C92EE12CF12C08E210E02AE793
:1042F00030E040E050E0BA018BE194E00E946D5460
:104300002AE830E008C080E2C82EE12CF12C08E257
:1043100010E02AE730E0A401662757FD6095762F6C
:104320008BE194E00E946D54ED81E11146C220E8DA
:1043300040E460E48BE194E00E94924B6AEA73E10E
:104340008BE194E00E94665500E010E02AE030E046
:104350004AE050E062E873E08BE194E00E947E5313
:104360002FEF4FEF6FEF8BE194E00E94924B66EAE4
:1043700071E08BE194E00E946655F1E0FD831DC27F
:10438000C3018A5A9109819708F062C06AE070E01F
:104390008AEA90E05FDA2FEF221A320A3CE3231612
:1043A000310429F06AE026163104ACF402C0212C55
:1043B000312C00E2C02EE12CF12C08E210E02AEAB8
:1043C00030E040E050E0BA018BE194E00E946D548F
:1043D0002AEB30E008C010E2C12EE12CF12C08E2FB
:1043E00010E02AEA30E0A101662757FD6095762F9C
:1043F0008BE194E00E946D547D817111DEC120E853
:1044000040E460E48BE194E00E94924B6AEA73E13D
:104410008BE194E00E94665500E010E02AE030E075
:104420004AE050E062E873E08BE194E00E947E5342
:104430002FEF4FEF6FEF8BE194E00E94924B66EA13
:1044400071E08BE194E00E94665581E08D83B5C1F7
:10445000C3018A5D9109819708F0AFC16AE070E0FD
:104460008AED90E0F7D9EB81FC813196FC83EB83F8
:10447000EC33F10519F03A97E4F402C01C821B8278
:10448000B0E2CB2EE12CF12C08E210E02AED30E076
:1044900040E050E0BA018BE194E00E946D542AEEB6
:1044A00030E08B819C81AC01662757FD6095762FAB
:1044B0000FC0A0E2CA2EE12CF12C08E210E02AED98
:1044C00030E0EB81FC81AF01662757FD6095762FC8
:1044D0008BE194E00E946D54FD81F1116EC120E8E2
:1044E00040E460E48BE194E00E94924B6AEA73E15D
:1044F0008BE194E00E94665500E010E02AE030E095
:104500004AE050E062E873E08BE194E00E947E5361
:104510002FEF4FEF6FEF8BE194E00E94924B66EA32
:1045200071E08BE194E00E94665521E02D8345C146
:10453000C201CD974A9708F040C1C3018A5791093B
:10454000819708F062C06DE370E08AE790E082D95D
:1045500031E0831A91086FEF86169104B1F07AE08A
:1045600087169104ACF4F0E2CF2EE12CF12C08E296
:1045700010E02AE730E040E050E0BA018BE194E03F
:104580000E946D542AE830E00BC0E7E18E2E912C9A
:1045900070E2C72EE12CF12C08E210E02AE730E0AF
:1045A000A401662757FD6095762F8BE194E00E9469
:1045B0006D548D81811101C120E840E460E48BE1FC
:1045C00094E00E94924B6AEA73E18BE194E00E94CE
:1045D000665500E010E02AE030E04AE050E062E892
:1045E00073E08BE194E00E947E532FEF4FEF6FEF6B
:1045F0008BE194E00E94924B66EA71E08BE194E0DB
:104600000E94665591E09D83D8C0C3018A5A9109E2
:10461000819708F062C06DE370E08AEA90E01AD9F1
:10462000E1E02E1A3108FFEF2F163104B1F02AE035
:1046300022163104ACF460E2C62EE12CF12C08E223
:1046400010E02AEA30E040E050E0BA018BE194E06B
:104650000E946D542AEB30E00BC05BE3252E312C19
:1046600040E2C42EE12CF12C08E210E02AEA30E00E
:10467000A101662757FD6095762F8BE194E00E949B
:104680006D543D81311199C020E840E460E48BE134
:1046900094E00E94924B6AEA73E18BE194E00E94FD
:1046A000665500E010E02AE030E04AE050E062E8C1
:1046B00073E08BE194E00E947E532FEF4FEF6FEF9A
:1046C0008BE194E00E94924B66EA71E08BE194E00A
:1046D0000E94665561E06D8370C0C3018A5D9109D7
:1046E000819708F06AC06DE370E08AED90E0B2D87F
:1046F0008B819C8101979C838B838F3F9105D9F09F
:104700000A97ECF430E2C32EE12CF12C08E210E021
:104710002AED30E040E050E0BA018BE194E00E94E5
:104720006D542AEE30E0EB81FC81AF01662757FD26
:104730006095762F13C02BE330E03C832B8320E27F
:10474000C22EE12CF12C08E210E02AED30E08B8142
:104750009C81AC01662757FD6095762F8BE194E034
:104760000E946D549D81911128C020E840E460E4CE
:104770008BE194E00E94924B6AEA73E18BE194E052
:104780000E94665500E010E02AE030E04AE050E088
:1047900062E873E08BE194E00E947E532FEF4FEFCD
:1047A0006FEF8BE194E00E94924B66EA71E08BE13F
:1047B00094E00E946655E1E0ED83C2018E569109B6
:1047C0004A9708F066C0C3018A579109819740F55E
:1047D0006EE670E08AE790E03DD8A50168858981A2
:1047E0008F5F0E941B1B282F30E03A832983482EBD
:1047F000512C612C712C90E2C92EE12CF12C0CE88B
:1048000010E02A3031051CF42AE730E06DC02AE7B9
:1048100030E0B301A2018BE194E00E946D54E3C04B
:10482000C3018A5A91098197C0F46EE670E08AEA62
:1048300090E010D8688579856F5F7F4F79876887AA
:104840006D30710529F06A3071050CF088C06AC0BE
:1048500081E090E09987888765C0FAEE6F1A710849
:1048600021E26216710408F0E8C06EE670E08AEE9C
:1048700090E00E942A1C3FEFA31AB30A64E3A61635
:1048800068E0B60609F095C080EDA82E87E0B82E46
:1048900090C0C201815A91094A9708F0DAC0C30159
:1048A0008A579109819750F561EA70E08AE790E0B4
:1048B0000E942A1CA5016885898181500E941B1BCA
:1048C000682F70E07A836983482E512C612C712CFB
:1048D00000E2C02EE12CF12C0CE810E02AE730E0D9
:1048E0006A3071050CF095CF40E050E0BA018BE1E1
:1048F00094E00E946D542AE830E08BCFC3018A5ABD
:1049000091098197E0F561EA70E08AEA90E00E94FF
:104910002A1C888599850197998788870097D9F0FF
:104920000A97ECF410E2C12EE12CF12C0CE810E017
:104930002AEA30E040E050E0BA018BE194E00E94C6
:104940006D542AEB30E0E885F985AF01662757FD05
:104950006095762F3BC02CE030E039872887B0E2A5
:10496000CB2EE12CF12C0CE810E02AEA30E088850F
:104970009985AC01662757FD6095762F27C0FAEE22
:104980006F1A710821E26216710408F056C061EADC
:1049900070E08AEE90E00E942A1C31E0A31AB10870
:1049A0006FECA61667E0B60621F4A3E3AA2EA8E0F2
:1049B000BA2EF0E2CF2EE12CF12C0CE810E02AED1B
:1049C00030E0A501662757FD6095762F8BE194E0D6
:1049D0000E946D54A501688589810E945F1BE82FA4
:1049E000F0E0FA83E983D11028C020E840E460E4D5
:1049F0008BE194E00E94924B6AEA73E18BE194E0D0
:104A00000E94665500E010E02EE630E04AE050E0FB
:104A100062E873E08BE194E00E947E532FEF4FEF4A
:104A20006FEF8BE194E00E94924B66EA71E08BE1BC
:104A300094E00E946655DD24D394A50168858981A0
:104A40000E94C91B282F30E03F832E830E94C01A8A
:104A50003DC038EC431A510868E246165104B0F5DF
:104A6000C301855A91098B399105B0F420E040E0EB
:104A70006FEF8BE194E00E94924B0FEE10E02FE37A
:104A800031E048EC50E065EA70E08BE194E00E9490
:104A90005E4D01E010E01CC07BE967167104B0F4C4
:104AA00020E040E06FEF8BE194E00E94924B0FEE2C
:104AB00010E02AE930E048EC50E060E070E08BE183
:104AC00094E00E945E4D02E010E002C000E010E0C1
:104AD0000115110509F4D4CB0E941E1C01301105EB
:104AE00009F05AC08D81D82A09F456C068E670E0F2
:104AF0008CE494E00E94165960E070E08CE494E04D
:104B00000E94870E47E050E068E670E08CE494E095
:104B10000E9486598B819C810E940D1BBC018CE4F4
:104B200094E00E94870EC1010E940D1BBC018CE421
:104B300094E00E94870EC4010E940D1BBC018CE40E
:104B400094E00E94870E8E819F810E940D1BBC0104
:104B50008CE494E00E94870E89819A810E940D1B4B
:104B6000BC018CE494E00E94870E888599850E94A0
:104B70000D1BBC018CE494E00E94870EC501805D92
:104B800097400E940D1BBC018CE494E00E94870EAC
:104B90008CE494E00E9488590E94E01C29960FB68C
:104BA000F894DEBF0FBECDBFDF91CF911F910F9163
:104BB000FF90EF90DF90CF90BF90AF909F908F903D
:104BC0007F906F905F904F903F902F9078C8EF92BA
:104BD000FF920F931F93CF93DF930E94E01C6FD837
:104BE0000E948E1C4091EE03842F90E02091EA03F6
:104BF0003091EB032817390751F141110BC0809117
:104C0000ED03811107C08091EC03811103C00E9464
:104C1000E81855D88091EE0381110DC08091ED0305
:104C200090E00E94A5106091ED0370E08091EC038C
:104C300090E00E94B6148091EE0390E00E94480F2D
:104C40008091EE0390E09093EB038093EA038FEE64
:104C500093E00E942557882309F459C08FEE93E012
:104C60000E9429568FEE93E00E943C57EC018FEE94
:104C700093E00E94D2577C01885C91098897C8F420
:104C8000CE0184509140CC97A0F420E040E06FEF3B
:104C90008BE194E00E94924B0FEE10E02FE331E0A5
:104CA00048EC50E064E071E08BE194E00E945E4DDE
:104CB00099D88CE8E81AF10889E2E816F10438F589
:104CC000C450D140EC9718F520E040E06FEF8BE145
:104CD00094E00E94924B04EB10E02FE331E04CE8AB
:104CE00050E064E071E08BE194E00E945E4D8BE166
:104CF00094E00E94F24A66EA71E08BE194E0DF9171
:104D0000CF911F910F91FF90EF900C9466556AE040
:104D100070E080E090E00E940C5C62CF58CF81E0B0
:104D20000895FC01283009F4FAC018F4213041F04C
:104D30000895203109F403C1213109F40EC1089509
:104D400087858430C9F4A08DB18D82A19C9161309A
:104D500019F4982B9C9303C0809589238C93A28D82
:104D6000B38D9C9183A1809589238C93A28DB38D63
:104D70008C9193A1892B0BC0A089B189868D9C91C0
:104D8000613019F4982B9C9303C0809589238C93F0
:104D9000A08DB18D82A19C9147FF03C0982B9C935D
:104DA00003C0809589238C93A28DB38D9C9183A1A0
:104DB000809589238C93A28DB38D8C9193A1892B9F
:104DC0008C93A08DB18D82A19C9146FF03C0982B3E
:104DD0009C9303C0809589238C93A28DB38D9C9165
:104DE00083A1809589238C93A28DB38D8C9193A1FF
:104DF000892B8C93A08DB18D82A19C9145FF03C01E
:104E0000982B9C9303C0809589238C93A28DB38D9E
:104E10009C9183A1809589238C93A28DB38D8C91D5
:104E200093A1892B8C93A08DB18D82A19C9144FF7D
:104E300003C0982B9C9303C0809589238C93A28DEB
:104E4000B38D9C9183A1809589238C93A28DB38D82
:104E50008C9193A1892B8C93A08DB18D82A19C9173
:104E600043FF03C0982B9C9303C0809589238C93A8
:104E7000A28DB38D9C9183A1809589238C93A28D63
:104E8000B38D8C9193A1892B8C93A08DB18D82A130
:104E90009C9142FF03C0982B9C9303C0809589236B
:104EA0008C93A28DB38D9C9183A1809589238C9343
:104EB000A28DB38D8C9193A1892B8C93A08DB18DF4
:104EC00082A19C9141FF03C0982B9C9303C08095C5
:104ED00089238C93A28DB38D9C9183A18095892386
:104EE0008C93A28DB38D8C9193A1892B8C93A08DE3
:104EF000B18D82A19C9140FF03C0982B9C9303C06D
:104F0000809589238C93A28DB38D9C9183A18095EC
:104F100089238C93A28DB38D8C9193A1AEC062B97D
:104F2000A289B3899C91878D809589238C93A289CE
:104F3000B3898C91978D892B8C9342B902C062B949
:104F400048B9A289B3899C91878D809589238C93D8
:104F5000A289B3898C91978D90C0A59894B3862F20
:104F60008071880F892B84BB80910201877E80939A
:104F7000020120910201862F992787FD9095807C60
:104F8000992733E0959587953A95E1F7282B20935B
:104F900002018EB1847C8EB99EB1862F8C70880FF1
:104FA000880F262F2370820F6072772767FD709518
:104FB0007595679575956795860F892B8EB9A48D24
:104FC000B58D9C9184A1809589238C93A48DB58DFA
:104FD0008C9194A1892B8C93A48DB58D9C9184A1E7
:104FE000809589238C93A489B5899C9180A1809513
:104FF00089238C93A59894B3842F8071880F892B73
:1050000084BB80910201877E80930201209102017E
:10501000842F992787FD9095807C992763E095954B
:1050200087956A95E1F7282B209302018EB1847C45
:105030008EB99EB1842F8C70880F880F242F237017
:10504000820F4072552747FD5095559547955595C8
:105050004795840F892B8EB9A289B3899C91878D3E
:10506000809589238C93A289B3898C91978D892B04
:105070008C93A489B5898C9190A1892B8C930895E8
:10508000613131F08FEF81B9603149F487B908950A
:1050900088E18093010180E283BB8BE38DB90895A1
:1050A0008F929F92AF92BF92CF92DF92EF92FF9238
:1050B0000F931F93CF93DF93EC016801790162B9DD
:1050C00048B9C901B80120E130E040E050E00E9459
:1050D0006763812C912C540182169306A406B506B1
:1050E0000CF0D6C0EA89FB8990818F8D8095892349
:1050F0008083EA89FB8980819F8D892B8083EA895F
:10510000FB8990818F8D809589238083EA89FB8933
:1051100080819F8D892B8083EA89FB8990818F8D87
:10512000809589238083EA89FB8980819F8D892BE3
:105130008083EA89FB8990818F8D80958923808384
:10514000EA89FB8980819F8D892B8083EA89FB898D
:1051500090818F8D809589238083EA89FB89808166
:105160009F8D892B8083EA89FB8990818F8D809523
:1051700089238083EA89FB8980819F8D892B8083A5
:10518000EA89FB8990818F8D809589238083EA89C4
:10519000FB8980819F8D892B8083EA89FB8990819F
:1051A0008F8D809589238083EA89FB8980819F8DFB
:1051B000892B8083EA89FB8990818F8D8095892353
:1051C0008083EA89FB8980819F8D892B8083EA898E
:1051D000FB8990818F8D809589238083EA89FB8963
:1051E00080819F8D892B8083EA89FB8990818F8DB7
:1051F000809589238083EA89FB8980819F8D892B13
:105200008083EA89FB8990818F8D809589238083B3
:10521000EA89FB8980819F8D892B8083EA89FB89BC
:1052200090818F8D809589238083EA89FB89808195
:105230009F8D892B8083EA89FB8990818F8D809552
:1052400089238083EA89FB8980819F8D892B8083D4
:10525000EA89FB8990818F8D809589238083EA89F3
:10526000FB8980819F8D892B8083EA89FB899081CE
:105270008F8D809589238083EA89FB8980819F8D2A
:10528000892B80838FEF881A980AA80AB80A24CF3E
:10529000B701A6014F70552766277727452B462B68
:1052A000472B19F1C701B60120E130E040E050E0A2
:1052B0000E946763C12CD12C76016C157D058E058B
:1052C0009F059CF0EA89FB8930812F8D209523234F
:1052D0002083EA89FB8920813F8D232B20832FEFB8
:1052E000C21AD20AE20AF20AE8CFDF91CF911F91E7
:1052F0000F91FF90EF90DF90CF90BF90AF909F9075
:105300008F9008958F929F92AF92BF92CF92DF922B
:10531000EF92FF92CF93DF93EC0169017A0162B9BA
:10532000CA01B90120E130E040E050E00E9467632B
:10533000812C912C540182169306A406B5060CF01C
:10534000A6C1EA89FB8990818F8D8095892380830E
:10535000EA89FB8980819F8D892B8083EA89FB897B
:1053600090818F8D809589238083EA89FB89808154
:105370009F8D892B8083EA89FB8990818F8D809511
:1053800089238083EA89FB8980819F8D892B808393
:10539000EA89FB8990818F8D809589238083EA89B2
:1053A000FB8980819F8D892B8083EA89FB8990818D
:1053B0008F8D809589238083EA89FB8980819F8DE9
:1053C000892B8083EA89FB8990818F8D8095892341
:1053D0008083EA89FB8980819F8D892B8083EA897C
:1053E000FB8990818F8D809589238083EA89FB8951
:1053F00080819F8D892B8083EA89FB8990818F8DA5
:10540000809589238083EA89FB8980819F8D892B00
:105410008083EA89FB8990818F8D809589238083A1
:10542000EA89FB8980819F8D892B8083EA89FB89AA
:1054300090818F8D809589238083EA89FB89808183
:105440009F8D892B8083EA89FB8990818F8D809540
:1054500089238083EA89FB8980819F8D892B8083C2
:10546000EA89FB8990818F8D809589238083EA89E1
:10547000FB8980819F8D892B8083EA89FB899081BC
:105480008F8D809589238083EA89FB8980819F8D18
:10549000892B8083EA89FB8990818F8D8095892370
:1054A0008083EA89FB8980819F8D892B8083EA89AB
:1054B000FB8990818F8D809589238083EA89FB8980
:1054C00080819F8D892B8083EA89FB8990818F8DD4
:1054D000809589238083EA89FB8980819F8D892B30
:1054E0008083EA89FB8990818F8D809589238083D1
:1054F000EA89FB8980819F8D892B8083EA89FB89DA
:1055000090818F8D809589238083EA89FB898081B2
:105510009F8D892B8083EA89FB8990818F8D80956F
:1055200089238083EA89FB8980819F8D892B8083F1
:10553000EA89FB8990818F8D809589238083EA8910
:10554000FB8980819F8D892B8083EA89FB899081EB
:105550008F8D809589238083EA89FB8980819F8D47
:10556000892B8083EA89FB8990818F8D809589239F
:105570008083EA89FB8980819F8D892B8083EA89DA
:10558000FB8990818F8D809589238083EA89FB89AF
:1055900080819F8D892B8083EA89FB8990818F8D03
:1055A000809589238083EA89FB8980819F8D892B5F
:1055B0008083EA89FB8990818F8D80958923808300
:1055C000EA89FB8980819F8D892B8083EA89FB8909
:1055D00090818F8D809589238083EA89FB898081E2
:1055E0009F8D892B8083EA89FB8990818F8D80959F
:1055F00089238083EA89FB8980819F8D892B808321
:10560000EA89FB8990818F8D809589238083EA893F
:10561000FB8980819F8D892B8083EA89FB8990811A
:105620008F8D809589238083EA89FB8980819F8D76
:10563000892B8083EA89FB8990818F8D80958923CE
:105640008083EA89FB8980819F8D892B8083EA8909
:10565000FB8990818F8D809589238083EA89FB89DE
:1056600080819F8D892B8083EA89FB8990818F8D32
:10567000809589238083EA89FB8980819F8D892B8E
:1056800080838FEF881A980AA80AB80A54CEB70107
:10569000A6014F70552766277727452B462B472BAA
:1056A00081F1C701B60120E130E040E050E00E9406
:1056B0006763C12CD12C76016C157D058E059F0585
:1056C00004F1EA89FB8930812F8D209523232083E3
:1056D000EA89FB8920813F8D232B2083EA89FB897E
:1056E00030812F8D209523232083EA89FB89208117
:1056F0003F8D232B20832FEFC21AD20AE20AF20A2F
:10570000DBCFDF91CF91FF90EF90DF90CF90BF90F4
:10571000AF909F908F9008954F925F926F927F927B
:10572000AF92BF92CF92DF92EF92FF920F931F93AF
:10573000CF93DF93CDB7DEB7C45AD1090FB6F89433
:10574000DEBF0FBECDBF5C0180E4EBE5F2E0DE0121
:10575000AF5BBF4F01900D928A95E1F780E4EBE9D2
:10576000F2E0DE01119601900D928A95E1F780E258
:10577000EBEDF2E0DE01AF57BF4F01900D928A953D
:10578000E1F7862F90E0FE01EF5BFF4FDC01AA0FEF
:10579000BB1FEA0FFB1F0190F081E02D2F01612C50
:1057A000712CF5014582568267827086E1E0F0E057
:1057B000EC0FFD1FAE0FBF1F4D905C90612C712C44
:1057C000D50119964D925D926D927C921C97E1E8FD
:1057D000F0E0EC0FFD1FE80FF91F80811E968C93FF
:1057E0001E971D966C931D9795964C93959796963C
:1057F0002C93969797960C9397979896EC929897E8
:105800009996CC929997843031F491E01E969C93AE
:105810001E971F968C93F5018685853019F491E0CB
:1058200096878787D5011E966C91613009F4BEC0BA
:10583000C501CD55DF4F2883C35AD040CC55DF4F2B
:105840003883C45AD040CF55DF4F4883C15AD04027
:10585000CE55DF4F5883C25AD04012DCCF55DF4FB0
:105860004881C15AD040842FCE55DF4F5881C25A4B
:10587000D040952FFC01E25FF34EE491F0E0EE0F93
:10588000FF1FE259F34E45915491F501518B408B26
:10589000FC01E853F44E8491D5015E968C93CD556E
:1058A000DF4F2881C35AD040822FCC55DF4F38813B
:1058B000C45AD040932FFC01E25FF34EE491F0E034
:1058C000EE0FFF1FE259F34E25913491F501338B12
:1058D000228BFC01E853F44E8491D5015F968C93A2
:1058E000C801F801E25FF34EE491F0E0EE0FFF1F14
:1058F000E259F34E25913491F501358B248BFC014F
:10590000E853F44E8491D50190968C93F701E25FB1
:10591000F34EE491F0E0EE0FFF1FE259F34E859154
:105920009491F501978B868BF701E853F44EE4913F
:10593000D5019196EC9391971E968C91813109F047
:10594000AEC0F601E25FF34EE491F0E0EE0FFF1F10
:10595000E259F34EA591B491F501B58FA48FF601EC
:10596000E853F44E8491F50184A39C91809598238B
:105970009C9361E088E00E94E65C60E088E0CC55A2
:10598000DF4F0FB6F894DEBF0FBECDBFDF91CF91D2
:105990001F910F91FF90EF90DF90CF90BF90AF904D
:1059A0007F906F905F904F900C941F5DCA01FA0139
:1059B000E25FF34EE491F0E0EE0FFF1FE259F34E89
:1059C00045915491D50159965C934E935897FC019B
:1059D000E853F44E8491F50182A3C901F901E25F15
:1059E000F34EE491F0E0EE0FFF1FE259F34E2591E4
:1059F0003491D5015B963C932E935A97FC01E85362
:105A0000F44E8491F50183A3F801E25FF34EE49133
:105A1000F0E0EE0FFF1FE259F34E25913491D501CE
:105A200055963C932E935497F801E853F44E849185
:105A3000F50180A3FFEFEF16F104B9F0F701E25F83
:105A4000F34EE491F0E0EE0FFF1FE259F34E859123
:105A50009491D50157969C938E935697F701E853EE
:105A6000F44EE491D5019196EC93F501878584304D
:105A7000B1F0F601E25FF34EE491F0E0EE0FFF1FAC
:105A8000E259F34E25913491D50151963C932E93D2
:105A90005097F601E853F44E8491F501868FCC556A
:105AA000DF4F0FB6F894DEBF0FBECDBFDF91CF91B1
:105AB0001F910F91FF90EF90DF90CF90BF90AF902C
:105AC0007F906F905F904F900895462FDC011E9657
:105AD0002C911E97213071F05096ED91FC915197C9
