:100000000C9459210C94AB5D0C94805D0C94555D5F
:100010000C942A5D0C94FF5C0C94D45C0C94A95C49
:100020000C947E5C0C948A210C948A210C948A2175
:100030000C948A210C948A210C948A210C942860B7
:100040000C948A210C948A210C948A210C948A2184
:100050000C948A210C948A210C948A210C94345C8F
:100060000C948A210C94345B0C940B5B0C948A21C5
:100070000C948A210C948A210C948A210C948A2154
:100080000C948A210C948A210C948A210C948A2144
:100090000C94E25A0C94B95A0C948A210C94F6717F
:1000A0000C948A210C948A210C948A210C948A2124
:1000B0000C948A210C948A210C948A210C948A2114
:1000C0000C948A210C948A210C948A210C94905AC5
:1000D0000C94675A0C948A210C943E5A0C94155A2D
:1000E0000C948A21E72149232F24FC240726072684
:1000F0001B275228312C23292F2A822A642D0E2EC9
:10010000812F812F2F245A305A302F24B22E823142
:10011000DE37DA37E837E437EE37F237EA38EA38ED
:10012000EA38EA38EA38EA38EA38EA38F8374F384D
:1001300044455C457945D745D745D7458B45EB4583
:100140004445EB45A745EB45B145B145C545C545DA
:100150007945D745D7457945B145EB455F59625952
:10016000515955595B59995966596A597059745979
:1001700078597E598259865999598C599059945970
:1001800005A84CCDB2D44EB93836A9020C50B9915D
:100190008688083CA6AAAA2ABE000000803F00402C
:1001A0007A10F35A00A0724E18090010A5D4E80086
:1001B00000E87648170000E40B54020000CA9A3B9E
:1001C000000000E1F5050000809698000000404224
:1001D0000F000000A08601000000102700000000B2
:1001E000E803000000006400000000000A000000B6
:1001F00000000100000000002C76D888DC674F0862
:1002000023DFC1DFAE59E1B1B796E5E3E453C63A67
:10021000E651997696E8E6C28426EB898C9B62EDDE
:10022000407C6FFCEFBC9C9F40F2BAA56FA5F49098
:10023000055A2AF75C936B6CF9676DC11BFCE0E40F
:100240000D47FEF520E6B500D0ED902E0300943565
:1002500077050080841E080000204E0A000000C8B8
:100260000C333333330F986E12831141EF8D211409
:10027000893BE65516CFFEE6DB18D1844B381BF7D9
:100280007C1D901DA4BBE424203284725E22810078
:10029000C9F124ECA1E53D2753797374656D20699C
:1002A0006E697469616C697A6174696F6E204F4B15
:1002B000212E00206973206E6F7420636F6E6E654F
:1002C00063746564004D50552D36303530207769A4
:1002D00074682061646472657373203078004672BC
:1002E000656552616D3A2000202A2A2A2A2A205365
:1002F000746172742073797374656D20202A2A2AC0
:100300002A2A002018205F000000000000000000E2
:1003100000000000000000000000000000000000DD
:1003200000000000000000000000000000000000CD
:1003300000000000000000000000000000000000BD
:1003400000000000000000000000000000000000AD
:10035000000000000000000000000000000000009D
:10036000000000000000000000000000000000008D
:10037000120000001F8000000DC000001EE0000001
:100380003330000061980000CCCC0000CC6C000140
:100390008036000302360007061B00018E1B00009A
:1003A000F61B0000061B0000061B0000061B0000D9
:1003B00007FB000007FB0000000000000000000039
:1003C000000000000000000000000007FFFE000722
:1003D000FFFF0006000300060003000606330006C8
:1003E0000633000600330006003300070033000325
:1003F00080330001C0330000FC3300007C33000078
:100400000C3F00000C1E00000C0000001BFC000054
:10041000192400001FFC0000000000000000000084
:1004200000000000000000000000000000000000CC
:1004300080040000EFDC0000FFFC0000D02C000076
:10044000C00C0001800600018006000300030003C9
:100450000CC300030CC300030003000303030001EB
:100460008A4600018FC60000E01C000070380000C2
:100470003FF000000FC0000000000000000000007E
:10048000000000000000000000000000000000006C
:10049000E01E0003F7BF0003FFFF0003F03F00036F
:1004A000E01F0001800600019C66000335B30003D5
:1004B000353300033CF300037C7B000338730001F9
:1004C0008006000180060000E01C0000703800007B
:1004D0003FF000000FC0000000000000000000001E
:1004E000000000000000000000000000000000000C
:1004F0000FE00000303F00004000800080008001DD
:100500000000800130008002300080020001800283
:1005100000010002000100020101000201010002CD
:100520007F0100024101000241020002410200017C
:1005300038FC000188000000780000000000000086
:100540000000000000000000000000000780000024
:100550001FE000003FF000007FF800007FFC00007B
:10056000FFFC0000FFFC0001C00E00019FE600013F
:100570008CC60001CCCE0001C00E0001CCCE000123
:1005800097A600018006000180060000C00C000054
:10059000FFFC00003FF00000000000000000000031
:1005A000000000000000000000000000000000004B
:1005B000000000000000000000000001C000000674
:1005C000C0030004400280064002400E20014001AA
:1005D0002E0320009102200085FE20044569200C96
:1005E000C300201FE0006010000040180E99800F2B
:1005F000F8E100000FBF0000000000000000000054
:1006000000000000000000000000000000000000EA
:1006100070380000FFFC00008FC60001BFF600012B
:10062000F87E0001E01F0003C00F000380070003F5
:100630008CC600038CC700038007000383070003F8
:10064000C94F0003CFCF0003C00F0000F03C0000F3
:10065000FCFC00003FF00000030000000000000070
:10066000000000000000000000000000000000008A
:10067000078000000FC0000019E0000039E0000012
:100680005FE000003FE0000017E0000013F0000012
:1006900013F0000033F8000023F8000023FC0000F2
:1006A00023F0000033F000001BF000001FF00000FA
:1006B00021F800003FF800000000000000000000EA
:1006C000000000000000000000000000000000002A
:1006D0000000000000000000000020000000E0001A
:1006E0000000C01FFFFFC01FFFFFC0107FFFC0152D
:1006F0007FFDC015BFF8E00AFFF8600F3FF000076C
:10070000FFC00001FF8000000780000000800000A3
:1007100000000000000000000000000000000000D9
:1007200000000000000000000000000000000000C9
:100730000000000000000000000000000C000000AD
:100740000F0000001FC00000FFE00001EFF1C00338
:10075000EFFB80066FFF000E63FF0007F3FB8003D3
:10076000EBF18000FFF040001C10000000000000D2
:100770000000000000000000000000000000000079
:100780000000000000000000000000000000000069
:100790000100000003000000070000000F0000003F
:1007A0001700000023010000C0830001804F0002F9
:1007B000603F0006603F0001804F0000C0830000E2
:1007C00023010000170000000F00000007000000D8
:1007D0000300000001000000000000000000000015
:1007E0000000000000000000000000000000000009
:1007F000000000001FE0000067980000F03C0001CE
:10080000E79E0003EFFF00020C310003F8DF8007D2
:10081000E8DF8007F81F8007F83F8007E8FF8007C0
:1008200028D380061CE18002172100021FE100028C
:1008300010210003F03F0000000000000000000055
:1008400000000000000000000000000000000000A8
:100850001C7000001450000092940000FABE0000CA
:10086000FABE0000FBBE0000739C00000FE0000019
:1008700007C000001FF0000007C000001FF00000CC
:100880001FF0000007C000000380000006C0000049
:100890000FE000000FE0000000000000000000007A
:1008A0000000000000000000000000000000000048
:1008B00001C000000FE000003FA000007FE000004A
:1008C0007DE00000F0000000F0000000FBE0000010
:1008D000FFF00000FFF80000FFF800007FFC0000C0
:1008E0007FFC00007FFC000077FE000077FE000028
:1008F000771F0000771C800000000000000000004F
:100900000000000000000000000000000FC0000018
:1009100030300000C00C000180C6000101F200026E
:1009200003F1000207A10004076080040E008004A8
:100930000C0080041C0080041C0080041C00800249
:100940003E0100023A0100011402000024060000EA
:10095000200C0000303000000FC00000000000003C
:100960000000000000000000000000000000000087
:10097000000000000000000000000007FFFF8005ED
:1009800000008005C0008007FFFF8007FFFF800494
:100990000000800400008004000080040000800447
:1009A000000080040000800400008007FFFF80003A
:1009B0000000000000000000000000000000000037
:1009C0000000000000000000000000000000000027
:1009D0000000000000000000000000000000000314
:1009E000FFFF800200008006FE3E8006FE008006BB
:1009F00000008006FFFE8006FEFE800600008007E5
:100A0000FFFF800400010007FFFF0000000000005E
:100A100000000000000000000000000000000000D6
:100A200000000000000000000000000000000000C6
:100A300000000000000000000038000000C60000B8
:100A40000082000000820003FF83800200448006D1
:100A50000738800618C080061040800610408006C7
:100A600018C0800607008007FFFF80040001000710
:100A7000FFFF000000000000000000000000000078
:100A80000000000000000000000000000000000066
:100A9000440000004400000044000000FE0000008C
:100AA00082000000FE000000FE000000FE000000CA
:100AB0007C000000100000001078000010CC000046
:100AC00010840000108400001084000019840000CD
:100AD0000F040000000400000000000000000000FF
:100AE0000000000000000000000000000000000006
:100AF0000000000000000000000000007C0000007A
:100B0000920000009200000082000000EE00000051
:100B1000820000007C0000001078000010CC000073
:100B2000108400001084000010840000198400006C
:100B30000F0400000004000000000000000000009E
:100B400000000000000000000000000000000000A5
:100B5000020000000200000047100000CF980000D3
:100B6000EFB80001DFDC0003CF9E0001FFFC0001B5
:100B7000FFFC0003DFDE0003AFAE0007FFFF000352
:100B8000DFDE0003BFEE0007870F0007F77F0008D6
:100B9000E7388000E7380000000000000000000097
:100BA0000000000000000000000000000000000045
:100BB00037B0000037B000003FF000003FF0000009
:100BC0003FF000001FE000000FC000000300000025
:100BD00003000003C30F0001E31E0000F33C00000C
:100BE0007B7800003FF000001FE000000FC0000015
:100BF000078000000300000000000000000000006B
:100C000000000000000000000000000002000000E2
:100C100002000000070000000500000002000000C4
:100C2000078000001FC00000272000001FC0000038
:100C30003FE000007FF000009FC800003FE00000A0
:100C4000FFF80001FFFC0003FFFE000407010000A5
:100C50000700000007000000000000000000000086
:100C60000000000000000000000000000000000084
:100C7000190000001B8000001FC000001FE00000E2
:100C80001FF000003FF800007FFC0000FFFE0000A6
:100C9000E10E0000E10E0000E10E0000FFFE00008A
:100CA000FFFE0000E10E0000E10E0000E10E00007A
:100CB000FFFE0000FFFE000000000000000000003A
:100CC0000000000000000000000000000000000024
:100CD0007FFC00004004000059B4000059B400003B
:100CE000400400004004000059B4000059B4000062
:100CF000400400004004000059B4000059B4000052
:100D000040040000400400004184000041840000D1
:100D1000418400007FFC0000000000000000000093
:100D2000000000000000000000000003FFE00002DF
:100D300000200002FFA0000200200002FFA000022D
:100D400000200002FFA0000200200002FFA000021D
:100D500000200002FFA00002FFA00002002000020D
:100D6000FFA00002002000023E2000023E20000200
:100D70003E200003FFE00000000000000000000033
:100D80000000000000000000000000000300000060
:100D9000030000000FC000000FC0000003000000AF
:100DA000030000000FC000001FE000007FF80000FB
:100DB000FFFC0001FFFE0001FCFE0001F87E0001C7
:100DC000F87E0001F87E0001F87E0001F87E000147
:100DD000F87E0001F87E0000000000000000000026
:100DE0000000000000000000000000000000000102
:100DF000FDFC0003222600020002000200020000A7
:100E0000222600007DFC0003000000030000000318
:100E1000000000030842000318C6000339CE000397
:100E20007BFE0003FFFE0003FFFE0003FFFE000346
:100E3000FFFE0003FFFE00000000000000000000B5
:100E40000000000000000000000000000100001889
:100E50000FC06017DFEFA010713820103130201064
:100E6000D12C201F1FE3E0001FE000001FC0000086
:100E70001FC000001FC000001FC000001FC00000F6
:100E80001FE000001FE000001FE000001FE0000066
:100E90001FE000001FE00000000000000000000054
:100EA0000000000000000000000000000000000042
:100EB0000FE000000C6000000920000009A0000005
:100EC000082000000C6000000FE000007FFC000024
:100ED0007FFC00007FFC0001FFFF0001FC7F0001A0
:100EE000F83F0001F83F0001F83F0001F83F000122
:100EF000F83F0001F83F0000000000000000000083
:100F000000000000000000000000000008000000D9
:100F10000F0000000BE00000087800000808000047
:100F20000F0800000BE80000087800000808000027
:100F30000808000008080000080800000808000071
:100F400078080000F8080001F8080001F0780001B6
:100F5000E0F8000001F8000001F0000000E00000EF
:100F60000000000000000000000000000000000081
:100F70001C3800003E7C00003E7C00003E7C0000EF
:100F80001C38000100000001CFF00001FFF000015B
:100F9000FFF00001FFF00001CFF0000107E00000CA
:100FA00005A000000DB00000099000001998000095
:100FB00011880000318C00000000000000000000DB
:100FC0000000000000000000000000000000000021
:100FD0007FFE0000A014000140140001C0180001B1
:100FE0004018000140280001FFF8000140180001EE
:100FF00040140000C01C0000A0140000A00C000061
:101000007FFC0000A00E0000E00C0000E00C0000DF
:10101000C0140001FFF80000000000000000000004
:1010200000000000000000000000000000000000C0
:1010300000000000000E000001F600003ECE00039C
:10104000F9F000023E000003FFFE00031CE2000373
:10105000FFFE00007FFE00007FFE00007FFE00001C
:101060007FFE00007FFE00007FFE00007FFE00008C
:101070000000000000000000000000000000000070
:101080000000000000000000000000000000000060
:10109000FFE000008220000082200000FF2000000E
:1010A00081200000FFE000008E200000FFE0000033
:1010B00080200000FFE000008720000085E00000A5
:1010C000FD300000152E00006F2A000041EE0000E8
:1010D0003C3C000007F000000000000000000000A1
:1010E0000000000000000000000000000000000000
:1010F0002000000020000000500000005800000008
:1011000057000000290000002C800000248000000F
:101110001250000049B8000044F00000435C000099
:10112000A0BF80071D7F8000A08F800040070000C7
:10113000400000004000000000000000000000002F
:10114000000000000000000000000000000000009F
:101150000F00000030C000002040000040230000CD
:101160004026000040260000402E0000205A0000CB
:1011700030F100000F190000051E0000773C000050
:101180007C7C0000FFF800007FF000001FE0000002
:1011900007C0000000C000000000000000000000C8
:1011A000000000000000000000000000000000003F
:1011B0000120000006D8000004C800000DA80000AF
:1011C00015FC000065A60000E3720001F69C000318
:1011D000FB670000FC9700007E3F00003DFF8000A1
:1011E0001750000039D800000EC8000004C80000E5
:1011F00009B800001B00000004000000000000000F
:1012000000000000000000000000000010180000B6
:1012100010100004082000020BA0C00103E1000030
:1012200083F200000FFC000033FE000861FF00079E
:10123000763F0000780F00007C0F00003E060000A3
:101240009FF800010FFA000607F9000803F8800074
:101250001BF8C00010000000208400002084000063
:1012600000800000000000000000000000000000FE
:101270000000000003000000030000000FC0000099
:101280001FE000003FF000007FF8000064980000BD
:10129000649800007FF8000000000001FFFE0003DA
:1012A000FFFF0007FFFF8001F7BE0001F7BE00004F
:1012B000E31C00000000000000000000000000002F
:1012C000000000000000000000000000000000001E
:1012D000000000000000000000000000000000000E
:1012E0000000000003F8000FC7FC0001FFFC000035
:1012F00007FC000007FC000000000000FFFF0001E9
:10130000FFFF8001FFFF8001FFFF8001FFFF8001E1
:101310000000800180018000FFFF0000000000004D
:1013200000000000000000000000000000000000BD
:101330000078000010440000202400004716000040
:10134000C89E0003504F0004504F0002904F00070A
:1013500088878007871F8007E53FC00FF77F000F52
:10136000F8FE0003FDFC00007DF800007FF00000A7
:101370007FF000007FF0000000000000000000008F
:1013800000000000000000000000000001800000DC
:101390000380000003400000024000000440000001
:1013A00004C0000003800000070000000E000000E1
:1013B00019C0000037E00000357000003530000033
:1013C00033300000192000001CE0000007800000FE
:1013D000008000000E8000000E800000070000006A
:1013E00000000000000000000000000000000000FD
:1013F000010000000180000001C0000001E00000C9
:101400000170000001180000010800000108000040
:101410000108000001080000011000000120000088
:1014200001000000010000000F0000003F0000006C
:101430003E0000003C000000000000000000000032
:101440000000000000000000000000000000000795
:10145000FFFF800400008004FFFC8005FFFE800584
:10146000FF068005FF068005FF068005FFF6800564
:10147000FFF68005FFF68005FFFE8005FFFE800574
:10148000FFFE8005FFFE8004000080059BC08004F5
:1014900000008007FFFF8000000000000000000047
:1014A00000000000000000000000000000C000007C
:1014B000018000000200000004000000080000009D
:1014C0001000000020000003FFFE00024F0E00028B
:1014D0004CE600027DF600024BFA00024BFA0002D5
:1014E0007BFA00027BFA00027DF600027CE6000235
:1014F0007F1E0001FFFC0000000000000000000053
:1015000000000000000000000000000000000000DB
:101510000FE0000016D000001930000016D00000C7
:1015200016D000001930000016D000003FF800006F
:10153000301800003FF800003FF800003FF80000BE
:101540002FE80000200800001FF0000003800000CA
:10155000038000000FE00000000000000000000019
:10156000000000000000000000000000000000007B
:10157000000000000000000000000000FFFC000769
:10158000FFFF800FFFFFC00FC00FC0000FC0000F94
:101590009CE7C000303000003030000060180000D0
:1015A000E01C0000F03C0001F03E0001F87E00016C
:1015B000FFFE0001FFFE0000000000000000000030
:1015C000000000000000000000000000000000001B
:1015D0000003E000003C100001F008001E3C040085
:1015E000FC3E0401833C04010138040206B0047E81
:1015F00018B0048117B00480E8B004C028B0045FBC
:101600009880042048800410048038080383C004B4
:10161000019C0003FFE0000000000000000000004B
:1016200000000000000000000000000000000000BA
:101630000003E000001C100001E008000E000400A0
:101640007C00040183000401010004020080147E78
:101650000080E481008FE480C0BFE4C020B1C45F9B
:101660009080C42048800410048038080283C0049D
:10167000019C0003FFE000000000000000000000EB
:101680000000000000000000000000000000000F4B
:10169000F000000810000008100000780FFE004065
:1016A0000002004000020041FFFFF8410000084234
:1016B00000001042000010440000204800002048B4
:1016C0000000405000008050000080600001006079
:1016D0000001007FFFFE000000000000000000008D
:1016E00000000000000000000000000000000000FA
:1016F0001FE000003FF000003030000030300007F5
:10170000FFFF8007FFFF8007FFFF8007FFFF8007C5
:10171000FFFF8007FFFF8007FFFF8007FFFF8007B5
:10172000FFFF8007FFFF8007FFFF8007FFFF8007A5
:10173000FFFF8007FFFF80000000000000000000A6
:101740000000000000000000000000000000000099
:10175000000000000FE000001FF000073FF8000746
:1017600040040007FFFFC007FFFFC007F83FC007A6
:10177000F01FC007E00FC007E00FC007E00FC00771
:10178000E00FC007E00FC007F01FC007F83FC00719
:10179000FFFFC007FFFFC0000000000000000000C6
:1017A0000000000000000000000000000000000039
:1017B0000FC000003030000040080000830400012A
:1017C0000302000103020002030100020301000200
:1017D00003F9000203F90002000100020001000108
:1017E0000002000100020000800400004008000028
:1017F000303000000FC000000000000000000000BA
:1018000000000000000000000000000000000000D8
:101810000000000000000000000000000000000FB9
:1018200000000010800000108003C010801FE00F37
:10183000F07F00003FF800001FE000001FE0000004
:101840003FF8000FF07F0010801FC0108003E010F1
:101850008000000F000000000000000000000000F9
:101860000000000000000000000000000000000078
:1018700007C000001830000033D800002C680000BA
:1018800050140000501400005014000050140000C8
:10189000FFFE0000FFFE0000FEFE0000FC7E0000D8
:1018A000FEFE0000FEFE00007EFC00003FF800008F
:1018B0001FF0000007C00000000000000000000052
:1018C0000000000000000000000000000000000018
:1018D00000F8000001FC000003FE000007C7000044
:1018E00007C7000007C7000007FF00000FFF000048
:1018F0000FFE00000FFC00003FF800003F0000005A
:10190000FE000000FC000003F8000003F0000003EC
:10191000E0000003C0000000000000000000000024
:1019200000000000000000000000000000000000B7
:101930000000000000000000000000003FF0000078
:10194000201000004008000040080000400800008F
:1019500080040001FFFF00039FE700030FC30003A3
:101960000FC300039FE70003FFFF0000E01C00001F
:10197000E01C0000E01C000000000000000000006F
:101980000000000000000000000000000000000057
:101990000000000007800000048000001FE000003D
:1019A0002010000040100000400800004008000027
:1019B00080040001FFFF00039FE700030FC3000343
:1019C0000FC300039FE70003FFFF0000E01C0000BF
:1019D000E01C0000E01C000000000000000000000F
:1019E00000000000000000000000000000000000F7
:1019F000FFFC0000E01C0001E01E0001FFFE0001F2
:101A000000020001000200010002000100020001CA
:101A100000020001FFFE0001CFCE00018786000119
:101A200087860001CFCE0001FFFE00007038000065
:101A30007038000070380000000000000000000056
:101A40000000000000000000000000000000000096
:101A50007FFC00007FFC0000400400004004000008
:101A60004004000040040000400400004004000066
:101A7000400400007FFC0000478C0000478C000001
:101A8000478C00007FFC0000301800002008000098
:101A9000400400018003000000000000000000007E
:101AA0000000000000000000000000000000000036
:101AB000070000000700000007000000078000008A
:101AC000078000010780000187C0000187C0000176
:101AD000FFFF8001FFFF8001FFFF800187C0000141
:101AE00087800001078000000780000007000000D9
:101AF00007000000070000000000000000000000D8
:101B000000000000000000000000000000000000D5
:101B100000000000000000000000000FFFC0000FE8
:101B2000FFC0000FFFC0000FFFFF000FFFF8800F86
:101B3000FFF8800FFFF8800FFFF84000003FC00F54
:101B4000FFFFC00F01F9C00EC6F6C00DEF6F4001D8
:101B5000EF0F0000C60600000000000000000000BB
:101B60000000000000000000000000000000000075
:101B7000000000000001C000000660000008200016
:101B8000001E2000006E400000B58000034B0000E6
:101B9000049400001B68000024B000005B400001BA
:101BA000A58000015A0000026C0000045000000CE7
:101BB000E000000F00000010000000000000000026
:101BC0000000000000000000000000000000000015
:101BD000004000000060000000F000000FC00000A6
:101BE00033800000478000008E63F0011C1E7001EE
:101BF00038027002380270027B0270047C027004AA
:101C0000800270078006700B7FFBF00A0000700CEA
:101C100000000000000000000000000000000000C4
:101C200000000000000000000000000000100000A4
:101C30000038000000F8000000F8000001F8000083
:101C400001F8000003F8000003F0000007F00000B6
:101C500005F000000F6000000DC000000F600000E4
:101C60000BC00000168000001200000022000000DF
:101C7000230000003C0000002000000000000000E5
:101C80000000000000000000000000000000000054
:101C900007FC0000181C00003FE4000020240000A6
:101CA000272400002024000020240000202400001D
:101CB00020240000202400003FE400002024000035
:101CC00027240000202400002024000020280000F9
:101CD000203000003FE00000000000000000000095
:101CE00000000000000000000000000000000000F4
:101CF0001FE0000020100000201000003050000005
:101D00002FD0000017E0000013A000000B400000DF
:101D1000058000000580000009400000112000003F
:101D20001120000021100000279000002FD000009B
:101D30002FD000001FE000000000000000000000A5
:101D4000000000000000000000000000000000078C
:101D5000FDFF000C0701803C0201E0340201603409
:101D60000201603402016034020160340201603417
:101D70000201603402016034020160340201603407
:101D800002016037FAFF6038070160380200E03F67
:101D9000FAFFE0000F8000000000000000000000DB
:101DA0000000000000000000000000000000000033
:101DB000FFFE0000800200008002000080020000A0
:101DC000800200008002000080020000800200000B
:101DD00080020000800200008002000080020000FB
:101DE00080020000803E0000802400008028000067
:101DF00080300000FFE00000000000000000000054
:101E000000000000000000000000000000000000D2
:101E1000FFFE00008002000080020000BF82000080
:101E20008002000080020000BFFA0000BFFA00003C
:101E300080020000BFFA000080020000BFFA00002C
:101E400080020000BFBE0000802400008028000047
:101E500080300000FFE000000000000000000000F3
:101E60000000000000000000000000000000000072
:101E70000FFF800008008000080080007FFC8000C9
:101E800040048001FFF480010014800100148001EF
:101E90007F948001001480017F94800100148001F0
:101EA0007F94800100148001001480017F948001E0
:101EB000001480017F978001001400017E1400014E
:101EC000001C0001FFF00000000000000000000FF7
:101ED000FFFFE008000020080003A009FC03A008A1
:101EE0000003A009FC03A0080003A00800002008CC
:101EF0000000200800002009FFF820080000200949
:101F0000FFF8200800002009FFF820080000200842
:101F10000000200FFFFFE0000000000000000000B4
:101F20000000000000000000000000000000000FA2
:101F3000FFFFE00C0000600A0000A009000120087B
:101F400080022008400420082008200810102008E3
:101F5000082020080C6020081AB0200823882008D8
:101F600040042008800220090001200A0000A00C83
:101F70000000600FFFFFE000000000000000000014
:101F80000000000000000000000000000000000150
:101F9000FFFC0001E01E0001E0DE0001E0DE0001C8
:101FA000E0DE0001E0DE0001E01E0001FFFE0001B6
:101FB0008006000180060001800600018006000105
:101FC00080060001800600018006000180060001F5
:101FD00080060001FFFE000000000000000000007D
:101FE00000000000000000000000000000000003EE
:101FF000FFFF0002000300020003000200030002D2
:1020000000020003FFFF0003FFFF0003F8FF0003CF
:10201000F07F0003F07F0003F07F0003F8FF000370
:10202000FFFF0003FCFF0003FCFF0003FCFF0003B5
:10203000FCFF0003FFFF00000000000000000000A4
:102040000000000000000000000000000000000090
:10205000000000000000000000000007FFFF8007F4
:10206000FFFF8007FFFF8004F87C80048CC480059C
:102070008CC680058CC68004FCFC8004F87C80073C
:10208000FFFF8007FFFF8006FFFD800000000000CB
:102090000000000000000000000000000000000040
:1020A0000000000000000000000000000000000030
:1020B0000FC000003E3000007E080000FE0400015A
:1020C00078020001F7820002F8610003F03100039A
:1020D000E3110003E31F0002231F0002103F000171
:1020E000187E000107FE000081FC000041F800009E
:1020F00031F000000FC000000000000000000000F0
:1021000000000000000000000000000000000000CF
:102110000FC0000031F000005FF80000A7FC0001D4
:10212000D9FE0001A7FE0001D83E0003A01F000356
:10213000A31F0003E31F0003E31D0001E02E0001C5
:10214000F03A0001FFEA0000FE7400007FC80000C2
:102150003E3000000FC00000000000000000000042
:10216000000000000000000000000000000000016E
:10217000FFFE0001000200017FFE00014006000199
:102180004006000140060001400600014006000133
:1021900040060001400600017FFE0001FFFE000135
:1021A000FFFF0001000100036F798002DFBC8002A5
:1021B00000008003FFFF800000000000000000001E
:1021C000000000000000000000000000000000000F
:1021D000010000000100000003000000FE000001FB
:1021E00000000001000000010000001FFFFFC01000
:1021F0000000401000004017BDEDC0100000401767
:10220000BDEDC010000040177EEDC0100000401072
:102210000000401FFFFFC0000000000000000000A1
:1022200000000000000000000000000000000000AE
:10223000000000003FF000004008000040080000DF
:1022400040080000407F00004089800040888003F3
:1022500080FF80000080800000808000008080007F
:1022600000808000008080000080800000C180002D
:1022700000630000003E00000000000000000000BD
:10228000000000000000000000000000000000004E
:10229000000000000000000000000000000000003E
:1022A000000000000000000000000000000000002E
:1022B0000000000000000001FFFF0001000100011C
:1022C0003FF90001000100010009000100010001C7
:1022D00000010001FFFF00000000000000000000FE
:1022E00000000000000000000000000001000000ED
:1022F0000780000007C000000BA000000BA000003A
:10230000092000000920000007C00000052000008F
:102310001A20000013100000129000001C7800002A
:102320001C3800001C3800001C3800001C3800005D
:102330000C3000000E70000006600000000000007D
:10234000000000000000000000000000000000008D
:10235000187000002578000027F800001FF000002A
:102360007FE00000FF800001FF800001FC80000092
:10237000F2400000E22000000120000001100000F7
:1023800000900000008800000044000000240000CD
:1023900000220000001C00000000000000000000FF
:1023A000000000000000000000000000000000002D
:1023B000000000000000000000000000001E0000FF
:1023C000002100000021000000478000008800007C
:1023D00003078001EC21000210DE000783000000EB
:1023E00084000000C80000079000000210000001F7
:1023F000E0000000000000000000000000000000FD
:1024000000000000000000000000000000000000CC
:10241000000F0000001F8000003F8000007F800050
:10242000007F0000007E000001FC000000F80000BA
:102430000160000002A00000050000000A0000008A
:102440001400000028000000D0000001200000025D
:102450002000000240000001800000000000000099
:1024600000000000000000000FFC00000806000053
:102470000BF70000080080000BFE800008008007BA
:10248000FBFEC0064800C0064B80C0064800C006E0
:102490005FFFC00650004006506F4006506F400678
:1024A000506F4006576F4006576F4006576F400702
:1024B000D0004007FFFFC000000000000000000047
:1024C000000000000000000000000000000000000C
:1024D000FFF0000080380000803C0000803C0000DD
:1024E00080040000800400008004000080040003D9
:1024F000FFFF00020001000FFFFFC0092480400918
:1025000024804009FF804008000040080000400F80
:10251000FFFFC003FFFF00000000000000000000FC
:1025200000000000000000000000000000000000AB
:102530000000000000000000000000007800000023
:10254000780000007BE000007A2000007A20000084
:10255000FE3C000080040003BF770002000100027F
:1025600000010003FFFF0001FFFE0001FFFC00016E
:10257000FFFC0000FFF80000000000000000000069
:10258000000000000000000000000000000000004B
:10259000070000000D8000001AC000001540000078
:1025A000174000001240000067300000D2580001C0
:1025B000974C0002174200021242000218C20003A8
:1025C000E73E0003E73E00003DE000003DE0000084
:1025D0000000000018C000003DE000000A8000007C
:1025E00002000000000000000000000000000000E9
:1025F00000000000000000000000000000000000DB
:1026000007000000380000007800000077FFC000DD
:1026100037FDC0002FF80003EFE7000467E88008EB
:1026200093D0400991FE400BD0FE400910104004A9
:1026300020088003C0070000000000000000000028
:10264000000000000000000000000000000000008A
:10265000000000000000000000000000000000007A
:10266000000000000F000000080000001FF0000044
:1026700034300003E44F8006725CC00C5A9460084A
:10268000C9A6200889FE20080820200C101060062A
:102690003018C003E00780000000000000000000C8
:1026A00000000000000000080C20A6000000000050
:1026B000000000000000000000202020202020005A
:1026C0002000000028505000000000000000000022
:1026D000002828FC2850FC50500000002078A8A0BA
:1026E000603028A8F02000000048A8B050283454DA
:1026F000480000000020505078A8A8906C0000000E
:10270000404080000000000000000000040810109D
:1027100010101010080400004020101010101010AD
:1027200020400000000020A87070A82000000000D9
:1027300000202020F82020200000000000000000E1
:10274000000000004040800000000000F800000091
:102750000000000000000000000000004000000039
:102760000810101020204040408000000070888831
:1027700088888888700000000020602020202020A9
:10278000700000000070888810204080F800000071
:102790000070880830080888700000000010305071
:1027A000509078101800000000F88080F008088829
:1027B0007000000000709080F08888887000000031
:1027C00000F8901020202020200000000070888851
:1027D00070888888700000000070888888780848B1
:1027E0007000000000000020000000002000000039
:1027F000000000002000000020200000040810203D
:102800004020100804000000000000F80000F8005C
:1028100000000000402010080408102040000000C4
:102820000070888810202000200000000070889828
:10283000A8A8B880780000000020203050507848C8
:10284000CC00000000F0484870484848F000000004
:1028500000788880808080887000000000F0484800
:1028600048484848F000000000F848507050404880
:10287000F800000000F8485070504040E0000000B0
:1028800000384880809C88483000000000CC4848D0
:1028900078484848CC00000000F820202020202064
:1028A000F8000000007C10101010101090E00000E4
:1028B00000EC485060505048EC00000000E0404000
:1028C00040404044FC00000000D8D8D8D8A8A8A8B0
:1028D000A800000000DC486868585848E80000007C
:1028E00000708888888888887000000000F0484858
:1028F00070404040E0000000007088888888E898B8
:102900007018000000F0484870504848EC00000083
:102910000078888060100888F000000000F8A82087
:10292000202020207000000000CC4848484848483B
:102930003000000000CC48485050302020000000FB
:1029400000A8A8A8705050505000000000D8505067
:1029500020205050D800000000D8505020202020C7
:102960007000000000F8901020204048F80000009F
:102970003820202020202020203800004040402007
:10298000201010100800000070101010101010100F
:102990001070000020500000000000000000000047
:1029A00000000000000000000000FC00200000000B
:1029B000000000000000000000000000304838481F
:1029C0003C00000000C040407048484870000000D3
:1029D0000000000038484040380000000018080897
:1029E000384848483C00000000000000304878406B
:1029F00038000000001C20207820202078000000F3
:102A0000000000003C4830407844380000C040409E
:102A100070484848EC0000000020000060202020A2
:102A20007000000000100000301010101010E000C6
:102A300000C040405C507048EC00000000E02020E6
:102A400020202020F800000000000000F0A8A8A826
:102A5000A800000000000000F0484848EC0000001A
:102A6000000000003048484830000000000000002E
:102A7000F04848487040E0000000000038484848EE
:102A800038081C0000000000D8604040E000000052
:102A9000000000007840300878000000000020208E
:102AA000702020201800000000000000D84848488E
:102AB0003C00000000000000EC4850302000000006
:102AC00000000000A8A870505000000000000000A6
:102AD000D8502050D800000000000000EC485030D2
:102AE0002020C000000000007810202078000000A6
:102AF00018101010201010101018001010101010C6
:102B00001010101010101000602020201020202025
:102B100020600040A4180000000000000000000039
:102B200000304848300000000000000000F8484035
:102B300070484848F000000000F8484040404040DD
:102B4000E00000000038484848484848FC840050ED
:102B500000F8485070504048F800000000A8A8A8AD
:102B600070F8A8A8A800000000F08808300808083D
:102B7000F000000000EC485858686848DC0000305D
:102B800000EC485858686848DC000000003C4848A1
:102B900048484848CC00000000FC4848484848489D
:102BA000CC00000000D850502020404080000000A1
:102BB0000070A8A8A8A870207000000000CC4848A9
:102BC00048484848FC04000000CC484848380808F9
:102BD0001C00000000D6545454545454FE0000000D
:102BE00000D6545454545454FE02000000E0C04037
:102BF00070484848F000000000EE444464545454C7
:102C0000EE00000000E0404070484848F00000003E
:102C100000E09008380808906000000000EC525274
:102C200052725252EC000000003C48484838484874
:102C30009C00000000083040704848483000000008
:102C40000000000070283028700000000000000024
:102C50007828202070000000000000001828282894
:102C60007C4400000000280030487840300000001C
:102C700000000000545438545400000000000000CC
:102C8000700830087000000000000000CC48586850
:102C9000CC00000000003000CC485868CC00000098
:102CA0000000000048506050480000000000000094
:102CB0001C2828284C00000000000000446C5444EC
:102CC0004400000000000000CC487848CC00000020
:102CD00000000000FC484848CC0000000000000054
:102CE0007C54101038000000000000003854545488
:102CF0003810380000000000CC484848FC040000B0
:102D000000000000CC4838080C0000000000000063
:102D1000545454547C000000000000005454545497
:102D20007E02000000000000E0A0302870000000DB
:102D300000000000C6446454E600000000000000EB
:102D40006020302870000000000000003048184863
:102D50003000000000000000C8547454C800000097
:102D6000000000003C4848384C00003CE781BD8131
:102D7000BD81BD81BD81FF3CE7818181BD81BD8178
:102D8000BD81FF3CE78181818181BD81BD81FF3CA7
:102D9000E781818181818181BD81FF3CE7818181E2
:102DA000818181818181FFFFFF003F3F000F0F0084
:102DB0000303000000003F3F000F0F00030300006B
:102DC00000000000000F0F000303000000000000DF
:102DD0000000000003030000001010101010543811
:102DE00010000000001038541010101010000000E7
:102DF00000000010087C0810000000000000001017
:102E0000207C20100000000000003C0C14244480B2
:102E1000000000000000804424140C3C000000006E
:102E2000003C42A581A599423C000000003C7EDBAD
:102E3000FFFFDB663C000000003C42A58199A542F3
:102E40003C000000003C7EDBFFFFE75A3C00000036
:102E5000003C4281818181423C000000003C7EFFB9
:102E6000FFFFFF7E3C00000000FF818181818181A6
:102E7000FF00000000FFFFFFFFFFFFFFFF0000104B
:102E800010208F0000000000000000000000000083
:102E90000000000000000000000000000000000032
:102EA0000000000000000007000F800F800F800F5F
:102EB000800F8007000700000000000700070007E0
:102EC00000000000000E380E380E380E38063000B4
:102ED00000000000000000000000000000000000F2
:102EE00000000000000C300C300C307FFE7FFE0C28
:102EF000300C300C300C307FFE7FFE0C300C300C70
:102F00003000000000024002400FF81FF81A401A7B
:102F1000401FF00FF8025802581FF81FF00240023D
:102F20004000000000000000000E100E300E700087
:102F3000E001C0038007000E700C700870000000F4
:102F4000000000000000000F001980198019800F98
:102F5000000F080F9819F818F018E019F00F9800F2
:102F6000000000000000000700070007000E00003E
:102F70000000000000000000000000000000000051
:102F80000000000000000000F001C0038007000EF8
:102F9000000E000E000E000700038001C000F000CC
:102FA000000000000000000F00038001C000E000EE
:102FB0007000700070007000E001C003800F00001E
:102FC0000000000000000001801188099007E00760
:102FD000E03FFC3FFC07E007E0099011880180001A
:102FE00000000000000000000000000180018001DE
:102FF000800FF00FF00180018001800000000000D0
:1030000000000000000000000000000000000000C0
:103010000000000000000000000700070007000E8D
:1030200000000000000000000000000000000000A0
:10303000001FF81FF8000000000000000000000062
:103040000000000000000000000000000000000080
:10305000000000000000000000070007000700005B
:103060000000000000000000020006000E001C002E
:1030700038007000E001C0038007000E001C000053
:10308000000000000000000FF01C381C781CF81C29
:10309000F81DB81DB81F381F381E381C380FF00037
:1030A000000000000000000180018003801F801FDD
:1030B000800380038003800380038003801FF0006F
:1030C000000000000000000FE01C701C38003800F9
:1030D0007000E001C0038007000E381C381FF800A4
:1030E000000000000000000FE01C701C38003800D9
:1030F0007003C003C0007000381C381C700FE00063
:103100000000000000000000E001E003E006E00C29
:10311000E018E01FF81FF800E000E000E003F8000E
:10312000000000000000001FF81C001C001C001C18
:10313000001FE01FF0007800381C381C700FE00002
:103140000000000000000003E007000E001C001C4F
:10315000001FF01FF81C381C381C381C380FF000FA
:10316000000000000000001FFC1C1C1C1C1C1C009C
:103170001C0038007000E001C00380038003800061
:10318000000000000000000FF01C381C381C381F25
:103190003807E007E01CF81C381C381C380FF0001A
:1031A000000000000000000FF01C381C381C381C08
:1031B000381FF80FF800380038007000E007C00032
:1031C00000000000000000000000000380038003F6
:1031D00080000000000380038003800000000000E6
:1031E00000000000000000000000000380038003D6
:1031F00080000000000380038003800700000000BF
:103200000000000000007000E001C0038007000E15
:10321000001C001C000E000700038001C000E0003D
:10322000700000000000000000000000003FFC3FB4
:10323000FC000000003FFC3FFC000000000000001C
:1032400000000000001C000E000700038001C00009
:10325000E00070007000E001C0038007000E001C59
:10326000000000000003C00FF01E7818380038007E
:103270007000E001C001C00000000001C001C001F9
:10328000C0000000000FF81C1C1C1C1C1C1C1C1C7B
:10329000FC1CFC1CFC1CFC1C001C001C001FF00780
:1032A000F800000000000003C007E00E701C381C8E
:1032B000381C381C381FF81C381C381C381C3800C7
:1032C000000000000000001FF00E380E380E380E0F
:1032D000380FF00FF00E380E380E380E381FF00091
:1032E0000000000000000007F00E381C381C001C15
:1032F000001C001C001C001C001C380E3807F000CD
:10330000000000000000001FE00E700E380E380EA6
:10331000380E380E380E380E380E380E701FE0009A
:10332000000000000000001FF80E180E080E000E2E
:10333000300FF00FF00E300E000E080E181FF800C0
:10334000000000000000001FF80E180E080E000E0E
:10335000300FF00FF00E300E000E000E001F0000B8
:103360000000000000000007F00E381C381C381C5C
:10337000001C001C001CF81C381C380E3807F80014
:10338000000000000000001C701C701C701C701CF1
:10339000701FF01FF01C701C701C701C701C7000E3
:1033A000000000000000000FE003800380038003A2
:1033B000800380038003800380038003800FE0008C
:1033C0000000000000000001FC00700070007000B0
:1033D000700070007038703870387038700FE0000E
:1033E000000000000000001E380E380E700EE00FC6
:1033F000C00F800F800FC00EE00E700E381E380018
:10340000000000000000001F000E000E000E000E65
:10341000000E000E000E000E080E180E381FF800E9
:10342000000000000000001C1C1E3C1F7C1FFC1F35
:10343000FC1DDC1C9C1C1C1C1C1C1C1C1C1C1C00C7
:10344000000000000000001C1C1C1C1E1C1F1C1F78
:103450009C1DDC1CFC1C7C1C3C1C1C1C1C1C1C0027
:103460000000000000000003E007F00E381C1C1CE8
:103470001C1C1C1C1C1C1C1C1C0E3807F003E00030
:10348000000000000000001FF00E380E380E380E4D
:10349000380FF00FF00E000E000E000E001F00009F
:1034A0000000000000000003E00F780E381C1C1C18
:1034B0001C1C1C1C1C1C7C1CFC0FF80FF80038008A
:1034C000FC0000000000001FF00E380E380E380E11
:1034D000380FF00FF00E700E380E380E381E380010
:1034E000000000000000000FF01C381C381C381CC5
:1034F000000FE007F000381C381C381C380FF000B3
:10350000000000000000001FFC19CC11C401C00124
:10351000C001C001C001C001C001C001C007F0006E
:10352000000000000000001C701C701C701C701C4F
:10353000701C701C701C701C701C701C700FE000E4
:10354000000000000000001C701C701C701C701C2F
:10355000701C701C701C701C700EE007C003800093
:10356000000000000000001C1C1C1C1C1C1C1C1C5F
:103570001C1C9C1C9C1C9C0FF80FF807700770000B
:10358000000000000000001C701C701C700EE007A2
:10359000C00380038007C00EE01C701C701C70000C
:1035A000000000000000001C701C701C701C701CCF
:1035B000700EE007C003800380038003800FE000EB
:1035C000000000000000001FF81C381838107000C0
:1035D000E001C0038007000E081C181C381FF8000B
:1035E0000000000000000007F007000700070007C8
:1035F0000007000700070007000700070007F000AA
:1036000000000000000000100018001C000E000761
:1036100000038001C000E000700038001C000700BB
:103620000000000000000007F00070007000700053
:103630007000700070007000700070007007F00083
:103640000000000000018003C007E00E701C38007D
:10365000000000000000000000000000000000006A
:10366000000000000000000000000000000000005A
:103670000000000000000000000000000000007FCB
:10368000FF7FFF000000001C001C00070007000077
:10369000000000000000000000000000000000002A
:1036A0000000000000000000000000000000000F0B
:1036B000E0007000700FF01C701C701C700FD800C0
:1036C000000000000000001E000E000E000E000FA3
:1036D000F00E380E380E380E380E380E381BF0004B
:1036E0000000000000000000000000000000000FCB
:1036F000E01C701C701C001C001C701C700FE00093
:103700000000000000000000F80070007000700F62
:10371000F01C701C701C701C701C701C700FD8008A
:103720000000000000000000000000000000000F8A
:10373000E01C701C701FF01C001C701C700FE0005F
:103740000000000000000003E0077007700700079A
:10375000001FE01FE007000700070007001FC00070
:103760000000000000000000000000000000000F4A
:10377000D81C701C701C701C700FF007F000701CBF
:10378000700FE0000000001E000E000E000E000E84
:10379000F00F380F380E380E380E380E381E38003D
:1037A0000000000000000001C001C001C000000FC7
:1037B000C001C001C001C001C001C001C00FF800BC
:1037C00000000000000000007000700070000003A6
:1037D000F00070007000700070007000701C700CC1
:1037E000F007E0000000001E000E000E000E000EAC
:1037F000380E700EE00FC00EE00E700E381E38004E
:10380000000000000000000FC001C001C001C001A5
:10381000C001C001C001C001C001C001C00FF8005B
:103820000000000000000000000000000000001F79
:10383000F81C9C1C9C1C9C1C9C1C9C1C9C1C9C0088
:103840000000000000000000000000000000001F59
:10385000E01C701C701C701C701C701C701C7000B4
:103860000000000000000000000000000000000F49
:10387000E01C701C701C701C701C701C700FE00031
:103880000000000000000000000000000000001B1D
:10389000F00E380E380E380E380E380FF00E000EBF
:1038A000001F000000000000000000000000001FDA
:1038B000B038E038E038E038E038E01FE000E00001
:1038C000E001F00000000000000000000000001E09
:1038D000F00FF80F380E000E000E000E001F000053
:1038E0000000000000000000000000000000000FC9
:1038F000E01C301C300F8003E0187018700FE000DF
:103900000000000000000000000100030007001F8D
:10391000F007000700070007000770077003E000CA
:103920000000000000000000000000000000001C7B
:10393000701C701C701C701C701C701C700FD800E8
:103940000000000000000000000000000000001C5B
:10395000701C701C701C701C700EE007C00380008F
:103960000000000000000000000000000000001C3B
:103970001C1C1C1C1C1C9C1C9C0FF8077007700056
:103980000000000000000000000000000000001C1B
:10399000E01CE00FC0078007800FC01CE01CE000A7
:1039A0000000000000000000000000000000000E09
:1039B000380E380E380E380E3807F003E000E001FC
:1039C000C01F800000000000000000000000001F79
:1039D000E018E011C0038007000E201C601FE0000B
:1039E0000000000000000001F8038003800380074E
:1039F000001C001C00070003800380038001F80006
:103A0000000000000001C001C001C001C001C001F0
:103A1000C001C001C001C001C001C001C001C0019E
:103A2000C00000000000001F8001C001C001C000F4
:103A3000E00038003800E001C001C001C01F800074
:103A4000000000000000001F1C3B9C39DC38F8001F
:103A50000000000000000000000000000000000066
:103A60000000000000000000F001F801980198013A
:103A7000F800F0000000000000000000000000005E
:103A8000000000000000001FF80E180E080E000EC7
:103A9000000FF00E380E380E380E380E381FF000BA
:103AA000000000000000001FF80E180E080E000EA7
:103AB000000E000E000E000E000E000E001F000093
:103AC0000000000000000007F00C701C701C701C4F
:103AD000701C701C701C701C701C701C703FF830C7
:103AE000182008066000001FF80E180E080E000EC1
:103AF000300FF00FF00E300E000E080E181FF800F9
:103B00000000000000000033CC1998199819980D96
:103B1000B00FF00FF01DB819981998199833CC0010
:103B20000000000000000017E01E701C3810380074
:103B30007003C003C0007000381C381C700FE00018
:103B4000000000000000001C701C701C701C701C29
:103B5000701C701CF01DF01F701E701C701C70001B
:103B6000000000038000001C701C701C701C701C86
:103B7000701C701CF01DF01F701E701C701C7000FB
:103B80000000000000000003F006700E700E700EC2
:103B9000700E700E700E700E700E700E701C700035
:103BA000000000000000001FF01C701C701C701C46
:103BB000701C701C701C701C701C701C701C7000C1
:103BC000000000000000001C701C701C701C701CA9
:103BD000701C700FF007F0007000701CE00FC00048
:103BE000000000000000001FF03398339833983332
:103BF000983398339833981FF00380038007C000F0
:103C0000000000000000001C701C701C701C701C68
:103C1000701C701C701C701C701C701C701FF800D5
:103C2000180008000000001C701C701C701C701C28
:103C3000701C701FF00FF0007000700070007000BA
:103C400000000000000000399C399C399C399C39E7
:103C50009C399C399C399C399C399C399C3FFC008F
:103C600000000000000000399C399C399C399C39C7
:103C70009C399C399C399C399C399C399C3FFE006D
:103C8000060002000000003F002E002E000E000E75
:103C9000000FF00E380E380E380E380E381FF000B8
:103CA00000000000000000381C381C381C381C388C
:103CB0001C3F9C39DC39DC39DC39DC39DC3F9C00C9
:103CC000000000000000001F000E000E000E000E9D
:103CD000000FF00E380E380E380E380E381FF00078
:103CE000000000000000000FE01C701C38003800CD
:103CF0003803F803F8003800381C381C700FE00057
:103D0000000000000000003CF81D9C1D9C1D9C1D37
:103D10009C1F9C1F9C1D9C1D9C1D9C1D9C3CF80079
:103D2000000000000000000FF81C701C701C701CCC
:103D3000701C701FF00FF01C701C701C7038780025
:103D400000000000000000001807F80F000E000E31
:103D5000000FF00E380E380E380E380E3807F0000F
:103D60000000000000000000000000000000001F34
:103D7000F00E380E380FF00E380E380E381FF000E7
:103D80000000000000000000000000000000001F14
:103D9000F81C381C001C001C001C001C001C00002F
:103DA000000000000000000000000000000000070C
:103DB000F00E700E700E700E700E700E701FF810F8
:103DC000080000000000000000000006C000000F16
:103DD000E01C701C701FF01C001C701C700FE000B9
:103DE00000000000000000000000000000000019BA
:103DF000CC19CC19CC0DD807F00DD819CC19CC00A2
:103E00000000000000000000000000000000000FA3
:103E1000E01C70007003E0007000701C700FE00088
:103E20000000000000000000000000000000001C76
:103E3000701C701C701CF01D701E701C701C7000BB
:103E4000000000000000000000000001C000000EA3
:103E5000380E380E380E780EB80F380E380E38007F
:103E60000000000000000000000000000000000E44
:103E7000380E380E700FE00E700E380E380E380007
:103E8000000000000000000000000000000000032F
:103E9000F80738073807380738073807380E38006A
:103EA00000000000000000000000000000000038DA
:103EB00038383838383C783AB839383838383800F3
:103EC0000000000000000000000000000000001CD6
:103ED000701C701C701C701FF01C701C701C70001B
:103EE0000000000000000000000000000000001FB3
:103EF000F01C701C701C701C701C701C701C7000FE
:103F00000000000000000000000000000000001F92
:103F1000F0139003800380038003800380038000FC
:103F20000000000000000000000000000003801FEF
:103F3000F03BB83BB83BB83BB80FF00380038003BD
:103F40008000000000000000000000000000001CD5
:103F5000701C701C701C701C701C701C701FF80092
:103F60001800000000000000000000000000001C1D
:103F7000701C701C701C700FF000700070007000DE
:103F800000000000000000000000000000000039F8
:103F90009C399C399C399C399C399C399C3FFC004C
:103FA00000000000000000000000000000000039D8
:103FB0009C399C399C399C399C399C399C3FFE002A
:103FC0000600000000000000000000000000003EAD
:103FD000002E000E000FF00E380E380E380FF000D5
:103FE0000000000000000000000000000000003899
:103FF0001C381C381C3F9C39DC39DC39DC3F9C0008
:104000000000000000000000000000000000000EA2
:10401000000E000E000FF00E380E380E380FF000B4
:104020000000000000000000000000000000000F81
:10403000E01C70007003F0007000701C700FE00056
:104040000000000000000000000000000000003838
:10405000F8399C399C399C3F9C399C399C38F80034
:104060000000000000000000000000000000000749
:10407000F80E380E380E3807F80E380E381C380097
:10408000000000005EBCE2613FDD83C29C7E20A395
:10409000FD1F419DC3217FFCA2401E5F01E3BD3E89
:1040A0006082DC237D9FC1421CFEA0E1BF5D0380D6
:1040B000DE3C62BEE0025CDF81633D7C22C09E1D6F
:1040C00043A1FF4618FAA427799BC584DA3866E530
:1040D000BB5907DB856739BAE406581947A5FB7851
:1040E00026C49A653BD987045AB8E6A7F91B45C68A
:1040F000987A24F8A6441A99C7257B3A6486D85B37
:1041000005E7B98CD2306EEDB3510F4E10F2AC2FE3
:104110007193CD114FADF3702ECC92D38D6F31B220
:10412000EC0E50AFF1134DCE90722C6D33D18F0C3D
:1041300052B0EE326C8ED0530DEFB1F0AE4C129106
:10414000CF2D73CA947628ABF517490856B4EA699F
:1041500037D58B5709EBB536688AD495CB2977F4D8
:10416000AA4816E9B7550B88D6346A2B7597C94A01
:1041700014F6A8742AC896154BA9F7B6E80A54D7BE
:10418000896B351F1C1F1E1F1E1F1F1E1F1E1F0099
:10419000002100240027002A002D003000330001F8
:1041A000010000040107010A01000020002300268D
:1041B0000029002C002F003200000100000301063E
:1041C00001090100000A0B02090C0D0E0807030487
:1041D00001000000000000000000000000000000DE
:1041E00000000000000000000000000000000012BD
:1041F000111000000000000000000000000000009E
:10420000000000000000000000010210202008084B
:104210001020401020408002010201080402010128
:104220000204081020408080402010080402018011
:104230000402018040201008040201080402010168
:104240000204081020408001020408102040800071
:10425000002200250028002B002E0031003400022F
:10426000010000050108010B01050505050705080A
:10427000080808020202020A0A08080404040401E9
:10428000010101010101010303030303030303040B
:104290000707070C0C0C0C0C0C0C0C02020202069B
:1042A000060606060606060B0B0B0B0B0B0B0B008C
:1042B000038311241FBECFEFD1E2DEBFCDBF00E0EC
:1042C0000CBF16E0A0E0B2E0E0EAFEE101E00BBFC7
:1042D00002C007900D92A836B107D9F72DE0A8E6E5
:1042E000B6E001C01D92AB30B207E1F711E2C9E5BB
:1042F000D1E200E006C021970109802FFE010E9453
:104300003F8EC835D10780E00807A9F70E94B47A2C
:104310000C944E8F0C940000CF92DF92EF92FF929C
:104320000F931F93CF93DF93CDB7DEB7CF5FD10944
:104330000FB6F894DEBF0FBECDBF81E08093210C95
:10434000E091330CF091340C908180913E0C892BDC
:10435000808365E070E080E090E00E94F05BE09197
:10436000330CF091340C908180913E0C8095892320
:1043700080836FE070E080E090E00E94F05BE0916D
:10438000330CF091340C908180913E0C892B80830A
:104390006FE070E080E090E00E94F05BE091310C13
:1043A000F091320C908180913D0C8095892380831F
:1043B00080912A0C90E08631910510F00C941E3209
:1043C000FC018827EE58FF4F8F4F0C943F8E64EA14
:1043D00070E086E40E94084563E570E087E40E948F
:1043E000084560E070E088E40E94084564E470E0FD
:1043F00089E40E94084564E070E08AE40E94084570
:1044000067E670E08BE40E94084563E370E08CE4AB
:104410000E94084567E770E08DE40E94084562E16C
:1044200070E08EE40E9408456CE470E08FE40E9426
:10443000084566E470E080E50E94084564E470E0A9
:1044400081E50E94084560E070E082E00E94084536
:1044500060E070E083E00E94084560E070E084E086
:104460000E9408456FEE70E085E00E94084560E01C
:1044700070E086E00E94084560E070E087E00E94FE
:10448000084561E070E088E00E9408456FE370E055
:1044900089E00E94084566E070E081E00E940845DE
:1044A00068EC70E086E10E94084565E970E083E20F
:1044B0000E94084565E970E084E20E9408456FEFBC
:1044C00070E085E20E94084562E070E087E20E94A9
:1044D000084562E070E088E20E94084562E070E012
:1044E00089E20E94084562E070E08AE20E94084585
:1044F00062E070E08CE20E94084562E070E08DE2CC
:104500000E94084561E070E08AE30E94084560E08F
:1045100070E08BE30E94084560EF70E08CE30E943E
:10452000084560E070E08DE30E94084561E070E0BE
:1045300080E090E00E94F05B68E370E085E30E9419
:10454000084568E770E086E30E94084568E370E08C
:104550008EE30E9408456FE070E080E40E94084509
:1045600060EF70E081E40E94084569E470E089E151
:104570000E9408456FE070E083E90E94084561E011
:1045800070E080E090E00E94F05B60E470E080E228
:104590000E94084567E070E08DE10E94084560E0F8
:1045A00070E08EE10E94084564E070E08FE10E94B7
:1045B00008456DE470E084E40E9408456EE070E018
:1045C00085E40E94084561E070E080E090E00E9490
:1045D000F05B64E070E08CE10E94084562E070E00E
:1045E00080E090E00E94F05B68E170E08BE10E9467
:1045F000084561E070E080E090E00E94F05B60E1DF
:1046000070E08BE10E94084561E070E080E090E09E
:104610000E94F05B60E870E083E40E94084562E07D
:1046200070E080E090E00E94F05B6FE770E080E96E
:104630000E94084564E070E086E20E94084561E05F
:1046400070E080E090E00E94F05B64E270E086E25F
:104650000E9408456CE270E086E20E94084561E035
:1046600070E080E090E00E94F05B6CE370E086E236
:104670000E94084562E070E087E50E94084561E01D
:1046800070E085E90E94084560E070E087E50C94E1
:10469000563089EE0E94C24460E280E00E94EC4401
:1046A00081E10E94C24464E670E080E090E00E94F4
:1046B000F05B81ED0E94C24460E080E00E94EC4427
:1046C00061E780E00E94EC4469E180E00E94EC44F4
:1046D00080ED0E94C24467E080E00E94EC4461E00B
:1046E00080E00E94EC4468E080E00E94EC4486E3B5
:1046F0000E94C24468E480E00E94EC448AE30E9485
:10470000C24465E080E00E94EC4481EC0E94C24417
:1047100060E180E00E94EC4460E180E00E94EC44B3
:1047200062E080E00E94EC4462E080E00E94EC44A1
:1047300080EC0E94C24460E080E00E94EC4465E3AB
:1047400080E00E94EC4460E080E00E94EC4460E085
:1047500080E00E94EC4461E080E00E94EC4462E072
:1047600080E00E94EC4485EC0E94C24464E080E05A
:104770000E94EC4482ED0E94C24461E080E00E940D
:10478000EC4464E480E00E94EC4488EC0E94C24463
:1047900064E080E00E94EC4467E680E00E94EC4424
:1047A00065E380E00E94EC4464E080E00E94EC4419
:1047B00068E080E00E94EC4466E080E00E94EC4407
:1047C00064E280E00E94EC4461E080E00E94EC44FE
:1047D00067E380E00E94EC4460E480E00E94EC44E7
:1047E00063E080E00E94EC4460E180E00E94EC44E1
:1047F00068E080E00E94EC4460E880E00E94EC44C5
:1048000060E080E00E94EC448AE20E94C24460E0E2
:1048100080E00E94EC4460E080E00E94EC4460E0B4
:1048200080E00E94EC446FEE80E00E94EC448BE25A
:104830000E94C24460E080E00E94EC4460E080E0BE
:104840000E94EC4461E080E00E94EC446FE880E06C
:104850000E94EC4489E20E94C2440C947F2F61E0E4
:1048600070E080E00E94084564EA78EA83E00E94F4
:10487000084560E070E08CE00E9408456CE078E05C
:104880008DE00E94084560E07BE28EE00E940845D2
:1048900067EB70E08EE10E9408456FE37BE281E008
:1048A0000E94084560E076E082E00E94084560E0F2
:1048B00070E080E10E94084560E770E681E10E94B7
:1048C000084560E070E085E00E94084560E070E027
:1048D00086E00E9408456CE17FEE86E10E94084573
:1048E00063E070E087E10E94084563E372E087E0DF
:1048F0000E94084560E070E08BE00E94084560E09F
:1049000070E08FE00E94084560E070E081E40E9462
:10491000084560E070E082E40E94084560E070E0D5
:1049200088E40E9408456FE371E089E40E9408452D
:1049300060E070E08AE40E94084560E070E08BE48B
:104940000E94084560E07FEE84E40E94084560E034
:1049500070E085E40E9408456FE371E086E40E9400
:10496000084567E077E080E30E94084564E072E074
:1049700081E30E94084564E072E082E30E940845FA
:1049800062E075E083E30E94084567E075E084E338
:104990000E94084564E072E085E30E94084564E0F7
:1049A00072E086E30E94084562E075E087E30E94BA
:1049B000084562E073E08AE30E94084562E073E024
:1049C0008BE30E94084560E070E083E20E940845A6
:1049D00060E070E084E20E94084560E070E885E2F3
:1049E0000E94084560E070E08FE40E94084560E0A6
:1049F00070E08EE40C94563060EF78E785EE0E940C
:104A0000084560E071E081E00E94084560E077E0E1
:104A100082E00E94084560E370E183E00E9408455F
:104A200060E070E084E00E94084567E072E088E0A2
:104A30000E94084560E070E089E00E94084560E05F
:104A400070E08AE00E94084560E070E08CE00E941F
:104A5000084560E070E08DE00E94084560E070E08D
:104A60008FE00E94084560E070E080E10E94084508
:104A700067E070E081E10E94084560E070E082E15B
:104A80000E94084560E070E083E10E94084561E013
:104A900070E087E00E94084568EC70E080E090E0FC
:104AA0000E94F05B60E970E180E10E94084567E2E6
:104AB00072E081E10E94084562E370E080E090E0EE
:104AC0000E94F05B6FE170E082E10E94084562E3C2
:104AD00070E080E090E00E94F05B60E075E183E1CF
:104AE0000E94084567E270E089E20E9408456DE097
:104AF00070E08BE20E94084562E370E080E090E0A5
:104B00000E94F05B60E070E080E20E94084560E097
:104B100070E081E20E94084560E070E080E30E945E
:104B2000084567E077E081E30E94084567E073E0AD
:104B300082E30E94084560E072E085E30E94084538
:104B400068E070E086E30E94084564E070E087E377
:104B50000E94084560E070E088E30E94084567E035
:104B600077E089E30E94084562E070E08CE30E94F0
:104B7000084564E07DE18DE30E94084560E070E057
:104B800080E50E9408456FEE70E081E50E940845CF
:104B900060E070E082E50E9408456FE371E083E524
:104BA0000E94084560E077EA80E60E94084561E0DF
:104BB00070E081E60E94084560E070E08AE60E94AD
:104BC000084560E070E080E80E94084560E070E021
:104BD00081E80E94084560E070E082E80E94084594
:104BE00060E070E083E80E94084560E070E084E8DF
:104BF0000E94084560E070E085E80E94084560E199
:104C000070E080E90E94084560E076E00AC160EF4C
:104C100078E785EE0E94084560E071E081E00E943F
:104C2000084560E072E082E00E94084560E370E1C0
:104C300083E00E94084560E070E084E00E9408453F
:104C400067E072E088E00E94084560E070E089E07B
:104C50000E94084560E070E08AE00E94084560E03C
:104C600070E08CE00E94084560E070E08DE00E94FA
:104C7000084560E070E08FE00E94084560E070E069
:104C800080E10E94084567E070E081E10E940845EC
:104C900060E070E082E10E94084560E070E083E13E
:104CA0000E94084561E070E087E00E94084568ECDA
:104CB00070E080E090E00E94F05B60E976E180E1E6
:104CC0000E94084567E272E081E10E94084562E3C4
:104CD00070E080E090E00E94F05B6DE070E082E1C7
:104CE0000E94084562E370E080E090E00E94F05B83
:104CF00060E072E183E10E9408456AE070E089E2C9
:104D00000E9408456DE070E08BE20E94084562E376
:104D100070E080E090E00E94F05B60E070E080E294
:104D20000E94084560E070E081E20E94084560E072
:104D300070E080E30E94084564E074E081E30E9433
:104D4000084563E070E082E30E94084565E074E096
:104D500085E30E94084568E078E086E30E94084504
:104D600067E074E087E30E94084563E073E088E34E
:104D70000E94084567E077E089E30E94084564E007
:104D800075E08CE30E94084568E078E08DE30E94BE
:104D9000084560E070E080E50E9408456FEE70E035
:104DA00081E50E94084560E070E082E50E940845C8
:104DB0006FE371E083E50E94084560E077EA80E6F2
:104DC0000E94084561E070E081E60E94084560E0CD
:104DD00070E08AE60E94084560E070E080E80E948A
:104DE000084560E070E081E80E94084560E070E0FE
:104DF00082E80E94084560E070E083E80E94084570
:104E000060E070E084E80E94084560E070E085E8BA
:104E10000E94084560E170E080E90E94084560E07A
:104E200070E082E90E94084563E371E087E00E9438
:104E300008450C941E3264E870E086E20E94084542
:104E400068E270E080E090E00E94F05B68EB70E068
:104E500086E20E94084568E270E080E090E00E94EF
:104E6000F05B6CEB70E086E20E94084564E170E064
:104E700080E090E00E94F05B60E070E080E60E94DD
:104E8000084566E070E081E60E94084560E070E059
:104E900082E60E94084568EC70E083E60E940845BF
:104EA00064E170E080E090E00E94F05B60E770E019
:104EB00083E70E94084560E070E080E40E940845B6
:104EC00060E470E081E40E94084565E470E082E4FB
:104ED0000E94084561E070E083E40E94084560E6B6
:104EE00070E084E40E94084565E070E085E40E947B
:104EF00008456CE070E086E40E94084561ED70E0D2
:104F000087E40E94084565E070E088E40E94084557
:104F100065E770E080E50E94084561E070E081E5AA
:104F20000E94084567E670E082E50E94084564E15A
:104F300070E083E50E94084562EF70E084E50E941E
:104F4000084567E070E085E50E94084563E070E091
:104F500086E50E94084569E470E087E50E940845FF
:104F600064E170E080E090E00E94F05B63E070E05C
:104F70008FE10E94084560E070E080E20E940845F1
:104F800064E270E084E20E94084564E370E085E238
:104F90000E9408456FE270E083E20E94084564E1E8
:104FA00070E080E090E00E94F05B64E470E088E1F3
:104FB0000E94084561E070E081E20E94084560E0DF
:104FC00070E081E00E94084563E070E08CE10E949F
:104FD000084566E070E089E10E94084564E170E000
:104FE00080E090E00E94F05B64E870E086E20E945E
:104FF000084568E270E080E090E00E94F05B68EBBA
:1050000070E086E20E94084568E270E080E090E08F
:105010000E94F05B6CEB70E086E20E94084564E160
:1050200070E080E090E00E94F05B60E070E082E081
:105030000E94084560E070E083E00E94084560E05F
:1050400070E084E00E9408456FEA70E085E00E940D
:10505000084560E070E086E00E94084560E070E08E
:1050600087E00E94084560E070E088E00E94084503
:105070006BED70E089E00E94084564E170E080E03B
:1050800090E00E94F05B68E070E086E10E940845D5
:1050900065E070E087E10E94084581E20E94C24419
:1050A0000C94583081EC0E94C2448FEF0E94D74488
:1050B00083E80E94D74480E40E94D74481E10E94A3
:1050C000C24464E670E080E090E00E94F05B8AEC0D
:1050D0000E94C24480E70E94D74480E00E94D744E7
:1050E00089ED0E94D74481E00E94D74481E10E946B
:1050F000D74489EC0E94C24480E90E94D74489E4E5
:105100000E94D74480E10E94D74488E20E94D7449D
:1051100088E20E94D74480E10E94D74480E00E9448
:10512000D74486E00E94D74464E170E080E090E0DC
:105130000E94F05B82EC0E94C24480E60E94D74449
:1051400081E70E94D74481E00E94D7448EE00E940C
:10515000D74485E00E94D74482E00E94D74489E08A
:105160000E94D74481E30E94D7448AE00E94D7443A
:1051700083EC0E94C24487E60E94D74480E30E94E9
:10518000D74481E60E94D74487E10E94D74488E44F
:105190000E94D74487E00E94D74485E00E94D7440C
:1051A00083E30E94D7446AE070E080E090E00E94D0
:1051B000F05B85EB0E94C24485E30E94D74480E205
:1051C0000E94D74485E40E94D74484EB0E94C244E5
:1051D00083E30E94D74485E20E94D7448CE40E9476
:1051E000D7446AE070E080E090E00E94F05B8AE3E0
:1051F0000E94C24485E00E94D74489E20E94C244D2
:105200006AE070E080E090E00E94F05B8AE20E9439
:10521000C24480E00E94D74480E00E94D74480E0EE
:105220000E94D7448FEA0E94D7448BE20E94C24476
:1052300080E00E94D74480E00E94D74480E00E9432
:10524000D7448BED5AC681E10E94C2446CE070E005
:1052500080E090E00E94F05B81EB0E94C24481E01C
:105260000E94D7448CE20E94D7448DE20E94D7442A
:1052700082EB0E94C24481E00E94D7448CE20E94EB
:10528000D7448DE20E94D74483EB0E94C24481E060
:105290000E94D7448CE20E94D7448DE20E94D744FA
:1052A00081E00E94D7448CE20E94D7448DE20E94A4
:1052B000D74484EB0E94C24487E00E94D74480EC2C
:1052C0000E94C24482EA0E94D74482E00E94D744EE
:1052D00084E80E94D74481EC0E94C24485EC0E947D
:1052E000D74482EC0E94C2448AE00E94D74480E006
:1052F0000E94D74483EC0E94C2448AE80E94D744AB
:105300008AE20E94D74484EC0E94C2448AE80E9448
:10531000D7448EEE0E94D74485EC0E94C2448EE0B2
:105320000E94D74486E30E94C24488EC0E94D7447E
:1053300080EE0E94C2448FE00E94D7448AE10E941E
:10534000D7448FE00E94D74488E10E94D7448FE27F
:105350000E94D74488E20E94D74480E20E94D7444A
:1053600082E20E94D7448FE10E94D7448BE10E94E1
:10537000D74483E20E94D74487E30E94D74480E069
:105380000E94D74487E00E94D74482E00E94D7441D
:1053900080E10E94D74481EE0E94C2448FE00E94C7
:1053A000D7448BE10E94D7448FE00E94D74487E125
:1053B0000E94D74483E30E94D7448CE20E94D744E2
:1053C00089E20E94D7448EE20E94D74480E30E9483
:1053D000D74480E30E94D74489E30E94D7448FE3F7
:1053E0000E94D74480E00E94D74487E00E94D744BF
:1053F00083E00E94D74480E10E94D7448AE20E9461
:10540000C24480E00E94D74480E00E94D74480E0FC
:105410000E94D7448FE70E94D7448BE20E94C24487
:1054200080E00E94D74480E00E94D74480E00E9440
:10543000D7448FE90E94D74480EF0E94C24481E0A4
:105440000E94D74486EF0E94C24480E00E94D74465
:105450008AE30E94C24485E00E94D744ECC781E001
:105460000E94C24485E20E94C24480E40E94D74464
:1054700081E10E94C2446AE070E080E090E00E9416
:10548000F05B80E20E94C24488E30E94C24489E249
:105490000E94C24483E10E94C24486E30E94C24447
:1054A00080E60E94D7448AE30E94C24485E00E94BD
:1054B000D7448AE20E94C24480E00E94D7448FE72A
:1054C0000E94D74484EB0E94C24483E00E94D744E8
:1054D00088E00E94D7448BE00E94D7448EE00E946F
:1054E000D7448AEB0E94C24487E00E94D7448DE0F3
:1054F0000E94D7448BE20E94C24480E00E94D744BD
:105500008FE7FBC481E10E94C24483E10E94C24450
:1055100089E20E94C24480EB0E94C24485E00E945E
:10552000D74480E00E94D74480EF0E94D7448AE0AD
:105530000E94D74481E40E94D74482E00E94D7446D
:105540008AE00E94D74480E30E94D74481E30E940E
:10555000D74486E30E94D74487E30E94D74480E47F
:105560000E94D74482E00E94D7448FE30E94D74430
:1055700080E40E94D74482E00E94D74481E80E94E0
:10558000D74484E00E94D74485E00E94D74484E653
:105590000E94D7448CEF0E94C24488E80E94D744FE
:1055A00080E00E94D74480E10E94D74481E00E94BD
:1055B000D74481E00E94D74480E10E94D74482E42E
:1055C0000E94D74482E40E94D74482E20E94D744DA
:1055D00081E10E94D74481E10E94D74482E20E9487
:1055E000D74489E90E94D7448AEA0E94D7448AEACC
:1055F0000E94D7448AEA0E94D7448BEB0E94D7448A
:105600008BEB0E94D7448AEA0E94D74483E30E942E
:10561000D74483E30E94D74481E10E94D74481E0CC
:105620000E94D74481E00E94D74481E00E94D74481
:1056300080E00E94D74480E00E94D74480EC0E9422
:10564000D74480E00E94D74480E00E94D74480E0A5
:105650000E94D74480E00E94D7448DEF0E94C2444C
:1056600088E80E94D74480E00E94D74480E10E94ED
:10567000D74481E00E94D74481E00E94D74480E172
:105680000E94D74482E40E94D74482E40E94D74417
:1056900082E20E94D74481E10E94D74481E10E94C6
:1056A000D74482E20E94D74489E90E94D7448AEA1B
:1056B0000E94D7448AEA0E94D7448AEA0E94D744CB
:1056C0008BEB0E94D7448BEB0E94D7448AEA0E945E
:1056D000D74483E30E94D74483E30E94D74481E107
:1056E0000E94D74481E00E94D74481E00E94D744C1
:1056F00081E00E94D74480E00E94D74480E00E946D
:10570000D74480E00E94D74480E00E94D74480E0E4
:105710000E94D74480E00E94D74483E00E94D7448F
:105720008EEB0E94C24480E00E94D74485E10E9433
:10573000D74486E10E94D74488E00E94D74489E09C
:105740000E94D74485E10E94D74480E10E94D7445B
:1057500080E00E94D74480E00E94D74480E00E940D
:10576000D74480EC0E94C2448EE00E94D74481E07E
:105770000E94D74480E00E94D74480E00E94D74432
:1057800080E00E94D74481EC0E94C2448FE20E94D4
:10579000D74483E20E94D74484EB0E94D7448FEF22
:1057A0000E94D74484E20E94D74483E00E94D744F9
:1057B00080E20E94D74482E00E94D74482E00E94A7
:1057C000D74482E00E94D74480E20E94D74480E21E
:1057D0000E94D74480E00E94D74482EC0E94C244D9
:1057E00083E00E94D74486E20E94C24488E00E947F
:1057F000D74485E30E94C24486E30E94C24484E603
:105800000E94D7448AE30E94C24485E00E94D744A4
:105810008AE20E94C2446FE381E00E94EC448BE282
:105820000E94C2448FEE0E94D7448CE20E94C24480
:105830008DE20E94C24410E0812F0E94D7441E5F77
:105840001034D1F710E0812F0E94D7441F5F10342D
:10585000D1F710E0812F0E94D7441E5F1034D1F79A
:10586000EDC583E80E94C24482E00E94D74485E8E7
:105870000E94C24483E00E94D7448BE80E94C24445
:1058800081E00E94D7448CE80E94C24483E90E94D0
:10589000D74481E90E94C24481E00E94D74483E852
:1058A0000E94C24480E00E94D7448EE30E94C2441A
:1058B00080EB0E94D7448FE30E94C24483E00E94A1
:1058C000D74480E40E94C24480E10E94D74481E42E
:1058D0000E94C24486E50E94D74482E40E94C244EA
:1058E00083E10E94D74483E40E94C24486E40E947C
:1058F000D74484E40E94C24483E20E94D74485E4F2
:105900000E94C24486E70E94D74486E40E94C244B3
:1059100080E00E94D74487E40E94C2448EE50E9442
:10592000D74488E40E94C2448FE40E94D74489E4AB
:105930000E94C24480E40E94D74487E10E94C2448E
:1059400081E90E94D7448BE20E94C24489EF0E9401
:10595000D7446AE070E080E090E00E94F05B8BE169
:105960000E94C24484E10E94D7448AE10E94C2445A
:1059700081E10E94D7448CE10E94C24486E00E94EB
:10598000D7448FE10E94C24482E40E94D74464E17C
:1059900070E080E090E00E94F05B89E10E94C244E8
:1059A0008AE00E94D74489E10E94C2448AE10E94B1
:1059B000D74468E270E080E090E00E94F05B89E10B
:1059C0000E94C24482E10E94D74468E270E080E015
:1059D00090E00E94F05B8EE10E94C24487E20E9448
:1059E000D74464E670E080E090E00E94F05B84E2DF
:1059F0000E94C24480E60E94D7448DE30E94C244C4
:105A000080E40E94D74484E30E94C24488E30E9459
:105A1000D74485E30E94C24488E30E94D74484E2CD
:105A20000E94C24488E30E94D74468E270E080E0AC
:105A300090E00E94F05B84E20E94C2448CE30E94EA
:105A4000D74486E10E94C2448CE10E94D74481E0A1
:105A50000E94C24486E00E94D74485E50E94C24469
:105A600080E00E94D74482E00E94C24480E00E940D
:105A7000D74483E00E94C24480E00E94D74484E07F
:105A80000E94C24480E00E94D74485E00E94C24444
:105A90008FEE0E94D74486E00E94C24480E00E94BC
:105AA000D74487E00E94C24480E00E94D74488E047
:105AB0000E94C24481E00E94D74489E00E94C2440F
:105AC0008FE80E94D744F4C282EE0E94C24483E26F
:105AD0000E94D74482E00E94D74484E50E94D744C4
