:100000000C9468010C9490010C9490010C94EE07F0
:100010000C94EE070C94EE070C9490010C94900154
:100020000C9490010C9490010C9490010C9490010C
:100030000C9490010C9490010C9490010C949001FC
:100040000C945D040C9490010C9469030C9443038C
:100050000C9490010C9490010C9490010C949001DC
:100060000C94F8070C949001780F8D0F8D0F8C0F66
:100070008D0F6A0F8D0F8D0F8D0F6C0F8D0F8D0FE4
:100080007F0F8A0F880F8D0F8D0F8D0F860F036ED8
:10009000DB363D9A9999993DABAAAA2A3E00000009
:1000A000803F084AD73B3BCE016E84BCBFFDC12FC9
:1000B0003D6C74319ABD56833DDA3D00C77F11BE59
:1000C000D9E4BB4C3E916BAAAABE000000803F075A
:1000D0002C7AA5BA6CC590DA3B9365FC8BBC53F8BF
:1000E00010FD3C5692834DBD879D3AB63DCBC9BFAE
:1000F0005BBE73DA0FC93F05A84CCDB2D44EB938F8
:1001000036A9020C50B9918688083CA6AAAA2ABE34
:10011000000000803F0664EC1B3C04BC163E3BE53F
:10012000B93CC93C37C29E5A3D660498083EEA690C
:10013000AAAA3E000000803F000000002300260025
:100140002900005EBCE2613FDD83C29C7E20A3FDEE
:100150001F419DC3217FFCA2401E5F01E3BD3E60A5
:1001600082DC237D9FC1421CFEA0E1BF5D0380DED7
:100170003C62BEE0025CDF81633D7C22C09E1D4389
:10018000A1FF4618FAA427799BC584DA3866E5BB37
:100190005907DB856739BAE406581947A5FB782665
:1001A000C49A653BD987045AB8E6A7F91B45C69897
:1001B0007A24F8A6441A99C7257B3A6486D85B0549
:1001C000E7B98CD2306EEDB3510F4E10F2AC2F71F7
:1001D00093CD114FADF3702ECC92D38D6F31B2EC25
:1001E0000E50AFF1134DCE90722C6D33D18F0C5257
:1001F000B0EE326C8ED0530DEFB1F0AE4C1291CF09
:100200002D73CA947628ABF517490856B4EA6937B6
:10021000D58B5709EBB536688AD495CB2977F4AAE4
:100220004816E9B7550B88D6346A2B7597C94A1416
:10023000F6A8742AC896154BA9F7B6E80A54D789C8
:100240006B3500000000240027002A000000000099
:10025000250028002B000404040404040404020202
:100260000202020203030303030301020408102035
:100270004080010204081020010204081020000040
:100280000008000201000003040700000000000055
:1002900000001F1C1F1E1F1E1F1F1E1F1E1F537925
:1002A0007374656D20696E697469616C697A6174D3
:1002B000696F6E204F4B212E0032323A32383A3479
:1002C00039004D61792031302032303137008B17C1
:1002D00011241FBECFEFD8E0DEBFCDBF13E0A0E0FA
:1002E000B1E0E8E3F9E302C005900D92A83FB10741
:1002F000D9F726E0A8EFB3E001C01D92A832B207FB
:10030000E1F711E0C8E6D1E004C02197FE010E94A8
:10031000611CC736D107C9F70E94CB0E0C949A1CFA
:100320000C940000FC01918D828D981761F0828DF4
:10033000DF01A80FB11D5D968C91928D9F5F9F7319
:10034000928F90E008958FEF9FEF0895FC01918DBB
:10035000828D981731F0828DE80FF11D858D90E028
:1003600008958FEF9FEF0895FC01918D228D892FC5
:1003700090E0805C9F4F821B91098F7399270895AD
:1003800087EE94E00E94B40121E0892B09F420E07B
:10039000822F0895FC01848DDF01A80FB11DA35A9F
:1003A000BF4F2C91848D90E001968F739927848F95
:1003B000A689B7892C93A089B1898C9180648C938C
:1003C000938D848D981306C00288F389E02D808177
:1003D0008F7D80830895EF92FF920F931F93CF93A9
:1003E000DF93EC0181E0888F9B8D8C8D981305C085
:1003F000E889F989808185FD24C0F62E0B8D10E0F7
:100400000F5F1F4F0F731127E02E8C8DE8120CC069
:100410000FB607FCFACFE889F989808185FFF5CF0F
:10042000CE010E94CA01F1CF8B8DFE01E80FF11DB4
:10043000E35AFF4FF0820B8FEA89FB89808180624B
:1004400007C0EE89FF896083E889F989808180642B
:10045000808381E090E0DF91CF911F910F91FF9019
:10046000EF900895CF93DF93EC01888D8823C9F036
:10047000EA89FB89808185FD05C0A889B9898C91AD
:1004800086FD0FC00FB607FCF5CF808185FFF2CF48
:10049000A889B9898C9185FFEDCFCE010E94CA0150
:1004A000E7CFDF91CF91089580E090E0892B29F08C
:1004B0000E94C00181110C94000008953FB7F89488
:1004C0008091420490914304A0914404B09145046A
:1004D00026B5A89B05C02F3F19F00196A11DB11D9F
:1004E0003FBFBA2FA92F982F8827820F911DA11DDA
:1004F000B11DBC01CD0142E0660F771F881F991F17
:100500004A95D1F70895089585ED8093BC008091B8
:10051000BC0084FDFCCF1092C204089540911A04DF
:10052000262F30E0240F311D21323105DCF42091DB
:10053000C2042430C9F4FC0180E090E0861758F42E
:1005400030911A042191DC01A850BC4FA30FB11DBA
:100550002C930196F3CF80911A04680F60931A04CC
:1005600080E0089581E0089582E008950895E09183
:100570007B0480917A04E81730F4F0E0E458FB4FF4
:10058000808190E008958FEF9FEF089590917B0414
:1005900080917A04981750F4E92FF0E0E458FB4F6B
:1005A000208130E09F5F90937B0402C02FEF3FEFEC
:1005B000C901089580917A0490E020917B04821B08
:1005C00091090895CF92DF92EF92FF920F931F93BC
:1005D000CF93DF937C01262F972F8A018091C3044C
:1005E000882391F0C62FD72F6E01C40ED51ECC15CF
:1005F000DD0571F06991D701ED91FC910190F081D9
:10060000E02DC7010995F3CF642F822F0E948E023F
:10061000C801DF91CF911F910F91FF90EF90DF9074
:10062000CF900895CF93DF931F92CDB7DEB7698344
:100630002091C3042223D1F02091E604203240F01F
:1006400021E030E0FC013383228380E090E015C09C
:100650008091C404E82FF0E0EB53FB4F9981908325
:100660008F5F8093C4048093E60405C061E0CE01EF
:1006700001960E948E0281E090E00F90DF91CF9171
:1006800008950E94951C1F920F920FB60F9211248D
:100690002F933F934F935F936F937F938F939F938A
:1006A000AF93BF93EF93FF9387EE94E00E94CA014C
:1006B000FF91EF91BF91AF919F918F917F916F913A
:1006C0005F914F913F912F910F900FBE0F901F9010
:1006D00018951F920F920FB60F9211242F938F939C
:1006E0009F93EF93FF93E091F704F091F8048081DA
:1006F000E091FD04F091FE0482FD12C09081809192
:1007000000058F5F8F7320910105821751F0E091F2
:100710000005F0E0E951FB4F958F8093000501C083
:100720008081FF91EF919F918F912F910F900FBE3C
:100730000F901F90189590E0FC01E258FD4F349106
:10074000FC01E659FD4F2491FC01EA5AFD4FE4916A
:10075000EE2309F43BC0332339F1333091F038F400
:100760003130A9F0323001F584B58F7D12C03730B9
:1007700091F03830A1F03430B9F4809180008F7D51
:1007800003C0809180008F77809380000DC084B576
:100790008F7784BD09C08091B0008F7703C08091AE
:1007A000B0008F7D8093B000F0E0EE0FFF1FE45BA0
:1007B000FD4FA591B4918FB7F894EC91611103C0EE
:1007C00020952E2301C02E2B2C938FBF0895CF93FD
:1007D000DF9390E0FC01E659FD4F2491FC01EA5AB9
:1007E000FD4F8491882361F190E0880F991FFC01EF
:1007F000EE5BFD4FC591D491FC01E45BFD4FA591EB
:10080000B491611109C09FB7F89488812095822323
:100810008883EC912E230BC0623061F49FB7F8946B
:100820003881822F809583238883EC912E2B2C9303
:100830009FBF06C08FB7F894E8812E2B28838FBF07
:10084000DF91CF9108958F929F92AF92BF92CF92F6
:10085000DF92EF92FF926B017C010E945E024B01DE
:100860005C01C114D104E104F104F1F00E945E02C4
:10087000DC01CB0188199909AA09BB09883E93407C
:10088000A105B10570F321E0C21AD108E108F10811
:1008900088EE880E83E0981EA11CB11CC114D104FF
:1008A000E104F10419F7DDCFFF90EF90DF90CF90D6
:1008B000BF90AF909F908F9008951F920F920FB6A8
:1008C0000F9211242F933F938F939F93AF93BF93D6
:1008D00080914A0490914B04A0914C04B0914D0436
:1008E0003091410423E0230F2D3720F40196A11D00
:1008F000B11D05C026E8230F0296A11DB11D20934E
:10090000410480934A0490934B04A0934C04B09309
:100910004D048091420490914304A0914404B0910D
:1009200045040196A11DB11D809342049093430498
:10093000A0934404B0934504BF91AF919F918F91D0
:100940003F912F910F900FBE0F901F901895CF924F
:10095000DF92EF92FF92CF93DF93EC01C0904604B9
:10096000D0904704E0904804F09049042FB7F894E1
:1009700060914A0470914B0480914C0490914D0415
:100980002FBF28EE33E040E050E00E943F1CD7012B
:10099000C601820F931FA41FB51FBC01CD01605873
:1009A00073448D4698432CE3C22ED12CE12CF12CBC
:1009B000A70196010E943F1C6D83CA01B901A701DE
:1009C00096010E943F1C6C83CA01B90128E130E006
:1009D00040E050E00E943F1C6B83188263E97EEF89
:1009E0008881482F437091E009F090E0492F50E052
:1009F000FA01E359FE4F2E173F0740F0FB01E41BBD
:100A0000F50B2E0F3F1F8F5F8883EACF81E089832C
:100A10008981E82FF0E0EF56FD4FE491992319F01A
:100A2000823009F4EF5FF0E02E173F0720F02E1B15
:100A30003F0B8F5FECCF2F5F2A83CE01DF91CF91E9
:100A4000FF90EF90DF90CF900895FC01908190533C
:100A50009A3008F090E0818180532AE0929F800DC7
:100A600011240895DC01E0E0615038F08D91E82711
:100A7000F0E0EE5BFE4FE491F7CF8E2F0895FC017E
:100A800090810180F281E02DF8948181892B81830E
:100A90002281892F809528232283A7E0B0E0119737
:100AA000F1F7218182238183A3E2B0E01197F1F76E
:100AB00080817894EFECF0E03197F1F7982381E0B2
:100AC00009F480E00895FC0190810180F281E02D1D
:100AD000892F809560FF12C0F8942281822382833F
:100AE0008181892B8183A3E2B0E01197F1F78281A4
:100AF000982B9283789487ED90E011C0F89422812E
:100B0000822382838181892B8183AFEFB0E01197AB
:100B1000F1F78281982B928378948FE090E001978F
:100B2000F1F70895CF92DF92EF92FF920F931F9308
:100B3000CF93DF931F92CDB7DEB76C01E62E08E0AE
:100B400010E0FF24F39461E08F2D8E2109F460E022
:100B5000C60149830E946305FF0C015011094981B8
:100B60000115110581F7411115C0F894D6011196B0
:100B7000ED91FC91129791818C91809589238183CD
:100B80001196ED91FC91129792818C918095892319
:100B9000828378940F90DF91CF911F910F91FF90F6
:100BA000EF90DF90CF900895CF92DF92EF92FF9277
:100BB0000F931F93CF93DF931F92CDB7DEB78C01B6
:100BC000F62E40E065E579830E949205CF2C79816D
:100BD000D72E760188E0E80EF11CF60161916F01D5
:100BE00040E0C8010E949205CE14DF04B1F70F90D7
:100BF000DF91CF911F910F91FF90EF90DF90CF90F9
:100C00000895FC0190810180F281E02DF8948181AA
:100C1000292F20958223818378948DE743E050E04B
:100C2000815021F1DA011197F1F730813923C1F3B5
:100C3000F8948281822382838181892B81837894B5
:100C4000ABE7B7E01197F1F7F8948181282321836E
:100C5000A3E1B1E01197F1F78081982381E009F0D9
:100C600080E07894E3E6F6E03197F1F708956F922B
:100C70007F928F929F92AF92BF92CF92DF92EF922C
:100C8000FF920F931F93CF93DF931F92CDB7DEB7E1
:100C90008C01F42EFC018581968159830E94D40534
:100CA00040E06EEBF801858196810E9492056F2CE1
:100CB0005981752E5301F9E0AF0EB11CF801858002
:100CC000968088E0C82ED12CEE24E394F12CC40148
:100CD0000E943F058111FE28EE0CF1E0CF1AD108E9
:100CE000B1F7F301F1923F01EA15FB0539F7F8017D
:100CF000858196810E94010691E0813009F090E0A3
:100D0000892F0F90DF91CF911F910F91FF90EF905E
:100D1000DF90CF90BF90AF909F908F907F906F901B
:100D200008950F931F93CF93DF93EC01162F60E08C
:100D3000812F0E94E703612F70E0FB01E659FD4F10
:100D4000E491E883FB01EA5AFD4FE491F0E0EE0FF5
:100D5000FF1FE85CFE4F859194919A8389831B86DF
:100D60001D861C86FE013B968E010D5F1F4F129261
:100D7000E017F107E1F7DF91CF911F910F910895EF
:100D8000CF93DF93EC018D819E810E94010640E0AC
:100D90006CEC8D819E810E949205488164E48D8176
:100DA0009E810E9492058A818823B1F0E981E950F1
:100DB000E33040F4F0E0EE0FFF1FE251FD4F6081A1
:100DC000718102C06EEE72E0072E000C880B990B49
:100DD000DF91CF910C942304DF91CF910895EF928E
:100DE000FF920F931F93CF93DF9300D0CDB7DEB761
:100DF0008C017A01FC018581968169837A830E9446
:100E0000010669817A81882371F0A701C8010E94D7
:100E10003706882341F068E0C7010E94320591E05F
:100E2000F7012085821390E0892F0F900F90DF91BA
:100E3000CF911F910F91FF90EF900895CF93DF9383
:100E4000CDB7DEB729970FB6F894DEBF0FBECDBF82
:100E5000FB0120812031D1F0AE014F5F5F4F0E9436
:100E6000EF06882389F08D818F3361F020F48F3174
:100E700059F489E00CC08F3519F08F3739F004C070
:100E80008BE005C08AE003C080E001C08CE02996B9
:100E90000FB6F894DEBF0FBECDBFDF91CF9108959E
:100EA000EF92FF920F931F93CF93DF93CDB7DEB7EF
:100EB00061970FB6F894DEBF0FBECDBF8C01DC0189
:100EC0001596ED91FC911697138615861486DF0111
:100ED0001B9633961E92AE17BF07E1F7F8011482F6
:100EE000FF24F394BE01665F7F4FF80185819681F0
:100EF0000E94920A882309F464C067E0CE010A9632
:100F00000E94320599898913EDCFD8018C91811106
:100F100026C015968D919C9116970E940106BE01E0
:100F2000665F7F4FF801858196810E94D40540E07D
:100F300064EBD80115968D919C9116970E949205AD
:100F4000F801858196810E943F05E82ED80115960B
:100F50008D919C9116970E940106EE2079F1F8017F
:100F6000858196810E940106882349F0AE014F5F7A
:100F70005F4FBE01665F7F4FC8010E943706D801F0
:100F80001196EC90BE01665F7F4FC8010E941E075C
:100F90008E1518F4F801818106C0BE01665F7F4F8F
:100FA000C8010E941E07D80111968C9311971496C0
:100FB0008C9114978F5F14968C9394CFD801FC92E8
:100FC000CECF61960FB6F894DEBF0FBECDBFDF91D6
:100FD000CF911F910F91FF90EF9008951F920F9264
:100FE0000FB60F9211240F900FBE0F901F901895FF
:100FF0001F920F920FB60F9211242F933F934F938E
:101000005F936F937F938F939F93AF93BF93EF9370
:10101000FF938091B900887F803609F49CC068F501
:10102000883209F45BC090F4803109F454C038F47C
:10103000882309F4F6C0883009F44DC0F6C0883121
:1010400009F44CC0803209F45DC0EFC0803409F46B
:1010500068C048F4803309F455C0883309F0E5C00E
:101060008093C004D8C0803509F44FC0883509F496
:101070005DC0883409F0D9C0D6C0883909F4C7C02A
:10108000A8F4883709F467C038F4883609F463C0D7
:10109000803709F460C0C9C0883809F4B8C0803905
:1010A00009F45FC0803809F0C0C05BC0803B09F420
:1010B00086C038F4803A09F466C0883A09F47FC0E3
:1010C000B4C0803C09F4A7C0883C09F4A4C0883BA4
:1010D00009F48AC0AAC080919D0410C09091BF04F9
:1010E0008091BE04981770F5E091BF0481E08E0FE7
:1010F0008093BF04F0E0E256FB4F80818093BB00F9
:1011000085EC86C08093C0048EC0E091BF0481E06E
:101110008E0F8093BF048091BB00F0E0E256FB4F3E
:1011200080839091BF048091BE046EC0E091BF04A3
:1011300081E08E0F8093BF048091BB00F0E0E25607
:10114000FB4F80838091C10481116DC081E0809349
:101150009C0484EA61C083E08093C20410923E0440
:10116000CFCF80913E04803208F051C0E0913E0420
:1011700081E08E0F80933E048091BB00F0E0E25E40
:10118000FB4F8083BDCF85EC8093BC001092C204DE
:1011900080913E04803230F4E0913E04F0E0E25E63
:1011A000FB4F108260913E0470E0E0911C04F091CE
:1011B0001D048EE194E0099510923E0436C084E04F
:1011C0008093C20410921B0410921A04E091180438
:1011D000F0911904099580911A04811105C081E0EC
:1011E00080931A041092F803E0911B0481E08E0FA3
:1011F00080931B04F0E0E850FC4F80818093BB009B
:1012000090911B0480911A04981708F479CF85E80F
:101210008093BC000AC085EC8093BC001092C2048D
:1012200004C01092C0040E948402FF91EF91BF910C
:10123000AF919F918F917F916F915F914F913F916E
:101240002F910F900FBE0F901F9018950F931F9323
:10125000CF93DF93CDB7DEB7A8970FB6F894DEBF74
:101260000FBECDBF6130710521F428E2EEE0F1E060
:1012700006C062307105C9F428E2E6E3F1E0DE0160
:10128000119601900D922A95E1F7FC01EE0FFF1FD8
:10129000EE0FFF1F21E030E02C0F3D1FE20FF31F88
:1012A000008111812281338154C063307105C9F4FA
:1012B00028E2EEE5F1E0DE01119601900D922A950B
:1012C000E1F7FC01EE0FFF1FEE0FFF1F21E030E002
:1012D0002C0F3D1FE20FF31F00811181228133810A
:1012E00054C064307105C9F428E2E6E8F1E0DE019B
:1012F000119601900D922A95E1F7FC01EE0FFF1F68
:10130000EE0FFF1F21E030E02C0F3D1FE20FF31F17
:10131000008111812281338154C065307105C9F487
:1013200028E2EEEAF1E0DE01119601900D922A9595
:10133000E1F7FC01EE0FFF1FEE0FFF1F21E030E091
:101340002C0F3D1FE20FF31F008111812281338199
:1013500046C066307105C9F428E2E6EDF1E0DE0131
:10136000119601900D922A95E1F7FC01EE0FFF1FF7
:10137000EE0FFF1F21E030E02C0F3D1FE20FF31FA7
:10138000008111812281338131C067307105C9F438
:1013900028E2EEEFF1E0DE01119601900D922A9520
:1013A000E1F7FC01EE0FFF1FEE0FFF1F21E030E021
:1013B0002C0F3D1FE20FF31F008111812281338129
:1013C0001CC06830710521F428E2E6E2F2E01BC09F
:1013D0006930710521F428E2EEE4F2E014C06A30CD
:1013E000710521F428E2E6E7F2E00DC06B307105EB
:1013F00021F428E2EEE9F2E006C06C307105B9F4A0
:1014000028E2E6ECF2E0DE01119601900D922A95B9
:10141000E1F7880F991F880F991FE1E0F0E0EC0FCA
:10142000FD1FE80FF91F0081118122813381C9015D
:10143000B801A8960FB6F894DEBF0FBECDBFDF91FE
:10144000CF911F910F910895009769F0FC010190D1
:101450000020E9F73197AF01481B590BBC0187EE1B
:1014600094E00C94340D80E090E0089589EE93E0D0
:101470000C94240ACF93DF930E94240AEC010E946B
:10148000360A8C0F9D1FDF91CF9108958F929F9206
:10149000AF92BF920F931F93CF93DF93CDB7DEB779
:1014A000A1970FB6F894DEBF0FBECDBF19A2423090
:1014B00008F44AE08E010F5D1F4F842E912CA12C61
:1014C000B12CA50194010E943F1CE62FB901CA016D
:1014D00001501109EA3014F4E05D01C0E95CD80163
:1014E000EC93232B242B252B61F7C8010E94240A9F
:1014F000A1960FB6F894DEBF0FBECDBFDF91CF919E
:101500001F910F91BF90AF909F908F900895E091A1
:10151000E704F091E8040190F081E02D682F87EE58
:1015200094E00994AF92BF92CF92DF92EF92FF9234
:101530000F931F93CF93DF931F92CDB7DEB75C015C
:10154000D62EE72EFC018585811105C0C5010E94BC
:101550000106811106C0F50113861586148680E008
:1015600065C040E060EFC5010E94920501E0F12CEA
:10157000C12C11E0C5010E943F05682FC501698398
:101580000E943F056981613019F48130B9F433C09C
:101590004F2D50E068131BC0F5018385181730F4F8
:1015A000E40FF51F8381802349F402C0181731F03E
:1015B00060E0193058F4F501148708C0F501EF0D0B
:1015C000F11D8381802B838361E009C0C12EF50169
:1015D000E40FF51F9381802F809589238383C501B4
:1015E0000E9463051F5F000F11F4F39401E0F7E020
:1015F000FF1508F0BFCF113408F4ADCFF501C38655
:10160000C11002C081E08587F5018381882309F438
:10161000A2CFD5011396ED2DFE2D9501255F3F4FED
:101620008D918193A217B307D9F781E00F90DF91D5
:10163000CF911F910F91FF90EF90DF90CF90BF90CF
:10164000AF900895CF93DF93EB01DC011596ED91F8
:10165000FC911697138615861486DF011B96339628
:101660001E92AE17BF07E1F7BE01FC01858196818E
:101670000E94920A882349F067E0CE010E94320559
:101680009F81891302C081E001C080E0DF91CF918A
:1016900008950F931F93CF93DF93CDB7DEB7619774
:1016A0000FB6F894DEBF0FBECDBF8C01BE01665FE2
:1016B0007F4F0E94220B811105C060E070E08EEF29
:1016C00092EC4BC0AE014F5F5F4FBE01665F7F4F34
:1016D000C8010E94EF06882359F1698148E0649FA0
:1016E000B00111248A81282F30E0322F2227330FB6
:1016F000330F330F262B372B8A858031E1F4688531
:1017000070E08F81AB01481B5109CA019695982F53
:101710008827979587950E942B1C60517109207F1F
:1017200053E0220F331F5A95E1F7620F731F04C075
:1017300060E874EE01C0B901613854EE75070CF42D
:10174000BCCF072E000C880B990B0E94D61920E005
:1017500030E040E05CE30E942D1B61960FB6F894E8
:10176000DEBF0FBECDBFDF91CF911F910F910895C6
:101770004F925F926F927F928F929F92AF92BF92A1
:10178000CF92DF92EF92FF926B017C01B42E9B010E
:10179000AC010E94111C882319F08CEE93E027C045
:1017A00026013701E89477F82FEF3FEF4FE75FE727
:1017B000C301B2010E94111C81110DC02FEF3FEF38
:1017C0004FE75FE7C301B2010E94291918161CF404
:1017D00080EF93E00CC02FEF3FEF4FE75FE4C701CE
:1017E000B6010E94201B181684F484EF93E0FF904A
:1017F000EF90DF90CF90BF90AF909F908F907F90B1
:101800006F905F904F900C94240A2FEF3FEF4FE7BB
:101810005FECC701B6010E94291987FDE6CF20E0E1
:1018200030E0A901C701B6010E94291987FF09C04C
:101830008DE20E94870A4C01F7FAF094F7F8F094D1
:1018400002C0812C912CA12C60E070E080E09FE32D
:10185000AB1441F020E030E040E251E40E94331943
:10186000A394F6CF9B01AC01C701B6010E943018CA
:101870002B013C010E94A5196B017C010E94D41927
:101880009B01AC01C301B2010E942F182B013C0146
:101890004AE0C701B6010E94460A7C01E80CF91C27
:1018A000BB2029F08EE20E94870AE80EF91EDB2C8D
:1018B000DD2021F120E030E040E251E4C301B2013B
:1018C0000E942D1B2B013C010E94A5194B01A12C4C
:1018D000B12C4AE0C501B4010E94460AE80EF91E87
:1018E000C501B4010E94D4199B01AC01C301B2012E
:1018F0000E942F182B013C01DA94DACFC701FF9028
:10190000EF90DF90CF90BF90AF909F908F907F909F
:101910006F905F904F9008950C94240A2091E604F4
:101920009091E504213208F04AC08091C2048111EF
:10193000FCCF32E03093C20431E03093C1043FEF7A
:101940003093C0041092BF042093BE04A5ECB4E011
:101950004EE954E0FA013E2F341B321718F43D9142
:101960003193F9CF10929D0420919D04990F922BF1
:1019700090939D0490919C04913061F410929C048A
:1019800090919D049093BB009091BC0093FDF8CF83
:1019900095EC01C095EE9093BC009091C2049230FA
:1019A000E1F39091C0049F3F79F08091C0048032B0
:1019B00041F08091C004803331F084E005C081E0C3
:1019C00003C082E001C083E01092C4041092E604D8
:1019D0001092C30408959091C2049111FCCF8132FA
:1019E00008F080E291E09093C2049093C1042FEF3D
:1019F0002093C0041092BF04280F2093BE0490933C
:101A00009D0490919D049C6390939D0490919C04EF
:101A1000913061F410929C0490919D049093BB00CE
:101A20009091BC0093FDF8CF95EC01C095EE90939A
:101A3000BC009091C2049130E1F39091BF049817DB
:101A400010F48091BF04AEE9B4E02CE734E0F90172
:101A50009E2F921B981718F49D919193F9CF109295
:101A60007B0480937A040895CF92DF92EF92FF92E5
:101A70000F931F93CF93DF936C017A018B01C0E02A
:101A8000D0E0CE15DF0589F0D8016D918D01D6012A
:101A9000ED91FC910190F081E02DC6010995892B13
:101AA00011F47E0102C02196ECCFC701DF91CF91E6
:101AB0001F910F91FF90EF90DF90CF9008950F93BB
:101AC0001F93CF93DF9301E00093C3041EE11093B3
:101AD000E5041092C4041092E604682F84E895E0AF
:101AE0000E9412030E948E0C0093C3041093E5041D
:101AF0001092C4041092E60482E090E00E94EB0C85
:101B000090917A0480917B049817F1F384E895E032
:101B10000E94C602082F84E895E00E94C602182F92
:101B20000E948E0CD02F80E0C82FCE01812BDF9138
:101B3000CF911F910F910895CF93C62F91E090936D
:101B4000C3049EE19093E5041092C4041092E6044D
:101B5000682F84E895E00E9412036C2F84E895E0DA
:101B60000E941203CF910C948E0CCF93DF93D1E09F
:101B7000D093C304CEE1C093E5041092C404109244
:101B8000E604682F84E895E00E9412030E948E0C00
:101B9000D093C304C093E5041092C4041092E604E9
:101BA00081E090E00E94EB0C90917A0480917B049C
:101BB0009817F1F384E895E00E94C602C82F0E94AE
:101BC0008E0C8C2FDF91CF91089582E00E94B50D8D
:101BD000682F6C7F82E00C949C0DCF9391E09093E2
:101BE000C3049EE19093E5041092C4041092E604AD
:101BF000682F84E895E00E9412030E948E0C81E019
:101C000090E00E94EB0C84E895E00E94C602C82F89
:101C10000E948E0C8C2FCF910895DF92EF92FF924D
:101C20000F931F93CF93DF93CDB7DEB729970FB6EE
:101C3000F894DEBF0FBECDBF8C017B01AE014F5FBC
:101C40005F4F0E94EF06D82E882309F459C0F70190
:101C50008081803109F454C08FE78D83F80185813C
:101C600096810E940106B701F801858196810E9444
:101C7000D40540E06EE4F801858196810E949205CA
:101C800040E06B81F801858196810E94920540E0D9
:101C90006C81F801858196810E949205F70180810F
:101CA000803139F040E06D81F801858196810E9494
:101CB0009205F801858196810E940106B701F8011D
:101CC000858196810E94D405F801408168E4858170
:101CD00096810E94920564E170E080E090E00E94AD
:101CE0002304F8018081882331F06AE070E080E00D
:101CF00090E00E942304F801858196810E940106EC
:101D00008D2D29960FB6F894DEBF0FBECDBFDF91A3
:101D1000CF911F910F91FF90EF90DF900895CF9397
:101D2000DF9342E00E94B80BEC010E94360A8C0F50
:101D30009D1FDF91CF910895CF92DF92EF92FF9296
:101D4000CF93DF936C01990FEE08FF08F7FE12C0E6
:101D50008DE20E94870AEC0166277727CB016C1978
:101D60007D098E099F094AE00E94460A7C01EC0E1B
:101D7000FD1E06C04AE0C701B6010E94460A7C016A
:101D80000E94360A8E0D9F1DDF91CF91FF90EF903C
:101D9000DF90CF900895CF93DF93CDB7DEB7AB97A9
:101DA0000FB6F894DEBF0FBECDBF789484B58260C5
:101DB00084BD84B5816084BD85B5826085BD85B5EF
:101DC000816085BD80916E00816080936E0010926D
:101DD00081008091810082608093810080918100E8
:101DE0008160809381008091800081608093800079
:101DF0008091B10084608093B1008091B0008160D7
:101E00008093B00080917A00846080937A00809102
:101E10007A00826080937A0080917A00816080935A
:101E20007A0080917A00806880937A001092C100D5
:101E3000E091F704F091F80482E08083E091F304EC
:101E4000F091F4041082E091F504F091F6048FEC27
:101E500080831092FF04E091FB04F091FC0486E083
:101E60008083E091F904F091FA048081806180839D
:101E7000E091F904F091FA04808188608083E09118
:101E8000F904F091FA04808180688083E091F9047C
:101E9000F091FA0480818F7D80834BE050E062EC0A
:101EA00072E0CE0101960E941018CE010A960E949F
:101EB0002505082FE9814E2FEE0F550B660B770B8A
:101EC000FA01E154F109E331F10538F5EC5CFF4F1B
:101ED0000C94611C12E021C08A81813639F08B811B
:101EE0008E3611F017E019C016E017C011E015C0CA
:101EF0008B81823711F018E010C014E00EC08B8186
:101F0000823711F015E009C013E007C019E005C0E1
:101F10001AE003C01BE001C01CE0CE0105960E9440
:101F20002505E82E48E050E069EB72E0CE0101960D
:101F30000E941018CE0101960E942505B82ECE01F0
:101F400004960E942505C82ECE0107960E942505FD
:101F5000D82E202F30E04E2D50E0E2E9F2E081E073
:101F60008E1B982F9E0F911728F49491490F511DA5
:101F70003196F7CF133020F0037011F44F5F5F4FAD
:101F80008DE691E0289F7001299FF00C389FF00C9E
:101F9000112401E0E01AF1082D5F3F4F3695279597
:101FA00036952795E20EF31EE40EF51E2FB7F89432
:101FB00060914A0470914B0480914C0490914D04BF
:101FC0002FBF28EE33E040E050E00E943F1C80E845
:101FD00093E4ADE6B8E32C013D01421A530A640ACA
:101FE000750A9701A8E1B0E00E94671C9B01AC0153
:101FF0002B0D311D411D511DACE3B0E00E94761C3C
:102000009B01AC012C0D311D411D511D0E94761C00
:10201000DC01CB018D0D911DA11DB11D840D951D00
:10202000A61DB71D8093460490934704A0934804CF
:10203000B093490486E096E09093CF058093CE0557
:102040001092CD051092C90599E09093CA0581E0E0
:102050008093CB058093CC0528EF35E03093BC0509
:102060002093BB051092BA051092B6059093B70560
:102070008093B8058093B9052AEE35E03093A90521
:102080002093A8051092A7051092A3059093A4058C
:102090008093A5058093A6052CED35E03093960539
:1020A00020939505109294051092900590939105B8
:1020B000809392058093930589EC95E00E945007E8
:1020C00086EB95E00E94500783EA95E00E94500756
:1020D00080E995E00E945007BE016F5F7F4F89EC59
:1020E00095E00E94220B882339F0BE016F5F7F4F7D
:1020F00089EC95E00E940D0EBE016F5F7F4F86EB6D
:1021000095E00E94220B882339F0BE016F5F7F4F5C
:1021100086EB95E00E940D0EBE016F5F7F4F83EA54
:1021200095E00E94220B882339F0BE016F5F7F4F3C
:1021300083EA95E00E940D0EBE016F5F7F4F80E93C
:1021400095E00E94220B882339F0BE016F5F7F4F1C
:1021500080E995E00E940D0E60E086E00E94E703B2
:1021600060E087E00E94E70360E088E00E94E70308
:1021700060E089E00E94E70361E086E00E949B0343
:1021800061E087E00E949B0361E088E00E949B037E
:1021900061E089E00E949B0361E08AE00E94E7031E
:1021A00061E08BE00E94E70361E08CE00E94E703BE
:1021B00061E081E10E94E70361E084E10E94E703BE
:1021C00061E085E10E94E70360E08AE00E949B03F2
:1021D00060E08BE00E949B0361E08CE00E949B0327
:1021E00061E081E10E949B0361E088E00E949B0323
:1021F00061E085E10E949B0360910A0180E090E02C
:102200000E94211880E090E00E94191890E09093BD
:102210000B0180930A0160910C0181E090E00E9423
:10222000211881E090E00E94191890E090930D0130
:1022300080930C012BED3FE049E450E460910201F2
:102240007091030180910401909105010E942D1B62
:1022500020E030E044E353E40E943319609302012C
:1022600070930301809304019093050184E193E04E
:102270000E943A0A10927B0410927A041092C404CD
:102280001092E6041092C20411E01093C10410925F
:102290009C0461E082E10E949B0361E083E10E9473
:1022A0009B038091B9008E7F8093B9008091B90023
:1022B0008D7F8093B90088E48093B80085E4809393
:1022C000BC008AE00E94ED0D883409F013C68BE053
:1022D0000E94ED0D843309F00DC68CE00E94ED0DD7
:1022E000833309F007C68FE1C82E85E8D82E8BE628
:1022F000E82E8FE3F82EC0921406D0921506E092D5
:102300001606F092170660E281E00E949C0D0E9482
:10231000E50D80E00E94B50D837E682F606180E04E
:102320000E949C0D80E00E94B50D682F6F7980E0BF
:102330000E949C0DC0921406D0921506E0921606DB
:10234000F092170660E281E00E949C0D0E94E50D6C
:1023500080E00E94B50D837E682F646180E00E945A
:102360009C0D80E00E94B50D682F606680E00E94A1
:102370009C0D1092250610922406109227061092AA
:1023800026061093630484E493E00E943A0A0EE95F
:1023900012E0F8016491611103C00E94360ABAC3C9
:1023A000E091E704F091E8040190F081E02D87EEE0
:1023B00094E009950F5F1F4F892B59F7EECF80935B
:1023C000760490937704A0937804B0937904CE01B7
:1023D00001960E94A704698170E06053784F072E30
:1023E000000C880B990B4AE00E94460A8FE20E947B
:1023F000870A6A8170E080E090E04AE00E94460A25
:102400008FE20E94870A6B8170E080E090E04AE0F2
:102410000E94460A80E20E94870A6C8170E080E098
:1024200090E04AE00E94460A8AE30E94870A6D8192
:1024300070E080E090E04AE00E94460A8AE30E9451
:10244000870A6E8170E080E090E04AE00E94460AD0
:102450000E94360ACE0101960E94A7048E818093C5
:102460004E041D8110930601DC80D0920701FB8091
:10247000F0920801EA80E0920901898190E080539E
:10248000984F90930101809300016E2D70E080E0E1
:1024900090E00E94D4192B013C016F2D70E080E088
:1024A00090E00E94D4196C877D878E879F876D2D61
:1024B00070E080E090E00E94D419688B798B8A8B61
:1024C0009B8B612F70E080E090E00E94D4196C8BB0
:1024D0007D8B8E8B9F8B20E030E040E050E4C30189
:1024E000B2010E942919882309F435C320E030E0A5
:1024F00040E450E4C301B2010E942919882309F481
:1025000031C320E030E040E850E4C301B2010E9452
:102510002919882309F42DC3812C912C540120E022
:1025200030E040EA50E4C301B2010E942919882337
:1025300009F426C320E030E040EC50E4C301B201CE
:102540000E942919882309F422C320E030E040EEDC
:1025500050E4C301B2010E942919882309F41EC363
:1025600020E030E040E051E4C301B2010E942919AB
:10257000882309F41AC320E030E040E151E4C301AC
:10258000B2010E942919882309F416C320E030E023
:1025900040E251E4C301B2010E942919882309F4E1
:1025A00012C320E030E040E351E4C301B2010E94D5
:1025B0002919882309F40FC320E030E040E451E4F6
:1025C000C301B2010E942919811106C0812C912CEE
:1025D00037EAA32E33E4B32E2C853D854E855F85E7
:1025E000C501B4010E94301820E030E04EE853E409
:1025F0000E94301820E030EA46EB53E40E94331981
:102600002BED3FE049EC50E40E942D1B0E949A1BE9
:1026100024E03DE841ED5EE30E942D1B6C877D8741
:102620008E879F8760935704709358048093590452
:1026300090935A048F2D90E09C0121503109233052
:10264000310510F480E090E09C01245031092330E2
:10265000310510F481E090E09C01275031092330CE
:10266000310510F482E090E09C012A5031092330BA
:10267000310510F483E090E09C012D5031092330A6
:10268000310510F484E090E09C01205131092330A1
:10269000310510F485E090E09C012351310923308D
:1026A000310510F486E090E09C0126513109233079
:1026B000310510F487E090E09C0129513109233065
:1026C000310510F488E090E09C012C513109243050
:1026D000310510F489E090E06E2D70E00E9426092B
:1026E0004B015C0120E030E040E752E46C897D89D9
:1026F0008E899F890E9433199B01AC016889798971
:102700008A899B890E94301820E030E040E451E43F
:102710000E942F1820E030E040E751E40E942D1B7A
:102720006B017C0121EE3AE744E152E4C501B401BA
:102730000E94301820E030E044E352E40E942F1859
:102740009B01AC01C701B6010E9430182BED3FE0A0
:1027500049E450E40E942D1B20E030E044E353E4C0
:102760000E9433194B015C0160935304709354042D
:102770008093550490935604C0900201D0900301B9
:10278000E0900401F0900501C701B6010E949A1B78
:10279000688F798F8A8F9B8F6C857D858E859F85CD
:1027A0000E949A1B9B01AC01C701B60128A739A75B
:1027B0004AA75BA70E942E196C8F7D8F8E8F9F8FEB
:1027C0006C857D858E859F850E942E196CA37DA3C7
:1027D0008EA39FA3C501B4010E942E1968A379A3FB
:1027E0008AA39BA328A539A54AA55BA5688D798DE9
:1027F0008A8D9B8D0E942D1B6B017C012CA13DA11C
:102800004EA15FA16C8D7D8D8E8D9F8D0E942D1BA5
:1028100028A139A14AA15BA10E942D1B9B01AC01FB
:10282000C701B6010E9430180E949C1820E030E0D9
:1028300044E353E40E942D1B2BED3FE049E450E4B8
:102840000E94331960934F04709350048093510495
:10285000909352046C857D858E859F850E94EC1B2C
:102860006C877D878E879F87C501B4010E949A1B64
:102870006B017C01288D398D4A8D5B8D68A179A112
:102880008AA19BA10E942D1B4B015C012C8D3D8DCB
:102890004E8D5F8D6C857D858E859F850E942D1B5D
:1028A0009B01AC01C501B4010E942F189B01AC0132
:1028B000C701B6010E94CA182BED3FE049E450E47D
:1028C0000E94301820E030E044E353E40E942D1BC6
:1028D0002BED3FE049E450E40E94331960935B0420
:1028E00070935C0480935D0490935E0488E293E0AF
:1028F0000E948C0CC301B2010E948F0E80E393E012
:102900000E948C0C6091080170E080E090E04AE049
:102910000E94460A0E94360A86E393E00E948C0CCD
:10292000688979898A899B890E948F0E8DE393E05B
:102930000E948C0C6C897D898E899F890E948F0EE4
:1029400086E493E00E943A0A60914F04709150042B
:1029500080915104909152040E948F0E8FE493E075
:102960000E943A0A60915B0470915C0480915D045E
:1029700090915E040E948F0E89EC95E00E94C00643
:1029800086EB95E00E94C00683EA95E00E94C006AF
:1029900080E995E00E94C00689EC95E00E94490B11
:1029A000609372047093730480937404909375041D
:1029B00086EB95E00E94490B60936E0470936F0460
:1029C000809370049093710483EA95E00E94490B10
:1029D00060936A0470936B0480936C0490936D040D
:1029E00080E995E00E94490B609366047093670448
:1029F000809368049093690487E593E00E943A0A03
:102A000060917204709173048091740490917504C4
:102A10000E948F0E60916E0470916F04809170041B
:102A2000909171040E948F0E60916A0470916B0402
:102A300080916C0490916D040E948F0E60916604E9
:102A40007091670480916804909169040E948F0ED0
:102A5000C0907204D0907304E0907404F0907504F8
:102A600060910C0170910D01072E000C880B990BE1
:102A70000E94D6194B015C019B01AC01C701B60154
:102A80000E94291987FDAEC060910A0170910B0167
:102A9000072E000C880B990B0E94D6192B013C01C4
:102AA0009B01AC01C701B6010E94201B18160CF453
:102AB000A5C0C0906E04D0906F04E0907004F090B8
:102AC0007104A3019201C701B6010E94291987FD73
:102AD000A1C0A5019401C701B6010E94201B1816D0
:102AE0000CF4A4C085E693E00E948C0C80916504F0
:102AF00090E00E949C0E85E693E00E948C0C8091F1
:102B0000640490E00E949C0E8091630481119AC03D
:102B10000E9454022FB7F89480914A0490914B047C
:102B2000A0914C04B0914D042FBF40917604509178
:102B3000770460917804709179048C019D01041BE5
:102B4000150B260B370BB901A801493B5B4061050A
:102B50007105F0F234CC812C912CB8EFAB2EB1E49E
:102B6000BB2EDDCC812C912CACE6AA2EA2E4BA2E91
:102B7000E1CC812C912CF4EBAF2EF2E4BF2EE5CC0E
:102B8000812C912CE0EFAE2EE2E4BE2EE9CC812C1C
:102B9000912C77E1A72E73E4B72EEDCC812C912CEC
:102BA00065E3A62E63E4B62EF1CC812C912C54E57E
:102BB000A52E53E4B52EF5CC812C912C43E7A42E01
:102BC00043E4B42EF9CC812C20E8922E28E8A22EE2
:102BD00023E4B22E01CD812C912C98E9A92E93E407
:102BE000B92EFACC8091650481114ECF81E080939B
:102BF000650460E08AE00E949B0346CF80916504F3
:102C0000882309F456CF1092650461E08AE00E949F
:102C10009B034FCF80916404811173C181E0809345
:102C2000640460E08BE00E949B0353CF80916404B6
:102C3000882309F457CF1092640461E08BE00E946E
:102C40009B0350CF83E00E945F0DBC01990F880B5E
:102C5000990B0E94D6196B017C01809124069091FA
:102C60002506BC01990F880B990B0E94D6199B0170
:102C7000AC01C701B6010E942F18209114063091B3
:102C8000150640911606509117060E942D1B609361
:102C900018067093190680931A0690931B0687E016
:102CA0000E945F0DBC01990F880B990B0E94D619E9
:102CB0006B017C018091260690912706BC01990F3B
:102CC000880B990B0E94D6199B01AC01C701B60174
:102CD0000E942F1820911406309115064091160677
:102CE000509117060E942D1B60931C0670931D06C1
:102CF00080931E0690931F0685E00E945F0DBC0125
:102D0000990F880B990B0E94D619209114063091C7
:102D1000150640911606509117060E942D1B6093D0
:102D2000200670932106809322069093230620911B
:102D300018063091190640911A0650911B066091B1
:102D40001C0670911D0680911E0690911F060E9420
:102D5000CA1823E737E74EE95DE30E9430186B019C
:102D60007C0120E030E0A9010E94291987FF0AC0F8
:102D70002BED3FE049EC50E4C701B6010E9430184A
:102D80006B017C012BED3FE049EC50E4C701B6013B
:102D90000E94201B181654F42BED3FE049EC50E440
:102DA000C701B6010E942F186B017C0120E030E0C2
:102DB00044E353E4C701B6010E942D1B2BED3FE015
:102DC00049E450E40E94331960935F0470936004F7
:102DD000809361049093620484E793E00E948C0CDA
:102DE00042E0C701B6010E94B80B80E893E00E9460
:102DF0008C0C60915F0470916004809161049091EB
:102E0000620442E00E94B80B0E94360AC0905F0440
:102E1000D0906004E0906104F090620480905B04C4
:102E200090905C04A0905D04B0905E0420E030E0DF
:102E300040E652E4C701B6010E94201B18160CF0B0
:102E400054C020E030E046E953E4C701B6010E94D7
:102E5000291987FF4AC0A5019401C701B6010E9444
:102E6000291987FF1DC0A7019601C501B4010E9461
:102E70002F1820E030E040E251E40E94201B181699
:102E80003CF461E08CE00E949B038CE893E006C078
:102E900060E08CE00E949B0381E993E00E943A0A83
:102EA000A5019401C701B6010E94201B18160CF061
:102EB0002FCEA5019401C701B6010E942F1820E072
:102EC00030E040E251E40E94201B18163CF461E01F
:102ED00081E10E949B038BE993E009C060E081E1FE
:102EE0000E949B0381EA93E002C08CEA93E00E9477
:102EF0003A0A0ECE83EB93E00E943A0A10926304E2
:102F000042CAA5019401C701B6010E94201B1816F0
:102F10000CF491CEE7CDE7EEF4E01382128288EE56
:102F200093E0A0E0B0E084839583A683B78328EF85
:102F300032E03183208325EC30E03587248724EC90
:102F400030E03787268720EC30E0318B208B21EC76
:102F500030E0338B228B22EC30E0358B248B26EC57
:102F600030E0378B268B118E128E138E148EE4E890
:102F7000F5E01382128284839583A683B78388E069
:102F800093E09183808362E086E096E00E94910660
:102F900063E088EF95E00E94910664E08AEE95E098
:102FA0000E94910665E08CED95E00E949106E9ECA7
:102FB000F5E023E832E0328B218B86E096E09683C1
:102FC00085831482108299E0918381E082838383D8
:102FD000E6EBF5E0328B218B48EF55E056834583D5
:102FE00014821082918382838383E3EAF5E0328B3B
:102FF000218B4AEE55E056834583148210829183DB
:1030000082838383E0E9F5E0328B218B2CED35E080
:10301000368325831482108291838283838308956B
:10302000FB01DC0102C005900D9241505040D8F7E1
:103030000895F999FECF92BD81BDF89A992780B580
:103040000895262FF999FECF1FBA92BD81BD20BDEC
:103050000FB6F894FA9AF99A0FBE0196089550584F
:10306000BB27AA270E9447180C94D21A0E94991ACB
:1030700038F00E94A01A20F039F49F3F19F426F48A
:103080000C945B1A0EF4E095E7FB0C94551AE92FAB
:103090000E94F71A58F3BA17620773078407950757
:1030A00020F079F4A6F50C94191B0EF4E0950B2E84
:1030B000BA2FA02D0B01B90190010C01CA01A0018A
:1030C0001124FF27591B99F0593F50F4503E68F1E5
:1030D0001A16F040A22F232F342F4427585FF3CF26
:1030E000469537952795A795F0405395C9F77EF4F7
:1030F0001F16BA0B620B730B840BBAF09150A1F040
:10310000FF0FBB1F661F771F881FC2F70EC0BA0FC5
:10311000621F731F841F48F4879577956795B7954D
:10312000F7959E3F08F0B0CF9395880F08F0992748
:10313000EE0F9795879508959F939F77EEE38937D4
:103140009E0728F4EEE8F0E00E94851A0CC00E9469
:10315000111A9058A2EA2AED3FE049EC5FE30E9481
:1031600047180E94D21A0F9007FC905808950E94A9
:10317000991A60F080E891E009F49EEF0E94A01A8D
:1031800028F040E851E071F45EEF0CC00C945B1A3B
:103190000C94191BE92FE0780E94F71A40F3092ECE
:1031A000052AB1F3261737074807590738F00E2EBE
:1031B00007F8E02569F0E025E0640AC0EF6307F84E
:1031C000009407FADB01B9019D01DC01CA01AD01E0
:1031D000EF930E944A190E94D21A0E94FA185F9136
:1031E000552339F02BED3FE049E450FD49EC0C94B8
:1031F00030180895DF93DD27B92FBF7740E85FE3EC
:103200001616170648075B0718F4D92F0E94251BCE
:103210009F938F937F936F930E94E81BE2EAF0E005
:103220000E945E1A0E94D21A2F913F914F915F9196
:103230000E94401BDD2351F09058A2EA2AED3FE0A6
:1032400049EC5FE3D0785D270E944718DF910C942A
:10325000D21A0E94311A08F481E008950E94A91A36
:10326000E3950C94E31A0E9447190C94D21A0E9419
:10327000A01A58F00E94991A40F029F45F3F29F0F3
:103280000C94551A51110C941A1B0C945B1A0E9441
:10329000F71A68F39923B1F3552391F3951B550B56
:1032A000BB27AA2762177307840738F09F5F5F4F19
:1032B000220F331F441FAA1FA9F335D00E2E3AF058
:1032C000E0E832D091505040E695001CCAF72BD070
:1032D000FE2F29D0660F771F881FBB1F26173707C1
:1032E0004807AB07B0E809F0BB0B802DBF01FF27F3
:1032F00093585F4F3AF09E3F510578F00C94551A61
:103300000C941A1B5F3FE4F3983ED4F386957795AF
:103310006795B795F7959F5FC9F7880F911D9695AB
:10332000879597F90895E1E0660F771F881FBB1F07
:10333000621773078407BA0720F0621B730B840BB4
:10334000BA0BEE1F88F7E09508950E94FF1A88F0E7
:103350009F5798F0B92F9927B751B0F0E1F0660F59
:10336000771F881F991F1AF0BA95C9F714C0B1309A
:1033700091F00E94191BB1E008950C94191B672F5E
:10338000782F8827B85F39F0B93FCCF386957795C9
:103390006795B395D9F73EF49095809570956195B2
:1033A0007F4F8F4F9F4F0895E89409C097FB3EF4DD
:1033B00090958095709561957F4F8F4F9F4F992382
:1033C000A9F0F92F96E9BB279395F6958795779500
:1033D0006795B795F111F8CFFAF4BB0F11F460FFC0
:1033E0001BC06F5F7F4F8F4F9F4F16C0882311F018
:1033F00096E911C0772321F09EE8872F762F05C02C
:10340000662371F096E8862F70E060E02AF09A95C6
:10341000660F771F881FDAF7880F9695879597F9BB
:103420000895DF93CF931F930F938B01EC01EFEC83
:10343000F0E00E945E1A0E94D21A9801AE018B0140
:10344000EC0160E070E080E89FE30E942F180E948A
:10345000A81B9801AE010F911F91CF91DF910C94A1
:10346000401B990F0008550FAA0BE0E8FEEF161657
:103470001706E807F907C0F012161306E407F50768
:1034800098F0621B730B840B950B39F40A2661F0DC
:10349000232B242B252B21F408950A2609F4A1407F
:1034A000A6958FEF811D811D089597F99F6780E88C
:1034B00070E060E008959FEF80EC0895DF93CF9374
:1034C0001F930F93FF92EF92DF927B018C01689420
:1034D00006C0DA2EEF010E94401BFE01E894A59180
:1034E0002591359145915591A6F3EF010E9447181A
:1034F000FE019701A801DA9469F7DF90EF90FF9041
:103500000F911F91CF91DF9108959F938F937F9398
:103510006F93FF93EF939B01AC010E942D1BEF91E2
:10352000FF910E945E1A2F913F914F915F910C94F1
:103530002D1B00240A94161617061806090608956E
:1035400000240A94121613061406050608950C9416
:103550005B1A0E94FF1AD8F3E894E0E0BB279F575C
:10356000F0F02AED3FE049EC06C0EE0FBB0F661FFE
:10357000771F881F28F0B23A62077307840728F084
:10358000B25A620B730B840BE3959A9572F78038ED
:1035900030F49A95BB0F661F771F881FD2F79048AB
:1035A0000C94181C092E0394000C11F4882352F07B
:1035B000BB0F40F4BF2B11F460FF04C06F5F7F4F5F
:1035C0008F4F9F4F0895EF93E0FF07C0A2EA2AEDC7
:1035D0003FE049EC5FEB0E9447180E94D21A0F901F
:1035E000039401FC9058E7EFF0E00C94851A57FD26
:1035F0009058440F551F59F05F3F71F04795880F61
:1036000097FB991F61F09F3F79F0879508951216F7
:1036100013061406551FF2CF4695F1DF08C01616A3
:1036200017061806991FF1CF869571056105089454
:103630000895E894BB2766277727CB0197F908956B
:103640000E94311A08F48FEF08959B01AC0160E0ED
:1036500070E080E89FE30C9433190E94401B0C94A7
:10366000D21A0E94991A38F00E94A01A20F09523CD
:1036700011F00C94551A0C945B1A11240C941A1B1B
:103680000E94F71A70F3959FC1F3950F50E0551FF4
:10369000629FF001729FBB27F00DB11D639FAA27A7
:1036A000F00DB11DAA1F649F6627B00DA11D661FF6
:1036B000829F2227B00DA11D621F739FB00DA11D17
:1036C000621F839FA00D611D221F749F3327A00DD1
:1036D000611D231F849F600D211D822F762F6A2F6D
:1036E00011249F5750409AF0F1F088234AF0EE0FD2
:1036F000FF1FBB1F661F771F881F91505040A9F7FF
:103700009E3F510580F00C94551A0C941A1B5F3F94
:10371000E4F3983ED4F3869577956795B795F7953A
:10372000E7959F5FC1F7FE2B880F911D96958795B2
:1037300097F908959F930E94A91A0F9007FCEE5FD6
:103740000C94E31A19F416F40C945B1A0C94161CDE
:103750000E94FF1AB8F39923C9F3B6F39F57550B8C
:1037600087FF0E94241C0024A0E640EA90018058B4
:103770005695979528F4805C660F771F881F20F078
:1037800026173707480730F4621B730B840B202978
:1037900031294A2BA69517940794202531254A27CD
:1037A00058F7660F771F881F20F02617370748073E
:1037B00030F4620B730B840B200D311D411DA0955D
:1037C00081F7B901842F9158880F969587950895B0
:1037D0009B01AC010C942D1BDF93D92F0E94A91AD9
:1037E000E695D7952AED3FE049E45FE3B33A6207F7
:1037F000730784079507D7953AF0A2EA49EC9068D9
:103800000E9447180E94D21AE5E1F1E00E94851A51
:10381000DD0F13F00E94251BDD0F0BF49058DF9194
:1038200008950E94311A880B990B08959F3F31F03B
:10383000915020F4879577956795B795880F911DDE
:103840009695879597F9089591505040660F771F88
:10385000881FD2F7089597FB072E16F4009407D01F
:1038600077FD09D00E94811C07FC05D03EF490959D
:1038700081959F4F0895709561957F4F0895A1E2BE
:103880001A2EAA1BBB1BFD010DC0AA1FBB1FEE1FDA
:10389000FF1FA217B307E407F50720F0A21BB30B25
:1038A000E40BF50B661F771F881F991F1A9469F7A1
:1038B00060957095809590959B01AC01BD01CF01FD
:1038C0000895EE0FFF1F0590F491E02D0994A29F3B
:1038D000B001B39FC001A39F700D811D1124911DE4
:1038E000B29F700D811D1124911D08950E94671CC7
:1038F000A59F900DB49F900DA49F800D911D112444
:103900000895AA1BBB1B51E107C0AA1FBB1FA61726
:10391000B70710F0A61BB70B881F991F5A95A9F778
:1039200080959095BC01CD01089581E090E0F894D8
:083930000C949A1CF894FFCFDF
:103938001000295C5E420A0A0F0341002D002FDDAA
:1039480084BF1283B0BFE7FBD9BFB07200C0FA7E54
:1039580012C0AAF122C0FCA931C08D973EC0FCA9B3
:1039680049C0E5D052C0CFF75BC0128360C0333383
:1039780063C06DE763C048E162C0621060C01F8524
:103988005BC0068155C019044EC01B2F45C0D1220B
:103998003BC0621030C0310824C0643B17C0C1CAA4
:1039A80009C0D9CEF7BF9643DBBF0456BEBFAE47AA
:1039B800A1BFE17A84BFA4703DBF79E906BF2FDDBE
:1039C800A4BE4A0C02BEAE47613D4260653E12830A
:1039D800C03E6F12033FAE47213F355E3A3F045663
:1039E8004E3F91ED5C3F54E3653F5EBA693F9EEF01
:1039F800673F9CC4603F5839543FE5D0423FCDCC27
:103A08002C3F0E2D123F85EBD13ECDCC8C3E6F1254
:103A1800033EF4FDD4BCC9763EBE21B0B2BE6F12DF
:103A280003BFBA492CBF583954BFAC1C7ABF1D5AC2
:103A380094BFCFF7A3BF3789B1BF560EBDBF1904D6
:103A4800C6BF448BCCBF4E62D0BF7368D1BFB29D96
:103A5800CFBF48E1CABF3333C3BF7593B8BF9643DE
:103A6800ABBFD1229BBFEC5188BF666666BFC74B10
:103A780037BF0AD703BF871699BE295C8FBD378920
:103A8800813E3789013F9318443F0AD7833FDD249D
:103A9800A63FEC51C83F355EEA3F54E305403F3549
:103AA8001640B6F32540F4FD3440333343404E62AC
:103AB80050407F6A5C40643B674075937040B072C9
:103AC8007840F0A77E406891814079E9824033339D
:103AD8008340A2458240EC51804083C07A40E5D0C3
:103AE8007240FED4684091ED5C40A01A4F40EE7CD5
:103AF8003F403F352E40CDCC144089410040B81E90
:103B0800D53F9EEFA73F21B0723FCFF7133F85EB1C
:103B1800513E0C022BBE39B408BFA69B64BF5E00A1
:103B2800BC00770100000000EB01340DB4019201E4
:103B3800A6013202000000001203E202DA02C60205
:103B4800B702B602496E697469616C697A65204882
:103B58004D43353838334C006D6F6E746832200031
:103B6800646179322000686F75723220006D696E69
:103B7800757465322000416C746974756465004120
:103B88007A696D7574680054656D706572617475D5
:103B980072653A200072656C61793153746174758D
:103BA800733A20002048656164696E67203D2000F3
:103BB8002044656772657373203D2000504C55534F
:103BC80000504C55532053746F70004D494E555357
:103BD800004D494E55532053746F70004E6F20535B
:103BE800554E00436F756C64206E6F742066696E65
:103BF8006420612076616C696420484D433538380B
:103C0800334C2073656E736F722C20636865636B29
:103C180020776972696E6721000D0A006E616E0077
:083C2800696E66006F7666000C
:107800000C94343C0C94513C0C94513C0C94513CE1
:107810000C94513C0C94513C0C94513C0C94513CB4
:107820000C94513C0C94513C0C94513C0C94513CA4
:107830000C94513C0C94513C0C94513C0C94513C94
:107840000C94513C0C94513C0C94513C0C94513C84
:107850000C94513C0C94513C0C94513C0C94513C74
:107860000C94513C0C94513C11241FBECFEFD8E036
:10787000DEBFCDBF11E0A0E0B1E0ECE9FFE702C060
:1078800005900D92A230B107D9F712E0A2E0B1E065
:1078900001C01D92AD30B107E1F70E942D3D0C945F
:1078A000CC3F0C94003C982F959595959595959582
:1078B000905D8F708A307CF0282F295A8091C0000B
:1078C00085FFFCCF9093C6008091C00085FFFCCF60
:1078D0002093C6000895282F205DF0CF982F809127
:1078E000C00085FFFCCF9093C6000895EF92FF92F1
:1078F0000F931F93EE24FF2487018091C00087FD22
:1079000017C00894E11CF11C011D111D81E4E8164B
:1079100082E4F8068FE0080780E0180770F3E09132
:107920000401F091050109958091C00087FFE9CF1E
:107930008091C6001F910F91FF90EF9008950E94D3
:10794000763C982F8091C00085FFFCCF9093C600B5
:1079500091362CF490330CF09053892F089597555D
:10796000892F08951F930E949F3C182F0E949F3CCF
:107970001295107F810F1F9108951F93182F882350
:1079800021F00E94763C1150E1F71F9108951F935A
:10799000182F0E94763C803249F0809103018F5F5E
:1079A000809303018530C1F01F9108958091C0003C
:1079B00085FFFCCF84E18093C6008091C00085FFE5
:1079C000FCCF1093C6008091C00085FFFCCF80E102
:1079D0008093C6001F910895E0910401F091050184
:1079E00009951F9108950E94763C803241F0809164
:1079F00003018F5F80930301853081F008958091AA
:107A0000C00085FFFCCF84E18093C6008091C00058
:107A100085FFFCCF80E18093C6000895E0910401CA
:107A2000F09105010995089540E951E08823A1F0FE
:107A30002D9A28EE33E0FA013197F1F721503040CA
:107A4000D1F72D9828EE33E0FA013197F1F7215064
:107A50003040D1F7815061F708953F924F925F9285
:107A60006F927F928F929F92AF92BF92CF92DF924E
:107A7000EF92FF920F931F93CF93DF93000080E16B
:107A80008093C4001092C50088E18093C10086E015
:107A90008093C2005098589A259A81E00E94143D24
:107AA00024E1F22E9EE1E92E85E9D82E0FE0C02ECA
:107AB00010E1B12EAA24A394B1E49B2EA6E58A2E50
:107AC000F2E57F2EE0E26E2E79E4572E63E5462E36
:107AD00050E5352E0E94763C8033B1F18133B9F107
:107AE000803409F46FC0813409F476C0823409F41B
:107AF00085C0853409F488C0803531F1823521F1A3
:107B0000813511F1853509F485C0863509F48DC0BC
:107B1000843609F496C0843709F403C1853709F423
:107B200072C1863709F466C0809103018F5F80932C
:107B30000301853079F6E0910401F0910501099582
:107B40000E94763C803351F60E94F33CC3CF0E94E2
:107B5000763C803249F78091C00085FFFCCFF092DF
:107B6000C6008091C00085FFFCCF9092C600809136
:107B7000C00085FFFCCF8092C6008091C00085FFC9
:107B8000FCCF7092C6008091C00085FFFCCF609250
:107B9000C6008091C00085FFFCCF5092C600809146
:107BA000C00085FFFCCF4092C6008091C00085FFD9
:107BB000FCCF3092C6008091C00085FFFCCFB09210
:107BC000C60088CF0E94763C863808F4BDCF0E945C
:107BD000763C0E94F33C7ECF0E94763C803809F4CC
:107BE0009CC0813809F40BC1823809F43CC1883942
:107BF00009F48FC080E00E94C73C6CCF84E10E94F2
:107C0000BD3C0E94F33C66CF85E00E94BD3C0E94D3
:107C1000F33C60CF0E94763C809306010E94763C44
:107C2000809307010E94F33C55CF0E94763C80333D
:107C300009F41DC183E00E94BD3C80E00E94C73C66
:107C400049CF0E94763C809309020E94763C809343
:107C5000080280910C028E7F80930C020E94763C79
:107C6000853409F415C18091080290910902892B8D
:107C700089F000E010E00E94763CF801E85FFE4FDA
:107C800080830F5F1F4F80910802909109020817AF
:107C9000190788F30E94763C803209F045CF809125
:107CA0000C0280FF01C16091060170910701660F0F
:107CB000771F7093070160930601A0910802B091AD
:107CC00009021097C9F0E8E0F1E09B01AD014E0F09
:107CD0005F1FF999FECF32BD21BD819180BDFA9A17
:107CE000F99A2F5F3F4FE417F50799F76A0F7B1F4B
:107CF00070930701609306018091C00085FFFCCF5F
:107D0000F092C6008091C00085FFFCCFB092C60003
:107D1000E1CE83E00E94C73CDDCE82E00E94C73CFA
:107D2000D9CE0E94763C809309020E94763C8093D3
:107D300008028091060190910701880F991F909386
:107D40000701809306010E94763C853409F4A6C0A1
:107D500080910C028E7F80930C020E94763C8032D0
:107D600009F0B8CE8091C00085FFFCCFF092C6002C
:107D7000609108027091090261157105B9F140E046
:107D800050E080910C02A82FA170B82FB27011C0E2
:107D9000BB2309F45CC0E0910601F0910701319624
:107DA000F0930701E09306014F5F5F4F46175707B7
:107DB000E8F4AA2369F3F999FECF209106013091E6
:107DC000070132BD21BDF89A90B58091C00085FFB2
:107DD000FCCF9093C6002F5F3F4F30930701209355
:107DE00006014F5F5F4F4617570718F38091C00099
:107DF00085FDE5CE8091C00085FFF8CFE0CE81E023
:107E00000E94C73C67CE0E94763C803209F08CCE3F
:107E10008091C00085FFFCCFF092C6008091C00029
:107E200085FFFCCFE092C6008091C00085FFFCCFAB
:107E3000D092C6008091C00085FFFCCFC092C600E2
:107E40008091C00085FFFCCFB092C60043CEE09188
:107E50000601F091070194918091C00085FFFCCF4D
:107E60009093C6009CCF80E10E94C73C33CE0E9415
:107E7000763C0E94763C182F0E94763C112309F430
:107E800083C0113009F484C08FE00E94C73C22CE29
:107E900080910C02816080930C02E5CE80910C02EF
:107EA000816080930C0259CF809107018823880F4D
:107EB000880B8A2180930B02809106019091070123
:107EC000880F991F90930701809306018091080203
:107ED00080FF09C080910802909109020196909359
:107EE000090280930802F894F999FECF1127E091D6
:107EF0000601F0910701C8E0D1E08091080290915D
:107F00000902103091F40091570001700130D9F34B
:107F100003E000935700E89500915700017001308D
:107F2000D9F301E100935700E89509901990009169
:107F3000570001700130D9F301E000935700E89534
:107F40001395103498F011270091570001700130FB
:107F5000D9F305E000935700E895009157000170B0
:107F60000130D9F301E100935700E895329602976A
:107F700009F0C7CF103011F00296E5CF112480919F
:107F8000C00085FFB9CEBCCE8EE10E94C73CA2CD19
:0C7F900085E90E94C73C9ECDF894FFCF0D
:027F9C00800063
:040000030000780081
:00000001FF