:100000000C9468010C9490010C9490010C94EE07F0
:100010000C94EE070C94EE070C9490010C94900154
:100020000C9490010C9490010C9490010C9490010C
:100030000C9490010C9490010C9490010C949001FC
:100040000C945D040C9490010C9469030C9443038C
:100050000C9490010C9490010C9490010C949001DC
:100060000C94F8070C949001720F870F870F860F7E
:10007000870F640F870F870F870F660F870F870F14
:10008000790F840F820F870F870F870F800F036E02
:10009000DB363D9A9999993DABAAAA2A3E00000009
:1000A000803F084AD73B3BCE016E84BCBFFDC12FC9
:1000B0003D6C74319ABD56833DDA3D00C77F11BE59
:1000C000D9E4BB4C3E916BAAAABE000000803F075A
:1000D0002C7AA5BA6CC590DA3B9365FC8BBC53F8BF
:1000E00010FD3C5692834DBD879D3AB63DCBC9BFAE
:1000F0005BBE73DA0FC93F05A84CCDB2D44EB938F8
:1001000036A9020C50B9918688083CA6AAAA2ABE34
:10011000000000803F0664EC1B3C04BC163E3BE53F
:10012000B93CC93C37C29E5A3D660498083EEA690C
:10013000AAAA3E000000803F000000002300260025
:100140002900005EBCE2613FDD83C29C7E20A3FDEE
:100150001F419DC3217FFCA2401E5F01E3BD3E60A5
:1001600082DC237D9FC1421CFEA0E1BF5D0380DED7
:100170003C62BEE0025CDF81633D7C22C09E1D4389
:10018000A1FF4618FAA427799BC584DA3866E5BB37
:100190005907DB856739BAE406581947A5FB782665
:1001A000C49A653BD987045AB8E6A7F91B45C69897
:1001B0007A24F8A6441A99C7257B3A6486D85B0549
:1001C000E7B98CD2306EEDB3510F4E10F2AC2F71F7
:1001D00093CD114FADF3702ECC92D38D6F31B2EC25
:1001E0000E50AFF1134DCE90722C6D33D18F0C5257
:1001F000B0EE326C8ED0530DEFB1F0AE4C1291CF09
:100200002D73CA947628ABF517490856B4EA6937B6
:10021000D58B5709EBB536688AD495CB2977F4AAE4
:100220004816E9B7550B88D6346A2B7597C94A1416
:10023000F6A8742AC896154BA9F7B6E80A54D789C8
:100240006B3500000000240027002A000000000099
:10025000250028002B000404040404040404020202
:100260000202020203030303030301020408102035
:100270004080010204081020010204081020000040
:100280000008000201000003040700000000000055
:1002900000001F1C1F1E1F1E1F1F1E1F1E1F537925
:1002A0007374656D20696E697469616C697A6174D3
:1002B000696F6E204F4B212E0031383A31333A327C
:1002C00031004170722032312032303137007317E3
:1002D00011241FBECFEFD8E0DEBFCDBF13E0A0E0FA
:1002E000B1E0E8E0F9E302C005900D92A63FB10746
:1002F000D9F726E0A6EFB3E001C01D92A532B20700
:10030000E1F711E0C8E6D1E004C02197FE010E94A8
:10031000491CC736D107C9F70E94C50E0C94821C30
:100320000C940000FC01918D828D981761F0828DF4
:10033000DF01A80FB11D5D968C91928D9F5F9F7319
:10034000928F90E008958FEF9FEF0895FC01918DBB
:10035000828D981731F0828DE80FF11D858D90E028
:1003600008958FEF9FEF0895FC01918D228D892FC5
:1003700090E0805C9F4F821B91098F7399270895AD
:1003800087EF94E00E94B40121E0892B09F420E07A
:10039000822F0895FC01848DDF01A80FB11DA35A9F
:1003A000BF4F2C91848D90E001968F739927848F95
:1003B000A689B7892C93A089B1898C9180648C938C
:1003C000938D848D981306C00288F389E02D808177
:1003D0008F7D80830895EF92FF920F931F93CF93A9
:1003E000DF93EC0181E0888F9B8D8C8D981305C085
:1003F000E889F989808185FD24C0F62E0B8D10E0F7
:100400000F5F1F4F0F731127E02E8C8DE8120CC069
:100410000FB607FCFACFE889F989808185FFF5CF0F
:10042000CE010E94CA01F1CF8B8DFE01E80FF11DB4
:10043000E35AFF4FF0820B8FEA89FB89808180624B
:1004400007C0EE89FF896083E889F989808180642B
:10045000808381E090E0DF91CF911F910F91FF9019
:10046000EF900895CF93DF93EC01888D8823C9F036
:10047000EA89FB89808185FD05C0A889B9898C91AD
:1004800086FD0FC00FB607FCF5CF808185FFF2CF48
:10049000A889B9898C9185FFEDCFCE010E94CA0150
:1004A000E7CFDF91CF91089580E090E0892B29F08C
:1004B0000E94C00181110C94000008953FB7F89488
:1004C0008091400490914104A0914204B091430472
:1004D00026B5A89B05C02F3F19F00196A11DB11D9F
:1004E0003FBFBA2FA92F982F8827820F911DA11DDA
:1004F000B11DBC01CD0142E0660F771F881F991F17
:100500004A95D1F70895089585ED8093BC008091B8
:10051000BC0084FDFCCF1092D304089540911804D0
:10052000262F30E0240F311D21323105DCF42091DB
:10053000D3042430C9F4FC0180E090E0861758F41D
:10054000309118042191DC01AA50BC4FA30FB11DBA
:100550002C930196F3CF80911804680F60931804D0
:1005600080E0089581E0089582E008950895E09183
:100570008C0480918B04E81730F4F0E0E357FB4FD4
:10058000808190E008958FEF9FEF089590918C0403
:1005900080918B04981750F4E92FF0E0E357FB4F5C
:1005A000208130E09F5F90938C0402C02FEF3FEFDB
:1005B000C901089580918B0490E020918C04821BE6
:1005C00091090895CF92DF92EF92FF920F931F93BC
:1005D000CF93DF937C01262F972F8A018091D4043B
:1005E000882391F0C62FD72F6E01C40ED51ECC15CF
:1005F000DD0571F06991D701ED91FC910190F081D9
:10060000E02DC7010995F3CF642F822F0E948E023F
:10061000C801DF91CF911F910F91FF90EF90DF9074
:10062000CF900895CF93DF931F92CDB7DEB7698344
:100630002091D4042223D1F02091F604203240F0FE
:1006400021E030E0FC013383228380E090E015C09C
:100650008091D504E82FF0E0EA52FB4F9981908316
:100660008F5F8093D5048093F60405C061E0CE01CE
:1006700001960E948E0281E090E00F90DF91CF9171
:1006800008950E947D1C1F920F920FB60F921124A5
:100690002F933F934F935F936F937F938F939F938A
:1006A000AF93BF93EF93FF9387EF94E00E94CA014B
:1006B000FF91EF91BF91AF919F918F917F916F913A
:1006C0005F914F913F912F910F900FBE0F901F9010
:1006D00018951F920F920FB60F9211242F938F939C
:1006E0009F93EF93FF93E0910705F09108058081B8
:1006F000E0910D05F0910E0582FD12C09081809170
:1007000010058F5F8F7320911105821751F0E091D2
:100710001005F0E0E950FB4F958F8093100501C064
:100720008081FF91EF919F918F912F910F900FBE3C
:100730000F901F90189590E0FC01E258FD4F349106
:10074000FC01E659FD4F2491FC01EA5AFD4FE4916A
:10075000EE2309F43BC0332339F1333091F038F400
:100760003130A9F0323001F584B58F7D12C03730B9
:1007700091F03830A1F03430B9F4809180008F7D51
:1007800003C0809180008F77809380000DC084B576
:100790008F7784BD09C08091B0008F7703C08091AE
:1007A000B0008F7D8093B000F0E0EE0FFF1FE45BA0
:1007B000FD4FA591B4918FB7F894EC91611103C0EE
:1007C00020952E2301C02E2B2C938FBF0895CF93FD
:1007D000DF9390E0FC01E659FD4F2491FC01EA5AB9
:1007E000FD4F8491882361F190E0880F991FFC01EF
:1007F000EE5BFD4FC591D491FC01E45BFD4FA591EB
:10080000B491611109C09FB7F89488812095822323
:100810008883EC912E230BC0623061F49FB7F8946B
:100820003881822F809583238883EC912E2B2C9303
:100830009FBF06C08FB7F894E8812E2B28838FBF07
:10084000DF91CF9108958F929F92AF92BF92CF92F6
:10085000DF92EF92FF926B017C010E945E024B01DE
:100860005C01C114D104E104F104F1F00E945E02C4
:10087000DC01CB0188199909AA09BB09883E93407C
:10088000A105B10570F321E0C21AD108E108F10811
:1008900088EE880E83E0981EA11CB11CC114D104FF
:1008A000E104F10419F7DDCFFF90EF90DF90CF90D6
:1008B000BF90AF909F908F9008951F920F920FB6A8
:1008C0000F9211242F933F938F939F93AF93BF93D6
:1008D0008091480490914904A0914A04B0914B043E
:1008E00030913F0423E0230F2D3720F40196A11D02
:1008F000B11D05C026E8230F0296A11DB11D20934E
:100900003F048093480490934904A0934A04B09311
:100910004B048091400490914104A0914204B09115
:1009200043040196A11DB11D80934004909341049E
:10093000A0934204B0934304BF91AF919F918F91D4
:100940003F912F910F900FBE0F901F901895CF924F
:10095000DF92EF92FF92CF93DF93EC01C0904404BB
:10096000D0904504E0904604F09047042FB7F894E7
:10097000609148047091490480914A0490914B041D
:100980002FBF28EE33E040E050E00E94271CD70143
:10099000C601820F931FA41FB51FBC01CD01605873
:1009A00073448D4698432CE3C22ED12CE12CF12CBC
:1009B000A70196010E94271C6D83CA01B901A701F6
:1009C00096010E94271C6C83CA01B90128E130E01E
:1009D00040E050E00E94271C6B83188263E97EEFA1
:1009E0008881482F437091E009F090E0492F50E052
:1009F000FA01E359FE4F2E173F0740F0FB01E41BBD
:100A0000F50B2E0F3F1F8F5F8883EACF81E089832C
:100A10008981E82FF0E0EF56FD4FE491992319F01A
:100A2000823009F4EF5FF0E02E173F0720F02E1B15
:100A30003F0B8F5FECCF2F5F2A83CE01DF91CF91E9
:100A4000FF90EF90DF90CF900895FC01908190533C
:100A50009A3008F090E0818180532AE0929F800DC7
:100A600011240895DC01E0E0615038F08D91E82711
:100A7000F0E0EE5BFE4FE491F7CF8E2F0895FC017E
:100A800090810180F281E02DF8948181892B81830E
:100A90002281892F809528232283A7E0B0E0119737
:100AA000F1F7218182238183A3E2B0E01197F1F76E
:100AB00080817894EFECF0E03197F1F7982381E0B2
:100AC00009F480E00895FC0190810180F281E02D1D
:100AD000892F809560FF12C0F8942281822382833F
:100AE0008181892B8183A3E2B0E01197F1F78281A4
:100AF000982B9283789487ED90E011C0F89422812E
:100B0000822382838181892B8183AFEFB0E01197AB
:100B1000F1F78281982B928378948FE090E001978F
:100B2000F1F70895CF92DF92EF92FF920F931F9308
:100B3000CF93DF931F92CDB7DEB76C01E62E08E0AE
:100B400010E0FF24F39461E08F2D8E2109F460E022
:100B5000C60149830E946305FF0C015011094981B8
:100B60000115110581F7411115C0F894D6011196B0
:100B7000ED91FC91129791818C91809589238183CD
:100B80001196ED91FC91129792818C918095892319
:100B9000828378940F90DF91CF911F910F91FF90F6
:100BA000EF90DF90CF900895CF92DF92EF92FF9277
:100BB0000F931F93CF93DF931F92CDB7DEB78C01B6
:100BC000F62E40E065E579830E949205CF2C79816D
:100BD000D72E760188E0E80EF11CF60161916F01D5
:100BE00040E0C8010E949205CE14DF04B1F70F90D7
:100BF000DF91CF911F910F91FF90EF90DF90CF90F9
:100C00000895FC0190810180F281E02DF8948181AA
:100C1000292F20958223818378948DE743E050E04B
:100C2000815021F1DA011197F1F730813923C1F3B5
:100C3000F8948281822382838181892B81837894B5
:100C4000ABE7B7E01197F1F7F8948181282321836E
:100C5000A3E1B1E01197F1F78081982381E009F0D9
:100C600080E07894E3E6F6E03197F1F708956F922B
:100C70007F928F929F92AF92BF92CF92DF92EF922C
:100C8000FF920F931F93CF93DF931F92CDB7DEB7E1
:100C90008C01F42EFC018581968159830E94D40534
:100CA00040E06EEBF801858196810E9492056F2CE1
:100CB0005981752E5301F9E0AF0EB11CF801858002
:100CC000968088E0C82ED12CEE24E394F12CC40148
:100CD0000E943F058111FE28EE0CF1E0CF1AD108E9
:100CE000B1F7F301F1923F01EA15FB0539F7F8017D
:100CF000858196810E94010691E0813009F090E0A3
:100D0000892F0F90DF91CF911F910F91FF90EF905E
:100D1000DF90CF90BF90AF909F908F907F906F901B
:100D200008950F931F93CF93DF93EC01162F60E08C
:100D3000812F0E94E703612F70E0FB01E659FD4F10
:100D4000E491E883FB01EA5AFD4FE491F0E0EE0FF5
:100D5000FF1FE85CFE4F859194919A8389831B86DF
:100D60001D861C86FE013B968E010D5F1F4F129261
:100D7000E017F107E1F7DF91CF911F910F910895EF
:100D8000CF93DF93EC018D819E810E94010640E0AC
:100D90006CEC8D819E810E949205488164E48D8176
:100DA0009E810E9492058A818823B1F0E981E950F1
:100DB000E33040F4F0E0EE0FFF1FE451FD4F60819F
:100DC000718102C06EEE72E0072E000C880B990B49
:100DD000DF91CF910C942304DF91CF910895EF928E
:100DE000FF920F931F93CF93DF9300D0CDB7DEB761
:100DF0008C017A01FC018581968169837A830E9446
:100E0000010669817A81882371F0A701C8010E94D7
:100E10003706882341F068E0C7010E94320591E05F
:100E2000F7012085821390E0892F0F900F90DF91BA
:100E3000CF911F910F91FF90EF900895CF93DF9383
:100E4000CDB7DEB729970FB6F894DEBF0FBECDBF82
:100E5000FB0120812031D1F0AE014F5F5F4F0E9436
:100E6000EF06882389F08D818F3361F020F48F3174
:100E700059F489E00CC08F3519F08F3739F004C070
:100E80008BE005C08AE003C080E001C08CE02996B9
:100E90000FB6F894DEBF0FBECDBFDF91CF9108959E
:100EA000EF92FF920F931F93CF93DF93CDB7DEB7EF
:100EB00061970FB6F894DEBF0FBECDBF8C01DC0189
:100EC0001596ED91FC911697138615861486DF0111
:100ED0001B9633961E92AE17BF07E1F7F8011482F6
:100EE000FF24F394BE01665F7F4FF80185819681F0
:100EF0000E94380B882309F464C067E0CE010A968B
:100F00000E94320599898913EDCFD8018C91811106
:100F100026C015968D919C9116970E940106BE01E0
:100F2000665F7F4FF801858196810E94D40540E07D
:100F300064EBD80115968D919C9116970E949205AD
:100F4000F801858196810E943F05E82ED80115960B
:100F50008D919C9116970E940106EE2079F1F8017F
:100F6000858196810E940106882349F0AE014F5F7A
:100F70005F4FBE01665F7F4FC8010E943706D801F0
:100F80001196EC90BE01665F7F4FC8010E941E075C
:100F90008E1518F4F801818106C0BE01665F7F4F8F
:100FA000C8010E941E07D80111968C9311971496C0
:100FB0008C9114978F5F14968C9394CFD801FC92E8
:100FC000CECF61960FB6F894DEBF0FBECDBFDF91D6
:100FD000CF911F910F91FF90EF9008951F920F9264
:100FE0000FB60F9211240F900FBE0F901F901895FF
:100FF0001F920F920FB60F9211242F933F934F938E
:101000005F936F937F938F939F93AF93BF93EF9370
:10101000FF938091B900887F803609F49CC068F501
:10102000883209F45BC090F4803109F454C038F47C
:10103000882309F4F6C0883009F44DC0F6C0883121
:1010400009F44CC0803209F45DC0EFC0803409F46B
:1010500068C048F4803309F455C0883309F0E5C00E
:101060008093D104D8C0803509F44FC0883509F485
:101070005DC0883409F0D9C0D6C0883909F4C7C02A
:10108000A8F4883709F467C038F4883609F463C0D7
:10109000803709F460C0C9C0883809F4B8C0803905
:1010A00009F45FC0803809F0C0C05BC0803B09F420
:1010B00086C038F4803A09F466C0883A09F47FC0E3
:1010C000B4C0803C09F4A7C0883C09F4A4C0883BA4
:1010D00009F48AC0AAC08091AE0410C09091D004D7
:1010E0008091CF04981770F5E091D00481E08E0FC5
:1010F0008093D004F0E0E155FB4F80818093BB00EA
:1011000085EC86C08093D1048EC0E091D00481E04C
:101110008E0F8093D0048091BB00F0E0E155FB4F2F
:1011200080839091D0048091CF046EC0E091D00470
:1011300081E08E0F8093D0048091BB00F0E0E155F8
:10114000FB4F80838091D20481116DC081E0809338
:10115000AD0484EA61C083E08093D30410923C0420
:10116000CFCF80913C04803208F051C0E0913C0424
:1011700081E08E0F80933C048091BB00F0E0E45E40
:10118000FB4F8083BDCF85EC8093BC001092D304CD
:1011900080913C04803230F4E0913C04F0E0E45E65
:1011A000FB4F108260913C0470E0E0911A04F091D2
:1011B0001B048CE194E0099510923C0436C084E055
:1011C0008093D3041092190410921804E09116042D
:1011D000F0911704099580911804811105C081E0F0
:1011E000809318041092F603E091190481E08E0FA9
:1011F00080931904F0E0EA50FC4F80818093BB009B
:101200009091190480911804981708F479CF85E813
:101210008093BC000AC085EC8093BC001092D3047C
:1012200004C01092D1040E948402FF91EF91BF91FB
:10123000AF919F918F917F916F915F914F913F916E
:101240002F910F900FBE0F901F9018950F931F9323
:10125000CF93DF93CDB7DEB7A8970FB6F894DEBF74
:101260000FBECDBF6130710521F428E2ECE0F1E062
:1012700006C062307105C9F428E2E4E3F1E0DE0162
:10128000119601900D922A95E1F7FC01EE0FFF1FD8
:10129000EE0FFF1F21E030E02C0F3D1FE20FF31F88
:1012A000008111812281338154C063307105C9F4FA
:1012B00028E2ECE5F1E0DE01119601900D922A950D
:1012C000E1F7FC01EE0FFF1FEE0FFF1F21E030E002
:1012D0002C0F3D1FE20FF31F00811181228133810A
:1012E00054C064307105C9F428E2E4E8F1E0DE019D
:1012F000119601900D922A95E1F7FC01EE0FFF1F68
:10130000EE0FFF1F21E030E02C0F3D1FE20FF31F17
:10131000008111812281338154C065307105C9F487
:1013200028E2ECEAF1E0DE01119601900D922A9597
:10133000E1F7FC01EE0FFF1FEE0FFF1F21E030E091
:101340002C0F3D1FE20FF31F008111812281338199
:1013500046C066307105C9F428E2E4EDF1E0DE0133
:10136000119601900D922A95E1F7FC01EE0FFF1FF7
:10137000EE0FFF1F21E030E02C0F3D1FE20FF31FA7
:10138000008111812281338131C067307105C9F438
:1013900028E2ECEFF1E0DE01119601900D922A9522
:1013A000E1F7FC01EE0FFF1FEE0FFF1F21E030E021
:1013B0002C0F3D1FE20FF31F008111812281338129
:1013C0001CC06830710521F428E2E4E2F2E01BC0A1
:1013D0006930710521F428E2ECE4F2E014C06A30CF
:1013E000710521F428E2E4E7F2E00DC06B307105ED
:1013F00021F428E2ECE9F2E006C06C307105B9F4A2
:1014000028E2E4ECF2E0DE01119601900D922A95BB
:10141000E1F7880F991F880F991FE1E0F0E0EC0FCA
:10142000FD1FE80FF91F0081118122813381C9015D
:10143000B801A8960FB6F894DEBF0FBECDBFDF91FE
:10144000CF911F910F9108952091F6049091240659
:10145000213208F04AC08091D3048111FCCF32E0E0
:101460003093D30431E03093D2043FEF3093D10472
:101470001092D0042093CF04A6EDB4E04FEA54E0DC
:10148000FA013E2F341B321718F43D913193F9CFF6
:101490001092AE042091AE04990F922B9093AE045B
:1014A0009091AD04913061F41092AD049091AE042E
:1014B0009093BB009091BC0093FDF8CF95EC01C0D8
:1014C00095EE9093BC009091D3049230E1F390910B
:1014D000D1049F3F79F08091D104803241F0809116
:1014E000D104803331F084E005C081E003C082E0A4
:1014F00001C083E01092D5041092F6041092D40437
:101500000895009769F0FC0101900020E9F73197F8
:10151000AF01481B590BBC0187EF94E00C949A0E65
:1015200080E090E008959091D3049111FCCF813236
:1015300008F080E291E09093D3049093D2042FEFCF
:101540002093D1041092D004280F2093CF049093BD
:10155000AE049091AE049C639093AE049091AD0460
:10156000913061F41092AD049091AE049093BB0061
:101570009091BC0093FDF8CF95EC01C095EE90934F
:10158000BC009091D3049130E1F39091D00498176E
:1015900010F48091D004AFEAB4E02DE834E0F90112
:1015A0009E2F921B981718F49D919193F9CF10924A
:1015B0008C0480938B04089587EE93E00C94810A49
:1015C000CF93DF930E94810AEC010E94DC0A8C0F0A
:1015D0009D1FDF91CF9108958F929F92AF92BF92FE
:1015E0000F931F93CF93DF93CDB7DEB7A1970FB6BD
:1015F000F894DEBF0FBECDBF19A2423008F44AE016
:101600008E010F5D1F4F842E912CA12CB12CA501B2
:1016100094010E94271CE62FB901CA01015011094B
:10162000EA3014F4E05D01C0E95CD801EC93232BAF
:10163000242B252B61F7C8010E94810AA1960FB6C1
:10164000F894DEBF0FBECDBFDF91CF911F910F91F8
:10165000BF90AF909F908F900895E091F704F09124
:10166000F8040190F081E02D682F87EF94E0099451
:10167000AF92BF92CF92DF92EF92FF920F931F93A0
:10168000CF93DF931F92CDB7DEB75C01D62EE72E46
:10169000FC018585811105C0C5010E9401068111EB
:1016A00006C0F50113861586148680E065C040E00B
:1016B00060EFC5010E94920501E0F12CC12C11E000
:1016C000C5010E943F05682FC50169830E943F053F
:1016D0006981613019F48130B9F433C04F2D50E085
:1016E00068131BC0F5018385181730F4E40FF51F4C
:1016F0008381802349F402C0181731F060E019306B
:1017000058F4F501148708C0F501EF0DF11D838130
:10171000802B838361E009C0C12EF501E40FF51F22
:101720009381802F809589238383C5010E9463055F
:101730001F5F000F11F4F39401E0F7E0FF1508F0CC
:10174000BFCF113408F4ADCFF501C386C11002C07C
:1017500081E08587F5018381882309F4A2CFD50133
:101760001396ED2DFE2D9501255F3F4F8D918193B1
:10177000A217B307D9F781E00F90DF91CF911F91A6
:101780000F91FF90EF90DF90CF90BF90AF900895B2
:10179000CF93DF93EB01DC011596ED91FC91169749
:1017A000138615861486DF011B9633961E92AE179C
:1017B000BF07E1F7BE01FC01858196810E94380BCD
:1017C000882349F067E0CE010E9432059F8189138A
:1017D00002C081E001C080E0DF91CF9108950F93B6
:1017E0001F93CF93DF93CDB7DEB761970FB6F89411
:1017F000DEBF0FBECDBF8C01BE01665F7F4F0E9472
:10180000C80B811105C060E070E08EEF92EC4BC018
:10181000AE014F5F5F4FBE01665F7F4FC8010E9400
:10182000EF06882359F1698148E0649FB0011124D3
:101830008A81282F30E0322F2227330F330F330FC6
:10184000262B372B8A858031E1F4688570E08F8103
:10185000AB01481B5109CA019695982F8827979587
:1018600087950E94131C60517109207F53E0220F5D
:10187000331F5A95E1F7620F731F04C060E874EEDE
:1018800001C0B901613854EE75070CF4BCCF072EC6
:10189000000C880B990B0E94BE1920E030E040E05C
:1018A0005CE30E94151B61960FB6F894DEBF0FBE75
:1018B000CDBFDF91CF911F910F9108954F925F920D
:1018C0006F927F928F929F92AF92BF92CF92DF9250
:1018D000EF92FF926B017C01B42E9B01AC010E9440
:1018E000F91B882319F08AEE93E027C026013701FF
:1018F000E89477F82FEF3FEF4FE75FE7C301B201BE
:101900000E94F91B81110DC02FEF3FEF4FE75FE7FA
:10191000C301B2010E94111918161CF48EEE93E057
:101920000CC02FEF3FEF4FE75FE4C701B6010E9405
:10193000081B181684F482EF93E0FF90EF90DF907D
:10194000CF90BF90AF909F908F907F906F905F905F
:101950004F900C94810A2FEF3FEF4FE75FECC701E8
:10196000B6010E94111987FDE6CF20E030E0A90101
:10197000C701B6010E94111987FF09C08DE20E94BC
:101980002D0B4C01F7FAF094F7F8F09402C0812C7B
:10199000912CA12C60E070E080E09FE3AB1441F05B
:1019A00020E030E040E251E40E941B19A394F6CFFE
:1019B0009B01AC01C701B6010E9418182B013C0124
:1019C0000E948D196B017C010E94BC199B01AC0126
:1019D000C301B2010E9417182B013C014AE0C70164
:1019E000B6010E94EC0A7C01E80CF91CBB2029F02E
:1019F0008EE20E942D0BE80EF91EDB2CDD2021F17A
:101A000020E030E040E251E4C301B2010E94151B26
:101A10002B013C010E948D194B01A12CB12C4AE0F5
:101A2000C501B4010E94EC0AE80EF91EC501B4011B
:101A30000E94BC199B01AC01C301B2010E9417189E
:101A40002B013C01DA94DACFC701FF90EF90DF90D1
:101A5000CF90BF90AF909F908F907F906F905F904E
:101A60004F9008950C94810A0F931F93CF93DF93A7
:101A700011E01093D4049EE1909324061092D504B3
:101A80001092F604682F84E995E00E9412030E94E8
:101A9000240A1093D4041092D5041092F60482E024
:101AA00090E00E94930A90918B0480918C04981787
:101AB000F1F384E995E00E94C602082F84E995E0DD
:101AC0000E94C602182F0E94240AD02F80E0C82F3F
:101AD000CE01812BDF91CF911F910F910895CF936C
:101AE000C62F91E09093D4049EE190932406109227
:101AF000D5041092F604682F84E995E00E94120341
:101B00006C2F84E995E00E941203CF910C94240A73
:101B1000CF93C1E0C093D4049EE190932406109229
:101B2000D5041092F604682F84E995E00E94120310
:101B30000E94240AC093D4041092D5041092F60493
:101B400081E090E00E94930A90918B0480918C0434
:101B50009817F1F384E995E00E94C602C82F0E940D
:101B6000240A8C2FCF91089582E00E94880D682F5F
:101B70006C7F82E00C946F0DCF9391E09093D4042E
:101B80009EE1909324061092D5041092F604682FDB
:101B900084E995E00E9412030E94240A81E090E00B
:101BA0000E94930A84E995E00E94C602C82F0E9411
:101BB000240A8C2FCF910895DF92EF92FF920F931A
:101BC0001F93CF93DF93CDB7DEB729970FB6F89465
:101BD000DEBF0FBECDBF8C017B01AE014F5F5F4FFB
:101BE0000E94EF06D82E882309F459C0F70180819E
:101BF000803109F454C08FE78D83F8018581968187
:101C00000E940106B701F801858196810E94D405E2
:101C100040E06EE4F801858196810E94920540E0E3
:101C20006B81F801858196810E94920540E06C816C
:101C3000F801858196810E949205F70180818031AB
:101C400039F040E06D81F801858196810E9492050E
:101C5000F801858196810E940106B701F80185810E
:101C600096810E94D405F801408168E485819681BF
:101C70000E94920564E170E080E090E00E942304FD
:101C8000F8018081882331F06AE070E080E090E024
:101C90000E942304F801858196810E9401068D2D02
:101CA00029960FB6F894DEBF0FBECDBFDF91CF915E
:101CB0001F910F91FF90EF90DF900895CF93DF93E6
:101CC00042E00E945E0CEC010E94DC0A8C0F9D1F1A
:101CD000DF91CF910895CF92DF92EF92FF92CF9351
:101CE000DF936C01990FEE08FF08F7FE12C08DE23A
:101CF0000E942D0BEC0166277727CB016C197D091B
:101D00008E099F094AE00E94EC0A7C01EC0EFD1E40
:101D100006C04AE0C701B6010E94EC0A7C010E949D
:101D2000DC0A8E0D9F1DDF91CF91FF90EF90DF9029
:101D3000CF900895CF92DF92EF92FF920F931F936F
:101D4000CF93DF936C017A018B01C0E0D0E0CE1518
:101D5000DF0589F0D8016D918D01D601ED91FC91DF
:101D60000190F081E02DC6010995892B11F47E01C7
:101D700002C02196ECCFC701DF91CF911F910F9147
:101D8000FF90EF90DF90CF900895CF93DF93CDB782
:101D9000DEB7AB970FB6F894DEBF0FBECDBF789419
:101DA00084B5826084BD84B5816084BD85B5826060
:101DB00085BD85B5816085BD80916E008160809311
:101DC0006E0010928100809181008260809381007A
:101DD000809181008160809381008091800081608A
:101DE000809380008091B10084608093B1008091E5
:101DF000B00081608093B00080917A00846080930D
:101E00007A0080917A00826080937A0080917A00D3
:101E1000816080937A0080917A00806880937A0054
:101E20001092C100E0910705F091080582E08083DF
:101E3000E0910305F09104051082E0910505F09111
:101E400006058FEC808310920F05E0910B05F09151
:101E50000C0586E08083E0910905F0910A058081F8
:101E600080618083E0910905F0910A058081886096
:101E70008083E0910905F0910A0580818068808364
:101E8000E0910905F0910A0580818F7D80834BE008
:101E900050E062EC72E0CE0101960E94F817CE018C
:101EA0000A960E942505082FE9814E2FEE0F550B4B
:101EB000660B770BFA01E154F109E331F10538F5CE
:101EC000EC5CFF4F0C94491C12E021C08A818136E2
:101ED00039F08B818E3611F017E019C016E017C06B
:101EE00011E015C08B81823711F018E010C014E0AA
:101EF0000EC08B81823711F015E009C013E007C0D6
:101F000019E005C01AE003C01BE001C01CE0CE01CF
:101F100005960E942505E82E48E050E069EB72E046
:101F2000CE0101960E94F817CE0101960E94250568
:101F3000B82ECE0104960E942505C82ECE01079624
:101F40000E942505D82E202F30E04E2D50E0E2E9EA
:101F5000F2E081E08E1B982F9E0F911728F4949148
:101F6000490F511D3196F7CF133020F0037011F453
:101F70004F5F5F4F8DE691E0289F7001299FF00C25
:101F8000389FF00C112401E0E01AF1082D5F3F4F5B
:101F90003695279536952795E20EF31EE40EF51E2D
:101FA0002FB7F894609148047091490480914A04D5
:101FB00090914B042FBF28EE33E040E050E00E94A8
:101FC000271C80E893E4ADE6B8E32C013D01421AFA
:101FD000530A640A750A9701A8E1B0E00E944F1CF9
:101FE0009B01AC012B0D311D411D511DACE3B0E037
:101FF0000E945E1C9B01AC012C0D311D411D511D29
:102000000E945E1CDC01CB018D0D911DA11DB11D37
:10201000840D951DA61DB71D80934404909345041F
:10202000A0934604B093470486E196E09093DF05C1
:102030008093DE051092DD051092D90599E090930A
:10204000DA0581E08093DB058093DC0528E036E04B
:102050003093CC052093CB051092CA051092C6058B
:102060009093C7058093C8058093C9052AEF35E092
:102070003093B9052093B8051092B7051092B305B7
:102080009093B4058093B5058093B6052CEE35E0AA
:102090003093A6052093A5051092A4051092A005E3
:1020A0009093A1058093A2058093A30589ED95E007
:1020B0000E94500786EC95E00E94500783EB95E064
:1020C0000E94500780EA95E00E945007BE016F5FB2
:1020D0007F4F89ED95E00E94C80B882339F0BE013F
:1020E0006F5F7F4F89ED95E00E94DC0DBE016F5F51
:1020F0007F4F86EC95E00E94C80B882339F0BE0123
:102100006F5F7F4F86EC95E00E94DC0DBE016F5F34
:102110007F4F83EB95E00E94C80B882339F0BE0106
:102120006F5F7F4F83EB95E00E94DC0DBE016F5F18
:102130007F4F80EA95E00E94C80B882339F0BE01EA
:102140006F5F7F4F80EA95E00E94DC0D60E086E0E3
:102150000E94E70360E087E00E94E70360E088E018
:102160000E94E70360E089E00E94E70361E086E007
:102170000E949B0361E087E00E949B0361E088E08E
:102180000E949B0361E089E00E949B0361E08AE07A
:102190000E94E70361E08BE00E94E70361E08CE0CE
:1021A0000E94E70361E081E10E94E70361E084E1CE
:1021B0000E94E70361E085E10E94E70360E08AE0B6
:1021C0000E949B0360E08BE00E949B0361E08CE037
:1021D0000E949B0361E081E10E949B0361E088E033
:1021E0000E949B0361E085E10E949B0360910A01CC
:1021F00080E090E00E94091880E090E00E940118C1
:1022000090E090930B0180930A012BED3FE049E4AD
:1022100050E460910201709103018091040190915A
:1022200005010E94151B20E030E044E353E40E94C6
:102230001B19609302017093030180930401909332
:10224000050182E193E00E94E00A10928C04109252
:102250008B041092D5041092F6041092D30481E0FE
:102260008093D2041092AD0461E082E10E949B034E
:1022700061E083E10E949B038091B9008E7F80938F
:10228000B9008091B9008D7F8093B90088E4809374
:10229000B80085E48093BC008AE00E94BC0D8834BD
:1022A00009F002C68BE00E94BC0D843309F0FCC526
:1022B0008CE00E94BC0D833309F0F6C58FE1C82E77
:1022C00085E8D82E8BE6E82E8FE3F82EC0927704AF
:1022D000D0927804E0927904F0927A0460E281E08E
:1022E0000E946F0D0E94B40D80E00E94880D837ED5
:1022F000682F606180E00E946F0D80E00E94880D71
:10230000682F6F7980E00E946F0DC0927704D092A1
:102310007804E0927904F0927A0460E281E00E940D
:102320006F0D0E94B40D80E00E94880D837E682F9F
:10233000646180E00E946F0D80E00E94880D682F2C
:10234000606680E00E946F0D1092880410928704EE
:1023500010928A041092890482E493E00E94E00AB9
:102360000EE912E0F8016491611103C00E94DC0AD9
:10237000C4C4E091F704F091F8040190F081E02DDD
:1023800087EF94E009950F5F1F4F892B59F7EECF28
:102390008093730490937404A0937504B0937604AF
:1023A000CE0101960E94A704698170E06053784FC6
:1023B000072E000C880B990B4AE00E94EC0A8FE272
:1023C0000E942D0B6A8170E080E090E04AE00E945C
:1023D000EC0A8FE20E942D0B6B8170E080E090E0B0
:1023E0004AE00E94EC0A80E20E942D0B6C8170E0B2
:1023F00080E090E04AE00E94EC0A8AE30E942D0B04
:102400006D8170E080E090E04AE00E94EC0A8AE38F
:102410000E942D0B6E8170E080E090E04AE00E9407
:10242000EC0A0E94DC0ACE0101960E94A7048E816C
:1024300080934C041D8110930601DC80D09207012B
:10244000FB80F0920801EA80E0920901898190E026
:102450008053984F90930101809300016E2D70E09E
:1024600080E090E00E94BC192B013C016F2D70E0D0
:1024700080E090E00E94BC196C877D878E879F87E3
:102480006D2D70E080E090E00E94BC19688B798B24
:102490008A8B9B8B612F70E080E090E00E94BC19DA
:1024A0006C8B7D8B8E8B9F8B20E030E040E050E486
:1024B000C301B2010E941119882309F43FC420E02E
:1024C00030E040E450E4C301B2010E9411198823B6
:1024D00009F43BC420E030E040E850E4C301B2011D
:1024E0000E941119882309F437C4812C912C5401BE
:1024F00020E030E040EA50E4C301B2010E9411192B
:10250000882309F430C420E030E040EC50E4C301FB
:10251000B2010E941119882309F42CC420E030E094
:1025200040EE50E4C301B2010E941119882309F45E
:1025300028C420E030E040E051E4C301B2010E9431
:102540001119882309F424C420E030E040E151E46B
:10255000C301B2010E941119882309F420C420E0AC
:1025600030E040E251E4C301B2010E941119882316
:1025700009F41CC420E030E040E351E4C301B2019F
:102580000E941119882309F419C420E030E040E4C6
:1025900051E4C301B2010E941119811106C0812CBE
:1025A000912C37EAA32E33E4B32E2C853D854E853E
:1025B0005F85C501B4010E94181820E030E04EE8A4
:1025C00053E40E94181820E030EA46EB53E40E94DE
:1025D0001B192BED3FE049EC50E40E94151B0E94B3
:1025E000821B24E03DE841ED5EE30E94151B6C87F1
:1025F0007D878E879F8760935504709356048093E0
:102600005704909358048F2D90E09C01215031097C
:102610002330310510F480E090E09C012450310912
:102620002330310510F481E090E09C0127503109FE
:102630002330310510F482E090E09C012A503109EA
:102640002330310510F483E090E09C012D503109D6
:102650002330310510F484E090E09C0120513109D1
:102660002330310510F485E090E09C0123513109BD
:102670002330310510F486E090E09C0126513109A9
:102680002330310510F487E090E09C012951310995
:102690002330310510F488E090E09C012C51310981
:1026A0002430310510F489E090E06E2D70E00E9436
:1026B00026094B015C0120E030E040E752E46C89E0
:1026C0007D898E899F890E941B199B01AC016889B5
:1026D00079898A899B890E94181820E030E040E4BB
:1026E00051E40E94171820E030E040E751E40E94D6
:1026F000151B6B017C0121EE3AE744E152E4C50170
:10270000B4010E94181820E030E044E352E40E9433
:1027100017189B01AC01C701B6010E9418182BEDD8
:102720003FE049E450E40E94151B20E030E044E320
:1027300053E40E941B194B015C0160935104709398
:1027400052048093530490935404C0900201D0909B
:102750000301E0900401F0900501C701B6010E9459
:10276000821B688F798F8A8F9B8F6C857D858E8584
:102770009F850E94821B9B01AC01C701B60128A75F
:1027800039A74AA75BA70E9416196C8F7D8F8E8F81
:102790009F8F6C857D858E859F850E9416196CA301
:1027A0007DA38EA39FA3C501B4010E94161968A33F
:1027B00079A38AA39BA328A539A54AA55BA5688D03
:1027C000798D8A8D9B8D0E94151B6B017C012CA13C
:1027D0003DA14EA15FA16C8D7D8D8E8D9F8D0E9440
:1027E000151B28A139A14AA15BA10E94151B9B01C1
:1027F000AC01C701B6010E9418180E94841820E09D
:1028000030E044E353E40E94151B2BED3FE049E424
:1028100050E40E941B1960934D0470934E04809302
:102820004F04909350046C857D858E859F850E9412
:10283000D41B6C877D878E879F87C501B4010E945A
:10284000821B6B017C01288D398D4A8D5B8D68A1BF
:1028500079A18AA19BA10E94151B4B015C012C8DC3
:102860003D8D4E8D5F8D6C857D858E859F850E940B
:10287000151B9B01AC01C501B4010E9417189B01F7
:10288000AC01C701B6010E94B2182BED3FE049E44C
:1028900050E40E94181820E030E044E353E40E9422
:1028A000151B2BED3FE049E450E40E941B19609397
:1028B000590470935A0480935B0490935C0486E2FD
:1028C00093E00E94320DC301B2010E945E0E8EE2BF
:1028D00093E00E94320D6091080170E080E090E08A
:1028E0004AE00E94EC0A0E94DC0A84E393E00E9422
:1028F000320D688979898A899B890E945E0E8BE3F3
:1029000093E00E94320D6C897D898E899F890E9497
:102910005E0E84E493E00E94E00A60914D047091A1
:102920004E0480914F04909150040E945E0E8DE4FD
:1029300093E00E94E00A6091590470915A048091DA
:102940005B0490915C040E945E0E89ED95E00E940C
:10295000C00686EC95E00E94C00683EB95E00E94DD
:10296000C00680EA95E00E94C00689ED95E00E94CD
:10297000EF0B60936F0470937004809371049093D5
:10298000720486EC95E00E94EF0B60936B047093E9
:102990006C0480936D0490936E0483EB95E00E9429
:1029A000EF0B6093670470936804809369049093BD
:1029B0006A0480EA95E00E94EF0B609363047093D1
:1029C0006404809365049093660485E593E00E9417
:1029D000E00A60916F04709170048091710490918D
:1029E00072040E945E0E60916B0470916C04809181
:1029F0006D0490916E040E945E0E60916704709168
:102A000068048091690490916A040E945E0E60914E
:102A100063047091640480916504909166040E943F
:102A20005E0E80906F0490907004A0907104B0903E
:102A3000720460910A0170910B01072E000C880B43
:102A4000990B0E94BE196B017C019B01AC01C50171
:102A5000B4010E94111987FDB8C1A7019601C501F3
:102A6000B4010E94081B18160CF4BBC180906B04C3
:102A700090906C04A0906D04B0906E04A701960134
:102A8000C501B4010E94111987FDB7C1A7019601C4
:102A9000C501B4010E94081B18160CF4BAC183E6E4
:102AA00093E00E94320D8091620490E00E946B0ED0
:102AB00083E693E00E94320D8091610490E00E94D1
:102AC0006B0E83E00E94340DBC01990F880B990BAB
:102AD0000E94BE196B017C0180918704909188044B
:102AE000BC01990F880B990B0E94BE199B01AC0188
:102AF000C701B6010E94171820917704309178041D
:102B00004091790450917A040E94151B60937B04D4
:102B100070937C0480937D0490937E0487E00E94F0
:102B2000340DBC01990F880B990B0E94BE196B01E3
:102B30007C018091890490918A04BC01990F880BD3
:102B4000990B0E94BE199B01AC01C701B6010E94FE
:102B500017182091770430917804409179045091AE
:102B60007A040E94151B60937F0470938004809305
:102B700081049093820485E00E94340DBC01990F7A
:102B8000880B990B0E94BE1920917704309178042C
:102B90004091790450917A040E94151B609383043C
:102BA00070938404809385049093860420917B0421
:102BB00030917C0440917D0450917E0460917F04AB
:102BC0007091800480918104909182040E94B218D7
:102BD00023E737E74EE95DE30E9418186B017C019B
:102BE00020E030E0A9010E94111987FF0AC02BEDF7
:102BF0003FE049EC50E4C701B6010E9418186B0190
:102C00007C012BED3FE049EC50E4C701B6010E9486
:102C1000081B181654F42BED3FE049EC50E4C701B3
:102C2000B6010E9417186B017C0120E030E044E3FC
:102C300053E4C701B6010E94151B2BED3FE049E4A8
:102C400050E40E941B1960935D0470935E048093AE
:102C50005F049093600482E793E00E94320D42E0AB
:102C6000C701B6010E945E0C8EE793E00E94320D10
:102C700060915D0470915E0480915F0490916004A6
:102C800042E00E945E0C0E94DC0AC0905D04D0907D
:102C90005E04E0905F04F09060048090590490908E
:102CA0005A04A0905B04B0905C0420E030E040E661
:102CB00052E4C701B6010E94081B18160CF0EFC0C1
:102CC00020E030E046E953E4C701B6010E94111943
:102CD00087FFE5C0A5019401C701B6010E94111943
:102CE00087FDA3C0A5019401C701B6010E94081B7E
:102CF00018160CF4B8C00E9454022FB7F8948091B3
:102D0000480490914904A0914A04B0914B042FBF0C
:102D1000409173045091740460917504709176042D
:102D20008C019D01041B150B260B370BB901A80163
:102D3000493E534061057105F0F22ACB812C912C5C
:102D4000B8EFAB2EB1E4BB2ED3CB812C912CACE6EB
:102D5000AA2EA2E4BA2ED7CB812C912CF4EBAF2E65
:102D6000F2E4BF2EDBCB812C912CE0EFAE2EE2E41F
:102D7000BE2EDFCB812C912C77E1A72E73E4B72EEA
:102D8000E3CB812C912C65E3A62E63E4B62EE7CB32
:102D9000812C912C54E5A52E53E4B52EEBCB812C40
:102DA000912C43E7A42E43E4B42EEFCB812C20E8F2
:102DB000922E28E8A22E23E4B22EF7CB812C912C60
:102DC00098E9A92E93E4B92EF0CB80916204811189
:102DD00076C081E08093620460E08AE00E949B03F9
:102DE0003CCE80916204882309F440CE10926204A4
:102DF00061E08AE00E949B0339CE809161048111D9
:102E000068C081E08093610460E08BE00E949B03D6
:102E10003DCE80916104882309F441CE1092610473
:102E200061E08BE00E949B033ACEA7019601C501A9
:102E3000B4010E94171820E030E040E251E40E9403
:102E4000081B18163CF461E08CE00E949B038AE8A2
:102E500093E006C060E08CE00E949B038FE893E063
:102E60000E94E00A3FCFA5019401C701B6010E946C
:102E7000171820E030E040E251E40E94081B1816C9
:102E80003CF461E081E10E949B0389E993E009C081
:102E900060E081E10E949B038FE993E002C08AEA2F
:102EA00093E00E94E00A27CF81EB93E00E94E00AC2
:102EB00064EF71E080E090E00E9423044DCAA70116
:102EC0009601C501B4010E94081B18160CF48ECFA0
:102ED000CDCDA7019601C501B4010E94081B1816AB
:102EE0000CF49CCFDCCDE7EFF4E01382128288EE85
:102EF00093E0A0E0B0E084839583A683B78326EFB8
:102F000032E03183208325EC30E03587248724ECC0
:102F100030E03787268720EC30E0318B208B21ECA6
:102F200030E0338B228B22EC30E0358B248B26EC87
:102F300030E0378B268B118E128E138E148EE4E9BF
:102F4000F5E01382128284839583A683B78386E09B
:102F500093E09183808362E086E196E00E9491068F
:102F600063E088E096E00E94910664E08AEF95E0D5
:102F70000E94910665E08CEE95E00E949106E9EDD5
:102F8000F5E023E832E0328B218B86E196E09683F0
:102F900085831482108299E0918381E08283838308
:102FA000E6ECF5E0328B218B48E056E05683458312
:102FB00014821082918382838383E3EBF5E0328B6A
:102FC000218B4AEF55E0568345831482108291830A
:102FD00082838383E0EAF5E0328B218B2CEE35E0AF
:102FE000368325831482108291838283838308959C
:102FF000FB01DC0102C005900D9241505040D8F712
:103000000895F999FECF92BD81BDF89A992780B5B0
:103010000895262FF999FECF1FBA92BD81BD20BD1C
:103020000FB6F894FA9AF99A0FBE0196089550587F
:10303000BB27AA270E942F180C94BA1A0E94811A43
:1030400038F00E94881A20F039F49F3F19F426F4D2
:103050000C94431A0EF4E095E7FB0C943D1AE92F0B
:103060000E94DF1A58F3BA1762077307840795079F
:1030700020F079F4A6F50C94011B0EF4E0950B2ECC
:10308000BA2FA02D0B01B90190010C01CA01A001BA
:103090001124FF27591B99F0593F50F4503E68F115
:1030A0001A16F040A22F232F342F4427585FF3CF56
:1030B000469537952795A795F0405395C9F77EF427
:1030C0001F16BA0B620B730B840BBAF09150A1F070
:1030D000FF0FBB1F661F771F881FC2F70EC0BA0FF6
:1030E000621F731F841F48F4879577956795B7957E
:1030F000F7959E3F08F0B0CF9395880F08F0992779
:10310000EE0F9795879508959F939F77EEE3893704
:103110009E0728F4EEE8F0E00E946D1A0CC00E94B1
:10312000F9199058A2EA2AED3FE049EC5FE30E94CA
:103130002F180E94BA1A0F9007FC905808950E9409
:10314000811A60F080E891E009F49EEF0E94881AED
:1031500028F040E851E071F45EEF0CC00C94431A83
:103160000C94011BE92FE0780E94DF1A40F3092E2E
:10317000052AB1F3261737074807590738F00E2EEE
:1031800007F8E02569F0E025E0640AC0EF6307F87E
:10319000009407FADB01B9019D01DC01CA01AD0110
:1031A000EF930E9432190E94BA1A0E94E2185F91AE
:1031B000552339F02BED3FE049E450FD49EC0C94E8
:1031C00018180895DF93DD27B92FBF7740E85FE334
:1031D0001616170648075B0718F4D92F0E940D1B17
:1031E0009F938F937F936F930E94D01BE2EAF0E04E
:1031F0000E94461A0E94BA1A2F913F914F915F91F7
:103200000E94281BDD2351F09058A2EA2AED3FE0EE
:1032100049EC5FE3D0785D270E942F18DF910C9472
:10322000BA1A0E94191A08F481E008950E94911AAE
:10323000E3950C94CB1A0E942F190C94BA1A0E9491
:10324000881A58F00E94811A40F029F45F3F29F053
:103250000C943D1A51110C94021B0C94431A0E94B9
:10326000DF1A68F39923B1F3552391F3951B550B9E
:10327000BB27AA2762177307840738F09F5F5F4F49
:10328000220F331F441FAA1FA9F335D00E2E3AF088
:10329000E0E832D091505040E695001CCAF72BD0A0
:1032A000FE2F29D0660F771F881FBB1F26173707F1
:1032B0004807AB07B0E809F0BB0B802DBF01FF2723
:1032C00093585F4F3AF09E3F510578F00C943D1AA9
:1032D0000C94021B5F3FE4F3983ED4F386957795F8
:1032E0006795B795F7959F5FC9F7880F911D9695DC
:1032F000879597F90895E1E0660F771F881FBB1F38
:10330000621773078407BA0720F0621B730B840BE4
:10331000BA0BEE1F88F7E09508950E94E71A88F02F
:103320009F5798F0B92F9927B751B0F0E1F0660F89
:10333000771F881F991F1AF0BA95C9F714C0B130CA
:1033400091F00E94011BB1E008950C94011B672FBE
:10335000782F8827B85F39F0B93FCCF386957795F9
:103360006795B395D9F73EF49095809570956195E2
:103370007F4F8F4F9F4F0895E89409C097FB3EF40D
:1033800090958095709561957F4F8F4F9F4F9923B2
:10339000A9F0F92F96E9BB279395F6958795779530
:1033A0006795B795F111F8CFFAF4BB0F11F460FFF0
:1033B0001BC06F5F7F4F8F4F9F4F16C0882311F048
:1033C00096E911C0772321F09EE8872F762F05C05C
:1033D000662371F096E8862F70E060E02AF09A95F7
:1033E000660F771F881FDAF7880F9695879597F9EC
:1033F0000895DF93CF931F930F938B01EC01EFECB4
:10340000F0E00E94461A0E94BA1A9801AE018B01A0
:10341000EC0160E070E080E89FE30E9417180E94D2
:10342000901B9801AE010F911F91CF91DF910C94E9
:10343000281B990F0008550FAA0BE0E8FEEF16169F
:103440001706E807F907C0F012161306E407F50798
:1034500098F0621B730B840B950B39F40A2661F00C
:10346000232B242B252B21F408950A2609F4A140AF
:10347000A6958FEF811D811D089597F99F6780E8BC
:1034800070E060E008959FEF80EC0895DF93CF93A4
:103490001F930F93FF92EF92DF927B018C01689450
:1034A00006C0DA2EEF010E94281BFE01E894A591C8
:1034B0002591359145915591A6F3EF010E942F1862
:1034C000FE019701A801DA9469F7DF90EF90FF9071
:1034D0000F911F91CF91DF9108959F938F937F93C9
:1034E0006F93FF93EF939B01AC010E94151BEF912B
:1034F000FF910E94461A2F913F914F915F910C943A
:10350000151B00240A9416161706180609060895B6
:1035100000240A94121613061406050608950C9446
:10352000431A0E94E71AD8F3E894E0E0BB279F57BC
:10353000F0F02AED3FE049EC06C0EE0FBB0F661F2E
:10354000771F881F28F0B23A62077307840728F0B4
:10355000B25A620B730B840BE3959A9572F780381D
:1035600030F49A95BB0F661F771F881FD2F79048DB
:103570000C94001C092E0394000C11F4882352F0C3
:10358000BB0F40F4BF2B11F460FF04C06F5F7F4F8F
:103590008F4F9F4F0895EF93E0FF07C0A2EA2AEDF7
:1035A0003FE049EC5FEB0E942F180E94BA1A0F907F
:1035B000039401FC9058E7EFF0E00C946D1A57FD6E
:1035C0009058440F551F59F05F3F71F04795880F91
:1035D00097FB991F61F09F3F79F087950895121628
:1035E00013061406551FF2CF4695F1DF08C01616D4
:1035F00017061806991FF1CF869571056105089485
:103600000895E894BB2766277727CB0197F908959B
:103610000E94191A08F48FEF08959B01AC0160E035
:1036200070E080E89FE30C941B190E94281B0C9407
:10363000BA1A0E94811A38F00E94881A20F0952345
:1036400011F00C943D1A0C94431A11240C94021B93
:103650000E94DF1A70F3959FC1F3950F50E0551F3C
:10366000629FF001729FBB27F00DB11D639FAA27D7
:10367000F00DB11DAA1F649F6627B00DA11D661F26
:10368000829F2227B00DA11D621F739FB00DA11D47
:10369000621F839FA00D611D221F749F3327A00D01
:1036A000611D231F849F600D211D822F762F6A2F9D
:1036B00011249F5750409AF0F1F088234AF0EE0F02
:1036C000FF1FBB1F661F771F881F91505040A9F72F
:1036D0009E3F510580F00C943D1A0C94021B5F3FF5
:1036E000E4F3983ED4F3869577956795B795F7956B
:1036F000E7959F5FC1F7FE2B880F911D96958795E3
:1037000097F908959F930E94911A0F9007FCEE5F1E
:103710000C94CB1A19F416F40C94431A0C94FE1B57
:103720000E94E71AB8F39923C9F3B6F39F57550BD4
:1037300087FF0E940C1C0024A0E640EA90018058FC
:103740005695979528F4805C660F771F881F20F0A8
:1037500026173707480730F4621B730B840B2029A8
:1037600031294A2BA69517940794202531254A27FD
:1037700058F7660F771F881F20F02617370748076E
:1037800030F4620B730B840B200D311D411DA0958D
:1037900081F7B901842F9158880F969587950895E0
:1037A0009B01AC010C94151BDF93D92F0E94911A39
:1037B000E695D7952AED3FE049E45FE3B33A620727
:1037C000730784079507D7953AF0A2EA49EC906809
:1037D0000E942F180E94BA1AE5E1F1E00E946D1ACA
:1037E000DD0F13F00E940D1BDD0F0BF49058DF91DD
:1037F00008950E94191A880B990B08959F3F31F084
:10380000915020F4879577956795B795880F911D0E
:103810009695879597F9089591505040660F771FB8
:10382000881FD2F7089597FB072E16F4009407D04F
:1038300077FD09D00E94691C07FC05D03EF49095E5
:1038400081959F4F0895709561957F4F0895A1E2EE
:103850001A2EAA1BBB1BFD010DC0AA1FBB1FEE1F0A
:10386000FF1FA217B307E407F50720F0A21BB30B55
:10387000E40BF50B661F771F881F991F1A9469F7D1
:1038800060957095809590959B01AC01BD01CF012D
:103890000895EE0FFF1F0590F491E02D0994A29F6B
:1038A000B001B39FC001A39F700D811D1124911D14
:1038B000B29F700D811D1124911D08950E944F1C0F
:1038C000A59F900DB49F900DA49F800D911D112474
:1038D0000895AA1BBB1B51E107C0AA1FBB1FA61757
:1038E000B70710F0A61BB70B881F991F5A95A9F7A9
:1038F00080959095BC01CD01089581E090E0F89409
:083900000C94821CF894FFCF27
:103908001000295C5E420A0A0F032D002FDD84BFD8
:103918001283B0BFE7FBD9BFB07200C0FA7E12C0F5
:10392800AAF122C0FCA931C08D973EC0FCA949C0AC
:10393800E5D052C0CFF75BC0128360C0333363C099
:103948006DE763C048E162C0621060C01F855BC05C
:10395800068155C019044EC01B2F45C0D1223BC05B
:10396800621030C0310824C0643B17C0C1CA09C006
:10397800D9CEF7BF9643DBBF0456BEBFAE47A1BF43
:10398800E17A84BFA4703DBF79E906BF2FDDA4BEEC
:103998004A0C02BEAE47613D4260653E1283C03E9E
:1039A8006F12033FAE47213F355E3A3F04564E3F04
:1039B80091ED5C3F54E3653F5EBA693F9EEF673F18
:1039C8009CC4603F5839543FE5D0423FCDCC2C3F92
:1039D8000E2D123F85EBD13ECDCC8C3E6F12033EAF
:1039E800F4FDD4BCC9763EBE21B0B2BE6F1203BF8F
:1039F800BA492CBF583954BFAC1C7ABF1D5A94BF62
:103A0800CFF7A3BF3789B1BF560EBDBF1904C6BFD4
:103A1800448BCCBF4E62D0BF7368D1BFB29DCFBFBD
:103A280048E1CABF3333C3BF7593B8BF9643ABBF32
:103A3800D1229BBFEC5188BF666666BFC74B37BFB4
:103A48000AD703BF871699BE295C8FBD3789813E87
:103A58003789013F9318443F0AD7833FDD24A63FA7
:103A6800EC51C83F355EEA3F54E305403F35164008
:103A7800B6F32540F4FD3440333343404E625040A2
:103A88007F6A5C40643B674075937040B0727840D1
:103A9800F0A77E406891814079E9824033338340C2
:103AA800A2458240EC51804083C07A40E5D0724004
:103AB800FED4684091ED5C40A01A4F40EE7C3F4038
:103AC8003F352E40CDCC144089410040B81ED53F2B
:103AD8009EEFA73F21B0723FCFF7133F85EB513ED2
:103AE8000C022BBE39B408BFA69B64BF5E00BC00A5
:103AF800770100000000EB019A0EB4019201A601C3
:103B08003202000000001203E202DA02C602B70223
:103B1800B602496E697469616C697A6520484D43DB
:103B2800353838334C006D6F6E746832200064612C
:103B380079322000686F75723220006D696E757475
:103B480065322000416C74697475646500417A6956
:103B58006D7574680054656D706572617475726511
:103B68003A200072656C6179315374617475733AE7
:103B780020002048656164696E67203D200020446C
:103B8800656772657373203D2000504C5553005093
:103B98004C55532053746F70004D494E5553004D8A
:103BA800494E55532053746F70004E6F2053554E35
:103BB80000436F756C64206E6F742066696E6420B4
:103BC800612076616C696420484D43353838334C40
:103BD8002073656E736F722C20636865636B207742
:103BE8006972696E6721000D0A006E616E00696E68
:063BF80066006F76660016
:00000001FF
