:100000001AC2000049C2000047C2000045C20000F9
:1000100043C2000041C200003FC200003DC20000D8
:100020003BC200000C94EE080C94EE080C94EE0811
:1000300033C2000031C200002FC200002DC20000F8
:100040002BC2000029C2000027C2000025C2000008
:1000500023C2000021C200001FC2000048C50000EA
:100060001BC200001DC40000F2C3000015C2000046
:1000700013C2000011C200000FC200000DC2000038
:100080000BC2000009C2000007C2000005C2000048
:1000900003C2000001C20000FFC100000C94F80878
:1000A000FBC10000F9C10000F7C10000F5C100006C
:1000B000F3C10000F1C10000EFC10000EDC100007C
:1000C000EBC10000E9C10000E7C10000E5C100008C
:1000D000E3C10000E1C10000DFC10000DDC100009C
:1000E000DBC10000B504B804A704AB04AF04EF04FF
:1000F000BC04C004C604CA04CE04D404D804DC047E
:10010000EF04E204E604EA048210971097109610B8
:1001100097107410971097109710761097109710EB
:100120008910941092109710971097109010036EEA
:10013000DB363D9A9999993DABAAAA2A3E00000068
:10014000803F084AD73B3BCE016E84BCBFFDC12F28
:100150003D6C74319ABD56833DDA3D00C77F11BEB8
:10016000D9E4BB4C3E916BAAAABE000000803F07B9
:100170002C7AA5BA6CC590DA3B9365FC8BBC53F81E
:1001800010FD3C5692834DBD879D3AB63DCBC9BF0D
:100190005BBE73DA0FC93F05A84CCDB2D44EB93857
:1001A00036A9020C50B9918688083CA6AAAA2ABE94
:1001B000000000803F0664EC1B3C04BC163E3BE59F
:1001C000B93CC93C37C29E5A3D660498083EEA696C
:1001D000AAAA3E000000803F000020002300260065
:1001E00029002C002F00320000010000030106014D
:1001F0000901005EBCE2613FDD83C29C7E20A3FD5D
:100200001F419DC3217FFCA2401E5F01E3BD3E60F4
:1002100082DC237D9FC1421CFEA0E1BF5D0380DE26
:100220003C62BEE0025CDF81633D7C22C09E1D43D8
:10023000A1FF4618FAA427799BC584DA3866E5BB86
:100240005907DB856739BAE406581947A5FB7826B4
:10025000C49A653BD987045AB8E6A7F91B45C698E6
:100260007A24F8A6441A99C7257B3A6486D85B0598
:10027000E7B98CD2306EEDB3510F4E10F2AC2F7146
:1002800093CD114FADF3702ECC92D38D6F31B2EC74
:100290000E50AFF1134DCE90722C6D33D18F0C52A6
:1002A000B0EE326C8ED0530DEFB1F0AE4C1291CF58
:1002B0002D73CA947628ABF517490856B4EA693706
:1002C000D58B5709EBB536688AD495CB2977F4AA34
:1002D0004816E9B7550B88D6346A2B7597C94A1466
:1002E000F6A8742AC896154BA9F7B6E80A54D78918
:1002F0006B3500002100240027002A002D0030006B
:10030000330001010000040107010A01000022007E
:10031000250028002B002E003100340002010000CF
:10032000050108010B010505050507050808080872
:10033000020202020A0A080804040404010101017D
:100340000101010103030303030303030407070778
:100350000C0C0C0C0C0C0C0C02020202060606061D
:10036000060606060B0B0B0B0B0B0B0B01021020EA
:1003700020080810204010204080020102010804DB
:10038000020101020408102040808040201008046F
:1003900002018004020180402010080402010804C8
:1003A000020101020408102040800102040810200C
:1003B000408000000A0B02090C0D0E08070304011F
:1003C000000000000000000000000000000000002D
:1003D00000000000000000000000000000001211FA
:1003E00010000000000000000000000000000000FD
:1003F00000000000000000001F1C1F1E1F1E1F1F0A
:100400001E1F1E1F53797374656D20696E697469B0
:10041000616C697A6174696F6E204F4B212E0032D6
:10042000323A35343A3431004D617920313120325D
:10043000303137000D1811241FBECFEFD1E2DEBFDF
:10044000CDBF00E00CBF14E0A0E0B2E0E0E9F9E3CA
:1004500000E00BBF02C007900D92A83FB107D9F78B
:1004600027E0A8EFB4E001C01D92A832B207E1F77F
:1004700012E0CBE1D2E000E006C021970109802F15
:10048000FE010E948D1CCA31D10780E00807A9F740
:100490000E94A60F0C94C61CB3CDFC01918D828DD9
:1004A000981761F0828DDF01A80FB11D5D968C91C8
:1004B000928D9F5F9F73928F90E008958FEF9FEFD3
:1004C0000895FC01918D828D981731F0828DE80F8F
:1004D000F11D858D90E008958FEF9FEF0895FC0149
:1004E000918D228D892F90E0805C9F4F821B910916
:1004F0008F739927089587EE95E0F1DF21E0892B2E
:1005000009F420E0822F0895FC01848DDF01A80FFB
:10051000B11DA35ABF4F2C91848D90E001968F732B
:100520009927848FA689B7892C93A089B1898C914A
:1005300080648C93938D848D981306C00288F38910
:10054000E02D80818F7D80830895EF92FF920F933D
:100550001F93CF93DF93EC0181E0888F9B8D8C8D6F
:10056000981305C0E889F989808185FD23C0F62E9E
:100570000B8D10E00F5F1F4F0F731127E02E8C8D36
:10058000E8120BC00FB607FCFACFE889F989808121
:1005900085FFF5CFCE01B8DFF2CF8B8DFE01E80FDE
:1005A000F11DE35AFF4FF0820B8FEA89FB898081AE
:1005B000806207C0EE89FF896083E889F9898081BC
:1005C0008064808381E090E0DF91CF911F910F9153
:1005D000FF90EF900895CF93DF93EC01888D8823EF
:1005E000C1F0EA89FB89808185FD05C0A889B989A8
:1005F0008C9186FD0EC00FB607FCF5CF808185FF7C
:10060000F2CFA889B9898C9185FFEDCFCE017CDF2F
:10061000E8CFDF91CF91089580E090E0892B19F029
:100620006ADF811125C080E090E0892B41F080E0F5
:1006300090E0892B21F00E94000081111CC080E015
:1006400090E0892B41F080E090E0892B21F00E941E
:100650000000811113C080E090E0892BA1F080E0C0
:1006600090E0892B81F00E94000081110AC008955A
:100670000E940000D8CF0E940000E1CF0E9400003D
:10068000EACF0C94000008953FB7F894809142059A
:1006900090914305A0914405B091450526B5A89BCE
:1006A00005C02F3F19F00196A11DB11D3FBFBA2F04
:1006B000A92F982F8827820F911DA11DB11DBC0164
:1006C000CD0142E0660F771F881F991F4A95D1F729
:1006D0000895089585ED8093BC008091BC0084FD51
:1006E000FCCF1092C205089540911A05262F30E0E4
:1006F000240F311D21323105DCF42091C205243054
:10070000C9F4FC0180E090E0861758F430911A0596
:100710002191DC01A850BB4FA30FB11D2C93019672
:10072000F3CF80911A05680F60931A0580E0089551
:1007300081E0089582E008950895E0917B0580911D
:100740007A05E81730F4F0E0E458FA4F808190E041
:1007500008958FEF9FEF089590917B0580917A0522
:10076000981750F4E92FF0E0E458FA4F208130E078
:100770009F5F90937B0502C02FEF3FEFC901089563
:1007800080917A0590E020917B05821B9109089564
:10079000CF92DF92EF92FF920F931F93CF93DF934D
:1007A0007C01262F972F8A018091C305882391F021
:1007B000C62FD72F6E01C40ED51ECC15DD0569F0EE
:1007C0006991D701ED91FC910190F081E02DC70175
:1007D0001995F3CF642F822F87DFC801DF91CF9166
:1007E0001F910F91FF90EF90DF90CF900895CF93DE
:1007F000DF931F92CDB7DEB769832091C305222313
:10080000D1F02091E605203240F021E030E0FC01FB
:100810003383228380E090E014C08091C405E82FE8
:10082000F0E0EB53FA4F998190838F5F8093C4057A
:100830008093E60504C061E0CE01019655DF81E0BA
:1008400090E00F90DF91CF9108950E94C21C1F92FB
:100850000F920FB60F9211240BB60F922F933F9366
:100860004F935F936F937F938F939F93AF93BF93B8
:10087000EF93FF9387EE95E047DEFF91EF91BF91F5
:10088000AF919F918F917F916F915F914F913F9128
:100890002F910F900BBE0F900FBE0F901F901895C9
:1008A0001F920F920FB60F9211240BB60F922F9337
:1008B0008F939F93EF93FF93E091F705F091F805E5
:1008C0008081E091FD05F091FE0582FD12C09081CE
:1008D000809100068F5F8F7320910106821751F07F
:1008E000E0910006F0E0E951FA4F958F8093000601
:1008F00001C08081FF91EF919F918F912F910F9077
:100900000BBE0F900FBE0F901F901895362F90E0E2
:10091000FC01EE54FC4F4491FC01E459FC4F24913E
:10092000FC01EA5DFC4F9491992309F46BC04423C8
:1009300009F455C050E0FA013197E231F10508F0B1
:100940004EC08827EE58FF4F8F4F0C948D1C80911E
:1009500080008F7707C0809180008F7D03C08091D9
:100960008000877F809380003AC084B58F7702C073
:1009700084B58F7D84BD33C08091B0008F7703C074
:100980008091B0008F7D8093B00029C0809190004D
:100990008F7707C0809190008F7D03C08091900079
:1009A000877F809390001BC08091A0008F7707C045
:1009B0008091A0008F7D03C08091A000877F8093ED
:1009C000A0000DC0809120018F7707C08091200189
:1009D0008F7D03C080912001877F80932001E92FC4
:1009E000F0E0EE0FFF1FE45FFC4FA591B4918FB7CD
:1009F000F894EC91311103C020952E2301C02E2BC9
:100A00002C938FBF0895CF93DF9390E0FC01E459BE
:100A1000FC4F2491FC01EA5DFC4F8491882361F135
:100A200090E0880F991FFC01EE50FD4FC591D491C5
:100A3000FC01E45FFC4FA591B491611109C09FB71F
:100A4000F8948881209582238883EC912E230BC013
:100A5000623061F49FB7F8943881822F80958323A8
:100A60008883EC912E2B2C939FBF06C08FB7F894F0
:100A7000E8812E2B28838FBFDF91CF9108958F922D
:100A80009F92AF92BF92CF92DF92EF92FF926B0153
:100A90007C01FADD4B015C01C114D104E104F104D5
:100AA000E9F0F2DDDC01CB0188199909AA09BB093B
:100AB000883E9340A105B10578F321E0C21AD10820
:100AC000E108F10888EE880E83E0981EA11CB11C95
:100AD000C114D104E104F10421F7DECFFF90EF90BF
:100AE000DF90CF90BF90AF909F908F9008951F920E
:100AF0000F920FB60F9211242F933F938F939F93D2
:100B0000AF93BF9380914A0590914B05A0914C05FE
:100B1000B0914D053091410523E0230F2D3720F48E
:100B20000196A11DB11D05C026E8230F0296A11D47
:100B3000B11D2093410580934A0590934B05A093E6
:100B40004C05B0934D058091420590914305A091CD
:100B50004405B09145050196A11DB11D8093420544
:100B600090934305A0934405B0934505BF91AF9181
:100B70009F918F913F912F910F900FBE0F901F90DB
:100B80001895CF92DF92EF92FF92CF93DF93EC0113
:100B9000C0904605D0904705E0904805F090490583
:100BA0002FB7F89460914A0570914B0580914C05E0
:100BB00090914D052FBF28EE33E040E050E00E94B9
:100BC0006B1CD701C601820F931FA41FB51FBC0168
:100BD000CD01605873448D4698432CE3C22ED12C2E
:100BE000E12CF12CA70196010E946B1C6D83CA01B8
:100BF000B901A70196010E946B1C6C83CA01B9015F
:100C000028E130E040E050E00E946B1C6B831882CA
:100C100063E97EEF8881482F437091E009F090E00E
:100C2000492F50E0FA01E359FE4F2E173F0740F0DD
:100C3000FB01E41BF50B2E0F3F1F8F5F8883EACF6C
:100C400081E089838981E82FF0E0E950FC4FE4914D
:100C5000992319F0823009F4EF5FF0E02E173F0777
:100C600020F02E1B3F0B8F5FECCF2F5F2A83CE012E
:100C7000DF91CF91FF90EF90DF90CF900895FC012E
:100C8000908190539A3008F090E0818180532AE05F
:100C9000929F800D11240895DC01E0E0615038F04E
:100CA0008D91E827F0E0EE50FE4FE491F7CF8E2FC4
:100CB0000895FC0190810180F281E02DF8948181FA
:100CC000892B81832281892F809528232283A7E085
:100CD000B0E01197F1F7218182238183A3E2B0E094
:100CE0001197F1F780817894EFECF0E03197F1F70C
:100CF000982381E009F480E00895FC01908101804F
:100D0000F281E02D892F809560FF12C0F894228136
:100D1000822382838181892B8183A3E2B0E01197B2
:100D2000F1F78281982B9283789487ED90E011C03F
:100D3000F8942281822382838181892B8183AFEF82
:100D4000B0E01197F1F78281982B928378948FE02D
:100D500090E00197F1F70895CF92DF92EF92FF9222
:100D60000F931F93CF93DF931F92CDB7DEB76C0124
:100D7000E62E08E010E0FF24F39461E08F2D8E2131
:100D800009F460E0C6014983B8DFFF0C0150110986
:100D900049810115110589F7411115C0F894D60153
:100DA0001196ED91FC91129791818C9180958923F8
:100DB00081831196ED91FC91129792818C9180958F
:100DC0008923828378940F90DF91CF911F910F91A7
:100DD000FF90EF90DF90CF900895CF92DF92EF9247
:100DE000FF920F931F93CF93DF931F92CDB7DEB780
:100DF0008C01F62E40E065E57983AEDFCF2C79815A
:100E0000D72E760188E0E80EF11CF60161916F01A2
:100E100040E0C801A1DFCE14DF04B9F70F90DF91E5
:100E2000CF911F910F91FF90EF90DF90CF90089599
:100E3000FC0190810180F281E02DF8948181292FBD
:100E400020958223818378948DE743E050E08150A0
:100E500021F1DA011197F1F730813923C1F3F894C8
:100E60008281822382838181892B81837894ABE77D
:100E7000B7E01197F1F7F894818128232183A3E14A
:100E8000B1E01197F1F78081982381E009F080E0CB
:100E90007894E3E6F6E03197F1F708956F927F9248
:100EA0008F929F92AF92BF92CF92DF92EF92FF927A
:100EB0000F931F93CF93DF931F92CDB7DEB78C01B3
:100EC000F42EFC0185819681598387DF40E06EEB2B
:100ED000F8018581968140DF6F2C5981752E530171
:100EE000F9E0AF0EB11CF8018580968088E0C82E2D
:100EF000D12CEE24E394F12CC401DBDE8111FE2819
:100F0000EE0CF1E0CF1AD108B9F7F301F1923F01ED
:100F1000EA15FB0541F7F8018581968189DF91E0AB
:100F2000813009F090E0892F0F90DF91CF911F91D0
:100F30000F91FF90EF90DF90CF90BF90AF909F9078
:100F40008F907F906F9008950F931F93CF93DF93AF
:100F5000EC01162F60E0812F56DD612F70E0FB0160
:100F6000E459FC4FE491E883FB01EA5DFC4FE49116
:100F7000F0E0EE0FFF1FE852FE4F859194919A83A7
:100F800089831B861D861C86FE013B968E010D5FA4
:100F90001F4F1292E017F107E1F7DF91CF911F91F8
:100FA0000F910895CF93DF93EC018D819E8140DFF7
:100FB00040E06CEC8D819E81CFDE488164E48D81C0
:100FC0009E81CADE8A818823A9F0E981E950E33055
:100FD00040F4F0E0EE0FFF1FE251FC4F60817181A1
:100FE00002C06EEE72E0072E000C880B990BDF91A9
:100FF000CF9145CDDF91CF910895EF92FF920F935E
:101000001F93CF93DF931F921F92CDB7DEB78C0152
:101010007A01FC018581968169837A8309DF698180
:101020007A81882361F0A701C80138DF882339F06D
:1010300068E0C70131DE91E0F7012085821390E07E
:10104000892F0F900F90DF91CF911F910F91FF90FB
:10105000EF900895CF93DF93CDB7DEB729970FB602
:10106000F894DEBF0FBECDBFFB0120812031C9F057
:10107000AE014F5F5F4FC1DF882389F08D818F33D1
:1010800061F020F48F3159F489E00CC08F3519F0EC
:101090008F3739F004C08BE005C08AE003C080E0E0
:1010A00001C08CE029960FB6F894DEBF0FBECDBF0D
:1010B000DF91CF910895EF92FF920F931F93CF93FB
:1010C000DF93CDB7DEB761970FB6F894DEBF0FBEE2
:1010D000CDBF8C01DC011596ED91FC91169713861E
:1010E00015861486DF011B9633961E92AE17BF0736
:1010F000E1F7F8011482FF24F394BE01665F7F4F8D
:10110000F801858196810CD3882309F45AC067E0E1
:10111000CE010A96C1DD99898913EFCFD8018C9150
:10112000811121C015968D919C91169781DEBE018B
:10113000665F7F4FF801858196814FDE40E064EB6A
:10114000D80115968D919C91169706DEF801858140
:101150009681AFDDE82ED80115968D919C9116975A
:1011600067DEEE2059F1F8018581968161DE8823E2
:1011700041F0AE014F5F5F4FBE01665F7F4FC80118
:101180008DDED8011196EC90BE01665F7F4FC801DD
:1011900061DF8E1518F4F801818105C0BE01665F1C
:1011A0007F4FC80157DFD80111968C931197149681
:1011B0008C9114978F5F14968C939FCFD801FC92DB
:1011C000D2CF61960FB6F894DEBF0FBECDBFDF91D0
:1011D000CF911F910F91FF90EF9008951F920F9262
:1011E0000FB60F9211240F900FBE0F901F901895FD
:1011F0001F920F920FB60F9211240BB60F922F93DE
:101200003F934F935F936F937F938F939F93AF938E
:10121000BF93EF93FF938091B900887F803609F4E4
:101220009CC068F5883209F45BC090F4803109F401
:1012300054C038F4882309F4F6C0883009F44DC04E
:10124000F5C0883109F44CC0803209F45DC0EEC0AD
:10125000803409F468C048F4803309F455C08833F9
:1012600009F0E4C08093C005D8C0803509F44FC0B0
:10127000883509F45DC0883409F0D8C0D6C08839F3
:1012800009F4C7C0A8F4883709F467C038F4883671
:1012900009F463C0803709F460C0C8C0883809F415
:1012A000B8C0803909F45FC0803809F0BFC05BC0A6
:1012B000803B09F486C038F4803A09F466C0883A65
:1012C00009F47FC0B3C0803C09F4A7C0883C09F48E
:1012D000A4C0883B09F48AC0A9C080919D0510C0B4
:1012E0009091BF058091BE05981770F5E091BF05FC
:1012F00081E08E0F8093BF05F0E0E256FA4F8081C7
:101300008093BB0085EC86C08093C0058EC0E091C1
:10131000BF0581E08E0F8093BF058091BB00F0E098
:10132000E256FA4F80839091BF058091BE056EC052
:10133000E091BF0581E08E0F8093BF058091BB00D7
:10134000F0E0E256FA4F80838091C10581116DC0B3
:1013500081E080939C0584EA61C083E08093C205AC
:1013600010923E05CFCF80913E05803208F051C0EB
:10137000E0913E0581E08E0F80933E058091BB0099
:10138000F0E0E25EFA4F8083BDCF85EC8093BC0035
:101390001092C20580913E05803230F4E0913E0506
:1013A000F0E0E25EFA4F108260913E0570E0E0915D
:1013B0001C05F0911D058EE195E0199510923E05F2
:1013C00035C084E08093C20510921B0510921A0567
:1013D000E0911805F0911905199580911A05811170
:1013E00005C081E080931A051092F804E0911B0576
:1013F00081E08E0F80931B05F0E0E850FB4F808169
:101400008093BB0090911B0580911A05981708F4F2
:1014100079CF85E88093BC0009C085EC8093BC003F
:101420001092C20503C01092C00554D9FF91EF91EC
:10143000BF91AF919F918F917F916F915F914F91EC
:101440003F912F910F900BBE0F900FBE0F901F90EA
:1014500018950F931F93CF93DF93CDB7DEB7A8975F
:101460000FB6F894DEBF0FBECDBF6130710521F419
:1014700028E2EEE0F2E006C062307105C9F428E22D
:10148000E6E3F2E0DE01119601900D922A95E1F774
:10149000FC01EE0FFF1FEE0FFF1F21E030E02C0FCD
:1014A0003D1FE20FF31F008111812281338154C05F
:1014B00063307105C9F428E2EEE5F2E0DE01119631
:1014C00001900D922A95E1F7FC01EE0FFF1FEE0F40
:1014D000FF1F21E030E02C0F3D1FE20FF31F0081C2
:1014E00011812281338154C064307105C9F428E22E
:1014F000E6E8F2E0DE01119601900D922A95E1F7FF
:10150000FC01EE0FFF1FEE0FFF1F21E030E02C0F5C
:101510003D1FE20FF31F008111812281338154C0EE
:1015200065307105C9F428E2EEEAF2E0DE011196B9
:1015300001900D922A95E1F7FC01EE0FFF1FEE0FCF
:10154000FF1F21E030E02C0F3D1FE20FF31F008151
:1015500011812281338146C066307105C9F428E2C9
:10156000E6EDF2E0DE01119601900D922A95E1F789
:10157000FC01EE0FFF1FEE0FFF1F21E030E02C0FEC
:101580003D1FE20FF31F008111812281338131C0A1
:1015900067307105C9F428E2EEEFF2E0DE01119642
:1015A00001900D922A95E1F7FC01EE0FFF1FEE0F5F
:1015B000FF1F21E030E02C0F3D1FE20FF31F0081E1
:1015C0001181228133811CC06830710521F428E229
:1015D000E6E2F3E01BC06930710521F428E2EEE495
:1015E000F3E014C06A30710521F428E2E6E7F3E085
:1015F0000DC06B30710521F428E2EEE9F3E006C07E
:101600006C307105B9F428E2E6ECF3E0DE011196E6
:1016100001900D922A95E1F7880F991F880F991F65
:10162000E1E0F0E0EC0FFD1FE80FF91F00811181F0
:1016300022813381C901B801A8960FB6F894DEBFA4
:101640000FBECDBFDF91CF911F910F9108950097ED
:1016500061F0FC0101900020E9F73197AF01481BD0
:10166000590BBC0187EE95E0EEC280E090E0089552
:1016700089EE94E0ECCFCF93DF93E9DFEC01F8DF64
:101680008C0F9D1FDF91CF9108958F929F92AF9203
:10169000BF920F931F93CF93DF93CDB7DEB7A19780
:1016A0000FB6F894DEBF0FBECDBF19A2423008F4CA
:1016B0004AE08E010F5D1F4F842E912CA12CB12C7E
:1016C000A50194010E946B1CE62FB901CA010150CB
:1016D0001109EA3014F4E05D01C0E95CD801EC9333
:1016E000232B242B252B61F7C801B1DFA1960FB660
:1016F000F894DEBF0FBECDBFDF91CF911F910F9148
:10170000BF90AF909F908F900895E091E705F09182
:10171000E8050190F081E02D682F87EE95E019949F
:10172000AF92BF92CF92DF92EF92FF920F931F93EF
:10173000CF93DF931F92CDB7DEB75C01D62EE72E95
:10174000FC018585811104C0C50172DB811106C0D1
:10175000F50113861586148680E061C040E060EFD5
:10176000C501FADA01E0F12CC12C11E0C501A1DAC2
:10177000682FC50169839DDA6981613019F4813070
:10178000B9F432C04F2D50E068131BC0F5018385BA
:10179000181730F4E40FF51F8381802349F402C049
:1017A000181731F060E0193058F4F501148708C0BB
:1017B000F501EF0DF11D8381802B838361E009C06A
:1017C000C12EF501E40FF51F9381802F80958923A9
:1017D0008383C50192DA1F5F000F11F4F39401E0D7
:1017E000F7E0FF1508F0C2CF113408F4B1CFF501CE
:1017F000C386C11002C081E08587F50183818823FB
:1018000009F4A6CFD5011396ED2DFE2D9501255F88
:101810003F4F8D918193A217B307D9F781E00F90C5
:10182000DF91CF911F910F91FF90EF90DF90CF90BC
:10183000BF90AF900895CF93DF93EB01DC01159635
:10184000ED91FC911697138615861486DF011B9681
:1018500033961E92AE17BF07E1F7BE01FC018581EA
:1018600096815EDF882341F067E0CE0115DA9F8123
:10187000891302C081E001C080E0DF91CF9108951B
:101880000F931F93CF93DF93CDB7DEB761970FB65A
:10189000F894DEBF0FBECDBF8C01BE01665F7F4FE7
:1018A000CADF811105C060E070E08EEF92EC4AC0A3
:1018B000AE014F5F5F4FBE01665F7F4FC8019DDB8A
:1018C000882359F1698148E0649FB00111248A811D
:1018D000282F30E0322F2227330F330F330F262BE0
:1018E000372B8A858031E1F4688570E08F81AB0108
:1018F000481B5109CA019695982F88279795879577
:101900000E94581C60517109207F53E0220F331F41
:101910005A95E1F7620F731F04C060E874EE01C0CE
:10192000B901613854EE75070CF4BDCF072E000CD9
:10193000880B990B0E942C1A20E030E040E05CE319
:101940000E94711B61960FB6F894DEBF0FBECDBF2B
:10195000DF91CF911F910F9108954F925F926F92F7
:101960007F928F929F92AF92BF92CF92DF92EF922F
:10197000FF926B017C01B42E9B01AC010E943F1CC5
:10198000882319F08CEE94E027C026013701E894F3
:1019900077F82FEF3FEF4FE75FE7C301B2010E94F7
:1019A0003F1C81110DC02FEF3FEF4FE75FE7C301F1
:1019B000B2010E948F1918161CF480EF94E00CC03D
:1019C0002FEF3FEF4FE75FE4C701B6010E94661BB0
:1019D00018167CF484EF94E0FF90EF90DF90CF90A6
:1019E000BF90AF909F908F907F906F905F904F903F
:1019F0002ECE2FEF3FEF4FE75FECC701B6010E94FD
:101A00008F1987FDE7CF20E030E0A901C701B601BB
:101A10000E948F1987FF08C08DE277DE4C01F7FA2C
:101A2000F094F7F8F09402C0812C912CA12C60E086
:101A300070E080E09FE3AB1441F020E030E040E252
:101A400051E40E949619A394F6CF9B01AC01C70103
:101A5000B6010E94B2182B013C010E94FE196B01D5
:101A60007C010E942A1A9B01AC01C301B2010E94B1
:101A7000B1182B013C014AE0C701B60106DE7C012A
:101A8000E80CF91CBB2021F08EE23FDEE80EF91EC7
:101A9000DB2CDD2019F120E030E040E251E4C3010D
:101AA000B2010E94711B2B013C010E94FE194B01E7
:101AB000A12CB12C4AE0C501B401E7DDE80EF91E06
:101AC000C501B4010E942A1A9B01AC01C301B201F5
:101AD0000E94B1182B013C01DA94DBCFC701FF90C3
:101AE000EF90DF90CF90BF90AF909F908F907F90BE
:101AF0006F905F904F900895AACD2091E605909148
:101B0000E505213208F04AC08091C2058111FCCF61
:101B100032E03093C20531E03093C1053FEF30939E
:101B2000C0051092BF052093BE05A5ECB5E04EE9B7
:101B300055E0FA013E2F341B321718F43D913193D2
:101B4000F9CF10929D0520919D05990F922B9093AE
:101B50009D0590919C05913061F410929C059091A7
:101B60009D059093BB009091BC0093FDF8CF95EC40
:101B700001C095EE9093BC009091C2059230E1F3C4
:101B80009091C0059F3F79F08091C005803241F06F
:101B90008091C005803331F084E005C081E003C04E
:101BA00082E001C083E01092C4051092E605109215
:101BB000C30508959091C2059111FCCF813208F0C0
:101BC00080E291E09093C2059093C1052FEF20939E
:101BD000C0051092BF05280F2093BE0590939D0568
:101BE00090919D059C6390939D0590919C059130EB
:101BF00061F410929C0590919D059093BB0090918B
:101C0000BC0093FDF8CF95EC01C095EE9093BC001D
:101C10009091C2059130E1F39091BF05981710F4AF
:101C20008091BF05AEE9B5E02CE735E0F9019E2FC4
:101C3000921B981718F49D919193F9CF10927B0500
:101C400080937A050895CF92DF92EF92FF920F93DF
:101C50001F93CF93DF936C017A018B01C0E0D0E03A
:101C6000CE15DF0589F0D8016D918D01D601ED917A
:101C7000FC910190F081E02DC6011995892B11F49A
:101C80007E0102C02196ECCFC701DF91CF911F9159
:101C90000F91FF90EF90DF90CF9008950F931F93D7
:101CA000CF93DF9301E00093C3051EE11093E50598
:101CB0001092C4051092E605682F84E896E00E9411
:101CC000F7031BDF0093C3051093E5051092C405CD
:101CD0001092E60582E090E06DDF90917A058091A8
:101CE0007B059817F1F384E896E00E94AC03082F77
:101CF00084E896E00E94AC03182FFFDED02F80E02E
:101D0000C82FCE01812BDF91CF911F910F910895A4
:101D1000CF93C62F91E09093C3059EE19093E50584
:101D20001092C4051092E605682F84E896E00E94A0
:101D3000F7036C2F84E896E00E94F703CF91DDCE85
:101D4000CF93DF93D1E0D093C305CEE1C093E505F7
:101D50001092C4051092E605682F84E896E00E9470
:101D6000F703CBDED093C305C093E5051092C405FD
:101D70001092E60581E090E01DDF90917A05809158
:101D80007B059817F1F384E896E00E94AC03C82F16
:101D9000B4DE8C2FDF91CF91089582E0D1DF682FE0
:101DA0006C7F82E0B5CFCF9391E09093C3059EE125
:101DB0009093E5051092C4051092E605682F84E81B
:101DC00096E00E94F70399DE81E090E0F3DE84E87C
:101DD00096E00E94AC03C82F90DE8C2FCF9108951F
:101DE000DF92EF92FF920F931F93CF93DF93CDB7C4
:101DF000DEB729970FB6F894DEBF0FBECDBF8C01BA
:101E00007B01AE014F5F5F4FF8D8D82E882309F4CD
:101E100058C0F7018081803109F453C08FE78D836A
:101E2000F8018581968104D8B701F80185819681F2
:101E30000E94ED0640E06EE4F801858196810E94E3
:101E4000AC0640E06B81F801858196810E94AC066A
:101E500040E06C81F801858196810E94AC06F70113
:101E60008081803139F040E06D81F8018581968173
:101E70000E94AC06F801858196810E941807B7017F
:101E8000F801858196810E94ED06F801408168E4A1
:101E9000858196810E94AC0664E170E080E090E06C
:101EA0000E943F05F8018081882331F06AE070E0EC
:101EB00080E090E00E943F05F801858196810E94B4
:101EC00018078D2D29960FB6F894DEBF0FBECDBF33
:101ED000DF91CF911F910F91FF90EF90DF900895C8
:101EE000CF93DF9342E039DDEC01C2DB8C0F9D1F05
:101EF000DF91CF910895CF92DF92EF92FF92CF932F
:101F0000DF936C01990FEE08FF08F7FE10C08DE219
:101F1000FCDBEC0166277727CB016C197D098E0964
:101F20009F094AE0B2DB7C01EC0EFD1E05C04AE0D1
:101F3000C701B601AADB7C019BDB8E0D9F1DDF91E3
:101F4000CF91FF90EF90DF90CF900895CF93DF93E4
:101F5000CDB7DEB7AB970FB6F894DEBF0FBECDBFDF
:101F6000789484B5826084BD84B5816084BD85B574
:101F7000826085BD85B5816085BD80916E00816080
:101F800080936E0010928100809181008260809326
:101F90008100809181008160809381008091800028
:101FA0008160809380008091B10084608093B10053
:101FB0008091B00081608093B00080919100826038
:101FC0008093910080919100816080939100809135
:101FD00090008160809390008091A1008260809346
:101FE000A1008091A10081608093A1008091A00058
:101FF00081608093A0008091210182608093210103
:102000008091210181608093210180912001816074
:102010008093200180917A00846080937A0080917F
:102020007A00826080937A0080917A008160809348
:102030007A0080917A00806880937A001092C100C3
:10204000E091F705F091F80582E08083E091F305D7
:10205000F091F4051082E091F505F091F6058FEC12
:1020600080831092FF05E091FB05F091FC0586E06E
:102070008083E091F905F091FA0580818061808389
:10208000E091F905F091FA05808188608083E09104
:10209000F905F091FA05808180688083E091F90567
:1020A000F091FA0580818F7D80834BE050E068E2FB
:1020B00074E0CE0101960E949218CE010A960E9409
:1020C0003F06082FE9814E2FEE0F550B660B770B5D
:1020D000FA01E154F109E331F10548F58827EC579D
:1020E000FF4F8F4F0C948D1C12E021C08A818136E6
:1020F00039F08B818E3611F017E019C016E017C049
:1021000011E015C08B81823711F018E010C014E087
:102110000EC08B81823711F015E009C013E007C0B3
:1021200019E005C01AE003C01BE001C01CE0CE01AD
:1021300005960E943F06E82E48E050E06FE174E00B
:10214000CE010196EFD7CE0101960E943F06B82E30
:10215000CE0104960E943F06C82ECE0107960E942B
:102160003F06D82E202F30E04E2D50E0E8EFF3E070
:1021700081E08E1B982F9E0F911728F49491490FA0
:10218000511D3196F7CF133020F0037011F44F5FDB
:102190005F4F8DE691E0289F7001299FF00C389FDA
:1021A000F00C112401E0E01AF1082D5F3F4F369545
:1021B000279536952795E20EF31EE40EF51E2FB7F0
:1021C000F89460914A0570914B0580914C0590916F
:1021D0004D052FBF28EE33E040E050E00E946B1C1D
:1021E00080E893E4ADE6B8E32C013D01421A530ABE
:1021F000640A750A9701A8E1B0E00E94951C9B0152
:10220000AC012B0D311D411D511DACE3B0E00E940E
:10221000A41C9B01AC012C0D311D411D511D0E94C0
:10222000A41CDC01CB018D0D911DA11DB11D840DE0
:10223000951DA61DB71D8093460590934705A09355
:102240004805B093490586E097E09093CF068093C8
:10225000CE061092CD061092C90699E09093CA0658
:1022600081E08093CB068093CC0628EF36E0309354
:10227000BC062093BB061092BA061092B606909345
:10228000B7068093B8068093B9062AEE36E03093FD
:10229000A9062093A8061092A7061092A306909371
:1022A000A4068093A5068093A6062CED36E0309315
:1022B000960620939506109294061092900690939D
:1022C0009106809392068093930689EC96E00E9493
:1022D0005B0886EB96E00E945B0883EA96E00E942A
:1022E0005B0880E996E00E945B08BE016F5F7F4F4C
:1022F00089EC96E0A0DA882331F0BE016F5F7F4F52
:1023000089EC96E06DDDBE016F5F7F4F86EB96E056
:1023100092DA882331F0BE016F5F7F4F86EB96E043
:102320005FDDBE016F5F7F4F83EA96E084DA88232A
:1023300031F0BE016F5F7F4F83EA96E051DDBE0151
:102340006F5F7F4F80E996E076DA882331F0BE0137
:102350006F5F7F4F80E996E043DD60E086E00E949A
:10236000030560E087E00E94030560E088E00E94CA
:10237000030560E089E00E94030561E086E00E94B9
:10238000860461E087E00E94860461E088E00E94A4
:10239000860461E089E00E94860461E08AE00E9490
:1023A000030561E08BE00E94030561E08CE00E9480
:1023B000030561E089E30E94030561E08CE30E946C
:1023C000030561E08DE30E94030560E08AE00E945E
:1023D000860460E08BE00E94860461E08CE00E944D
:1023E000860461E089E30E94860461E088E00E943F
:1023F000860461E08DE30E94860460910A0280E019
:1024000090E0A1D680E090E096D690E090930B0209
:1024100080930A0260910C0281E090E094D681E002
:1024200090E089D690E090930D0280930C022BED02
:102430003FE049E450E46091020270910302809110
:102440000402909105020E94711B20E030E044E3F9
:1024500053E46CD7609302027093030280930402EA
:102460009093050284E194E006D910927B051092C6
:102470007A051092C4051092E6051092C20511E08B
:102480001093C10510929C0561E084E10E948604CE
:1024900061E085E10E9486048091B9008E7F80937F
:1024A000B9008091B9008D7F8093B90088E4809352
:1024B000B80085E48093BC008AE075DC883409F0BC
:1024C0009CC58BE070DC843309F097C58CE06BDC35
:1024D000833309F092C58FE1C82E85E8D82E8BE6AC
:1024E000E82E8FE3F82EC0921407D0921507E092E1
:1024F0001607F092170760E281E00ADC4EDC80E00C
:102500001FDC837E682F606180E002DC80E018DCE5
:10251000682F6F7980E0FCDBC0921407D09215071A
:10252000E0921607F092170760E281E0F1DB35DCFC
:1025300080E006DC837E682F646180E0E9DB80E078
:10254000FFDB682F606680E0E3DB109225071092C6
:10255000240710922707109226071093630584E43E
:1025600094E089D804E014E0F8016491611102C09C
:102570007FD86DC3E091E705F091E8050190F08107
:10258000E02D87EE95E019950F5F1F4F892B61F7BE
:10259000EFCF8093760590937705A0937805B0935D
:1025A0007905CE0101960E94C105698170E06053F2
:1025B000784F072E000C880B990B4AE066D88FE203
:1025C000A4D86A8170E080E090E04AE05ED88FE2B3
:1025D0009CD86B8170E080E090E04AE056D880E2C1
:1025E00094D86C8170E080E090E04AE04ED88AE3B5
:1025F0008CD86D8170E080E090E04AE046D88AE3B4
:1026000084D86E8170E080E090E04AE03ED830D817
:10261000CE0101960E94C1058E8180934E051D81D9
:1026200010930602DC80D0920702FB80F092080231
:10263000EA80E0920902898190E08053984F90935C
:102640000102809300026E2D70E080E090E002D7DE
:102650002B013C016F2D70E080E090E0FBD66C8791
:102660007D878E879F876D2D70E080E090E0F2D6A9
:10267000688B798B8A8B9B8B612F70E080E090E078
:10268000E9D66C8B7D8B8E8B9F8B20E030E040E019
:1026900050E4C301B20143D6882309F4F9C220E013
:1026A00030E040E450E4C301B20139D6882309F494
:1026B000F6C220E030E040E850E4C301B2012FD67A
:1026C000882309F4F3C2812C912C540120E030E0DE
:1026D00040EA50E4C301B20122D6882309F4EDC2D6
:1026E00020E030E040EC50E4C301B20118D688236A
:1026F00009F4EAC220E030E040EE50E4C301B20148
:102700000ED6882309F4E7C220E030E040E051E42F
:10271000C301B20104D6882309F4E4C220E030E00A
:1027200040E151E4C301B201FAD5882309F4E1C2C2
:1027300020E030E040E251E4C301B201F0D588234B
:1027400009F4DEC220E030E040E351E4C301B2010D
:10275000E6D5882309F4DCC220E030E040E451E40F
:10276000C301B201DCD5811106C0812C912C37EA5E
:10277000A32E33E4B32E2C853D854E855F85C501A0
:10278000B401F0D420E030E04EE853E4EBD420E094
:1027900030EA46EB53E4CAD52BED3FE049EC50E478
:1027A000A0D70E94D41B24E03DE841ED5EE399D719
:1027B0006C877D878E879F87609357057093580538
:1027C0008093590590935A058F2D90E09C012150DC
:1027D00031092330310510F480E090E09C01245051
:1027E00031092330310510F481E090E09C0127503D
:1027F00031092330310510F482E090E09C012A5029
:1028000031092330310510F483E090E09C012D5014
:1028100031092330310510F484E090E09C0120510F
:1028200031092330310510F485E090E09C012351FB
:1028300031092330310510F486E090E09C012651E7
:1028400031092330310510F487E090E09C012951D3
:1028500031092330310510F488E090E09C012C51BF
:1028600031092430310510F489E090E06E2D70E0DC
:102870000E94290A4B015C0120E030E040E752E46D
:102880006C897D898E899F8951D59B01AC016889AE
:1028900079898A899B8966D420E030E040E451E45C
:1028A00060D420E030E040E751E41BD76B017C01AD
:1028B00021EE3AE744E152E4C501B40153D420E0EB
:1028C00030E044E352E44DD49B01AC01C701B601B2
:1028D00049D42BED3FE049E450E403D720E030E059
:1028E00044E353E423D54B015C016093530570939B
:1028F00054058093550590935605C0900202D090E0
:102900000302E0900402F0900502C701B6014CD723
:10291000688F798F8A8F9B8F6C857D858E859F854B
:1029200043D79B01AC01C701B60128A739A74AA725
:102930005BA7F9D46C8F7D8F8E8F9F8F6C857D8583
:102940008E859F85F0D46CA37DA38EA39FA3C50124
:10295000B401E9D468A379A38AA39BA328A539A5C8
:102960004AA55BA5688D798D8A8D9B8DBAD66B0142
:102970007C012CA13DA14EA15FA16C8D7D8D8E8D22
:102980009F8DAFD628A139A14AA15BA1AAD69B01F0
:10299000AC01C701B601E6D349D420E030E044E3FE
:1029A00053E49FD62BED3FE049E450E4BFD460935D
:1029B0004F057093500580935105909352056C8597
:1029C0007D858E859F853BD76C877D878E879F878A
:1029D000C501B401E9D66B017C01288D398D4A8D82
:1029E0005B8D68A179A18AA19BA17BD64B015C017B
:1029F0002C8D3D8D4E8D5F8D6C857D858E859F8563
:102A000070D69B01AC01C501B401ABD39B01AC01F5
:102A1000C701B60131D42BED3FE049E450E4A2D325
:102A200020E030E044E353E45CD62BED3FE049E4A2
:102A300050E47CD460935B0570935C0580935D05E6
:102A400090935E0588E294E057D8C301B20148DA5A
:102A500080E394E051D86091080270E080E090E05B
:102A60004AE00E94450B0E94380B86E394E044D86C
:102A7000688979898A899B8933DA8DE394E03CD827
:102A80006C897D898E899F892BDA86E494E00E9487
:102A90003B0B60914F0570915005809151059091CD
:102AA00052051EDA8FE494E00E943B0B60915B05B7
:102AB00070915C0580915D0590915E0511DA89EC5D
:102AC00096E00E94D20786EB96E00E94D20783EA46
:102AD00096E00E94D20780E996E00E94D20789EC36
:102AE00096E00E94400C609372057093730580938A
:102AF00074059093750586EB96E00E94400C6093F8
:102B00006E0570936F05809370059093710583EA4D
:102B100096E00E94400C60936A0570936B05809369
:102B20006C0590936D0580E996E00E94400C6093DF
:102B3000660570936705809368059093690587E53E
:102B400094E00E943B0B6091720570917305809137
:102B5000740590917505C4D960916E0570916F05EB
:102B60008091700590917105BBD960916A05709153
:102B70006B0580916C0590916D05B2D960916605E9
:102B8000709167058091680590916905A9D9C090F9
:102B90007205D0907305E0907405F0907505609112
:102BA0000C0270910D02072E000C880B990B54D467
:102BB0004B015C019B01AC01C701B601B0D387FD9D
:102BC000AEC060910A0270910B02072E000C880BB8
:102BD000990B42D42B013C019B01AC01C701B6010A
:102BE00075D518160CF4A7C0C0906E05D0906F056F
:102BF000E0907005F0907105A3019201C701B60144
:102C00008ED387FDA4C0A5019401C701B6015ED58E
:102C100018160CF4A8C085E694E00E947C0D809103
:102C2000650590E068D985E694E00E947C0D80916E
:102C3000640590E060D9809163058111A0C060E3D4
:102C400075E780E090E00E943F050E940C032FB7DB
:102C5000F89480914A0590914B05A0914C05B09154
:102C60004D052FBF4091760550917705609178050D
:102C7000709179058C019D01041B150B260B370BF8
:102C8000B901A801493B5B4061057105C0F281CCE7
:102C9000812C912CB8EFAB2EB1E4BB2E17CD812C3B
:102CA000912CACE6AA2EA2E4BA2E1ACD812C912C3E
:102CB000F4EBAF2EF2E4BF2E1DCD812C912CE0EF72
:102CC000AE2EE2E4BE2E20CD812C912C77E1A72EF2
:102CD00073E4B72E23CD812C912C65E3A62E63E4FB
:102CE000B62E26CD812C912C54E5A52E53E4B52E7D
:102CF00029CD812C912C43E7A42E43E4B42E2CCD76
:102D0000812C20E8922E28E8A22E23E4B22E33CD87
:102D1000812C912C98E9A92E93E4B92E2CCD809189
:102D2000650581114ECF81E08093650560E08AE002
:102D30000E94860446CF80916505882309F454CF0C
:102D40001092650561E08AE00E9486044DCF809173
:102D50006405811159C181E08093640560E08BE0D6
:102D60000E94860450CF80916405882309F453CFD4
:102D70001092640561E08BE00E9486044CCF83E0F2
:102D80000E944E0EBC01990F880B990B65D36B0105
:102D90007C018091240790912507BC01990F880B35
:102DA000990B5AD39B01AC01C701B601DAD120912E
:102DB000140730911507409116075091170791D4C9
:102DC000609318077093190780931A0790931B0755
:102DD00087E00E944E0EBC01990F880B990B3CD3E3
:102DE0006B017C018091260790912707BC01990F08
:102DF000880B990B31D39B01AC01C701B601B1D14E
:102E0000209114073091150740911607509117072C
:102E100068D460931C0770931D0780931E079093DE
:102E20001F0785E00E944E0EBC01990F880B990B7D
:102E300013D3209114073091150740911607509134
:102E400017074FD4609320077093210780932207C0
:102E500090932307209118073091190740911A0782
:102E600050911B0760911C0770911D0780911E07F0
:102E700090911F0701D223E737E74EE95DE372D156
:102E80006B017C0120E030E0A90149D287FF09C035
:102E90002BED3FE049EC50E4C701B60163D16B0173
:102EA0007C012BED3FE049EC50E4C701B6010ED4A4
:102EB00018164CF42BED3FE049EC50E4C701B60185
:102EC00050D16B017C0120E030E044E353E4C701C2
:102ED000B60107D42BED3FE049E450E427D26093DC
:102EE0005F0570936005809361059093620584E7A8
:102EF00094E00E947C0D42E0C701B6010E94AD0C37
:102F000080E894E00E947C0D60915F0570916005FF
:102F1000809161059091620542E00E94AD0C0E9493
:102F2000380BC0905F05D0906005E0906105F0908F
:102F3000620580905B0590905C05A0905D05B09067
:102F40005E0520E030E040E652E4C701B601BED3A2
:102F500018160CF04DC020E030E046E953E4C701FC
:102F6000B601DDD187FF44C0A5019401C701B601B8
:102F7000D6D187FF1BC0A7019601C501B401F1D0CE
:102F800020E030E040E251E4A1D318163CF461E0C7
:102F90008CE00E9486048CE894E006C060E08CE03F
:102FA0000E94860481E994E00E943B0BA5019401F4
:102FB000C701B6018BD318160CF041CEA5019401C0
:102FC000C701B601CED020E030E040E251E47ED32C
:102FD00018163CF461E089E30E9486048BE994E0D2
:102FE00009C060E089E30E94860481EA94E002C09F
:102FF0008CEA94E00E943B0B22CE83EB94E00E948B
:103000003B0B10926305ABCAA5019401C701B60141
:103010005DD318160CF4ACCEFECDE7EEF5E01382CE
:10302000128288EE93E0A0E0B0E084839583A683CB
:10303000B78328EF33E03183208325EC30E03587F8
:10304000248724EC30E03787268720EC30E0318B72
:10305000208B21EC30E0338B228B22EC30E0358B5F
:10306000248B26EC30E0378B268B118E128E138E3C
:10307000148EE4E8F6E01382128284839583A6839B
:10308000B78388E094E09183808368E086E097E0EE
:103090000E94A40769E088EF96E00E94A4076AE016
:1030A0008AEE96E00E94A4076BE08CED96E00E9409
:1030B000A407E9ECF6E029E633E0328B218B86E0C9
:1030C00097E0968385831482108299E0918381E052
:1030D00082838383E6EBF6E0328B218B48EF56E068
:1030E0005683458314821082918382838383E3EA2B
:1030F000F6E0328B218B4AEE56E0568345831482EC
:103100001082918382838383E0E9F6E0328B218B06
:103110002CED36E0368325831482108291838283DE
:1031200083830895FB01DC0102C005900D9241509C
:103130005040D8F70895F999FECF92BD81BDF89A15
:10314000992780B50895262FF999FECF1FBA92BD11
:1031500081BD20BD0FB6F894FA9AF99A0FBE019678
:1031600008955058BB27AA270ED065C22ED230F042
:1031700033D220F031F49F3F11F41EF4EDC10EF470
:10318000E095E7FBE3C1E92F78D280F3BA17620735
:1031900073078407950718F071F49EF590C20EF43A
:1031A000E0950B2EBA2FA02D0B01B90190010C0157
:1031B000CA01A0011124FF27591B99F0593F50F46F
:1031C000503E68F11A16F040A22F232F342F4427C7
:1031D000585FF3CF469537952795A795F0405395BF
:1031E000C9F77EF41F16BA0B620B730B840BBAF08F
:1031F0009150A1F0FF0FBB1F661F771F881FC2F7FA
:103200000EC0BA0F621F731F841F48F4879577950D
:103210006795B795F7959E3F08F0B3CF9395880FC4
:1032200008F09927EE0F9795879508959F939F77BC
:10323000EEE389379E0720F4EEE2F1E0B5D109C054
:1032400046D19058A2EA2AED3FE049EC5FE39BDFCC
:10325000F2D10F9007FC90580895B7D158F080E84C
:1032600091E009F49EEFB8D128F040E851E059F41C
:103270005EEF09C071C123C2E92FE078FED168F387
:10328000092E052AC1F3261737074807590738F0D2
:103290000E2E07F8E02569F0E025E0640AC0EF6330
:1032A00007F8009407FADB01B9019D01DC01CA01AE
:1032B000AD01EF934AD0BFD10AD05F91552331F0D1
:1032C0002BED3FE049E450FD49EC4CCF0895DF93EE
:1032D000DD27B92FBF7740E85FE3161617064807CA
:1032E0005B0710F4D92FF6D19F938F937F936F9341
:1032F000A3D2E2E4F1E033D19ED12F913F914F91DF
:103300005F91FBD1DD2349F09058A2EA2AED3FE01E
:1033100049EC5FE3D0785D2736DFDF918CC1F2D0D6
:1033200008F481E0089560D1E39596C10CD083C183
:1033300053D140F04AD130F021F45F3F19F006C17B
:103340005111BEC109C199D198F39923C9F35523ED
:10335000B1F3951B550BBB27AA2762177307840788
:1033600038F09F5F5F4F220F331F441FAA1FA9F33E
:1033700033D00E2E3AF0E0E830D091505040E69530
:10338000001CCAF729D0FE2F27D0660F771F881F91
:10339000BB1F261737074807AB07B0E809F0BB0B80
:1033A000802DBF01FF2793585F4F2AF09E3F5105A4
:1033B00068F0CCC085C15F3FECF3983EDCF38695A6
:1033C00077956795B795F7959F5FC9F7880F911D1A
:1033D0009695879597F90895E1E0660F771F881F06
:1033E000BB1F621773078407BA0720F0621B730BB9
:1033F000840BBA0BEE1F88F7E095089546D188F04C
:103400009F5790F0B92F9927B751A0F0D1F0660FD0
:10341000771F881F991F1AF0BA95C9F712C0B130EB
:1034200081F04DD1B1E008954AC1672F782F8827E8
:10343000B85F39F0B93FCCF3869577956795B3952A
:10344000D9F73EF490958095709561957F4F8F4F99
:103450009F4F0895E89409C097FB3EF4909580959E
:10346000709561957F4F8F4F9F4F9923A9F0F92F4A
:1034700096E9BB279395F695879577956795B795C8
:10348000F111F8CFFAF4BB0F11F460FF1BC06F5FAE
:103490007F4F8F4F9F4F16C0882311F096E911C0C0
:1034A000772321F09EE8872F762F05C0662371F0E1
:1034B00096E8862F70E060E02AF09A95660F771FF5
:1034C000881FDAF7880F9695879597F90895DF9307
:1034D000CF931F930F938B01EC01EFE6F1E03FD008
:1034E000AAD09801AE018B01EC0160E070E080E8A9
:1034F0009FE337DE63D19801AE010F911F91CF9109
:10350000DF91FBC0990F0008550FAA0BE0E8FEEF12
:1035100016161706E807F907C0F012161306E40797
:10352000F50798F0621B730B840B950B39F40A2690
:1035300061F0232B242B252B21F408950A2609F46E
:10354000A140A6958FEF811D811D089597F99F6772
:1035500080E870E060E008959FEF80EC0895DF93CD
:10356000CF931F930F93FF92EF92DF927B018C0119
:10357000689405C0DA2EEF01C0D0FE01E894A59151
:103580002591359145915591AEF3EF01FCDDFE019A
:103590009701A801DA9479F7DF90EF90FF900F91EF
:1035A0001F91CF91DF9108959F938F937F936F9396
:1035B000FF93EF939B01AC0194D0EF91FF91CFDF8C
:1035C0002F913F914F915F918CC000240A94161661
:1035D000170618060906089500240A941216130601
:1035E000140605060895B8CF50D0E8F3E894E0E05B
:1035F000BB279F57F0F02AED3FE049EC06C0EE0FE5
:10360000BB0F661F771F881F28F0B23A6207730747
:10361000840728F0B25A620B730B840BE3959A95DA
:1036200072F7803830F49A95BB0F661F771F881F9A
:10363000D2F790482AC1092E0394000C11F4882374
:1036400052F0BB0F40F4BF2B11F460FF04C06F5F5A
:103650007F4F8F4F9F4F0895EF93E0FF06C0A2EA80
:103660002AED3FE049EC5FEB8EDDE5DF0F90039440
:1036700001FC9058E7E9F1E097CF57FD9058440FCF
:10368000551F59F05F3F71F04795880F97FB991FC1
:1036900061F09F3F79F0879508951216130614067E
:1036A000551FF2CF4695F1DF08C01616170618060B
:1036B000991FF1CF86957105610508940895E894E6
:1036C000BB2766277727CB0197F908951BDF08F4FE
:1036D0008FEF08959B01AC0160E070E080E89FE30C
:1036E00025CE0BD0A8CF71DF28F076DF18F0952318
:1036F00009F02CCF31CF1124E3CFBFDFA0F3959F8A
:10370000D1F3950F50E0551F629FF001729FBB27C8
:10371000F00DB11D639FAA27F00DB11DAA1F649F74
:103720006627B00DA11D661F829F2227B00DA11D27
:10373000621F739FB00DA11D621F839FA00D611DAD
:10374000221F749F3327A00D611D231F849F600DCE
:10375000211D822F762F6A2F11249F5750408AF007
:10376000E1F088234AF0EE0FFF1FBB1F661F771F93
:10377000881F91505040A9F79E3F510570F0E6CE4A
:103780009FCF5F3FECF3983EDCF386957795679586
:10379000B795F795E7959F5FC1F7FE2B880F911DB1
:1037A0009695879597F908959F931EDF0F9007FCD4
:1037B000EE5F52CF11F40EF4CFCE65C066DFD0F3CA
:1037C0009923D9F3CEF39F57550B87FF6AD0002476
:1037D000A0E640EA900180585695979528F4805CC1
:1037E000660F771F881F20F026173707480730F429
:1037F000621B730B840B202931294A2BA695179441
:103800000794202531254A2758F7660F771F881F10
:1038100020F026173707480730F4620B730B840B30
:10382000200D311D411DA09581F7B901842F9158BC
:10383000880F9695879508959B01AC0152CFDF9331
:10384000D92FD2DEE695D7952AED3FE049E45FE334
:10385000B33A6207730784079507D7952AF0A2EA5F
:1038600049EC906890DCE7DEE5EBF1E09DDEDD0FF2
:103870000BF030DFDD0F0BF49058DF91089542DE3E
:10388000880B990B08959F3F31F0915020F4879554
:1038900077956795B795880F911D9695879597F9B8
:1038A000089591505040660F771F881FD2F70895F2
:1038B00097FB072E16F4009406D077FD08D04ED063
:1038C00007FC05D03EF4909581959F4F0895709523
:1038D00061957F4F0895A1E21A2EAA1BBB1BFD0123
:1038E0000DC0AA1FBB1FEE1FFF1FA217B307E407DF
:1038F000F50720F0A21BB30BE40BF50B661F771F37
:10390000881F991F1A9469F7609570958095909516
:103910009B01AC01BD01CF010895EE0FFF1F881F71
:103920008BBF0790F691E02D1994A29FB001B39F31
:10393000C001A39F700D811D1124911DB29F700DB8
:10394000811D1124911D0895F0DFA59F900DB49F56
:10395000900DA49F800D911D11240895AA1BBB1BDF
:1039600051E107C0AA1FBB1FA617B70710F0A61B7F
:10397000B70B881F991F5A95A9F780959095BC01A0
:10398000CD01089581E090E0F89400C0F894FFCF55
:103990001000295C5E420A0A0F0341002D002FDD52
:1039A00084BF1283B0BFE7FBD9BFB07200C0FA7EFC
:1039B00012C0AAF122C0FCA931C08D973EC0FCA95B
:1039C00049C0E5D052C0CFF75BC0128360C033332B
:1039D00063C06DE763C048E162C0621060C01F85CC
:1039E0005BC0068155C019044EC01B2F45C0D122B3
:1039F0003BC0621030C0310824C0643B17C0C1CA4C
:103A000009C0D9CEF7BF9643DBBF0456BEBFAE4751
:103A1000A1BFE17A84BFA4703DBF79E906BF2FDD65
:103A2000A4BE4A0C02BEAE47613D4260653E1283B1
:103A3000C03E6F12033FAE47213F355E3A3F04560A
:103A40004E3F91ED5C3F54E3653F5EBA693F9EEFA8
:103A5000673F9CC4603F5839543FE5D0423FCDCCCE
:103A60002C3F0E2D123F85EBD13ECDCC8C3E6F12FC
:103A7000033EF4FDD4BCC9763EBE21B0B2BE6F1287
:103A800003BFBA492CBF583954BFAC1C7ABF1D5A6A
:103A900094BFCFF7A3BF3789B1BF560EBDBF19047E
:103AA000C6BF448BCCBF4E62D0BF7368D1BFB29D3E
:103AB000CFBF48E1CABF3333C3BF7593B8BF964386
:103AC000ABBFD1229BBFEC5188BF666666BFC74BB8
:103AD00037BF0AD703BF871699BE295C8FBD3789C8
:103AE000813E3789013F9318443F0AD7833FDD2445
:103AF000A63FEC51C83F355EEA3F54E305403F35F1
:103B00001640B6F32540F4FD3440333343404E6253
:103B100050407F6A5C40643B674075937040B07270
:103B20007840F0A77E406891814079E98240333344
:103B30008340A2458240EC51804083C07A40E5D06A
:103B40007240FED4684091ED5C40A01A4F40EE7C7C
:103B50003F403F352E40CDCC144089410040B81E37
:103B6000D53F9EEFA73F21B0723FCFF7133F85EBC4
:103B7000513E0C022BBE39B408BFA69B64BF5E0049
:103B8000BC00770100000000A502230E6F024D0269
:103B90006102EB0200000000F703C803C003AC039E
:103BA0009D039C03496E697469616C697A6520485C
:103BB0004D43353838334C006D6F6E7468322000D9
:103BC000646179322000686F75723220006D696E11
:103BD000757465322000416C7469747564650041C8
:103BE0007A696D7574680054656D7065726174757D
:103BF00072653A200072656C617931537461747535
:103C0000733A20002048656164696E67203D20009A
:103C10002044656772657373203D2000504C5553F6
:103C200000504C55532053746F70004D494E5553FE
:103C3000004D494E55532053746F70004E6F205302
:103C4000554E00436F756C64206E6F742066696E0C
:103C50006420612076616C696420484D43353838B2
:103C6000334C2073656E736F722C20636865636BD1
:103C700020776972696E6721000D0A006E616E001F
:083C8000696E66006F766600B4
:020000023000CC
:10E000000D9489F10D94B2F10D94B2F10D94B2F129
:10E010000D94B2F10D94B2F10D94B2F10D94B2F1F0
:10E020000D94B2F10D94B2F10D94B2F10D94B2F1E0
:10E030000D94B2F10D94B2F10D94B2F10D94B2F1D0
:10E040000D94B2F10D94B2F10D94B2F10D94B2F1C0
:10E050000D94B2F10D94B2F10D94B2F10D94B2F1B0
:10E060000D94B2F10D94B2F10D94B2F10D94B2F1A0
:10E070000D94B2F10D94B2F10D94B2F10D94B2F190
:10E080000D94B2F10D94B2F10D94B2F10D94B2F180
:10E090000D94B2F10D94B2F10D94B2F10D94B2F170
:10E0A0000D94B2F10D94B2F10D94B2F10D94B2F160
:10E0B0000D94B2F10D94B2F10D94B2F10D94B2F150
:10E0C0000D94B2F10D94B2F10D94B2F10D94B2F140
:10E0D0000D94B2F10D94B2F10D94B2F10D94B2F130
:10E0E0000D94B2F141546D656761323536300041AF
:10E0F000726475696E6F206578706C6F72657220DE
:10E1000073746B3530305632206279204D4C530099
:10E11000426F6F746C6F616465723E004875683F52
:10E1200000436F6D70696C6564206F6E203D200048
:10E130004350552054797065202020203D20005FF9
:10E140005F4156525F415243485F5F3D2000415658
:10E1500052204C696243205665723D20004743437C
:10E160002056657273696F6E203D20004350552024
:10E1700049442020202020203D20004C6F7720663D
:10E18000757365202020203D20004869676820665F
:10E190007573652020203D200045787420667573D6
:10E1A00065202020203D20004C6F636B2066757336
:10E1B000652020203D20004D617220203720323024
:10E1C000313300312E362E3800342E332E350056A2
:10E1D00023202020414444522020206F7020636F70
:10E1E00064652020202020696E73747275637469E1
:10E1F0006F6E2061646472202020496E74657272B3
:10E20000757074006E6F20766563746F7200726A49
:10E210006D702020006A6D70200057686174207056
:10E220006F72743A00506F7274206E6F7420737541
:10E2300070706F72746564004D7573742062652030
:10E2400061206C6574746572002000577269747483
:10E25000696E672045450052656164696E672045B7
:10E26000450045452065727220636E743D00504F35
:10E27000525400303D5A65726F2061646472003FF1
:10E280003D43505520737461747300403D454550C3
:10E29000524F4D207465737400423D426C696E6B41
:10E2A000204C454400453D44756D70204545505215
:10E2B0004F4D00463D44756D7020464C415348001B
:10E2C000483D48656C70004C3D4C69737420492F83
:10E2D0004F20506F72747300513D51756974005234
:10E2E0003D44756D702052414D00563D73686F7707
:10E2F00020696E7465727275707420566563746FF0
:10E30000727300593D506F727420626C696E6B00BD
:10E310002A0011241FBECFEFD1E2DEBFCDBF01E046
:10E320000CBF12E0A0E0B2E0EEE1FDEF03E00BBFB6
:10E3300002C007900D92A030B107D9F712E0A0E01B
:10E34000B2E001C01D92AE30B107E1F70F9460F367
:10E350000D948DFE01E20EBF0FEF0DBF11241FBE05
:10E360000D9460F30D9400F020E030E040ED57E0B4
:10E3700005C0FA013197F1F72F5F3F4F2817390792
:10E38000C0F308959C01260F311DC901A0E0B0E043
:10E390002F5F3F4FABBFFC018791882361F08093D3
:10E3A000C6008091C00086FFFCCF8091C0008064D1
:10E3B0008093C000EACF08958DE08093C6008091DD
:10E3C000C00086FFFCCF8091C00080648093C000B5
:10E3D0008AE08093C6008091C00086FFFCCF8091C8
:10E3E000C00080648093C00008950F94C2F10F9420
:10E3F000DCF10895FC019081992359F09093C600B7
:10E400008091C00086FFFCCF8091C0008064809323
:10E41000C0003196992379F70895282F982F929567
:10E420009F70892F805D8A3308F0895F8093C600D2
:10E430008091C00086FFFCCF8091C00080648093F3
:10E44000C000822F8F70982F905D9A3308F0995FEB
:10E450009093C6008091C00086FFFCCF8091C000E1
:10E4600080648093C00008959C01FB01853691056E
:10E470001CF46330710594F0C90164E670E00F94F8
:10E480002EFE605D7F4F6093C6008091C00086FFC6
:10E49000FCCF8091C00080648093C0002B30310598
:10E4A00014F43297B4F0C90164E670E00F942EFEC4
:10E4B0006AE070E00F942EFE605D7F4F6093C600AF
:10E4C0008091C00086FFFCCF8091C0008064809363
:10E4D000C000C9016AE070E00F942EFEC0968093E0
:10E4E000C6008091C00086FFFCCF8091C000806490
:10E4F0008093C00008951F93182F8EE692EE60E07F
:10E500000F94C2F11093C6008091C00086FFFCCF2B
:10E510008091C00080648093C0000F94DCF11F9153
:10E5200008952F923F924F925F926F927F928F92B7
:10E530009F92AF92BF92CF92DF92EF92FF920F9392
:10E540001F93DF93CF93CDB7DEB762970FB6F894E2
:10E55000DEBF0FBECDBF382E622ECA01DB015C01CB
:10E560006D01772420E2222E2E010894411C511CBB
:10E570008BC081E0A81680E0B80681E0C80680E084
:10E58000D80628F0C601AA27BB270F940DF2BB2797
:10E59000AD2D9C2D8B2D0F940DF28A2D0F940DF225
:10E5A0002092C6008091C00086FFFCCF8091C00001
:10E5B00080648093C0009DE29093C6008091C0006B
:10E5C00086FFFCCF8091C00080648093C0002092C1
:10E5D000C6008091C00086FFFCCF8091C00080649F
:10E5E0008093C00019828601750188249924A1E0D6
:10E5F0003A1651F03A1620F0B2E03B1661F409C029
:10E600000BBFF701779007C0C7010F9477FE782EF4
:10E6100002C0F7017080872D0F940DF22092C60082
:10E620008091C00086FFFCCF8091C0008064809301
:10E63000C000872D8052F401EF70F0708F3520F408
:10E64000E40DF51D708204C0E40DF51D8EE280839B
:10E650000894E11CF11C011D111D0894811C911CE2
:10E6600090E18916910409F0C2CF80E190E0A0E02A
:10E67000B0E0A80EB91ECA1EDB1E198AC2010F9493
:10E68000FAF10F94DCF16A94662009F072CF629679
:10E690000FB6F894DEBF0FBECDBFCF91DF911F91B3
:10E6A0000F91FF90EF90DF90CF90BF90AF909F9031
:10E6B0008F907F906F905F904F903F902F90089534
:10E6C0002F923F924F925F926F927F928F929F9282
:10E6D000AF92BF92CF92DF92EF92FF920F931F9370
:10E6E000DF93CF93CDB7DEB7CD53D1400FB6F894BB
:10E6F000DEBF0FBECDBF01E20EBF0FEF0DBF94B75F
:10E70000F894A89514BE80916000886180936000A1
:10E7100010926000789493FF05C0E0910002F091A0
:10E7200001021995279A2F9A8091C00082608093E8
:10E73000C00080E18093C40088E18093C1000000A4
:10E74000EE24FF24870144E0A42EB12CCC24DD2448
:10E7500024C0C5010197F1F70894E11CF11C011DCB
:10E76000111D21E2E2162EE4F20620E0020720E06D
:10E77000120718F031E0C32ED12CC801B70127ECE5
:10E780003BE140E050E00F9441FE611571058105C9
:10E79000910519F485B1805885B98091C00087FD35
:10E7A00003C0C114D104A9F2A6014F5F5F4FC25E3E
:10E7B000DE4F59834883CE51D140C25EDE4F8881FF
:10E7C0009981CE51D140019711F00D9410FEC05D9A
:10E7D000DE4F19821882C053D14060E0C15DDE4F28
:10E7E0001882CF52D14088249924C35DDE4F19820C
:10E7F0001882CD52D140C05EDE4F188219821A8233
:10E800001B82C052D140CE5CDE4F188219821A8220
:10E810001B82C253D140EE24FF2487010BBFF701B6
:10E8200007911691C45CDE4F19830883CC53D14005
:10E830000D940BFEC25EDE4F28813981CE51D1404E
:10E840002130310509F52091C600C25EDE4F1982E4
:10E850001882CE51D14022C02F5F3F4F4F4F5F4FA4
:10E86000213082E138078AE7480780E0580780F0C6
:10E87000C45CDE4FE881F981CC53D140EF5FFF4F9C
:10E8800019F0EE27FF27099420E030E040E050E047
:10E890008091C00087FFE0CF2091C600C35DDE4FAE
:10E8A00048815981CD52D1404F5F5F4FC35DDE4FEC
:10E8B00059834883CD52D140213209F063C64A3092
:10E8C000510508F05FC60894811C911C53E0851621
:10E8D000910409F059C600E010E018C081E280936D
:10E8E000C6008091C00086FFFCCF8091C00080648C
:10E8F0008093C0002F5F3F4F2931310579F70F9486
:10E90000DCF10F5F1F4F0530110519F020E030E0FA
:10E91000E5CF10920A0210920B0210920C02109294
:10E920000D02109206021092070210920802109235
:10E930000902109202021092030210920402109235
:10E9400005028FEE90EE60E00F94F5F180E191EE1C
:10E9500060E00F94C2F18091C00087FFFCCF9091DE
:10E96000C600903608F09F759032B8F09093C600BC
:10E970008091C00086FFFCCF8091C00080648093AE
:10E98000C000A0E2A093C6008091C00086FFFCCF2B
:10E990008091C00080648093C000983409F4D7C18E
:10E9A0009934B8F4923409F459C1933458F490333B
:10E9B00019F1903308F4E3C59F33A1F1903409F0C5
:10E9C000DEC5BDC0953409F470C1963409F0D7C5D1
:10E9D00098C1923509F42BC2933538F49C3409F46C
:10E9E000F5C1913509F0CBC518C2963509F445C279
:10E9F000993509F0C4C567C483E792EE62E00F94CD
:10EA0000F5F110920602109207021092080210927D
:10EA1000090210920A0210920B0210920C0210923C
:10EA20000D0213C18FE792EE62E00F94F5F18FEEC5
:10EA300090EE60E00F94F5F181E291EE60E00F94CA
:10EA4000C2F187EB91EE60E00F94F5F180E391EE77
:10EA500060E00F94C2F184EE90EE60E00F94F5F167
:10EA60008FE391EE60E00F94C2F186E090E061E008
:10EA700070E00F9434F20F94DCF18DE591EE60E0DC
:10EA80000F94C2F189EC91EE60E00F94F5F18EE401
:10EA900091EE60E00F94C2F183EC91EE60E00F9490
:10EAA000F5F18CE691EE60E00F94C2F18EE10F94E7
:10EAB0000DF288E90F940DF281E00F940DF20F949E
:10EAC000DCF18BE791EE60E00F94C2F119E0E0E039
:10EAD000F0E010935700E4918E2F0F940DF20F94F5
:10EAE000DCF18AE891EE60E00F94C2F1E3E0F0E03F
:10EAF00010935700E4918E2F0F940DF20F94DCF1D8
:10EB000089E991EE60E00F94C2F1E2E0F0E0109349
:10EB10005700E4918E2F0F940DF20F94DCF188EAE8
:10EB200091EE60E00F94C2F1E1E0F0E01093570045
:10EB30001491812F0F940DF20F94DCF107CF8BE825
:10EB400092EE62E00F94F5F18BE492EE60E00F94A8
:10EB5000F5F10F94DCF100E010E019C0C8016F2D51
:10EB60000F947FFEFF2031F489E492EE60E00F9471
:10EB7000C2F10BC0F092C6008091C00086FFFCCFAE
:10EB80008091C00080648093C0000F5F1F4FC80158
:10EB900081519F41A0E0B0E0ABBFFC01F790BAE229
:10EBA000FB1621F0E2E000301E07C1F60F94DCF105
:10EBB0000F94DCF187E592EE60E00F94F5F10F948D
:10EBC000DCF1CC24DD2400E010E01EC0C8010F946D
:10EBD00077FEF82E882331F489E492EE60E00F94FA
:10EBE000C2F10BC08093C6008091C00086FFFCCFAD
:10EBF0008091C00080648093C000FE1419F00894D6
:10EC0000C11CD11C0F5F1F4FC80181519F41A0E063
:10EC1000B0E0ABBFFC01E790FAE2EF1621F022E092
:10EC20000030120799F60F94DCF10F94DCF182E6C4
:10EC300092EE60E00F94C2F1C60161E070E00F94C3
:10EC400034F20F94DCF10F94DCF110920202109276
:10EC50000302109204021092050278CE89E992EE26
:10EC600062E00F94F5F1279A2F9A16C02F9880E052
:10EC700090E0E0EDF7E03197F1F7019684369105E9
:10EC8000C1F72F9A80E090E0E0EDF7E03197F1F7DF
:10EC9000019684369105C1F78091C00087FFE6CFC9
:10ECA0008091C00087FFFCCF64C485EA92EE62E0E9
:10ECB0000F94F5F140910202509103026091040219
:10ECC0007091050281E020E10F9491F2809102029F
:10ECD00090910302A0910402B091050280509F4FD1
:10ECE000AF4FBF4F8093020290930302A0930402A0
:10ECF000B093050280509041A040B04008F426CE69
:10ED0000A4CF83EB92EE62E00F94F5F140910602FE
:10ED100050910702609108027091090280E020E1A1
:10ED20000F9491F28091060290910702A09108023F
:10ED3000B091090280509F4FAF4FBF4F80930602A2
:10ED400090930702A0930802B0930902FFCD80ECD4
:10ED500092EE62E00F94F5F183E792EE60E00F949B
:10ED6000F5F18FE792EE60E00F94F5F18BE892EE0B
:10ED700060E00F94F5F189E992EE60E00F94F5F10F
:10ED800085EA92EE60E00F94F5F183EB92EE60E09D
:10ED90000F94F5F180EC92EE60E00F94F5F187ECC2
:10EDA00092EE60E00F94F5F188ED92EE60E00F9442
:10EDB000F5F18FED92EE60E00F94F5F18AEE92EEB0
:10EDC00060E00F94F5F183E093EEBDCD87EC92EE19
:10EDD00062E00F94F5F181E40F947BF282E40F94EA
:10EDE0007BF283E40F947BF284E40F947BF285E45E
:10EDF0000F947BF286E40F947BF287E40F947BF20E
:10EE000088E40F947BF28AE40F947BF28BE40F94F6
:10EE10007BF28CE40F947BF299CD88ED92EE62E068
:10EE20000F94F5F1772473948824992409C48FED05
:10EE300092EE62E00F94F5F140910A0250910B02BC
:10EE400060910C0270910D0282E020E10F9491F22A
:10EE500080910A0290910B02A0910C02B0910D02D8
:10EE600080509F4FAF4FBF4F80930A0290930B0289
:10EE7000A0930C02B0930D0269CD8AEE92EE62E08F
:10EE80000F94F5F184EE90EE60E00F94F5F18FECC5
:10EE900091EE60E00F94F5F1662477244301CC5D98
:10EEA000DE4F19821882C452D140D401C301B695F5
:10EEB000A79597958795CA5DDE4F88839983AA8326
:10EEC000BB83C652D140CC5DDE4FA881B981C4520C
:10EED000D1401196CC5DDE4FB983A883C452D14096
:10EEE000CD0162E070E00F9434F2B0E2B093C6005E
:10EEF0008091C00086FFFCCF8091C0008064809329
:10EF0000C000EDE2E093C6008091C00086FFFCCF18
:10EF10008091C00080648093C000F0E2F093C6004E
:10EF20008091C00086FFFCCF8091C00080648093F8
:10EF3000C000CA5DDE4FE880F9800A811B81C6529D
:10EF4000D140BB27A12F902F8F2D0F940DF2CA5DBA
:10EF5000DE4F8881C652D1400F940DF2B0E2FB2EF5
:10EF6000F092C6008091C00086FFFCCF8091C00067
:10EF700080648093C0000DE30093C6008091C000C0
:10EF800086FFFCCF8091C00080648093C00010E2B7
:10EF90001093C6008091C00086FFFCCF8091C00016
:10EFA00080648093C0008BBEF3012791C65DDE4F65
:10EFB0002883CA52D140A22EBB24CC24DD2408943D
:10EFC000611C711C811C911C8BBEF3018791282E42
:10EFD0003324442455240894611C711C811C911C09
:10EFE0008BBEF3013791C55DDE4F3883CB52D140E4
:10EFF0000894611C711C811C911C8BBEF30147910C
:10F00000C45DDE4F4883CC52D140ADEFEA2EAFEF66
:10F01000FA2EAFEF0A2FAFEF1A2F6E0C7F1C801E57
:10F02000911E142D032DF22CEE24EA0CFB1C0C1D5A
:10F030001D1D0F940DF220E22093C6008091C000A8
:10F0400086FFFCCF8091C00080648093C000C65DC5
:10F05000DE4F8881CA52D1400F940DF230E23093D6
:10F06000C6008091C00086FFFCCF8091C000806404
:10F070008093C000C45DDE4F8881CC52D1400F9494
:10F080000DF240E24093C6008091C00086FFFCCFA5
:10F090008091C00080648093C000C55DDE4F888190
:10F0A000CB52D1400F940DF250E25093C6008091A4
:10F0B000C00086FFFCCF8091C00080648093C000B8
:10F0C0008FEFE8168FEFF80680E0080780E018075A
:10F0D00031F484E092EE60E00F94C2F1DFC0D80119
:10F0E000C7018070907CA070B0708050904CA040A0
:10F0F000B040D1F52FEF3FE340E050E0E222F322B1
:10F1000004231523CA5DDE4FA880B980CA80DB8046
:10F11000C652D140AE0CBF1CC01ED11EAA0CBB1CD7
:10F12000CC1CDD1C8EE092EE60E00F94C2F1BB2798
:10F13000A12F902F8F2D0F940DF28E2D0F940DF285
:10F1400030E23093C6008091C00086FFFCCF8091F2
:10F15000C00080648093C0004EE34093C60080915D
:10F16000C00086FFFCCF87C08EE09EEFA0E0B0E03D
:10F17000E822F9220A231B239CE0E91694E9F90608
:10F1800090E0090790E0190709F088C0C45DDE4FE0
:10F19000A881CC52D140EA2EFF2400E010E0102FCD
:10F1A0000F2DFE2CEE24C55DDE4FB881CB52D14031
:10F1B000EB0EF11C011D111DD601C501817090706F
:10F1C000A070B070DC0199278827E80EF91E0A1F8D
:10F1D0001B1F20EF30E040E050E0A222B322C42207
:10F1E000D52241E1AA0CBB1CCC1CDD1C4A95D1F7F1
:10F1F000EA0CFB1C0C1D1D1D81E090E0A0E0B0E0BE
:10F20000282239224A225B2235E1220C331C441C7D
:10F21000551C3A95D1F7E20CF31C041D151D57013E
:10F220006801AA0CBB1CCC1CDD1C85E192EE60E0E1
:10F230000F94C2F1C801AA27BB270F940DF2BB2778
:10F24000A12F902F8F2D0F940DF28E2D0F940DF274
:10F2500090E29093C6008091C00086FFFCCF809121
:10F26000C00080648093C000AEE3A093C60080918C
:10F27000C00086FFFCCF8091C00080648093C000F6
:10F28000C601AA27BB270F940DF2BB27AD2D9C2DDD
:10F290008B2D0F940DF28A2D0F940DF20F94DCF14B
:10F2A000CC5DDE4FE881F981C452D140F99709F471
:10F2B0004DCBF4E0EF2EF12C012D112D6E0C7F1CA7
:10F2C000801E911EF2CD83E093EE62E00F94F5F183
:10F2D0008AE192EE60E00F94C2F18091C00087FF56
:10F2E000FCCF1091C6001F751093C6008091C0001E
:10F2F00086FFFCCF8091C00080648093C0000F9493
:10F30000DCF1812F81548A3108F036C1163409F4BA
:10F3100095C0173490F4133409F44EC0143430F40B
:10F320001134F1F0123409F01DC130C0143409F465
:10F3300059C0153409F016C16BC01A3409F4C4C0A1
:10F340001B3438F4173409F48FC0183409F00AC19B
:10F35000A1C01B3409F4D2C01C3409F003C1E8C0B9
:10F360008FEF81B90DC082B1809582B980E090E0C5
:10F37000E0EDF7E03197F1F70196883C9105C1F790
:10F380008091C00087FFEFCF12B8EFC08FEF84B934
:10F390000DC085B1809585B980E090E0E0EDF7E0A3
:10F3A0003197F1F70196883C9105C1F78091C00033
:10F3B00087FFEFCF15B8D9C08FEF87B90DC088B1DF
:10F3C000809588B980E090E0E0EDF7E03197F1F7C3
:10F3D0000196883C9105C1F78091C00087FFEFCF6F
:10F3E00018B8C3C08FEF8AB90DC08BB180958BB9A7
:10F3F00080E090E0E0EDF7E03197F1F70196883C8E
:10F400009105C1F78091C00087FFEFCF1BB8ADC059
:10F410008FEF8DB90DC08EB180958EB980E090E0F0
:10F42000E0EDF7E03197F1F70196883C9105C1F7DF
:10F430008091C00087FFEFCF1EB897C08FEF80BBD1
:10F440000DC081B3809581BB80E090E0E0EDF7E0F6
:10F450003197F1F70196883C9105C1F78091C00082
:10F4600087FFEFCF11BA81C08FEF83BB0DC084B38C
:10F47000809584BB80E090E0E0EDF7E03197F1F714
:10F480000196883C9105C1F78091C00087FFEFCFBE
:10F4900014BA6BC08FEF809301010FC080910201FD
:10F4A00080958093020180E090E0E0EDF7E03197F5
:10F4B000F1F70196883C9105C1F78091C00087FF64
:10F4C000EDCF1092020151C08FEF809304010FC065
:10F4D0008091050180958093050180E090E0E0ED4A
:10F4E000F7E03197F1F70196883C9105C1F78091DB
:10F4F000C00087FFEDCF1092050137C08FEF8093DA
:10F5000007010FC08091080180958093080180E079
:10F5100090E0E0EDF7E03197F1F70196883C910536
:10F52000C1F78091C00087FFEDCF109208011DC088
:10F530008FEF80930A010FC080910B01809580931B
:10F540000B0180E090E0E0EDF7E03197F1F70196F4
:10F55000883C9105C1F78091C00087FFEDCF1092E4
:10F560000B0103C085E292EEEEC98091C00087FFD7
:10F57000FCCF8091C600EAC988E392EEE4C98CE131
:10F5800091EEE1C988249924933011F1943028F444
:10F59000913089F09230B8F408C0953061F195301F
:10F5A000F0F0963009F048C043C02B3109F042C951
:10F5B00091E06BE13FC96227C15DDE4F2883CF52E6
:10F5C000D14092E037C9B22FA0E0622793E032C960
:10F5D000822F90E0A82BB92B622794E02BC92E3004
:10F5E00009F039C3622795E0C05DDE4F19821882A9
:10F5F000C053D1401FC9E1E0F0E0EC0FFD1FC05D3A
:10F60000DE4F08811981C053D140E00FF11F2083E4
:10F610000F5F1F4FC05DDE4F19830883C053D14079
:10F6200062270A171B0709F005C9D80196E002C92D
:10F63000261709F010C303C0973009F0FBC87724E0
:10F640009981933109F412C19431C8F4963009F4C8
:10F65000D8C0973050F4923009F406C1933009F4C1
:10F660006DC0913009F059C253C0913109F477C08F
:10F67000923108F0BBC0903109F04FC2F5C098310B
:10F6800009F487C0993150F4953109F4EFC09531F0
:10F6900008F4C6C1963109F040C2C2C19A3109F4DA
:10F6A0006CC09A3108F491C09B3109F45BC09D3164
:10F6B00009F033C29D81903359F48F81882311F46E
:10F6C0009EE11CC0813011F091E018C098E916C08D
:10F6D000892F807591F0903539F4E0E0F0E089E011
:10F6E0008093570094910AC0983539F4E3E0F0E034
:10F6F00089E080935700949101C090E01A821B82A8
:10F700008D818C831D829E831F8227E030E009C299
:10F710001A8288E08B8381E48C8386E58D8382E581
:10F720008E8389E48F8383E5888780E589878FE5E9
:10F730008A8782E38B872BE030E0F3C18A818139AD
:10F7400041F0823941F0803911F48FE005C080E04A
:10F7500003C082E001C08AE01A828B8344C0772410
:10F76000739482C08D81882311F48EE12CC0813086
:10F7700011F081E028C088E926C01A82E1E0F0E0BB
:10F7800089E08093570084918B831C8224E030E0D1
:10F79000C8C18B81803589F48C81883039F4E2E0EE
:10F7A000F0E089E08093570084910DC0E0E0F0E044
:10F7B00089E080935700849106C0E3E0F0E089E09F
:10F7C0008093570084911A82DFCF8D81836C99E0FA
:10F7D000E1E0F0E0082E90935700E89507B600FCB2
:10F7E000FDCF1A821B8223E030E09BC180EC8A832C
:10F7F000CE5CDE4F188219821A821B82C253D1401E
:10F800008EC18A8190E0A0E0B0E0582F44273327D2
:10F8100022278B8190E0A0E0B0E0DC0199278827C7
:10F82000282B392B4A2B5B2B8D8190E0A0E0B0E098
:10F83000282B392B4A2B5B2B8C8190E0A0E0B0E089
:10F84000BA2FA92F982F8827282B392B4A2B5B2BCF
:10F85000220F331F441F551FC05EDE4F288339839C
:10F860004A835B83C052D1401A8259C13A81C95C34
:10F87000DE4F3883C753D140CA5CDE4F1882C6536F
:10F88000D1408B81C82EDD24CA5CDE4F488159816E
:10F89000C653D140C42AD52A933109F082C0CE5C28
:10F8A000DE4F88819981AA81BB81C253D1408050AB
:10F8B000904CA340B04030F583E0CE5CDE4FE88052
:10F8C000F9800A811B81C253D140F70100935B008C
:10F8D00080935700E89507B600FCFDCFCE5CDE4F65
:10F8E000088119812A813B81C253D14000501F4FAA
:10F8F0002F4F3F4FCE5CDE4F088319832A833B8313
:10F90000C253D140C05EDE4F488159816A817B81FC
:10F91000C052D140DE011B9631E08C9111962C91A2
:10F9200011971296C75CDE4F2883C953D140C85C3B
:10F93000DE4F1882C853D14090E0C85CDE4FE881AA
:10F94000F981C853D1408E2B9F2B0C01FA01609393
:10F950005B0030935700E89511244E5F5F4F6F4F67
:10F960007F4F0EEFE02E0FEFF02ECE0CDF1CC114F8
:10F97000D10499F685E0C05EDE4F088119812A81A5
:10F980003B81C052D140F80120935B008093570027
:10F99000E89507B600FCFDCF81E180935700E8951C
:10F9A00035C0C05EDE4F88819981AA81BB81C0527B
:10F9B000D140B695A795979587957C018601ABE0D8
:10F9C000AA2EB12CAC0EBD1E0BC0D5016D915D01F0
:10F9D000C7010F947FFE0894E11CF11C01501040F8
:10F9E0000115110591F7A60160E070E0440F551F65
:10F9F000661F771FC05EDE4FE880F9800A811B8199
:10FA0000C052D1404E0D5F1D601F711F1A82C05E33
:10FA1000DE4F488359836A837B83C052D1407FC0C5
:10FA2000FA80C55CDE4FF882CB53D140C65CDE4F16
:10FA30001882CA53D1408B81C82EDD24C65CDE4FAC
:10FA400008811981CA53D140C02AD12A1A828981DA
:10FA5000BE016D5F7F4F843121F59601C05EDE4FA0
:10FA6000E880F9800A811B81C052D1400BBFF701A9
:10FA700087919691DB018C9311969C936E5F7F4FDB
:10FA8000D801C7010296A11DB11DC05EDE4F88835B
:10FA90009983AA83BB83C052D14022503040F1F6F3
:10FAA00036C0C05EDE4F288139814A815B81C052F9
:10FAB000D1400894C108D108760100E010E0089414
:10FAC000C11CD11C0894E11CF11C011D111DE20E8A
:10FAD000F31E041F151F21BDBB27A52F942F832FB5
:10FAE00082BD2F5F3F4F4F4F5F4FF89A80B5DB01CC
:10FAF0008D93BD012E153F054007510761F7C05E8C
:10FB0000DE4F288339834A835B83C052D1409601FC
:10FB10002D5F3F4FFB01108204C080EC8A8322E0FE
:10FB200030E08BE18093C6008091C00086FFFCCF5F
:10FB30008091C00080648093C000C15DDE4FF88179
:10FB4000CF52D140F093C6008091C00086FFFCCF19
:10FB50008091C00080648093C000432F3093C60022
:10FB60008091C00086FFFCCF8091C00080648093AC
:10FB7000C000922F2093C6008091C00086FFFCCF6A
:10FB80008091C00080648093C0008EE08093C600A6
:10FB90008091C00086FFFCCF8091C000806480937C
:10FBA000C00065E1C15DDE4FE880CF52D1406E25D7
:10FBB00069276427FE01319610C090819093C6009A
:10FBC0008091C00086FFFCCF31968091C000806498
:10FBD0008093C0006927215030402115310569F715
:10FBE0006093C6008091C00086FFFCCF8091C0006A
:10FBF00080648093C00085B1805885B9772081F4F6
:10FC0000C15DDE4F0881CF52D1400F5FC15DDE4F35
:10FC10000883CF52D14090E0A0E0B0E00D941AF4F8
:10FC200027982F9880E090E020ED37E0F901319798
:10FC3000F1F7019684369105C9F700008091C00064
:10FC40008D7F8093C00081E180935700E895EE2777
:10FC5000FF270994FFCF90E00D941AF497FB092E2B
:10FC600007260AD077FD04D02ED006D000201AF443
:10FC7000709561957F4F0895F6F7909581959F4F08
:10FC80000895A1E21A2EAA1BBB1BFD010DC0AA1FDD
:10FC9000BB1FEE1FFF1FA217B307E407F50720F0F5
:10FCA000A21BB30BE40BF50B661F771F881F991F70
:10FCB0001A9469F760957095809590959B01AC01B9
:10FCC000BD01CF010895AA1BBB1B51E107C0AA1FAC
:10FCD000BB1FA617B70710F0A61BB70B881F991FED
:10FCE0005A95A9F780959095BC01CD010895F99991
:10FCF000FECF92BD81BDF89A992780B50895262F31
:10FD0000F999FECF1FBA92BD81BD20BD0FB6F89400
:0EFD1000FA9AF99A0FBE01960895F894FFCF63
:040000033000E000E9
:00000001FF